{
	"Function Selector.sol": {
		"CallerContract": {
			"abi": [
				{
					"inputs": [
						{
							"internalType": "address",
							"name": "",
							"type": "address"
						}
					],
					"name": "balanceOf",
					"outputs": [
						{
							"internalType": "uint256",
							"name": "",
							"type": "uint256"
						}
					],
					"stateMutability": "view",
					"type": "function"
				},
				{
					"inputs": [
						{
							"internalType": "address",
							"name": "tokenAddress",
							"type": "address"
						},
						{
							"internalType": "bytes4",
							"name": "transferSelector",
							"type": "bytes4"
						},
						{
							"internalType": "address",
							"name": "_to",
							"type": "address"
						},
						{
							"internalType": "uint256",
							"name": "amount",
							"type": "uint256"
						}
					],
					"name": "callTransfer",
					"outputs": [
						{
							"internalType": "bool",
							"name": "",
							"type": "bool"
						}
					],
					"stateMutability": "nonpayable",
					"type": "function"
				},
				{
					"inputs": [],
					"name": "sender",
					"outputs": [
						{
							"internalType": "address",
							"name": "",
							"type": "address"
						}
					],
					"stateMutability": "view",
					"type": "function"
				}
			],
			"devdoc": {
				"kind": "dev",
				"methods": {},
				"version": 1
			},
			"evm": {
				"assembly": "    /* \"Function Selector.sol\":893:1695  contract CallerContract {... */\n  mstore(0x40, 0x80)\n  callvalue\n  dup1\n  iszero\n  tag_1\n  jumpi\n  revert(0x00, 0x00)\ntag_1:\n  pop\n  dataSize(sub_0)\n  dup1\n  dataOffset(sub_0)\n  0x00\n  codecopy\n  0x00\n  return\nstop\n\nsub_0: assembly {\n        /* \"Function Selector.sol\":893:1695  contract CallerContract {... */\n      mstore(0x40, 0x80)\n      callvalue\n      dup1\n      iszero\n      tag_1\n      jumpi\n      revert(0x00, 0x00)\n    tag_1:\n      pop\n      jumpi(tag_2, lt(calldatasize, 0x04))\n      shr(0xe0, calldataload(0x00))\n      dup1\n      0x67e404ce\n      eq\n      tag_3\n      jumpi\n      dup1\n      0x70a08231\n      eq\n      tag_4\n      jumpi\n      dup1\n      0xe3729a88\n      eq\n      tag_5\n      jumpi\n    tag_2:\n      revert(0x00, 0x00)\n        /* \"Function Selector.sol\":973:994  address public sender */\n    tag_3:\n      tag_6\n      tag_7\n      jump\t// in\n    tag_6:\n      mload(0x40)\n      tag_8\n      swap2\n      swap1\n      tag_9\n      jump\t// in\n    tag_8:\n      mload(0x40)\n      dup1\n      swap2\n      sub\n      swap1\n      return\n        /* \"Function Selector.sol\":923:967  mapping(address => uint256) public balanceOf */\n    tag_4:\n      tag_10\n      0x04\n      dup1\n      calldatasize\n      sub\n      dup2\n      add\n      swap1\n      tag_11\n      swap2\n      swap1\n      tag_12\n      jump\t// in\n    tag_11:\n      tag_13\n      jump\t// in\n    tag_10:\n      mload(0x40)\n      tag_14\n      swap2\n      swap1\n      tag_15\n      jump\t// in\n    tag_14:\n      mload(0x40)\n      dup1\n      swap2\n      sub\n      swap1\n      return\n        /* \"Function Selector.sol\":1229:1693  function callTransfer(address tokenAddress, bytes4 transferSelector, address _to, uint256 amount) public returns (bool) {... */\n    tag_5:\n      tag_16\n      0x04\n      dup1\n      calldatasize\n      sub\n      dup2\n      add\n      swap1\n      tag_17\n      swap2\n      swap1\n      tag_18\n      jump\t// in\n    tag_17:\n      tag_19\n      jump\t// in\n    tag_16:\n      mload(0x40)\n      tag_20\n      swap2\n      swap1\n      tag_21\n      jump\t// in\n    tag_20:\n      mload(0x40)\n      dup1\n      swap2\n      sub\n      swap1\n      return\n        /* \"Function Selector.sol\":973:994  address public sender */\n    tag_7:\n      0x01\n      0x00\n      swap1\n      sload\n      swap1\n      0x0100\n      exp\n      swap1\n      div\n      0xffffffffffffffffffffffffffffffffffffffff\n      and\n      dup2\n      jump\t// out\n        /* \"Function Selector.sol\":923:967  mapping(address => uint256) public balanceOf */\n    tag_13:\n      mstore(0x20, 0x00)\n      dup1\n      0x00\n      mstore\n      keccak256(0x00, 0x40)\n      0x00\n      swap2\n      pop\n      swap1\n      pop\n      sload\n      dup2\n      jump\t// out\n        /* \"Function Selector.sol\":1229:1693  function callTransfer(address tokenAddress, bytes4 transferSelector, address _to, uint256 amount) public returns (bool) {... */\n    tag_19:\n        /* \"Function Selector.sol\":1343:1347  bool */\n      0x00\n        /* \"Function Selector.sol\":1360:1372  bool success */\n      0x00\n        /* \"Function Selector.sol\":1374:1391  bytes memory data */\n      0x00\n        /* \"Function Selector.sol\":1395:1407  tokenAddress */\n      dup7\n        /* \"Function Selector.sol\":1395:1420  tokenAddress.delegatecall */\n      0xffffffffffffffffffffffffffffffffffffffff\n      and\n        /* \"Function Selector.sol\":1457:1473  transferSelector */\n      dup7\n        /* \"Function Selector.sol\":1475:1478  _to */\n      dup7\n        /* \"Function Selector.sol\":1480:1486  amount */\n      dup7\n        /* \"Function Selector.sol\":1434:1487  abi.encodeWithSelector(transferSelector, _to, amount) */\n      add(0x24, mload(0x40))\n      tag_23\n      swap3\n      swap2\n      swap1\n      tag_24\n      jump\t// in\n    tag_23:\n      mload(0x40)\n      0x20\n      dup2\n      dup4\n      sub\n      sub\n      dup2\n      mstore\n      swap1\n      0x40\n      mstore\n      swap1\n      not(0xffffffffffffffffffffffffffffffffffffffffffffffffffffffff)\n      and\n      0x20\n      dup3\n      add\n      dup1\n      mload\n      0xffffffffffffffffffffffffffffffffffffffffffffffffffffffff\n      dup4\n      dup2\n      dup4\n      and\n      or\n      dup4\n      mstore\n      pop\n      pop\n      pop\n      pop\n        /* \"Function Selector.sol\":1395:1497  tokenAddress.delegatecall(... */\n      mload(0x40)\n      tag_25\n      swap2\n      swap1\n      tag_26\n      jump\t// in\n    tag_25:\n      0x00\n      mload(0x40)\n      dup1\n      dup4\n      sub\n      dup2\n      dup6\n      gas\n      delegatecall\n      swap2\n      pop\n      pop\n      returndatasize\n      dup1\n      0x00\n      dup2\n      eq\n      tag_29\n      jumpi\n      mload(0x40)\n      swap2\n      pop\n      and(add(returndatasize, 0x3f), not(0x1f))\n      dup3\n      add\n      0x40\n      mstore\n      returndatasize\n      dup3\n      mstore\n      returndatasize\n      0x00\n      0x20\n      dup5\n      add\n      returndatacopy\n      jump(tag_28)\n    tag_29:\n      0x60\n      swap2\n      pop\n    tag_28:\n      pop\n        /* \"Function Selector.sol\":1359:1497  (bool success, bytes memory data) = tokenAddress.delegatecall(... */\n      swap2\n      pop\n      swap2\n      pop\n        /* \"Function Selector.sol\":1515:1522  success */\n      dup2\n        /* \"Function Selector.sol\":1507:1550  require(success, \"Call to transfer failed\") */\n      tag_30\n      jumpi\n      mload(0x40)\n      0x08c379a000000000000000000000000000000000000000000000000000000000\n      dup2\n      mstore\n      0x04\n      add\n      tag_31\n      swap1\n      tag_32\n      jump\t// in\n    tag_31:\n      mload(0x40)\n      dup1\n      swap2\n      sub\n      swap1\n      revert\n    tag_30:\n        /* \"Function Selector.sol\":1673:1677  data */\n      dup1\n        /* \"Function Selector.sol\":1662:1686  abi.decode(data, (bool)) */\n      dup1\n      0x20\n      add\n      swap1\n      mload\n      dup2\n      add\n      swap1\n      tag_33\n      swap2\n      swap1\n      tag_34\n      jump\t// in\n    tag_33:\n        /* \"Function Selector.sol\":1655:1686  return abi.decode(data, (bool)) */\n      swap3\n      pop\n      pop\n      pop\n        /* \"Function Selector.sol\":1229:1693  function callTransfer(address tokenAddress, bytes4 transferSelector, address _to, uint256 amount) public returns (bool) {... */\n      swap5\n      swap4\n      pop\n      pop\n      pop\n      pop\n      jump\t// out\n        /* \"#utility.yul\":7:133   */\n    tag_35:\n        /* \"#utility.yul\":44:51   */\n      0x00\n        /* \"#utility.yul\":84:126   */\n      0xffffffffffffffffffffffffffffffffffffffff\n        /* \"#utility.yul\":77:82   */\n      dup3\n        /* \"#utility.yul\":73:127   */\n      and\n        /* \"#utility.yul\":62:127   */\n      swap1\n      pop\n        /* \"#utility.yul\":7:133   */\n      swap2\n      swap1\n      pop\n      jump\t// out\n        /* \"#utility.yul\":139:235   */\n    tag_36:\n        /* \"#utility.yul\":176:183   */\n      0x00\n        /* \"#utility.yul\":205:229   */\n      tag_64\n        /* \"#utility.yul\":223:228   */\n      dup3\n        /* \"#utility.yul\":205:229   */\n      tag_35\n      jump\t// in\n    tag_64:\n        /* \"#utility.yul\":194:229   */\n      swap1\n      pop\n        /* \"#utility.yul\":139:235   */\n      swap2\n      swap1\n      pop\n      jump\t// out\n        /* \"#utility.yul\":241:359   */\n    tag_37:\n        /* \"#utility.yul\":328:352   */\n      tag_66\n        /* \"#utility.yul\":346:351   */\n      dup2\n        /* \"#utility.yul\":328:352   */\n      tag_36\n      jump\t// in\n    tag_66:\n        /* \"#utility.yul\":323:326   */\n      dup3\n        /* \"#utility.yul\":316:353   */\n      mstore\n        /* \"#utility.yul\":241:359   */\n      pop\n      pop\n      jump\t// out\n        /* \"#utility.yul\":365:587   */\n    tag_9:\n        /* \"#utility.yul\":458:462   */\n      0x00\n        /* \"#utility.yul\":496:498   */\n      0x20\n        /* \"#utility.yul\":485:494   */\n      dup3\n        /* \"#utility.yul\":481:499   */\n      add\n        /* \"#utility.yul\":473:499   */\n      swap1\n      pop\n        /* \"#utility.yul\":509:580   */\n      tag_68\n        /* \"#utility.yul\":577:578   */\n      0x00\n        /* \"#utility.yul\":566:575   */\n      dup4\n        /* \"#utility.yul\":562:579   */\n      add\n        /* \"#utility.yul\":553:559   */\n      dup5\n        /* \"#utility.yul\":509:580   */\n      tag_37\n      jump\t// in\n    tag_68:\n        /* \"#utility.yul\":365:587   */\n      swap3\n      swap2\n      pop\n      pop\n      jump\t// out\n        /* \"#utility.yul\":674:791   */\n    tag_39:\n        /* \"#utility.yul\":783:784   */\n      0x00\n        /* \"#utility.yul\":780:781   */\n      0x00\n        /* \"#utility.yul\":773:785   */\n      revert\n        /* \"#utility.yul\":920:1042   */\n    tag_41:\n        /* \"#utility.yul\":993:1017   */\n      tag_73\n        /* \"#utility.yul\":1011:1016   */\n      dup2\n        /* \"#utility.yul\":993:1017   */\n      tag_36\n      jump\t// in\n    tag_73:\n        /* \"#utility.yul\":986:991   */\n      dup2\n        /* \"#utility.yul\":983:1018   */\n      eq\n        /* \"#utility.yul\":973:1036   */\n      tag_74\n      jumpi\n        /* \"#utility.yul\":1032:1033   */\n      0x00\n        /* \"#utility.yul\":1029:1030   */\n      0x00\n        /* \"#utility.yul\":1022:1034   */\n      revert\n        /* \"#utility.yul\":973:1036   */\n    tag_74:\n        /* \"#utility.yul\":920:1042   */\n      pop\n      jump\t// out\n        /* \"#utility.yul\":1048:1187   */\n    tag_42:\n        /* \"#utility.yul\":1094:1099   */\n      0x00\n        /* \"#utility.yul\":1132:1138   */\n      dup2\n        /* \"#utility.yul\":1119:1139   */\n      calldataload\n        /* \"#utility.yul\":1110:1139   */\n      swap1\n      pop\n        /* \"#utility.yul\":1148:1181   */\n      tag_76\n        /* \"#utility.yul\":1175:1180   */\n      dup2\n        /* \"#utility.yul\":1148:1181   */\n      tag_41\n      jump\t// in\n    tag_76:\n        /* \"#utility.yul\":1048:1187   */\n      swap3\n      swap2\n      pop\n      pop\n      jump\t// out\n        /* \"#utility.yul\":1193:1522   */\n    tag_12:\n        /* \"#utility.yul\":1252:1258   */\n      0x00\n        /* \"#utility.yul\":1301:1303   */\n      0x20\n        /* \"#utility.yul\":1289:1298   */\n      dup3\n        /* \"#utility.yul\":1280:1287   */\n      dup5\n        /* \"#utility.yul\":1276:1299   */\n      sub\n        /* \"#utility.yul\":1272:1304   */\n      slt\n        /* \"#utility.yul\":1269:1388   */\n      iszero\n      tag_78\n      jumpi\n        /* \"#utility.yul\":1307:1386   */\n      tag_79\n      tag_39\n      jump\t// in\n    tag_79:\n        /* \"#utility.yul\":1269:1388   */\n    tag_78:\n        /* \"#utility.yul\":1427:1428   */\n      0x00\n        /* \"#utility.yul\":1452:1505   */\n      tag_80\n        /* \"#utility.yul\":1497:1504   */\n      dup5\n        /* \"#utility.yul\":1488:1494   */\n      dup3\n        /* \"#utility.yul\":1477:1486   */\n      dup6\n        /* \"#utility.yul\":1473:1495   */\n      add\n        /* \"#utility.yul\":1452:1505   */\n      tag_42\n      jump\t// in\n    tag_80:\n        /* \"#utility.yul\":1442:1505   */\n      swap2\n      pop\n        /* \"#utility.yul\":1398:1515   */\n      pop\n        /* \"#utility.yul\":1193:1522   */\n      swap3\n      swap2\n      pop\n      pop\n      jump\t// out\n        /* \"#utility.yul\":1528:1605   */\n    tag_43:\n        /* \"#utility.yul\":1565:1572   */\n      0x00\n        /* \"#utility.yul\":1594:1599   */\n      dup2\n        /* \"#utility.yul\":1583:1599   */\n      swap1\n      pop\n        /* \"#utility.yul\":1528:1605   */\n      swap2\n      swap1\n      pop\n      jump\t// out\n        /* \"#utility.yul\":1611:1729   */\n    tag_44:\n        /* \"#utility.yul\":1698:1722   */\n      tag_83\n        /* \"#utility.yul\":1716:1721   */\n      dup2\n        /* \"#utility.yul\":1698:1722   */\n      tag_43\n      jump\t// in\n    tag_83:\n        /* \"#utility.yul\":1693:1696   */\n      dup3\n        /* \"#utility.yul\":1686:1723   */\n      mstore\n        /* \"#utility.yul\":1611:1729   */\n      pop\n      pop\n      jump\t// out\n        /* \"#utility.yul\":1735:1957   */\n    tag_15:\n        /* \"#utility.yul\":1828:1832   */\n      0x00\n        /* \"#utility.yul\":1866:1868   */\n      0x20\n        /* \"#utility.yul\":1855:1864   */\n      dup3\n        /* \"#utility.yul\":1851:1869   */\n      add\n        /* \"#utility.yul\":1843:1869   */\n      swap1\n      pop\n        /* \"#utility.yul\":1879:1950   */\n      tag_85\n        /* \"#utility.yul\":1947:1948   */\n      0x00\n        /* \"#utility.yul\":1936:1945   */\n      dup4\n        /* \"#utility.yul\":1932:1949   */\n      add\n        /* \"#utility.yul\":1923:1929   */\n      dup5\n        /* \"#utility.yul\":1879:1950   */\n      tag_44\n      jump\t// in\n    tag_85:\n        /* \"#utility.yul\":1735:1957   */\n      swap3\n      swap2\n      pop\n      pop\n      jump\t// out\n        /* \"#utility.yul\":1963:2112   */\n    tag_45:\n        /* \"#utility.yul\":1999:2006   */\n      0x00\n        /* \"#utility.yul\":2039:2105   */\n      0xffffffff00000000000000000000000000000000000000000000000000000000\n        /* \"#utility.yul\":2032:2037   */\n      dup3\n        /* \"#utility.yul\":2028:2106   */\n      and\n        /* \"#utility.yul\":2017:2106   */\n      swap1\n      pop\n        /* \"#utility.yul\":1963:2112   */\n      swap2\n      swap1\n      pop\n      jump\t// out\n        /* \"#utility.yul\":2118:2238   */\n    tag_46:\n        /* \"#utility.yul\":2190:2213   */\n      tag_88\n        /* \"#utility.yul\":2207:2212   */\n      dup2\n        /* \"#utility.yul\":2190:2213   */\n      tag_45\n      jump\t// in\n    tag_88:\n        /* \"#utility.yul\":2183:2188   */\n      dup2\n        /* \"#utility.yul\":2180:2214   */\n      eq\n        /* \"#utility.yul\":2170:2232   */\n      tag_89\n      jumpi\n        /* \"#utility.yul\":2228:2229   */\n      0x00\n        /* \"#utility.yul\":2225:2226   */\n      0x00\n        /* \"#utility.yul\":2218:2230   */\n      revert\n        /* \"#utility.yul\":2170:2232   */\n    tag_89:\n        /* \"#utility.yul\":2118:2238   */\n      pop\n      jump\t// out\n        /* \"#utility.yul\":2244:2381   */\n    tag_47:\n        /* \"#utility.yul\":2289:2294   */\n      0x00\n        /* \"#utility.yul\":2327:2333   */\n      dup2\n        /* \"#utility.yul\":2314:2334   */\n      calldataload\n        /* \"#utility.yul\":2305:2334   */\n      swap1\n      pop\n        /* \"#utility.yul\":2343:2375   */\n      tag_91\n        /* \"#utility.yul\":2369:2374   */\n      dup2\n        /* \"#utility.yul\":2343:2375   */\n      tag_46\n      jump\t// in\n    tag_91:\n        /* \"#utility.yul\":2244:2381   */\n      swap3\n      swap2\n      pop\n      pop\n      jump\t// out\n        /* \"#utility.yul\":2387:2509   */\n    tag_48:\n        /* \"#utility.yul\":2460:2484   */\n      tag_93\n        /* \"#utility.yul\":2478:2483   */\n      dup2\n        /* \"#utility.yul\":2460:2484   */\n      tag_43\n      jump\t// in\n    tag_93:\n        /* \"#utility.yul\":2453:2458   */\n      dup2\n        /* \"#utility.yul\":2450:2485   */\n      eq\n        /* \"#utility.yul\":2440:2503   */\n      tag_94\n      jumpi\n        /* \"#utility.yul\":2499:2500   */\n      0x00\n        /* \"#utility.yul\":2496:2497   */\n      0x00\n        /* \"#utility.yul\":2489:2501   */\n      revert\n        /* \"#utility.yul\":2440:2503   */\n    tag_94:\n        /* \"#utility.yul\":2387:2509   */\n      pop\n      jump\t// out\n        /* \"#utility.yul\":2515:2654   */\n    tag_49:\n        /* \"#utility.yul\":2561:2566   */\n      0x00\n        /* \"#utility.yul\":2599:2605   */\n      dup2\n        /* \"#utility.yul\":2586:2606   */\n      calldataload\n        /* \"#utility.yul\":2577:2606   */\n      swap1\n      pop\n        /* \"#utility.yul\":2615:2648   */\n      tag_96\n        /* \"#utility.yul\":2642:2647   */\n      dup2\n        /* \"#utility.yul\":2615:2648   */\n      tag_48\n      jump\t// in\n    tag_96:\n        /* \"#utility.yul\":2515:2654   */\n      swap3\n      swap2\n      pop\n      pop\n      jump\t// out\n        /* \"#utility.yul\":2660:3423   */\n    tag_18:\n        /* \"#utility.yul\":2745:2751   */\n      0x00\n        /* \"#utility.yul\":2753:2759   */\n      0x00\n        /* \"#utility.yul\":2761:2767   */\n      0x00\n        /* \"#utility.yul\":2769:2775   */\n      0x00\n        /* \"#utility.yul\":2818:2821   */\n      0x80\n        /* \"#utility.yul\":2806:2815   */\n      dup6\n        /* \"#utility.yul\":2797:2804   */\n      dup8\n        /* \"#utility.yul\":2793:2816   */\n      sub\n        /* \"#utility.yul\":2789:2822   */\n      slt\n        /* \"#utility.yul\":2786:2906   */\n      iszero\n      tag_98\n      jumpi\n        /* \"#utility.yul\":2825:2904   */\n      tag_99\n      tag_39\n      jump\t// in\n    tag_99:\n        /* \"#utility.yul\":2786:2906   */\n    tag_98:\n        /* \"#utility.yul\":2945:2946   */\n      0x00\n        /* \"#utility.yul\":2970:3023   */\n      tag_100\n        /* \"#utility.yul\":3015:3022   */\n      dup8\n        /* \"#utility.yul\":3006:3012   */\n      dup3\n        /* \"#utility.yul\":2995:3004   */\n      dup9\n        /* \"#utility.yul\":2991:3013   */\n      add\n        /* \"#utility.yul\":2970:3023   */\n      tag_42\n      jump\t// in\n    tag_100:\n        /* \"#utility.yul\":2960:3023   */\n      swap5\n      pop\n        /* \"#utility.yul\":2916:3033   */\n      pop\n        /* \"#utility.yul\":3072:3074   */\n      0x20\n        /* \"#utility.yul\":3098:3150   */\n      tag_101\n        /* \"#utility.yul\":3142:3149   */\n      dup8\n        /* \"#utility.yul\":3133:3139   */\n      dup3\n        /* \"#utility.yul\":3122:3131   */\n      dup9\n        /* \"#utility.yul\":3118:3140   */\n      add\n        /* \"#utility.yul\":3098:3150   */\n      tag_47\n      jump\t// in\n    tag_101:\n        /* \"#utility.yul\":3088:3150   */\n      swap4\n      pop\n        /* \"#utility.yul\":3043:3160   */\n      pop\n        /* \"#utility.yul\":3199:3201   */\n      0x40\n        /* \"#utility.yul\":3225:3278   */\n      tag_102\n        /* \"#utility.yul\":3270:3277   */\n      dup8\n        /* \"#utility.yul\":3261:3267   */\n      dup3\n        /* \"#utility.yul\":3250:3259   */\n      dup9\n        /* \"#utility.yul\":3246:3268   */\n      add\n        /* \"#utility.yul\":3225:3278   */\n      tag_42\n      jump\t// in\n    tag_102:\n        /* \"#utility.yul\":3215:3278   */\n      swap3\n      pop\n        /* \"#utility.yul\":3170:3288   */\n      pop\n        /* \"#utility.yul\":3327:3329   */\n      0x60\n        /* \"#utility.yul\":3353:3406   */\n      tag_103\n        /* \"#utility.yul\":3398:3405   */\n      dup8\n        /* \"#utility.yul\":3389:3395   */\n      dup3\n        /* \"#utility.yul\":3378:3387   */\n      dup9\n        /* \"#utility.yul\":3374:3396   */\n      add\n        /* \"#utility.yul\":3353:3406   */\n      tag_49\n      jump\t// in\n    tag_103:\n        /* \"#utility.yul\":3343:3406   */\n      swap2\n      pop\n        /* \"#utility.yul\":3298:3416   */\n      pop\n        /* \"#utility.yul\":2660:3423   */\n      swap3\n      swap6\n      swap2\n      swap5\n      pop\n      swap3\n      pop\n      jump\t// out\n        /* \"#utility.yul\":3429:3519   */\n    tag_50:\n        /* \"#utility.yul\":3463:3470   */\n      0x00\n        /* \"#utility.yul\":3506:3511   */\n      dup2\n        /* \"#utility.yul\":3499:3512   */\n      iszero\n        /* \"#utility.yul\":3492:3513   */\n      iszero\n        /* \"#utility.yul\":3481:3513   */\n      swap1\n      pop\n        /* \"#utility.yul\":3429:3519   */\n      swap2\n      swap1\n      pop\n      jump\t// out\n        /* \"#utility.yul\":3525:3634   */\n    tag_51:\n        /* \"#utility.yul\":3606:3627   */\n      tag_106\n        /* \"#utility.yul\":3621:3626   */\n      dup2\n        /* \"#utility.yul\":3606:3627   */\n      tag_50\n      jump\t// in\n    tag_106:\n        /* \"#utility.yul\":3601:3604   */\n      dup3\n        /* \"#utility.yul\":3594:3628   */\n      mstore\n        /* \"#utility.yul\":3525:3634   */\n      pop\n      pop\n      jump\t// out\n        /* \"#utility.yul\":3640:3850   */\n    tag_21:\n        /* \"#utility.yul\":3727:3731   */\n      0x00\n        /* \"#utility.yul\":3765:3767   */\n      0x20\n        /* \"#utility.yul\":3754:3763   */\n      dup3\n        /* \"#utility.yul\":3750:3768   */\n      add\n        /* \"#utility.yul\":3742:3768   */\n      swap1\n      pop\n        /* \"#utility.yul\":3778:3843   */\n      tag_108\n        /* \"#utility.yul\":3840:3841   */\n      0x00\n        /* \"#utility.yul\":3829:3838   */\n      dup4\n        /* \"#utility.yul\":3825:3842   */\n      add\n        /* \"#utility.yul\":3816:3822   */\n      dup5\n        /* \"#utility.yul\":3778:3843   */\n      tag_51\n      jump\t// in\n    tag_108:\n        /* \"#utility.yul\":3640:3850   */\n      swap3\n      swap2\n      pop\n      pop\n      jump\t// out\n        /* \"#utility.yul\":3856:4188   */\n    tag_24:\n        /* \"#utility.yul\":3977:3981   */\n      0x00\n        /* \"#utility.yul\":4015:4017   */\n      0x40\n        /* \"#utility.yul\":4004:4013   */\n      dup3\n        /* \"#utility.yul\":4000:4018   */\n      add\n        /* \"#utility.yul\":3992:4018   */\n      swap1\n      pop\n        /* \"#utility.yul\":4028:4099   */\n      tag_110\n        /* \"#utility.yul\":4096:4097   */\n      0x00\n        /* \"#utility.yul\":4085:4094   */\n      dup4\n        /* \"#utility.yul\":4081:4098   */\n      add\n        /* \"#utility.yul\":4072:4078   */\n      dup6\n        /* \"#utility.yul\":4028:4099   */\n      tag_37\n      jump\t// in\n    tag_110:\n        /* \"#utility.yul\":4109:4181   */\n      tag_111\n        /* \"#utility.yul\":4177:4179   */\n      0x20\n        /* \"#utility.yul\":4166:4175   */\n      dup4\n        /* \"#utility.yul\":4162:4180   */\n      add\n        /* \"#utility.yul\":4153:4159   */\n      dup5\n        /* \"#utility.yul\":4109:4181   */\n      tag_44\n      jump\t// in\n    tag_111:\n        /* \"#utility.yul\":3856:4188   */\n      swap4\n      swap3\n      pop\n      pop\n      pop\n      jump\t// out\n        /* \"#utility.yul\":4194:4292   */\n    tag_52:\n        /* \"#utility.yul\":4245:4251   */\n      0x00\n        /* \"#utility.yul\":4279:4284   */\n      dup2\n        /* \"#utility.yul\":4273:4285   */\n      mload\n        /* \"#utility.yul\":4263:4285   */\n      swap1\n      pop\n        /* \"#utility.yul\":4194:4292   */\n      swap2\n      swap1\n      pop\n      jump\t// out\n        /* \"#utility.yul\":4298:4445   */\n    tag_53:\n        /* \"#utility.yul\":4399:4410   */\n      0x00\n        /* \"#utility.yul\":4436:4439   */\n      dup2\n        /* \"#utility.yul\":4421:4439   */\n      swap1\n      pop\n        /* \"#utility.yul\":4298:4445   */\n      swap3\n      swap2\n      pop\n      pop\n      jump\t// out\n        /* \"#utility.yul\":4451:4590   */\n    tag_54:\n        /* \"#utility.yul\":4540:4546   */\n      dup3\n        /* \"#utility.yul\":4535:4538   */\n      dup2\n        /* \"#utility.yul\":4530:4533   */\n      dup4\n        /* \"#utility.yul\":4524:4547   */\n      mcopy\n        /* \"#utility.yul\":4581:4582   */\n      0x00\n        /* \"#utility.yul\":4572:4578   */\n      dup4\n        /* \"#utility.yul\":4567:4570   */\n      dup4\n        /* \"#utility.yul\":4563:4579   */\n      add\n        /* \"#utility.yul\":4556:4583   */\n      mstore\n        /* \"#utility.yul\":4451:4590   */\n      pop\n      pop\n      pop\n      jump\t// out\n        /* \"#utility.yul\":4596:4982   */\n    tag_55:\n        /* \"#utility.yul\":4700:4703   */\n      0x00\n        /* \"#utility.yul\":4728:4766   */\n      tag_116\n        /* \"#utility.yul\":4760:4765   */\n      dup3\n        /* \"#utility.yul\":4728:4766   */\n      tag_52\n      jump\t// in\n    tag_116:\n        /* \"#utility.yul\":4782:4870   */\n      tag_117\n        /* \"#utility.yul\":4863:4869   */\n      dup2\n        /* \"#utility.yul\":4858:4861   */\n      dup6\n        /* \"#utility.yul\":4782:4870   */\n      tag_53\n      jump\t// in\n    tag_117:\n        /* \"#utility.yul\":4775:4870   */\n      swap4\n      pop\n        /* \"#utility.yul\":4879:4944   */\n      tag_118\n        /* \"#utility.yul\":4937:4943   */\n      dup2\n        /* \"#utility.yul\":4932:4935   */\n      dup6\n        /* \"#utility.yul\":4925:4929   */\n      0x20\n        /* \"#utility.yul\":4918:4923   */\n      dup7\n        /* \"#utility.yul\":4914:4930   */\n      add\n        /* \"#utility.yul\":4879:4944   */\n      tag_54\n      jump\t// in\n    tag_118:\n        /* \"#utility.yul\":4969:4975   */\n      dup1\n        /* \"#utility.yul\":4964:4967   */\n      dup5\n        /* \"#utility.yul\":4960:4976   */\n      add\n        /* \"#utility.yul\":4953:4976   */\n      swap2\n      pop\n        /* \"#utility.yul\":4704:4982   */\n      pop\n        /* \"#utility.yul\":4596:4982   */\n      swap3\n      swap2\n      pop\n      pop\n      jump\t// out\n        /* \"#utility.yul\":4988:5259   */\n    tag_26:\n        /* \"#utility.yul\":5118:5121   */\n      0x00\n        /* \"#utility.yul\":5140:5233   */\n      tag_120\n        /* \"#utility.yul\":5229:5232   */\n      dup3\n        /* \"#utility.yul\":5220:5226   */\n      dup5\n        /* \"#utility.yul\":5140:5233   */\n      tag_55\n      jump\t// in\n    tag_120:\n        /* \"#utility.yul\":5133:5233   */\n      swap2\n      pop\n        /* \"#utility.yul\":5250:5253   */\n      dup2\n        /* \"#utility.yul\":5243:5253   */\n      swap1\n      pop\n        /* \"#utility.yul\":4988:5259   */\n      swap3\n      swap2\n      pop\n      pop\n      jump\t// out\n        /* \"#utility.yul\":5265:5434   */\n    tag_56:\n        /* \"#utility.yul\":5349:5360   */\n      0x00\n        /* \"#utility.yul\":5383:5389   */\n      dup3\n        /* \"#utility.yul\":5378:5381   */\n      dup3\n        /* \"#utility.yul\":5371:5390   */\n      mstore\n        /* \"#utility.yul\":5423:5427   */\n      0x20\n        /* \"#utility.yul\":5418:5421   */\n      dup3\n        /* \"#utility.yul\":5414:5428   */\n      add\n        /* \"#utility.yul\":5399:5428   */\n      swap1\n      pop\n        /* \"#utility.yul\":5265:5434   */\n      swap3\n      swap2\n      pop\n      pop\n      jump\t// out\n        /* \"#utility.yul\":5440:5613   */\n    tag_57:\n        /* \"#utility.yul\":5580:5605   */\n      0x43616c6c20746f207472616e73666572206661696c6564000000000000000000\n        /* \"#utility.yul\":5576:5577   */\n      0x00\n        /* \"#utility.yul\":5568:5574   */\n      dup3\n        /* \"#utility.yul\":5564:5578   */\n      add\n        /* \"#utility.yul\":5557:5606   */\n      mstore\n        /* \"#utility.yul\":5440:5613   */\n      pop\n      jump\t// out\n        /* \"#utility.yul\":5619:5985   */\n    tag_58:\n        /* \"#utility.yul\":5761:5764   */\n      0x00\n        /* \"#utility.yul\":5782:5849   */\n      tag_124\n        /* \"#utility.yul\":5846:5848   */\n      0x17\n        /* \"#utility.yul\":5841:5844   */\n      dup4\n        /* \"#utility.yul\":5782:5849   */\n      tag_56\n      jump\t// in\n    tag_124:\n        /* \"#utility.yul\":5775:5849   */\n      swap2\n      pop\n        /* \"#utility.yul\":5858:5951   */\n      tag_125\n        /* \"#utility.yul\":5947:5950   */\n      dup3\n        /* \"#utility.yul\":5858:5951   */\n      tag_57\n      jump\t// in\n    tag_125:\n        /* \"#utility.yul\":5976:5978   */\n      0x20\n        /* \"#utility.yul\":5971:5974   */\n      dup3\n        /* \"#utility.yul\":5967:5979   */\n      add\n        /* \"#utility.yul\":5960:5979   */\n      swap1\n      pop\n        /* \"#utility.yul\":5619:5985   */\n      swap2\n      swap1\n      pop\n      jump\t// out\n        /* \"#utility.yul\":5991:6410   */\n    tag_32:\n        /* \"#utility.yul\":6157:6161   */\n      0x00\n        /* \"#utility.yul\":6195:6197   */\n      0x20\n        /* \"#utility.yul\":6184:6193   */\n      dup3\n        /* \"#utility.yul\":6180:6198   */\n      add\n        /* \"#utility.yul\":6172:6198   */\n      swap1\n      pop\n        /* \"#utility.yul\":6244:6253   */\n      dup2\n        /* \"#utility.yul\":6238:6242   */\n      dup2\n        /* \"#utility.yul\":6234:6254   */\n      sub\n        /* \"#utility.yul\":6230:6231   */\n      0x00\n        /* \"#utility.yul\":6219:6228   */\n      dup4\n        /* \"#utility.yul\":6215:6232   */\n      add\n        /* \"#utility.yul\":6208:6255   */\n      mstore\n        /* \"#utility.yul\":6272:6403   */\n      tag_127\n        /* \"#utility.yul\":6398:6402   */\n      dup2\n        /* \"#utility.yul\":6272:6403   */\n      tag_58\n      jump\t// in\n    tag_127:\n        /* \"#utility.yul\":6264:6403   */\n      swap1\n      pop\n        /* \"#utility.yul\":5991:6410   */\n      swap2\n      swap1\n      pop\n      jump\t// out\n        /* \"#utility.yul\":6416:6532   */\n    tag_59:\n        /* \"#utility.yul\":6486:6507   */\n      tag_129\n        /* \"#utility.yul\":6501:6506   */\n      dup2\n        /* \"#utility.yul\":6486:6507   */\n      tag_50\n      jump\t// in\n    tag_129:\n        /* \"#utility.yul\":6479:6484   */\n      dup2\n        /* \"#utility.yul\":6476:6508   */\n      eq\n        /* \"#utility.yul\":6466:6526   */\n      tag_130\n      jumpi\n        /* \"#utility.yul\":6522:6523   */\n      0x00\n        /* \"#utility.yul\":6519:6520   */\n      0x00\n        /* \"#utility.yul\":6512:6524   */\n      revert\n        /* \"#utility.yul\":6466:6526   */\n    tag_130:\n        /* \"#utility.yul\":6416:6532   */\n      pop\n      jump\t// out\n        /* \"#utility.yul\":6538:6675   */\n    tag_60:\n        /* \"#utility.yul\":6592:6597   */\n      0x00\n        /* \"#utility.yul\":6623:6629   */\n      dup2\n        /* \"#utility.yul\":6617:6630   */\n      mload\n        /* \"#utility.yul\":6608:6630   */\n      swap1\n      pop\n        /* \"#utility.yul\":6639:6669   */\n      tag_132\n        /* \"#utility.yul\":6663:6668   */\n      dup2\n        /* \"#utility.yul\":6639:6669   */\n      tag_59\n      jump\t// in\n    tag_132:\n        /* \"#utility.yul\":6538:6675   */\n      swap3\n      swap2\n      pop\n      pop\n      jump\t// out\n        /* \"#utility.yul\":6681:7026   */\n    tag_34:\n        /* \"#utility.yul\":6748:6754   */\n      0x00\n        /* \"#utility.yul\":6797:6799   */\n      0x20\n        /* \"#utility.yul\":6785:6794   */\n      dup3\n        /* \"#utility.yul\":6776:6783   */\n      dup5\n        /* \"#utility.yul\":6772:6795   */\n      sub\n        /* \"#utility.yul\":6768:6800   */\n      slt\n        /* \"#utility.yul\":6765:6884   */\n      iszero\n      tag_134\n      jumpi\n        /* \"#utility.yul\":6803:6882   */\n      tag_135\n      tag_39\n      jump\t// in\n    tag_135:\n        /* \"#utility.yul\":6765:6884   */\n    tag_134:\n        /* \"#utility.yul\":6923:6924   */\n      0x00\n        /* \"#utility.yul\":6948:7009   */\n      tag_136\n        /* \"#utility.yul\":7001:7008   */\n      dup5\n        /* \"#utility.yul\":6992:6998   */\n      dup3\n        /* \"#utility.yul\":6981:6990   */\n      dup6\n        /* \"#utility.yul\":6977:6999   */\n      add\n        /* \"#utility.yul\":6948:7009   */\n      tag_60\n      jump\t// in\n    tag_136:\n        /* \"#utility.yul\":6938:7009   */\n      swap2\n      pop\n        /* \"#utility.yul\":6894:7019   */\n      pop\n        /* \"#utility.yul\":6681:7026   */\n      swap3\n      swap2\n      pop\n      pop\n      jump\t// out\n\n    auxdata: 0xa2646970667358221220254702daab80fcf703a4ff65ab3b3b776709bc2a21abb1d80d8675eda8436fe764736f6c634300081e0033\n}\n",
				"bytecode": {
					"linkReferences": {},
					"object": "6080604052348015600e575f5ffd5b506105be8061001c5f395ff3fe608060405234801561000f575f5ffd5b506004361061003f575f3560e01c806367e404ce1461004357806370a0823114610061578063e3729a8814610091575b5f5ffd5b61004b6100c1565b6040516100589190610273565b60405180910390f35b61007b600480360381019061007691906102ba565b6100e6565b60405161008891906102fd565b60405180910390f35b6100ab60048036038101906100a69190610395565b6100fa565b6040516100b89190610413565b60405180910390f35b60015f9054906101000a900473ffffffffffffffffffffffffffffffffffffffff1681565b5f602052805f5260405f205f915090505481565b5f5f5f8673ffffffffffffffffffffffffffffffffffffffff1686868660405160240161012892919061042c565b604051602081830303815290604052907bffffffffffffffffffffffffffffffffffffffffffffffffffffffff19166020820180517bffffffffffffffffffffffffffffffffffffffffffffffffffffffff838183161783525050505060405161019291906104a5565b5f60405180830381855af49150503d805f81146101ca576040519150601f19603f3d011682016040523d82523d5f602084013e6101cf565b606091505b509150915081610214576040517f08c379a000000000000000000000000000000000000000000000000000000000815260040161020b90610515565b60405180910390fd5b80806020019051810190610228919061055d565b92505050949350505050565b5f73ffffffffffffffffffffffffffffffffffffffff82169050919050565b5f61025d82610234565b9050919050565b61026d81610253565b82525050565b5f6020820190506102865f830184610264565b92915050565b5f5ffd5b61029981610253565b81146102a3575f5ffd5b50565b5f813590506102b481610290565b92915050565b5f602082840312156102cf576102ce61028c565b5b5f6102dc848285016102a6565b91505092915050565b5f819050919050565b6102f7816102e5565b82525050565b5f6020820190506103105f8301846102ee565b92915050565b5f7fffffffff0000000000000000000000000000000000000000000000000000000082169050919050565b61034a81610316565b8114610354575f5ffd5b50565b5f8135905061036581610341565b92915050565b610374816102e5565b811461037e575f5ffd5b50565b5f8135905061038f8161036b565b92915050565b5f5f5f5f608085870312156103ad576103ac61028c565b5b5f6103ba878288016102a6565b94505060206103cb87828801610357565b93505060406103dc878288016102a6565b92505060606103ed87828801610381565b91505092959194509250565b5f8115159050919050565b61040d816103f9565b82525050565b5f6020820190506104265f830184610404565b92915050565b5f60408201905061043f5f830185610264565b61044c60208301846102ee565b9392505050565b5f81519050919050565b5f81905092915050565b8281835e5f83830152505050565b5f61047f82610453565b610489818561045d565b9350610499818560208601610467565b80840191505092915050565b5f6104b08284610475565b915081905092915050565b5f82825260208201905092915050565b7f43616c6c20746f207472616e73666572206661696c65640000000000000000005f82015250565b5f6104ff6017836104bb565b915061050a826104cb565b602082019050919050565b5f6020820190508181035f83015261052c816104f3565b9050919050565b61053c816103f9565b8114610546575f5ffd5b50565b5f8151905061055781610533565b92915050565b5f602082840312156105725761057161028c565b5b5f61057f84828501610549565b9150509291505056fea2646970667358221220254702daab80fcf703a4ff65ab3b3b776709bc2a21abb1d80d8675eda8436fe764736f6c634300081e0033",
					"opcodes": "PUSH1 0x80 PUSH1 0x40 MSTORE CALLVALUE DUP1 ISZERO PUSH1 0xE JUMPI PUSH0 PUSH0 REVERT JUMPDEST POP PUSH2 0x5BE DUP1 PUSH2 0x1C PUSH0 CODECOPY PUSH0 RETURN INVALID PUSH1 0x80 PUSH1 0x40 MSTORE CALLVALUE DUP1 ISZERO PUSH2 0xF JUMPI PUSH0 PUSH0 REVERT JUMPDEST POP PUSH1 0x4 CALLDATASIZE LT PUSH2 0x3F JUMPI PUSH0 CALLDATALOAD PUSH1 0xE0 SHR DUP1 PUSH4 0x67E404CE EQ PUSH2 0x43 JUMPI DUP1 PUSH4 0x70A08231 EQ PUSH2 0x61 JUMPI DUP1 PUSH4 0xE3729A88 EQ PUSH2 0x91 JUMPI JUMPDEST PUSH0 PUSH0 REVERT JUMPDEST PUSH2 0x4B PUSH2 0xC1 JUMP JUMPDEST PUSH1 0x40 MLOAD PUSH2 0x58 SWAP2 SWAP1 PUSH2 0x273 JUMP JUMPDEST PUSH1 0x40 MLOAD DUP1 SWAP2 SUB SWAP1 RETURN JUMPDEST PUSH2 0x7B PUSH1 0x4 DUP1 CALLDATASIZE SUB DUP2 ADD SWAP1 PUSH2 0x76 SWAP2 SWAP1 PUSH2 0x2BA JUMP JUMPDEST PUSH2 0xE6 JUMP JUMPDEST PUSH1 0x40 MLOAD PUSH2 0x88 SWAP2 SWAP1 PUSH2 0x2FD JUMP JUMPDEST PUSH1 0x40 MLOAD DUP1 SWAP2 SUB SWAP1 RETURN JUMPDEST PUSH2 0xAB PUSH1 0x4 DUP1 CALLDATASIZE SUB DUP2 ADD SWAP1 PUSH2 0xA6 SWAP2 SWAP1 PUSH2 0x395 JUMP JUMPDEST PUSH2 0xFA JUMP JUMPDEST PUSH1 0x40 MLOAD PUSH2 0xB8 SWAP2 SWAP1 PUSH2 0x413 JUMP JUMPDEST PUSH1 0x40 MLOAD DUP1 SWAP2 SUB SWAP1 RETURN JUMPDEST PUSH1 0x1 PUSH0 SWAP1 SLOAD SWAP1 PUSH2 0x100 EXP SWAP1 DIV PUSH20 0xFFFFFFFFFFFFFFFFFFFFFFFFFFFFFFFFFFFFFFFF AND DUP2 JUMP JUMPDEST PUSH0 PUSH1 0x20 MSTORE DUP1 PUSH0 MSTORE PUSH1 0x40 PUSH0 KECCAK256 PUSH0 SWAP2 POP SWAP1 POP SLOAD DUP2 JUMP JUMPDEST PUSH0 PUSH0 PUSH0 DUP7 PUSH20 0xFFFFFFFFFFFFFFFFFFFFFFFFFFFFFFFFFFFFFFFF AND DUP7 DUP7 DUP7 PUSH1 0x40 MLOAD PUSH1 0x24 ADD PUSH2 0x128 SWAP3 SWAP2 SWAP1 PUSH2 0x42C JUMP JUMPDEST PUSH1 0x40 MLOAD PUSH1 0x20 DUP2 DUP4 SUB SUB DUP2 MSTORE SWAP1 PUSH1 0x40 MSTORE SWAP1 PUSH28 0xFFFFFFFFFFFFFFFFFFFFFFFFFFFFFFFFFFFFFFFFFFFFFFFFFFFFFFFF NOT AND PUSH1 0x20 DUP3 ADD DUP1 MLOAD PUSH28 0xFFFFFFFFFFFFFFFFFFFFFFFFFFFFFFFFFFFFFFFFFFFFFFFFFFFFFFFF DUP4 DUP2 DUP4 AND OR DUP4 MSTORE POP POP POP POP PUSH1 0x40 MLOAD PUSH2 0x192 SWAP2 SWAP1 PUSH2 0x4A5 JUMP JUMPDEST PUSH0 PUSH1 0x40 MLOAD DUP1 DUP4 SUB DUP2 DUP6 GAS DELEGATECALL SWAP2 POP POP RETURNDATASIZE DUP1 PUSH0 DUP2 EQ PUSH2 0x1CA JUMPI PUSH1 0x40 MLOAD SWAP2 POP PUSH1 0x1F NOT PUSH1 0x3F RETURNDATASIZE ADD AND DUP3 ADD PUSH1 0x40 MSTORE RETURNDATASIZE DUP3 MSTORE RETURNDATASIZE PUSH0 PUSH1 0x20 DUP5 ADD RETURNDATACOPY PUSH2 0x1CF JUMP JUMPDEST PUSH1 0x60 SWAP2 POP JUMPDEST POP SWAP2 POP SWAP2 POP DUP2 PUSH2 0x214 JUMPI PUSH1 0x40 MLOAD PUSH32 0x8C379A000000000000000000000000000000000000000000000000000000000 DUP2 MSTORE PUSH1 0x4 ADD PUSH2 0x20B SWAP1 PUSH2 0x515 JUMP JUMPDEST PUSH1 0x40 MLOAD DUP1 SWAP2 SUB SWAP1 REVERT JUMPDEST DUP1 DUP1 PUSH1 0x20 ADD SWAP1 MLOAD DUP2 ADD SWAP1 PUSH2 0x228 SWAP2 SWAP1 PUSH2 0x55D JUMP JUMPDEST SWAP3 POP POP POP SWAP5 SWAP4 POP POP POP POP JUMP JUMPDEST PUSH0 PUSH20 0xFFFFFFFFFFFFFFFFFFFFFFFFFFFFFFFFFFFFFFFF DUP3 AND SWAP1 POP SWAP2 SWAP1 POP JUMP JUMPDEST PUSH0 PUSH2 0x25D DUP3 PUSH2 0x234 JUMP JUMPDEST SWAP1 POP SWAP2 SWAP1 POP JUMP JUMPDEST PUSH2 0x26D DUP2 PUSH2 0x253 JUMP JUMPDEST DUP3 MSTORE POP POP JUMP JUMPDEST PUSH0 PUSH1 0x20 DUP3 ADD SWAP1 POP PUSH2 0x286 PUSH0 DUP4 ADD DUP5 PUSH2 0x264 JUMP JUMPDEST SWAP3 SWAP2 POP POP JUMP JUMPDEST PUSH0 PUSH0 REVERT JUMPDEST PUSH2 0x299 DUP2 PUSH2 0x253 JUMP JUMPDEST DUP2 EQ PUSH2 0x2A3 JUMPI PUSH0 PUSH0 REVERT JUMPDEST POP JUMP JUMPDEST PUSH0 DUP2 CALLDATALOAD SWAP1 POP PUSH2 0x2B4 DUP2 PUSH2 0x290 JUMP JUMPDEST SWAP3 SWAP2 POP POP JUMP JUMPDEST PUSH0 PUSH1 0x20 DUP3 DUP5 SUB SLT ISZERO PUSH2 0x2CF JUMPI PUSH2 0x2CE PUSH2 0x28C JUMP JUMPDEST JUMPDEST PUSH0 PUSH2 0x2DC DUP5 DUP3 DUP6 ADD PUSH2 0x2A6 JUMP JUMPDEST SWAP2 POP POP SWAP3 SWAP2 POP POP JUMP JUMPDEST PUSH0 DUP2 SWAP1 POP SWAP2 SWAP1 POP JUMP JUMPDEST PUSH2 0x2F7 DUP2 PUSH2 0x2E5 JUMP JUMPDEST DUP3 MSTORE POP POP JUMP JUMPDEST PUSH0 PUSH1 0x20 DUP3 ADD SWAP1 POP PUSH2 0x310 PUSH0 DUP4 ADD DUP5 PUSH2 0x2EE JUMP JUMPDEST SWAP3 SWAP2 POP POP JUMP JUMPDEST PUSH0 PUSH32 0xFFFFFFFF00000000000000000000000000000000000000000000000000000000 DUP3 AND SWAP1 POP SWAP2 SWAP1 POP JUMP JUMPDEST PUSH2 0x34A DUP2 PUSH2 0x316 JUMP JUMPDEST DUP2 EQ PUSH2 0x354 JUMPI PUSH0 PUSH0 REVERT JUMPDEST POP JUMP JUMPDEST PUSH0 DUP2 CALLDATALOAD SWAP1 POP PUSH2 0x365 DUP2 PUSH2 0x341 JUMP JUMPDEST SWAP3 SWAP2 POP POP JUMP JUMPDEST PUSH2 0x374 DUP2 PUSH2 0x2E5 JUMP JUMPDEST DUP2 EQ PUSH2 0x37E JUMPI PUSH0 PUSH0 REVERT JUMPDEST POP JUMP JUMPDEST PUSH0 DUP2 CALLDATALOAD SWAP1 POP PUSH2 0x38F DUP2 PUSH2 0x36B JUMP JUMPDEST SWAP3 SWAP2 POP POP JUMP JUMPDEST PUSH0 PUSH0 PUSH0 PUSH0 PUSH1 0x80 DUP6 DUP8 SUB SLT ISZERO PUSH2 0x3AD JUMPI PUSH2 0x3AC PUSH2 0x28C JUMP JUMPDEST JUMPDEST PUSH0 PUSH2 0x3BA DUP8 DUP3 DUP9 ADD PUSH2 0x2A6 JUMP JUMPDEST SWAP5 POP POP PUSH1 0x20 PUSH2 0x3CB DUP8 DUP3 DUP9 ADD PUSH2 0x357 JUMP JUMPDEST SWAP4 POP POP PUSH1 0x40 PUSH2 0x3DC DUP8 DUP3 DUP9 ADD PUSH2 0x2A6 JUMP JUMPDEST SWAP3 POP POP PUSH1 0x60 PUSH2 0x3ED DUP8 DUP3 DUP9 ADD PUSH2 0x381 JUMP JUMPDEST SWAP2 POP POP SWAP3 SWAP6 SWAP2 SWAP5 POP SWAP3 POP JUMP JUMPDEST PUSH0 DUP2 ISZERO ISZERO SWAP1 POP SWAP2 SWAP1 POP JUMP JUMPDEST PUSH2 0x40D DUP2 PUSH2 0x3F9 JUMP JUMPDEST DUP3 MSTORE POP POP JUMP JUMPDEST PUSH0 PUSH1 0x20 DUP3 ADD SWAP1 POP PUSH2 0x426 PUSH0 DUP4 ADD DUP5 PUSH2 0x404 JUMP JUMPDEST SWAP3 SWAP2 POP POP JUMP JUMPDEST PUSH0 PUSH1 0x40 DUP3 ADD SWAP1 POP PUSH2 0x43F PUSH0 DUP4 ADD DUP6 PUSH2 0x264 JUMP JUMPDEST PUSH2 0x44C PUSH1 0x20 DUP4 ADD DUP5 PUSH2 0x2EE JUMP JUMPDEST SWAP4 SWAP3 POP POP POP JUMP JUMPDEST PUSH0 DUP2 MLOAD SWAP1 POP SWAP2 SWAP1 POP JUMP JUMPDEST PUSH0 DUP2 SWAP1 POP SWAP3 SWAP2 POP POP JUMP JUMPDEST DUP3 DUP2 DUP4 MCOPY PUSH0 DUP4 DUP4 ADD MSTORE POP POP POP JUMP JUMPDEST PUSH0 PUSH2 0x47F DUP3 PUSH2 0x453 JUMP JUMPDEST PUSH2 0x489 DUP2 DUP6 PUSH2 0x45D JUMP JUMPDEST SWAP4 POP PUSH2 0x499 DUP2 DUP6 PUSH1 0x20 DUP7 ADD PUSH2 0x467 JUMP JUMPDEST DUP1 DUP5 ADD SWAP2 POP POP SWAP3 SWAP2 POP POP JUMP JUMPDEST PUSH0 PUSH2 0x4B0 DUP3 DUP5 PUSH2 0x475 JUMP JUMPDEST SWAP2 POP DUP2 SWAP1 POP SWAP3 SWAP2 POP POP JUMP JUMPDEST PUSH0 DUP3 DUP3 MSTORE PUSH1 0x20 DUP3 ADD SWAP1 POP SWAP3 SWAP2 POP POP JUMP JUMPDEST PUSH32 0x43616C6C20746F207472616E73666572206661696C6564000000000000000000 PUSH0 DUP3 ADD MSTORE POP JUMP JUMPDEST PUSH0 PUSH2 0x4FF PUSH1 0x17 DUP4 PUSH2 0x4BB JUMP JUMPDEST SWAP2 POP PUSH2 0x50A DUP3 PUSH2 0x4CB JUMP JUMPDEST PUSH1 0x20 DUP3 ADD SWAP1 POP SWAP2 SWAP1 POP JUMP JUMPDEST PUSH0 PUSH1 0x20 DUP3 ADD SWAP1 POP DUP2 DUP2 SUB PUSH0 DUP4 ADD MSTORE PUSH2 0x52C DUP2 PUSH2 0x4F3 JUMP JUMPDEST SWAP1 POP SWAP2 SWAP1 POP JUMP JUMPDEST PUSH2 0x53C DUP2 PUSH2 0x3F9 JUMP JUMPDEST DUP2 EQ PUSH2 0x546 JUMPI PUSH0 PUSH0 REVERT JUMPDEST POP JUMP JUMPDEST PUSH0 DUP2 MLOAD SWAP1 POP PUSH2 0x557 DUP2 PUSH2 0x533 JUMP JUMPDEST SWAP3 SWAP2 POP POP JUMP JUMPDEST PUSH0 PUSH1 0x20 DUP3 DUP5 SUB SLT ISZERO PUSH2 0x572 JUMPI PUSH2 0x571 PUSH2 0x28C JUMP JUMPDEST JUMPDEST PUSH0 PUSH2 0x57F DUP5 DUP3 DUP6 ADD PUSH2 0x549 JUMP JUMPDEST SWAP2 POP POP SWAP3 SWAP2 POP POP JUMP INVALID LOG2 PUSH5 0x6970667358 0x22 SLT KECCAK256 0x25 SELFBALANCE MUL 0xDA 0xAB DUP1 0xFC 0xF7 SUB LOG4 SELFDESTRUCT PUSH6 0xAB3B3B776709 0xBC 0x2A 0x21 0xAB 0xB1 0xD8 0xD DUP7 PUSH22 0xEDA8436FE764736F6C634300081E0033000000000000 "
				},
				"gasEstimates": {
					"creation": {
						"codeDepositCost": "294000",
						"executionCost": "329",
						"totalCost": "294329"
					},
					"external": {
						"balanceOf(address)": "2801",
						"callTransfer(address,bytes4,address,uint256)": "infinite",
						"sender()": "2486"
					}
				},
				"methodIdentifiers": {
					"balanceOf(address)": "70a08231",
					"callTransfer(address,bytes4,address,uint256)": "e3729a88",
					"sender()": "67e404ce"
				}
			},
			"storageLayout": {
				"storage": [
					{
						"astId": 91,
						"contract": "Function Selector.sol:CallerContract",
						"label": "balanceOf",
						"offset": 0,
						"slot": "0",
						"type": "t_mapping(t_address,t_uint256)"
					},
					{
						"astId": 93,
						"contract": "Function Selector.sol:CallerContract",
						"label": "sender",
						"offset": 0,
						"slot": "1",
						"type": "t_address"
					}
				],
				"types": {
					"t_address": {
						"encoding": "inplace",
						"label": "address",
						"numberOfBytes": "20"
					},
					"t_mapping(t_address,t_uint256)": {
						"encoding": "mapping",
						"key": "t_address",
						"label": "mapping(address => uint256)",
						"numberOfBytes": "32",
						"value": "t_uint256"
					},
					"t_uint256": {
						"encoding": "inplace",
						"label": "uint256",
						"numberOfBytes": "32"
					}
				}
			},
			"userdoc": {
				"kind": "user",
				"methods": {},
				"version": 1
			}
		}
	}
}