{
	"application_contracts/Deploy Any Contract.sol": {
		"Helper": {
			"abi": [
				{
					"inputs": [],
					"name": "getBytecode1",
					"outputs": [
						{
							"internalType": "bytes",
							"name": "",
							"type": "bytes"
						}
					],
					"stateMutability": "pure",
					"type": "function"
				},
				{
					"inputs": [
						{
							"internalType": "uint256",
							"name": "_x",
							"type": "uint256"
						},
						{
							"internalType": "uint256",
							"name": "_y",
							"type": "uint256"
						}
					],
					"name": "getBytecode2",
					"outputs": [
						{
							"internalType": "bytes",
							"name": "",
							"type": "bytes"
						}
					],
					"stateMutability": "pure",
					"type": "function"
				},
				{
					"inputs": [
						{
							"internalType": "address",
							"name": "_owner",
							"type": "address"
						}
					],
					"name": "getCalldata",
					"outputs": [
						{
							"internalType": "bytes",
							"name": "",
							"type": "bytes"
						}
					],
					"stateMutability": "pure",
					"type": "function"
				}
			],
			"devdoc": {
				"kind": "dev",
				"methods": {},
				"version": 1
			},
			"evm": {
				"assembly": "    /* \"application_contracts/Deploy Any Contract.sol\":5358:9371  contract Helper {... */\n  mstore(0x40, 0x80)\n  callvalue\n  dup1\n  iszero\n  tag_1\n  jumpi\n  revert(0x00, 0x00)\ntag_1:\n  pop\n  dataSize(sub_0)\n  dup1\n  dataOffset(sub_0)\n  0x00\n  codecopy\n  0x00\n  return\nstop\n\nsub_0: assembly {\n        /* \"application_contracts/Deploy Any Contract.sol\":5358:9371  contract Helper {... */\n      mstore(0x40, 0x80)\n      callvalue\n      dup1\n      iszero\n      tag_1\n      jumpi\n      revert(0x00, 0x00)\n    tag_1:\n      pop\n      jumpi(tag_2, lt(calldatasize, 0x04))\n      shr(0xe0, calldataload(0x00))\n      dup1\n      0x2064cad5\n      eq\n      tag_3\n      jumpi\n      dup1\n      0x45fb27cd\n      eq\n      tag_4\n      jumpi\n      dup1\n      0xe68f92f1\n      eq\n      tag_5\n      jumpi\n    tag_2:\n      revert(0x00, 0x00)\n        /* \"application_contracts/Deploy Any Contract.sol\":9216:9368  function getCalldata(address _owner) external pure returns (bytes memory) {... */\n    tag_3:\n      tag_6\n      0x04\n      dup1\n      calldatasize\n      sub\n      dup2\n      add\n      swap1\n      tag_7\n      swap2\n      swap1\n      tag_8\n      jump\t// in\n    tag_7:\n      tag_9\n      jump\t// in\n    tag_6:\n      mload(0x40)\n      tag_10\n      swap2\n      swap1\n      tag_11\n      jump\t// in\n    tag_10:\n      mload(0x40)\n      dup1\n      swap2\n      sub\n      swap1\n      return\n        /* \"application_contracts/Deploy Any Contract.sol\":8910:9126  function getBytecode2(uint _x, uint _y) external pure returns (bytes memory) {... */\n    tag_4:\n      tag_12\n      0x04\n      dup1\n      calldatasize\n      sub\n      dup2\n      add\n      swap1\n      tag_13\n      swap2\n      swap1\n      tag_14\n      jump\t// in\n    tag_13:\n      tag_15\n      jump\t// in\n    tag_12:\n      mload(0x40)\n      tag_16\n      swap2\n      swap1\n      tag_11\n      jump\t// in\n    tag_16:\n      mload(0x40)\n      dup1\n      swap2\n      sub\n      swap1\n      return\n        /* \"application_contracts/Deploy Any Contract.sol\":7192:7354  function getBytecode1() external pure returns (bytes memory) {... */\n    tag_5:\n      tag_17\n      tag_18\n      jump\t// in\n    tag_17:\n      mload(0x40)\n      tag_19\n      swap2\n      swap1\n      tag_11\n      jump\t// in\n    tag_19:\n      mload(0x40)\n      dup1\n      swap2\n      sub\n      swap1\n      return\n        /* \"application_contracts/Deploy Any Contract.sol\":9216:9368  function getCalldata(address _owner) external pure returns (bytes memory) {... */\n    tag_9:\n        /* \"application_contracts/Deploy Any Contract.sol\":9276:9288  bytes memory */\n      0x60\n        /* \"application_contracts/Deploy Any Contract.sol\":9353:9359  _owner */\n      dup2\n        /* \"application_contracts/Deploy Any Contract.sol\":9308:9360  abi.encodeWithSignature(\"setOwner(address)\", _owner) */\n      add(0x24, mload(0x40))\n      tag_21\n      swap2\n      swap1\n      tag_22\n      jump\t// in\n    tag_21:\n      mload(0x40)\n      0x20\n      dup2\n      dup4\n      sub\n      sub\n      dup2\n      mstore\n      swap1\n      0x40\n      mstore\n      and(not(0xffffffffffffffffffffffffffffffffffffffffffffffffffffffff), 0x13af403500000000000000000000000000000000000000000000000000000000)\n      0x20\n      dup3\n      add\n      dup1\n      mload\n      0xffffffffffffffffffffffffffffffffffffffffffffffffffffffff\n      dup4\n      dup2\n      dup4\n      and\n      or\n      dup4\n      mstore\n      pop\n      pop\n      pop\n      pop\n        /* \"application_contracts/Deploy Any Contract.sol\":9301:9360  return abi.encodeWithSignature(\"setOwner(address)\", _owner) */\n      swap1\n      pop\n        /* \"application_contracts/Deploy Any Contract.sol\":9216:9368  function getCalldata(address _owner) external pure returns (bytes memory) {... */\n      swap2\n      swap1\n      pop\n      jump\t// out\n        /* \"application_contracts/Deploy Any Contract.sol\":8910:9126  function getBytecode2(uint _x, uint _y) external pure returns (bytes memory) {... */\n    tag_15:\n        /* \"application_contracts/Deploy Any Contract.sol\":8973:8985  bytes memory */\n      0x60\n        /* \"application_contracts/Deploy Any Contract.sol\":8998:9019  bytes memory bytecode */\n      0x00\n        /* \"application_contracts/Deploy Any Contract.sol\":9022:9054  type(TestContract2).creationCode */\n      mload(0x40)\n      dup1\n      0x20\n      add\n      tag_24\n      swap1\n      tag_25\n      jump\t// in\n    tag_24:\n      0x20\n      dup3\n      add\n      dup2\n      sub\n      dup3\n      mstore\n      not(0x1f)\n      0x1f\n      dup3\n      add\n      and\n      0x40\n      mstore\n      pop\n        /* \"application_contracts/Deploy Any Contract.sol\":8998:9054  bytes memory bytecode = type(TestContract2).creationCode */\n      swap1\n      pop\n        /* \"application_contracts/Deploy Any Contract.sol\":9089:9097  bytecode */\n      dup1\n        /* \"application_contracts/Deploy Any Contract.sol\":9110:9112  _x */\n      dup5\n        /* \"application_contracts/Deploy Any Contract.sol\":9114:9116  _y */\n      dup5\n        /* \"application_contracts/Deploy Any Contract.sol\":9099:9117  abi.encode(_x, _y) */\n      add(0x20, mload(0x40))\n      tag_26\n      swap3\n      swap2\n      swap1\n      tag_27\n      jump\t// in\n    tag_26:\n      mload(0x40)\n      0x20\n      dup2\n      dup4\n      sub\n      sub\n      dup2\n      mstore\n      swap1\n      0x40\n      mstore\n        /* \"application_contracts/Deploy Any Contract.sol\":9072:9118  abi.encodePacked(bytecode, abi.encode(_x, _y)) */\n      add(0x20, mload(0x40))\n      tag_28\n      swap3\n      swap2\n      swap1\n      tag_29\n      jump\t// in\n    tag_28:\n      mload(0x40)\n      0x20\n      dup2\n      dup4\n      sub\n      sub\n      dup2\n      mstore\n      swap1\n      0x40\n      mstore\n        /* \"application_contracts/Deploy Any Contract.sol\":9065:9118  return abi.encodePacked(bytecode, abi.encode(_x, _y)) */\n      swap2\n      pop\n      pop\n        /* \"application_contracts/Deploy Any Contract.sol\":8910:9126  function getBytecode2(uint _x, uint _y) external pure returns (bytes memory) {... */\n      swap3\n      swap2\n      pop\n      pop\n      jump\t// out\n        /* \"application_contracts/Deploy Any Contract.sol\":7192:7354  function getBytecode1() external pure returns (bytes memory) {... */\n    tag_18:\n        /* \"application_contracts/Deploy Any Contract.sol\":7239:7251  bytes memory */\n      0x60\n        /* \"application_contracts/Deploy Any Contract.sol\":7264:7285  bytes memory bytecode */\n      0x00\n        /* \"application_contracts/Deploy Any Contract.sol\":7288:7320  type(TestContract1).creationCode */\n      mload(0x40)\n      dup1\n      0x20\n      add\n      tag_31\n      swap1\n      tag_32\n      jump\t// in\n    tag_31:\n      0x20\n      dup3\n      add\n      dup2\n      sub\n      dup3\n      mstore\n      not(0x1f)\n      0x1f\n      dup3\n      add\n      and\n      0x40\n      mstore\n      pop\n        /* \"application_contracts/Deploy Any Contract.sol\":7264:7320  bytes memory bytecode = type(TestContract1).creationCode */\n      swap1\n      pop\n        /* \"application_contracts/Deploy Any Contract.sol\":7338:7346  bytecode */\n      dup1\n        /* \"application_contracts/Deploy Any Contract.sol\":7331:7346  return bytecode */\n      swap2\n      pop\n      pop\n        /* \"application_contracts/Deploy Any Contract.sol\":7192:7354  function getBytecode1() external pure returns (bytes memory) {... */\n      swap1\n      jump\t// out\n    tag_25:\n      dataSize(sub_0)\n      dup1\n      dataOffset(sub_0)\n      dup4\n      codecopy\n      add\n      swap1\n      jump\t// out\n    tag_32:\n      dataSize(sub_1)\n      dup1\n      dataOffset(sub_1)\n      dup4\n      codecopy\n      add\n      swap1\n      jump\t// out\n        /* \"#utility.yul\":88:205   */\n    tag_34:\n        /* \"#utility.yul\":197:198   */\n      0x00\n        /* \"#utility.yul\":194:195   */\n      0x00\n        /* \"#utility.yul\":187:199   */\n      revert\n        /* \"#utility.yul\":334:460   */\n    tag_36:\n        /* \"#utility.yul\":371:378   */\n      0x00\n        /* \"#utility.yul\":411:453   */\n      0xffffffffffffffffffffffffffffffffffffffff\n        /* \"#utility.yul\":404:409   */\n      dup3\n        /* \"#utility.yul\":400:454   */\n      and\n        /* \"#utility.yul\":389:454   */\n      swap1\n      pop\n        /* \"#utility.yul\":334:460   */\n      swap2\n      swap1\n      pop\n      jump\t// out\n        /* \"#utility.yul\":466:562   */\n    tag_37:\n        /* \"#utility.yul\":503:510   */\n      0x00\n        /* \"#utility.yul\":532:556   */\n      tag_58\n        /* \"#utility.yul\":550:555   */\n      dup3\n        /* \"#utility.yul\":532:556   */\n      tag_36\n      jump\t// in\n    tag_58:\n        /* \"#utility.yul\":521:556   */\n      swap1\n      pop\n        /* \"#utility.yul\":466:562   */\n      swap2\n      swap1\n      pop\n      jump\t// out\n        /* \"#utility.yul\":568:690   */\n    tag_38:\n        /* \"#utility.yul\":641:665   */\n      tag_60\n        /* \"#utility.yul\":659:664   */\n      dup2\n        /* \"#utility.yul\":641:665   */\n      tag_37\n      jump\t// in\n    tag_60:\n        /* \"#utility.yul\":634:639   */\n      dup2\n        /* \"#utility.yul\":631:666   */\n      eq\n        /* \"#utility.yul\":621:684   */\n      tag_61\n      jumpi\n        /* \"#utility.yul\":680:681   */\n      0x00\n        /* \"#utility.yul\":677:678   */\n      0x00\n        /* \"#utility.yul\":670:682   */\n      revert\n        /* \"#utility.yul\":621:684   */\n    tag_61:\n        /* \"#utility.yul\":568:690   */\n      pop\n      jump\t// out\n        /* \"#utility.yul\":696:835   */\n    tag_39:\n        /* \"#utility.yul\":742:747   */\n      0x00\n        /* \"#utility.yul\":780:786   */\n      dup2\n        /* \"#utility.yul\":767:787   */\n      calldataload\n        /* \"#utility.yul\":758:787   */\n      swap1\n      pop\n        /* \"#utility.yul\":796:829   */\n      tag_63\n        /* \"#utility.yul\":823:828   */\n      dup2\n        /* \"#utility.yul\":796:829   */\n      tag_38\n      jump\t// in\n    tag_63:\n        /* \"#utility.yul\":696:835   */\n      swap3\n      swap2\n      pop\n      pop\n      jump\t// out\n        /* \"#utility.yul\":841:1170   */\n    tag_8:\n        /* \"#utility.yul\":900:906   */\n      0x00\n        /* \"#utility.yul\":949:951   */\n      0x20\n        /* \"#utility.yul\":937:946   */\n      dup3\n        /* \"#utility.yul\":928:935   */\n      dup5\n        /* \"#utility.yul\":924:947   */\n      sub\n        /* \"#utility.yul\":920:952   */\n      slt\n        /* \"#utility.yul\":917:1036   */\n      iszero\n      tag_65\n      jumpi\n        /* \"#utility.yul\":955:1034   */\n      tag_66\n      tag_34\n      jump\t// in\n    tag_66:\n        /* \"#utility.yul\":917:1036   */\n    tag_65:\n        /* \"#utility.yul\":1075:1076   */\n      0x00\n        /* \"#utility.yul\":1100:1153   */\n      tag_67\n        /* \"#utility.yul\":1145:1152   */\n      dup5\n        /* \"#utility.yul\":1136:1142   */\n      dup3\n        /* \"#utility.yul\":1125:1134   */\n      dup6\n        /* \"#utility.yul\":1121:1143   */\n      add\n        /* \"#utility.yul\":1100:1153   */\n      tag_39\n      jump\t// in\n    tag_67:\n        /* \"#utility.yul\":1090:1153   */\n      swap2\n      pop\n        /* \"#utility.yul\":1046:1163   */\n      pop\n        /* \"#utility.yul\":841:1170   */\n      swap3\n      swap2\n      pop\n      pop\n      jump\t// out\n        /* \"#utility.yul\":1176:1274   */\n    tag_40:\n        /* \"#utility.yul\":1227:1233   */\n      0x00\n        /* \"#utility.yul\":1261:1266   */\n      dup2\n        /* \"#utility.yul\":1255:1267   */\n      mload\n        /* \"#utility.yul\":1245:1267   */\n      swap1\n      pop\n        /* \"#utility.yul\":1176:1274   */\n      swap2\n      swap1\n      pop\n      jump\t// out\n        /* \"#utility.yul\":1280:1448   */\n    tag_41:\n        /* \"#utility.yul\":1363:1374   */\n      0x00\n        /* \"#utility.yul\":1397:1403   */\n      dup3\n        /* \"#utility.yul\":1392:1395   */\n      dup3\n        /* \"#utility.yul\":1385:1404   */\n      mstore\n        /* \"#utility.yul\":1437:1441   */\n      0x20\n        /* \"#utility.yul\":1432:1435   */\n      dup3\n        /* \"#utility.yul\":1428:1442   */\n      add\n        /* \"#utility.yul\":1413:1442   */\n      swap1\n      pop\n        /* \"#utility.yul\":1280:1448   */\n      swap3\n      swap2\n      pop\n      pop\n      jump\t// out\n        /* \"#utility.yul\":1454:1593   */\n    tag_42:\n        /* \"#utility.yul\":1543:1549   */\n      dup3\n        /* \"#utility.yul\":1538:1541   */\n      dup2\n        /* \"#utility.yul\":1533:1536   */\n      dup4\n        /* \"#utility.yul\":1527:1550   */\n      mcopy\n        /* \"#utility.yul\":1584:1585   */\n      0x00\n        /* \"#utility.yul\":1575:1581   */\n      dup4\n        /* \"#utility.yul\":1570:1573   */\n      dup4\n        /* \"#utility.yul\":1566:1582   */\n      add\n        /* \"#utility.yul\":1559:1586   */\n      mstore\n        /* \"#utility.yul\":1454:1593   */\n      pop\n      pop\n      pop\n      jump\t// out\n        /* \"#utility.yul\":1599:1701   */\n    tag_43:\n        /* \"#utility.yul\":1640:1646   */\n      0x00\n        /* \"#utility.yul\":1691:1693   */\n      0x1f\n        /* \"#utility.yul\":1687:1694   */\n      not\n        /* \"#utility.yul\":1682:1684   */\n      0x1f\n        /* \"#utility.yul\":1675:1680   */\n      dup4\n        /* \"#utility.yul\":1671:1685   */\n      add\n        /* \"#utility.yul\":1667:1695   */\n      and\n        /* \"#utility.yul\":1657:1695   */\n      swap1\n      pop\n        /* \"#utility.yul\":1599:1701   */\n      swap2\n      swap1\n      pop\n      jump\t// out\n        /* \"#utility.yul\":1707:2080   */\n    tag_44:\n        /* \"#utility.yul\":1793:1796   */\n      0x00\n        /* \"#utility.yul\":1821:1859   */\n      tag_73\n        /* \"#utility.yul\":1853:1858   */\n      dup3\n        /* \"#utility.yul\":1821:1859   */\n      tag_40\n      jump\t// in\n    tag_73:\n        /* \"#utility.yul\":1875:1945   */\n      tag_74\n        /* \"#utility.yul\":1938:1944   */\n      dup2\n        /* \"#utility.yul\":1933:1936   */\n      dup6\n        /* \"#utility.yul\":1875:1945   */\n      tag_41\n      jump\t// in\n    tag_74:\n        /* \"#utility.yul\":1868:1945   */\n      swap4\n      pop\n        /* \"#utility.yul\":1954:2019   */\n      tag_75\n        /* \"#utility.yul\":2012:2018   */\n      dup2\n        /* \"#utility.yul\":2007:2010   */\n      dup6\n        /* \"#utility.yul\":2000:2004   */\n      0x20\n        /* \"#utility.yul\":1993:1998   */\n      dup7\n        /* \"#utility.yul\":1989:2005   */\n      add\n        /* \"#utility.yul\":1954:2019   */\n      tag_42\n      jump\t// in\n    tag_75:\n        /* \"#utility.yul\":2044:2073   */\n      tag_76\n        /* \"#utility.yul\":2066:2072   */\n      dup2\n        /* \"#utility.yul\":2044:2073   */\n      tag_43\n      jump\t// in\n    tag_76:\n        /* \"#utility.yul\":2039:2042   */\n      dup5\n        /* \"#utility.yul\":2035:2074   */\n      add\n        /* \"#utility.yul\":2028:2074   */\n      swap2\n      pop\n        /* \"#utility.yul\":1797:2080   */\n      pop\n        /* \"#utility.yul\":1707:2080   */\n      swap3\n      swap2\n      pop\n      pop\n      jump\t// out\n        /* \"#utility.yul\":2086:2395   */\n    tag_11:\n        /* \"#utility.yul\":2197:2201   */\n      0x00\n        /* \"#utility.yul\":2235:2237   */\n      0x20\n        /* \"#utility.yul\":2224:2233   */\n      dup3\n        /* \"#utility.yul\":2220:2238   */\n      add\n        /* \"#utility.yul\":2212:2238   */\n      swap1\n      pop\n        /* \"#utility.yul\":2284:2293   */\n      dup2\n        /* \"#utility.yul\":2278:2282   */\n      dup2\n        /* \"#utility.yul\":2274:2294   */\n      sub\n        /* \"#utility.yul\":2270:2271   */\n      0x00\n        /* \"#utility.yul\":2259:2268   */\n      dup4\n        /* \"#utility.yul\":2255:2272   */\n      add\n        /* \"#utility.yul\":2248:2295   */\n      mstore\n        /* \"#utility.yul\":2312:2388   */\n      tag_78\n        /* \"#utility.yul\":2383:2387   */\n      dup2\n        /* \"#utility.yul\":2374:2380   */\n      dup5\n        /* \"#utility.yul\":2312:2388   */\n      tag_44\n      jump\t// in\n    tag_78:\n        /* \"#utility.yul\":2304:2388   */\n      swap1\n      pop\n        /* \"#utility.yul\":2086:2395   */\n      swap3\n      swap2\n      pop\n      pop\n      jump\t// out\n        /* \"#utility.yul\":2401:2478   */\n    tag_45:\n        /* \"#utility.yul\":2438:2445   */\n      0x00\n        /* \"#utility.yul\":2467:2472   */\n      dup2\n        /* \"#utility.yul\":2456:2472   */\n      swap1\n      pop\n        /* \"#utility.yul\":2401:2478   */\n      swap2\n      swap1\n      pop\n      jump\t// out\n        /* \"#utility.yul\":2484:2606   */\n    tag_46:\n        /* \"#utility.yul\":2557:2581   */\n      tag_81\n        /* \"#utility.yul\":2575:2580   */\n      dup2\n        /* \"#utility.yul\":2557:2581   */\n      tag_45\n      jump\t// in\n    tag_81:\n        /* \"#utility.yul\":2550:2555   */\n      dup2\n        /* \"#utility.yul\":2547:2582   */\n      eq\n        /* \"#utility.yul\":2537:2600   */\n      tag_82\n      jumpi\n        /* \"#utility.yul\":2596:2597   */\n      0x00\n        /* \"#utility.yul\":2593:2594   */\n      0x00\n        /* \"#utility.yul\":2586:2598   */\n      revert\n        /* \"#utility.yul\":2537:2600   */\n    tag_82:\n        /* \"#utility.yul\":2484:2606   */\n      pop\n      jump\t// out\n        /* \"#utility.yul\":2612:2751   */\n    tag_47:\n        /* \"#utility.yul\":2658:2663   */\n      0x00\n        /* \"#utility.yul\":2696:2702   */\n      dup2\n        /* \"#utility.yul\":2683:2703   */\n      calldataload\n        /* \"#utility.yul\":2674:2703   */\n      swap1\n      pop\n        /* \"#utility.yul\":2712:2745   */\n      tag_84\n        /* \"#utility.yul\":2739:2744   */\n      dup2\n        /* \"#utility.yul\":2712:2745   */\n      tag_46\n      jump\t// in\n    tag_84:\n        /* \"#utility.yul\":2612:2751   */\n      swap3\n      swap2\n      pop\n      pop\n      jump\t// out\n        /* \"#utility.yul\":2757:3231   */\n    tag_14:\n        /* \"#utility.yul\":2825:2831   */\n      0x00\n        /* \"#utility.yul\":2833:2839   */\n      0x00\n        /* \"#utility.yul\":2882:2884   */\n      0x40\n        /* \"#utility.yul\":2870:2879   */\n      dup4\n        /* \"#utility.yul\":2861:2868   */\n      dup6\n        /* \"#utility.yul\":2857:2880   */\n      sub\n        /* \"#utility.yul\":2853:2885   */\n      slt\n        /* \"#utility.yul\":2850:2969   */\n      iszero\n      tag_86\n      jumpi\n        /* \"#utility.yul\":2888:2967   */\n      tag_87\n      tag_34\n      jump\t// in\n    tag_87:\n        /* \"#utility.yul\":2850:2969   */\n    tag_86:\n        /* \"#utility.yul\":3008:3009   */\n      0x00\n        /* \"#utility.yul\":3033:3086   */\n      tag_88\n        /* \"#utility.yul\":3078:3085   */\n      dup6\n        /* \"#utility.yul\":3069:3075   */\n      dup3\n        /* \"#utility.yul\":3058:3067   */\n      dup7\n        /* \"#utility.yul\":3054:3076   */\n      add\n        /* \"#utility.yul\":3033:3086   */\n      tag_47\n      jump\t// in\n    tag_88:\n        /* \"#utility.yul\":3023:3086   */\n      swap3\n      pop\n        /* \"#utility.yul\":2979:3096   */\n      pop\n        /* \"#utility.yul\":3135:3137   */\n      0x20\n        /* \"#utility.yul\":3161:3214   */\n      tag_89\n        /* \"#utility.yul\":3206:3213   */\n      dup6\n        /* \"#utility.yul\":3197:3203   */\n      dup3\n        /* \"#utility.yul\":3186:3195   */\n      dup7\n        /* \"#utility.yul\":3182:3204   */\n      add\n        /* \"#utility.yul\":3161:3214   */\n      tag_47\n      jump\t// in\n    tag_89:\n        /* \"#utility.yul\":3151:3214   */\n      swap2\n      pop\n        /* \"#utility.yul\":3106:3224   */\n      pop\n        /* \"#utility.yul\":2757:3231   */\n      swap3\n      pop\n      swap3\n      swap1\n      pop\n      jump\t// out\n        /* \"#utility.yul\":3237:3355   */\n    tag_48:\n        /* \"#utility.yul\":3324:3348   */\n      tag_91\n        /* \"#utility.yul\":3342:3347   */\n      dup2\n        /* \"#utility.yul\":3324:3348   */\n      tag_37\n      jump\t// in\n    tag_91:\n        /* \"#utility.yul\":3319:3322   */\n      dup3\n        /* \"#utility.yul\":3312:3349   */\n      mstore\n        /* \"#utility.yul\":3237:3355   */\n      pop\n      pop\n      jump\t// out\n        /* \"#utility.yul\":3361:3583   */\n    tag_22:\n        /* \"#utility.yul\":3454:3458   */\n      0x00\n        /* \"#utility.yul\":3492:3494   */\n      0x20\n        /* \"#utility.yul\":3481:3490   */\n      dup3\n        /* \"#utility.yul\":3477:3495   */\n      add\n        /* \"#utility.yul\":3469:3495   */\n      swap1\n      pop\n        /* \"#utility.yul\":3505:3576   */\n      tag_93\n        /* \"#utility.yul\":3573:3574   */\n      0x00\n        /* \"#utility.yul\":3562:3571   */\n      dup4\n        /* \"#utility.yul\":3558:3575   */\n      add\n        /* \"#utility.yul\":3549:3555   */\n      dup5\n        /* \"#utility.yul\":3505:3576   */\n      tag_48\n      jump\t// in\n    tag_93:\n        /* \"#utility.yul\":3361:3583   */\n      swap3\n      swap2\n      pop\n      pop\n      jump\t// out\n        /* \"#utility.yul\":3589:3707   */\n    tag_49:\n        /* \"#utility.yul\":3676:3700   */\n      tag_95\n        /* \"#utility.yul\":3694:3699   */\n      dup2\n        /* \"#utility.yul\":3676:3700   */\n      tag_45\n      jump\t// in\n    tag_95:\n        /* \"#utility.yul\":3671:3674   */\n      dup3\n        /* \"#utility.yul\":3664:3701   */\n      mstore\n        /* \"#utility.yul\":3589:3707   */\n      pop\n      pop\n      jump\t// out\n        /* \"#utility.yul\":3713:4045   */\n    tag_27:\n        /* \"#utility.yul\":3834:3838   */\n      0x00\n        /* \"#utility.yul\":3872:3874   */\n      0x40\n        /* \"#utility.yul\":3861:3870   */\n      dup3\n        /* \"#utility.yul\":3857:3875   */\n      add\n        /* \"#utility.yul\":3849:3875   */\n      swap1\n      pop\n        /* \"#utility.yul\":3885:3956   */\n      tag_97\n        /* \"#utility.yul\":3953:3954   */\n      0x00\n        /* \"#utility.yul\":3942:3951   */\n      dup4\n        /* \"#utility.yul\":3938:3955   */\n      add\n        /* \"#utility.yul\":3929:3935   */\n      dup6\n        /* \"#utility.yul\":3885:3956   */\n      tag_49\n      jump\t// in\n    tag_97:\n        /* \"#utility.yul\":3966:4038   */\n      tag_98\n        /* \"#utility.yul\":4034:4036   */\n      0x20\n        /* \"#utility.yul\":4023:4032   */\n      dup4\n        /* \"#utility.yul\":4019:4037   */\n      add\n        /* \"#utility.yul\":4010:4016   */\n      dup5\n        /* \"#utility.yul\":3966:4038   */\n      tag_49\n      jump\t// in\n    tag_98:\n        /* \"#utility.yul\":3713:4045   */\n      swap4\n      swap3\n      pop\n      pop\n      pop\n      jump\t// out\n        /* \"#utility.yul\":4051:4198   */\n    tag_50:\n        /* \"#utility.yul\":4152:4163   */\n      0x00\n        /* \"#utility.yul\":4189:4192   */\n      dup2\n        /* \"#utility.yul\":4174:4192   */\n      swap1\n      pop\n        /* \"#utility.yul\":4051:4198   */\n      swap3\n      swap2\n      pop\n      pop\n      jump\t// out\n        /* \"#utility.yul\":4204:4590   */\n    tag_51:\n        /* \"#utility.yul\":4308:4311   */\n      0x00\n        /* \"#utility.yul\":4336:4374   */\n      tag_101\n        /* \"#utility.yul\":4368:4373   */\n      dup3\n        /* \"#utility.yul\":4336:4374   */\n      tag_40\n      jump\t// in\n    tag_101:\n        /* \"#utility.yul\":4390:4478   */\n      tag_102\n        /* \"#utility.yul\":4471:4477   */\n      dup2\n        /* \"#utility.yul\":4466:4469   */\n      dup6\n        /* \"#utility.yul\":4390:4478   */\n      tag_50\n      jump\t// in\n    tag_102:\n        /* \"#utility.yul\":4383:4478   */\n      swap4\n      pop\n        /* \"#utility.yul\":4487:4552   */\n      tag_103\n        /* \"#utility.yul\":4545:4551   */\n      dup2\n        /* \"#utility.yul\":4540:4543   */\n      dup6\n        /* \"#utility.yul\":4533:4537   */\n      0x20\n        /* \"#utility.yul\":4526:4531   */\n      dup7\n        /* \"#utility.yul\":4522:4538   */\n      add\n        /* \"#utility.yul\":4487:4552   */\n      tag_42\n      jump\t// in\n    tag_103:\n        /* \"#utility.yul\":4577:4583   */\n      dup1\n        /* \"#utility.yul\":4572:4575   */\n      dup5\n        /* \"#utility.yul\":4568:4584   */\n      add\n        /* \"#utility.yul\":4561:4584   */\n      swap2\n      pop\n        /* \"#utility.yul\":4312:4590   */\n      pop\n        /* \"#utility.yul\":4204:4590   */\n      swap3\n      swap2\n      pop\n      pop\n      jump\t// out\n        /* \"#utility.yul\":4596:5023   */\n    tag_29:\n        /* \"#utility.yul\":4772:4775   */\n      0x00\n        /* \"#utility.yul\":4794:4887   */\n      tag_105\n        /* \"#utility.yul\":4883:4886   */\n      dup3\n        /* \"#utility.yul\":4874:4880   */\n      dup6\n        /* \"#utility.yul\":4794:4887   */\n      tag_51\n      jump\t// in\n    tag_105:\n        /* \"#utility.yul\":4787:4887   */\n      swap2\n      pop\n        /* \"#utility.yul\":4904:4997   */\n      tag_106\n        /* \"#utility.yul\":4993:4996   */\n      dup3\n        /* \"#utility.yul\":4984:4990   */\n      dup5\n        /* \"#utility.yul\":4904:4997   */\n      tag_51\n      jump\t// in\n    tag_106:\n        /* \"#utility.yul\":4897:4997   */\n      swap2\n      pop\n        /* \"#utility.yul\":5014:5017   */\n      dup2\n        /* \"#utility.yul\":5007:5017   */\n      swap1\n      pop\n        /* \"#utility.yul\":4596:5023   */\n      swap4\n      swap3\n      pop\n      pop\n      pop\n      jump\t// out\n    stop\n\n    sub_0: assembly {\n            /* \"application_contracts/Deploy Any Contract.sol\":5123:5354  contract TestContract2 {... */\n          mstore(0x40, 0x80)\n            /* \"application_contracts/Deploy Any Contract.sol\":5176:5186  msg.sender */\n          caller\n            /* \"application_contracts/Deploy Any Contract.sol\":5153:5186  address public owner = msg.sender */\n          0x00\n          exp(0x0100, 0x00)\n          dup2\n          sload\n          dup2\n          0xffffffffffffffffffffffffffffffffffffffff\n          mul\n          not\n          and\n          swap1\n          dup4\n          0xffffffffffffffffffffffffffffffffffffffff\n          and\n          mul\n          or\n          swap1\n          sstore\n          pop\n            /* \"application_contracts/Deploy Any Contract.sol\":5213:5222  msg.value */\n          callvalue\n            /* \"application_contracts/Deploy Any Contract.sol\":5193:5222  uint public value = msg.value */\n          0x01\n          sstore\n            /* \"application_contracts/Deploy Any Contract.sol\":5271:5351  constructor(uint _x, uint _y) payable {... */\n          mload(0x40)\n          sub(codesize, bytecodeSize)\n          dup1\n          bytecodeSize\n          dup4\n          codecopy\n          dup2\n          dup2\n          add\n          0x40\n          mstore\n          dup2\n          add\n          swap1\n          tag_1\n          swap2\n          swap1\n          tag_2\n          jump\t// in\n        tag_1:\n            /* \"application_contracts/Deploy Any Contract.sol\":5324:5326  _x */\n          dup2\n            /* \"application_contracts/Deploy Any Contract.sol\":5320:5321  x */\n          0x02\n            /* \"application_contracts/Deploy Any Contract.sol\":5320:5326  x = _x */\n          dup2\n          swap1\n          sstore\n          pop\n            /* \"application_contracts/Deploy Any Contract.sol\":5341:5343  _y */\n          dup1\n            /* \"application_contracts/Deploy Any Contract.sol\":5337:5338  y */\n          0x03\n            /* \"application_contracts/Deploy Any Contract.sol\":5337:5343  y = _y */\n          dup2\n          swap1\n          sstore\n          pop\n            /* \"application_contracts/Deploy Any Contract.sol\":5271:5351  constructor(uint _x, uint _y) payable {... */\n          pop\n          pop\n            /* \"application_contracts/Deploy Any Contract.sol\":5123:5354  contract TestContract2 {... */\n          jump(tag_5)\n            /* \"#utility.yul\":88:205   */\n        tag_7:\n            /* \"#utility.yul\":197:198   */\n          0x00\n            /* \"#utility.yul\":194:195   */\n          0x00\n            /* \"#utility.yul\":187:199   */\n          revert\n            /* \"#utility.yul\":334:411   */\n        tag_9:\n            /* \"#utility.yul\":371:378   */\n          0x00\n            /* \"#utility.yul\":400:405   */\n          dup2\n            /* \"#utility.yul\":389:405   */\n          swap1\n          pop\n            /* \"#utility.yul\":334:411   */\n          swap2\n          swap1\n          pop\n          jump\t// out\n            /* \"#utility.yul\":417:539   */\n        tag_10:\n            /* \"#utility.yul\":490:514   */\n          tag_18\n            /* \"#utility.yul\":508:513   */\n          dup2\n            /* \"#utility.yul\":490:514   */\n          tag_9\n          jump\t// in\n        tag_18:\n            /* \"#utility.yul\":483:488   */\n          dup2\n            /* \"#utility.yul\":480:515   */\n          eq\n            /* \"#utility.yul\":470:533   */\n          tag_19\n          jumpi\n            /* \"#utility.yul\":529:530   */\n          0x00\n            /* \"#utility.yul\":526:527   */\n          0x00\n            /* \"#utility.yul\":519:531   */\n          revert\n            /* \"#utility.yul\":470:533   */\n        tag_19:\n            /* \"#utility.yul\":417:539   */\n          pop\n          jump\t// out\n            /* \"#utility.yul\":545:688   */\n        tag_11:\n            /* \"#utility.yul\":602:607   */\n          0x00\n            /* \"#utility.yul\":633:639   */\n          dup2\n            /* \"#utility.yul\":627:640   */\n          mload\n            /* \"#utility.yul\":618:640   */\n          swap1\n          pop\n            /* \"#utility.yul\":649:682   */\n          tag_21\n            /* \"#utility.yul\":676:681   */\n          dup2\n            /* \"#utility.yul\":649:682   */\n          tag_10\n          jump\t// in\n        tag_21:\n            /* \"#utility.yul\":545:688   */\n          swap3\n          swap2\n          pop\n          pop\n          jump\t// out\n            /* \"#utility.yul\":694:1201   */\n        tag_2:\n            /* \"#utility.yul\":773:779   */\n          0x00\n            /* \"#utility.yul\":781:787   */\n          0x00\n            /* \"#utility.yul\":830:832   */\n          0x40\n            /* \"#utility.yul\":818:827   */\n          dup4\n            /* \"#utility.yul\":809:816   */\n          dup6\n            /* \"#utility.yul\":805:828   */\n          sub\n            /* \"#utility.yul\":801:833   */\n          slt\n            /* \"#utility.yul\":798:917   */\n          iszero\n          tag_23\n          jumpi\n            /* \"#utility.yul\":836:915   */\n          tag_24\n          tag_7\n          jump\t// in\n        tag_24:\n            /* \"#utility.yul\":798:917   */\n        tag_23:\n            /* \"#utility.yul\":956:957   */\n          0x00\n            /* \"#utility.yul\":981:1045   */\n          tag_25\n            /* \"#utility.yul\":1037:1044   */\n          dup6\n            /* \"#utility.yul\":1028:1034   */\n          dup3\n            /* \"#utility.yul\":1017:1026   */\n          dup7\n            /* \"#utility.yul\":1013:1035   */\n          add\n            /* \"#utility.yul\":981:1045   */\n          tag_11\n          jump\t// in\n        tag_25:\n            /* \"#utility.yul\":971:1045   */\n          swap3\n          pop\n            /* \"#utility.yul\":927:1055   */\n          pop\n            /* \"#utility.yul\":1094:1096   */\n          0x20\n            /* \"#utility.yul\":1120:1184   */\n          tag_26\n            /* \"#utility.yul\":1176:1183   */\n          dup6\n            /* \"#utility.yul\":1167:1173   */\n          dup3\n            /* \"#utility.yul\":1156:1165   */\n          dup7\n            /* \"#utility.yul\":1152:1174   */\n          add\n            /* \"#utility.yul\":1120:1184   */\n          tag_11\n          jump\t// in\n        tag_26:\n            /* \"#utility.yul\":1110:1184   */\n          swap2\n          pop\n            /* \"#utility.yul\":1065:1194   */\n          pop\n            /* \"#utility.yul\":694:1201   */\n          swap3\n          pop\n          swap3\n          swap1\n          pop\n          jump\t// out\n            /* \"application_contracts/Deploy Any Contract.sol\":5123:5354  contract TestContract2 {... */\n        tag_5:\n          dataSize(sub_0)\n          dup1\n          dataOffset(sub_0)\n          0x00\n          codecopy\n          0x00\n          return\n        stop\n\n        sub_0: assembly {\n                /* \"application_contracts/Deploy Any Contract.sol\":5123:5354  contract TestContract2 {... */\n              mstore(0x40, 0x80)\n              callvalue\n              dup1\n              iszero\n              tag_1\n              jumpi\n              revert(0x00, 0x00)\n            tag_1:\n              pop\n              jumpi(tag_2, lt(calldatasize, 0x04))\n              shr(0xe0, calldataload(0x00))\n              dup1\n              0x0c55699c\n              eq\n              tag_3\n              jumpi\n              dup1\n              0x3fa4f245\n              eq\n              tag_4\n              jumpi\n              dup1\n              0x8da5cb5b\n              eq\n              tag_5\n              jumpi\n              dup1\n              0xa56dfe4a\n              eq\n              tag_6\n              jumpi\n            tag_2:\n              revert(0x00, 0x00)\n                /* \"application_contracts/Deploy Any Contract.sol\":5229:5242  uint public x */\n            tag_3:\n              tag_7\n              tag_8\n              jump\t// in\n            tag_7:\n              mload(0x40)\n              tag_9\n              swap2\n              swap1\n              tag_10\n              jump\t// in\n            tag_9:\n              mload(0x40)\n              dup1\n              swap2\n              sub\n              swap1\n              return\n                /* \"application_contracts/Deploy Any Contract.sol\":5193:5222  uint public value = msg.value */\n            tag_4:\n              tag_11\n              tag_12\n              jump\t// in\n            tag_11:\n              mload(0x40)\n              tag_13\n              swap2\n              swap1\n              tag_10\n              jump\t// in\n            tag_13:\n              mload(0x40)\n              dup1\n              swap2\n              sub\n              swap1\n              return\n                /* \"application_contracts/Deploy Any Contract.sol\":5153:5186  address public owner = msg.sender */\n            tag_5:\n              tag_14\n              tag_15\n              jump\t// in\n            tag_14:\n              mload(0x40)\n              tag_16\n              swap2\n              swap1\n              tag_17\n              jump\t// in\n            tag_16:\n              mload(0x40)\n              dup1\n              swap2\n              sub\n              swap1\n              return\n                /* \"application_contracts/Deploy Any Contract.sol\":5249:5262  uint public y */\n            tag_6:\n              tag_18\n              tag_19\n              jump\t// in\n            tag_18:\n              mload(0x40)\n              tag_20\n              swap2\n              swap1\n              tag_10\n              jump\t// in\n            tag_20:\n              mload(0x40)\n              dup1\n              swap2\n              sub\n              swap1\n              return\n                /* \"application_contracts/Deploy Any Contract.sol\":5229:5242  uint public x */\n            tag_8:\n              sload(0x02)\n              dup2\n              jump\t// out\n                /* \"application_contracts/Deploy Any Contract.sol\":5193:5222  uint public value = msg.value */\n            tag_12:\n              sload(0x01)\n              dup2\n              jump\t// out\n                /* \"application_contracts/Deploy Any Contract.sol\":5153:5186  address public owner = msg.sender */\n            tag_15:\n              0x00\n              0x00\n              swap1\n              sload\n              swap1\n              0x0100\n              exp\n              swap1\n              div\n              0xffffffffffffffffffffffffffffffffffffffff\n              and\n              dup2\n              jump\t// out\n                /* \"application_contracts/Deploy Any Contract.sol\":5249:5262  uint public y */\n            tag_19:\n              sload(0x03)\n              dup2\n              jump\t// out\n                /* \"#utility.yul\":7:84   */\n            tag_21:\n                /* \"#utility.yul\":44:51   */\n              0x00\n                /* \"#utility.yul\":73:78   */\n              dup2\n                /* \"#utility.yul\":62:78   */\n              swap1\n              pop\n                /* \"#utility.yul\":7:84   */\n              swap2\n              swap1\n              pop\n              jump\t// out\n                /* \"#utility.yul\":90:208   */\n            tag_22:\n                /* \"#utility.yul\":177:201   */\n              tag_29\n                /* \"#utility.yul\":195:200   */\n              dup2\n                /* \"#utility.yul\":177:201   */\n              tag_21\n              jump\t// in\n            tag_29:\n                /* \"#utility.yul\":172:175   */\n              dup3\n                /* \"#utility.yul\":165:202   */\n              mstore\n                /* \"#utility.yul\":90:208   */\n              pop\n              pop\n              jump\t// out\n                /* \"#utility.yul\":214:436   */\n            tag_10:\n                /* \"#utility.yul\":307:311   */\n              0x00\n                /* \"#utility.yul\":345:347   */\n              0x20\n                /* \"#utility.yul\":334:343   */\n              dup3\n                /* \"#utility.yul\":330:348   */\n              add\n                /* \"#utility.yul\":322:348   */\n              swap1\n              pop\n                /* \"#utility.yul\":358:429   */\n              tag_31\n                /* \"#utility.yul\":426:427   */\n              0x00\n                /* \"#utility.yul\":415:424   */\n              dup4\n                /* \"#utility.yul\":411:428   */\n              add\n                /* \"#utility.yul\":402:408   */\n              dup5\n                /* \"#utility.yul\":358:429   */\n              tag_22\n              jump\t// in\n            tag_31:\n                /* \"#utility.yul\":214:436   */\n              swap3\n              swap2\n              pop\n              pop\n              jump\t// out\n                /* \"#utility.yul\":442:568   */\n            tag_23:\n                /* \"#utility.yul\":479:486   */\n              0x00\n                /* \"#utility.yul\":519:561   */\n              0xffffffffffffffffffffffffffffffffffffffff\n                /* \"#utility.yul\":512:517   */\n              dup3\n                /* \"#utility.yul\":508:562   */\n              and\n                /* \"#utility.yul\":497:562   */\n              swap1\n              pop\n                /* \"#utility.yul\":442:568   */\n              swap2\n              swap1\n              pop\n              jump\t// out\n                /* \"#utility.yul\":574:670   */\n            tag_24:\n                /* \"#utility.yul\":611:618   */\n              0x00\n                /* \"#utility.yul\":640:664   */\n              tag_34\n                /* \"#utility.yul\":658:663   */\n              dup3\n                /* \"#utility.yul\":640:664   */\n              tag_23\n              jump\t// in\n            tag_34:\n                /* \"#utility.yul\":629:664   */\n              swap1\n              pop\n                /* \"#utility.yul\":574:670   */\n              swap2\n              swap1\n              pop\n              jump\t// out\n                /* \"#utility.yul\":676:794   */\n            tag_25:\n                /* \"#utility.yul\":763:787   */\n              tag_36\n                /* \"#utility.yul\":781:786   */\n              dup2\n                /* \"#utility.yul\":763:787   */\n              tag_24\n              jump\t// in\n            tag_36:\n                /* \"#utility.yul\":758:761   */\n              dup3\n                /* \"#utility.yul\":751:788   */\n              mstore\n                /* \"#utility.yul\":676:794   */\n              pop\n              pop\n              jump\t// out\n                /* \"#utility.yul\":800:1022   */\n            tag_17:\n                /* \"#utility.yul\":893:897   */\n              0x00\n                /* \"#utility.yul\":931:933   */\n              0x20\n                /* \"#utility.yul\":920:929   */\n              dup3\n                /* \"#utility.yul\":916:934   */\n              add\n                /* \"#utility.yul\":908:934   */\n              swap1\n              pop\n                /* \"#utility.yul\":944:1015   */\n              tag_38\n                /* \"#utility.yul\":1012:1013   */\n              0x00\n                /* \"#utility.yul\":1001:1010   */\n              dup4\n                /* \"#utility.yul\":997:1014   */\n              add\n                /* \"#utility.yul\":988:994   */\n              dup5\n                /* \"#utility.yul\":944:1015   */\n              tag_25\n              jump\t// in\n            tag_38:\n                /* \"#utility.yul\":800:1022   */\n              swap3\n              swap2\n              pop\n              pop\n              jump\t// out\n\n            auxdata: 0xa2646970667358221220e1d1f45e36df65eb33f247e2e4d5eb1587afc43d45f9664ea88bec12eb0cb7d364736f6c634300081e0033\n        }\n    }\n\n    sub_1: assembly {\n            /* \"application_contracts/Deploy Any Contract.sol\":4918:5119  contract TestContract1 {... */\n          mstore(0x40, 0x80)\n            /* \"application_contracts/Deploy Any Contract.sol\":4971:4981  msg.sender */\n          caller\n            /* \"application_contracts/Deploy Any Contract.sol\":4948:4981  address public owner = msg.sender */\n          0x00\n          exp(0x0100, 0x00)\n          dup2\n          sload\n          dup2\n          0xffffffffffffffffffffffffffffffffffffffff\n          mul\n          not\n          and\n          swap1\n          dup4\n          0xffffffffffffffffffffffffffffffffffffffff\n          and\n          mul\n          or\n          swap1\n          sstore\n          pop\n            /* \"application_contracts/Deploy Any Contract.sol\":4918:5119  contract TestContract1 {... */\n          callvalue\n          dup1\n          iszero\n          tag_1\n          jumpi\n          revert(0x00, 0x00)\n        tag_1:\n          pop\n          dataSize(sub_0)\n          dup1\n          dataOffset(sub_0)\n          0x00\n          codecopy\n          0x00\n          return\n        stop\n\n        sub_0: assembly {\n                /* \"application_contracts/Deploy Any Contract.sol\":4918:5119  contract TestContract1 {... */\n              mstore(0x40, 0x80)\n              callvalue\n              dup1\n              iszero\n              tag_1\n              jumpi\n              revert(0x00, 0x00)\n            tag_1:\n              pop\n              jumpi(tag_2, lt(calldatasize, 0x04))\n              shr(0xe0, calldataload(0x00))\n              dup1\n              0x13af4035\n              eq\n              tag_3\n              jumpi\n              dup1\n              0x8da5cb5b\n              eq\n              tag_4\n              jumpi\n            tag_2:\n              revert(0x00, 0x00)\n                /* \"application_contracts/Deploy Any Contract.sol\":4990:5116  function setOwner(address _owner) public {... */\n            tag_3:\n              tag_5\n              0x04\n              dup1\n              calldatasize\n              sub\n              dup2\n              add\n              swap1\n              tag_6\n              swap2\n              swap1\n              tag_7\n              jump\t// in\n            tag_6:\n              tag_8\n              jump\t// in\n            tag_5:\n              stop\n                /* \"application_contracts/Deploy Any Contract.sol\":4948:4981  address public owner = msg.sender */\n            tag_4:\n              tag_9\n              tag_10\n              jump\t// in\n            tag_9:\n              mload(0x40)\n              tag_11\n              swap2\n              swap1\n              tag_12\n              jump\t// in\n            tag_11:\n              mload(0x40)\n              dup1\n              swap2\n              sub\n              swap1\n              return\n                /* \"application_contracts/Deploy Any Contract.sol\":4990:5116  function setOwner(address _owner) public {... */\n            tag_8:\n                /* \"application_contracts/Deploy Any Contract.sol\":5064:5069  owner */\n              0x00\n              0x00\n              swap1\n              sload\n              swap1\n              0x0100\n              exp\n              swap1\n              div\n              0xffffffffffffffffffffffffffffffffffffffff\n              and\n                /* \"application_contracts/Deploy Any Contract.sol\":5050:5069  msg.sender == owner */\n              0xffffffffffffffffffffffffffffffffffffffff\n              and\n                /* \"application_contracts/Deploy Any Contract.sol\":5050:5060  msg.sender */\n              caller\n                /* \"application_contracts/Deploy Any Contract.sol\":5050:5069  msg.sender == owner */\n              0xffffffffffffffffffffffffffffffffffffffff\n              and\n              eq\n                /* \"application_contracts/Deploy Any Contract.sol\":5042:5083  require(msg.sender == owner, \"not owner\") */\n              tag_14\n              jumpi\n              mload(0x40)\n              0x08c379a000000000000000000000000000000000000000000000000000000000\n              dup2\n              mstore\n              0x04\n              add\n              tag_15\n              swap1\n              tag_16\n              jump\t// in\n            tag_15:\n              mload(0x40)\n              dup1\n              swap2\n              sub\n              swap1\n              revert\n            tag_14:\n                /* \"application_contracts/Deploy Any Contract.sol\":5102:5108  _owner */\n              dup1\n                /* \"application_contracts/Deploy Any Contract.sol\":5094:5099  owner */\n              0x00\n              0x00\n                /* \"application_contracts/Deploy Any Contract.sol\":5094:5108  owner = _owner */\n              0x0100\n              exp\n              dup2\n              sload\n              dup2\n              0xffffffffffffffffffffffffffffffffffffffff\n              mul\n              not\n              and\n              swap1\n              dup4\n              0xffffffffffffffffffffffffffffffffffffffff\n              and\n              mul\n              or\n              swap1\n              sstore\n              pop\n                /* \"application_contracts/Deploy Any Contract.sol\":4990:5116  function setOwner(address _owner) public {... */\n              pop\n              jump\t// out\n                /* \"application_contracts/Deploy Any Contract.sol\":4948:4981  address public owner = msg.sender */\n            tag_10:\n              0x00\n              0x00\n              swap1\n              sload\n              swap1\n              0x0100\n              exp\n              swap1\n              div\n              0xffffffffffffffffffffffffffffffffffffffff\n              and\n              dup2\n              jump\t// out\n                /* \"#utility.yul\":88:205   */\n            tag_18:\n                /* \"#utility.yul\":197:198   */\n              0x00\n                /* \"#utility.yul\":194:195   */\n              0x00\n                /* \"#utility.yul\":187:199   */\n              revert\n                /* \"#utility.yul\":334:460   */\n            tag_20:\n                /* \"#utility.yul\":371:378   */\n              0x00\n                /* \"#utility.yul\":411:453   */\n              0xffffffffffffffffffffffffffffffffffffffff\n                /* \"#utility.yul\":404:409   */\n              dup3\n                /* \"#utility.yul\":400:454   */\n              and\n                /* \"#utility.yul\":389:454   */\n              swap1\n              pop\n                /* \"#utility.yul\":334:460   */\n              swap2\n              swap1\n              pop\n              jump\t// out\n                /* \"#utility.yul\":466:562   */\n            tag_21:\n                /* \"#utility.yul\":503:510   */\n              0x00\n                /* \"#utility.yul\":532:556   */\n              tag_34\n                /* \"#utility.yul\":550:555   */\n              dup3\n                /* \"#utility.yul\":532:556   */\n              tag_20\n              jump\t// in\n            tag_34:\n                /* \"#utility.yul\":521:556   */\n              swap1\n              pop\n                /* \"#utility.yul\":466:562   */\n              swap2\n              swap1\n              pop\n              jump\t// out\n                /* \"#utility.yul\":568:690   */\n            tag_22:\n                /* \"#utility.yul\":641:665   */\n              tag_36\n                /* \"#utility.yul\":659:664   */\n              dup2\n                /* \"#utility.yul\":641:665   */\n              tag_21\n              jump\t// in\n            tag_36:\n                /* \"#utility.yul\":634:639   */\n              dup2\n                /* \"#utility.yul\":631:666   */\n              eq\n                /* \"#utility.yul\":621:684   */\n              tag_37\n              jumpi\n                /* \"#utility.yul\":680:681   */\n              0x00\n                /* \"#utility.yul\":677:678   */\n              0x00\n                /* \"#utility.yul\":670:682   */\n              revert\n                /* \"#utility.yul\":621:684   */\n            tag_37:\n                /* \"#utility.yul\":568:690   */\n              pop\n              jump\t// out\n                /* \"#utility.yul\":696:835   */\n            tag_23:\n                /* \"#utility.yul\":742:747   */\n              0x00\n                /* \"#utility.yul\":780:786   */\n              dup2\n                /* \"#utility.yul\":767:787   */\n              calldataload\n                /* \"#utility.yul\":758:787   */\n              swap1\n              pop\n                /* \"#utility.yul\":796:829   */\n              tag_39\n                /* \"#utility.yul\":823:828   */\n              dup2\n                /* \"#utility.yul\":796:829   */\n              tag_22\n              jump\t// in\n            tag_39:\n                /* \"#utility.yul\":696:835   */\n              swap3\n              swap2\n              pop\n              pop\n              jump\t// out\n                /* \"#utility.yul\":841:1170   */\n            tag_7:\n                /* \"#utility.yul\":900:906   */\n              0x00\n                /* \"#utility.yul\":949:951   */\n              0x20\n                /* \"#utility.yul\":937:946   */\n              dup3\n                /* \"#utility.yul\":928:935   */\n              dup5\n                /* \"#utility.yul\":924:947   */\n              sub\n                /* \"#utility.yul\":920:952   */\n              slt\n                /* \"#utility.yul\":917:1036   */\n              iszero\n              tag_41\n              jumpi\n                /* \"#utility.yul\":955:1034   */\n              tag_42\n              tag_18\n              jump\t// in\n            tag_42:\n                /* \"#utility.yul\":917:1036   */\n            tag_41:\n                /* \"#utility.yul\":1075:1076   */\n              0x00\n                /* \"#utility.yul\":1100:1153   */\n              tag_43\n                /* \"#utility.yul\":1145:1152   */\n              dup5\n                /* \"#utility.yul\":1136:1142   */\n              dup3\n                /* \"#utility.yul\":1125:1134   */\n              dup6\n                /* \"#utility.yul\":1121:1143   */\n              add\n                /* \"#utility.yul\":1100:1153   */\n              tag_23\n              jump\t// in\n            tag_43:\n                /* \"#utility.yul\":1090:1153   */\n              swap2\n              pop\n                /* \"#utility.yul\":1046:1163   */\n              pop\n                /* \"#utility.yul\":841:1170   */\n              swap3\n              swap2\n              pop\n              pop\n              jump\t// out\n                /* \"#utility.yul\":1176:1294   */\n            tag_24:\n                /* \"#utility.yul\":1263:1287   */\n              tag_45\n                /* \"#utility.yul\":1281:1286   */\n              dup2\n                /* \"#utility.yul\":1263:1287   */\n              tag_21\n              jump\t// in\n            tag_45:\n                /* \"#utility.yul\":1258:1261   */\n              dup3\n                /* \"#utility.yul\":1251:1288   */\n              mstore\n                /* \"#utility.yul\":1176:1294   */\n              pop\n              pop\n              jump\t// out\n                /* \"#utility.yul\":1300:1522   */\n            tag_12:\n                /* \"#utility.yul\":1393:1397   */\n              0x00\n                /* \"#utility.yul\":1431:1433   */\n              0x20\n                /* \"#utility.yul\":1420:1429   */\n              dup3\n                /* \"#utility.yul\":1416:1434   */\n              add\n                /* \"#utility.yul\":1408:1434   */\n              swap1\n              pop\n                /* \"#utility.yul\":1444:1515   */\n              tag_47\n                /* \"#utility.yul\":1512:1513   */\n              0x00\n                /* \"#utility.yul\":1501:1510   */\n              dup4\n                /* \"#utility.yul\":1497:1514   */\n              add\n                /* \"#utility.yul\":1488:1494   */\n              dup5\n                /* \"#utility.yul\":1444:1515   */\n              tag_24\n              jump\t// in\n            tag_47:\n                /* \"#utility.yul\":1300:1522   */\n              swap3\n              swap2\n              pop\n              pop\n              jump\t// out\n                /* \"#utility.yul\":1528:1697   */\n            tag_25:\n                /* \"#utility.yul\":1612:1623   */\n              0x00\n                /* \"#utility.yul\":1646:1652   */\n              dup3\n                /* \"#utility.yul\":1641:1644   */\n              dup3\n                /* \"#utility.yul\":1634:1653   */\n              mstore\n                /* \"#utility.yul\":1686:1690   */\n              0x20\n                /* \"#utility.yul\":1681:1684   */\n              dup3\n                /* \"#utility.yul\":1677:1691   */\n              add\n                /* \"#utility.yul\":1662:1691   */\n              swap1\n              pop\n                /* \"#utility.yul\":1528:1697   */\n              swap3\n              swap2\n              pop\n              pop\n              jump\t// out\n                /* \"#utility.yul\":1703:1862   */\n            tag_26:\n                /* \"#utility.yul\":1843:1854   */\n              0x6e6f74206f776e65720000000000000000000000000000000000000000000000\n                /* \"#utility.yul\":1839:1840   */\n              0x00\n                /* \"#utility.yul\":1831:1837   */\n              dup3\n                /* \"#utility.yul\":1827:1841   */\n              add\n                /* \"#utility.yul\":1820:1855   */\n              mstore\n                /* \"#utility.yul\":1703:1862   */\n              pop\n              jump\t// out\n                /* \"#utility.yul\":1868:2233   */\n            tag_27:\n                /* \"#utility.yul\":2010:2013   */\n              0x00\n                /* \"#utility.yul\":2031:2097   */\n              tag_51\n                /* \"#utility.yul\":2095:2096   */\n              0x09\n                /* \"#utility.yul\":2090:2093   */\n              dup4\n                /* \"#utility.yul\":2031:2097   */\n              tag_25\n              jump\t// in\n            tag_51:\n                /* \"#utility.yul\":2024:2097   */\n              swap2\n              pop\n                /* \"#utility.yul\":2106:2199   */\n              tag_52\n                /* \"#utility.yul\":2195:2198   */\n              dup3\n                /* \"#utility.yul\":2106:2199   */\n              tag_26\n              jump\t// in\n            tag_52:\n                /* \"#utility.yul\":2224:2226   */\n              0x20\n                /* \"#utility.yul\":2219:2222   */\n              dup3\n                /* \"#utility.yul\":2215:2227   */\n              add\n                /* \"#utility.yul\":2208:2227   */\n              swap1\n              pop\n                /* \"#utility.yul\":1868:2233   */\n              swap2\n              swap1\n              pop\n              jump\t// out\n                /* \"#utility.yul\":2239:2658   */\n            tag_16:\n                /* \"#utility.yul\":2405:2409   */\n              0x00\n                /* \"#utility.yul\":2443:2445   */\n              0x20\n                /* \"#utility.yul\":2432:2441   */\n              dup3\n                /* \"#utility.yul\":2428:2446   */\n              add\n                /* \"#utility.yul\":2420:2446   */\n              swap1\n              pop\n                /* \"#utility.yul\":2492:2501   */\n              dup2\n                /* \"#utility.yul\":2486:2490   */\n              dup2\n                /* \"#utility.yul\":2482:2502   */\n              sub\n                /* \"#utility.yul\":2478:2479   */\n              0x00\n                /* \"#utility.yul\":2467:2476   */\n              dup4\n                /* \"#utility.yul\":2463:2480   */\n              add\n                /* \"#utility.yul\":2456:2503   */\n              mstore\n                /* \"#utility.yul\":2520:2651   */\n              tag_54\n                /* \"#utility.yul\":2646:2650   */\n              dup2\n                /* \"#utility.yul\":2520:2651   */\n              tag_27\n              jump\t// in\n            tag_54:\n                /* \"#utility.yul\":2512:2651   */\n              swap1\n              pop\n                /* \"#utility.yul\":2239:2658   */\n              swap2\n              swap1\n              pop\n              jump\t// out\n\n            auxdata: 0xa26469706673582212200580b81e9312fe9092d8ec834b30f04de4cdabcd52fe03f65103f2553a4e888864736f6c634300081e0033\n        }\n    }\n\n    auxdata: 0xa26469706673582212206a8a0e43cabf3a34f165af57002ac71459db1ddedc7cb1d707f61dcacb4929f164736f6c634300081e0033\n}\n",
				"bytecode": {
					"linkReferences": {},
					"object": "6080604052348015600e575f5ffd5b50610a6c8061001c5f395ff3fe608060405234801561000f575f5ffd5b506004361061003f575f3560e01c80632064cad51461004357806345fb27cd14610073578063e68f92f1146100a3575b5f5ffd5b61005d60048036038101906100589190610275565b6100c1565b60405161006a9190610310565b60405180910390f35b61008d60048036038101906100889190610363565b610158565b60405161009a9190610310565b60405180910390f35b6100ab6101cd565b6040516100b89190610310565b60405180910390f35b6060816040516024016100d491906103b0565b6040516020818303038152906040527f13af4035000000000000000000000000000000000000000000000000000000007bffffffffffffffffffffffffffffffffffffffffffffffffffffffff19166020820180517bffffffffffffffffffffffffffffffffffffffffffffffffffffffff83818316178352505050509050919050565b60605f6040518060200161016b906101fd565b6020820181038252601f19601f8201166040525090508084846040516020016101959291906103d8565b6040516020818303038152906040526040516020016101b5929190610439565b60405160208183030381529060405291505092915050565b60605f604051806020016101e09061020a565b6020820181038252601f19601f8201166040525090508091505090565b6102ba8061045d83390190565b6103208061071783390190565b5f5ffd5b5f73ffffffffffffffffffffffffffffffffffffffff82169050919050565b5f6102448261021b565b9050919050565b6102548161023a565b811461025e575f5ffd5b50565b5f8135905061026f8161024b565b92915050565b5f6020828403121561028a57610289610217565b5b5f61029784828501610261565b91505092915050565b5f81519050919050565b5f82825260208201905092915050565b8281835e5f83830152505050565b5f601f19601f8301169050919050565b5f6102e2826102a0565b6102ec81856102aa565b93506102fc8185602086016102ba565b610305816102c8565b840191505092915050565b5f6020820190508181035f83015261032881846102d8565b905092915050565b5f819050919050565b61034281610330565b811461034c575f5ffd5b50565b5f8135905061035d81610339565b92915050565b5f5f6040838503121561037957610378610217565b5b5f6103868582860161034f565b92505060206103978582860161034f565b9150509250929050565b6103aa8161023a565b82525050565b5f6020820190506103c35f8301846103a1565b92915050565b6103d281610330565b82525050565b5f6040820190506103eb5f8301856103c9565b6103f860208301846103c9565b9392505050565b5f81905092915050565b5f610413826102a0565b61041d81856103ff565b935061042d8185602086016102ba565b80840191505092915050565b5f6104448285610409565b91506104508284610409565b9150819050939250505056fe6080604052335f5f6101000a81548173ffffffffffffffffffffffffffffffffffffffff021916908373ffffffffffffffffffffffffffffffffffffffff160217905550346001556040516102ba3803806102ba833981810160405281019061006891906100b4565b816002819055508060038190555050506100f2565b5f5ffd5b5f819050919050565b61009381610081565b811461009d575f5ffd5b50565b5f815190506100ae8161008a565b92915050565b5f5f604083850312156100ca576100c961007d565b5b5f6100d7858286016100a0565b92505060206100e8858286016100a0565b9150509250929050565b6101bb806100ff5f395ff3fe608060405234801561000f575f5ffd5b506004361061004a575f3560e01c80630c55699c1461004e5780633fa4f2451461006c5780638da5cb5b1461008a578063a56dfe4a146100a8575b5f5ffd5b6100566100c6565b6040516100639190610114565b60405180910390f35b6100746100cc565b6040516100819190610114565b60405180910390f35b6100926100d2565b60405161009f919061016c565b60405180910390f35b6100b06100f6565b6040516100bd9190610114565b60405180910390f35b60025481565b60015481565b5f5f9054906101000a900473ffffffffffffffffffffffffffffffffffffffff1681565b60035481565b5f819050919050565b61010e816100fc565b82525050565b5f6020820190506101275f830184610105565b92915050565b5f73ffffffffffffffffffffffffffffffffffffffff82169050919050565b5f6101568261012d565b9050919050565b6101668161014c565b82525050565b5f60208201905061017f5f83018461015d565b9291505056fea2646970667358221220e1d1f45e36df65eb33f247e2e4d5eb1587afc43d45f9664ea88bec12eb0cb7d364736f6c634300081e00336080604052335f5f6101000a81548173ffffffffffffffffffffffffffffffffffffffff021916908373ffffffffffffffffffffffffffffffffffffffff160217905550348015604d575f5ffd5b506102c58061005b5f395ff3fe608060405234801561000f575f5ffd5b5060043610610034575f3560e01c806313af4035146100385780638da5cb5b14610054575b5f5ffd5b610052600480360381019061004d91906101c4565b610072565b005b61005c610142565b60405161006991906101fe565b60405180910390f35b5f5f9054906101000a900473ffffffffffffffffffffffffffffffffffffffff1673ffffffffffffffffffffffffffffffffffffffff163373ffffffffffffffffffffffffffffffffffffffff1614610100576040517f08c379a00000000000000000000000000000000000000000000000000000000081526004016100f790610271565b60405180910390fd5b805f5f6101000a81548173ffffffffffffffffffffffffffffffffffffffff021916908373ffffffffffffffffffffffffffffffffffffffff16021790555050565b5f5f9054906101000a900473ffffffffffffffffffffffffffffffffffffffff1681565b5f5ffd5b5f73ffffffffffffffffffffffffffffffffffffffff82169050919050565b5f6101938261016a565b9050919050565b6101a381610189565b81146101ad575f5ffd5b50565b5f813590506101be8161019a565b92915050565b5f602082840312156101d9576101d8610166565b5b5f6101e6848285016101b0565b91505092915050565b6101f881610189565b82525050565b5f6020820190506102115f8301846101ef565b92915050565b5f82825260208201905092915050565b7f6e6f74206f776e657200000000000000000000000000000000000000000000005f82015250565b5f61025b600983610217565b915061026682610227565b602082019050919050565b5f6020820190508181035f8301526102888161024f565b905091905056fea26469706673582212200580b81e9312fe9092d8ec834b30f04de4cdabcd52fe03f65103f2553a4e888864736f6c634300081e0033a26469706673582212206a8a0e43cabf3a34f165af57002ac71459db1ddedc7cb1d707f61dcacb4929f164736f6c634300081e0033",
					"opcodes": "PUSH1 0x80 PUSH1 0x40 MSTORE CALLVALUE DUP1 ISZERO PUSH1 0xE JUMPI PUSH0 PUSH0 REVERT JUMPDEST POP PUSH2 0xA6C DUP1 PUSH2 0x1C PUSH0 CODECOPY PUSH0 RETURN INVALID PUSH1 0x80 PUSH1 0x40 MSTORE CALLVALUE DUP1 ISZERO PUSH2 0xF JUMPI PUSH0 PUSH0 REVERT JUMPDEST POP PUSH1 0x4 CALLDATASIZE LT PUSH2 0x3F JUMPI PUSH0 CALLDATALOAD PUSH1 0xE0 SHR DUP1 PUSH4 0x2064CAD5 EQ PUSH2 0x43 JUMPI DUP1 PUSH4 0x45FB27CD EQ PUSH2 0x73 JUMPI DUP1 PUSH4 0xE68F92F1 EQ PUSH2 0xA3 JUMPI JUMPDEST PUSH0 PUSH0 REVERT JUMPDEST PUSH2 0x5D PUSH1 0x4 DUP1 CALLDATASIZE SUB DUP2 ADD SWAP1 PUSH2 0x58 SWAP2 SWAP1 PUSH2 0x275 JUMP JUMPDEST PUSH2 0xC1 JUMP JUMPDEST PUSH1 0x40 MLOAD PUSH2 0x6A SWAP2 SWAP1 PUSH2 0x310 JUMP JUMPDEST PUSH1 0x40 MLOAD DUP1 SWAP2 SUB SWAP1 RETURN JUMPDEST PUSH2 0x8D PUSH1 0x4 DUP1 CALLDATASIZE SUB DUP2 ADD SWAP1 PUSH2 0x88 SWAP2 SWAP1 PUSH2 0x363 JUMP JUMPDEST PUSH2 0x158 JUMP JUMPDEST PUSH1 0x40 MLOAD PUSH2 0x9A SWAP2 SWAP1 PUSH2 0x310 JUMP JUMPDEST PUSH1 0x40 MLOAD DUP1 SWAP2 SUB SWAP1 RETURN JUMPDEST PUSH2 0xAB PUSH2 0x1CD JUMP JUMPDEST PUSH1 0x40 MLOAD PUSH2 0xB8 SWAP2 SWAP1 PUSH2 0x310 JUMP JUMPDEST PUSH1 0x40 MLOAD DUP1 SWAP2 SUB SWAP1 RETURN JUMPDEST PUSH1 0x60 DUP2 PUSH1 0x40 MLOAD PUSH1 0x24 ADD PUSH2 0xD4 SWAP2 SWAP1 PUSH2 0x3B0 JUMP JUMPDEST PUSH1 0x40 MLOAD PUSH1 0x20 DUP2 DUP4 SUB SUB DUP2 MSTORE SWAP1 PUSH1 0x40 MSTORE PUSH32 0x13AF403500000000000000000000000000000000000000000000000000000000 PUSH28 0xFFFFFFFFFFFFFFFFFFFFFFFFFFFFFFFFFFFFFFFFFFFFFFFFFFFFFFFF NOT AND PUSH1 0x20 DUP3 ADD DUP1 MLOAD PUSH28 0xFFFFFFFFFFFFFFFFFFFFFFFFFFFFFFFFFFFFFFFFFFFFFFFFFFFFFFFF DUP4 DUP2 DUP4 AND OR DUP4 MSTORE POP POP POP POP SWAP1 POP SWAP2 SWAP1 POP JUMP JUMPDEST PUSH1 0x60 PUSH0 PUSH1 0x40 MLOAD DUP1 PUSH1 0x20 ADD PUSH2 0x16B SWAP1 PUSH2 0x1FD JUMP JUMPDEST PUSH1 0x20 DUP3 ADD DUP2 SUB DUP3 MSTORE PUSH1 0x1F NOT PUSH1 0x1F DUP3 ADD AND PUSH1 0x40 MSTORE POP SWAP1 POP DUP1 DUP5 DUP5 PUSH1 0x40 MLOAD PUSH1 0x20 ADD PUSH2 0x195 SWAP3 SWAP2 SWAP1 PUSH2 0x3D8 JUMP JUMPDEST PUSH1 0x40 MLOAD PUSH1 0x20 DUP2 DUP4 SUB SUB DUP2 MSTORE SWAP1 PUSH1 0x40 MSTORE PUSH1 0x40 MLOAD PUSH1 0x20 ADD PUSH2 0x1B5 SWAP3 SWAP2 SWAP1 PUSH2 0x439 JUMP JUMPDEST PUSH1 0x40 MLOAD PUSH1 0x20 DUP2 DUP4 SUB SUB DUP2 MSTORE SWAP1 PUSH1 0x40 MSTORE SWAP2 POP POP SWAP3 SWAP2 POP POP JUMP JUMPDEST PUSH1 0x60 PUSH0 PUSH1 0x40 MLOAD DUP1 PUSH1 0x20 ADD PUSH2 0x1E0 SWAP1 PUSH2 0x20A JUMP JUMPDEST PUSH1 0x20 DUP3 ADD DUP2 SUB DUP3 MSTORE PUSH1 0x1F NOT PUSH1 0x1F DUP3 ADD AND PUSH1 0x40 MSTORE POP SWAP1 POP DUP1 SWAP2 POP POP SWAP1 JUMP JUMPDEST PUSH2 0x2BA DUP1 PUSH2 0x45D DUP4 CODECOPY ADD SWAP1 JUMP JUMPDEST PUSH2 0x320 DUP1 PUSH2 0x717 DUP4 CODECOPY ADD SWAP1 JUMP JUMPDEST PUSH0 PUSH0 REVERT JUMPDEST PUSH0 PUSH20 0xFFFFFFFFFFFFFFFFFFFFFFFFFFFFFFFFFFFFFFFF DUP3 AND SWAP1 POP SWAP2 SWAP1 POP JUMP JUMPDEST PUSH0 PUSH2 0x244 DUP3 PUSH2 0x21B JUMP JUMPDEST SWAP1 POP SWAP2 SWAP1 POP JUMP JUMPDEST PUSH2 0x254 DUP2 PUSH2 0x23A JUMP JUMPDEST DUP2 EQ PUSH2 0x25E JUMPI PUSH0 PUSH0 REVERT JUMPDEST POP JUMP JUMPDEST PUSH0 DUP2 CALLDATALOAD SWAP1 POP PUSH2 0x26F DUP2 PUSH2 0x24B JUMP JUMPDEST SWAP3 SWAP2 POP POP JUMP JUMPDEST PUSH0 PUSH1 0x20 DUP3 DUP5 SUB SLT ISZERO PUSH2 0x28A JUMPI PUSH2 0x289 PUSH2 0x217 JUMP JUMPDEST JUMPDEST PUSH0 PUSH2 0x297 DUP5 DUP3 DUP6 ADD PUSH2 0x261 JUMP JUMPDEST SWAP2 POP POP SWAP3 SWAP2 POP POP JUMP JUMPDEST PUSH0 DUP2 MLOAD SWAP1 POP SWAP2 SWAP1 POP JUMP JUMPDEST PUSH0 DUP3 DUP3 MSTORE PUSH1 0x20 DUP3 ADD SWAP1 POP SWAP3 SWAP2 POP POP JUMP JUMPDEST DUP3 DUP2 DUP4 MCOPY PUSH0 DUP4 DUP4 ADD MSTORE POP POP POP JUMP JUMPDEST PUSH0 PUSH1 0x1F NOT PUSH1 0x1F DUP4 ADD AND SWAP1 POP SWAP2 SWAP1 POP JUMP JUMPDEST PUSH0 PUSH2 0x2E2 DUP3 PUSH2 0x2A0 JUMP JUMPDEST PUSH2 0x2EC DUP2 DUP6 PUSH2 0x2AA JUMP JUMPDEST SWAP4 POP PUSH2 0x2FC DUP2 DUP6 PUSH1 0x20 DUP7 ADD PUSH2 0x2BA JUMP JUMPDEST PUSH2 0x305 DUP2 PUSH2 0x2C8 JUMP JUMPDEST DUP5 ADD SWAP2 POP POP SWAP3 SWAP2 POP POP JUMP JUMPDEST PUSH0 PUSH1 0x20 DUP3 ADD SWAP1 POP DUP2 DUP2 SUB PUSH0 DUP4 ADD MSTORE PUSH2 0x328 DUP2 DUP5 PUSH2 0x2D8 JUMP JUMPDEST SWAP1 POP SWAP3 SWAP2 POP POP JUMP JUMPDEST PUSH0 DUP2 SWAP1 POP SWAP2 SWAP1 POP JUMP JUMPDEST PUSH2 0x342 DUP2 PUSH2 0x330 JUMP JUMPDEST DUP2 EQ PUSH2 0x34C JUMPI PUSH0 PUSH0 REVERT JUMPDEST POP JUMP JUMPDEST PUSH0 DUP2 CALLDATALOAD SWAP1 POP PUSH2 0x35D DUP2 PUSH2 0x339 JUMP JUMPDEST SWAP3 SWAP2 POP POP JUMP JUMPDEST PUSH0 PUSH0 PUSH1 0x40 DUP4 DUP6 SUB SLT ISZERO PUSH2 0x379 JUMPI PUSH2 0x378 PUSH2 0x217 JUMP JUMPDEST JUMPDEST PUSH0 PUSH2 0x386 DUP6 DUP3 DUP7 ADD PUSH2 0x34F JUMP JUMPDEST SWAP3 POP POP PUSH1 0x20 PUSH2 0x397 DUP6 DUP3 DUP7 ADD PUSH2 0x34F JUMP JUMPDEST SWAP2 POP POP SWAP3 POP SWAP3 SWAP1 POP JUMP JUMPDEST PUSH2 0x3AA DUP2 PUSH2 0x23A JUMP JUMPDEST DUP3 MSTORE POP POP JUMP JUMPDEST PUSH0 PUSH1 0x20 DUP3 ADD SWAP1 POP PUSH2 0x3C3 PUSH0 DUP4 ADD DUP5 PUSH2 0x3A1 JUMP JUMPDEST SWAP3 SWAP2 POP POP JUMP JUMPDEST PUSH2 0x3D2 DUP2 PUSH2 0x330 JUMP JUMPDEST DUP3 MSTORE POP POP JUMP JUMPDEST PUSH0 PUSH1 0x40 DUP3 ADD SWAP1 POP PUSH2 0x3EB PUSH0 DUP4 ADD DUP6 PUSH2 0x3C9 JUMP JUMPDEST PUSH2 0x3F8 PUSH1 0x20 DUP4 ADD DUP5 PUSH2 0x3C9 JUMP JUMPDEST SWAP4 SWAP3 POP POP POP JUMP JUMPDEST PUSH0 DUP2 SWAP1 POP SWAP3 SWAP2 POP POP JUMP JUMPDEST PUSH0 PUSH2 0x413 DUP3 PUSH2 0x2A0 JUMP JUMPDEST PUSH2 0x41D DUP2 DUP6 PUSH2 0x3FF JUMP JUMPDEST SWAP4 POP PUSH2 0x42D DUP2 DUP6 PUSH1 0x20 DUP7 ADD PUSH2 0x2BA JUMP JUMPDEST DUP1 DUP5 ADD SWAP2 POP POP SWAP3 SWAP2 POP POP JUMP JUMPDEST PUSH0 PUSH2 0x444 DUP3 DUP6 PUSH2 0x409 JUMP JUMPDEST SWAP2 POP PUSH2 0x450 DUP3 DUP5 PUSH2 0x409 JUMP JUMPDEST SWAP2 POP DUP2 SWAP1 POP SWAP4 SWAP3 POP POP POP JUMP INVALID PUSH1 0x80 PUSH1 0x40 MSTORE CALLER PUSH0 PUSH0 PUSH2 0x100 EXP DUP2 SLOAD DUP2 PUSH20 0xFFFFFFFFFFFFFFFFFFFFFFFFFFFFFFFFFFFFFFFF MUL NOT AND SWAP1 DUP4 PUSH20 0xFFFFFFFFFFFFFFFFFFFFFFFFFFFFFFFFFFFFFFFF AND MUL OR SWAP1 SSTORE POP CALLVALUE PUSH1 0x1 SSTORE PUSH1 0x40 MLOAD PUSH2 0x2BA CODESIZE SUB DUP1 PUSH2 0x2BA DUP4 CODECOPY DUP2 DUP2 ADD PUSH1 0x40 MSTORE DUP2 ADD SWAP1 PUSH2 0x68 SWAP2 SWAP1 PUSH2 0xB4 JUMP JUMPDEST DUP2 PUSH1 0x2 DUP2 SWAP1 SSTORE POP DUP1 PUSH1 0x3 DUP2 SWAP1 SSTORE POP POP POP PUSH2 0xF2 JUMP JUMPDEST PUSH0 PUSH0 REVERT JUMPDEST PUSH0 DUP2 SWAP1 POP SWAP2 SWAP1 POP JUMP JUMPDEST PUSH2 0x93 DUP2 PUSH2 0x81 JUMP JUMPDEST DUP2 EQ PUSH2 0x9D JUMPI PUSH0 PUSH0 REVERT JUMPDEST POP JUMP JUMPDEST PUSH0 DUP2 MLOAD SWAP1 POP PUSH2 0xAE DUP2 PUSH2 0x8A JUMP JUMPDEST SWAP3 SWAP2 POP POP JUMP JUMPDEST PUSH0 PUSH0 PUSH1 0x40 DUP4 DUP6 SUB SLT ISZERO PUSH2 0xCA JUMPI PUSH2 0xC9 PUSH2 0x7D JUMP JUMPDEST JUMPDEST PUSH0 PUSH2 0xD7 DUP6 DUP3 DUP7 ADD PUSH2 0xA0 JUMP JUMPDEST SWAP3 POP POP PUSH1 0x20 PUSH2 0xE8 DUP6 DUP3 DUP7 ADD PUSH2 0xA0 JUMP JUMPDEST SWAP2 POP POP SWAP3 POP SWAP3 SWAP1 POP JUMP JUMPDEST PUSH2 0x1BB DUP1 PUSH2 0xFF PUSH0 CODECOPY PUSH0 RETURN INVALID PUSH1 0x80 PUSH1 0x40 MSTORE CALLVALUE DUP1 ISZERO PUSH2 0xF JUMPI PUSH0 PUSH0 REVERT JUMPDEST POP PUSH1 0x4 CALLDATASIZE LT PUSH2 0x4A JUMPI PUSH0 CALLDATALOAD PUSH1 0xE0 SHR DUP1 PUSH4 0xC55699C EQ PUSH2 0x4E JUMPI DUP1 PUSH4 0x3FA4F245 EQ PUSH2 0x6C JUMPI DUP1 PUSH4 0x8DA5CB5B EQ PUSH2 0x8A JUMPI DUP1 PUSH4 0xA56DFE4A EQ PUSH2 0xA8 JUMPI JUMPDEST PUSH0 PUSH0 REVERT JUMPDEST PUSH2 0x56 PUSH2 0xC6 JUMP JUMPDEST PUSH1 0x40 MLOAD PUSH2 0x63 SWAP2 SWAP1 PUSH2 0x114 JUMP JUMPDEST PUSH1 0x40 MLOAD DUP1 SWAP2 SUB SWAP1 RETURN JUMPDEST PUSH2 0x74 PUSH2 0xCC JUMP JUMPDEST PUSH1 0x40 MLOAD PUSH2 0x81 SWAP2 SWAP1 PUSH2 0x114 JUMP JUMPDEST PUSH1 0x40 MLOAD DUP1 SWAP2 SUB SWAP1 RETURN JUMPDEST PUSH2 0x92 PUSH2 0xD2 JUMP JUMPDEST PUSH1 0x40 MLOAD PUSH2 0x9F SWAP2 SWAP1 PUSH2 0x16C JUMP JUMPDEST PUSH1 0x40 MLOAD DUP1 SWAP2 SUB SWAP1 RETURN JUMPDEST PUSH2 0xB0 PUSH2 0xF6 JUMP JUMPDEST PUSH1 0x40 MLOAD PUSH2 0xBD SWAP2 SWAP1 PUSH2 0x114 JUMP JUMPDEST PUSH1 0x40 MLOAD DUP1 SWAP2 SUB SWAP1 RETURN JUMPDEST PUSH1 0x2 SLOAD DUP2 JUMP JUMPDEST PUSH1 0x1 SLOAD DUP2 JUMP JUMPDEST PUSH0 PUSH0 SWAP1 SLOAD SWAP1 PUSH2 0x100 EXP SWAP1 DIV PUSH20 0xFFFFFFFFFFFFFFFFFFFFFFFFFFFFFFFFFFFFFFFF AND DUP2 JUMP JUMPDEST PUSH1 0x3 SLOAD DUP2 JUMP JUMPDEST PUSH0 DUP2 SWAP1 POP SWAP2 SWAP1 POP JUMP JUMPDEST PUSH2 0x10E DUP2 PUSH2 0xFC JUMP JUMPDEST DUP3 MSTORE POP POP JUMP JUMPDEST PUSH0 PUSH1 0x20 DUP3 ADD SWAP1 POP PUSH2 0x127 PUSH0 DUP4 ADD DUP5 PUSH2 0x105 JUMP JUMPDEST SWAP3 SWAP2 POP POP JUMP JUMPDEST PUSH0 PUSH20 0xFFFFFFFFFFFFFFFFFFFFFFFFFFFFFFFFFFFFFFFF DUP3 AND SWAP1 POP SWAP2 SWAP1 POP JUMP JUMPDEST PUSH0 PUSH2 0x156 DUP3 PUSH2 0x12D JUMP JUMPDEST SWAP1 POP SWAP2 SWAP1 POP JUMP JUMPDEST PUSH2 0x166 DUP2 PUSH2 0x14C JUMP JUMPDEST DUP3 MSTORE POP POP JUMP JUMPDEST PUSH0 PUSH1 0x20 DUP3 ADD SWAP1 POP PUSH2 0x17F PUSH0 DUP4 ADD DUP5 PUSH2 0x15D JUMP JUMPDEST SWAP3 SWAP2 POP POP JUMP INVALID LOG2 PUSH5 0x6970667358 0x22 SLT KECCAK256 RJUMPI 0xD1F4 MCOPY CALLDATASIZE 0xDF PUSH6 0xEB33F247E2E4 0xD5 0xEB ISZERO DUP8 0xAF 0xC4 RETURNDATASIZE GASLIMIT EXTDELEGATECALL PUSH7 0x4EA88BEC12EB0C 0xB7 0xD3 PUSH5 0x736F6C6343 STOP ADDMOD 0x1E STOP CALLER PUSH1 0x80 PUSH1 0x40 MSTORE CALLER PUSH0 PUSH0 PUSH2 0x100 EXP DUP2 SLOAD DUP2 PUSH20 0xFFFFFFFFFFFFFFFFFFFFFFFFFFFFFFFFFFFFFFFF MUL NOT AND SWAP1 DUP4 PUSH20 0xFFFFFFFFFFFFFFFFFFFFFFFFFFFFFFFFFFFFFFFF AND MUL OR SWAP1 SSTORE POP CALLVALUE DUP1 ISZERO PUSH1 0x4D JUMPI PUSH0 PUSH0 REVERT JUMPDEST POP PUSH2 0x2C5 DUP1 PUSH2 0x5B PUSH0 CODECOPY PUSH0 RETURN INVALID PUSH1 0x80 PUSH1 0x40 MSTORE CALLVALUE DUP1 ISZERO PUSH2 0xF JUMPI PUSH0 PUSH0 REVERT JUMPDEST POP PUSH1 0x4 CALLDATASIZE LT PUSH2 0x34 JUMPI PUSH0 CALLDATALOAD PUSH1 0xE0 SHR DUP1 PUSH4 0x13AF4035 EQ PUSH2 0x38 JUMPI DUP1 PUSH4 0x8DA5CB5B EQ PUSH2 0x54 JUMPI JUMPDEST PUSH0 PUSH0 REVERT JUMPDEST PUSH2 0x52 PUSH1 0x4 DUP1 CALLDATASIZE SUB DUP2 ADD SWAP1 PUSH2 0x4D SWAP2 SWAP1 PUSH2 0x1C4 JUMP JUMPDEST PUSH2 0x72 JUMP JUMPDEST STOP JUMPDEST PUSH2 0x5C PUSH2 0x142 JUMP JUMPDEST PUSH1 0x40 MLOAD PUSH2 0x69 SWAP2 SWAP1 PUSH2 0x1FE JUMP JUMPDEST PUSH1 0x40 MLOAD DUP1 SWAP2 SUB SWAP1 RETURN JUMPDEST PUSH0 PUSH0 SWAP1 SLOAD SWAP1 PUSH2 0x100 EXP SWAP1 DIV PUSH20 0xFFFFFFFFFFFFFFFFFFFFFFFFFFFFFFFFFFFFFFFF AND PUSH20 0xFFFFFFFFFFFFFFFFFFFFFFFFFFFFFFFFFFFFFFFF AND CALLER PUSH20 0xFFFFFFFFFFFFFFFFFFFFFFFFFFFFFFFFFFFFFFFF AND EQ PUSH2 0x100 JUMPI PUSH1 0x40 MLOAD PUSH32 0x8C379A000000000000000000000000000000000000000000000000000000000 DUP2 MSTORE PUSH1 0x4 ADD PUSH2 0xF7 SWAP1 PUSH2 0x271 JUMP JUMPDEST PUSH1 0x40 MLOAD DUP1 SWAP2 SUB SWAP1 REVERT JUMPDEST DUP1 PUSH0 PUSH0 PUSH2 0x100 EXP DUP2 SLOAD DUP2 PUSH20 0xFFFFFFFFFFFFFFFFFFFFFFFFFFFFFFFFFFFFFFFF MUL NOT AND SWAP1 DUP4 PUSH20 0xFFFFFFFFFFFFFFFFFFFFFFFFFFFFFFFFFFFFFFFF AND MUL OR SWAP1 SSTORE POP POP JUMP JUMPDEST PUSH0 PUSH0 SWAP1 SLOAD SWAP1 PUSH2 0x100 EXP SWAP1 DIV PUSH20 0xFFFFFFFFFFFFFFFFFFFFFFFFFFFFFFFFFFFFFFFF AND DUP2 JUMP JUMPDEST PUSH0 PUSH0 REVERT JUMPDEST PUSH0 PUSH20 0xFFFFFFFFFFFFFFFFFFFFFFFFFFFFFFFFFFFFFFFF DUP3 AND SWAP1 POP SWAP2 SWAP1 POP JUMP JUMPDEST PUSH0 PUSH2 0x193 DUP3 PUSH2 0x16A JUMP JUMPDEST SWAP1 POP SWAP2 SWAP1 POP JUMP JUMPDEST PUSH2 0x1A3 DUP2 PUSH2 0x189 JUMP JUMPDEST DUP2 EQ PUSH2 0x1AD JUMPI PUSH0 PUSH0 REVERT JUMPDEST POP JUMP JUMPDEST PUSH0 DUP2 CALLDATALOAD SWAP1 POP PUSH2 0x1BE DUP2 PUSH2 0x19A JUMP JUMPDEST SWAP3 SWAP2 POP POP JUMP JUMPDEST PUSH0 PUSH1 0x20 DUP3 DUP5 SUB SLT ISZERO PUSH2 0x1D9 JUMPI PUSH2 0x1D8 PUSH2 0x166 JUMP JUMPDEST JUMPDEST PUSH0 PUSH2 0x1E6 DUP5 DUP3 DUP6 ADD PUSH2 0x1B0 JUMP JUMPDEST SWAP2 POP POP SWAP3 SWAP2 POP POP JUMP JUMPDEST PUSH2 0x1F8 DUP2 PUSH2 0x189 JUMP JUMPDEST DUP3 MSTORE POP POP JUMP JUMPDEST PUSH0 PUSH1 0x20 DUP3 ADD SWAP1 POP PUSH2 0x211 PUSH0 DUP4 ADD DUP5 PUSH2 0x1EF JUMP JUMPDEST SWAP3 SWAP2 POP POP JUMP JUMPDEST PUSH0 DUP3 DUP3 MSTORE PUSH1 0x20 DUP3 ADD SWAP1 POP SWAP3 SWAP2 POP POP JUMP JUMPDEST PUSH32 0x6E6F74206F776E65720000000000000000000000000000000000000000000000 PUSH0 DUP3 ADD MSTORE POP JUMP JUMPDEST PUSH0 PUSH2 0x25B PUSH1 0x9 DUP4 PUSH2 0x217 JUMP JUMPDEST SWAP2 POP PUSH2 0x266 DUP3 PUSH2 0x227 JUMP JUMPDEST PUSH1 0x20 DUP3 ADD SWAP1 POP SWAP2 SWAP1 POP JUMP JUMPDEST PUSH0 PUSH1 0x20 DUP3 ADD SWAP1 POP DUP2 DUP2 SUB PUSH0 DUP4 ADD MSTORE PUSH2 0x288 DUP2 PUSH2 0x24F JUMP JUMPDEST SWAP1 POP SWAP2 SWAP1 POP JUMP INVALID LOG2 PUSH5 0x6970667358 0x22 SLT KECCAK256 SDIV DUP1 0xB8 0x1E SWAP4 SLT INVALID SWAP1 SWAP3 0xD8 EOFCREATE 0x83 0x4B ADDRESS CREATE 0x4D RETF 0xCD 0xAB 0xCD MSTORE INVALID SUB 0xF6 MLOAD SUB CALLCODE SSTORE GASPRICE 0x4E DUP9 DUP9 PUSH5 0x736F6C6343 STOP ADDMOD 0x1E STOP CALLER LOG2 PUSH5 0x6970667358 0x22 SLT KECCAK256 PUSH11 0x8A0E43CABF3A34F165AF57 STOP 0x2A 0xC7 EQ MSIZE 0xDB SAR 0xDE 0xDC PUSH29 0xB1D707F61DCACB4929F164736F6C634300081E00330000000000000000 "
				},
				"gasEstimates": {
					"creation": {
						"codeDepositCost": "533600",
						"executionCost": "566",
						"totalCost": "534166"
					},
					"external": {
						"getBytecode1()": "infinite",
						"getBytecode2(uint256,uint256)": "infinite",
						"getCalldata(address)": "infinite"
					}
				},
				"methodIdentifiers": {
					"getBytecode1()": "e68f92f1",
					"getBytecode2(uint256,uint256)": "45fb27cd",
					"getCalldata(address)": "2064cad5"
				}
			},
			"storageLayout": {
				"storage": [],
				"types": null
			},
			"userdoc": {
				"kind": "user",
				"methods": {},
				"version": 1
			}
		}
	}
}