{
	"application_contracts/Deploy Any Contract.sol": {
		"Proxy": {
			"abi": [
				{
					"anonymous": false,
					"inputs": [
						{
							"indexed": false,
							"internalType": "address",
							"name": "",
							"type": "address"
						}
					],
					"name": "Deploy",
					"type": "event"
				},
				{
					"stateMutability": "payable",
					"type": "fallback"
				},
				{
					"inputs": [
						{
							"internalType": "bytes",
							"name": "_code",
							"type": "bytes"
						}
					],
					"name": "deploy",
					"outputs": [
						{
							"internalType": "address",
							"name": "addr",
							"type": "address"
						}
					],
					"stateMutability": "payable",
					"type": "function"
				},
				{
					"inputs": [
						{
							"internalType": "address",
							"name": "_target",
							"type": "address"
						},
						{
							"internalType": "bytes",
							"name": "_data",
							"type": "bytes"
						}
					],
					"name": "execute",
					"outputs": [],
					"stateMutability": "payable",
					"type": "function"
				},
				{
					"inputs": [
						{
							"internalType": "string",
							"name": "_func",
							"type": "string"
						}
					],
					"name": "getSelector",
					"outputs": [
						{
							"internalType": "bytes4",
							"name": "",
							"type": "bytes4"
						}
					],
					"stateMutability": "pure",
					"type": "function"
				},
				{
					"stateMutability": "payable",
					"type": "receive"
				}
			],
			"devdoc": {
				"kind": "dev",
				"methods": {},
				"version": 1
			},
			"evm": {
				"assembly": "    /* \"application_contracts/Deploy Any Contract.sol\":61:4914  contract Proxy {... */\n  mstore(0x40, 0x80)\n  callvalue\n  dup1\n  iszero\n  tag_1\n  jumpi\n  revert(0x00, 0x00)\ntag_1:\n  pop\n  dataSize(sub_0)\n  dup1\n  dataOffset(sub_0)\n  0x00\n  codecopy\n  0x00\n  return\nstop\n\nsub_0: assembly {\n        /* \"application_contracts/Deploy Any Contract.sol\":61:4914  contract Proxy {... */\n      mstore(0x40, 0x80)\n      jumpi(tag_1, lt(calldatasize, 0x04))\n      shr(0xe0, calldataload(0x00))\n      dup1\n      0x774360\n      eq\n      tag_3\n      jumpi\n      dup1\n      0x1cff79cd\n      eq\n      tag_4\n      jumpi\n      dup1\n      0x80a003ff\n      eq\n      tag_5\n      jumpi\n      jump(tag_2)\n    tag_1:\n    tag_2:\n      stop\n        /* \"application_contracts/Deploy Any Contract.sol\":3829:4302  function deploy(bytes memory _code) external payable returns (address addr) {... */\n    tag_3:\n      tag_10\n      0x04\n      dup1\n      calldatasize\n      sub\n      dup2\n      add\n      swap1\n      tag_11\n      swap2\n      swap1\n      tag_12\n      jump\t// in\n    tag_11:\n      tag_13\n      jump\t// in\n    tag_10:\n      mload(0x40)\n      tag_14\n      swap2\n      swap1\n      tag_15\n      jump\t// in\n    tag_14:\n      mload(0x40)\n      dup1\n      swap2\n      sub\n      swap1\n      return\n        /* \"application_contracts/Deploy Any Contract.sol\":4528:4711  function execute(address _target, bytes memory _data) external payable {... */\n    tag_4:\n      tag_16\n      0x04\n      dup1\n      calldatasize\n      sub\n      dup2\n      add\n      swap1\n      tag_17\n      swap2\n      swap1\n      tag_18\n      jump\t// in\n    tag_17:\n      tag_19\n      jump\t// in\n    tag_16:\n      stop\n        /* \"application_contracts/Deploy Any Contract.sol\":4779:4911  function getSelector(string calldata _func) external pure returns (bytes4) {... */\n    tag_5:\n      callvalue\n      dup1\n      iszero\n      tag_20\n      jumpi\n      revert(0x00, 0x00)\n    tag_20:\n      pop\n      tag_21\n      0x04\n      dup1\n      calldatasize\n      sub\n      dup2\n      add\n      swap1\n      tag_22\n      swap2\n      swap1\n      tag_23\n      jump\t// in\n    tag_22:\n      tag_24\n      jump\t// in\n    tag_21:\n      mload(0x40)\n      tag_25\n      swap2\n      swap1\n      tag_26\n      jump\t// in\n    tag_25:\n      mload(0x40)\n      dup1\n      swap2\n      sub\n      swap1\n      return\n        /* \"application_contracts/Deploy Any Contract.sol\":3829:4302  function deploy(bytes memory _code) external payable returns (address addr) {... */\n    tag_13:\n        /* \"application_contracts/Deploy Any Contract.sol\":3891:3903  address addr */\n      0x00\n        /* \"application_contracts/Deploy Any Contract.sol\":4154:4159  _code */\n      dup2\n        /* \"application_contracts/Deploy Any Contract.sol\":4148:4160  mload(_code) */\n      mload\n        /* \"application_contracts/Deploy Any Contract.sol\":4141:4145  0x20 */\n      0x20\n        /* \"application_contracts/Deploy Any Contract.sol\":4134:4139  _code */\n      dup4\n        /* \"application_contracts/Deploy Any Contract.sol\":4130:4146  add(_code, 0x20) */\n      add\n        /* \"application_contracts/Deploy Any Contract.sol\":4117:4128  callvalue() */\n      callvalue\n        /* \"application_contracts/Deploy Any Contract.sol\":4110:4161  create(callvalue(), add(_code, 0x20), mload(_code)) */\n      create\n        /* \"application_contracts/Deploy Any Contract.sol\":4102:4161  addr := create(callvalue(), add(_code, 0x20), mload(_code)) */\n      swap1\n      pop\n        /* \"application_contracts/Deploy Any Contract.sol\":4244:4245  0 */\n      0x00\n        /* \"application_contracts/Deploy Any Contract.sol\":4228:4246  addr != address(0) */\n      0xffffffffffffffffffffffffffffffffffffffff\n      and\n        /* \"application_contracts/Deploy Any Contract.sol\":4228:4232  addr */\n      dup2\n        /* \"application_contracts/Deploy Any Contract.sol\":4228:4246  addr != address(0) */\n      0xffffffffffffffffffffffffffffffffffffffff\n      and\n      sub\n        /* \"application_contracts/Deploy Any Contract.sol\":4220:4264  require(addr != address(0), \"deploy failed\") */\n      tag_28\n      jumpi\n      mload(0x40)\n      0x08c379a000000000000000000000000000000000000000000000000000000000\n      dup2\n      mstore\n      0x04\n      add\n      tag_29\n      swap1\n      tag_30\n      jump\t// in\n    tag_29:\n      mload(0x40)\n      dup1\n      swap2\n      sub\n      swap1\n      revert\n    tag_28:\n        /* \"application_contracts/Deploy Any Contract.sol\":4282:4294  Deploy(addr) */\n      0x55ea6c6b31543d8e2ec6a72f71a79c0f4b72ed0d4757172b043d8f4f4cd84848\n        /* \"application_contracts/Deploy Any Contract.sol\":4289:4293  addr */\n      dup2\n        /* \"application_contracts/Deploy Any Contract.sol\":4282:4294  Deploy(addr) */\n      mload(0x40)\n      tag_31\n      swap2\n      swap1\n      tag_15\n      jump\t// in\n    tag_31:\n      mload(0x40)\n      dup1\n      swap2\n      sub\n      swap1\n      log1\n        /* \"application_contracts/Deploy Any Contract.sol\":3829:4302  function deploy(bytes memory _code) external payable returns (address addr) {... */\n      swap2\n      swap1\n      pop\n      jump\t// out\n        /* \"application_contracts/Deploy Any Contract.sol\":4528:4711  function execute(address _target, bytes memory _data) external payable {... */\n    tag_19:\n        /* \"application_contracts/Deploy Any Contract.sol\":4611:4623  bool success */\n      0x00\n        /* \"application_contracts/Deploy Any Contract.sol\":4629:4636  _target */\n      dup3\n        /* \"application_contracts/Deploy Any Contract.sol\":4629:4641  _target.call */\n      0xffffffffffffffffffffffffffffffffffffffff\n      and\n        /* \"application_contracts/Deploy Any Contract.sol\":4649:4658  msg.value */\n      callvalue\n        /* \"application_contracts/Deploy Any Contract.sol\":4660:4665  _data */\n      dup4\n        /* \"application_contracts/Deploy Any Contract.sol\":4629:4666  _target.call{value: msg.value}(_data) */\n      mload(0x40)\n      tag_33\n      swap2\n      swap1\n      tag_34\n      jump\t// in\n    tag_33:\n      0x00\n      mload(0x40)\n      dup1\n      dup4\n      sub\n      dup2\n      dup6\n      dup8\n      gas\n      call\n      swap3\n      pop\n      pop\n      pop\n      returndatasize\n      dup1\n      0x00\n      dup2\n      eq\n      tag_37\n      jumpi\n      mload(0x40)\n      swap2\n      pop\n      and(add(returndatasize, 0x3f), not(0x1f))\n      dup3\n      add\n      0x40\n      mstore\n      returndatasize\n      dup3\n      mstore\n      returndatasize\n      0x00\n      0x20\n      dup5\n      add\n      returndatacopy\n      jump(tag_36)\n    tag_37:\n      0x60\n      swap2\n      pop\n    tag_36:\n      pop\n        /* \"application_contracts/Deploy Any Contract.sol\":4610:4666  (bool success, ) = _target.call{value: msg.value}(_data) */\n      pop\n      swap1\n      pop\n        /* \"application_contracts/Deploy Any Contract.sol\":4685:4692  success */\n      dup1\n        /* \"application_contracts/Deploy Any Contract.sol\":4677:4703  require(success, \"failed\") */\n      tag_38\n      jumpi\n      mload(0x40)\n      0x08c379a000000000000000000000000000000000000000000000000000000000\n      dup2\n      mstore\n      0x04\n      add\n      tag_39\n      swap1\n      tag_40\n      jump\t// in\n    tag_39:\n      mload(0x40)\n      dup1\n      swap2\n      sub\n      swap1\n      revert\n    tag_38:\n        /* \"application_contracts/Deploy Any Contract.sol\":4599:4711  {... */\n      pop\n        /* \"application_contracts/Deploy Any Contract.sol\":4528:4711  function execute(address _target, bytes memory _data) external payable {... */\n      pop\n      pop\n      jump\t// out\n        /* \"application_contracts/Deploy Any Contract.sol\":4779:4911  function getSelector(string calldata _func) external pure returns (bytes4) {... */\n    tag_24:\n        /* \"application_contracts/Deploy Any Contract.sol\":4846:4852  bytes4 */\n      0x00\n        /* \"application_contracts/Deploy Any Contract.sol\":4895:4900  _func */\n      dup3\n      dup3\n        /* \"application_contracts/Deploy Any Contract.sol\":4879:4902  keccak256(bytes(_func)) */\n      mload(0x40)\n      tag_42\n      swap3\n      swap2\n      swap1\n      tag_43\n      jump\t// in\n    tag_42:\n      mload(0x40)\n      dup1\n      swap2\n      sub\n      swap1\n      keccak256\n        /* \"application_contracts/Deploy Any Contract.sol\":4865:4903  return bytes4(keccak256(bytes(_func))) */\n      swap1\n      pop\n        /* \"application_contracts/Deploy Any Contract.sol\":4779:4911  function getSelector(string calldata _func) external pure returns (bytes4) {... */\n      swap3\n      swap2\n      pop\n      pop\n      jump\t// out\n        /* \"#utility.yul\":7:82   */\n    tag_44:\n        /* \"#utility.yul\":40:46   */\n      0x00\n        /* \"#utility.yul\":73:75   */\n      0x40\n        /* \"#utility.yul\":67:76   */\n      mload\n        /* \"#utility.yul\":57:76   */\n      swap1\n      pop\n        /* \"#utility.yul\":7:82   */\n      swap1\n      jump\t// out\n        /* \"#utility.yul\":88:205   */\n    tag_45:\n        /* \"#utility.yul\":197:198   */\n      0x00\n        /* \"#utility.yul\":194:195   */\n      0x00\n        /* \"#utility.yul\":187:199   */\n      revert\n        /* \"#utility.yul\":211:328   */\n    tag_46:\n        /* \"#utility.yul\":320:321   */\n      0x00\n        /* \"#utility.yul\":317:318   */\n      0x00\n        /* \"#utility.yul\":310:322   */\n      revert\n        /* \"#utility.yul\":334:451   */\n    tag_47:\n        /* \"#utility.yul\":443:444   */\n      0x00\n        /* \"#utility.yul\":440:441   */\n      0x00\n        /* \"#utility.yul\":433:445   */\n      revert\n        /* \"#utility.yul\":457:574   */\n    tag_48:\n        /* \"#utility.yul\":566:567   */\n      0x00\n        /* \"#utility.yul\":563:564   */\n      0x00\n        /* \"#utility.yul\":556:568   */\n      revert\n        /* \"#utility.yul\":580:682   */\n    tag_49:\n        /* \"#utility.yul\":621:627   */\n      0x00\n        /* \"#utility.yul\":672:674   */\n      0x1f\n        /* \"#utility.yul\":668:675   */\n      not\n        /* \"#utility.yul\":663:665   */\n      0x1f\n        /* \"#utility.yul\":656:661   */\n      dup4\n        /* \"#utility.yul\":652:666   */\n      add\n        /* \"#utility.yul\":648:676   */\n      and\n        /* \"#utility.yul\":638:676   */\n      swap1\n      pop\n        /* \"#utility.yul\":580:682   */\n      swap2\n      swap1\n      pop\n      jump\t// out\n        /* \"#utility.yul\":688:868   */\n    tag_50:\n        /* \"#utility.yul\":736:813   */\n      0x4e487b7100000000000000000000000000000000000000000000000000000000\n        /* \"#utility.yul\":733:734   */\n      0x00\n        /* \"#utility.yul\":726:814   */\n      mstore\n        /* \"#utility.yul\":833:837   */\n      0x41\n        /* \"#utility.yul\":830:831   */\n      0x04\n        /* \"#utility.yul\":823:838   */\n      mstore\n        /* \"#utility.yul\":857:861   */\n      0x24\n        /* \"#utility.yul\":854:855   */\n      0x00\n        /* \"#utility.yul\":847:862   */\n      revert\n        /* \"#utility.yul\":874:1155   */\n    tag_51:\n        /* \"#utility.yul\":957:984   */\n      tag_86\n        /* \"#utility.yul\":979:983   */\n      dup3\n        /* \"#utility.yul\":957:984   */\n      tag_49\n      jump\t// in\n    tag_86:\n        /* \"#utility.yul\":949:955   */\n      dup2\n        /* \"#utility.yul\":945:985   */\n      add\n        /* \"#utility.yul\":1087:1093   */\n      dup2\n        /* \"#utility.yul\":1075:1085   */\n      dup2\n        /* \"#utility.yul\":1072:1094   */\n      lt\n        /* \"#utility.yul\":1051:1069   */\n      0xffffffffffffffff\n        /* \"#utility.yul\":1039:1049   */\n      dup3\n        /* \"#utility.yul\":1036:1070   */\n      gt\n        /* \"#utility.yul\":1033:1095   */\n      or\n        /* \"#utility.yul\":1030:1118   */\n      iszero\n      tag_87\n      jumpi\n        /* \"#utility.yul\":1098:1116   */\n      tag_88\n      tag_50\n      jump\t// in\n    tag_88:\n        /* \"#utility.yul\":1030:1118   */\n    tag_87:\n        /* \"#utility.yul\":1138:1148   */\n      dup1\n        /* \"#utility.yul\":1134:1136   */\n      0x40\n        /* \"#utility.yul\":1127:1149   */\n      mstore\n        /* \"#utility.yul\":917:1155   */\n      pop\n        /* \"#utility.yul\":874:1155   */\n      pop\n      pop\n      jump\t// out\n        /* \"#utility.yul\":1161:1290   */\n    tag_52:\n        /* \"#utility.yul\":1195:1201   */\n      0x00\n        /* \"#utility.yul\":1222:1242   */\n      tag_90\n      tag_44\n      jump\t// in\n    tag_90:\n        /* \"#utility.yul\":1212:1242   */\n      swap1\n      pop\n        /* \"#utility.yul\":1251:1284   */\n      tag_91\n        /* \"#utility.yul\":1279:1283   */\n      dup3\n        /* \"#utility.yul\":1271:1277   */\n      dup3\n        /* \"#utility.yul\":1251:1284   */\n      tag_51\n      jump\t// in\n    tag_91:\n        /* \"#utility.yul\":1161:1290   */\n      swap2\n      swap1\n      pop\n      jump\t// out\n        /* \"#utility.yul\":1296:1603   */\n    tag_53:\n        /* \"#utility.yul\":1357:1361   */\n      0x00\n        /* \"#utility.yul\":1447:1465   */\n      0xffffffffffffffff\n        /* \"#utility.yul\":1439:1445   */\n      dup3\n        /* \"#utility.yul\":1436:1466   */\n      gt\n        /* \"#utility.yul\":1433:1489   */\n      iszero\n      tag_93\n      jumpi\n        /* \"#utility.yul\":1469:1487   */\n      tag_94\n      tag_50\n      jump\t// in\n    tag_94:\n        /* \"#utility.yul\":1433:1489   */\n    tag_93:\n        /* \"#utility.yul\":1507:1536   */\n      tag_95\n        /* \"#utility.yul\":1529:1535   */\n      dup3\n        /* \"#utility.yul\":1507:1536   */\n      tag_49\n      jump\t// in\n    tag_95:\n        /* \"#utility.yul\":1499:1536   */\n      swap1\n      pop\n        /* \"#utility.yul\":1591:1595   */\n      0x20\n        /* \"#utility.yul\":1585:1589   */\n      dup2\n        /* \"#utility.yul\":1581:1596   */\n      add\n        /* \"#utility.yul\":1573:1596   */\n      swap1\n      pop\n        /* \"#utility.yul\":1296:1603   */\n      swap2\n      swap1\n      pop\n      jump\t// out\n        /* \"#utility.yul\":1609:1757   */\n    tag_54:\n        /* \"#utility.yul\":1707:1713   */\n      dup3\n        /* \"#utility.yul\":1702:1705   */\n      dup2\n        /* \"#utility.yul\":1697:1700   */\n      dup4\n        /* \"#utility.yul\":1684:1714   */\n      calldatacopy\n        /* \"#utility.yul\":1748:1749   */\n      0x00\n        /* \"#utility.yul\":1739:1745   */\n      dup4\n        /* \"#utility.yul\":1734:1737   */\n      dup4\n        /* \"#utility.yul\":1730:1746   */\n      add\n        /* \"#utility.yul\":1723:1750   */\n      mstore\n        /* \"#utility.yul\":1609:1757   */\n      pop\n      pop\n      pop\n      jump\t// out\n        /* \"#utility.yul\":1763:2186   */\n    tag_55:\n        /* \"#utility.yul\":1840:1845   */\n      0x00\n        /* \"#utility.yul\":1865:1930   */\n      tag_98\n        /* \"#utility.yul\":1881:1929   */\n      tag_99\n        /* \"#utility.yul\":1922:1928   */\n      dup5\n        /* \"#utility.yul\":1881:1929   */\n      tag_53\n      jump\t// in\n    tag_99:\n        /* \"#utility.yul\":1865:1930   */\n      tag_52\n      jump\t// in\n    tag_98:\n        /* \"#utility.yul\":1856:1930   */\n      swap1\n      pop\n        /* \"#utility.yul\":1953:1959   */\n      dup3\n        /* \"#utility.yul\":1946:1951   */\n      dup2\n        /* \"#utility.yul\":1939:1960   */\n      mstore\n        /* \"#utility.yul\":1991:1995   */\n      0x20\n        /* \"#utility.yul\":1984:1989   */\n      dup2\n        /* \"#utility.yul\":1980:1996   */\n      add\n        /* \"#utility.yul\":2029:2032   */\n      dup5\n        /* \"#utility.yul\":2020:2026   */\n      dup5\n        /* \"#utility.yul\":2015:2018   */\n      dup5\n        /* \"#utility.yul\":2011:2027   */\n      add\n        /* \"#utility.yul\":2008:2033   */\n      gt\n        /* \"#utility.yul\":2005:2117   */\n      iszero\n      tag_100\n      jumpi\n        /* \"#utility.yul\":2036:2115   */\n      tag_101\n      tag_48\n      jump\t// in\n    tag_101:\n        /* \"#utility.yul\":2005:2117   */\n    tag_100:\n        /* \"#utility.yul\":2126:2180   */\n      tag_102\n        /* \"#utility.yul\":2173:2179   */\n      dup5\n        /* \"#utility.yul\":2168:2171   */\n      dup3\n        /* \"#utility.yul\":2163:2166   */\n      dup6\n        /* \"#utility.yul\":2126:2180   */\n      tag_54\n      jump\t// in\n    tag_102:\n        /* \"#utility.yul\":1846:2186   */\n      pop\n        /* \"#utility.yul\":1763:2186   */\n      swap4\n      swap3\n      pop\n      pop\n      pop\n      jump\t// out\n        /* \"#utility.yul\":2205:2543   */\n    tag_56:\n        /* \"#utility.yul\":2260:2265   */\n      0x00\n        /* \"#utility.yul\":2309:2312   */\n      dup3\n        /* \"#utility.yul\":2302:2306   */\n      0x1f\n        /* \"#utility.yul\":2294:2300   */\n      dup4\n        /* \"#utility.yul\":2290:2307   */\n      add\n        /* \"#utility.yul\":2286:2313   */\n      slt\n        /* \"#utility.yul\":2276:2398   */\n      tag_104\n      jumpi\n        /* \"#utility.yul\":2317:2396   */\n      tag_105\n      tag_47\n      jump\t// in\n    tag_105:\n        /* \"#utility.yul\":2276:2398   */\n    tag_104:\n        /* \"#utility.yul\":2434:2440   */\n      dup2\n        /* \"#utility.yul\":2421:2441   */\n      calldataload\n        /* \"#utility.yul\":2459:2537   */\n      tag_106\n        /* \"#utility.yul\":2533:2536   */\n      dup5\n        /* \"#utility.yul\":2525:2531   */\n      dup3\n        /* \"#utility.yul\":2518:2522   */\n      0x20\n        /* \"#utility.yul\":2510:2516   */\n      dup7\n        /* \"#utility.yul\":2506:2523   */\n      add\n        /* \"#utility.yul\":2459:2537   */\n      tag_55\n      jump\t// in\n    tag_106:\n        /* \"#utility.yul\":2450:2537   */\n      swap2\n      pop\n        /* \"#utility.yul\":2266:2543   */\n      pop\n        /* \"#utility.yul\":2205:2543   */\n      swap3\n      swap2\n      pop\n      pop\n      jump\t// out\n        /* \"#utility.yul\":2549:3056   */\n    tag_12:\n        /* \"#utility.yul\":2617:2623   */\n      0x00\n        /* \"#utility.yul\":2666:2668   */\n      0x20\n        /* \"#utility.yul\":2654:2663   */\n      dup3\n        /* \"#utility.yul\":2645:2652   */\n      dup5\n        /* \"#utility.yul\":2641:2664   */\n      sub\n        /* \"#utility.yul\":2637:2669   */\n      slt\n        /* \"#utility.yul\":2634:2753   */\n      iszero\n      tag_108\n      jumpi\n        /* \"#utility.yul\":2672:2751   */\n      tag_109\n      tag_45\n      jump\t// in\n    tag_109:\n        /* \"#utility.yul\":2634:2753   */\n    tag_108:\n        /* \"#utility.yul\":2820:2821   */\n      0x00\n        /* \"#utility.yul\":2809:2818   */\n      dup3\n        /* \"#utility.yul\":2805:2822   */\n      add\n        /* \"#utility.yul\":2792:2823   */\n      calldataload\n        /* \"#utility.yul\":2850:2868   */\n      0xffffffffffffffff\n        /* \"#utility.yul\":2842:2848   */\n      dup2\n        /* \"#utility.yul\":2839:2869   */\n      gt\n        /* \"#utility.yul\":2836:2953   */\n      iszero\n      tag_110\n      jumpi\n        /* \"#utility.yul\":2872:2951   */\n      tag_111\n      tag_46\n      jump\t// in\n    tag_111:\n        /* \"#utility.yul\":2836:2953   */\n    tag_110:\n        /* \"#utility.yul\":2977:3039   */\n      tag_112\n        /* \"#utility.yul\":3031:3038   */\n      dup5\n        /* \"#utility.yul\":3022:3028   */\n      dup3\n        /* \"#utility.yul\":3011:3020   */\n      dup6\n        /* \"#utility.yul\":3007:3029   */\n      add\n        /* \"#utility.yul\":2977:3039   */\n      tag_56\n      jump\t// in\n    tag_112:\n        /* \"#utility.yul\":2967:3039   */\n      swap2\n      pop\n        /* \"#utility.yul\":2763:3049   */\n      pop\n        /* \"#utility.yul\":2549:3056   */\n      swap3\n      swap2\n      pop\n      pop\n      jump\t// out\n        /* \"#utility.yul\":3062:3188   */\n    tag_57:\n        /* \"#utility.yul\":3099:3106   */\n      0x00\n        /* \"#utility.yul\":3139:3181   */\n      0xffffffffffffffffffffffffffffffffffffffff\n        /* \"#utility.yul\":3132:3137   */\n      dup3\n        /* \"#utility.yul\":3128:3182   */\n      and\n        /* \"#utility.yul\":3117:3182   */\n      swap1\n      pop\n        /* \"#utility.yul\":3062:3188   */\n      swap2\n      swap1\n      pop\n      jump\t// out\n        /* \"#utility.yul\":3194:3290   */\n    tag_58:\n        /* \"#utility.yul\":3231:3238   */\n      0x00\n        /* \"#utility.yul\":3260:3284   */\n      tag_115\n        /* \"#utility.yul\":3278:3283   */\n      dup3\n        /* \"#utility.yul\":3260:3284   */\n      tag_57\n      jump\t// in\n    tag_115:\n        /* \"#utility.yul\":3249:3284   */\n      swap1\n      pop\n        /* \"#utility.yul\":3194:3290   */\n      swap2\n      swap1\n      pop\n      jump\t// out\n        /* \"#utility.yul\":3296:3414   */\n    tag_59:\n        /* \"#utility.yul\":3383:3407   */\n      tag_117\n        /* \"#utility.yul\":3401:3406   */\n      dup2\n        /* \"#utility.yul\":3383:3407   */\n      tag_58\n      jump\t// in\n    tag_117:\n        /* \"#utility.yul\":3378:3381   */\n      dup3\n        /* \"#utility.yul\":3371:3408   */\n      mstore\n        /* \"#utility.yul\":3296:3414   */\n      pop\n      pop\n      jump\t// out\n        /* \"#utility.yul\":3420:3642   */\n    tag_15:\n        /* \"#utility.yul\":3513:3517   */\n      0x00\n        /* \"#utility.yul\":3551:3553   */\n      0x20\n        /* \"#utility.yul\":3540:3549   */\n      dup3\n        /* \"#utility.yul\":3536:3554   */\n      add\n        /* \"#utility.yul\":3528:3554   */\n      swap1\n      pop\n        /* \"#utility.yul\":3564:3635   */\n      tag_119\n        /* \"#utility.yul\":3632:3633   */\n      0x00\n        /* \"#utility.yul\":3621:3630   */\n      dup4\n        /* \"#utility.yul\":3617:3634   */\n      add\n        /* \"#utility.yul\":3608:3614   */\n      dup5\n        /* \"#utility.yul\":3564:3635   */\n      tag_59\n      jump\t// in\n    tag_119:\n        /* \"#utility.yul\":3420:3642   */\n      swap3\n      swap2\n      pop\n      pop\n      jump\t// out\n        /* \"#utility.yul\":3648:3770   */\n    tag_60:\n        /* \"#utility.yul\":3721:3745   */\n      tag_121\n        /* \"#utility.yul\":3739:3744   */\n      dup2\n        /* \"#utility.yul\":3721:3745   */\n      tag_58\n      jump\t// in\n    tag_121:\n        /* \"#utility.yul\":3714:3719   */\n      dup2\n        /* \"#utility.yul\":3711:3746   */\n      eq\n        /* \"#utility.yul\":3701:3764   */\n      tag_122\n      jumpi\n        /* \"#utility.yul\":3760:3761   */\n      0x00\n        /* \"#utility.yul\":3757:3758   */\n      0x00\n        /* \"#utility.yul\":3750:3762   */\n      revert\n        /* \"#utility.yul\":3701:3764   */\n    tag_122:\n        /* \"#utility.yul\":3648:3770   */\n      pop\n      jump\t// out\n        /* \"#utility.yul\":3776:3915   */\n    tag_61:\n        /* \"#utility.yul\":3822:3827   */\n      0x00\n        /* \"#utility.yul\":3860:3866   */\n      dup2\n        /* \"#utility.yul\":3847:3867   */\n      calldataload\n        /* \"#utility.yul\":3838:3867   */\n      swap1\n      pop\n        /* \"#utility.yul\":3876:3909   */\n      tag_124\n        /* \"#utility.yul\":3903:3908   */\n      dup2\n        /* \"#utility.yul\":3876:3909   */\n      tag_60\n      jump\t// in\n    tag_124:\n        /* \"#utility.yul\":3776:3915   */\n      swap3\n      swap2\n      pop\n      pop\n      jump\t// out\n        /* \"#utility.yul\":3921:4573   */\n    tag_18:\n        /* \"#utility.yul\":3998:4004   */\n      0x00\n        /* \"#utility.yul\":4006:4012   */\n      0x00\n        /* \"#utility.yul\":4055:4057   */\n      0x40\n        /* \"#utility.yul\":4043:4052   */\n      dup4\n        /* \"#utility.yul\":4034:4041   */\n      dup6\n        /* \"#utility.yul\":4030:4053   */\n      sub\n        /* \"#utility.yul\":4026:4058   */\n      slt\n        /* \"#utility.yul\":4023:4142   */\n      iszero\n      tag_126\n      jumpi\n        /* \"#utility.yul\":4061:4140   */\n      tag_127\n      tag_45\n      jump\t// in\n    tag_127:\n        /* \"#utility.yul\":4023:4142   */\n    tag_126:\n        /* \"#utility.yul\":4181:4182   */\n      0x00\n        /* \"#utility.yul\":4206:4259   */\n      tag_128\n        /* \"#utility.yul\":4251:4258   */\n      dup6\n        /* \"#utility.yul\":4242:4248   */\n      dup3\n        /* \"#utility.yul\":4231:4240   */\n      dup7\n        /* \"#utility.yul\":4227:4249   */\n      add\n        /* \"#utility.yul\":4206:4259   */\n      tag_61\n      jump\t// in\n    tag_128:\n        /* \"#utility.yul\":4196:4259   */\n      swap3\n      pop\n        /* \"#utility.yul\":4152:4269   */\n      pop\n        /* \"#utility.yul\":4336:4338   */\n      0x20\n        /* \"#utility.yul\":4325:4334   */\n      dup4\n        /* \"#utility.yul\":4321:4339   */\n      add\n        /* \"#utility.yul\":4308:4340   */\n      calldataload\n        /* \"#utility.yul\":4367:4385   */\n      0xffffffffffffffff\n        /* \"#utility.yul\":4359:4365   */\n      dup2\n        /* \"#utility.yul\":4356:4386   */\n      gt\n        /* \"#utility.yul\":4353:4470   */\n      iszero\n      tag_129\n      jumpi\n        /* \"#utility.yul\":4389:4468   */\n      tag_130\n      tag_46\n      jump\t// in\n    tag_130:\n        /* \"#utility.yul\":4353:4470   */\n    tag_129:\n        /* \"#utility.yul\":4494:4556   */\n      tag_131\n        /* \"#utility.yul\":4548:4555   */\n      dup6\n        /* \"#utility.yul\":4539:4545   */\n      dup3\n        /* \"#utility.yul\":4528:4537   */\n      dup7\n        /* \"#utility.yul\":4524:4546   */\n      add\n        /* \"#utility.yul\":4494:4556   */\n      tag_56\n      jump\t// in\n    tag_131:\n        /* \"#utility.yul\":4484:4556   */\n      swap2\n      pop\n        /* \"#utility.yul\":4279:4566   */\n      pop\n        /* \"#utility.yul\":3921:4573   */\n      swap3\n      pop\n      swap3\n      swap1\n      pop\n      jump\t// out\n        /* \"#utility.yul\":4579:4696   */\n    tag_62:\n        /* \"#utility.yul\":4688:4689   */\n      0x00\n        /* \"#utility.yul\":4685:4686   */\n      0x00\n        /* \"#utility.yul\":4678:4690   */\n      revert\n        /* \"#utility.yul\":4702:4819   */\n    tag_63:\n        /* \"#utility.yul\":4811:4812   */\n      0x00\n        /* \"#utility.yul\":4808:4809   */\n      0x00\n        /* \"#utility.yul\":4801:4813   */\n      revert\n        /* \"#utility.yul\":4839:5392   */\n    tag_64:\n        /* \"#utility.yul\":4897:4905   */\n      0x00\n        /* \"#utility.yul\":4907:4913   */\n      0x00\n        /* \"#utility.yul\":4957:4960   */\n      dup4\n        /* \"#utility.yul\":4950:4954   */\n      0x1f\n        /* \"#utility.yul\":4942:4948   */\n      dup5\n        /* \"#utility.yul\":4938:4955   */\n      add\n        /* \"#utility.yul\":4934:4961   */\n      slt\n        /* \"#utility.yul\":4924:5046   */\n      tag_135\n      jumpi\n        /* \"#utility.yul\":4965:5044   */\n      tag_136\n      tag_47\n      jump\t// in\n    tag_136:\n        /* \"#utility.yul\":4924:5046   */\n    tag_135:\n        /* \"#utility.yul\":5078:5084   */\n      dup3\n        /* \"#utility.yul\":5065:5085   */\n      calldataload\n        /* \"#utility.yul\":5055:5085   */\n      swap1\n      pop\n        /* \"#utility.yul\":5108:5126   */\n      0xffffffffffffffff\n        /* \"#utility.yul\":5100:5106   */\n      dup2\n        /* \"#utility.yul\":5097:5127   */\n      gt\n        /* \"#utility.yul\":5094:5211   */\n      iszero\n      tag_137\n      jumpi\n        /* \"#utility.yul\":5130:5209   */\n      tag_138\n      tag_62\n      jump\t// in\n    tag_138:\n        /* \"#utility.yul\":5094:5211   */\n    tag_137:\n        /* \"#utility.yul\":5244:5248   */\n      0x20\n        /* \"#utility.yul\":5236:5242   */\n      dup4\n        /* \"#utility.yul\":5232:5249   */\n      add\n        /* \"#utility.yul\":5220:5249   */\n      swap2\n      pop\n        /* \"#utility.yul\":5298:5301   */\n      dup4\n        /* \"#utility.yul\":5290:5294   */\n      0x01\n        /* \"#utility.yul\":5282:5288   */\n      dup3\n        /* \"#utility.yul\":5278:5295   */\n      mul\n        /* \"#utility.yul\":5268:5276   */\n      dup4\n        /* \"#utility.yul\":5264:5296   */\n      add\n        /* \"#utility.yul\":5261:5302   */\n      gt\n        /* \"#utility.yul\":5258:5386   */\n      iszero\n      tag_139\n      jumpi\n        /* \"#utility.yul\":5305:5384   */\n      tag_140\n      tag_63\n      jump\t// in\n    tag_140:\n        /* \"#utility.yul\":5258:5386   */\n    tag_139:\n        /* \"#utility.yul\":4839:5392   */\n      swap3\n      pop\n      swap3\n      swap1\n      pop\n      jump\t// out\n        /* \"#utility.yul\":5398:5927   */\n    tag_23:\n        /* \"#utility.yul\":5469:5475   */\n      0x00\n        /* \"#utility.yul\":5477:5483   */\n      0x00\n        /* \"#utility.yul\":5526:5528   */\n      0x20\n        /* \"#utility.yul\":5514:5523   */\n      dup4\n        /* \"#utility.yul\":5505:5512   */\n      dup6\n        /* \"#utility.yul\":5501:5524   */\n      sub\n        /* \"#utility.yul\":5497:5529   */\n      slt\n        /* \"#utility.yul\":5494:5613   */\n      iszero\n      tag_142\n      jumpi\n        /* \"#utility.yul\":5532:5611   */\n      tag_143\n      tag_45\n      jump\t// in\n    tag_143:\n        /* \"#utility.yul\":5494:5613   */\n    tag_142:\n        /* \"#utility.yul\":5680:5681   */\n      0x00\n        /* \"#utility.yul\":5669:5678   */\n      dup4\n        /* \"#utility.yul\":5665:5682   */\n      add\n        /* \"#utility.yul\":5652:5683   */\n      calldataload\n        /* \"#utility.yul\":5710:5728   */\n      0xffffffffffffffff\n        /* \"#utility.yul\":5702:5708   */\n      dup2\n        /* \"#utility.yul\":5699:5729   */\n      gt\n        /* \"#utility.yul\":5696:5813   */\n      iszero\n      tag_144\n      jumpi\n        /* \"#utility.yul\":5732:5811   */\n      tag_145\n      tag_46\n      jump\t// in\n    tag_145:\n        /* \"#utility.yul\":5696:5813   */\n    tag_144:\n        /* \"#utility.yul\":5845:5910   */\n      tag_146\n        /* \"#utility.yul\":5902:5909   */\n      dup6\n        /* \"#utility.yul\":5893:5899   */\n      dup3\n        /* \"#utility.yul\":5882:5891   */\n      dup7\n        /* \"#utility.yul\":5878:5900   */\n      add\n        /* \"#utility.yul\":5845:5910   */\n      tag_64\n      jump\t// in\n    tag_146:\n        /* \"#utility.yul\":5827:5910   */\n      swap3\n      pop\n      swap3\n      pop\n        /* \"#utility.yul\":5623:5920   */\n      pop\n        /* \"#utility.yul\":5398:5927   */\n      swap3\n      pop\n      swap3\n      swap1\n      pop\n      jump\t// out\n        /* \"#utility.yul\":5933:6082   */\n    tag_65:\n        /* \"#utility.yul\":5969:5976   */\n      0x00\n        /* \"#utility.yul\":6009:6075   */\n      0xffffffff00000000000000000000000000000000000000000000000000000000\n        /* \"#utility.yul\":6002:6007   */\n      dup3\n        /* \"#utility.yul\":5998:6076   */\n      and\n        /* \"#utility.yul\":5987:6076   */\n      swap1\n      pop\n        /* \"#utility.yul\":5933:6082   */\n      swap2\n      swap1\n      pop\n      jump\t// out\n        /* \"#utility.yul\":6088:6203   */\n    tag_66:\n        /* \"#utility.yul\":6173:6196   */\n      tag_149\n        /* \"#utility.yul\":6190:6195   */\n      dup2\n        /* \"#utility.yul\":6173:6196   */\n      tag_65\n      jump\t// in\n    tag_149:\n        /* \"#utility.yul\":6168:6171   */\n      dup3\n        /* \"#utility.yul\":6161:6197   */\n      mstore\n        /* \"#utility.yul\":6088:6203   */\n      pop\n      pop\n      jump\t// out\n        /* \"#utility.yul\":6209:6427   */\n    tag_26:\n        /* \"#utility.yul\":6300:6304   */\n      0x00\n        /* \"#utility.yul\":6338:6340   */\n      0x20\n        /* \"#utility.yul\":6327:6336   */\n      dup3\n        /* \"#utility.yul\":6323:6341   */\n      add\n        /* \"#utility.yul\":6315:6341   */\n      swap1\n      pop\n        /* \"#utility.yul\":6351:6420   */\n      tag_151\n        /* \"#utility.yul\":6417:6418   */\n      0x00\n        /* \"#utility.yul\":6406:6415   */\n      dup4\n        /* \"#utility.yul\":6402:6419   */\n      add\n        /* \"#utility.yul\":6393:6399   */\n      dup5\n        /* \"#utility.yul\":6351:6420   */\n      tag_66\n      jump\t// in\n    tag_151:\n        /* \"#utility.yul\":6209:6427   */\n      swap3\n      swap2\n      pop\n      pop\n      jump\t// out\n        /* \"#utility.yul\":6433:6602   */\n    tag_67:\n        /* \"#utility.yul\":6517:6528   */\n      0x00\n        /* \"#utility.yul\":6551:6557   */\n      dup3\n        /* \"#utility.yul\":6546:6549   */\n      dup3\n        /* \"#utility.yul\":6539:6558   */\n      mstore\n        /* \"#utility.yul\":6591:6595   */\n      0x20\n        /* \"#utility.yul\":6586:6589   */\n      dup3\n        /* \"#utility.yul\":6582:6596   */\n      add\n        /* \"#utility.yul\":6567:6596   */\n      swap1\n      pop\n        /* \"#utility.yul\":6433:6602   */\n      swap3\n      swap2\n      pop\n      pop\n      jump\t// out\n        /* \"#utility.yul\":6608:6771   */\n    tag_68:\n        /* \"#utility.yul\":6748:6763   */\n      0x6465706c6f79206661696c656400000000000000000000000000000000000000\n        /* \"#utility.yul\":6744:6745   */\n      0x00\n        /* \"#utility.yul\":6736:6742   */\n      dup3\n        /* \"#utility.yul\":6732:6746   */\n      add\n        /* \"#utility.yul\":6725:6764   */\n      mstore\n        /* \"#utility.yul\":6608:6771   */\n      pop\n      jump\t// out\n        /* \"#utility.yul\":6777:7143   */\n    tag_69:\n        /* \"#utility.yul\":6919:6922   */\n      0x00\n        /* \"#utility.yul\":6940:7007   */\n      tag_155\n        /* \"#utility.yul\":7004:7006   */\n      0x0d\n        /* \"#utility.yul\":6999:7002   */\n      dup4\n        /* \"#utility.yul\":6940:7007   */\n      tag_67\n      jump\t// in\n    tag_155:\n        /* \"#utility.yul\":6933:7007   */\n      swap2\n      pop\n        /* \"#utility.yul\":7016:7109   */\n      tag_156\n        /* \"#utility.yul\":7105:7108   */\n      dup3\n        /* \"#utility.yul\":7016:7109   */\n      tag_68\n      jump\t// in\n    tag_156:\n        /* \"#utility.yul\":7134:7136   */\n      0x20\n        /* \"#utility.yul\":7129:7132   */\n      dup3\n        /* \"#utility.yul\":7125:7137   */\n      add\n        /* \"#utility.yul\":7118:7137   */\n      swap1\n      pop\n        /* \"#utility.yul\":6777:7143   */\n      swap2\n      swap1\n      pop\n      jump\t// out\n        /* \"#utility.yul\":7149:7568   */\n    tag_30:\n        /* \"#utility.yul\":7315:7319   */\n      0x00\n        /* \"#utility.yul\":7353:7355   */\n      0x20\n        /* \"#utility.yul\":7342:7351   */\n      dup3\n        /* \"#utility.yul\":7338:7356   */\n      add\n        /* \"#utility.yul\":7330:7356   */\n      swap1\n      pop\n        /* \"#utility.yul\":7402:7411   */\n      dup2\n        /* \"#utility.yul\":7396:7400   */\n      dup2\n        /* \"#utility.yul\":7392:7412   */\n      sub\n        /* \"#utility.yul\":7388:7389   */\n      0x00\n        /* \"#utility.yul\":7377:7386   */\n      dup4\n        /* \"#utility.yul\":7373:7390   */\n      add\n        /* \"#utility.yul\":7366:7413   */\n      mstore\n        /* \"#utility.yul\":7430:7561   */\n      tag_158\n        /* \"#utility.yul\":7556:7560   */\n      dup2\n        /* \"#utility.yul\":7430:7561   */\n      tag_69\n      jump\t// in\n    tag_158:\n        /* \"#utility.yul\":7422:7561   */\n      swap1\n      pop\n        /* \"#utility.yul\":7149:7568   */\n      swap2\n      swap1\n      pop\n      jump\t// out\n        /* \"#utility.yul\":7574:7672   */\n    tag_70:\n        /* \"#utility.yul\":7625:7631   */\n      0x00\n        /* \"#utility.yul\":7659:7664   */\n      dup2\n        /* \"#utility.yul\":7653:7665   */\n      mload\n        /* \"#utility.yul\":7643:7665   */\n      swap1\n      pop\n        /* \"#utility.yul\":7574:7672   */\n      swap2\n      swap1\n      pop\n      jump\t// out\n        /* \"#utility.yul\":7678:7825   */\n    tag_71:\n        /* \"#utility.yul\":7779:7790   */\n      0x00\n        /* \"#utility.yul\":7816:7819   */\n      dup2\n        /* \"#utility.yul\":7801:7819   */\n      swap1\n      pop\n        /* \"#utility.yul\":7678:7825   */\n      swap3\n      swap2\n      pop\n      pop\n      jump\t// out\n        /* \"#utility.yul\":7831:7970   */\n    tag_72:\n        /* \"#utility.yul\":7920:7926   */\n      dup3\n        /* \"#utility.yul\":7915:7918   */\n      dup2\n        /* \"#utility.yul\":7910:7913   */\n      dup4\n        /* \"#utility.yul\":7904:7927   */\n      mcopy\n        /* \"#utility.yul\":7961:7962   */\n      0x00\n        /* \"#utility.yul\":7952:7958   */\n      dup4\n        /* \"#utility.yul\":7947:7950   */\n      dup4\n        /* \"#utility.yul\":7943:7959   */\n      add\n        /* \"#utility.yul\":7936:7963   */\n      mstore\n        /* \"#utility.yul\":7831:7970   */\n      pop\n      pop\n      pop\n      jump\t// out\n        /* \"#utility.yul\":7976:8362   */\n    tag_73:\n        /* \"#utility.yul\":8080:8083   */\n      0x00\n        /* \"#utility.yul\":8108:8146   */\n      tag_163\n        /* \"#utility.yul\":8140:8145   */\n      dup3\n        /* \"#utility.yul\":8108:8146   */\n      tag_70\n      jump\t// in\n    tag_163:\n        /* \"#utility.yul\":8162:8250   */\n      tag_164\n        /* \"#utility.yul\":8243:8249   */\n      dup2\n        /* \"#utility.yul\":8238:8241   */\n      dup6\n        /* \"#utility.yul\":8162:8250   */\n      tag_71\n      jump\t// in\n    tag_164:\n        /* \"#utility.yul\":8155:8250   */\n      swap4\n      pop\n        /* \"#utility.yul\":8259:8324   */\n      tag_165\n        /* \"#utility.yul\":8317:8323   */\n      dup2\n        /* \"#utility.yul\":8312:8315   */\n      dup6\n        /* \"#utility.yul\":8305:8309   */\n      0x20\n        /* \"#utility.yul\":8298:8303   */\n      dup7\n        /* \"#utility.yul\":8294:8310   */\n      add\n        /* \"#utility.yul\":8259:8324   */\n      tag_72\n      jump\t// in\n    tag_165:\n        /* \"#utility.yul\":8349:8355   */\n      dup1\n        /* \"#utility.yul\":8344:8347   */\n      dup5\n        /* \"#utility.yul\":8340:8356   */\n      add\n        /* \"#utility.yul\":8333:8356   */\n      swap2\n      pop\n        /* \"#utility.yul\":8084:8362   */\n      pop\n        /* \"#utility.yul\":7976:8362   */\n      swap3\n      swap2\n      pop\n      pop\n      jump\t// out\n        /* \"#utility.yul\":8368:8639   */\n    tag_34:\n        /* \"#utility.yul\":8498:8501   */\n      0x00\n        /* \"#utility.yul\":8520:8613   */\n      tag_167\n        /* \"#utility.yul\":8609:8612   */\n      dup3\n        /* \"#utility.yul\":8600:8606   */\n      dup5\n        /* \"#utility.yul\":8520:8613   */\n      tag_73\n      jump\t// in\n    tag_167:\n        /* \"#utility.yul\":8513:8613   */\n      swap2\n      pop\n        /* \"#utility.yul\":8630:8633   */\n      dup2\n        /* \"#utility.yul\":8623:8633   */\n      swap1\n      pop\n        /* \"#utility.yul\":8368:8639   */\n      swap3\n      swap2\n      pop\n      pop\n      jump\t// out\n        /* \"#utility.yul\":8645:8801   */\n    tag_74:\n        /* \"#utility.yul\":8785:8793   */\n      0x6661696c65640000000000000000000000000000000000000000000000000000\n        /* \"#utility.yul\":8781:8782   */\n      0x00\n        /* \"#utility.yul\":8773:8779   */\n      dup3\n        /* \"#utility.yul\":8769:8783   */\n      add\n        /* \"#utility.yul\":8762:8794   */\n      mstore\n        /* \"#utility.yul\":8645:8801   */\n      pop\n      jump\t// out\n        /* \"#utility.yul\":8807:9172   */\n    tag_75:\n        /* \"#utility.yul\":8949:8952   */\n      0x00\n        /* \"#utility.yul\":8970:9036   */\n      tag_170\n        /* \"#utility.yul\":9034:9035   */\n      0x06\n        /* \"#utility.yul\":9029:9032   */\n      dup4\n        /* \"#utility.yul\":8970:9036   */\n      tag_67\n      jump\t// in\n    tag_170:\n        /* \"#utility.yul\":8963:9036   */\n      swap2\n      pop\n        /* \"#utility.yul\":9045:9138   */\n      tag_171\n        /* \"#utility.yul\":9134:9137   */\n      dup3\n        /* \"#utility.yul\":9045:9138   */\n      tag_74\n      jump\t// in\n    tag_171:\n        /* \"#utility.yul\":9163:9165   */\n      0x20\n        /* \"#utility.yul\":9158:9161   */\n      dup3\n        /* \"#utility.yul\":9154:9166   */\n      add\n        /* \"#utility.yul\":9147:9166   */\n      swap1\n      pop\n        /* \"#utility.yul\":8807:9172   */\n      swap2\n      swap1\n      pop\n      jump\t// out\n        /* \"#utility.yul\":9178:9597   */\n    tag_40:\n        /* \"#utility.yul\":9344:9348   */\n      0x00\n        /* \"#utility.yul\":9382:9384   */\n      0x20\n        /* \"#utility.yul\":9371:9380   */\n      dup3\n        /* \"#utility.yul\":9367:9385   */\n      add\n        /* \"#utility.yul\":9359:9385   */\n      swap1\n      pop\n        /* \"#utility.yul\":9431:9440   */\n      dup2\n        /* \"#utility.yul\":9425:9429   */\n      dup2\n        /* \"#utility.yul\":9421:9441   */\n      sub\n        /* \"#utility.yul\":9417:9418   */\n      0x00\n        /* \"#utility.yul\":9406:9415   */\n      dup4\n        /* \"#utility.yul\":9402:9419   */\n      add\n        /* \"#utility.yul\":9395:9442   */\n      mstore\n        /* \"#utility.yul\":9459:9590   */\n      tag_173\n        /* \"#utility.yul\":9585:9589   */\n      dup2\n        /* \"#utility.yul\":9459:9590   */\n      tag_75\n      jump\t// in\n    tag_173:\n        /* \"#utility.yul\":9451:9590   */\n      swap1\n      pop\n        /* \"#utility.yul\":9178:9597   */\n      swap2\n      swap1\n      pop\n      jump\t// out\n        /* \"#utility.yul\":9625:9952   */\n    tag_76:\n        /* \"#utility.yul\":9739:9742   */\n      0x00\n        /* \"#utility.yul\":9760:9848   */\n      tag_175\n        /* \"#utility.yul\":9841:9847   */\n      dup4\n        /* \"#utility.yul\":9836:9839   */\n      dup6\n        /* \"#utility.yul\":9760:9848   */\n      tag_71\n      jump\t// in\n    tag_175:\n        /* \"#utility.yul\":9753:9848   */\n      swap4\n      pop\n        /* \"#utility.yul\":9858:9914   */\n      tag_176\n        /* \"#utility.yul\":9907:9913   */\n      dup4\n        /* \"#utility.yul\":9902:9905   */\n      dup6\n        /* \"#utility.yul\":9895:9900   */\n      dup5\n        /* \"#utility.yul\":9858:9914   */\n      tag_54\n      jump\t// in\n    tag_176:\n        /* \"#utility.yul\":9939:9945   */\n      dup3\n        /* \"#utility.yul\":9934:9937   */\n      dup5\n        /* \"#utility.yul\":9930:9946   */\n      add\n        /* \"#utility.yul\":9923:9946   */\n      swap1\n      pop\n        /* \"#utility.yul\":9625:9952   */\n      swap4\n      swap3\n      pop\n      pop\n      pop\n      jump\t// out\n        /* \"#utility.yul\":9958:10249   */\n    tag_43:\n        /* \"#utility.yul\":10098:10101   */\n      0x00\n        /* \"#utility.yul\":10120:10223   */\n      tag_178\n        /* \"#utility.yul\":10219:10222   */\n      dup3\n        /* \"#utility.yul\":10210:10216   */\n      dup5\n        /* \"#utility.yul\":10202:10208   */\n      dup7\n        /* \"#utility.yul\":10120:10223   */\n      tag_76\n      jump\t// in\n    tag_178:\n        /* \"#utility.yul\":10113:10223   */\n      swap2\n      pop\n        /* \"#utility.yul\":10240:10243   */\n      dup2\n        /* \"#utility.yul\":10233:10243   */\n      swap1\n      pop\n        /* \"#utility.yul\":9958:10249   */\n      swap4\n      swap3\n      pop\n      pop\n      pop\n      jump\t// out\n\n    auxdata: 0xa2646970667358221220b05ca93884aad149d9b23392c67dcfa6a671b901409f3f8858ef55b8e78e09e564736f6c634300081e0033\n}\n",
				"bytecode": {
					"linkReferences": {},
					"object": "6080604052348015600e575f5ffd5b5061076b8061001c5f395ff3fe608060405260043610610036575f3560e01c8062774360146100395780631cff79cd1461006957806380a003ff1461008557610037565b5b005b610053600480360381019061004e9190610393565b6100c1565b6040516100609190610419565b60405180910390f35b610083600480360381019061007e919061045c565b610176565b005b348015610090575f5ffd5b506100ab60048036038101906100a69190610513565b610225565b6040516100b89190610598565b60405180910390f35b5f81516020830134f090505f73ffffffffffffffffffffffffffffffffffffffff168173ffffffffffffffffffffffffffffffffffffffff160361013a576040517f08c379a00000000000000000000000000000000000000000000000000000000081526004016101319061060b565b60405180910390fd5b7f55ea6c6b31543d8e2ec6a72f71a79c0f4b72ed0d4757172b043d8f4f4cd84848816040516101699190610419565b60405180910390a1919050565b5f8273ffffffffffffffffffffffffffffffffffffffff16348360405161019d919061067b565b5f6040518083038185875af1925050503d805f81146101d7576040519150601f19603f3d011682016040523d82523d5f602084013e6101dc565b606091505b5050905080610220576040517f08c379a0000000000000000000000000000000000000000000000000000000008152600401610217906106db565b60405180910390fd5b505050565b5f828260405161023692919061071d565b6040518091039020905092915050565b5f604051905090565b5f5ffd5b5f5ffd5b5f5ffd5b5f5ffd5b5f601f19601f8301169050919050565b7f4e487b71000000000000000000000000000000000000000000000000000000005f52604160045260245ffd5b6102a58261025f565b810181811067ffffffffffffffff821117156102c4576102c361026f565b5b80604052505050565b5f6102d6610246565b90506102e2828261029c565b919050565b5f67ffffffffffffffff8211156103015761030061026f565b5b61030a8261025f565b9050602081019050919050565b828183375f83830152505050565b5f610337610332846102e7565b6102cd565b9050828152602081018484840111156103535761035261025b565b5b61035e848285610317565b509392505050565b5f82601f83011261037a57610379610257565b5b813561038a848260208601610325565b91505092915050565b5f602082840312156103a8576103a761024f565b5b5f82013567ffffffffffffffff8111156103c5576103c4610253565b5b6103d184828501610366565b91505092915050565b5f73ffffffffffffffffffffffffffffffffffffffff82169050919050565b5f610403826103da565b9050919050565b610413816103f9565b82525050565b5f60208201905061042c5f83018461040a565b92915050565b61043b816103f9565b8114610445575f5ffd5b50565b5f8135905061045681610432565b92915050565b5f5f604083850312156104725761047161024f565b5b5f61047f85828601610448565b925050602083013567ffffffffffffffff8111156104a05761049f610253565b5b6104ac85828601610366565b9150509250929050565b5f5ffd5b5f5ffd5b5f5f83601f8401126104d3576104d2610257565b5b8235905067ffffffffffffffff8111156104f0576104ef6104b6565b5b60208301915083600182028301111561050c5761050b6104ba565b5b9250929050565b5f5f602083850312156105295761052861024f565b5b5f83013567ffffffffffffffff81111561054657610545610253565b5b610552858286016104be565b92509250509250929050565b5f7fffffffff0000000000000000000000000000000000000000000000000000000082169050919050565b6105928161055e565b82525050565b5f6020820190506105ab5f830184610589565b92915050565b5f82825260208201905092915050565b7f6465706c6f79206661696c6564000000000000000000000000000000000000005f82015250565b5f6105f5600d836105b1565b9150610600826105c1565b602082019050919050565b5f6020820190508181035f830152610622816105e9565b9050919050565b5f81519050919050565b5f81905092915050565b8281835e5f83830152505050565b5f61065582610629565b61065f8185610633565b935061066f81856020860161063d565b80840191505092915050565b5f610686828461064b565b915081905092915050565b7f6661696c656400000000000000000000000000000000000000000000000000005f82015250565b5f6106c56006836105b1565b91506106d082610691565b602082019050919050565b5f6020820190508181035f8301526106f2816106b9565b9050919050565b5f6107048385610633565b9350610711838584610317565b82840190509392505050565b5f6107298284866106f9565b9150819050939250505056fea2646970667358221220b05ca93884aad149d9b23392c67dcfa6a671b901409f3f8858ef55b8e78e09e564736f6c634300081e0033",
					"opcodes": "PUSH1 0x80 PUSH1 0x40 MSTORE CALLVALUE DUP1 ISZERO PUSH1 0xE JUMPI PUSH0 PUSH0 REVERT JUMPDEST POP PUSH2 0x76B DUP1 PUSH2 0x1C PUSH0 CODECOPY PUSH0 RETURN INVALID PUSH1 0x80 PUSH1 0x40 MSTORE PUSH1 0x4 CALLDATASIZE LT PUSH2 0x36 JUMPI PUSH0 CALLDATALOAD PUSH1 0xE0 SHR DUP1 PUSH3 0x774360 EQ PUSH2 0x39 JUMPI DUP1 PUSH4 0x1CFF79CD EQ PUSH2 0x69 JUMPI DUP1 PUSH4 0x80A003FF EQ PUSH2 0x85 JUMPI PUSH2 0x37 JUMP JUMPDEST JUMPDEST STOP JUMPDEST PUSH2 0x53 PUSH1 0x4 DUP1 CALLDATASIZE SUB DUP2 ADD SWAP1 PUSH2 0x4E SWAP2 SWAP1 PUSH2 0x393 JUMP JUMPDEST PUSH2 0xC1 JUMP JUMPDEST PUSH1 0x40 MLOAD PUSH2 0x60 SWAP2 SWAP1 PUSH2 0x419 JUMP JUMPDEST PUSH1 0x40 MLOAD DUP1 SWAP2 SUB SWAP1 RETURN JUMPDEST PUSH2 0x83 PUSH1 0x4 DUP1 CALLDATASIZE SUB DUP2 ADD SWAP1 PUSH2 0x7E SWAP2 SWAP1 PUSH2 0x45C JUMP JUMPDEST PUSH2 0x176 JUMP JUMPDEST STOP JUMPDEST CALLVALUE DUP1 ISZERO PUSH2 0x90 JUMPI PUSH0 PUSH0 REVERT JUMPDEST POP PUSH2 0xAB PUSH1 0x4 DUP1 CALLDATASIZE SUB DUP2 ADD SWAP1 PUSH2 0xA6 SWAP2 SWAP1 PUSH2 0x513 JUMP JUMPDEST PUSH2 0x225 JUMP JUMPDEST PUSH1 0x40 MLOAD PUSH2 0xB8 SWAP2 SWAP1 PUSH2 0x598 JUMP JUMPDEST PUSH1 0x40 MLOAD DUP1 SWAP2 SUB SWAP1 RETURN JUMPDEST PUSH0 DUP2 MLOAD PUSH1 0x20 DUP4 ADD CALLVALUE CREATE SWAP1 POP PUSH0 PUSH20 0xFFFFFFFFFFFFFFFFFFFFFFFFFFFFFFFFFFFFFFFF AND DUP2 PUSH20 0xFFFFFFFFFFFFFFFFFFFFFFFFFFFFFFFFFFFFFFFF AND SUB PUSH2 0x13A JUMPI PUSH1 0x40 MLOAD PUSH32 0x8C379A000000000000000000000000000000000000000000000000000000000 DUP2 MSTORE PUSH1 0x4 ADD PUSH2 0x131 SWAP1 PUSH2 0x60B JUMP JUMPDEST PUSH1 0x40 MLOAD DUP1 SWAP2 SUB SWAP1 REVERT JUMPDEST PUSH32 0x55EA6C6B31543D8E2EC6A72F71A79C0F4B72ED0D4757172B043D8F4F4CD84848 DUP2 PUSH1 0x40 MLOAD PUSH2 0x169 SWAP2 SWAP1 PUSH2 0x419 JUMP JUMPDEST PUSH1 0x40 MLOAD DUP1 SWAP2 SUB SWAP1 LOG1 SWAP2 SWAP1 POP JUMP JUMPDEST PUSH0 DUP3 PUSH20 0xFFFFFFFFFFFFFFFFFFFFFFFFFFFFFFFFFFFFFFFF AND CALLVALUE DUP4 PUSH1 0x40 MLOAD PUSH2 0x19D SWAP2 SWAP1 PUSH2 0x67B JUMP JUMPDEST PUSH0 PUSH1 0x40 MLOAD DUP1 DUP4 SUB DUP2 DUP6 DUP8 GAS CALL SWAP3 POP POP POP RETURNDATASIZE DUP1 PUSH0 DUP2 EQ PUSH2 0x1D7 JUMPI PUSH1 0x40 MLOAD SWAP2 POP PUSH1 0x1F NOT PUSH1 0x3F RETURNDATASIZE ADD AND DUP3 ADD PUSH1 0x40 MSTORE RETURNDATASIZE DUP3 MSTORE RETURNDATASIZE PUSH0 PUSH1 0x20 DUP5 ADD RETURNDATACOPY PUSH2 0x1DC JUMP JUMPDEST PUSH1 0x60 SWAP2 POP JUMPDEST POP POP SWAP1 POP DUP1 PUSH2 0x220 JUMPI PUSH1 0x40 MLOAD PUSH32 0x8C379A000000000000000000000000000000000000000000000000000000000 DUP2 MSTORE PUSH1 0x4 ADD PUSH2 0x217 SWAP1 PUSH2 0x6DB JUMP JUMPDEST PUSH1 0x40 MLOAD DUP1 SWAP2 SUB SWAP1 REVERT JUMPDEST POP POP POP JUMP JUMPDEST PUSH0 DUP3 DUP3 PUSH1 0x40 MLOAD PUSH2 0x236 SWAP3 SWAP2 SWAP1 PUSH2 0x71D JUMP JUMPDEST PUSH1 0x40 MLOAD DUP1 SWAP2 SUB SWAP1 KECCAK256 SWAP1 POP SWAP3 SWAP2 POP POP JUMP JUMPDEST PUSH0 PUSH1 0x40 MLOAD SWAP1 POP SWAP1 JUMP JUMPDEST PUSH0 PUSH0 REVERT JUMPDEST PUSH0 PUSH0 REVERT JUMPDEST PUSH0 PUSH0 REVERT JUMPDEST PUSH0 PUSH0 REVERT JUMPDEST PUSH0 PUSH1 0x1F NOT PUSH1 0x1F DUP4 ADD AND SWAP1 POP SWAP2 SWAP1 POP JUMP JUMPDEST PUSH32 0x4E487B7100000000000000000000000000000000000000000000000000000000 PUSH0 MSTORE PUSH1 0x41 PUSH1 0x4 MSTORE PUSH1 0x24 PUSH0 REVERT JUMPDEST PUSH2 0x2A5 DUP3 PUSH2 0x25F JUMP JUMPDEST DUP2 ADD DUP2 DUP2 LT PUSH8 0xFFFFFFFFFFFFFFFF DUP3 GT OR ISZERO PUSH2 0x2C4 JUMPI PUSH2 0x2C3 PUSH2 0x26F JUMP JUMPDEST JUMPDEST DUP1 PUSH1 0x40 MSTORE POP POP POP JUMP JUMPDEST PUSH0 PUSH2 0x2D6 PUSH2 0x246 JUMP JUMPDEST SWAP1 POP PUSH2 0x2E2 DUP3 DUP3 PUSH2 0x29C JUMP JUMPDEST SWAP2 SWAP1 POP JUMP JUMPDEST PUSH0 PUSH8 0xFFFFFFFFFFFFFFFF DUP3 GT ISZERO PUSH2 0x301 JUMPI PUSH2 0x300 PUSH2 0x26F JUMP JUMPDEST JUMPDEST PUSH2 0x30A DUP3 PUSH2 0x25F JUMP JUMPDEST SWAP1 POP PUSH1 0x20 DUP2 ADD SWAP1 POP SWAP2 SWAP1 POP JUMP JUMPDEST DUP3 DUP2 DUP4 CALLDATACOPY PUSH0 DUP4 DUP4 ADD MSTORE POP POP POP JUMP JUMPDEST PUSH0 PUSH2 0x337 PUSH2 0x332 DUP5 PUSH2 0x2E7 JUMP JUMPDEST PUSH2 0x2CD JUMP JUMPDEST SWAP1 POP DUP3 DUP2 MSTORE PUSH1 0x20 DUP2 ADD DUP5 DUP5 DUP5 ADD GT ISZERO PUSH2 0x353 JUMPI PUSH2 0x352 PUSH2 0x25B JUMP JUMPDEST JUMPDEST PUSH2 0x35E DUP5 DUP3 DUP6 PUSH2 0x317 JUMP JUMPDEST POP SWAP4 SWAP3 POP POP POP JUMP JUMPDEST PUSH0 DUP3 PUSH1 0x1F DUP4 ADD SLT PUSH2 0x37A JUMPI PUSH2 0x379 PUSH2 0x257 JUMP JUMPDEST JUMPDEST DUP2 CALLDATALOAD PUSH2 0x38A DUP5 DUP3 PUSH1 0x20 DUP7 ADD PUSH2 0x325 JUMP JUMPDEST SWAP2 POP POP SWAP3 SWAP2 POP POP JUMP JUMPDEST PUSH0 PUSH1 0x20 DUP3 DUP5 SUB SLT ISZERO PUSH2 0x3A8 JUMPI PUSH2 0x3A7 PUSH2 0x24F JUMP JUMPDEST JUMPDEST PUSH0 DUP3 ADD CALLDATALOAD PUSH8 0xFFFFFFFFFFFFFFFF DUP2 GT ISZERO PUSH2 0x3C5 JUMPI PUSH2 0x3C4 PUSH2 0x253 JUMP JUMPDEST JUMPDEST PUSH2 0x3D1 DUP5 DUP3 DUP6 ADD PUSH2 0x366 JUMP JUMPDEST SWAP2 POP POP SWAP3 SWAP2 POP POP JUMP JUMPDEST PUSH0 PUSH20 0xFFFFFFFFFFFFFFFFFFFFFFFFFFFFFFFFFFFFFFFF DUP3 AND SWAP1 POP SWAP2 SWAP1 POP JUMP JUMPDEST PUSH0 PUSH2 0x403 DUP3 PUSH2 0x3DA JUMP JUMPDEST SWAP1 POP SWAP2 SWAP1 POP JUMP JUMPDEST PUSH2 0x413 DUP2 PUSH2 0x3F9 JUMP JUMPDEST DUP3 MSTORE POP POP JUMP JUMPDEST PUSH0 PUSH1 0x20 DUP3 ADD SWAP1 POP PUSH2 0x42C PUSH0 DUP4 ADD DUP5 PUSH2 0x40A JUMP JUMPDEST SWAP3 SWAP2 POP POP JUMP JUMPDEST PUSH2 0x43B DUP2 PUSH2 0x3F9 JUMP JUMPDEST DUP2 EQ PUSH2 0x445 JUMPI PUSH0 PUSH0 REVERT JUMPDEST POP JUMP JUMPDEST PUSH0 DUP2 CALLDATALOAD SWAP1 POP PUSH2 0x456 DUP2 PUSH2 0x432 JUMP JUMPDEST SWAP3 SWAP2 POP POP JUMP JUMPDEST PUSH0 PUSH0 PUSH1 0x40 DUP4 DUP6 SUB SLT ISZERO PUSH2 0x472 JUMPI PUSH2 0x471 PUSH2 0x24F JUMP JUMPDEST JUMPDEST PUSH0 PUSH2 0x47F DUP6 DUP3 DUP7 ADD PUSH2 0x448 JUMP JUMPDEST SWAP3 POP POP PUSH1 0x20 DUP4 ADD CALLDATALOAD PUSH8 0xFFFFFFFFFFFFFFFF DUP2 GT ISZERO PUSH2 0x4A0 JUMPI PUSH2 0x49F PUSH2 0x253 JUMP JUMPDEST JUMPDEST PUSH2 0x4AC DUP6 DUP3 DUP7 ADD PUSH2 0x366 JUMP JUMPDEST SWAP2 POP POP SWAP3 POP SWAP3 SWAP1 POP JUMP JUMPDEST PUSH0 PUSH0 REVERT JUMPDEST PUSH0 PUSH0 REVERT JUMPDEST PUSH0 PUSH0 DUP4 PUSH1 0x1F DUP5 ADD SLT PUSH2 0x4D3 JUMPI PUSH2 0x4D2 PUSH2 0x257 JUMP JUMPDEST JUMPDEST DUP3 CALLDATALOAD SWAP1 POP PUSH8 0xFFFFFFFFFFFFFFFF DUP2 GT ISZERO PUSH2 0x4F0 JUMPI PUSH2 0x4EF PUSH2 0x4B6 JUMP JUMPDEST JUMPDEST PUSH1 0x20 DUP4 ADD SWAP2 POP DUP4 PUSH1 0x1 DUP3 MUL DUP4 ADD GT ISZERO PUSH2 0x50C JUMPI PUSH2 0x50B PUSH2 0x4BA JUMP JUMPDEST JUMPDEST SWAP3 POP SWAP3 SWAP1 POP JUMP JUMPDEST PUSH0 PUSH0 PUSH1 0x20 DUP4 DUP6 SUB SLT ISZERO PUSH2 0x529 JUMPI PUSH2 0x528 PUSH2 0x24F JUMP JUMPDEST JUMPDEST PUSH0 DUP4 ADD CALLDATALOAD PUSH8 0xFFFFFFFFFFFFFFFF DUP2 GT ISZERO PUSH2 0x546 JUMPI PUSH2 0x545 PUSH2 0x253 JUMP JUMPDEST JUMPDEST PUSH2 0x552 DUP6 DUP3 DUP7 ADD PUSH2 0x4BE JUMP JUMPDEST SWAP3 POP SWAP3 POP POP SWAP3 POP SWAP3 SWAP1 POP JUMP JUMPDEST PUSH0 PUSH32 0xFFFFFFFF00000000000000000000000000000000000000000000000000000000 DUP3 AND SWAP1 POP SWAP2 SWAP1 POP JUMP JUMPDEST PUSH2 0x592 DUP2 PUSH2 0x55E JUMP JUMPDEST DUP3 MSTORE POP POP JUMP JUMPDEST PUSH0 PUSH1 0x20 DUP3 ADD SWAP1 POP PUSH2 0x5AB PUSH0 DUP4 ADD DUP5 PUSH2 0x589 JUMP JUMPDEST SWAP3 SWAP2 POP POP JUMP JUMPDEST PUSH0 DUP3 DUP3 MSTORE PUSH1 0x20 DUP3 ADD SWAP1 POP SWAP3 SWAP2 POP POP JUMP JUMPDEST PUSH32 0x6465706C6F79206661696C656400000000000000000000000000000000000000 PUSH0 DUP3 ADD MSTORE POP JUMP JUMPDEST PUSH0 PUSH2 0x5F5 PUSH1 0xD DUP4 PUSH2 0x5B1 JUMP JUMPDEST SWAP2 POP PUSH2 0x600 DUP3 PUSH2 0x5C1 JUMP JUMPDEST PUSH1 0x20 DUP3 ADD SWAP1 POP SWAP2 SWAP1 POP JUMP JUMPDEST PUSH0 PUSH1 0x20 DUP3 ADD SWAP1 POP DUP2 DUP2 SUB PUSH0 DUP4 ADD MSTORE PUSH2 0x622 DUP2 PUSH2 0x5E9 JUMP JUMPDEST SWAP1 POP SWAP2 SWAP1 POP JUMP JUMPDEST PUSH0 DUP2 MLOAD SWAP1 POP SWAP2 SWAP1 POP JUMP JUMPDEST PUSH0 DUP2 SWAP1 POP SWAP3 SWAP2 POP POP JUMP JUMPDEST DUP3 DUP2 DUP4 MCOPY PUSH0 DUP4 DUP4 ADD MSTORE POP POP POP JUMP JUMPDEST PUSH0 PUSH2 0x655 DUP3 PUSH2 0x629 JUMP JUMPDEST PUSH2 0x65F DUP2 DUP6 PUSH2 0x633 JUMP JUMPDEST SWAP4 POP PUSH2 0x66F DUP2 DUP6 PUSH1 0x20 DUP7 ADD PUSH2 0x63D JUMP JUMPDEST DUP1 DUP5 ADD SWAP2 POP POP SWAP3 SWAP2 POP POP JUMP JUMPDEST PUSH0 PUSH2 0x686 DUP3 DUP5 PUSH2 0x64B JUMP JUMPDEST SWAP2 POP DUP2 SWAP1 POP SWAP3 SWAP2 POP POP JUMP JUMPDEST PUSH32 0x6661696C65640000000000000000000000000000000000000000000000000000 PUSH0 DUP3 ADD MSTORE POP JUMP JUMPDEST PUSH0 PUSH2 0x6C5 PUSH1 0x6 DUP4 PUSH2 0x5B1 JUMP JUMPDEST SWAP2 POP PUSH2 0x6D0 DUP3 PUSH2 0x691 JUMP JUMPDEST PUSH1 0x20 DUP3 ADD SWAP1 POP SWAP2 SWAP1 POP JUMP JUMPDEST PUSH0 PUSH1 0x20 DUP3 ADD SWAP1 POP DUP2 DUP2 SUB PUSH0 DUP4 ADD MSTORE PUSH2 0x6F2 DUP2 PUSH2 0x6B9 JUMP JUMPDEST SWAP1 POP SWAP2 SWAP1 POP JUMP JUMPDEST PUSH0 PUSH2 0x704 DUP4 DUP6 PUSH2 0x633 JUMP JUMPDEST SWAP4 POP PUSH2 0x711 DUP4 DUP6 DUP5 PUSH2 0x317 JUMP JUMPDEST DUP3 DUP5 ADD SWAP1 POP SWAP4 SWAP3 POP POP POP JUMP JUMPDEST PUSH0 PUSH2 0x729 DUP3 DUP5 DUP7 PUSH2 0x6F9 JUMP JUMPDEST SWAP2 POP DUP2 SWAP1 POP SWAP4 SWAP3 POP POP POP JUMP INVALID LOG2 PUSH5 0x6970667358 0x22 SLT KECCAK256 0xB0 TLOAD 0xA9 CODESIZE DUP5 0xAA DATALOADN 0x49D9 0xB2 CALLER SWAP3 0xC6 PUSH30 0xCFA6A671B901409F3F8858EF55B8E78E09E564736F6C634300081E003300 "
				},
				"gasEstimates": {
					"creation": {
						"codeDepositCost": "379800",
						"executionCost": "416",
						"totalCost": "380216"
					},
					"external": {
						"": "128",
						"deploy(bytes)": "infinite",
						"execute(address,bytes)": "infinite",
						"getSelector(string)": "infinite"
					}
				},
				"methodIdentifiers": {
					"deploy(bytes)": "00774360",
					"execute(address,bytes)": "1cff79cd",
					"getSelector(string)": "80a003ff"
				}
			},
			"storageLayout": {
				"storage": [],
				"types": null
			},
			"userdoc": {
				"kind": "user",
				"methods": {},
				"version": 1
			}
		}
	}
}