{
	"Function Modifier.sol": {
		"FunctionModifier": {
			"abi": [
				{
					"inputs": [],
					"stateMutability": "nonpayable",
					"type": "constructor"
				},
				{
					"inputs": [
						{
							"internalType": "address",
							"name": "_newOwner",
							"type": "address"
						}
					],
					"name": "changeOwner",
					"outputs": [],
					"stateMutability": "nonpayable",
					"type": "function"
				},
				{
					"inputs": [
						{
							"internalType": "uint256",
							"name": "i",
							"type": "uint256"
						}
					],
					"name": "decrement",
					"outputs": [],
					"stateMutability": "nonpayable",
					"type": "function"
				},
				{
					"inputs": [],
					"name": "locked",
					"outputs": [
						{
							"internalType": "bool",
							"name": "",
							"type": "bool"
						}
					],
					"stateMutability": "view",
					"type": "function"
				},
				{
					"inputs": [],
					"name": "owner",
					"outputs": [
						{
							"internalType": "address",
							"name": "",
							"type": "address"
						}
					],
					"stateMutability": "view",
					"type": "function"
				},
				{
					"inputs": [],
					"name": "x",
					"outputs": [
						{
							"internalType": "uint256",
							"name": "",
							"type": "uint256"
						}
					],
					"stateMutability": "view",
					"type": "function"
				}
			],
			"devdoc": {
				"kind": "dev",
				"methods": {},
				"version": 1
			},
			"evm": {
				"assembly": "    /* \"Function Modifier.sol\":58:929  contract FunctionModifier {... */\n  mstore(0x40, 0x80)\n    /* \"Function Modifier.sol\":539:541  10 */\n  0x0a\n    /* \"Function Modifier.sol\":523:541  uint public x = 10 */\n  0x01\n  sstore\n    /* \"Function Modifier.sol\":117:166  constructor() {... */\n  callvalue\n  dup1\n  iszero\n  tag_1\n  jumpi\n  0x00\n  dup1\n  revert\ntag_1:\n  pop\n    /* \"Function Modifier.sol\":149:159  msg.sender */\n  caller\n    /* \"Function Modifier.sol\":141:146  owner */\n  0x00\n  dup1\n    /* \"Function Modifier.sol\":141:159  owner = msg.sender */\n  0x0100\n  exp\n  dup2\n  sload\n  dup2\n  0xffffffffffffffffffffffffffffffffffffffff\n  mul\n  not\n  and\n  swap1\n  dup4\n  0xffffffffffffffffffffffffffffffffffffffff\n  and\n  mul\n  or\n  swap1\n  sstore\n  pop\n    /* \"Function Modifier.sol\":58:929  contract FunctionModifier {... */\n  dataSize(sub_0)\n  dup1\n  dataOffset(sub_0)\n  0x00\n  codecopy\n  0x00\n  return\nstop\n\nsub_0: assembly {\n        /* \"Function Modifier.sol\":58:929  contract FunctionModifier {... */\n      mstore(0x40, 0x80)\n      callvalue\n      dup1\n      iszero\n      tag_1\n      jumpi\n      0x00\n      dup1\n      revert\n    tag_1:\n      pop\n      jumpi(tag_2, lt(calldatasize, 0x04))\n      shr(0xe0, calldataload(0x00))\n      dup1\n      0x0c55699c\n      eq\n      tag_3\n      jumpi\n      dup1\n      0x3a9ebefd\n      eq\n      tag_4\n      jumpi\n      dup1\n      0x8da5cb5b\n      eq\n      tag_5\n      jumpi\n      dup1\n      0xa6f9dae1\n      eq\n      tag_6\n      jumpi\n      dup1\n      0xcf309012\n      eq\n      tag_7\n      jumpi\n    tag_2:\n      0x00\n      dup1\n      revert\n        /* \"Function Modifier.sol\":523:541  uint public x = 10 */\n    tag_3:\n      tag_8\n      tag_9\n      jump\t// in\n    tag_8:\n      mload(0x40)\n      tag_10\n      swap2\n      swap1\n      tag_11\n      jump\t// in\n    tag_10:\n      mload(0x40)\n      dup1\n      swap2\n      sub\n      swap1\n      return\n        /* \"Function Modifier.sol\":718:927  function decrement(uint i) public noReentrancy {... */\n    tag_4:\n      tag_12\n      0x04\n      dup1\n      calldatasize\n      sub\n      dup2\n      add\n      swap1\n      tag_13\n      swap2\n      swap1\n      tag_14\n      jump\t// in\n    tag_13:\n      tag_15\n      jump\t// in\n    tag_12:\n      stop\n        /* \"Function Modifier.sol\":90:110  address public owner */\n    tag_5:\n      tag_16\n      tag_17\n      jump\t// in\n    tag_16:\n      mload(0x40)\n      tag_18\n      swap2\n      swap1\n      tag_19\n      jump\t// in\n    tag_18:\n      mload(0x40)\n      dup1\n      swap2\n      sub\n      swap1\n      return\n        /* \"Function Modifier.sol\":388:517  function changeOwner(... */\n    tag_6:\n      tag_20\n      0x04\n      dup1\n      calldatasize\n      sub\n      dup2\n      add\n      swap1\n      tag_21\n      swap2\n      swap1\n      tag_22\n      jump\t// in\n    tag_21:\n      tag_23\n      jump\t// in\n    tag_20:\n      stop\n        /* \"Function Modifier.sol\":547:565  bool public locked */\n    tag_7:\n      tag_24\n      tag_25\n      jump\t// in\n    tag_24:\n      mload(0x40)\n      tag_26\n      swap2\n      swap1\n      tag_27\n      jump\t// in\n    tag_26:\n      mload(0x40)\n      dup1\n      swap2\n      sub\n      swap1\n      return\n        /* \"Function Modifier.sol\":523:541  uint public x = 10 */\n    tag_9:\n      sload(0x01)\n      dup2\n      jump\t// out\n        /* \"Function Modifier.sol\":718:927  function decrement(uint i) public noReentrancy {... */\n    tag_15:\n        /* \"Function Modifier.sol\":624:629  false */\n      0x00\n        /* \"Function Modifier.sol\":614:629  locked == false */\n      iszero\n      iszero\n        /* \"Function Modifier.sol\":614:620  locked */\n      0x02\n      0x00\n      swap1\n      sload\n      swap1\n      0x0100\n      exp\n      swap1\n      div\n      0xff\n      and\n        /* \"Function Modifier.sol\":614:629  locked == false */\n      iszero\n      iszero\n      eq\n        /* \"Function Modifier.sol\":606:647  require(locked == false, \"No reentrancy\") */\n      tag_29\n      jumpi\n      mload(0x40)\n      0x08c379a000000000000000000000000000000000000000000000000000000000\n      dup2\n      mstore\n      0x04\n      add\n      tag_30\n      swap1\n      tag_31\n      jump\t// in\n    tag_30:\n      mload(0x40)\n      dup1\n      swap2\n      sub\n      swap1\n      revert\n    tag_29:\n        /* \"Function Modifier.sol\":666:670  true */\n      0x01\n        /* \"Function Modifier.sol\":657:663  locked */\n      0x02\n      0x00\n        /* \"Function Modifier.sol\":657:670  locked = true */\n      0x0100\n      exp\n      dup2\n      sload\n      dup2\n      0xff\n      mul\n      not\n      and\n      swap1\n      dup4\n      iszero\n      iszero\n      mul\n      or\n      swap1\n      sstore\n      pop\n        /* \"Function Modifier.sol\":788:789  i */\n      dup1\n        /* \"Function Modifier.sol\":783:784  x */\n      sload(0x01)\n        /* \"Function Modifier.sol\":783:789  x >= i */\n      lt\n      iszero\n        /* \"Function Modifier.sol\":775:808  require(x >= i, \"Underflow risk\") */\n      tag_33\n      jumpi\n      mload(0x40)\n      0x08c379a000000000000000000000000000000000000000000000000000000000\n      dup2\n      mstore\n      0x04\n      add\n      tag_34\n      swap1\n      tag_35\n      jump\t// in\n    tag_34:\n      mload(0x40)\n      dup1\n      swap2\n      sub\n      swap1\n      revert\n    tag_33:\n        /* \"Function Modifier.sol\":818:921  while (i > 0) {... */\n    tag_36:\n        /* \"Function Modifier.sol\":829:830  0 */\n      0x00\n        /* \"Function Modifier.sol\":825:826  i */\n      dup2\n        /* \"Function Modifier.sol\":825:830  i > 0 */\n      gt\n        /* \"Function Modifier.sol\":818:921  while (i > 0) {... */\n      iszero\n      tag_37\n      jumpi\n        /* \"Function Modifier.sol\":892:893  i */\n      dup1\n        /* \"Function Modifier.sol\":887:888  x */\n      0x01\n      0x00\n        /* \"Function Modifier.sol\":887:893  x -= i */\n      dup3\n      dup3\n      sload\n      tag_38\n      swap2\n      swap1\n      tag_39\n      jump\t// in\n    tag_38:\n      swap3\n      pop\n      pop\n      dup2\n      swap1\n      sstore\n      pop\n        /* \"Function Modifier.sol\":907:910  i-- */\n      dup1\n      dup1\n      tag_40\n      swap1\n      tag_41\n      jump\t// in\n    tag_40:\n      swap2\n      pop\n      pop\n        /* \"Function Modifier.sol\":818:921  while (i > 0) {... */\n      jump(tag_36)\n    tag_37:\n        /* \"Function Modifier.sol\":700:705  false */\n      0x00\n        /* \"Function Modifier.sol\":691:697  locked */\n      0x02\n      0x00\n        /* \"Function Modifier.sol\":691:705  locked = false */\n      0x0100\n      exp\n      dup2\n      sload\n      dup2\n      0xff\n      mul\n      not\n      and\n      swap1\n      dup4\n      iszero\n      iszero\n      mul\n      or\n      swap1\n      sstore\n      pop\n        /* \"Function Modifier.sol\":718:927  function decrement(uint i) public noReentrancy {... */\n      pop\n      jump\t// out\n        /* \"Function Modifier.sol\":90:110  address public owner */\n    tag_17:\n      0x00\n      dup1\n      sload\n      swap1\n      0x0100\n      exp\n      swap1\n      div\n      0xffffffffffffffffffffffffffffffffffffffff\n      and\n      dup2\n      jump\t// out\n        /* \"Function Modifier.sol\":388:517  function changeOwner(... */\n    tag_23:\n        /* \"Function Modifier.sol\":225:230  owner */\n      0x00\n      dup1\n      sload\n      swap1\n      0x0100\n      exp\n      swap1\n      div\n      0xffffffffffffffffffffffffffffffffffffffff\n      and\n        /* \"Function Modifier.sol\":211:230  msg.sender == owner */\n      0xffffffffffffffffffffffffffffffffffffffff\n      and\n        /* \"Function Modifier.sol\":211:221  msg.sender */\n      caller\n        /* \"Function Modifier.sol\":211:230  msg.sender == owner */\n      0xffffffffffffffffffffffffffffffffffffffff\n      and\n      eq\n        /* \"Function Modifier.sol\":203:244  require(msg.sender == owner, \"Not owner\") */\n      tag_43\n      jumpi\n      mload(0x40)\n      0x08c379a000000000000000000000000000000000000000000000000000000000\n      dup2\n      mstore\n      0x04\n      add\n      tag_44\n      swap1\n      tag_45\n      jump\t// in\n    tag_44:\n      mload(0x40)\n      dup1\n      swap2\n      sub\n      swap1\n      revert\n    tag_43:\n        /* \"Function Modifier.sol\":472:481  _newOwner */\n      dup1\n        /* \"Function Modifier.sol\":340:341  0 */\n      0x00\n        /* \"Function Modifier.sol\":323:342  _addr != address(0) */\n      0xffffffffffffffffffffffffffffffffffffffff\n      and\n        /* \"Function Modifier.sol\":323:328  _addr */\n      dup2\n        /* \"Function Modifier.sol\":323:342  _addr != address(0) */\n      0xffffffffffffffffffffffffffffffffffffffff\n      and\n      sub\n        /* \"Function Modifier.sol\":315:364  require(_addr != address(0), \"Not valid address\") */\n      tag_47\n      jumpi\n      mload(0x40)\n      0x08c379a000000000000000000000000000000000000000000000000000000000\n      dup2\n      mstore\n      0x04\n      add\n      tag_48\n      swap1\n      tag_49\n      jump\t// in\n    tag_48:\n      mload(0x40)\n      dup1\n      swap2\n      sub\n      swap1\n      revert\n    tag_47:\n        /* \"Function Modifier.sol\":501:510  _newOwner */\n      dup2\n        /* \"Function Modifier.sol\":493:498  owner */\n      0x00\n      dup1\n        /* \"Function Modifier.sol\":493:510  owner = _newOwner */\n      0x0100\n      exp\n      dup2\n      sload\n      dup2\n      0xffffffffffffffffffffffffffffffffffffffff\n      mul\n      not\n      and\n      swap1\n      dup4\n      0xffffffffffffffffffffffffffffffffffffffff\n      and\n      mul\n      or\n      swap1\n      sstore\n      pop\n        /* \"Function Modifier.sol\":254:255  _ */\n      pop\n        /* \"Function Modifier.sol\":388:517  function changeOwner(... */\n      pop\n      jump\t// out\n        /* \"Function Modifier.sol\":547:565  bool public locked */\n    tag_25:\n      0x02\n      0x00\n      swap1\n      sload\n      swap1\n      0x0100\n      exp\n      swap1\n      div\n      0xff\n      and\n      dup2\n      jump\t// out\n        /* \"#utility.yul\":7:84   */\n    tag_51:\n        /* \"#utility.yul\":44:51   */\n      0x00\n        /* \"#utility.yul\":73:78   */\n      dup2\n        /* \"#utility.yul\":62:78   */\n      swap1\n      pop\n        /* \"#utility.yul\":7:84   */\n      swap2\n      swap1\n      pop\n      jump\t// out\n        /* \"#utility.yul\":90:208   */\n    tag_52:\n        /* \"#utility.yul\":177:201   */\n      tag_78\n        /* \"#utility.yul\":195:200   */\n      dup2\n        /* \"#utility.yul\":177:201   */\n      tag_51\n      jump\t// in\n    tag_78:\n        /* \"#utility.yul\":172:175   */\n      dup3\n        /* \"#utility.yul\":165:202   */\n      mstore\n        /* \"#utility.yul\":90:208   */\n      pop\n      pop\n      jump\t// out\n        /* \"#utility.yul\":214:436   */\n    tag_11:\n        /* \"#utility.yul\":307:311   */\n      0x00\n        /* \"#utility.yul\":345:347   */\n      0x20\n        /* \"#utility.yul\":334:343   */\n      dup3\n        /* \"#utility.yul\":330:348   */\n      add\n        /* \"#utility.yul\":322:348   */\n      swap1\n      pop\n        /* \"#utility.yul\":358:429   */\n      tag_80\n        /* \"#utility.yul\":426:427   */\n      0x00\n        /* \"#utility.yul\":415:424   */\n      dup4\n        /* \"#utility.yul\":411:428   */\n      add\n        /* \"#utility.yul\":402:408   */\n      dup5\n        /* \"#utility.yul\":358:429   */\n      tag_52\n      jump\t// in\n    tag_80:\n        /* \"#utility.yul\":214:436   */\n      swap3\n      swap2\n      pop\n      pop\n      jump\t// out\n        /* \"#utility.yul\":523:640   */\n    tag_54:\n        /* \"#utility.yul\":632:633   */\n      0x00\n        /* \"#utility.yul\":629:630   */\n      dup1\n        /* \"#utility.yul\":622:634   */\n      revert\n        /* \"#utility.yul\":769:891   */\n    tag_56:\n        /* \"#utility.yul\":842:866   */\n      tag_85\n        /* \"#utility.yul\":860:865   */\n      dup2\n        /* \"#utility.yul\":842:866   */\n      tag_51\n      jump\t// in\n    tag_85:\n        /* \"#utility.yul\":835:840   */\n      dup2\n        /* \"#utility.yul\":832:867   */\n      eq\n        /* \"#utility.yul\":822:885   */\n      tag_86\n      jumpi\n        /* \"#utility.yul\":881:882   */\n      0x00\n        /* \"#utility.yul\":878:879   */\n      dup1\n        /* \"#utility.yul\":871:883   */\n      revert\n        /* \"#utility.yul\":822:885   */\n    tag_86:\n        /* \"#utility.yul\":769:891   */\n      pop\n      jump\t// out\n        /* \"#utility.yul\":897:1036   */\n    tag_57:\n        /* \"#utility.yul\":943:948   */\n      0x00\n        /* \"#utility.yul\":981:987   */\n      dup2\n        /* \"#utility.yul\":968:988   */\n      calldataload\n        /* \"#utility.yul\":959:988   */\n      swap1\n      pop\n        /* \"#utility.yul\":997:1030   */\n      tag_88\n        /* \"#utility.yul\":1024:1029   */\n      dup2\n        /* \"#utility.yul\":997:1030   */\n      tag_56\n      jump\t// in\n    tag_88:\n        /* \"#utility.yul\":897:1036   */\n      swap3\n      swap2\n      pop\n      pop\n      jump\t// out\n        /* \"#utility.yul\":1042:1371   */\n    tag_14:\n        /* \"#utility.yul\":1101:1107   */\n      0x00\n        /* \"#utility.yul\":1150:1152   */\n      0x20\n        /* \"#utility.yul\":1138:1147   */\n      dup3\n        /* \"#utility.yul\":1129:1136   */\n      dup5\n        /* \"#utility.yul\":1125:1148   */\n      sub\n        /* \"#utility.yul\":1121:1153   */\n      slt\n        /* \"#utility.yul\":1118:1237   */\n      iszero\n      tag_90\n      jumpi\n        /* \"#utility.yul\":1156:1235   */\n      tag_91\n      tag_54\n      jump\t// in\n    tag_91:\n        /* \"#utility.yul\":1118:1237   */\n    tag_90:\n        /* \"#utility.yul\":1276:1277   */\n      0x00\n        /* \"#utility.yul\":1301:1354   */\n      tag_92\n        /* \"#utility.yul\":1346:1353   */\n      dup5\n        /* \"#utility.yul\":1337:1343   */\n      dup3\n        /* \"#utility.yul\":1326:1335   */\n      dup6\n        /* \"#utility.yul\":1322:1344   */\n      add\n        /* \"#utility.yul\":1301:1354   */\n      tag_57\n      jump\t// in\n    tag_92:\n        /* \"#utility.yul\":1291:1354   */\n      swap2\n      pop\n        /* \"#utility.yul\":1247:1364   */\n      pop\n        /* \"#utility.yul\":1042:1371   */\n      swap3\n      swap2\n      pop\n      pop\n      jump\t// out\n        /* \"#utility.yul\":1377:1503   */\n    tag_58:\n        /* \"#utility.yul\":1414:1421   */\n      0x00\n        /* \"#utility.yul\":1454:1496   */\n      0xffffffffffffffffffffffffffffffffffffffff\n        /* \"#utility.yul\":1447:1452   */\n      dup3\n        /* \"#utility.yul\":1443:1497   */\n      and\n        /* \"#utility.yul\":1432:1497   */\n      swap1\n      pop\n        /* \"#utility.yul\":1377:1503   */\n      swap2\n      swap1\n      pop\n      jump\t// out\n        /* \"#utility.yul\":1509:1605   */\n    tag_59:\n        /* \"#utility.yul\":1546:1553   */\n      0x00\n        /* \"#utility.yul\":1575:1599   */\n      tag_95\n        /* \"#utility.yul\":1593:1598   */\n      dup3\n        /* \"#utility.yul\":1575:1599   */\n      tag_58\n      jump\t// in\n    tag_95:\n        /* \"#utility.yul\":1564:1599   */\n      swap1\n      pop\n        /* \"#utility.yul\":1509:1605   */\n      swap2\n      swap1\n      pop\n      jump\t// out\n        /* \"#utility.yul\":1611:1729   */\n    tag_60:\n        /* \"#utility.yul\":1698:1722   */\n      tag_97\n        /* \"#utility.yul\":1716:1721   */\n      dup2\n        /* \"#utility.yul\":1698:1722   */\n      tag_59\n      jump\t// in\n    tag_97:\n        /* \"#utility.yul\":1693:1696   */\n      dup3\n        /* \"#utility.yul\":1686:1723   */\n      mstore\n        /* \"#utility.yul\":1611:1729   */\n      pop\n      pop\n      jump\t// out\n        /* \"#utility.yul\":1735:1957   */\n    tag_19:\n        /* \"#utility.yul\":1828:1832   */\n      0x00\n        /* \"#utility.yul\":1866:1868   */\n      0x20\n        /* \"#utility.yul\":1855:1864   */\n      dup3\n        /* \"#utility.yul\":1851:1869   */\n      add\n        /* \"#utility.yul\":1843:1869   */\n      swap1\n      pop\n        /* \"#utility.yul\":1879:1950   */\n      tag_99\n        /* \"#utility.yul\":1947:1948   */\n      0x00\n        /* \"#utility.yul\":1936:1945   */\n      dup4\n        /* \"#utility.yul\":1932:1949   */\n      add\n        /* \"#utility.yul\":1923:1929   */\n      dup5\n        /* \"#utility.yul\":1879:1950   */\n      tag_60\n      jump\t// in\n    tag_99:\n        /* \"#utility.yul\":1735:1957   */\n      swap3\n      swap2\n      pop\n      pop\n      jump\t// out\n        /* \"#utility.yul\":1963:2085   */\n    tag_61:\n        /* \"#utility.yul\":2036:2060   */\n      tag_101\n        /* \"#utility.yul\":2054:2059   */\n      dup2\n        /* \"#utility.yul\":2036:2060   */\n      tag_59\n      jump\t// in\n    tag_101:\n        /* \"#utility.yul\":2029:2034   */\n      dup2\n        /* \"#utility.yul\":2026:2061   */\n      eq\n        /* \"#utility.yul\":2016:2079   */\n      tag_102\n      jumpi\n        /* \"#utility.yul\":2075:2076   */\n      0x00\n        /* \"#utility.yul\":2072:2073   */\n      dup1\n        /* \"#utility.yul\":2065:2077   */\n      revert\n        /* \"#utility.yul\":2016:2079   */\n    tag_102:\n        /* \"#utility.yul\":1963:2085   */\n      pop\n      jump\t// out\n        /* \"#utility.yul\":2091:2230   */\n    tag_62:\n        /* \"#utility.yul\":2137:2142   */\n      0x00\n        /* \"#utility.yul\":2175:2181   */\n      dup2\n        /* \"#utility.yul\":2162:2182   */\n      calldataload\n        /* \"#utility.yul\":2153:2182   */\n      swap1\n      pop\n        /* \"#utility.yul\":2191:2224   */\n      tag_104\n        /* \"#utility.yul\":2218:2223   */\n      dup2\n        /* \"#utility.yul\":2191:2224   */\n      tag_61\n      jump\t// in\n    tag_104:\n        /* \"#utility.yul\":2091:2230   */\n      swap3\n      swap2\n      pop\n      pop\n      jump\t// out\n        /* \"#utility.yul\":2236:2565   */\n    tag_22:\n        /* \"#utility.yul\":2295:2301   */\n      0x00\n        /* \"#utility.yul\":2344:2346   */\n      0x20\n        /* \"#utility.yul\":2332:2341   */\n      dup3\n        /* \"#utility.yul\":2323:2330   */\n      dup5\n        /* \"#utility.yul\":2319:2342   */\n      sub\n        /* \"#utility.yul\":2315:2347   */\n      slt\n        /* \"#utility.yul\":2312:2431   */\n      iszero\n      tag_106\n      jumpi\n        /* \"#utility.yul\":2350:2429   */\n      tag_107\n      tag_54\n      jump\t// in\n    tag_107:\n        /* \"#utility.yul\":2312:2431   */\n    tag_106:\n        /* \"#utility.yul\":2470:2471   */\n      0x00\n        /* \"#utility.yul\":2495:2548   */\n      tag_108\n        /* \"#utility.yul\":2540:2547   */\n      dup5\n        /* \"#utility.yul\":2531:2537   */\n      dup3\n        /* \"#utility.yul\":2520:2529   */\n      dup6\n        /* \"#utility.yul\":2516:2538   */\n      add\n        /* \"#utility.yul\":2495:2548   */\n      tag_62\n      jump\t// in\n    tag_108:\n        /* \"#utility.yul\":2485:2548   */\n      swap2\n      pop\n        /* \"#utility.yul\":2441:2558   */\n      pop\n        /* \"#utility.yul\":2236:2565   */\n      swap3\n      swap2\n      pop\n      pop\n      jump\t// out\n        /* \"#utility.yul\":2571:2661   */\n    tag_63:\n        /* \"#utility.yul\":2605:2612   */\n      0x00\n        /* \"#utility.yul\":2648:2653   */\n      dup2\n        /* \"#utility.yul\":2641:2654   */\n      iszero\n        /* \"#utility.yul\":2634:2655   */\n      iszero\n        /* \"#utility.yul\":2623:2655   */\n      swap1\n      pop\n        /* \"#utility.yul\":2571:2661   */\n      swap2\n      swap1\n      pop\n      jump\t// out\n        /* \"#utility.yul\":2667:2776   */\n    tag_64:\n        /* \"#utility.yul\":2748:2769   */\n      tag_111\n        /* \"#utility.yul\":2763:2768   */\n      dup2\n        /* \"#utility.yul\":2748:2769   */\n      tag_63\n      jump\t// in\n    tag_111:\n        /* \"#utility.yul\":2743:2746   */\n      dup3\n        /* \"#utility.yul\":2736:2770   */\n      mstore\n        /* \"#utility.yul\":2667:2776   */\n      pop\n      pop\n      jump\t// out\n        /* \"#utility.yul\":2782:2992   */\n    tag_27:\n        /* \"#utility.yul\":2869:2873   */\n      0x00\n        /* \"#utility.yul\":2907:2909   */\n      0x20\n        /* \"#utility.yul\":2896:2905   */\n      dup3\n        /* \"#utility.yul\":2892:2910   */\n      add\n        /* \"#utility.yul\":2884:2910   */\n      swap1\n      pop\n        /* \"#utility.yul\":2920:2985   */\n      tag_113\n        /* \"#utility.yul\":2982:2983   */\n      0x00\n        /* \"#utility.yul\":2971:2980   */\n      dup4\n        /* \"#utility.yul\":2967:2984   */\n      add\n        /* \"#utility.yul\":2958:2964   */\n      dup5\n        /* \"#utility.yul\":2920:2985   */\n      tag_64\n      jump\t// in\n    tag_113:\n        /* \"#utility.yul\":2782:2992   */\n      swap3\n      swap2\n      pop\n      pop\n      jump\t// out\n        /* \"#utility.yul\":2998:3167   */\n    tag_65:\n        /* \"#utility.yul\":3082:3093   */\n      0x00\n        /* \"#utility.yul\":3116:3122   */\n      dup3\n        /* \"#utility.yul\":3111:3114   */\n      dup3\n        /* \"#utility.yul\":3104:3123   */\n      mstore\n        /* \"#utility.yul\":3156:3160   */\n      0x20\n        /* \"#utility.yul\":3151:3154   */\n      dup3\n        /* \"#utility.yul\":3147:3161   */\n      add\n        /* \"#utility.yul\":3132:3161   */\n      swap1\n      pop\n        /* \"#utility.yul\":2998:3167   */\n      swap3\n      swap2\n      pop\n      pop\n      jump\t// out\n        /* \"#utility.yul\":3173:3336   */\n    tag_66:\n        /* \"#utility.yul\":3313:3328   */\n      0x4e6f207265656e7472616e637900000000000000000000000000000000000000\n        /* \"#utility.yul\":3309:3310   */\n      0x00\n        /* \"#utility.yul\":3301:3307   */\n      dup3\n        /* \"#utility.yul\":3297:3311   */\n      add\n        /* \"#utility.yul\":3290:3329   */\n      mstore\n        /* \"#utility.yul\":3173:3336   */\n      pop\n      jump\t// out\n        /* \"#utility.yul\":3342:3708   */\n    tag_67:\n        /* \"#utility.yul\":3484:3487   */\n      0x00\n        /* \"#utility.yul\":3505:3572   */\n      tag_117\n        /* \"#utility.yul\":3569:3571   */\n      0x0d\n        /* \"#utility.yul\":3564:3567   */\n      dup4\n        /* \"#utility.yul\":3505:3572   */\n      tag_65\n      jump\t// in\n    tag_117:\n        /* \"#utility.yul\":3498:3572   */\n      swap2\n      pop\n        /* \"#utility.yul\":3581:3674   */\n      tag_118\n        /* \"#utility.yul\":3670:3673   */\n      dup3\n        /* \"#utility.yul\":3581:3674   */\n      tag_66\n      jump\t// in\n    tag_118:\n        /* \"#utility.yul\":3699:3701   */\n      0x20\n        /* \"#utility.yul\":3694:3697   */\n      dup3\n        /* \"#utility.yul\":3690:3702   */\n      add\n        /* \"#utility.yul\":3683:3702   */\n      swap1\n      pop\n        /* \"#utility.yul\":3342:3708   */\n      swap2\n      swap1\n      pop\n      jump\t// out\n        /* \"#utility.yul\":3714:4133   */\n    tag_31:\n        /* \"#utility.yul\":3880:3884   */\n      0x00\n        /* \"#utility.yul\":3918:3920   */\n      0x20\n        /* \"#utility.yul\":3907:3916   */\n      dup3\n        /* \"#utility.yul\":3903:3921   */\n      add\n        /* \"#utility.yul\":3895:3921   */\n      swap1\n      pop\n        /* \"#utility.yul\":3967:3976   */\n      dup2\n        /* \"#utility.yul\":3961:3965   */\n      dup2\n        /* \"#utility.yul\":3957:3977   */\n      sub\n        /* \"#utility.yul\":3953:3954   */\n      0x00\n        /* \"#utility.yul\":3942:3951   */\n      dup4\n        /* \"#utility.yul\":3938:3955   */\n      add\n        /* \"#utility.yul\":3931:3978   */\n      mstore\n        /* \"#utility.yul\":3995:4126   */\n      tag_120\n        /* \"#utility.yul\":4121:4125   */\n      dup2\n        /* \"#utility.yul\":3995:4126   */\n      tag_67\n      jump\t// in\n    tag_120:\n        /* \"#utility.yul\":3987:4126   */\n      swap1\n      pop\n        /* \"#utility.yul\":3714:4133   */\n      swap2\n      swap1\n      pop\n      jump\t// out\n        /* \"#utility.yul\":4139:4303   */\n    tag_68:\n        /* \"#utility.yul\":4279:4295   */\n      0x556e646572666c6f77207269736b000000000000000000000000000000000000\n        /* \"#utility.yul\":4275:4276   */\n      0x00\n        /* \"#utility.yul\":4267:4273   */\n      dup3\n        /* \"#utility.yul\":4263:4277   */\n      add\n        /* \"#utility.yul\":4256:4296   */\n      mstore\n        /* \"#utility.yul\":4139:4303   */\n      pop\n      jump\t// out\n        /* \"#utility.yul\":4309:4675   */\n    tag_69:\n        /* \"#utility.yul\":4451:4454   */\n      0x00\n        /* \"#utility.yul\":4472:4539   */\n      tag_123\n        /* \"#utility.yul\":4536:4538   */\n      0x0e\n        /* \"#utility.yul\":4531:4534   */\n      dup4\n        /* \"#utility.yul\":4472:4539   */\n      tag_65\n      jump\t// in\n    tag_123:\n        /* \"#utility.yul\":4465:4539   */\n      swap2\n      pop\n        /* \"#utility.yul\":4548:4641   */\n      tag_124\n        /* \"#utility.yul\":4637:4640   */\n      dup3\n        /* \"#utility.yul\":4548:4641   */\n      tag_68\n      jump\t// in\n    tag_124:\n        /* \"#utility.yul\":4666:4668   */\n      0x20\n        /* \"#utility.yul\":4661:4664   */\n      dup3\n        /* \"#utility.yul\":4657:4669   */\n      add\n        /* \"#utility.yul\":4650:4669   */\n      swap1\n      pop\n        /* \"#utility.yul\":4309:4675   */\n      swap2\n      swap1\n      pop\n      jump\t// out\n        /* \"#utility.yul\":4681:5100   */\n    tag_35:\n        /* \"#utility.yul\":4847:4851   */\n      0x00\n        /* \"#utility.yul\":4885:4887   */\n      0x20\n        /* \"#utility.yul\":4874:4883   */\n      dup3\n        /* \"#utility.yul\":4870:4888   */\n      add\n        /* \"#utility.yul\":4862:4888   */\n      swap1\n      pop\n        /* \"#utility.yul\":4934:4943   */\n      dup2\n        /* \"#utility.yul\":4928:4932   */\n      dup2\n        /* \"#utility.yul\":4924:4944   */\n      sub\n        /* \"#utility.yul\":4920:4921   */\n      0x00\n        /* \"#utility.yul\":4909:4918   */\n      dup4\n        /* \"#utility.yul\":4905:4922   */\n      add\n        /* \"#utility.yul\":4898:4945   */\n      mstore\n        /* \"#utility.yul\":4962:5093   */\n      tag_126\n        /* \"#utility.yul\":5088:5092   */\n      dup2\n        /* \"#utility.yul\":4962:5093   */\n      tag_69\n      jump\t// in\n    tag_126:\n        /* \"#utility.yul\":4954:5093   */\n      swap1\n      pop\n        /* \"#utility.yul\":4681:5100   */\n      swap2\n      swap1\n      pop\n      jump\t// out\n        /* \"#utility.yul\":5106:5286   */\n    tag_70:\n        /* \"#utility.yul\":5154:5231   */\n      0x4e487b7100000000000000000000000000000000000000000000000000000000\n        /* \"#utility.yul\":5151:5152   */\n      0x00\n        /* \"#utility.yul\":5144:5232   */\n      mstore\n        /* \"#utility.yul\":5251:5255   */\n      0x11\n        /* \"#utility.yul\":5248:5249   */\n      0x04\n        /* \"#utility.yul\":5241:5256   */\n      mstore\n        /* \"#utility.yul\":5275:5279   */\n      0x24\n        /* \"#utility.yul\":5272:5273   */\n      0x00\n        /* \"#utility.yul\":5265:5280   */\n      revert\n        /* \"#utility.yul\":5292:5486   */\n    tag_39:\n        /* \"#utility.yul\":5332:5336   */\n      0x00\n        /* \"#utility.yul\":5352:5372   */\n      tag_129\n        /* \"#utility.yul\":5370:5371   */\n      dup3\n        /* \"#utility.yul\":5352:5372   */\n      tag_51\n      jump\t// in\n    tag_129:\n        /* \"#utility.yul\":5347:5372   */\n      swap2\n      pop\n        /* \"#utility.yul\":5386:5406   */\n      tag_130\n        /* \"#utility.yul\":5404:5405   */\n      dup4\n        /* \"#utility.yul\":5386:5406   */\n      tag_51\n      jump\t// in\n    tag_130:\n        /* \"#utility.yul\":5381:5406   */\n      swap3\n      pop\n        /* \"#utility.yul\":5430:5431   */\n      dup3\n        /* \"#utility.yul\":5427:5428   */\n      dup3\n        /* \"#utility.yul\":5423:5432   */\n      sub\n        /* \"#utility.yul\":5415:5432   */\n      swap1\n      pop\n        /* \"#utility.yul\":5454:5455   */\n      dup2\n        /* \"#utility.yul\":5448:5452   */\n      dup2\n        /* \"#utility.yul\":5445:5456   */\n      gt\n        /* \"#utility.yul\":5442:5479   */\n      iszero\n      tag_131\n      jumpi\n        /* \"#utility.yul\":5459:5477   */\n      tag_132\n      tag_70\n      jump\t// in\n    tag_132:\n        /* \"#utility.yul\":5442:5479   */\n    tag_131:\n        /* \"#utility.yul\":5292:5486   */\n      swap3\n      swap2\n      pop\n      pop\n      jump\t// out\n        /* \"#utility.yul\":5492:5663   */\n    tag_41:\n        /* \"#utility.yul\":5531:5534   */\n      0x00\n        /* \"#utility.yul\":5554:5578   */\n      tag_134\n        /* \"#utility.yul\":5572:5577   */\n      dup3\n        /* \"#utility.yul\":5554:5578   */\n      tag_51\n      jump\t// in\n    tag_134:\n        /* \"#utility.yul\":5545:5578   */\n      swap2\n      pop\n        /* \"#utility.yul\":5600:5604   */\n      0x00\n        /* \"#utility.yul\":5593:5598   */\n      dup3\n        /* \"#utility.yul\":5590:5605   */\n      sub\n        /* \"#utility.yul\":5587:5628   */\n      tag_135\n      jumpi\n        /* \"#utility.yul\":5608:5626   */\n      tag_136\n      tag_70\n      jump\t// in\n    tag_136:\n        /* \"#utility.yul\":5587:5628   */\n    tag_135:\n        /* \"#utility.yul\":5655:5656   */\n      0x01\n        /* \"#utility.yul\":5648:5653   */\n      dup3\n        /* \"#utility.yul\":5644:5657   */\n      sub\n        /* \"#utility.yul\":5637:5657   */\n      swap1\n      pop\n        /* \"#utility.yul\":5492:5663   */\n      swap2\n      swap1\n      pop\n      jump\t// out\n        /* \"#utility.yul\":5669:5828   */\n    tag_71:\n        /* \"#utility.yul\":5809:5820   */\n      0x4e6f74206f776e65720000000000000000000000000000000000000000000000\n        /* \"#utility.yul\":5805:5806   */\n      0x00\n        /* \"#utility.yul\":5797:5803   */\n      dup3\n        /* \"#utility.yul\":5793:5807   */\n      add\n        /* \"#utility.yul\":5786:5821   */\n      mstore\n        /* \"#utility.yul\":5669:5828   */\n      pop\n      jump\t// out\n        /* \"#utility.yul\":5834:6199   */\n    tag_72:\n        /* \"#utility.yul\":5976:5979   */\n      0x00\n        /* \"#utility.yul\":5997:6063   */\n      tag_139\n        /* \"#utility.yul\":6061:6062   */\n      0x09\n        /* \"#utility.yul\":6056:6059   */\n      dup4\n        /* \"#utility.yul\":5997:6063   */\n      tag_65\n      jump\t// in\n    tag_139:\n        /* \"#utility.yul\":5990:6063   */\n      swap2\n      pop\n        /* \"#utility.yul\":6072:6165   */\n      tag_140\n        /* \"#utility.yul\":6161:6164   */\n      dup3\n        /* \"#utility.yul\":6072:6165   */\n      tag_71\n      jump\t// in\n    tag_140:\n        /* \"#utility.yul\":6190:6192   */\n      0x20\n        /* \"#utility.yul\":6185:6188   */\n      dup3\n        /* \"#utility.yul\":6181:6193   */\n      add\n        /* \"#utility.yul\":6174:6193   */\n      swap1\n      pop\n        /* \"#utility.yul\":5834:6199   */\n      swap2\n      swap1\n      pop\n      jump\t// out\n        /* \"#utility.yul\":6205:6624   */\n    tag_45:\n        /* \"#utility.yul\":6371:6375   */\n      0x00\n        /* \"#utility.yul\":6409:6411   */\n      0x20\n        /* \"#utility.yul\":6398:6407   */\n      dup3\n        /* \"#utility.yul\":6394:6412   */\n      add\n        /* \"#utility.yul\":6386:6412   */\n      swap1\n      pop\n        /* \"#utility.yul\":6458:6467   */\n      dup2\n        /* \"#utility.yul\":6452:6456   */\n      dup2\n        /* \"#utility.yul\":6448:6468   */\n      sub\n        /* \"#utility.yul\":6444:6445   */\n      0x00\n        /* \"#utility.yul\":6433:6442   */\n      dup4\n        /* \"#utility.yul\":6429:6446   */\n      add\n        /* \"#utility.yul\":6422:6469   */\n      mstore\n        /* \"#utility.yul\":6486:6617   */\n      tag_142\n        /* \"#utility.yul\":6612:6616   */\n      dup2\n        /* \"#utility.yul\":6486:6617   */\n      tag_72\n      jump\t// in\n    tag_142:\n        /* \"#utility.yul\":6478:6617   */\n      swap1\n      pop\n        /* \"#utility.yul\":6205:6624   */\n      swap2\n      swap1\n      pop\n      jump\t// out\n        /* \"#utility.yul\":6630:6797   */\n    tag_73:\n        /* \"#utility.yul\":6770:6789   */\n      0x4e6f742076616c69642061646472657373000000000000000000000000000000\n        /* \"#utility.yul\":6766:6767   */\n      0x00\n        /* \"#utility.yul\":6758:6764   */\n      dup3\n        /* \"#utility.yul\":6754:6768   */\n      add\n        /* \"#utility.yul\":6747:6790   */\n      mstore\n        /* \"#utility.yul\":6630:6797   */\n      pop\n      jump\t// out\n        /* \"#utility.yul\":6803:7169   */\n    tag_74:\n        /* \"#utility.yul\":6945:6948   */\n      0x00\n        /* \"#utility.yul\":6966:7033   */\n      tag_145\n        /* \"#utility.yul\":7030:7032   */\n      0x11\n        /* \"#utility.yul\":7025:7028   */\n      dup4\n        /* \"#utility.yul\":6966:7033   */\n      tag_65\n      jump\t// in\n    tag_145:\n        /* \"#utility.yul\":6959:7033   */\n      swap2\n      pop\n        /* \"#utility.yul\":7042:7135   */\n      tag_146\n        /* \"#utility.yul\":7131:7134   */\n      dup3\n        /* \"#utility.yul\":7042:7135   */\n      tag_73\n      jump\t// in\n    tag_146:\n        /* \"#utility.yul\":7160:7162   */\n      0x20\n        /* \"#utility.yul\":7155:7158   */\n      dup3\n        /* \"#utility.yul\":7151:7163   */\n      add\n        /* \"#utility.yul\":7144:7163   */\n      swap1\n      pop\n        /* \"#utility.yul\":6803:7169   */\n      swap2\n      swap1\n      pop\n      jump\t// out\n        /* \"#utility.yul\":7175:7594   */\n    tag_49:\n        /* \"#utility.yul\":7341:7345   */\n      0x00\n        /* \"#utility.yul\":7379:7381   */\n      0x20\n        /* \"#utility.yul\":7368:7377   */\n      dup3\n        /* \"#utility.yul\":7364:7382   */\n      add\n        /* \"#utility.yul\":7356:7382   */\n      swap1\n      pop\n        /* \"#utility.yul\":7428:7437   */\n      dup2\n        /* \"#utility.yul\":7422:7426   */\n      dup2\n        /* \"#utility.yul\":7418:7438   */\n      sub\n        /* \"#utility.yul\":7414:7415   */\n      0x00\n        /* \"#utility.yul\":7403:7412   */\n      dup4\n        /* \"#utility.yul\":7399:7416   */\n      add\n        /* \"#utility.yul\":7392:7439   */\n      mstore\n        /* \"#utility.yul\":7456:7587   */\n      tag_148\n        /* \"#utility.yul\":7582:7586   */\n      dup2\n        /* \"#utility.yul\":7456:7587   */\n      tag_74\n      jump\t// in\n    tag_148:\n        /* \"#utility.yul\":7448:7587   */\n      swap1\n      pop\n        /* \"#utility.yul\":7175:7594   */\n      swap2\n      swap1\n      pop\n      jump\t// out\n\n    auxdata: 0xa2646970667358221220eae9f39c5e9d6b4403d9c80f9715b25f2be837b6e7c7fceee37fe317e551149964736f6c634300081a0033\n}\n",
				"bytecode": {
					"linkReferences": {},
					"object": "6080604052600a6001553480156013575f80fd5b50335f806101000a81548173ffffffffffffffffffffffffffffffffffffffff021916908373ffffffffffffffffffffffffffffffffffffffff16021790555061073f806100605f395ff3fe608060405234801561000f575f80fd5b5060043610610055575f3560e01c80630c55699c146100595780633a9ebefd146100775780638da5cb5b14610093578063a6f9dae1146100b1578063cf309012146100cd575b5f80fd5b6100616100eb565b60405161006e9190610380565b60405180910390f35b610091600480360381019061008c91906103c7565b6100f1565b005b61009b6101f4565b6040516100a89190610431565b60405180910390f35b6100cb60048036038101906100c69190610474565b610217565b005b6100d5610356565b6040516100e291906104b9565b60405180910390f35b60015481565b5f151560025f9054906101000a900460ff16151514610145576040517f08c379a000000000000000000000000000000000000000000000000000000000815260040161013c9061052c565b60405180910390fd5b600160025f6101000a81548160ff0219169083151502179055508060015410156101a4576040517f08c379a000000000000000000000000000000000000000000000000000000000815260040161019b90610594565b60405180910390fd5b5b5f8111156101d8578060015f8282546101be91906105df565b9250508190555080806101d090610612565b9150506101a5565b5f60025f6101000a81548160ff02191690831515021790555050565b5f8054906101000a900473ffffffffffffffffffffffffffffffffffffffff1681565b5f8054906101000a900473ffffffffffffffffffffffffffffffffffffffff1673ffffffffffffffffffffffffffffffffffffffff163373ffffffffffffffffffffffffffffffffffffffff16146102a4576040517f08c379a000000000000000000000000000000000000000000000000000000000815260040161029b90610683565b60405180910390fd5b805f73ffffffffffffffffffffffffffffffffffffffff168173ffffffffffffffffffffffffffffffffffffffff1603610313576040517f08c379a000000000000000000000000000000000000000000000000000000000815260040161030a906106eb565b60405180910390fd5b815f806101000a81548173ffffffffffffffffffffffffffffffffffffffff021916908373ffffffffffffffffffffffffffffffffffffffff1602179055505050565b60025f9054906101000a900460ff1681565b5f819050919050565b61037a81610368565b82525050565b5f6020820190506103935f830184610371565b92915050565b5f80fd5b6103a681610368565b81146103b0575f80fd5b50565b5f813590506103c18161039d565b92915050565b5f602082840312156103dc576103db610399565b5b5f6103e9848285016103b3565b91505092915050565b5f73ffffffffffffffffffffffffffffffffffffffff82169050919050565b5f61041b826103f2565b9050919050565b61042b81610411565b82525050565b5f6020820190506104445f830184610422565b92915050565b61045381610411565b811461045d575f80fd5b50565b5f8135905061046e8161044a565b92915050565b5f6020828403121561048957610488610399565b5b5f61049684828501610460565b91505092915050565b5f8115159050919050565b6104b38161049f565b82525050565b5f6020820190506104cc5f8301846104aa565b92915050565b5f82825260208201905092915050565b7f4e6f207265656e7472616e6379000000000000000000000000000000000000005f82015250565b5f610516600d836104d2565b9150610521826104e2565b602082019050919050565b5f6020820190508181035f8301526105438161050a565b9050919050565b7f556e646572666c6f77207269736b0000000000000000000000000000000000005f82015250565b5f61057e600e836104d2565b91506105898261054a565b602082019050919050565b5f6020820190508181035f8301526105ab81610572565b9050919050565b7f4e487b71000000000000000000000000000000000000000000000000000000005f52601160045260245ffd5b5f6105e982610368565b91506105f483610368565b925082820390508181111561060c5761060b6105b2565b5b92915050565b5f61061c82610368565b91505f820361062e5761062d6105b2565b5b600182039050919050565b7f4e6f74206f776e657200000000000000000000000000000000000000000000005f82015250565b5f61066d6009836104d2565b915061067882610639565b602082019050919050565b5f6020820190508181035f83015261069a81610661565b9050919050565b7f4e6f742076616c696420616464726573730000000000000000000000000000005f82015250565b5f6106d56011836104d2565b91506106e0826106a1565b602082019050919050565b5f6020820190508181035f830152610702816106c9565b905091905056fea2646970667358221220eae9f39c5e9d6b4403d9c80f9715b25f2be837b6e7c7fceee37fe317e551149964736f6c634300081a0033",
					"opcodes": "PUSH1 0x80 PUSH1 0x40 MSTORE PUSH1 0xA PUSH1 0x1 SSTORE CALLVALUE DUP1 ISZERO PUSH1 0x13 JUMPI PUSH0 DUP1 REVERT JUMPDEST POP CALLER PUSH0 DUP1 PUSH2 0x100 EXP DUP2 SLOAD DUP2 PUSH20 0xFFFFFFFFFFFFFFFFFFFFFFFFFFFFFFFFFFFFFFFF MUL NOT AND SWAP1 DUP4 PUSH20 0xFFFFFFFFFFFFFFFFFFFFFFFFFFFFFFFFFFFFFFFF AND MUL OR SWAP1 SSTORE POP PUSH2 0x73F DUP1 PUSH2 0x60 PUSH0 CODECOPY PUSH0 RETURN INVALID PUSH1 0x80 PUSH1 0x40 MSTORE CALLVALUE DUP1 ISZERO PUSH2 0xF JUMPI PUSH0 DUP1 REVERT JUMPDEST POP PUSH1 0x4 CALLDATASIZE LT PUSH2 0x55 JUMPI PUSH0 CALLDATALOAD PUSH1 0xE0 SHR DUP1 PUSH4 0xC55699C EQ PUSH2 0x59 JUMPI DUP1 PUSH4 0x3A9EBEFD EQ PUSH2 0x77 JUMPI DUP1 PUSH4 0x8DA5CB5B EQ PUSH2 0x93 JUMPI DUP1 PUSH4 0xA6F9DAE1 EQ PUSH2 0xB1 JUMPI DUP1 PUSH4 0xCF309012 EQ PUSH2 0xCD JUMPI JUMPDEST PUSH0 DUP1 REVERT JUMPDEST PUSH2 0x61 PUSH2 0xEB JUMP JUMPDEST PUSH1 0x40 MLOAD PUSH2 0x6E SWAP2 SWAP1 PUSH2 0x380 JUMP JUMPDEST PUSH1 0x40 MLOAD DUP1 SWAP2 SUB SWAP1 RETURN JUMPDEST PUSH2 0x91 PUSH1 0x4 DUP1 CALLDATASIZE SUB DUP2 ADD SWAP1 PUSH2 0x8C SWAP2 SWAP1 PUSH2 0x3C7 JUMP JUMPDEST PUSH2 0xF1 JUMP JUMPDEST STOP JUMPDEST PUSH2 0x9B PUSH2 0x1F4 JUMP JUMPDEST PUSH1 0x40 MLOAD PUSH2 0xA8 SWAP2 SWAP1 PUSH2 0x431 JUMP JUMPDEST PUSH1 0x40 MLOAD DUP1 SWAP2 SUB SWAP1 RETURN JUMPDEST PUSH2 0xCB PUSH1 0x4 DUP1 CALLDATASIZE SUB DUP2 ADD SWAP1 PUSH2 0xC6 SWAP2 SWAP1 PUSH2 0x474 JUMP JUMPDEST PUSH2 0x217 JUMP JUMPDEST STOP JUMPDEST PUSH2 0xD5 PUSH2 0x356 JUMP JUMPDEST PUSH1 0x40 MLOAD PUSH2 0xE2 SWAP2 SWAP1 PUSH2 0x4B9 JUMP JUMPDEST PUSH1 0x40 MLOAD DUP1 SWAP2 SUB SWAP1 RETURN JUMPDEST PUSH1 0x1 SLOAD DUP2 JUMP JUMPDEST PUSH0 ISZERO ISZERO PUSH1 0x2 PUSH0 SWAP1 SLOAD SWAP1 PUSH2 0x100 EXP SWAP1 DIV PUSH1 0xFF AND ISZERO ISZERO EQ PUSH2 0x145 JUMPI PUSH1 0x40 MLOAD PUSH32 0x8C379A000000000000000000000000000000000000000000000000000000000 DUP2 MSTORE PUSH1 0x4 ADD PUSH2 0x13C SWAP1 PUSH2 0x52C JUMP JUMPDEST PUSH1 0x40 MLOAD DUP1 SWAP2 SUB SWAP1 REVERT JUMPDEST PUSH1 0x1 PUSH1 0x2 PUSH0 PUSH2 0x100 EXP DUP2 SLOAD DUP2 PUSH1 0xFF MUL NOT AND SWAP1 DUP4 ISZERO ISZERO MUL OR SWAP1 SSTORE POP DUP1 PUSH1 0x1 SLOAD LT ISZERO PUSH2 0x1A4 JUMPI PUSH1 0x40 MLOAD PUSH32 0x8C379A000000000000000000000000000000000000000000000000000000000 DUP2 MSTORE PUSH1 0x4 ADD PUSH2 0x19B SWAP1 PUSH2 0x594 JUMP JUMPDEST PUSH1 0x40 MLOAD DUP1 SWAP2 SUB SWAP1 REVERT JUMPDEST JUMPDEST PUSH0 DUP2 GT ISZERO PUSH2 0x1D8 JUMPI DUP1 PUSH1 0x1 PUSH0 DUP3 DUP3 SLOAD PUSH2 0x1BE SWAP2 SWAP1 PUSH2 0x5DF JUMP JUMPDEST SWAP3 POP POP DUP2 SWAP1 SSTORE POP DUP1 DUP1 PUSH2 0x1D0 SWAP1 PUSH2 0x612 JUMP JUMPDEST SWAP2 POP POP PUSH2 0x1A5 JUMP JUMPDEST PUSH0 PUSH1 0x2 PUSH0 PUSH2 0x100 EXP DUP2 SLOAD DUP2 PUSH1 0xFF MUL NOT AND SWAP1 DUP4 ISZERO ISZERO MUL OR SWAP1 SSTORE POP POP JUMP JUMPDEST PUSH0 DUP1 SLOAD SWAP1 PUSH2 0x100 EXP SWAP1 DIV PUSH20 0xFFFFFFFFFFFFFFFFFFFFFFFFFFFFFFFFFFFFFFFF AND DUP2 JUMP JUMPDEST PUSH0 DUP1 SLOAD SWAP1 PUSH2 0x100 EXP SWAP1 DIV PUSH20 0xFFFFFFFFFFFFFFFFFFFFFFFFFFFFFFFFFFFFFFFF AND PUSH20 0xFFFFFFFFFFFFFFFFFFFFFFFFFFFFFFFFFFFFFFFF AND CALLER PUSH20 0xFFFFFFFFFFFFFFFFFFFFFFFFFFFFFFFFFFFFFFFF AND EQ PUSH2 0x2A4 JUMPI PUSH1 0x40 MLOAD PUSH32 0x8C379A000000000000000000000000000000000000000000000000000000000 DUP2 MSTORE PUSH1 0x4 ADD PUSH2 0x29B SWAP1 PUSH2 0x683 JUMP JUMPDEST PUSH1 0x40 MLOAD DUP1 SWAP2 SUB SWAP1 REVERT JUMPDEST DUP1 PUSH0 PUSH20 0xFFFFFFFFFFFFFFFFFFFFFFFFFFFFFFFFFFFFFFFF AND DUP2 PUSH20 0xFFFFFFFFFFFFFFFFFFFFFFFFFFFFFFFFFFFFFFFF AND SUB PUSH2 0x313 JUMPI PUSH1 0x40 MLOAD PUSH32 0x8C379A000000000000000000000000000000000000000000000000000000000 DUP2 MSTORE PUSH1 0x4 ADD PUSH2 0x30A SWAP1 PUSH2 0x6EB JUMP JUMPDEST PUSH1 0x40 MLOAD DUP1 SWAP2 SUB SWAP1 REVERT JUMPDEST DUP2 PUSH0 DUP1 PUSH2 0x100 EXP DUP2 SLOAD DUP2 PUSH20 0xFFFFFFFFFFFFFFFFFFFFFFFFFFFFFFFFFFFFFFFF MUL NOT AND SWAP1 DUP4 PUSH20 0xFFFFFFFFFFFFFFFFFFFFFFFFFFFFFFFFFFFFFFFF AND MUL OR SWAP1 SSTORE POP POP POP JUMP JUMPDEST PUSH1 0x2 PUSH0 SWAP1 SLOAD SWAP1 PUSH2 0x100 EXP SWAP1 DIV PUSH1 0xFF AND DUP2 JUMP JUMPDEST PUSH0 DUP2 SWAP1 POP SWAP2 SWAP1 POP JUMP JUMPDEST PUSH2 0x37A DUP2 PUSH2 0x368 JUMP JUMPDEST DUP3 MSTORE POP POP JUMP JUMPDEST PUSH0 PUSH1 0x20 DUP3 ADD SWAP1 POP PUSH2 0x393 PUSH0 DUP4 ADD DUP5 PUSH2 0x371 JUMP JUMPDEST SWAP3 SWAP2 POP POP JUMP JUMPDEST PUSH0 DUP1 REVERT JUMPDEST PUSH2 0x3A6 DUP2 PUSH2 0x368 JUMP JUMPDEST DUP2 EQ PUSH2 0x3B0 JUMPI PUSH0 DUP1 REVERT JUMPDEST POP JUMP JUMPDEST PUSH0 DUP2 CALLDATALOAD SWAP1 POP PUSH2 0x3C1 DUP2 PUSH2 0x39D JUMP JUMPDEST SWAP3 SWAP2 POP POP JUMP JUMPDEST PUSH0 PUSH1 0x20 DUP3 DUP5 SUB SLT ISZERO PUSH2 0x3DC JUMPI PUSH2 0x3DB PUSH2 0x399 JUMP JUMPDEST JUMPDEST PUSH0 PUSH2 0x3E9 DUP5 DUP3 DUP6 ADD PUSH2 0x3B3 JUMP JUMPDEST SWAP2 POP POP SWAP3 SWAP2 POP POP JUMP JUMPDEST PUSH0 PUSH20 0xFFFFFFFFFFFFFFFFFFFFFFFFFFFFFFFFFFFFFFFF DUP3 AND SWAP1 POP SWAP2 SWAP1 POP JUMP JUMPDEST PUSH0 PUSH2 0x41B DUP3 PUSH2 0x3F2 JUMP JUMPDEST SWAP1 POP SWAP2 SWAP1 POP JUMP JUMPDEST PUSH2 0x42B DUP2 PUSH2 0x411 JUMP JUMPDEST DUP3 MSTORE POP POP JUMP JUMPDEST PUSH0 PUSH1 0x20 DUP3 ADD SWAP1 POP PUSH2 0x444 PUSH0 DUP4 ADD DUP5 PUSH2 0x422 JUMP JUMPDEST SWAP3 SWAP2 POP POP JUMP JUMPDEST PUSH2 0x453 DUP2 PUSH2 0x411 JUMP JUMPDEST DUP2 EQ PUSH2 0x45D JUMPI PUSH0 DUP1 REVERT JUMPDEST POP JUMP JUMPDEST PUSH0 DUP2 CALLDATALOAD SWAP1 POP PUSH2 0x46E DUP2 PUSH2 0x44A JUMP JUMPDEST SWAP3 SWAP2 POP POP JUMP JUMPDEST PUSH0 PUSH1 0x20 DUP3 DUP5 SUB SLT ISZERO PUSH2 0x489 JUMPI PUSH2 0x488 PUSH2 0x399 JUMP JUMPDEST JUMPDEST PUSH0 PUSH2 0x496 DUP5 DUP3 DUP6 ADD PUSH2 0x460 JUMP JUMPDEST SWAP2 POP POP SWAP3 SWAP2 POP POP JUMP JUMPDEST PUSH0 DUP2 ISZERO ISZERO SWAP1 POP SWAP2 SWAP1 POP JUMP JUMPDEST PUSH2 0x4B3 DUP2 PUSH2 0x49F JUMP JUMPDEST DUP3 MSTORE POP POP JUMP JUMPDEST PUSH0 PUSH1 0x20 DUP3 ADD SWAP1 POP PUSH2 0x4CC PUSH0 DUP4 ADD DUP5 PUSH2 0x4AA JUMP JUMPDEST SWAP3 SWAP2 POP POP JUMP JUMPDEST PUSH0 DUP3 DUP3 MSTORE PUSH1 0x20 DUP3 ADD SWAP1 POP SWAP3 SWAP2 POP POP JUMP JUMPDEST PUSH32 0x4E6F207265656E7472616E637900000000000000000000000000000000000000 PUSH0 DUP3 ADD MSTORE POP JUMP JUMPDEST PUSH0 PUSH2 0x516 PUSH1 0xD DUP4 PUSH2 0x4D2 JUMP JUMPDEST SWAP2 POP PUSH2 0x521 DUP3 PUSH2 0x4E2 JUMP JUMPDEST PUSH1 0x20 DUP3 ADD SWAP1 POP SWAP2 SWAP1 POP JUMP JUMPDEST PUSH0 PUSH1 0x20 DUP3 ADD SWAP1 POP DUP2 DUP2 SUB PUSH0 DUP4 ADD MSTORE PUSH2 0x543 DUP2 PUSH2 0x50A JUMP JUMPDEST SWAP1 POP SWAP2 SWAP1 POP JUMP JUMPDEST PUSH32 0x556E646572666C6F77207269736B000000000000000000000000000000000000 PUSH0 DUP3 ADD MSTORE POP JUMP JUMPDEST PUSH0 PUSH2 0x57E PUSH1 0xE DUP4 PUSH2 0x4D2 JUMP JUMPDEST SWAP2 POP PUSH2 0x589 DUP3 PUSH2 0x54A JUMP JUMPDEST PUSH1 0x20 DUP3 ADD SWAP1 POP SWAP2 SWAP1 POP JUMP JUMPDEST PUSH0 PUSH1 0x20 DUP3 ADD SWAP1 POP DUP2 DUP2 SUB PUSH0 DUP4 ADD MSTORE PUSH2 0x5AB DUP2 PUSH2 0x572 JUMP JUMPDEST SWAP1 POP SWAP2 SWAP1 POP JUMP JUMPDEST PUSH32 0x4E487B7100000000000000000000000000000000000000000000000000000000 PUSH0 MSTORE PUSH1 0x11 PUSH1 0x4 MSTORE PUSH1 0x24 PUSH0 REVERT JUMPDEST PUSH0 PUSH2 0x5E9 DUP3 PUSH2 0x368 JUMP JUMPDEST SWAP2 POP PUSH2 0x5F4 DUP4 PUSH2 0x368 JUMP JUMPDEST SWAP3 POP DUP3 DUP3 SUB SWAP1 POP DUP2 DUP2 GT ISZERO PUSH2 0x60C JUMPI PUSH2 0x60B PUSH2 0x5B2 JUMP JUMPDEST JUMPDEST SWAP3 SWAP2 POP POP JUMP JUMPDEST PUSH0 PUSH2 0x61C DUP3 PUSH2 0x368 JUMP JUMPDEST SWAP2 POP PUSH0 DUP3 SUB PUSH2 0x62E JUMPI PUSH2 0x62D PUSH2 0x5B2 JUMP JUMPDEST JUMPDEST PUSH1 0x1 DUP3 SUB SWAP1 POP SWAP2 SWAP1 POP JUMP JUMPDEST PUSH32 0x4E6F74206F776E65720000000000000000000000000000000000000000000000 PUSH0 DUP3 ADD MSTORE POP JUMP JUMPDEST PUSH0 PUSH2 0x66D PUSH1 0x9 DUP4 PUSH2 0x4D2 JUMP JUMPDEST SWAP2 POP PUSH2 0x678 DUP3 PUSH2 0x639 JUMP JUMPDEST PUSH1 0x20 DUP3 ADD SWAP1 POP SWAP2 SWAP1 POP JUMP JUMPDEST PUSH0 PUSH1 0x20 DUP3 ADD SWAP1 POP DUP2 DUP2 SUB PUSH0 DUP4 ADD MSTORE PUSH2 0x69A DUP2 PUSH2 0x661 JUMP JUMPDEST SWAP1 POP SWAP2 SWAP1 POP JUMP JUMPDEST PUSH32 0x4E6F742076616C69642061646472657373000000000000000000000000000000 PUSH0 DUP3 ADD MSTORE POP JUMP JUMPDEST PUSH0 PUSH2 0x6D5 PUSH1 0x11 DUP4 PUSH2 0x4D2 JUMP JUMPDEST SWAP2 POP PUSH2 0x6E0 DUP3 PUSH2 0x6A1 JUMP JUMPDEST PUSH1 0x20 DUP3 ADD SWAP1 POP SWAP2 SWAP1 POP JUMP JUMPDEST PUSH0 PUSH1 0x20 DUP3 ADD SWAP1 POP DUP2 DUP2 SUB PUSH0 DUP4 ADD MSTORE PUSH2 0x702 DUP2 PUSH2 0x6C9 JUMP JUMPDEST SWAP1 POP SWAP2 SWAP1 POP JUMP INVALID LOG2 PUSH5 0x6970667358 0x22 SLT KECCAK256 0xEA 0xE9 RETURN SWAP13 MCOPY SWAP14 PUSH12 0x4403D9C80F9715B25F2BE837 0xB6 0xE7 0xC7 0xFC 0xEE 0xE3 PUSH32 0xE317E551149964736F6C634300081A0033000000000000000000000000000000 "
				},
				"gasEstimates": {
					"creation": {
						"codeDepositCost": "371000",
						"executionCost": "46774",
						"totalCost": "417774"
					},
					"external": {
						"changeOwner(address)": "26964",
						"decrement(uint256)": "infinite",
						"locked()": "2532",
						"owner()": "2527",
						"x()": "2403"
					}
				},
				"methodIdentifiers": {
					"changeOwner(address)": "a6f9dae1",
					"decrement(uint256)": "3a9ebefd",
					"locked()": "cf309012",
					"owner()": "8da5cb5b",
					"x()": "0c55699c"
				}
			},
			"storageLayout": {
				"storage": [
					{
						"astId": 3,
						"contract": "Function Modifier.sol:FunctionModifier",
						"label": "owner",
						"offset": 0,
						"slot": "0",
						"type": "t_address"
					},
					{
						"astId": 58,
						"contract": "Function Modifier.sol:FunctionModifier",
						"label": "x",
						"offset": 0,
						"slot": "1",
						"type": "t_uint256"
					},
					{
						"astId": 60,
						"contract": "Function Modifier.sol:FunctionModifier",
						"label": "locked",
						"offset": 0,
						"slot": "2",
						"type": "t_bool"
					}
				],
				"types": {
					"t_address": {
						"encoding": "inplace",
						"label": "address",
						"numberOfBytes": "20"
					},
					"t_bool": {
						"encoding": "inplace",
						"label": "bool",
						"numberOfBytes": "1"
					},
					"t_uint256": {
						"encoding": "inplace",
						"label": "uint256",
						"numberOfBytes": "32"
					}
				}
			},
			"userdoc": {
				"kind": "user",
				"methods": {},
				"version": 1
			}
		}
	}
}