{
	"Contract that Creates other Contracts.sol": {
		"CarFactory": {
			"abi": [
				{
					"inputs": [
						{
							"internalType": "uint256",
							"name": "",
							"type": "uint256"
						}
					],
					"name": "cars",
					"outputs": [
						{
							"internalType": "contract Car",
							"name": "",
							"type": "address"
						}
					],
					"stateMutability": "view",
					"type": "function"
				},
				{
					"inputs": [
						{
							"internalType": "address",
							"name": "_owner",
							"type": "address"
						},
						{
							"internalType": "string",
							"name": "_model",
							"type": "string"
						}
					],
					"name": "create",
					"outputs": [],
					"stateMutability": "nonpayable",
					"type": "function"
				},
				{
					"inputs": [
						{
							"internalType": "address",
							"name": "_owner",
							"type": "address"
						},
						{
							"internalType": "string",
							"name": "_model",
							"type": "string"
						},
						{
							"internalType": "bytes32",
							"name": "_salt",
							"type": "bytes32"
						}
					],
					"name": "create2",
					"outputs": [],
					"stateMutability": "nonpayable",
					"type": "function"
				},
				{
					"inputs": [
						{
							"internalType": "address",
							"name": "_owner",
							"type": "address"
						},
						{
							"internalType": "string",
							"name": "_model",
							"type": "string"
						},
						{
							"internalType": "bytes32",
							"name": "_salt",
							"type": "bytes32"
						}
					],
					"name": "create2AndSendEther",
					"outputs": [],
					"stateMutability": "payable",
					"type": "function"
				},
				{
					"inputs": [
						{
							"internalType": "address",
							"name": "_owner",
							"type": "address"
						},
						{
							"internalType": "string",
							"name": "_model",
							"type": "string"
						}
					],
					"name": "createAndSendEther",
					"outputs": [],
					"stateMutability": "payable",
					"type": "function"
				},
				{
					"inputs": [
						{
							"internalType": "uint256",
							"name": "_index",
							"type": "uint256"
						}
					],
					"name": "getCar",
					"outputs": [
						{
							"internalType": "address",
							"name": "owner",
							"type": "address"
						},
						{
							"internalType": "string",
							"name": "model",
							"type": "string"
						},
						{
							"internalType": "address",
							"name": "carAddr",
							"type": "address"
						},
						{
							"internalType": "uint256",
							"name": "balance",
							"type": "uint256"
						}
					],
					"stateMutability": "view",
					"type": "function"
				},
				{
					"inputs": [],
					"name": "getCarCount",
					"outputs": [
						{
							"internalType": "uint256",
							"name": "",
							"type": "uint256"
						}
					],
					"stateMutability": "view",
					"type": "function"
				}
			],
			"devdoc": {
				"kind": "dev",
				"methods": {},
				"version": 1
			},
			"evm": {
				"assembly": "    /* \"Contract that Creates other Contracts.sol\":305:1757  contract CarFactory{... */\n  mstore(0x40, 0x80)\n  callvalue\n  dup1\n  iszero\n  tag_1\n  jumpi\n  revert(0x00, 0x00)\ntag_1:\n  pop\n  dataSize(sub_0)\n  dup1\n  dataOffset(sub_0)\n  0x00\n  codecopy\n  0x00\n  return\nstop\n\nsub_0: assembly {\n        /* \"Contract that Creates other Contracts.sol\":305:1757  contract CarFactory{... */\n      mstore(0x40, 0x80)\n      jumpi(tag_1, lt(calldatasize, 0x04))\n      shr(0xe0, calldataload(0x00))\n      dup1\n      0xa15ab08d\n      gt\n      tag_9\n      jumpi\n      dup1\n      0xa15ab08d\n      eq\n      tag_5\n      jumpi\n      dup1\n      0xace276ee\n      eq\n      tag_6\n      jumpi\n      dup1\n      0xc33cd615\n      eq\n      tag_7\n      jumpi\n      dup1\n      0xf7746e36\n      eq\n      tag_8\n      jumpi\n      jump(tag_1)\n    tag_9:\n      dup1\n      0x27436b59\n      eq\n      tag_2\n      jumpi\n      dup1\n      0x3d4b3015\n      eq\n      tag_3\n      jumpi\n      dup1\n      0x5e8be190\n      eq\n      tag_4\n      jumpi\n    tag_1:\n      revert(0x00, 0x00)\n        /* \"Contract that Creates other Contracts.sol\":1670:1755  function getCarCount() public view returns (uint) {... */\n    tag_2:\n      callvalue\n      dup1\n      iszero\n      tag_10\n      jumpi\n      revert(0x00, 0x00)\n    tag_10:\n      pop\n      tag_11\n      tag_12\n      jump\t// in\n    tag_11:\n      mload(0x40)\n      tag_13\n      swap2\n      swap1\n      tag_14\n      jump\t// in\n    tag_13:\n      mload(0x40)\n      dup1\n      swap2\n      sub\n      swap1\n      return\n        /* \"Contract that Creates other Contracts.sol\":1220:1424  function create2AndSendEther(address _owner, string memory _model, bytes32 _salt) public payable {... */\n    tag_3:\n      tag_15\n      0x04\n      dup1\n      calldatasize\n      sub\n      dup2\n      add\n      swap1\n      tag_16\n      swap2\n      swap1\n      tag_17\n      jump\t// in\n    tag_16:\n      tag_18\n      jump\t// in\n    tag_15:\n      stop\n        /* \"Contract that Creates other Contracts.sol\":1429:1665  function getCar(uint _index) public view returns (address owner, string memory model, address carAddr, uint balance) {... */\n    tag_4:\n      callvalue\n      dup1\n      iszero\n      tag_19\n      jumpi\n      revert(0x00, 0x00)\n    tag_19:\n      pop\n      tag_20\n      0x04\n      dup1\n      calldatasize\n      sub\n      dup2\n      add\n      swap1\n      tag_21\n      swap2\n      swap1\n      tag_22\n      jump\t// in\n    tag_21:\n      tag_23\n      jump\t// in\n    tag_20:\n      mload(0x40)\n      tag_24\n      swap5\n      swap4\n      swap3\n      swap2\n      swap1\n      tag_25\n      jump\t// in\n    tag_24:\n      mload(0x40)\n      dup1\n      swap2\n      sub\n      swap1\n      return\n        /* \"Contract that Creates other Contracts.sol\":405:540  function create(address _owner, string memory _model) public {... */\n    tag_5:\n      callvalue\n      dup1\n      iszero\n      tag_26\n      jumpi\n      revert(0x00, 0x00)\n    tag_26:\n      pop\n      tag_27\n      0x04\n      dup1\n      calldatasize\n      sub\n      dup2\n      add\n      swap1\n      tag_28\n      swap2\n      swap1\n      tag_29\n      jump\t// in\n    tag_28:\n      tag_30\n      jump\t// in\n    tag_27:\n      stop\n        /* \"Contract that Creates other Contracts.sol\":913:1079  function create2(address _owner, string memory _model, bytes32 _salt) public {... */\n    tag_6:\n      callvalue\n      dup1\n      iszero\n      tag_31\n      jumpi\n      revert(0x00, 0x00)\n    tag_31:\n      pop\n      tag_32\n      0x04\n      dup1\n      calldatasize\n      sub\n      dup2\n      add\n      swap1\n      tag_33\n      swap2\n      swap1\n      tag_17\n      jump\t// in\n    tag_33:\n      tag_34\n      jump\t// in\n    tag_32:\n      stop\n        /* \"Contract that Creates other Contracts.sol\":614:789  function createAndSendEther(address _owner, string memory _model) public payable {... */\n    tag_7:\n      tag_35\n      0x04\n      dup1\n      calldatasize\n      sub\n      dup2\n      add\n      swap1\n      tag_36\n      swap2\n      swap1\n      tag_29\n      jump\t// in\n    tag_36:\n      tag_37\n      jump\t// in\n    tag_35:\n      stop\n        /* \"Contract that Creates other Contracts.sol\":330:347  Car[] public cars */\n    tag_8:\n      callvalue\n      dup1\n      iszero\n      tag_38\n      jumpi\n      revert(0x00, 0x00)\n    tag_38:\n      pop\n      tag_39\n      0x04\n      dup1\n      calldatasize\n      sub\n      dup2\n      add\n      swap1\n      tag_40\n      swap2\n      swap1\n      tag_22\n      jump\t// in\n    tag_40:\n      tag_41\n      jump\t// in\n    tag_39:\n      mload(0x40)\n      tag_42\n      swap2\n      swap1\n      tag_43\n      jump\t// in\n    tag_42:\n      mload(0x40)\n      dup1\n      swap2\n      sub\n      swap1\n      return\n        /* \"Contract that Creates other Contracts.sol\":1670:1755  function getCarCount() public view returns (uint) {... */\n    tag_12:\n        /* \"Contract that Creates other Contracts.sol\":1714:1718  uint */\n      0x00\n        /* \"Contract that Creates other Contracts.sol\":1737:1741  cars */\n      0x00\n        /* \"Contract that Creates other Contracts.sol\":1737:1748  cars.length */\n      dup1\n      sload\n      swap1\n      pop\n        /* \"Contract that Creates other Contracts.sol\":1730:1748  return cars.length */\n      swap1\n      pop\n        /* \"Contract that Creates other Contracts.sol\":1670:1755  function getCarCount() public view returns (uint) {... */\n      swap1\n      jump\t// out\n        /* \"Contract that Creates other Contracts.sol\":1220:1424  function create2AndSendEther(address _owner, string memory _model, bytes32 _salt) public payable {... */\n    tag_18:\n        /* \"Contract that Creates other Contracts.sol\":1327:1334  Car car */\n      0x00\n        /* \"Contract that Creates other Contracts.sol\":1354:1363  msg.value */\n      callvalue\n        /* \"Contract that Creates other Contracts.sol\":1371:1376  _salt */\n      dup3\n        /* \"Contract that Creates other Contracts.sol\":1337:1393  (new Car){value: msg.value, salt: _salt}(_owner, _model) */\n      swap1\n        /* \"Contract that Creates other Contracts.sol\":1378:1384  _owner */\n      dup6\n        /* \"Contract that Creates other Contracts.sol\":1386:1392  _model */\n      dup6\n        /* \"Contract that Creates other Contracts.sol\":1337:1393  (new Car){value: msg.value, salt: _salt}(_owner, _model) */\n      mload(0x40)\n      tag_46\n      swap1\n      tag_47\n      jump\t// in\n    tag_46:\n      tag_48\n      swap3\n      swap2\n      swap1\n      tag_49\n      jump\t// in\n    tag_48:\n      dup3\n      swap1\n      mload(0x40)\n      dup1\n      swap2\n      sub\n      swap1\n      dup4\n      create2\n      swap1\n      pop\n      swap1\n      pop\n      dup1\n      iszero\n      dup1\n      iszero\n      tag_50\n      jumpi\n      returndatacopy(0x00, 0x00, returndatasize)\n      revert(0x00, returndatasize)\n    tag_50:\n      pop\n        /* \"Contract that Creates other Contracts.sol\":1327:1393  Car car = (new Car){value: msg.value, salt: _salt}(_owner, _model) */\n      swap1\n      pop\n        /* \"Contract that Creates other Contracts.sol\":1403:1407  cars */\n      0x00\n        /* \"Contract that Creates other Contracts.sol\":1413:1416  car */\n      dup2\n        /* \"Contract that Creates other Contracts.sol\":1403:1417  cars.push(car) */\n      swap1\n      dup1\n      0x01\n      dup2\n      sload\n      add\n      dup1\n      dup3\n      sstore\n      dup1\n      swap2\n      pop\n      pop\n      0x01\n      swap1\n      sub\n      swap1\n      0x00\n      mstore\n      keccak256(0x00, 0x20)\n      add\n      0x00\n      swap1\n      swap2\n      swap1\n      swap2\n      swap1\n      swap2\n      0x0100\n      exp\n      dup2\n      sload\n      dup2\n      0xffffffffffffffffffffffffffffffffffffffff\n      mul\n      not\n      and\n      swap1\n      dup4\n      0xffffffffffffffffffffffffffffffffffffffff\n      and\n      mul\n      or\n      swap1\n      sstore\n      pop\n        /* \"Contract that Creates other Contracts.sol\":1317:1424  {... */\n      pop\n        /* \"Contract that Creates other Contracts.sol\":1220:1424  function create2AndSendEther(address _owner, string memory _model, bytes32 _salt) public payable {... */\n      pop\n      pop\n      pop\n      jump\t// out\n        /* \"Contract that Creates other Contracts.sol\":1429:1665  function getCar(uint _index) public view returns (address owner, string memory model, address carAddr, uint balance) {... */\n    tag_23:\n        /* \"Contract that Creates other Contracts.sol\":1479:1492  address owner */\n      0x00\n        /* \"Contract that Creates other Contracts.sol\":1494:1513  string memory model */\n      0x60\n        /* \"Contract that Creates other Contracts.sol\":1515:1530  address carAddr */\n      0x00\n        /* \"Contract that Creates other Contracts.sol\":1532:1544  uint balance */\n      0x00\n        /* \"Contract that Creates other Contracts.sol\":1556:1563  Car car */\n      0x00\n        /* \"Contract that Creates other Contracts.sol\":1566:1570  cars */\n      0x00\n        /* \"Contract that Creates other Contracts.sol\":1571:1577  _index */\n      dup7\n        /* \"Contract that Creates other Contracts.sol\":1566:1578  cars[_index] */\n      dup2\n      sload\n      dup2\n      lt\n      tag_53\n      jumpi\n      tag_54\n      tag_55\n      jump\t// in\n    tag_54:\n    tag_53:\n      swap1\n      0x00\n      mstore\n      keccak256(0x00, 0x20)\n      add\n      0x00\n      swap1\n      sload\n      swap1\n      0x0100\n      exp\n      swap1\n      div\n      0xffffffffffffffffffffffffffffffffffffffff\n      and\n        /* \"Contract that Creates other Contracts.sol\":1556:1578  Car car = cars[_index] */\n      swap1\n      pop\n        /* \"Contract that Creates other Contracts.sol\":1596:1599  car */\n      dup1\n        /* \"Contract that Creates other Contracts.sol\":1596:1605  car.owner */\n      0xffffffffffffffffffffffffffffffffffffffff\n      and\n      0x8da5cb5b\n        /* \"Contract that Creates other Contracts.sol\":1596:1607  car.owner() */\n      mload(0x40)\n      dup2\n      0xffffffff\n      and\n      0xe0\n      shl\n      dup2\n      mstore\n      0x04\n      add\n      0x20\n      mload(0x40)\n      dup1\n      dup4\n      sub\n      dup2\n      dup7\n      gas\n      staticcall\n      iszero\n      dup1\n      iszero\n      tag_58\n      jumpi\n      returndatacopy(0x00, 0x00, returndatasize)\n      revert(0x00, returndatasize)\n    tag_58:\n      pop\n      pop\n      pop\n      pop\n      mload(0x40)\n      returndatasize\n      not(0x1f)\n      0x1f\n      dup3\n      add\n      and\n      dup3\n      add\n      dup1\n      0x40\n      mstore\n      pop\n      dup2\n      add\n      swap1\n      tag_59\n      swap2\n      swap1\n      tag_60\n      jump\t// in\n    tag_59:\n        /* \"Contract that Creates other Contracts.sol\":1609:1612  car */\n      dup2\n        /* \"Contract that Creates other Contracts.sol\":1609:1618  car.model */\n      0xffffffffffffffffffffffffffffffffffffffff\n      and\n      0x0ad9d052\n        /* \"Contract that Creates other Contracts.sol\":1609:1620  car.model() */\n      mload(0x40)\n      dup2\n      0xffffffff\n      and\n      0xe0\n      shl\n      dup2\n      mstore\n      0x04\n      add\n      0x00\n      mload(0x40)\n      dup1\n      dup4\n      sub\n      dup2\n      dup7\n      gas\n      staticcall\n      iszero\n      dup1\n      iszero\n      tag_62\n      jumpi\n      returndatacopy(0x00, 0x00, returndatasize)\n      revert(0x00, returndatasize)\n    tag_62:\n      pop\n      pop\n      pop\n      pop\n      mload(0x40)\n      returndatasize\n      0x00\n      dup3\n      returndatacopy\n      returndatasize\n      not(0x1f)\n      0x1f\n      dup3\n      add\n      and\n      dup3\n      add\n      dup1\n      0x40\n      mstore\n      pop\n      dup2\n      add\n      swap1\n      tag_63\n      swap2\n      swap1\n      tag_64\n      jump\t// in\n    tag_63:\n        /* \"Contract that Creates other Contracts.sol\":1622:1625  car */\n      dup3\n        /* \"Contract that Creates other Contracts.sol\":1622:1633  car.carAddr */\n      0xffffffffffffffffffffffffffffffffffffffff\n      and\n      0x514fa676\n        /* \"Contract that Creates other Contracts.sol\":1622:1635  car.carAddr() */\n      mload(0x40)\n      dup2\n      0xffffffff\n      and\n      0xe0\n      shl\n      dup2\n      mstore\n      0x04\n      add\n      0x20\n      mload(0x40)\n      dup1\n      dup4\n      sub\n      dup2\n      dup7\n      gas\n      staticcall\n      iszero\n      dup1\n      iszero\n      tag_66\n      jumpi\n      returndatacopy(0x00, 0x00, returndatasize)\n      revert(0x00, returndatasize)\n    tag_66:\n      pop\n      pop\n      pop\n      pop\n      mload(0x40)\n      returndatasize\n      not(0x1f)\n      0x1f\n      dup3\n      add\n      and\n      dup3\n      add\n      dup1\n      0x40\n      mstore\n      pop\n      dup2\n      add\n      swap1\n      tag_67\n      swap2\n      swap1\n      tag_60\n      jump\t// in\n    tag_67:\n        /* \"Contract that Creates other Contracts.sol\":1645:1648  car */\n      dup4\n        /* \"Contract that Creates other Contracts.sol\":1637:1657  address(car).balance */\n      0xffffffffffffffffffffffffffffffffffffffff\n      and\n      balance\n        /* \"Contract that Creates other Contracts.sol\":1588:1658  return (car.owner(), car.model(), car.carAddr(), address(car).balance) */\n      swap5\n      pop\n      swap5\n      pop\n      swap5\n      pop\n      swap5\n      pop\n      pop\n        /* \"Contract that Creates other Contracts.sol\":1429:1665  function getCar(uint _index) public view returns (address owner, string memory model, address carAddr, uint balance) {... */\n      swap2\n      swap4\n      pop\n      swap2\n      swap4\n      jump\t// out\n        /* \"Contract that Creates other Contracts.sol\":405:540  function create(address _owner, string memory _model) public {... */\n    tag_30:\n        /* \"Contract that Creates other Contracts.sol\":476:483  Car car */\n      0x00\n        /* \"Contract that Creates other Contracts.sol\":494:500  _owner */\n      dup3\n        /* \"Contract that Creates other Contracts.sol\":502:508  _model */\n      dup3\n        /* \"Contract that Creates other Contracts.sol\":486:509  new Car(_owner, _model) */\n      mload(0x40)\n      tag_69\n      swap1\n      tag_47\n      jump\t// in\n    tag_69:\n      tag_70\n      swap3\n      swap2\n      swap1\n      tag_49\n      jump\t// in\n    tag_70:\n      mload(0x40)\n      dup1\n      swap2\n      sub\n      swap1\n      0x00\n      create\n      dup1\n      iszero\n      dup1\n      iszero\n      tag_71\n      jumpi\n      returndatacopy(0x00, 0x00, returndatasize)\n      revert(0x00, returndatasize)\n    tag_71:\n      pop\n        /* \"Contract that Creates other Contracts.sol\":476:509  Car car = new Car(_owner, _model) */\n      swap1\n      pop\n        /* \"Contract that Creates other Contracts.sol\":519:523  cars */\n      0x00\n        /* \"Contract that Creates other Contracts.sol\":529:532  car */\n      dup2\n        /* \"Contract that Creates other Contracts.sol\":519:533  cars.push(car) */\n      swap1\n      dup1\n      0x01\n      dup2\n      sload\n      add\n      dup1\n      dup3\n      sstore\n      dup1\n      swap2\n      pop\n      pop\n      0x01\n      swap1\n      sub\n      swap1\n      0x00\n      mstore\n      keccak256(0x00, 0x20)\n      add\n      0x00\n      swap1\n      swap2\n      swap1\n      swap2\n      swap1\n      swap2\n      0x0100\n      exp\n      dup2\n      sload\n      dup2\n      0xffffffffffffffffffffffffffffffffffffffff\n      mul\n      not\n      and\n      swap1\n      dup4\n      0xffffffffffffffffffffffffffffffffffffffff\n      and\n      mul\n      or\n      swap1\n      sstore\n      pop\n        /* \"Contract that Creates other Contracts.sol\":466:540  {... */\n      pop\n        /* \"Contract that Creates other Contracts.sol\":405:540  function create(address _owner, string memory _model) public {... */\n      pop\n      pop\n      jump\t// out\n        /* \"Contract that Creates other Contracts.sol\":913:1079  function create2(address _owner, string memory _model, bytes32 _salt) public {... */\n    tag_34:\n        /* \"Contract that Creates other Contracts.sol\":1000:1007  Car car */\n      0x00\n        /* \"Contract that Creates other Contracts.sol\":1026:1031  _salt */\n      dup2\n        /* \"Contract that Creates other Contracts.sol\":1033:1039  _owner */\n      dup5\n        /* \"Contract that Creates other Contracts.sol\":1041:1047  _model */\n      dup5\n        /* \"Contract that Creates other Contracts.sol\":1010:1048  (new Car){salt: _salt}(_owner, _model) */\n      mload(0x40)\n      tag_74\n      swap1\n      tag_47\n      jump\t// in\n    tag_74:\n      tag_75\n      swap3\n      swap2\n      swap1\n      tag_49\n      jump\t// in\n    tag_75:\n      dup2\n      swap1\n      mload(0x40)\n      dup1\n      swap2\n      sub\n      swap1\n      0x00\n      create2\n      swap1\n      pop\n      dup1\n      iszero\n      dup1\n      iszero\n      tag_76\n      jumpi\n      returndatacopy(0x00, 0x00, returndatasize)\n      revert(0x00, returndatasize)\n    tag_76:\n      pop\n        /* \"Contract that Creates other Contracts.sol\":1000:1048  Car car = (new Car){salt: _salt}(_owner, _model) */\n      swap1\n      pop\n        /* \"Contract that Creates other Contracts.sol\":1058:1062  cars */\n      0x00\n        /* \"Contract that Creates other Contracts.sol\":1068:1071  car */\n      dup2\n        /* \"Contract that Creates other Contracts.sol\":1058:1072  cars.push(car) */\n      swap1\n      dup1\n      0x01\n      dup2\n      sload\n      add\n      dup1\n      dup3\n      sstore\n      dup1\n      swap2\n      pop\n      pop\n      0x01\n      swap1\n      sub\n      swap1\n      0x00\n      mstore\n      keccak256(0x00, 0x20)\n      add\n      0x00\n      swap1\n      swap2\n      swap1\n      swap2\n      swap1\n      swap2\n      0x0100\n      exp\n      dup2\n      sload\n      dup2\n      0xffffffffffffffffffffffffffffffffffffffff\n      mul\n      not\n      and\n      swap1\n      dup4\n      0xffffffffffffffffffffffffffffffffffffffff\n      and\n      mul\n      or\n      swap1\n      sstore\n      pop\n        /* \"Contract that Creates other Contracts.sol\":990:1079  {... */\n      pop\n        /* \"Contract that Creates other Contracts.sol\":913:1079  function create2(address _owner, string memory _model, bytes32 _salt) public {... */\n      pop\n      pop\n      pop\n      jump\t// out\n        /* \"Contract that Creates other Contracts.sol\":614:789  function createAndSendEther(address _owner, string memory _model) public payable {... */\n    tag_37:\n        /* \"Contract that Creates other Contracts.sol\":705:712  Car car */\n      0x00\n        /* \"Contract that Creates other Contracts.sol\":732:741  msg.value */\n      callvalue\n        /* \"Contract that Creates other Contracts.sol\":743:749  _owner */\n      dup4\n        /* \"Contract that Creates other Contracts.sol\":751:757  _model */\n      dup4\n        /* \"Contract that Creates other Contracts.sol\":715:758  (new Car){value: msg.value}(_owner, _model) */\n      mload(0x40)\n      tag_79\n      swap1\n      tag_47\n      jump\t// in\n    tag_79:\n      tag_80\n      swap3\n      swap2\n      swap1\n      tag_49\n      jump\t// in\n    tag_80:\n      mload(0x40)\n      dup1\n      swap2\n      sub\n      swap1\n      dup3\n      create\n      swap1\n      pop\n      dup1\n      iszero\n      dup1\n      iszero\n      tag_81\n      jumpi\n      returndatacopy(0x00, 0x00, returndatasize)\n      revert(0x00, returndatasize)\n    tag_81:\n      pop\n        /* \"Contract that Creates other Contracts.sol\":705:758  Car car = (new Car){value: msg.value}(_owner, _model) */\n      swap1\n      pop\n        /* \"Contract that Creates other Contracts.sol\":768:772  cars */\n      0x00\n        /* \"Contract that Creates other Contracts.sol\":778:781  car */\n      dup2\n        /* \"Contract that Creates other Contracts.sol\":768:782  cars.push(car) */\n      swap1\n      dup1\n      0x01\n      dup2\n      sload\n      add\n      dup1\n      dup3\n      sstore\n      dup1\n      swap2\n      pop\n      pop\n      0x01\n      swap1\n      sub\n      swap1\n      0x00\n      mstore\n      keccak256(0x00, 0x20)\n      add\n      0x00\n      swap1\n      swap2\n      swap1\n      swap2\n      swap1\n      swap2\n      0x0100\n      exp\n      dup2\n      sload\n      dup2\n      0xffffffffffffffffffffffffffffffffffffffff\n      mul\n      not\n      and\n      swap1\n      dup4\n      0xffffffffffffffffffffffffffffffffffffffff\n      and\n      mul\n      or\n      swap1\n      sstore\n      pop\n        /* \"Contract that Creates other Contracts.sol\":695:789  {... */\n      pop\n        /* \"Contract that Creates other Contracts.sol\":614:789  function createAndSendEther(address _owner, string memory _model) public payable {... */\n      pop\n      pop\n      jump\t// out\n        /* \"Contract that Creates other Contracts.sol\":330:347  Car[] public cars */\n    tag_41:\n      0x00\n      dup2\n      dup2\n      sload\n      dup2\n      lt\n      tag_83\n      jumpi\n      0x00\n      dup1\n      revert\n    tag_83:\n      swap1\n      0x00\n      mstore\n      keccak256(0x00, 0x20)\n      add\n      0x00\n      swap2\n      pop\n      sload\n      swap1\n      0x0100\n      exp\n      swap1\n      div\n      0xffffffffffffffffffffffffffffffffffffffff\n      and\n      dup2\n      jump\t// out\n    tag_47:\n      dataSize(sub_0)\n      dup1\n      dataOffset(sub_0)\n      dup4\n      codecopy\n      add\n      swap1\n      jump\t// out\n        /* \"#utility.yul\":7:84   */\n    tag_85:\n        /* \"#utility.yul\":44:51   */\n      0x00\n        /* \"#utility.yul\":73:78   */\n      dup2\n        /* \"#utility.yul\":62:78   */\n      swap1\n      pop\n        /* \"#utility.yul\":7:84   */\n      swap2\n      swap1\n      pop\n      jump\t// out\n        /* \"#utility.yul\":90:208   */\n    tag_86:\n        /* \"#utility.yul\":177:201   */\n      tag_125\n        /* \"#utility.yul\":195:200   */\n      dup2\n        /* \"#utility.yul\":177:201   */\n      tag_85\n      jump\t// in\n    tag_125:\n        /* \"#utility.yul\":172:175   */\n      dup3\n        /* \"#utility.yul\":165:202   */\n      mstore\n        /* \"#utility.yul\":90:208   */\n      pop\n      pop\n      jump\t// out\n        /* \"#utility.yul\":214:436   */\n    tag_14:\n        /* \"#utility.yul\":307:311   */\n      0x00\n        /* \"#utility.yul\":345:347   */\n      0x20\n        /* \"#utility.yul\":334:343   */\n      dup3\n        /* \"#utility.yul\":330:348   */\n      add\n        /* \"#utility.yul\":322:348   */\n      swap1\n      pop\n        /* \"#utility.yul\":358:429   */\n      tag_127\n        /* \"#utility.yul\":426:427   */\n      0x00\n        /* \"#utility.yul\":415:424   */\n      dup4\n        /* \"#utility.yul\":411:428   */\n      add\n        /* \"#utility.yul\":402:408   */\n      dup5\n        /* \"#utility.yul\":358:429   */\n      tag_86\n      jump\t// in\n    tag_127:\n        /* \"#utility.yul\":214:436   */\n      swap3\n      swap2\n      pop\n      pop\n      jump\t// out\n        /* \"#utility.yul\":442:517   */\n    tag_87:\n        /* \"#utility.yul\":475:481   */\n      0x00\n        /* \"#utility.yul\":508:510   */\n      0x40\n        /* \"#utility.yul\":502:511   */\n      mload\n        /* \"#utility.yul\":492:511   */\n      swap1\n      pop\n        /* \"#utility.yul\":442:517   */\n      swap1\n      jump\t// out\n        /* \"#utility.yul\":523:640   */\n    tag_88:\n        /* \"#utility.yul\":632:633   */\n      0x00\n        /* \"#utility.yul\":629:630   */\n      0x00\n        /* \"#utility.yul\":622:634   */\n      revert\n        /* \"#utility.yul\":646:763   */\n    tag_89:\n        /* \"#utility.yul\":755:756   */\n      0x00\n        /* \"#utility.yul\":752:753   */\n      0x00\n        /* \"#utility.yul\":745:757   */\n      revert\n        /* \"#utility.yul\":769:895   */\n    tag_90:\n        /* \"#utility.yul\":806:813   */\n      0x00\n        /* \"#utility.yul\":846:888   */\n      0xffffffffffffffffffffffffffffffffffffffff\n        /* \"#utility.yul\":839:844   */\n      dup3\n        /* \"#utility.yul\":835:889   */\n      and\n        /* \"#utility.yul\":824:889   */\n      swap1\n      pop\n        /* \"#utility.yul\":769:895   */\n      swap2\n      swap1\n      pop\n      jump\t// out\n        /* \"#utility.yul\":901:997   */\n    tag_91:\n        /* \"#utility.yul\":938:945   */\n      0x00\n        /* \"#utility.yul\":967:991   */\n      tag_133\n        /* \"#utility.yul\":985:990   */\n      dup3\n        /* \"#utility.yul\":967:991   */\n      tag_90\n      jump\t// in\n    tag_133:\n        /* \"#utility.yul\":956:991   */\n      swap1\n      pop\n        /* \"#utility.yul\":901:997   */\n      swap2\n      swap1\n      pop\n      jump\t// out\n        /* \"#utility.yul\":1003:1125   */\n    tag_92:\n        /* \"#utility.yul\":1076:1100   */\n      tag_135\n        /* \"#utility.yul\":1094:1099   */\n      dup2\n        /* \"#utility.yul\":1076:1100   */\n      tag_91\n      jump\t// in\n    tag_135:\n        /* \"#utility.yul\":1069:1074   */\n      dup2\n        /* \"#utility.yul\":1066:1101   */\n      eq\n        /* \"#utility.yul\":1056:1119   */\n      tag_136\n      jumpi\n        /* \"#utility.yul\":1115:1116   */\n      0x00\n        /* \"#utility.yul\":1112:1113   */\n      0x00\n        /* \"#utility.yul\":1105:1117   */\n      revert\n        /* \"#utility.yul\":1056:1119   */\n    tag_136:\n        /* \"#utility.yul\":1003:1125   */\n      pop\n      jump\t// out\n        /* \"#utility.yul\":1131:1270   */\n    tag_93:\n        /* \"#utility.yul\":1177:1182   */\n      0x00\n        /* \"#utility.yul\":1215:1221   */\n      dup2\n        /* \"#utility.yul\":1202:1222   */\n      calldataload\n        /* \"#utility.yul\":1193:1222   */\n      swap1\n      pop\n        /* \"#utility.yul\":1231:1264   */\n      tag_138\n        /* \"#utility.yul\":1258:1263   */\n      dup2\n        /* \"#utility.yul\":1231:1264   */\n      tag_92\n      jump\t// in\n    tag_138:\n        /* \"#utility.yul\":1131:1270   */\n      swap3\n      swap2\n      pop\n      pop\n      jump\t// out\n        /* \"#utility.yul\":1276:1393   */\n    tag_94:\n        /* \"#utility.yul\":1385:1386   */\n      0x00\n        /* \"#utility.yul\":1382:1383   */\n      0x00\n        /* \"#utility.yul\":1375:1387   */\n      revert\n        /* \"#utility.yul\":1399:1516   */\n    tag_95:\n        /* \"#utility.yul\":1508:1509   */\n      0x00\n        /* \"#utility.yul\":1505:1506   */\n      0x00\n        /* \"#utility.yul\":1498:1510   */\n      revert\n        /* \"#utility.yul\":1522:1624   */\n    tag_96:\n        /* \"#utility.yul\":1563:1569   */\n      0x00\n        /* \"#utility.yul\":1614:1616   */\n      0x1f\n        /* \"#utility.yul\":1610:1617   */\n      not\n        /* \"#utility.yul\":1605:1607   */\n      0x1f\n        /* \"#utility.yul\":1598:1603   */\n      dup4\n        /* \"#utility.yul\":1594:1608   */\n      add\n        /* \"#utility.yul\":1590:1618   */\n      and\n        /* \"#utility.yul\":1580:1618   */\n      swap1\n      pop\n        /* \"#utility.yul\":1522:1624   */\n      swap2\n      swap1\n      pop\n      jump\t// out\n        /* \"#utility.yul\":1630:1810   */\n    tag_97:\n        /* \"#utility.yul\":1678:1755   */\n      0x4e487b7100000000000000000000000000000000000000000000000000000000\n        /* \"#utility.yul\":1675:1676   */\n      0x00\n        /* \"#utility.yul\":1668:1756   */\n      mstore\n        /* \"#utility.yul\":1775:1779   */\n      0x41\n        /* \"#utility.yul\":1772:1773   */\n      0x04\n        /* \"#utility.yul\":1765:1780   */\n      mstore\n        /* \"#utility.yul\":1799:1803   */\n      0x24\n        /* \"#utility.yul\":1796:1797   */\n      0x00\n        /* \"#utility.yul\":1789:1804   */\n      revert\n        /* \"#utility.yul\":1816:2097   */\n    tag_98:\n        /* \"#utility.yul\":1899:1926   */\n      tag_144\n        /* \"#utility.yul\":1921:1925   */\n      dup3\n        /* \"#utility.yul\":1899:1926   */\n      tag_96\n      jump\t// in\n    tag_144:\n        /* \"#utility.yul\":1891:1897   */\n      dup2\n        /* \"#utility.yul\":1887:1927   */\n      add\n        /* \"#utility.yul\":2029:2035   */\n      dup2\n        /* \"#utility.yul\":2017:2027   */\n      dup2\n        /* \"#utility.yul\":2014:2036   */\n      lt\n        /* \"#utility.yul\":1993:2011   */\n      0xffffffffffffffff\n        /* \"#utility.yul\":1981:1991   */\n      dup3\n        /* \"#utility.yul\":1978:2012   */\n      gt\n        /* \"#utility.yul\":1975:2037   */\n      or\n        /* \"#utility.yul\":1972:2060   */\n      iszero\n      tag_145\n      jumpi\n        /* \"#utility.yul\":2040:2058   */\n      tag_146\n      tag_97\n      jump\t// in\n    tag_146:\n        /* \"#utility.yul\":1972:2060   */\n    tag_145:\n        /* \"#utility.yul\":2080:2090   */\n      dup1\n        /* \"#utility.yul\":2076:2078   */\n      0x40\n        /* \"#utility.yul\":2069:2091   */\n      mstore\n        /* \"#utility.yul\":1859:2097   */\n      pop\n        /* \"#utility.yul\":1816:2097   */\n      pop\n      pop\n      jump\t// out\n        /* \"#utility.yul\":2103:2232   */\n    tag_99:\n        /* \"#utility.yul\":2137:2143   */\n      0x00\n        /* \"#utility.yul\":2164:2184   */\n      tag_148\n      tag_87\n      jump\t// in\n    tag_148:\n        /* \"#utility.yul\":2154:2184   */\n      swap1\n      pop\n        /* \"#utility.yul\":2193:2226   */\n      tag_149\n        /* \"#utility.yul\":2221:2225   */\n      dup3\n        /* \"#utility.yul\":2213:2219   */\n      dup3\n        /* \"#utility.yul\":2193:2226   */\n      tag_98\n      jump\t// in\n    tag_149:\n        /* \"#utility.yul\":2103:2232   */\n      swap2\n      swap1\n      pop\n      jump\t// out\n        /* \"#utility.yul\":2238:2546   */\n    tag_100:\n        /* \"#utility.yul\":2300:2304   */\n      0x00\n        /* \"#utility.yul\":2390:2408   */\n      0xffffffffffffffff\n        /* \"#utility.yul\":2382:2388   */\n      dup3\n        /* \"#utility.yul\":2379:2409   */\n      gt\n        /* \"#utility.yul\":2376:2432   */\n      iszero\n      tag_151\n      jumpi\n        /* \"#utility.yul\":2412:2430   */\n      tag_152\n      tag_97\n      jump\t// in\n    tag_152:\n        /* \"#utility.yul\":2376:2432   */\n    tag_151:\n        /* \"#utility.yul\":2450:2479   */\n      tag_153\n        /* \"#utility.yul\":2472:2478   */\n      dup3\n        /* \"#utility.yul\":2450:2479   */\n      tag_96\n      jump\t// in\n    tag_153:\n        /* \"#utility.yul\":2442:2479   */\n      swap1\n      pop\n        /* \"#utility.yul\":2534:2538   */\n      0x20\n        /* \"#utility.yul\":2528:2532   */\n      dup2\n        /* \"#utility.yul\":2524:2539   */\n      add\n        /* \"#utility.yul\":2516:2539   */\n      swap1\n      pop\n        /* \"#utility.yul\":2238:2546   */\n      swap2\n      swap1\n      pop\n      jump\t// out\n        /* \"#utility.yul\":2552:2700   */\n    tag_101:\n        /* \"#utility.yul\":2650:2656   */\n      dup3\n        /* \"#utility.yul\":2645:2648   */\n      dup2\n        /* \"#utility.yul\":2640:2643   */\n      dup4\n        /* \"#utility.yul\":2627:2657   */\n      calldatacopy\n        /* \"#utility.yul\":2691:2692   */\n      0x00\n        /* \"#utility.yul\":2682:2688   */\n      dup4\n        /* \"#utility.yul\":2677:2680   */\n      dup4\n        /* \"#utility.yul\":2673:2689   */\n      add\n        /* \"#utility.yul\":2666:2693   */\n      mstore\n        /* \"#utility.yul\":2552:2700   */\n      pop\n      pop\n      pop\n      jump\t// out\n        /* \"#utility.yul\":2706:3131   */\n    tag_102:\n        /* \"#utility.yul\":2784:2789   */\n      0x00\n        /* \"#utility.yul\":2809:2875   */\n      tag_156\n        /* \"#utility.yul\":2825:2874   */\n      tag_157\n        /* \"#utility.yul\":2867:2873   */\n      dup5\n        /* \"#utility.yul\":2825:2874   */\n      tag_100\n      jump\t// in\n    tag_157:\n        /* \"#utility.yul\":2809:2875   */\n      tag_99\n      jump\t// in\n    tag_156:\n        /* \"#utility.yul\":2800:2875   */\n      swap1\n      pop\n        /* \"#utility.yul\":2898:2904   */\n      dup3\n        /* \"#utility.yul\":2891:2896   */\n      dup2\n        /* \"#utility.yul\":2884:2905   */\n      mstore\n        /* \"#utility.yul\":2936:2940   */\n      0x20\n        /* \"#utility.yul\":2929:2934   */\n      dup2\n        /* \"#utility.yul\":2925:2941   */\n      add\n        /* \"#utility.yul\":2974:2977   */\n      dup5\n        /* \"#utility.yul\":2965:2971   */\n      dup5\n        /* \"#utility.yul\":2960:2963   */\n      dup5\n        /* \"#utility.yul\":2956:2972   */\n      add\n        /* \"#utility.yul\":2953:2978   */\n      gt\n        /* \"#utility.yul\":2950:3062   */\n      iszero\n      tag_158\n      jumpi\n        /* \"#utility.yul\":2981:3060   */\n      tag_159\n      tag_95\n      jump\t// in\n    tag_159:\n        /* \"#utility.yul\":2950:3062   */\n    tag_158:\n        /* \"#utility.yul\":3071:3125   */\n      tag_160\n        /* \"#utility.yul\":3118:3124   */\n      dup5\n        /* \"#utility.yul\":3113:3116   */\n      dup3\n        /* \"#utility.yul\":3108:3111   */\n      dup6\n        /* \"#utility.yul\":3071:3125   */\n      tag_101\n      jump\t// in\n    tag_160:\n        /* \"#utility.yul\":2790:3131   */\n      pop\n        /* \"#utility.yul\":2706:3131   */\n      swap4\n      swap3\n      pop\n      pop\n      pop\n      jump\t// out\n        /* \"#utility.yul\":3151:3491   */\n    tag_103:\n        /* \"#utility.yul\":3207:3212   */\n      0x00\n        /* \"#utility.yul\":3256:3259   */\n      dup3\n        /* \"#utility.yul\":3249:3253   */\n      0x1f\n        /* \"#utility.yul\":3241:3247   */\n      dup4\n        /* \"#utility.yul\":3237:3254   */\n      add\n        /* \"#utility.yul\":3233:3260   */\n      slt\n        /* \"#utility.yul\":3223:3345   */\n      tag_162\n      jumpi\n        /* \"#utility.yul\":3264:3343   */\n      tag_163\n      tag_94\n      jump\t// in\n    tag_163:\n        /* \"#utility.yul\":3223:3345   */\n    tag_162:\n        /* \"#utility.yul\":3381:3387   */\n      dup2\n        /* \"#utility.yul\":3368:3388   */\n      calldataload\n        /* \"#utility.yul\":3406:3485   */\n      tag_164\n        /* \"#utility.yul\":3481:3484   */\n      dup5\n        /* \"#utility.yul\":3473:3479   */\n      dup3\n        /* \"#utility.yul\":3466:3470   */\n      0x20\n        /* \"#utility.yul\":3458:3464   */\n      dup7\n        /* \"#utility.yul\":3454:3471   */\n      add\n        /* \"#utility.yul\":3406:3485   */\n      tag_102\n      jump\t// in\n    tag_164:\n        /* \"#utility.yul\":3397:3485   */\n      swap2\n      pop\n        /* \"#utility.yul\":3213:3491   */\n      pop\n        /* \"#utility.yul\":3151:3491   */\n      swap3\n      swap2\n      pop\n      pop\n      jump\t// out\n        /* \"#utility.yul\":3497:3574   */\n    tag_104:\n        /* \"#utility.yul\":3534:3541   */\n      0x00\n        /* \"#utility.yul\":3563:3568   */\n      dup2\n        /* \"#utility.yul\":3552:3568   */\n      swap1\n      pop\n        /* \"#utility.yul\":3497:3574   */\n      swap2\n      swap1\n      pop\n      jump\t// out\n        /* \"#utility.yul\":3580:3702   */\n    tag_105:\n        /* \"#utility.yul\":3653:3677   */\n      tag_167\n        /* \"#utility.yul\":3671:3676   */\n      dup2\n        /* \"#utility.yul\":3653:3677   */\n      tag_104\n      jump\t// in\n    tag_167:\n        /* \"#utility.yul\":3646:3651   */\n      dup2\n        /* \"#utility.yul\":3643:3678   */\n      eq\n        /* \"#utility.yul\":3633:3696   */\n      tag_168\n      jumpi\n        /* \"#utility.yul\":3692:3693   */\n      0x00\n        /* \"#utility.yul\":3689:3690   */\n      0x00\n        /* \"#utility.yul\":3682:3694   */\n      revert\n        /* \"#utility.yul\":3633:3696   */\n    tag_168:\n        /* \"#utility.yul\":3580:3702   */\n      pop\n      jump\t// out\n        /* \"#utility.yul\":3708:3847   */\n    tag_106:\n        /* \"#utility.yul\":3754:3759   */\n      0x00\n        /* \"#utility.yul\":3792:3798   */\n      dup2\n        /* \"#utility.yul\":3779:3799   */\n      calldataload\n        /* \"#utility.yul\":3770:3799   */\n      swap1\n      pop\n        /* \"#utility.yul\":3808:3841   */\n      tag_170\n        /* \"#utility.yul\":3835:3840   */\n      dup2\n        /* \"#utility.yul\":3808:3841   */\n      tag_105\n      jump\t// in\n    tag_170:\n        /* \"#utility.yul\":3708:3847   */\n      swap3\n      swap2\n      pop\n      pop\n      jump\t// out\n        /* \"#utility.yul\":3853:4652   */\n    tag_17:\n        /* \"#utility.yul\":3940:3946   */\n      0x00\n        /* \"#utility.yul\":3948:3954   */\n      0x00\n        /* \"#utility.yul\":3956:3962   */\n      0x00\n        /* \"#utility.yul\":4005:4007   */\n      0x60\n        /* \"#utility.yul\":3993:4002   */\n      dup5\n        /* \"#utility.yul\":3984:3991   */\n      dup7\n        /* \"#utility.yul\":3980:4003   */\n      sub\n        /* \"#utility.yul\":3976:4008   */\n      slt\n        /* \"#utility.yul\":3973:4092   */\n      iszero\n      tag_172\n      jumpi\n        /* \"#utility.yul\":4011:4090   */\n      tag_173\n      tag_88\n      jump\t// in\n    tag_173:\n        /* \"#utility.yul\":3973:4092   */\n    tag_172:\n        /* \"#utility.yul\":4131:4132   */\n      0x00\n        /* \"#utility.yul\":4156:4209   */\n      tag_174\n        /* \"#utility.yul\":4201:4208   */\n      dup7\n        /* \"#utility.yul\":4192:4198   */\n      dup3\n        /* \"#utility.yul\":4181:4190   */\n      dup8\n        /* \"#utility.yul\":4177:4199   */\n      add\n        /* \"#utility.yul\":4156:4209   */\n      tag_93\n      jump\t// in\n    tag_174:\n        /* \"#utility.yul\":4146:4209   */\n      swap4\n      pop\n        /* \"#utility.yul\":4102:4219   */\n      pop\n        /* \"#utility.yul\":4286:4288   */\n      0x20\n        /* \"#utility.yul\":4275:4284   */\n      dup5\n        /* \"#utility.yul\":4271:4289   */\n      add\n        /* \"#utility.yul\":4258:4290   */\n      calldataload\n        /* \"#utility.yul\":4317:4335   */\n      0xffffffffffffffff\n        /* \"#utility.yul\":4309:4315   */\n      dup2\n        /* \"#utility.yul\":4306:4336   */\n      gt\n        /* \"#utility.yul\":4303:4420   */\n      iszero\n      tag_175\n      jumpi\n        /* \"#utility.yul\":4339:4418   */\n      tag_176\n      tag_89\n      jump\t// in\n    tag_176:\n        /* \"#utility.yul\":4303:4420   */\n    tag_175:\n        /* \"#utility.yul\":4444:4507   */\n      tag_177\n        /* \"#utility.yul\":4499:4506   */\n      dup7\n        /* \"#utility.yul\":4490:4496   */\n      dup3\n        /* \"#utility.yul\":4479:4488   */\n      dup8\n        /* \"#utility.yul\":4475:4497   */\n      add\n        /* \"#utility.yul\":4444:4507   */\n      tag_103\n      jump\t// in\n    tag_177:\n        /* \"#utility.yul\":4434:4507   */\n      swap3\n      pop\n        /* \"#utility.yul\":4229:4517   */\n      pop\n        /* \"#utility.yul\":4556:4558   */\n      0x40\n        /* \"#utility.yul\":4582:4635   */\n      tag_178\n        /* \"#utility.yul\":4627:4634   */\n      dup7\n        /* \"#utility.yul\":4618:4624   */\n      dup3\n        /* \"#utility.yul\":4607:4616   */\n      dup8\n        /* \"#utility.yul\":4603:4625   */\n      add\n        /* \"#utility.yul\":4582:4635   */\n      tag_106\n      jump\t// in\n    tag_178:\n        /* \"#utility.yul\":4572:4635   */\n      swap2\n      pop\n        /* \"#utility.yul\":4527:4645   */\n      pop\n        /* \"#utility.yul\":3853:4652   */\n      swap3\n      pop\n      swap3\n      pop\n      swap3\n      jump\t// out\n        /* \"#utility.yul\":4658:4780   */\n    tag_107:\n        /* \"#utility.yul\":4731:4755   */\n      tag_180\n        /* \"#utility.yul\":4749:4754   */\n      dup2\n        /* \"#utility.yul\":4731:4755   */\n      tag_85\n      jump\t// in\n    tag_180:\n        /* \"#utility.yul\":4724:4729   */\n      dup2\n        /* \"#utility.yul\":4721:4756   */\n      eq\n        /* \"#utility.yul\":4711:4774   */\n      tag_181\n      jumpi\n        /* \"#utility.yul\":4770:4771   */\n      0x00\n        /* \"#utility.yul\":4767:4768   */\n      0x00\n        /* \"#utility.yul\":4760:4772   */\n      revert\n        /* \"#utility.yul\":4711:4774   */\n    tag_181:\n        /* \"#utility.yul\":4658:4780   */\n      pop\n      jump\t// out\n        /* \"#utility.yul\":4786:4925   */\n    tag_108:\n        /* \"#utility.yul\":4832:4837   */\n      0x00\n        /* \"#utility.yul\":4870:4876   */\n      dup2\n        /* \"#utility.yul\":4857:4877   */\n      calldataload\n        /* \"#utility.yul\":4848:4877   */\n      swap1\n      pop\n        /* \"#utility.yul\":4886:4919   */\n      tag_183\n        /* \"#utility.yul\":4913:4918   */\n      dup2\n        /* \"#utility.yul\":4886:4919   */\n      tag_107\n      jump\t// in\n    tag_183:\n        /* \"#utility.yul\":4786:4925   */\n      swap3\n      swap2\n      pop\n      pop\n      jump\t// out\n        /* \"#utility.yul\":4931:5260   */\n    tag_22:\n        /* \"#utility.yul\":4990:4996   */\n      0x00\n        /* \"#utility.yul\":5039:5041   */\n      0x20\n        /* \"#utility.yul\":5027:5036   */\n      dup3\n        /* \"#utility.yul\":5018:5025   */\n      dup5\n        /* \"#utility.yul\":5014:5037   */\n      sub\n        /* \"#utility.yul\":5010:5042   */\n      slt\n        /* \"#utility.yul\":5007:5126   */\n      iszero\n      tag_185\n      jumpi\n        /* \"#utility.yul\":5045:5124   */\n      tag_186\n      tag_88\n      jump\t// in\n    tag_186:\n        /* \"#utility.yul\":5007:5126   */\n    tag_185:\n        /* \"#utility.yul\":5165:5166   */\n      0x00\n        /* \"#utility.yul\":5190:5243   */\n      tag_187\n        /* \"#utility.yul\":5235:5242   */\n      dup5\n        /* \"#utility.yul\":5226:5232   */\n      dup3\n        /* \"#utility.yul\":5215:5224   */\n      dup6\n        /* \"#utility.yul\":5211:5233   */\n      add\n        /* \"#utility.yul\":5190:5243   */\n      tag_108\n      jump\t// in\n    tag_187:\n        /* \"#utility.yul\":5180:5243   */\n      swap2\n      pop\n        /* \"#utility.yul\":5136:5253   */\n      pop\n        /* \"#utility.yul\":4931:5260   */\n      swap3\n      swap2\n      pop\n      pop\n      jump\t// out\n        /* \"#utility.yul\":5266:5384   */\n    tag_109:\n        /* \"#utility.yul\":5353:5377   */\n      tag_189\n        /* \"#utility.yul\":5371:5376   */\n      dup2\n        /* \"#utility.yul\":5353:5377   */\n      tag_91\n      jump\t// in\n    tag_189:\n        /* \"#utility.yul\":5348:5351   */\n      dup3\n        /* \"#utility.yul\":5341:5378   */\n      mstore\n        /* \"#utility.yul\":5266:5384   */\n      pop\n      pop\n      jump\t// out\n        /* \"#utility.yul\":5390:5489   */\n    tag_110:\n        /* \"#utility.yul\":5442:5448   */\n      0x00\n        /* \"#utility.yul\":5476:5481   */\n      dup2\n        /* \"#utility.yul\":5470:5482   */\n      mload\n        /* \"#utility.yul\":5460:5482   */\n      swap1\n      pop\n        /* \"#utility.yul\":5390:5489   */\n      swap2\n      swap1\n      pop\n      jump\t// out\n        /* \"#utility.yul\":5495:5664   */\n    tag_111:\n        /* \"#utility.yul\":5579:5590   */\n      0x00\n        /* \"#utility.yul\":5613:5619   */\n      dup3\n        /* \"#utility.yul\":5608:5611   */\n      dup3\n        /* \"#utility.yul\":5601:5620   */\n      mstore\n        /* \"#utility.yul\":5653:5657   */\n      0x20\n        /* \"#utility.yul\":5648:5651   */\n      dup3\n        /* \"#utility.yul\":5644:5658   */\n      add\n        /* \"#utility.yul\":5629:5658   */\n      swap1\n      pop\n        /* \"#utility.yul\":5495:5664   */\n      swap3\n      swap2\n      pop\n      pop\n      jump\t// out\n        /* \"#utility.yul\":5670:5809   */\n    tag_112:\n        /* \"#utility.yul\":5759:5765   */\n      dup3\n        /* \"#utility.yul\":5754:5757   */\n      dup2\n        /* \"#utility.yul\":5749:5752   */\n      dup4\n        /* \"#utility.yul\":5743:5766   */\n      mcopy\n        /* \"#utility.yul\":5800:5801   */\n      0x00\n        /* \"#utility.yul\":5791:5797   */\n      dup4\n        /* \"#utility.yul\":5786:5789   */\n      dup4\n        /* \"#utility.yul\":5782:5798   */\n      add\n        /* \"#utility.yul\":5775:5802   */\n      mstore\n        /* \"#utility.yul\":5670:5809   */\n      pop\n      pop\n      pop\n      jump\t// out\n        /* \"#utility.yul\":5815:6192   */\n    tag_113:\n        /* \"#utility.yul\":5903:5906   */\n      0x00\n        /* \"#utility.yul\":5931:5970   */\n      tag_194\n        /* \"#utility.yul\":5964:5969   */\n      dup3\n        /* \"#utility.yul\":5931:5970   */\n      tag_110\n      jump\t// in\n    tag_194:\n        /* \"#utility.yul\":5986:6057   */\n      tag_195\n        /* \"#utility.yul\":6050:6056   */\n      dup2\n        /* \"#utility.yul\":6045:6048   */\n      dup6\n        /* \"#utility.yul\":5986:6057   */\n      tag_111\n      jump\t// in\n    tag_195:\n        /* \"#utility.yul\":5979:6057   */\n      swap4\n      pop\n        /* \"#utility.yul\":6066:6131   */\n      tag_196\n        /* \"#utility.yul\":6124:6130   */\n      dup2\n        /* \"#utility.yul\":6119:6122   */\n      dup6\n        /* \"#utility.yul\":6112:6116   */\n      0x20\n        /* \"#utility.yul\":6105:6110   */\n      dup7\n        /* \"#utility.yul\":6101:6117   */\n      add\n        /* \"#utility.yul\":6066:6131   */\n      tag_112\n      jump\t// in\n    tag_196:\n        /* \"#utility.yul\":6156:6185   */\n      tag_197\n        /* \"#utility.yul\":6178:6184   */\n      dup2\n        /* \"#utility.yul\":6156:6185   */\n      tag_96\n      jump\t// in\n    tag_197:\n        /* \"#utility.yul\":6151:6154   */\n      dup5\n        /* \"#utility.yul\":6147:6186   */\n      add\n        /* \"#utility.yul\":6140:6186   */\n      swap2\n      pop\n        /* \"#utility.yul\":5907:6192   */\n      pop\n        /* \"#utility.yul\":5815:6192   */\n      swap3\n      swap2\n      pop\n      pop\n      jump\t// out\n        /* \"#utility.yul\":6198:6842   */\n    tag_25:\n        /* \"#utility.yul\":6395:6399   */\n      0x00\n        /* \"#utility.yul\":6433:6436   */\n      0x80\n        /* \"#utility.yul\":6422:6431   */\n      dup3\n        /* \"#utility.yul\":6418:6437   */\n      add\n        /* \"#utility.yul\":6410:6437   */\n      swap1\n      pop\n        /* \"#utility.yul\":6447:6518   */\n      tag_199\n        /* \"#utility.yul\":6515:6516   */\n      0x00\n        /* \"#utility.yul\":6504:6513   */\n      dup4\n        /* \"#utility.yul\":6500:6517   */\n      add\n        /* \"#utility.yul\":6491:6497   */\n      dup8\n        /* \"#utility.yul\":6447:6518   */\n      tag_109\n      jump\t// in\n    tag_199:\n        /* \"#utility.yul\":6565:6574   */\n      dup2\n        /* \"#utility.yul\":6559:6563   */\n      dup2\n        /* \"#utility.yul\":6555:6575   */\n      sub\n        /* \"#utility.yul\":6550:6552   */\n      0x20\n        /* \"#utility.yul\":6539:6548   */\n      dup4\n        /* \"#utility.yul\":6535:6553   */\n      add\n        /* \"#utility.yul\":6528:6576   */\n      mstore\n        /* \"#utility.yul\":6593:6671   */\n      tag_200\n        /* \"#utility.yul\":6666:6670   */\n      dup2\n        /* \"#utility.yul\":6657:6663   */\n      dup7\n        /* \"#utility.yul\":6593:6671   */\n      tag_113\n      jump\t// in\n    tag_200:\n        /* \"#utility.yul\":6585:6671   */\n      swap1\n      pop\n        /* \"#utility.yul\":6681:6753   */\n      tag_201\n        /* \"#utility.yul\":6749:6751   */\n      0x40\n        /* \"#utility.yul\":6738:6747   */\n      dup4\n        /* \"#utility.yul\":6734:6752   */\n      add\n        /* \"#utility.yul\":6725:6731   */\n      dup6\n        /* \"#utility.yul\":6681:6753   */\n      tag_109\n      jump\t// in\n    tag_201:\n        /* \"#utility.yul\":6763:6835   */\n      tag_202\n        /* \"#utility.yul\":6831:6833   */\n      0x60\n        /* \"#utility.yul\":6820:6829   */\n      dup4\n        /* \"#utility.yul\":6816:6834   */\n      add\n        /* \"#utility.yul\":6807:6813   */\n      dup5\n        /* \"#utility.yul\":6763:6835   */\n      tag_86\n      jump\t// in\n    tag_202:\n        /* \"#utility.yul\":6198:6842   */\n      swap6\n      swap5\n      pop\n      pop\n      pop\n      pop\n      pop\n      jump\t// out\n        /* \"#utility.yul\":6848:7502   */\n    tag_29:\n        /* \"#utility.yul\":6926:6932   */\n      0x00\n        /* \"#utility.yul\":6934:6940   */\n      0x00\n        /* \"#utility.yul\":6983:6985   */\n      0x40\n        /* \"#utility.yul\":6971:6980   */\n      dup4\n        /* \"#utility.yul\":6962:6969   */\n      dup6\n        /* \"#utility.yul\":6958:6981   */\n      sub\n        /* \"#utility.yul\":6954:6986   */\n      slt\n        /* \"#utility.yul\":6951:7070   */\n      iszero\n      tag_204\n      jumpi\n        /* \"#utility.yul\":6989:7068   */\n      tag_205\n      tag_88\n      jump\t// in\n    tag_205:\n        /* \"#utility.yul\":6951:7070   */\n    tag_204:\n        /* \"#utility.yul\":7109:7110   */\n      0x00\n        /* \"#utility.yul\":7134:7187   */\n      tag_206\n        /* \"#utility.yul\":7179:7186   */\n      dup6\n        /* \"#utility.yul\":7170:7176   */\n      dup3\n        /* \"#utility.yul\":7159:7168   */\n      dup7\n        /* \"#utility.yul\":7155:7177   */\n      add\n        /* \"#utility.yul\":7134:7187   */\n      tag_93\n      jump\t// in\n    tag_206:\n        /* \"#utility.yul\":7124:7187   */\n      swap3\n      pop\n        /* \"#utility.yul\":7080:7197   */\n      pop\n        /* \"#utility.yul\":7264:7266   */\n      0x20\n        /* \"#utility.yul\":7253:7262   */\n      dup4\n        /* \"#utility.yul\":7249:7267   */\n      add\n        /* \"#utility.yul\":7236:7268   */\n      calldataload\n        /* \"#utility.yul\":7295:7313   */\n      0xffffffffffffffff\n        /* \"#utility.yul\":7287:7293   */\n      dup2\n        /* \"#utility.yul\":7284:7314   */\n      gt\n        /* \"#utility.yul\":7281:7398   */\n      iszero\n      tag_207\n      jumpi\n        /* \"#utility.yul\":7317:7396   */\n      tag_208\n      tag_89\n      jump\t// in\n    tag_208:\n        /* \"#utility.yul\":7281:7398   */\n    tag_207:\n        /* \"#utility.yul\":7422:7485   */\n      tag_209\n        /* \"#utility.yul\":7477:7484   */\n      dup6\n        /* \"#utility.yul\":7468:7474   */\n      dup3\n        /* \"#utility.yul\":7457:7466   */\n      dup7\n        /* \"#utility.yul\":7453:7475   */\n      add\n        /* \"#utility.yul\":7422:7485   */\n      tag_103\n      jump\t// in\n    tag_209:\n        /* \"#utility.yul\":7412:7485   */\n      swap2\n      pop\n        /* \"#utility.yul\":7207:7495   */\n      pop\n        /* \"#utility.yul\":6848:7502   */\n      swap3\n      pop\n      swap3\n      swap1\n      pop\n      jump\t// out\n        /* \"#utility.yul\":7508:7568   */\n    tag_114:\n        /* \"#utility.yul\":7536:7539   */\n      0x00\n        /* \"#utility.yul\":7557:7562   */\n      dup2\n        /* \"#utility.yul\":7550:7562   */\n      swap1\n      pop\n        /* \"#utility.yul\":7508:7568   */\n      swap2\n      swap1\n      pop\n      jump\t// out\n        /* \"#utility.yul\":7574:7716   */\n    tag_115:\n        /* \"#utility.yul\":7624:7633   */\n      0x00\n        /* \"#utility.yul\":7657:7710   */\n      tag_212\n        /* \"#utility.yul\":7675:7709   */\n      tag_213\n        /* \"#utility.yul\":7684:7708   */\n      tag_214\n        /* \"#utility.yul\":7702:7707   */\n      dup5\n        /* \"#utility.yul\":7684:7708   */\n      tag_90\n      jump\t// in\n    tag_214:\n        /* \"#utility.yul\":7675:7709   */\n      tag_114\n      jump\t// in\n    tag_213:\n        /* \"#utility.yul\":7657:7710   */\n      tag_90\n      jump\t// in\n    tag_212:\n        /* \"#utility.yul\":7644:7710   */\n      swap1\n      pop\n        /* \"#utility.yul\":7574:7716   */\n      swap2\n      swap1\n      pop\n      jump\t// out\n        /* \"#utility.yul\":7722:7848   */\n    tag_116:\n        /* \"#utility.yul\":7772:7781   */\n      0x00\n        /* \"#utility.yul\":7805:7842   */\n      tag_216\n        /* \"#utility.yul\":7836:7841   */\n      dup3\n        /* \"#utility.yul\":7805:7842   */\n      tag_115\n      jump\t// in\n    tag_216:\n        /* \"#utility.yul\":7792:7842   */\n      swap1\n      pop\n        /* \"#utility.yul\":7722:7848   */\n      swap2\n      swap1\n      pop\n      jump\t// out\n        /* \"#utility.yul\":7854:7990   */\n    tag_117:\n        /* \"#utility.yul\":7914:7923   */\n      0x00\n        /* \"#utility.yul\":7947:7984   */\n      tag_218\n        /* \"#utility.yul\":7978:7983   */\n      dup3\n        /* \"#utility.yul\":7947:7984   */\n      tag_116\n      jump\t// in\n    tag_218:\n        /* \"#utility.yul\":7934:7984   */\n      swap1\n      pop\n        /* \"#utility.yul\":7854:7990   */\n      swap2\n      swap1\n      pop\n      jump\t// out\n        /* \"#utility.yul\":7996:8147   */\n    tag_118:\n        /* \"#utility.yul\":8093:8140   */\n      tag_220\n        /* \"#utility.yul\":8134:8139   */\n      dup2\n        /* \"#utility.yul\":8093:8140   */\n      tag_117\n      jump\t// in\n    tag_220:\n        /* \"#utility.yul\":8088:8091   */\n      dup3\n        /* \"#utility.yul\":8081:8141   */\n      mstore\n        /* \"#utility.yul\":7996:8147   */\n      pop\n      pop\n      jump\t// out\n        /* \"#utility.yul\":8153:8395   */\n    tag_43:\n        /* \"#utility.yul\":8256:8260   */\n      0x00\n        /* \"#utility.yul\":8294:8296   */\n      0x20\n        /* \"#utility.yul\":8283:8292   */\n      dup3\n        /* \"#utility.yul\":8279:8297   */\n      add\n        /* \"#utility.yul\":8271:8297   */\n      swap1\n      pop\n        /* \"#utility.yul\":8307:8388   */\n      tag_222\n        /* \"#utility.yul\":8385:8386   */\n      0x00\n        /* \"#utility.yul\":8374:8383   */\n      dup4\n        /* \"#utility.yul\":8370:8387   */\n      add\n        /* \"#utility.yul\":8361:8367   */\n      dup5\n        /* \"#utility.yul\":8307:8388   */\n      tag_118\n      jump\t// in\n    tag_222:\n        /* \"#utility.yul\":8153:8395   */\n      swap3\n      swap2\n      pop\n      pop\n      jump\t// out\n        /* \"#utility.yul\":8401:8824   */\n    tag_49:\n        /* \"#utility.yul\":8542:8546   */\n      0x00\n        /* \"#utility.yul\":8580:8582   */\n      0x40\n        /* \"#utility.yul\":8569:8578   */\n      dup3\n        /* \"#utility.yul\":8565:8583   */\n      add\n        /* \"#utility.yul\":8557:8583   */\n      swap1\n      pop\n        /* \"#utility.yul\":8593:8664   */\n      tag_224\n        /* \"#utility.yul\":8661:8662   */\n      0x00\n        /* \"#utility.yul\":8650:8659   */\n      dup4\n        /* \"#utility.yul\":8646:8663   */\n      add\n        /* \"#utility.yul\":8637:8643   */\n      dup6\n        /* \"#utility.yul\":8593:8664   */\n      tag_109\n      jump\t// in\n    tag_224:\n        /* \"#utility.yul\":8711:8720   */\n      dup2\n        /* \"#utility.yul\":8705:8709   */\n      dup2\n        /* \"#utility.yul\":8701:8721   */\n      sub\n        /* \"#utility.yul\":8696:8698   */\n      0x20\n        /* \"#utility.yul\":8685:8694   */\n      dup4\n        /* \"#utility.yul\":8681:8699   */\n      add\n        /* \"#utility.yul\":8674:8722   */\n      mstore\n        /* \"#utility.yul\":8739:8817   */\n      tag_225\n        /* \"#utility.yul\":8812:8816   */\n      dup2\n        /* \"#utility.yul\":8803:8809   */\n      dup5\n        /* \"#utility.yul\":8739:8817   */\n      tag_113\n      jump\t// in\n    tag_225:\n        /* \"#utility.yul\":8731:8817   */\n      swap1\n      pop\n        /* \"#utility.yul\":8401:8824   */\n      swap4\n      swap3\n      pop\n      pop\n      pop\n      jump\t// out\n        /* \"#utility.yul\":8830:9010   */\n    tag_55:\n        /* \"#utility.yul\":8878:8955   */\n      0x4e487b7100000000000000000000000000000000000000000000000000000000\n        /* \"#utility.yul\":8875:8876   */\n      0x00\n        /* \"#utility.yul\":8868:8956   */\n      mstore\n        /* \"#utility.yul\":8975:8979   */\n      0x32\n        /* \"#utility.yul\":8972:8973   */\n      0x04\n        /* \"#utility.yul\":8965:8980   */\n      mstore\n        /* \"#utility.yul\":8999:9003   */\n      0x24\n        /* \"#utility.yul\":8996:8997   */\n      0x00\n        /* \"#utility.yul\":8989:9004   */\n      revert\n        /* \"#utility.yul\":9016:9159   */\n    tag_119:\n        /* \"#utility.yul\":9073:9078   */\n      0x00\n        /* \"#utility.yul\":9104:9110   */\n      dup2\n        /* \"#utility.yul\":9098:9111   */\n      mload\n        /* \"#utility.yul\":9089:9111   */\n      swap1\n      pop\n        /* \"#utility.yul\":9120:9153   */\n      tag_228\n        /* \"#utility.yul\":9147:9152   */\n      dup2\n        /* \"#utility.yul\":9120:9153   */\n      tag_92\n      jump\t// in\n    tag_228:\n        /* \"#utility.yul\":9016:9159   */\n      swap3\n      swap2\n      pop\n      pop\n      jump\t// out\n        /* \"#utility.yul\":9165:9516   */\n    tag_60:\n        /* \"#utility.yul\":9235:9241   */\n      0x00\n        /* \"#utility.yul\":9284:9286   */\n      0x20\n        /* \"#utility.yul\":9272:9281   */\n      dup3\n        /* \"#utility.yul\":9263:9270   */\n      dup5\n        /* \"#utility.yul\":9259:9282   */\n      sub\n        /* \"#utility.yul\":9255:9287   */\n      slt\n        /* \"#utility.yul\":9252:9371   */\n      iszero\n      tag_230\n      jumpi\n        /* \"#utility.yul\":9290:9369   */\n      tag_231\n      tag_88\n      jump\t// in\n    tag_231:\n        /* \"#utility.yul\":9252:9371   */\n    tag_230:\n        /* \"#utility.yul\":9410:9411   */\n      0x00\n        /* \"#utility.yul\":9435:9499   */\n      tag_232\n        /* \"#utility.yul\":9491:9498   */\n      dup5\n        /* \"#utility.yul\":9482:9488   */\n      dup3\n        /* \"#utility.yul\":9471:9480   */\n      dup6\n        /* \"#utility.yul\":9467:9489   */\n      add\n        /* \"#utility.yul\":9435:9499   */\n      tag_119\n      jump\t// in\n    tag_232:\n        /* \"#utility.yul\":9425:9499   */\n      swap2\n      pop\n        /* \"#utility.yul\":9381:9509   */\n      pop\n        /* \"#utility.yul\":9165:9516   */\n      swap3\n      swap2\n      pop\n      pop\n      jump\t// out\n        /* \"#utility.yul\":9522:9956   */\n    tag_120:\n        /* \"#utility.yul\":9611:9616   */\n      0x00\n        /* \"#utility.yul\":9636:9702   */\n      tag_234\n        /* \"#utility.yul\":9652:9701   */\n      tag_235\n        /* \"#utility.yul\":9694:9700   */\n      dup5\n        /* \"#utility.yul\":9652:9701   */\n      tag_100\n      jump\t// in\n    tag_235:\n        /* \"#utility.yul\":9636:9702   */\n      tag_99\n      jump\t// in\n    tag_234:\n        /* \"#utility.yul\":9627:9702   */\n      swap1\n      pop\n        /* \"#utility.yul\":9725:9731   */\n      dup3\n        /* \"#utility.yul\":9718:9723   */\n      dup2\n        /* \"#utility.yul\":9711:9732   */\n      mstore\n        /* \"#utility.yul\":9763:9767   */\n      0x20\n        /* \"#utility.yul\":9756:9761   */\n      dup2\n        /* \"#utility.yul\":9752:9768   */\n      add\n        /* \"#utility.yul\":9801:9804   */\n      dup5\n        /* \"#utility.yul\":9792:9798   */\n      dup5\n        /* \"#utility.yul\":9787:9790   */\n      dup5\n        /* \"#utility.yul\":9783:9799   */\n      add\n        /* \"#utility.yul\":9780:9805   */\n      gt\n        /* \"#utility.yul\":9777:9889   */\n      iszero\n      tag_236\n      jumpi\n        /* \"#utility.yul\":9808:9887   */\n      tag_237\n      tag_95\n      jump\t// in\n    tag_237:\n        /* \"#utility.yul\":9777:9889   */\n    tag_236:\n        /* \"#utility.yul\":9898:9950   */\n      tag_238\n        /* \"#utility.yul\":9943:9949   */\n      dup5\n        /* \"#utility.yul\":9938:9941   */\n      dup3\n        /* \"#utility.yul\":9933:9936   */\n      dup6\n        /* \"#utility.yul\":9898:9950   */\n      tag_112\n      jump\t// in\n    tag_238:\n        /* \"#utility.yul\":9617:9956   */\n      pop\n        /* \"#utility.yul\":9522:9956   */\n      swap4\n      swap3\n      pop\n      pop\n      pop\n      jump\t// out\n        /* \"#utility.yul\":9976:10331   */\n    tag_121:\n        /* \"#utility.yul\":10043:10048   */\n      0x00\n        /* \"#utility.yul\":10092:10095   */\n      dup3\n        /* \"#utility.yul\":10085:10089   */\n      0x1f\n        /* \"#utility.yul\":10077:10083   */\n      dup4\n        /* \"#utility.yul\":10073:10090   */\n      add\n        /* \"#utility.yul\":10069:10096   */\n      slt\n        /* \"#utility.yul\":10059:10181   */\n      tag_240\n      jumpi\n        /* \"#utility.yul\":10100:10179   */\n      tag_241\n      tag_94\n      jump\t// in\n    tag_241:\n        /* \"#utility.yul\":10059:10181   */\n    tag_240:\n        /* \"#utility.yul\":10210:10216   */\n      dup2\n        /* \"#utility.yul\":10204:10217   */\n      mload\n        /* \"#utility.yul\":10235:10325   */\n      tag_242\n        /* \"#utility.yul\":10321:10324   */\n      dup5\n        /* \"#utility.yul\":10313:10319   */\n      dup3\n        /* \"#utility.yul\":10306:10310   */\n      0x20\n        /* \"#utility.yul\":10298:10304   */\n      dup7\n        /* \"#utility.yul\":10294:10311   */\n      add\n        /* \"#utility.yul\":10235:10325   */\n      tag_120\n      jump\t// in\n    tag_242:\n        /* \"#utility.yul\":10226:10325   */\n      swap2\n      pop\n        /* \"#utility.yul\":10049:10331   */\n      pop\n        /* \"#utility.yul\":9976:10331   */\n      swap3\n      swap2\n      pop\n      pop\n      jump\t// out\n        /* \"#utility.yul\":10337:10861   */\n    tag_64:\n        /* \"#utility.yul\":10417:10423   */\n      0x00\n        /* \"#utility.yul\":10466:10468   */\n      0x20\n        /* \"#utility.yul\":10454:10463   */\n      dup3\n        /* \"#utility.yul\":10445:10452   */\n      dup5\n        /* \"#utility.yul\":10441:10464   */\n      sub\n        /* \"#utility.yul\":10437:10469   */\n      slt\n        /* \"#utility.yul\":10434:10553   */\n      iszero\n      tag_244\n      jumpi\n        /* \"#utility.yul\":10472:10551   */\n      tag_245\n      tag_88\n      jump\t// in\n    tag_245:\n        /* \"#utility.yul\":10434:10553   */\n    tag_244:\n        /* \"#utility.yul\":10613:10614   */\n      0x00\n        /* \"#utility.yul\":10602:10611   */\n      dup3\n        /* \"#utility.yul\":10598:10615   */\n      add\n        /* \"#utility.yul\":10592:10616   */\n      mload\n        /* \"#utility.yul\":10643:10661   */\n      0xffffffffffffffff\n        /* \"#utility.yul\":10635:10641   */\n      dup2\n        /* \"#utility.yul\":10632:10662   */\n      gt\n        /* \"#utility.yul\":10629:10746   */\n      iszero\n      tag_246\n      jumpi\n        /* \"#utility.yul\":10665:10744   */\n      tag_247\n      tag_89\n      jump\t// in\n    tag_247:\n        /* \"#utility.yul\":10629:10746   */\n    tag_246:\n        /* \"#utility.yul\":10770:10844   */\n      tag_248\n        /* \"#utility.yul\":10836:10843   */\n      dup5\n        /* \"#utility.yul\":10827:10833   */\n      dup3\n        /* \"#utility.yul\":10816:10825   */\n      dup6\n        /* \"#utility.yul\":10812:10834   */\n      add\n        /* \"#utility.yul\":10770:10844   */\n      tag_121\n      jump\t// in\n    tag_248:\n        /* \"#utility.yul\":10760:10844   */\n      swap2\n      pop\n        /* \"#utility.yul\":10563:10854   */\n      pop\n        /* \"#utility.yul\":10337:10861   */\n      swap3\n      swap2\n      pop\n      pop\n      jump\t// out\n    stop\n\n    sub_0: assembly {\n            /* \"Contract that Creates other Contracts.sol\":58:304  contract Car {... */\n          mstore(0x40, 0x80)\n            /* \"Contract that Creates other Contracts.sol\":156:302  constructor(address _owner, string memory _model) payable {... */\n          mload(0x40)\n          sub(codesize, bytecodeSize)\n          dup1\n          bytecodeSize\n          dup4\n          codecopy\n          dup2\n          dup2\n          add\n          0x40\n          mstore\n          dup2\n          add\n          swap1\n          tag_1\n          swap2\n          swap1\n          tag_2\n          jump\t// in\n        tag_1:\n            /* \"Contract that Creates other Contracts.sol\":232:238  _owner */\n          dup2\n            /* \"Contract that Creates other Contracts.sol\":224:229  owner */\n          0x00\n          0x00\n            /* \"Contract that Creates other Contracts.sol\":224:238  owner = _owner */\n          0x0100\n          exp\n          dup2\n          sload\n          dup2\n          0xffffffffffffffffffffffffffffffffffffffff\n          mul\n          not\n          and\n          swap1\n          dup4\n          0xffffffffffffffffffffffffffffffffffffffff\n          and\n          mul\n          or\n          swap1\n          sstore\n          pop\n            /* \"Contract that Creates other Contracts.sol\":256:262  _model */\n          dup1\n            /* \"Contract that Creates other Contracts.sol\":248:253  model */\n          0x01\n            /* \"Contract that Creates other Contracts.sol\":248:262  model = _model */\n          swap1\n          dup2\n          tag_5\n          swap2\n          swap1\n          tag_6\n          jump\t// in\n        tag_5:\n          pop\n            /* \"Contract that Creates other Contracts.sol\":290:294  this */\n          address\n            /* \"Contract that Creates other Contracts.sol\":272:279  carAddr */\n          0x02\n          0x00\n            /* \"Contract that Creates other Contracts.sol\":272:295  carAddr = address(this) */\n          0x0100\n          exp\n          dup2\n          sload\n          dup2\n          0xffffffffffffffffffffffffffffffffffffffff\n          mul\n          not\n          and\n          swap1\n          dup4\n          0xffffffffffffffffffffffffffffffffffffffff\n          and\n          mul\n          or\n          swap1\n          sstore\n          pop\n            /* \"Contract that Creates other Contracts.sol\":156:302  constructor(address _owner, string memory _model) payable {... */\n          pop\n          pop\n            /* \"Contract that Creates other Contracts.sol\":58:304  contract Car {... */\n          jump(tag_7)\n            /* \"#utility.yul\":7:82   */\n        tag_8:\n            /* \"#utility.yul\":40:46   */\n          0x00\n            /* \"#utility.yul\":73:75   */\n          0x40\n            /* \"#utility.yul\":67:76   */\n          mload\n            /* \"#utility.yul\":57:76   */\n          swap1\n          pop\n            /* \"#utility.yul\":7:82   */\n          swap1\n          jump\t// out\n            /* \"#utility.yul\":88:205   */\n        tag_9:\n            /* \"#utility.yul\":197:198   */\n          0x00\n            /* \"#utility.yul\":194:195   */\n          0x00\n            /* \"#utility.yul\":187:199   */\n          revert\n            /* \"#utility.yul\":211:328   */\n        tag_10:\n            /* \"#utility.yul\":320:321   */\n          0x00\n            /* \"#utility.yul\":317:318   */\n          0x00\n            /* \"#utility.yul\":310:322   */\n          revert\n            /* \"#utility.yul\":334:460   */\n        tag_11:\n            /* \"#utility.yul\":371:378   */\n          0x00\n            /* \"#utility.yul\":411:453   */\n          0xffffffffffffffffffffffffffffffffffffffff\n            /* \"#utility.yul\":404:409   */\n          dup3\n            /* \"#utility.yul\":400:454   */\n          and\n            /* \"#utility.yul\":389:454   */\n          swap1\n          pop\n            /* \"#utility.yul\":334:460   */\n          swap2\n          swap1\n          pop\n          jump\t// out\n            /* \"#utility.yul\":466:562   */\n        tag_12:\n            /* \"#utility.yul\":503:510   */\n          0x00\n            /* \"#utility.yul\":532:556   */\n          tag_50\n            /* \"#utility.yul\":550:555   */\n          dup3\n            /* \"#utility.yul\":532:556   */\n          tag_11\n          jump\t// in\n        tag_50:\n            /* \"#utility.yul\":521:556   */\n          swap1\n          pop\n            /* \"#utility.yul\":466:562   */\n          swap2\n          swap1\n          pop\n          jump\t// out\n            /* \"#utility.yul\":568:690   */\n        tag_13:\n            /* \"#utility.yul\":641:665   */\n          tag_52\n            /* \"#utility.yul\":659:664   */\n          dup2\n            /* \"#utility.yul\":641:665   */\n          tag_12\n          jump\t// in\n        tag_52:\n            /* \"#utility.yul\":634:639   */\n          dup2\n            /* \"#utility.yul\":631:666   */\n          eq\n            /* \"#utility.yul\":621:684   */\n          tag_53\n          jumpi\n            /* \"#utility.yul\":680:681   */\n          0x00\n            /* \"#utility.yul\":677:678   */\n          0x00\n            /* \"#utility.yul\":670:682   */\n          revert\n            /* \"#utility.yul\":621:684   */\n        tag_53:\n            /* \"#utility.yul\":568:690   */\n          pop\n          jump\t// out\n            /* \"#utility.yul\":696:839   */\n        tag_14:\n            /* \"#utility.yul\":753:758   */\n          0x00\n            /* \"#utility.yul\":784:790   */\n          dup2\n            /* \"#utility.yul\":778:791   */\n          mload\n            /* \"#utility.yul\":769:791   */\n          swap1\n          pop\n            /* \"#utility.yul\":800:833   */\n          tag_55\n            /* \"#utility.yul\":827:832   */\n          dup2\n            /* \"#utility.yul\":800:833   */\n          tag_13\n          jump\t// in\n        tag_55:\n            /* \"#utility.yul\":696:839   */\n          swap3\n          swap2\n          pop\n          pop\n          jump\t// out\n            /* \"#utility.yul\":845:962   */\n        tag_15:\n            /* \"#utility.yul\":954:955   */\n          0x00\n            /* \"#utility.yul\":951:952   */\n          0x00\n            /* \"#utility.yul\":944:956   */\n          revert\n            /* \"#utility.yul\":968:1085   */\n        tag_16:\n            /* \"#utility.yul\":1077:1078   */\n          0x00\n            /* \"#utility.yul\":1074:1075   */\n          0x00\n            /* \"#utility.yul\":1067:1079   */\n          revert\n            /* \"#utility.yul\":1091:1193   */\n        tag_17:\n            /* \"#utility.yul\":1132:1138   */\n          0x00\n            /* \"#utility.yul\":1183:1185   */\n          0x1f\n            /* \"#utility.yul\":1179:1186   */\n          not\n            /* \"#utility.yul\":1174:1176   */\n          0x1f\n            /* \"#utility.yul\":1167:1172   */\n          dup4\n            /* \"#utility.yul\":1163:1177   */\n          add\n            /* \"#utility.yul\":1159:1187   */\n          and\n            /* \"#utility.yul\":1149:1187   */\n          swap1\n          pop\n            /* \"#utility.yul\":1091:1193   */\n          swap2\n          swap1\n          pop\n          jump\t// out\n            /* \"#utility.yul\":1199:1379   */\n        tag_18:\n            /* \"#utility.yul\":1247:1324   */\n          0x4e487b7100000000000000000000000000000000000000000000000000000000\n            /* \"#utility.yul\":1244:1245   */\n          0x00\n            /* \"#utility.yul\":1237:1325   */\n          mstore\n            /* \"#utility.yul\":1344:1348   */\n          0x41\n            /* \"#utility.yul\":1341:1342   */\n          0x04\n            /* \"#utility.yul\":1334:1349   */\n          mstore\n            /* \"#utility.yul\":1368:1372   */\n          0x24\n            /* \"#utility.yul\":1365:1366   */\n          0x00\n            /* \"#utility.yul\":1358:1373   */\n          revert\n            /* \"#utility.yul\":1385:1666   */\n        tag_19:\n            /* \"#utility.yul\":1468:1495   */\n          tag_61\n            /* \"#utility.yul\":1490:1494   */\n          dup3\n            /* \"#utility.yul\":1468:1495   */\n          tag_17\n          jump\t// in\n        tag_61:\n            /* \"#utility.yul\":1460:1466   */\n          dup2\n            /* \"#utility.yul\":1456:1496   */\n          add\n            /* \"#utility.yul\":1598:1604   */\n          dup2\n            /* \"#utility.yul\":1586:1596   */\n          dup2\n            /* \"#utility.yul\":1583:1605   */\n          lt\n            /* \"#utility.yul\":1562:1580   */\n          0xffffffffffffffff\n            /* \"#utility.yul\":1550:1560   */\n          dup3\n            /* \"#utility.yul\":1547:1581   */\n          gt\n            /* \"#utility.yul\":1544:1606   */\n          or\n            /* \"#utility.yul\":1541:1629   */\n          iszero\n          tag_62\n          jumpi\n            /* \"#utility.yul\":1609:1627   */\n          tag_63\n          tag_18\n          jump\t// in\n        tag_63:\n            /* \"#utility.yul\":1541:1629   */\n        tag_62:\n            /* \"#utility.yul\":1649:1659   */\n          dup1\n            /* \"#utility.yul\":1645:1647   */\n          0x40\n            /* \"#utility.yul\":1638:1660   */\n          mstore\n            /* \"#utility.yul\":1428:1666   */\n          pop\n            /* \"#utility.yul\":1385:1666   */\n          pop\n          pop\n          jump\t// out\n            /* \"#utility.yul\":1672:1801   */\n        tag_20:\n            /* \"#utility.yul\":1706:1712   */\n          0x00\n            /* \"#utility.yul\":1733:1753   */\n          tag_65\n          tag_8\n          jump\t// in\n        tag_65:\n            /* \"#utility.yul\":1723:1753   */\n          swap1\n          pop\n            /* \"#utility.yul\":1762:1795   */\n          tag_66\n            /* \"#utility.yul\":1790:1794   */\n          dup3\n            /* \"#utility.yul\":1782:1788   */\n          dup3\n            /* \"#utility.yul\":1762:1795   */\n          tag_19\n          jump\t// in\n        tag_66:\n            /* \"#utility.yul\":1672:1801   */\n          swap2\n          swap1\n          pop\n          jump\t// out\n            /* \"#utility.yul\":1807:2115   */\n        tag_21:\n            /* \"#utility.yul\":1869:1873   */\n          0x00\n            /* \"#utility.yul\":1959:1977   */\n          0xffffffffffffffff\n            /* \"#utility.yul\":1951:1957   */\n          dup3\n            /* \"#utility.yul\":1948:1978   */\n          gt\n            /* \"#utility.yul\":1945:2001   */\n          iszero\n          tag_68\n          jumpi\n            /* \"#utility.yul\":1981:1999   */\n          tag_69\n          tag_18\n          jump\t// in\n        tag_69:\n            /* \"#utility.yul\":1945:2001   */\n        tag_68:\n            /* \"#utility.yul\":2019:2048   */\n          tag_70\n            /* \"#utility.yul\":2041:2047   */\n          dup3\n            /* \"#utility.yul\":2019:2048   */\n          tag_17\n          jump\t// in\n        tag_70:\n            /* \"#utility.yul\":2011:2048   */\n          swap1\n          pop\n            /* \"#utility.yul\":2103:2107   */\n          0x20\n            /* \"#utility.yul\":2097:2101   */\n          dup2\n            /* \"#utility.yul\":2093:2108   */\n          add\n            /* \"#utility.yul\":2085:2108   */\n          swap1\n          pop\n            /* \"#utility.yul\":1807:2115   */\n          swap2\n          swap1\n          pop\n          jump\t// out\n            /* \"#utility.yul\":2121:2260   */\n        tag_22:\n            /* \"#utility.yul\":2210:2216   */\n          dup3\n            /* \"#utility.yul\":2205:2208   */\n          dup2\n            /* \"#utility.yul\":2200:2203   */\n          dup4\n            /* \"#utility.yul\":2194:2217   */\n          mcopy\n            /* \"#utility.yul\":2251:2252   */\n          0x00\n            /* \"#utility.yul\":2242:2248   */\n          dup4\n            /* \"#utility.yul\":2237:2240   */\n          dup4\n            /* \"#utility.yul\":2233:2249   */\n          add\n            /* \"#utility.yul\":2226:2253   */\n          mstore\n            /* \"#utility.yul\":2121:2260   */\n          pop\n          pop\n          pop\n          jump\t// out\n            /* \"#utility.yul\":2266:2700   */\n        tag_23:\n            /* \"#utility.yul\":2355:2360   */\n          0x00\n            /* \"#utility.yul\":2380:2446   */\n          tag_73\n            /* \"#utility.yul\":2396:2445   */\n          tag_74\n            /* \"#utility.yul\":2438:2444   */\n          dup5\n            /* \"#utility.yul\":2396:2445   */\n          tag_21\n          jump\t// in\n        tag_74:\n            /* \"#utility.yul\":2380:2446   */\n          tag_20\n          jump\t// in\n        tag_73:\n            /* \"#utility.yul\":2371:2446   */\n          swap1\n          pop\n            /* \"#utility.yul\":2469:2475   */\n          dup3\n            /* \"#utility.yul\":2462:2467   */\n          dup2\n            /* \"#utility.yul\":2455:2476   */\n          mstore\n            /* \"#utility.yul\":2507:2511   */\n          0x20\n            /* \"#utility.yul\":2500:2505   */\n          dup2\n            /* \"#utility.yul\":2496:2512   */\n          add\n            /* \"#utility.yul\":2545:2548   */\n          dup5\n            /* \"#utility.yul\":2536:2542   */\n          dup5\n            /* \"#utility.yul\":2531:2534   */\n          dup5\n            /* \"#utility.yul\":2527:2543   */\n          add\n            /* \"#utility.yul\":2524:2549   */\n          gt\n            /* \"#utility.yul\":2521:2633   */\n          iszero\n          tag_75\n          jumpi\n            /* \"#utility.yul\":2552:2631   */\n          tag_76\n          tag_16\n          jump\t// in\n        tag_76:\n            /* \"#utility.yul\":2521:2633   */\n        tag_75:\n            /* \"#utility.yul\":2642:2694   */\n          tag_77\n            /* \"#utility.yul\":2687:2693   */\n          dup5\n            /* \"#utility.yul\":2682:2685   */\n          dup3\n            /* \"#utility.yul\":2677:2680   */\n          dup6\n            /* \"#utility.yul\":2642:2694   */\n          tag_22\n          jump\t// in\n        tag_77:\n            /* \"#utility.yul\":2361:2700   */\n          pop\n            /* \"#utility.yul\":2266:2700   */\n          swap4\n          swap3\n          pop\n          pop\n          pop\n          jump\t// out\n            /* \"#utility.yul\":2720:3075   */\n        tag_24:\n            /* \"#utility.yul\":2787:2792   */\n          0x00\n            /* \"#utility.yul\":2836:2839   */\n          dup3\n            /* \"#utility.yul\":2829:2833   */\n          0x1f\n            /* \"#utility.yul\":2821:2827   */\n          dup4\n            /* \"#utility.yul\":2817:2834   */\n          add\n            /* \"#utility.yul\":2813:2840   */\n          slt\n            /* \"#utility.yul\":2803:2925   */\n          tag_79\n          jumpi\n            /* \"#utility.yul\":2844:2923   */\n          tag_80\n          tag_15\n          jump\t// in\n        tag_80:\n            /* \"#utility.yul\":2803:2925   */\n        tag_79:\n            /* \"#utility.yul\":2954:2960   */\n          dup2\n            /* \"#utility.yul\":2948:2961   */\n          mload\n            /* \"#utility.yul\":2979:3069   */\n          tag_81\n            /* \"#utility.yul\":3065:3068   */\n          dup5\n            /* \"#utility.yul\":3057:3063   */\n          dup3\n            /* \"#utility.yul\":3050:3054   */\n          0x20\n            /* \"#utility.yul\":3042:3048   */\n          dup7\n            /* \"#utility.yul\":3038:3055   */\n          add\n            /* \"#utility.yul\":2979:3069   */\n          tag_23\n          jump\t// in\n        tag_81:\n            /* \"#utility.yul\":2970:3069   */\n          swap2\n          pop\n            /* \"#utility.yul\":2793:3075   */\n          pop\n            /* \"#utility.yul\":2720:3075   */\n          swap3\n          swap2\n          pop\n          pop\n          jump\t// out\n            /* \"#utility.yul\":3081:3761   */\n        tag_2:\n            /* \"#utility.yul\":3170:3176   */\n          0x00\n            /* \"#utility.yul\":3178:3184   */\n          0x00\n            /* \"#utility.yul\":3227:3229   */\n          0x40\n            /* \"#utility.yul\":3215:3224   */\n          dup4\n            /* \"#utility.yul\":3206:3213   */\n          dup6\n            /* \"#utility.yul\":3202:3225   */\n          sub\n            /* \"#utility.yul\":3198:3230   */\n          slt\n            /* \"#utility.yul\":3195:3314   */\n          iszero\n          tag_83\n          jumpi\n            /* \"#utility.yul\":3233:3312   */\n          tag_84\n          tag_9\n          jump\t// in\n        tag_84:\n            /* \"#utility.yul\":3195:3314   */\n        tag_83:\n            /* \"#utility.yul\":3353:3354   */\n          0x00\n            /* \"#utility.yul\":3378:3442   */\n          tag_85\n            /* \"#utility.yul\":3434:3441   */\n          dup6\n            /* \"#utility.yul\":3425:3431   */\n          dup3\n            /* \"#utility.yul\":3414:3423   */\n          dup7\n            /* \"#utility.yul\":3410:3432   */\n          add\n            /* \"#utility.yul\":3378:3442   */\n          tag_14\n          jump\t// in\n        tag_85:\n            /* \"#utility.yul\":3368:3442   */\n          swap3\n          pop\n            /* \"#utility.yul\":3324:3452   */\n          pop\n            /* \"#utility.yul\":3512:3514   */\n          0x20\n            /* \"#utility.yul\":3501:3510   */\n          dup4\n            /* \"#utility.yul\":3497:3515   */\n          add\n            /* \"#utility.yul\":3491:3516   */\n          mload\n            /* \"#utility.yul\":3543:3561   */\n          0xffffffffffffffff\n            /* \"#utility.yul\":3535:3541   */\n          dup2\n            /* \"#utility.yul\":3532:3562   */\n          gt\n            /* \"#utility.yul\":3529:3646   */\n          iszero\n          tag_86\n          jumpi\n            /* \"#utility.yul\":3565:3644   */\n          tag_87\n          tag_10\n          jump\t// in\n        tag_87:\n            /* \"#utility.yul\":3529:3646   */\n        tag_86:\n            /* \"#utility.yul\":3670:3744   */\n          tag_88\n            /* \"#utility.yul\":3736:3743   */\n          dup6\n            /* \"#utility.yul\":3727:3733   */\n          dup3\n            /* \"#utility.yul\":3716:3725   */\n          dup7\n            /* \"#utility.yul\":3712:3734   */\n          add\n            /* \"#utility.yul\":3670:3744   */\n          tag_24\n          jump\t// in\n        tag_88:\n            /* \"#utility.yul\":3660:3744   */\n          swap2\n          pop\n            /* \"#utility.yul\":3462:3754   */\n          pop\n            /* \"#utility.yul\":3081:3761   */\n          swap3\n          pop\n          swap3\n          swap1\n          pop\n          jump\t// out\n            /* \"#utility.yul\":3767:3866   */\n        tag_25:\n            /* \"#utility.yul\":3819:3825   */\n          0x00\n            /* \"#utility.yul\":3853:3858   */\n          dup2\n            /* \"#utility.yul\":3847:3859   */\n          mload\n            /* \"#utility.yul\":3837:3859   */\n          swap1\n          pop\n            /* \"#utility.yul\":3767:3866   */\n          swap2\n          swap1\n          pop\n          jump\t// out\n            /* \"#utility.yul\":3872:4052   */\n        tag_26:\n            /* \"#utility.yul\":3920:3997   */\n          0x4e487b7100000000000000000000000000000000000000000000000000000000\n            /* \"#utility.yul\":3917:3918   */\n          0x00\n            /* \"#utility.yul\":3910:3998   */\n          mstore\n            /* \"#utility.yul\":4017:4021   */\n          0x22\n            /* \"#utility.yul\":4014:4015   */\n          0x04\n            /* \"#utility.yul\":4007:4022   */\n          mstore\n            /* \"#utility.yul\":4041:4045   */\n          0x24\n            /* \"#utility.yul\":4038:4039   */\n          0x00\n            /* \"#utility.yul\":4031:4046   */\n          revert\n            /* \"#utility.yul\":4058:4378   */\n        tag_27:\n            /* \"#utility.yul\":4102:4108   */\n          0x00\n            /* \"#utility.yul\":4139:4140   */\n          0x02\n            /* \"#utility.yul\":4133:4137   */\n          dup3\n            /* \"#utility.yul\":4129:4141   */\n          div\n            /* \"#utility.yul\":4119:4141   */\n          swap1\n          pop\n            /* \"#utility.yul\":4186:4187   */\n          0x01\n            /* \"#utility.yul\":4180:4184   */\n          dup3\n            /* \"#utility.yul\":4176:4188   */\n          and\n            /* \"#utility.yul\":4207:4225   */\n          dup1\n            /* \"#utility.yul\":4197:4278   */\n          tag_92\n          jumpi\n            /* \"#utility.yul\":4263:4267   */\n          0x7f\n            /* \"#utility.yul\":4255:4261   */\n          dup3\n            /* \"#utility.yul\":4251:4268   */\n          and\n            /* \"#utility.yul\":4241:4268   */\n          swap2\n          pop\n            /* \"#utility.yul\":4197:4278   */\n        tag_92:\n            /* \"#utility.yul\":4325:4327   */\n          0x20\n            /* \"#utility.yul\":4317:4323   */\n          dup3\n            /* \"#utility.yul\":4314:4328   */\n          lt\n            /* \"#utility.yul\":4294:4312   */\n          dup2\n            /* \"#utility.yul\":4291:4329   */\n          sub\n            /* \"#utility.yul\":4288:4372   */\n          tag_93\n          jumpi\n            /* \"#utility.yul\":4344:4362   */\n          tag_94\n          tag_26\n          jump\t// in\n        tag_94:\n            /* \"#utility.yul\":4288:4372   */\n        tag_93:\n            /* \"#utility.yul\":4109:4378   */\n          pop\n            /* \"#utility.yul\":4058:4378   */\n          swap2\n          swap1\n          pop\n          jump\t// out\n            /* \"#utility.yul\":4384:4525   */\n        tag_28:\n            /* \"#utility.yul\":4433:4437   */\n          0x00\n            /* \"#utility.yul\":4456:4459   */\n          dup2\n            /* \"#utility.yul\":4448:4459   */\n          swap1\n          pop\n            /* \"#utility.yul\":4479:4482   */\n          dup2\n            /* \"#utility.yul\":4476:4477   */\n          0x00\n            /* \"#utility.yul\":4469:4483   */\n          mstore\n            /* \"#utility.yul\":4513:4517   */\n          0x20\n            /* \"#utility.yul\":4510:4511   */\n          0x00\n            /* \"#utility.yul\":4500:4518   */\n          keccak256\n            /* \"#utility.yul\":4492:4518   */\n          swap1\n          pop\n            /* \"#utility.yul\":4384:4525   */\n          swap2\n          swap1\n          pop\n          jump\t// out\n            /* \"#utility.yul\":4531:4624   */\n        tag_29:\n            /* \"#utility.yul\":4568:4574   */\n          0x00\n            /* \"#utility.yul\":4615:4617   */\n          0x20\n            /* \"#utility.yul\":4610:4612   */\n          0x1f\n            /* \"#utility.yul\":4603:4608   */\n          dup4\n            /* \"#utility.yul\":4599:4613   */\n          add\n            /* \"#utility.yul\":4595:4618   */\n          div\n            /* \"#utility.yul\":4585:4618   */\n          swap1\n          pop\n            /* \"#utility.yul\":4531:4624   */\n          swap2\n          swap1\n          pop\n          jump\t// out\n            /* \"#utility.yul\":4630:4737   */\n        tag_30:\n            /* \"#utility.yul\":4674:4682   */\n          0x00\n            /* \"#utility.yul\":4724:4729   */\n          dup3\n            /* \"#utility.yul\":4718:4722   */\n          dup3\n            /* \"#utility.yul\":4714:4730   */\n          shl\n            /* \"#utility.yul\":4693:4730   */\n          swap1\n          pop\n            /* \"#utility.yul\":4630:4737   */\n          swap3\n          swap2\n          pop\n          pop\n          jump\t// out\n            /* \"#utility.yul\":4743:5136   */\n        tag_31:\n            /* \"#utility.yul\":4812:4818   */\n          0x00\n            /* \"#utility.yul\":4862:4863   */\n          0x08\n            /* \"#utility.yul\":4850:4860   */\n          dup4\n            /* \"#utility.yul\":4846:4864   */\n          mul\n            /* \"#utility.yul\":4885:4982   */\n          tag_99\n            /* \"#utility.yul\":4915:4981   */\n          0xffffffffffffffffffffffffffffffffffffffffffffffffffffffffffffffff\n            /* \"#utility.yul\":4904:4913   */\n          dup3\n            /* \"#utility.yul\":4885:4982   */\n          tag_30\n          jump\t// in\n        tag_99:\n            /* \"#utility.yul\":5003:5042   */\n          tag_100\n            /* \"#utility.yul\":5033:5041   */\n          dup7\n            /* \"#utility.yul\":5022:5031   */\n          dup4\n            /* \"#utility.yul\":5003:5042   */\n          tag_30\n          jump\t// in\n        tag_100:\n            /* \"#utility.yul\":4991:5042   */\n          swap6\n          pop\n            /* \"#utility.yul\":5075:5079   */\n          dup1\n            /* \"#utility.yul\":5071:5080   */\n          not\n            /* \"#utility.yul\":5064:5069   */\n          dup5\n            /* \"#utility.yul\":5060:5081   */\n          and\n            /* \"#utility.yul\":5051:5081   */\n          swap4\n          pop\n            /* \"#utility.yul\":5124:5128   */\n          dup1\n            /* \"#utility.yul\":5114:5122   */\n          dup7\n            /* \"#utility.yul\":5110:5129   */\n          and\n            /* \"#utility.yul\":5103:5108   */\n          dup5\n            /* \"#utility.yul\":5100:5130   */\n          or\n            /* \"#utility.yul\":5090:5130   */\n          swap3\n          pop\n            /* \"#utility.yul\":4819:5136   */\n          pop\n          pop\n            /* \"#utility.yul\":4743:5136   */\n          swap4\n          swap3\n          pop\n          pop\n          pop\n          jump\t// out\n            /* \"#utility.yul\":5142:5219   */\n        tag_32:\n            /* \"#utility.yul\":5179:5186   */\n          0x00\n            /* \"#utility.yul\":5208:5213   */\n          dup2\n            /* \"#utility.yul\":5197:5213   */\n          swap1\n          pop\n            /* \"#utility.yul\":5142:5219   */\n          swap2\n          swap1\n          pop\n          jump\t// out\n            /* \"#utility.yul\":5225:5285   */\n        tag_33:\n            /* \"#utility.yul\":5253:5256   */\n          0x00\n            /* \"#utility.yul\":5274:5279   */\n          dup2\n            /* \"#utility.yul\":5267:5279   */\n          swap1\n          pop\n            /* \"#utility.yul\":5225:5285   */\n          swap2\n          swap1\n          pop\n          jump\t// out\n            /* \"#utility.yul\":5291:5433   */\n        tag_34:\n            /* \"#utility.yul\":5341:5350   */\n          0x00\n            /* \"#utility.yul\":5374:5427   */\n          tag_104\n            /* \"#utility.yul\":5392:5426   */\n          tag_105\n            /* \"#utility.yul\":5401:5425   */\n          tag_106\n            /* \"#utility.yul\":5419:5424   */\n          dup5\n            /* \"#utility.yul\":5401:5425   */\n          tag_32\n          jump\t// in\n        tag_106:\n            /* \"#utility.yul\":5392:5426   */\n          tag_33\n          jump\t// in\n        tag_105:\n            /* \"#utility.yul\":5374:5427   */\n          tag_32\n          jump\t// in\n        tag_104:\n            /* \"#utility.yul\":5361:5427   */\n          swap1\n          pop\n            /* \"#utility.yul\":5291:5433   */\n          swap2\n          swap1\n          pop\n          jump\t// out\n            /* \"#utility.yul\":5439:5514   */\n        tag_35:\n            /* \"#utility.yul\":5482:5485   */\n          0x00\n            /* \"#utility.yul\":5503:5508   */\n          dup2\n            /* \"#utility.yul\":5496:5508   */\n          swap1\n          pop\n            /* \"#utility.yul\":5439:5514   */\n          swap2\n          swap1\n          pop\n          jump\t// out\n            /* \"#utility.yul\":5520:5789   */\n        tag_36:\n            /* \"#utility.yul\":5630:5669   */\n          tag_109\n            /* \"#utility.yul\":5661:5668   */\n          dup4\n            /* \"#utility.yul\":5630:5669   */\n          tag_34\n          jump\t// in\n        tag_109:\n            /* \"#utility.yul\":5691:5782   */\n          tag_110\n            /* \"#utility.yul\":5740:5781   */\n          tag_111\n            /* \"#utility.yul\":5764:5780   */\n          dup3\n            /* \"#utility.yul\":5740:5781   */\n          tag_35\n          jump\t// in\n        tag_111:\n            /* \"#utility.yul\":5732:5738   */\n          dup5\n            /* \"#utility.yul\":5725:5729   */\n          dup5\n            /* \"#utility.yul\":5719:5730   */\n          sload\n            /* \"#utility.yul\":5691:5782   */\n          tag_31\n          jump\t// in\n        tag_110:\n            /* \"#utility.yul\":5685:5689   */\n          dup3\n            /* \"#utility.yul\":5678:5783   */\n          sstore\n            /* \"#utility.yul\":5596:5789   */\n          pop\n            /* \"#utility.yul\":5520:5789   */\n          pop\n          pop\n          pop\n          jump\t// out\n            /* \"#utility.yul\":5795:5868   */\n        tag_37:\n            /* \"#utility.yul\":5840:5843   */\n          0x00\n            /* \"#utility.yul\":5861:5862   */\n          0x00\n            /* \"#utility.yul\":5854:5862   */\n          swap1\n          pop\n            /* \"#utility.yul\":5795:5868   */\n          swap1\n          jump\t// out\n            /* \"#utility.yul\":5874:6063   */\n        tag_38:\n            /* \"#utility.yul\":5951:5983   */\n          tag_114\n          tag_37\n          jump\t// in\n        tag_114:\n            /* \"#utility.yul\":5992:6057   */\n          tag_115\n            /* \"#utility.yul\":6050:6056   */\n          dup2\n            /* \"#utility.yul\":6042:6048   */\n          dup5\n            /* \"#utility.yul\":6036:6040   */\n          dup5\n            /* \"#utility.yul\":5992:6057   */\n          tag_36\n          jump\t// in\n        tag_115:\n            /* \"#utility.yul\":5927:6063   */\n          pop\n            /* \"#utility.yul\":5874:6063   */\n          pop\n          pop\n          jump\t// out\n            /* \"#utility.yul\":6069:6255   */\n        tag_39:\n            /* \"#utility.yul\":6129:6249   */\n        tag_117:\n            /* \"#utility.yul\":6146:6149   */\n          dup2\n            /* \"#utility.yul\":6139:6144   */\n          dup2\n            /* \"#utility.yul\":6136:6150   */\n          lt\n            /* \"#utility.yul\":6129:6249   */\n          iszero\n          tag_119\n          jumpi\n            /* \"#utility.yul\":6200:6239   */\n          tag_120\n            /* \"#utility.yul\":6237:6238   */\n          0x00\n            /* \"#utility.yul\":6230:6235   */\n          dup3\n            /* \"#utility.yul\":6200:6239   */\n          tag_38\n          jump\t// in\n        tag_120:\n            /* \"#utility.yul\":6173:6174   */\n          0x01\n            /* \"#utility.yul\":6166:6171   */\n          dup2\n            /* \"#utility.yul\":6162:6175   */\n          add\n            /* \"#utility.yul\":6153:6175   */\n          swap1\n          pop\n            /* \"#utility.yul\":6129:6249   */\n          jump(tag_117)\n        tag_119:\n            /* \"#utility.yul\":6069:6255   */\n          pop\n          pop\n          jump\t// out\n            /* \"#utility.yul\":6261:6804   */\n        tag_40:\n            /* \"#utility.yul\":6362:6364   */\n          0x1f\n            /* \"#utility.yul\":6357:6360   */\n          dup3\n            /* \"#utility.yul\":6354:6365   */\n          gt\n            /* \"#utility.yul\":6351:6797   */\n          iszero\n          tag_122\n          jumpi\n            /* \"#utility.yul\":6396:6434   */\n          tag_123\n            /* \"#utility.yul\":6428:6433   */\n          dup2\n            /* \"#utility.yul\":6396:6434   */\n          tag_28\n          jump\t// in\n        tag_123:\n            /* \"#utility.yul\":6480:6509   */\n          tag_124\n            /* \"#utility.yul\":6498:6508   */\n          dup5\n            /* \"#utility.yul\":6480:6509   */\n          tag_29\n          jump\t// in\n        tag_124:\n            /* \"#utility.yul\":6470:6478   */\n          dup2\n            /* \"#utility.yul\":6466:6510   */\n          add\n            /* \"#utility.yul\":6663:6665   */\n          0x20\n            /* \"#utility.yul\":6651:6661   */\n          dup6\n            /* \"#utility.yul\":6648:6666   */\n          lt\n            /* \"#utility.yul\":6645:6694   */\n          iszero\n          tag_125\n          jumpi\n            /* \"#utility.yul\":6684:6692   */\n          dup2\n            /* \"#utility.yul\":6669:6692   */\n          swap1\n          pop\n            /* \"#utility.yul\":6645:6694   */\n        tag_125:\n            /* \"#utility.yul\":6707:6787   */\n          tag_126\n            /* \"#utility.yul\":6763:6785   */\n          tag_127\n            /* \"#utility.yul\":6781:6784   */\n          dup6\n            /* \"#utility.yul\":6763:6785   */\n          tag_29\n          jump\t// in\n        tag_127:\n            /* \"#utility.yul\":6753:6761   */\n          dup4\n            /* \"#utility.yul\":6749:6786   */\n          add\n            /* \"#utility.yul\":6736:6747   */\n          dup3\n            /* \"#utility.yul\":6707:6787   */\n          tag_39\n          jump\t// in\n        tag_126:\n            /* \"#utility.yul\":6366:6797   */\n          pop\n          pop\n            /* \"#utility.yul\":6351:6797   */\n        tag_122:\n            /* \"#utility.yul\":6261:6804   */\n          pop\n          pop\n          pop\n          jump\t// out\n            /* \"#utility.yul\":6810:6927   */\n        tag_41:\n            /* \"#utility.yul\":6864:6872   */\n          0x00\n            /* \"#utility.yul\":6914:6919   */\n          dup3\n            /* \"#utility.yul\":6908:6912   */\n          dup3\n            /* \"#utility.yul\":6904:6920   */\n          shr\n            /* \"#utility.yul\":6883:6920   */\n          swap1\n          pop\n            /* \"#utility.yul\":6810:6927   */\n          swap3\n          swap2\n          pop\n          pop\n          jump\t// out\n            /* \"#utility.yul\":6933:7102   */\n        tag_42:\n            /* \"#utility.yul\":6977:6983   */\n          0x00\n            /* \"#utility.yul\":7010:7061   */\n          tag_130\n            /* \"#utility.yul\":7058:7059   */\n          0x00\n            /* \"#utility.yul\":7054:7060   */\n          not\n            /* \"#utility.yul\":7046:7051   */\n          dup5\n            /* \"#utility.yul\":7043:7044   */\n          0x08\n            /* \"#utility.yul\":7039:7052   */\n          mul\n            /* \"#utility.yul\":7010:7061   */\n          tag_41\n          jump\t// in\n        tag_130:\n            /* \"#utility.yul\":7006:7062   */\n          not\n            /* \"#utility.yul\":7091:7095   */\n          dup1\n            /* \"#utility.yul\":7085:7089   */\n          dup4\n            /* \"#utility.yul\":7081:7096   */\n          and\n            /* \"#utility.yul\":7071:7096   */\n          swap2\n          pop\n            /* \"#utility.yul\":6984:7102   */\n          pop\n            /* \"#utility.yul\":6933:7102   */\n          swap3\n          swap2\n          pop\n          pop\n          jump\t// out\n            /* \"#utility.yul\":7107:7402   */\n        tag_43:\n            /* \"#utility.yul\":7183:7187   */\n          0x00\n            /* \"#utility.yul\":7329:7358   */\n          tag_132\n            /* \"#utility.yul\":7354:7357   */\n          dup4\n            /* \"#utility.yul\":7348:7352   */\n          dup4\n            /* \"#utility.yul\":7329:7358   */\n          tag_42\n          jump\t// in\n        tag_132:\n            /* \"#utility.yul\":7321:7358   */\n          swap2\n          pop\n            /* \"#utility.yul\":7391:7394   */\n          dup3\n            /* \"#utility.yul\":7388:7389   */\n          0x02\n            /* \"#utility.yul\":7384:7395   */\n          mul\n            /* \"#utility.yul\":7378:7382   */\n          dup3\n            /* \"#utility.yul\":7375:7396   */\n          or\n            /* \"#utility.yul\":7367:7396   */\n          swap1\n          pop\n            /* \"#utility.yul\":7107:7402   */\n          swap3\n          swap2\n          pop\n          pop\n          jump\t// out\n            /* \"#utility.yul\":7407:8802   */\n        tag_6:\n            /* \"#utility.yul\":7524:7561   */\n          tag_134\n            /* \"#utility.yul\":7557:7560   */\n          dup3\n            /* \"#utility.yul\":7524:7561   */\n          tag_25\n          jump\t// in\n        tag_134:\n            /* \"#utility.yul\":7626:7644   */\n          0xffffffffffffffff\n            /* \"#utility.yul\":7618:7624   */\n          dup2\n            /* \"#utility.yul\":7615:7645   */\n          gt\n            /* \"#utility.yul\":7612:7668   */\n          iszero\n          tag_135\n          jumpi\n            /* \"#utility.yul\":7648:7666   */\n          tag_136\n          tag_18\n          jump\t// in\n        tag_136:\n            /* \"#utility.yul\":7612:7668   */\n        tag_135:\n            /* \"#utility.yul\":7692:7730   */\n          tag_137\n            /* \"#utility.yul\":7724:7728   */\n          dup3\n            /* \"#utility.yul\":7718:7729   */\n          sload\n            /* \"#utility.yul\":7692:7730   */\n          tag_27\n          jump\t// in\n        tag_137:\n            /* \"#utility.yul\":7777:7844   */\n          tag_138\n            /* \"#utility.yul\":7837:7843   */\n          dup3\n            /* \"#utility.yul\":7829:7835   */\n          dup3\n            /* \"#utility.yul\":7823:7827   */\n          dup6\n            /* \"#utility.yul\":7777:7844   */\n          tag_40\n          jump\t// in\n        tag_138:\n            /* \"#utility.yul\":7871:7872   */\n          0x00\n            /* \"#utility.yul\":7895:7899   */\n          0x20\n            /* \"#utility.yul\":7882:7899   */\n          swap1\n          pop\n            /* \"#utility.yul\":7927:7929   */\n          0x1f\n            /* \"#utility.yul\":7919:7925   */\n          dup4\n            /* \"#utility.yul\":7916:7930   */\n          gt\n            /* \"#utility.yul\":7944:7945   */\n          0x01\n            /* \"#utility.yul\":7939:8557   */\n          dup2\n          eq\n          tag_140\n          jumpi\n            /* \"#utility.yul\":8601:8602   */\n          0x00\n            /* \"#utility.yul\":8618:8624   */\n          dup5\n            /* \"#utility.yul\":8615:8692   */\n          iszero\n          tag_141\n          jumpi\n            /* \"#utility.yul\":8667:8676   */\n          dup3\n            /* \"#utility.yul\":8662:8665   */\n          dup8\n            /* \"#utility.yul\":8658:8677   */\n          add\n            /* \"#utility.yul\":8652:8678   */\n          mload\n            /* \"#utility.yul\":8643:8678   */\n          swap1\n          pop\n            /* \"#utility.yul\":8615:8692   */\n        tag_141:\n            /* \"#utility.yul\":8718:8785   */\n          tag_142\n            /* \"#utility.yul\":8778:8784   */\n          dup6\n            /* \"#utility.yul\":8771:8776   */\n          dup3\n            /* \"#utility.yul\":8718:8785   */\n          tag_43\n          jump\t// in\n        tag_142:\n            /* \"#utility.yul\":8712:8716   */\n          dup7\n            /* \"#utility.yul\":8705:8786   */\n          sstore\n            /* \"#utility.yul\":8574:8796   */\n          pop\n            /* \"#utility.yul\":7909:8796   */\n          jump(tag_139)\n            /* \"#utility.yul\":7939:8557   */\n        tag_140:\n            /* \"#utility.yul\":7991:7995   */\n          0x1f\n            /* \"#utility.yul\":7987:7996   */\n          not\n            /* \"#utility.yul\":7979:7985   */\n          dup5\n            /* \"#utility.yul\":7975:7997   */\n          and\n            /* \"#utility.yul\":8025:8062   */\n          tag_143\n            /* \"#utility.yul\":8057:8061   */\n          dup7\n            /* \"#utility.yul\":8025:8062   */\n          tag_28\n          jump\t// in\n        tag_143:\n            /* \"#utility.yul\":8084:8085   */\n          0x00\n            /* \"#utility.yul\":8098:8306   */\n        tag_144:\n            /* \"#utility.yul\":8112:8119   */\n          dup3\n            /* \"#utility.yul\":8109:8110   */\n          dup2\n            /* \"#utility.yul\":8106:8120   */\n          lt\n            /* \"#utility.yul\":8098:8306   */\n          iszero\n          tag_146\n          jumpi\n            /* \"#utility.yul\":8191:8200   */\n          dup5\n            /* \"#utility.yul\":8186:8189   */\n          dup10\n            /* \"#utility.yul\":8182:8201   */\n          add\n            /* \"#utility.yul\":8176:8202   */\n          mload\n            /* \"#utility.yul\":8168:8174   */\n          dup3\n            /* \"#utility.yul\":8161:8203   */\n          sstore\n            /* \"#utility.yul\":8242:8243   */\n          0x01\n            /* \"#utility.yul\":8234:8240   */\n          dup3\n            /* \"#utility.yul\":8230:8244   */\n          add\n            /* \"#utility.yul\":8220:8244   */\n          swap2\n          pop\n            /* \"#utility.yul\":8289:8291   */\n          0x20\n            /* \"#utility.yul\":8278:8287   */\n          dup6\n            /* \"#utility.yul\":8274:8292   */\n          add\n            /* \"#utility.yul\":8261:8292   */\n          swap5\n          pop\n            /* \"#utility.yul\":8135:8139   */\n          0x20\n            /* \"#utility.yul\":8132:8133   */\n          dup2\n            /* \"#utility.yul\":8128:8140   */\n          add\n            /* \"#utility.yul\":8123:8140   */\n          swap1\n          pop\n            /* \"#utility.yul\":8098:8306   */\n          jump(tag_144)\n        tag_146:\n            /* \"#utility.yul\":8334:8340   */\n          dup7\n            /* \"#utility.yul\":8325:8332   */\n          dup4\n            /* \"#utility.yul\":8322:8341   */\n          lt\n            /* \"#utility.yul\":8319:8498   */\n          iszero\n          tag_147\n          jumpi\n            /* \"#utility.yul\":8392:8401   */\n          dup5\n            /* \"#utility.yul\":8387:8390   */\n          dup10\n            /* \"#utility.yul\":8383:8402   */\n          add\n            /* \"#utility.yul\":8377:8403   */\n          mload\n            /* \"#utility.yul\":8435:8483   */\n          tag_148\n            /* \"#utility.yul\":8477:8481   */\n          0x1f\n            /* \"#utility.yul\":8469:8475   */\n          dup10\n            /* \"#utility.yul\":8465:8482   */\n          and\n            /* \"#utility.yul\":8454:8463   */\n          dup3\n            /* \"#utility.yul\":8435:8483   */\n          tag_42\n          jump\t// in\n        tag_148:\n            /* \"#utility.yul\":8427:8433   */\n          dup4\n            /* \"#utility.yul\":8420:8484   */\n          sstore\n            /* \"#utility.yul\":8342:8498   */\n          pop\n            /* \"#utility.yul\":8319:8498   */\n        tag_147:\n            /* \"#utility.yul\":8544:8545   */\n          0x01\n            /* \"#utility.yul\":8540:8541   */\n          0x02\n            /* \"#utility.yul\":8532:8538   */\n          dup9\n            /* \"#utility.yul\":8528:8542   */\n          mul\n            /* \"#utility.yul\":8524:8546   */\n          add\n            /* \"#utility.yul\":8518:8522   */\n          dup9\n            /* \"#utility.yul\":8511:8547   */\n          sstore\n            /* \"#utility.yul\":7946:8557   */\n          pop\n          pop\n          pop\n            /* \"#utility.yul\":7909:8796   */\n        tag_139:\n          pop\n            /* \"#utility.yul\":7499:8802   */\n          pop\n          pop\n          pop\n            /* \"#utility.yul\":7407:8802   */\n          pop\n          pop\n          jump\t// out\n            /* \"Contract that Creates other Contracts.sol\":58:304  contract Car {... */\n        tag_7:\n          dataSize(sub_0)\n          dup1\n          dataOffset(sub_0)\n          0x00\n          codecopy\n          0x00\n          return\n        stop\n\n        sub_0: assembly {\n                /* \"Contract that Creates other Contracts.sol\":58:304  contract Car {... */\n              mstore(0x40, 0x80)\n              callvalue\n              dup1\n              iszero\n              tag_1\n              jumpi\n              revert(0x00, 0x00)\n            tag_1:\n              pop\n              jumpi(tag_2, lt(calldatasize, 0x04))\n              shr(0xe0, calldataload(0x00))\n              dup1\n              0x0ad9d052\n              eq\n              tag_3\n              jumpi\n              dup1\n              0x514fa676\n              eq\n              tag_4\n              jumpi\n              dup1\n              0x8da5cb5b\n              eq\n              tag_5\n              jumpi\n            tag_2:\n              revert(0x00, 0x00)\n                /* \"Contract that Creates other Contracts.sol\":103:122  string public model */\n            tag_3:\n              tag_6\n              tag_7\n              jump\t// in\n            tag_6:\n              mload(0x40)\n              tag_8\n              swap2\n              swap1\n              tag_9\n              jump\t// in\n            tag_8:\n              mload(0x40)\n              dup1\n              swap2\n              sub\n              swap1\n              return\n                /* \"Contract that Creates other Contracts.sol\":128:150  address public carAddr */\n            tag_4:\n              tag_10\n              tag_11\n              jump\t// in\n            tag_10:\n              mload(0x40)\n              tag_12\n              swap2\n              swap1\n              tag_13\n              jump\t// in\n            tag_12:\n              mload(0x40)\n              dup1\n              swap2\n              sub\n              swap1\n              return\n                /* \"Contract that Creates other Contracts.sol\":77:97  address public owner */\n            tag_5:\n              tag_14\n              tag_15\n              jump\t// in\n            tag_14:\n              mload(0x40)\n              tag_16\n              swap2\n              swap1\n              tag_13\n              jump\t// in\n            tag_16:\n              mload(0x40)\n              dup1\n              swap2\n              sub\n              swap1\n              return\n                /* \"Contract that Creates other Contracts.sol\":103:122  string public model */\n            tag_7:\n              0x01\n              dup1\n              sload\n              tag_17\n              swap1\n              tag_18\n              jump\t// in\n            tag_17:\n              dup1\n              0x1f\n              add\n              0x20\n              dup1\n              swap2\n              div\n              mul\n              0x20\n              add\n              mload(0x40)\n              swap1\n              dup2\n              add\n              0x40\n              mstore\n              dup1\n              swap3\n              swap2\n              swap1\n              dup2\n              dup2\n              mstore\n              0x20\n              add\n              dup3\n              dup1\n              sload\n              tag_19\n              swap1\n              tag_18\n              jump\t// in\n            tag_19:\n              dup1\n              iszero\n              tag_20\n              jumpi\n              dup1\n              0x1f\n              lt\n              tag_21\n              jumpi\n              0x0100\n              dup1\n              dup4\n              sload\n              div\n              mul\n              dup4\n              mstore\n              swap2\n              0x20\n              add\n              swap2\n              jump(tag_20)\n            tag_21:\n              dup3\n              add\n              swap2\n              swap1\n              0x00\n              mstore\n              keccak256(0x00, 0x20)\n              swap1\n            tag_22:\n              dup2\n              sload\n              dup2\n              mstore\n              swap1\n              0x01\n              add\n              swap1\n              0x20\n              add\n              dup1\n              dup4\n              gt\n              tag_22\n              jumpi\n              dup3\n              swap1\n              sub\n              0x1f\n              and\n              dup3\n              add\n              swap2\n            tag_20:\n              pop\n              pop\n              pop\n              pop\n              pop\n              dup2\n              jump\t// out\n                /* \"Contract that Creates other Contracts.sol\":128:150  address public carAddr */\n            tag_11:\n              0x02\n              0x00\n              swap1\n              sload\n              swap1\n              0x0100\n              exp\n              swap1\n              div\n              0xffffffffffffffffffffffffffffffffffffffff\n              and\n              dup2\n              jump\t// out\n                /* \"Contract that Creates other Contracts.sol\":77:97  address public owner */\n            tag_15:\n              0x00\n              0x00\n              swap1\n              sload\n              swap1\n              0x0100\n              exp\n              swap1\n              div\n              0xffffffffffffffffffffffffffffffffffffffff\n              and\n              dup2\n              jump\t// out\n                /* \"#utility.yul\":7:106   */\n            tag_23:\n                /* \"#utility.yul\":59:65   */\n              0x00\n                /* \"#utility.yul\":93:98   */\n              dup2\n                /* \"#utility.yul\":87:99   */\n              mload\n                /* \"#utility.yul\":77:99   */\n              swap1\n              pop\n                /* \"#utility.yul\":7:106   */\n              swap2\n              swap1\n              pop\n              jump\t// out\n                /* \"#utility.yul\":112:281   */\n            tag_24:\n                /* \"#utility.yul\":196:207   */\n              0x00\n                /* \"#utility.yul\":230:236   */\n              dup3\n                /* \"#utility.yul\":225:228   */\n              dup3\n                /* \"#utility.yul\":218:237   */\n              mstore\n                /* \"#utility.yul\":270:274   */\n              0x20\n                /* \"#utility.yul\":265:268   */\n              dup3\n                /* \"#utility.yul\":261:275   */\n              add\n                /* \"#utility.yul\":246:275   */\n              swap1\n              pop\n                /* \"#utility.yul\":112:281   */\n              swap3\n              swap2\n              pop\n              pop\n              jump\t// out\n                /* \"#utility.yul\":287:426   */\n            tag_25:\n                /* \"#utility.yul\":376:382   */\n              dup3\n                /* \"#utility.yul\":371:374   */\n              dup2\n                /* \"#utility.yul\":366:369   */\n              dup4\n                /* \"#utility.yul\":360:383   */\n              mcopy\n                /* \"#utility.yul\":417:418   */\n              0x00\n                /* \"#utility.yul\":408:414   */\n              dup4\n                /* \"#utility.yul\":403:406   */\n              dup4\n                /* \"#utility.yul\":399:415   */\n              add\n                /* \"#utility.yul\":392:419   */\n              mstore\n                /* \"#utility.yul\":287:426   */\n              pop\n              pop\n              pop\n              jump\t// out\n                /* \"#utility.yul\":432:534   */\n            tag_26:\n                /* \"#utility.yul\":473:479   */\n              0x00\n                /* \"#utility.yul\":524:526   */\n              0x1f\n                /* \"#utility.yul\":520:527   */\n              not\n                /* \"#utility.yul\":515:517   */\n              0x1f\n                /* \"#utility.yul\":508:513   */\n              dup4\n                /* \"#utility.yul\":504:518   */\n              add\n                /* \"#utility.yul\":500:528   */\n              and\n                /* \"#utility.yul\":490:528   */\n              swap1\n              pop\n                /* \"#utility.yul\":432:534   */\n              swap2\n              swap1\n              pop\n              jump\t// out\n                /* \"#utility.yul\":540:917   */\n            tag_27:\n                /* \"#utility.yul\":628:631   */\n              0x00\n                /* \"#utility.yul\":656:695   */\n              tag_38\n                /* \"#utility.yul\":689:694   */\n              dup3\n                /* \"#utility.yul\":656:695   */\n              tag_23\n              jump\t// in\n            tag_38:\n                /* \"#utility.yul\":711:782   */\n              tag_39\n                /* \"#utility.yul\":775:781   */\n              dup2\n                /* \"#utility.yul\":770:773   */\n              dup6\n                /* \"#utility.yul\":711:782   */\n              tag_24\n              jump\t// in\n            tag_39:\n                /* \"#utility.yul\":704:782   */\n              swap4\n              pop\n                /* \"#utility.yul\":791:856   */\n              tag_40\n                /* \"#utility.yul\":849:855   */\n              dup2\n                /* \"#utility.yul\":844:847   */\n              dup6\n                /* \"#utility.yul\":837:841   */\n              0x20\n                /* \"#utility.yul\":830:835   */\n              dup7\n                /* \"#utility.yul\":826:842   */\n              add\n                /* \"#utility.yul\":791:856   */\n              tag_25\n              jump\t// in\n            tag_40:\n                /* \"#utility.yul\":881:910   */\n              tag_41\n                /* \"#utility.yul\":903:909   */\n              dup2\n                /* \"#utility.yul\":881:910   */\n              tag_26\n              jump\t// in\n            tag_41:\n                /* \"#utility.yul\":876:879   */\n              dup5\n                /* \"#utility.yul\":872:911   */\n              add\n                /* \"#utility.yul\":865:911   */\n              swap2\n              pop\n                /* \"#utility.yul\":632:917   */\n              pop\n                /* \"#utility.yul\":540:917   */\n              swap3\n              swap2\n              pop\n              pop\n              jump\t// out\n                /* \"#utility.yul\":923:1236   */\n            tag_9:\n                /* \"#utility.yul\":1036:1040   */\n              0x00\n                /* \"#utility.yul\":1074:1076   */\n              0x20\n                /* \"#utility.yul\":1063:1072   */\n              dup3\n                /* \"#utility.yul\":1059:1077   */\n              add\n                /* \"#utility.yul\":1051:1077   */\n              swap1\n              pop\n                /* \"#utility.yul\":1123:1132   */\n              dup2\n                /* \"#utility.yul\":1117:1121   */\n              dup2\n                /* \"#utility.yul\":1113:1133   */\n              sub\n                /* \"#utility.yul\":1109:1110   */\n              0x00\n                /* \"#utility.yul\":1098:1107   */\n              dup4\n                /* \"#utility.yul\":1094:1111   */\n              add\n                /* \"#utility.yul\":1087:1134   */\n              mstore\n                /* \"#utility.yul\":1151:1229   */\n              tag_43\n                /* \"#utility.yul\":1224:1228   */\n              dup2\n                /* \"#utility.yul\":1215:1221   */\n              dup5\n                /* \"#utility.yul\":1151:1229   */\n              tag_27\n              jump\t// in\n            tag_43:\n                /* \"#utility.yul\":1143:1229   */\n              swap1\n              pop\n                /* \"#utility.yul\":923:1236   */\n              swap3\n              swap2\n              pop\n              pop\n              jump\t// out\n                /* \"#utility.yul\":1242:1368   */\n            tag_28:\n                /* \"#utility.yul\":1279:1286   */\n              0x00\n                /* \"#utility.yul\":1319:1361   */\n              0xffffffffffffffffffffffffffffffffffffffff\n                /* \"#utility.yul\":1312:1317   */\n              dup3\n                /* \"#utility.yul\":1308:1362   */\n              and\n                /* \"#utility.yul\":1297:1362   */\n              swap1\n              pop\n                /* \"#utility.yul\":1242:1368   */\n              swap2\n              swap1\n              pop\n              jump\t// out\n                /* \"#utility.yul\":1374:1470   */\n            tag_29:\n                /* \"#utility.yul\":1411:1418   */\n              0x00\n                /* \"#utility.yul\":1440:1464   */\n              tag_46\n                /* \"#utility.yul\":1458:1463   */\n              dup3\n                /* \"#utility.yul\":1440:1464   */\n              tag_28\n              jump\t// in\n            tag_46:\n                /* \"#utility.yul\":1429:1464   */\n              swap1\n              pop\n                /* \"#utility.yul\":1374:1470   */\n              swap2\n              swap1\n              pop\n              jump\t// out\n                /* \"#utility.yul\":1476:1594   */\n            tag_30:\n                /* \"#utility.yul\":1563:1587   */\n              tag_48\n                /* \"#utility.yul\":1581:1586   */\n              dup2\n                /* \"#utility.yul\":1563:1587   */\n              tag_29\n              jump\t// in\n            tag_48:\n                /* \"#utility.yul\":1558:1561   */\n              dup3\n                /* \"#utility.yul\":1551:1588   */\n              mstore\n                /* \"#utility.yul\":1476:1594   */\n              pop\n              pop\n              jump\t// out\n                /* \"#utility.yul\":1600:1822   */\n            tag_13:\n                /* \"#utility.yul\":1693:1697   */\n              0x00\n                /* \"#utility.yul\":1731:1733   */\n              0x20\n                /* \"#utility.yul\":1720:1729   */\n              dup3\n                /* \"#utility.yul\":1716:1734   */\n              add\n                /* \"#utility.yul\":1708:1734   */\n              swap1\n              pop\n                /* \"#utility.yul\":1744:1815   */\n              tag_50\n                /* \"#utility.yul\":1812:1813   */\n              0x00\n                /* \"#utility.yul\":1801:1810   */\n              dup4\n                /* \"#utility.yul\":1797:1814   */\n              add\n                /* \"#utility.yul\":1788:1794   */\n              dup5\n                /* \"#utility.yul\":1744:1815   */\n              tag_30\n              jump\t// in\n            tag_50:\n                /* \"#utility.yul\":1600:1822   */\n              swap3\n              swap2\n              pop\n              pop\n              jump\t// out\n                /* \"#utility.yul\":1828:2008   */\n            tag_31:\n                /* \"#utility.yul\":1876:1953   */\n              0x4e487b7100000000000000000000000000000000000000000000000000000000\n                /* \"#utility.yul\":1873:1874   */\n              0x00\n                /* \"#utility.yul\":1866:1954   */\n              mstore\n                /* \"#utility.yul\":1973:1977   */\n              0x22\n                /* \"#utility.yul\":1970:1971   */\n              0x04\n                /* \"#utility.yul\":1963:1978   */\n              mstore\n                /* \"#utility.yul\":1997:2001   */\n              0x24\n                /* \"#utility.yul\":1994:1995   */\n              0x00\n                /* \"#utility.yul\":1987:2002   */\n              revert\n                /* \"#utility.yul\":2014:2334   */\n            tag_18:\n                /* \"#utility.yul\":2058:2064   */\n              0x00\n                /* \"#utility.yul\":2095:2096   */\n              0x02\n                /* \"#utility.yul\":2089:2093   */\n              dup3\n                /* \"#utility.yul\":2085:2097   */\n              div\n                /* \"#utility.yul\":2075:2097   */\n              swap1\n              pop\n                /* \"#utility.yul\":2142:2143   */\n              0x01\n                /* \"#utility.yul\":2136:2140   */\n              dup3\n                /* \"#utility.yul\":2132:2144   */\n              and\n                /* \"#utility.yul\":2163:2181   */\n              dup1\n                /* \"#utility.yul\":2153:2234   */\n              tag_53\n              jumpi\n                /* \"#utility.yul\":2219:2223   */\n              0x7f\n                /* \"#utility.yul\":2211:2217   */\n              dup3\n                /* \"#utility.yul\":2207:2224   */\n              and\n                /* \"#utility.yul\":2197:2224   */\n              swap2\n              pop\n                /* \"#utility.yul\":2153:2234   */\n            tag_53:\n                /* \"#utility.yul\":2281:2283   */\n              0x20\n                /* \"#utility.yul\":2273:2279   */\n              dup3\n                /* \"#utility.yul\":2270:2284   */\n              lt\n                /* \"#utility.yul\":2250:2268   */\n              dup2\n                /* \"#utility.yul\":2247:2285   */\n              sub\n                /* \"#utility.yul\":2244:2328   */\n              tag_54\n              jumpi\n                /* \"#utility.yul\":2300:2318   */\n              tag_55\n              tag_31\n              jump\t// in\n            tag_55:\n                /* \"#utility.yul\":2244:2328   */\n            tag_54:\n                /* \"#utility.yul\":2065:2334   */\n              pop\n                /* \"#utility.yul\":2014:2334   */\n              swap2\n              swap1\n              pop\n              jump\t// out\n\n            auxdata: 0xa264697066735822122097a0e455d9f8d8b9c6c501111d6f593c1c29614fb227a59e20a5f47108aeac0464736f6c634300081e0033\n        }\n    }\n\n    auxdata: 0xa2646970667358221220d4acc803a22ba7e6f9e8cbbfd2151db60b7d6a36bb3e6a64c5a90e34c8389a3a64736f6c634300081e0033\n}\n",
				"bytecode": {
					"linkReferences": {},
					"object": "6080604052348015600e575f5ffd5b5061148f8061001c5f395ff3fe60806040526004361061006f575f3560e01c8063a15ab08d1161004d578063a15ab08d146100f8578063ace276ee14610120578063c33cd61514610148578063f7746e36146101645761006f565b806327436b59146100735780633d4b30151461009d5780635e8be190146100b9575b5f5ffd5b34801561007e575f5ffd5b506100876101a0565b604051610094919061063a565b60405180910390f35b6100b760048036038101906100b2919061082d565b6101ab565b005b3480156100c4575f5ffd5b506100df60048036038101906100da91906108c3565b61024f565b6040516100ef949392919061095d565b60405180910390f35b348015610103575f5ffd5b5061011e600480360381019061011991906109a7565b610404565b005b34801561012b575f5ffd5b506101466004803603810190610141919061082d565b61049e565b005b610162600480360381019061015d91906109a7565b61053e565b005b34801561016f575f5ffd5b5061018a600480360381019061018591906108c3565b6105db565b6040516101979190610a5c565b60405180910390f35b5f5f80549050905090565b5f34829085856040516101bd90610615565b6101c8929190610a75565b82906040518091039083f590509050801580156101e7573d5f5f3e3d5ffd5b5090505f81908060018154018082558091505060019003905f5260205f20015f9091909190916101000a81548173ffffffffffffffffffffffffffffffffffffffff021916908373ffffffffffffffffffffffffffffffffffffffff16021790555050505050565b5f60605f5f5f5f868154811061026857610267610aa3565b5b905f5260205f20015f9054906101000a900473ffffffffffffffffffffffffffffffffffffffff1690508073ffffffffffffffffffffffffffffffffffffffff16638da5cb5b6040518163ffffffff1660e01b8152600401602060405180830381865afa1580156102db573d5f5f3e3d5ffd5b505050506040513d601f19601f820116820180604052508101906102ff9190610ae4565b8173ffffffffffffffffffffffffffffffffffffffff16630ad9d0526040518163ffffffff1660e01b81526004015f60405180830381865afa158015610347573d5f5f3e3d5ffd5b505050506040513d5f823e3d601f19601f8201168201806040525081019061036f9190610b7d565b8273ffffffffffffffffffffffffffffffffffffffff1663514fa6766040518163ffffffff1660e01b8152600401602060405180830381865afa1580156103b8573d5f5f3e3d5ffd5b505050506040513d601f19601f820116820180604052508101906103dc9190610ae4565b8373ffffffffffffffffffffffffffffffffffffffff16319450945094509450509193509193565b5f828260405161041390610615565b61041e929190610a75565b604051809103905ff080158015610437573d5f5f3e3d5ffd5b5090505f81908060018154018082558091505060019003905f5260205f20015f9091909190916101000a81548173ffffffffffffffffffffffffffffffffffffffff021916908373ffffffffffffffffffffffffffffffffffffffff160217905550505050565b5f8184846040516104ae90610615565b6104b9929190610a75565b8190604051809103905ff59050801580156104d6573d5f5f3e3d5ffd5b5090505f81908060018154018082558091505060019003905f5260205f20015f9091909190916101000a81548173ffffffffffffffffffffffffffffffffffffffff021916908373ffffffffffffffffffffffffffffffffffffffff16021790555050505050565b5f34838360405161054e90610615565b610559929190610a75565b6040518091039082f0905080158015610574573d5f5f3e3d5ffd5b5090505f81908060018154018082558091505060019003905f5260205f20015f9091909190916101000a81548173ffffffffffffffffffffffffffffffffffffffff021916908373ffffffffffffffffffffffffffffffffffffffff160217905550505050565b5f81815481106105e9575f80fd5b905f5260205f20015f915054906101000a900473ffffffffffffffffffffffffffffffffffffffff1681565b61089580610bc583390190565b5f819050919050565b61063481610622565b82525050565b5f60208201905061064d5f83018461062b565b92915050565b5f604051905090565b5f5ffd5b5f5ffd5b5f73ffffffffffffffffffffffffffffffffffffffff82169050919050565b5f61068d82610664565b9050919050565b61069d81610683565b81146106a7575f5ffd5b50565b5f813590506106b881610694565b92915050565b5f5ffd5b5f5ffd5b5f601f19601f8301169050919050565b7f4e487b71000000000000000000000000000000000000000000000000000000005f52604160045260245ffd5b61070c826106c6565b810181811067ffffffffffffffff8211171561072b5761072a6106d6565b5b80604052505050565b5f61073d610653565b90506107498282610703565b919050565b5f67ffffffffffffffff821115610768576107676106d6565b5b610771826106c6565b9050602081019050919050565b828183375f83830152505050565b5f61079e6107998461074e565b610734565b9050828152602081018484840111156107ba576107b96106c2565b5b6107c584828561077e565b509392505050565b5f82601f8301126107e1576107e06106be565b5b81356107f184826020860161078c565b91505092915050565b5f819050919050565b61080c816107fa565b8114610816575f5ffd5b50565b5f8135905061082781610803565b92915050565b5f5f5f606084860312156108445761084361065c565b5b5f610851868287016106aa565b935050602084013567ffffffffffffffff81111561087257610871610660565b5b61087e868287016107cd565b925050604061088f86828701610819565b9150509250925092565b6108a281610622565b81146108ac575f5ffd5b50565b5f813590506108bd81610899565b92915050565b5f602082840312156108d8576108d761065c565b5b5f6108e5848285016108af565b91505092915050565b6108f781610683565b82525050565b5f81519050919050565b5f82825260208201905092915050565b8281835e5f83830152505050565b5f61092f826108fd565b6109398185610907565b9350610949818560208601610917565b610952816106c6565b840191505092915050565b5f6080820190506109705f8301876108ee565b81810360208301526109828186610925565b905061099160408301856108ee565b61099e606083018461062b565b95945050505050565b5f5f604083850312156109bd576109bc61065c565b5b5f6109ca858286016106aa565b925050602083013567ffffffffffffffff8111156109eb576109ea610660565b5b6109f7858286016107cd565b9150509250929050565b5f819050919050565b5f610a24610a1f610a1a84610664565b610a01565b610664565b9050919050565b5f610a3582610a0a565b9050919050565b5f610a4682610a2b565b9050919050565b610a5681610a3c565b82525050565b5f602082019050610a6f5f830184610a4d565b92915050565b5f604082019050610a885f8301856108ee565b8181036020830152610a9a8184610925565b90509392505050565b7f4e487b71000000000000000000000000000000000000000000000000000000005f52603260045260245ffd5b5f81519050610ade81610694565b92915050565b5f60208284031215610af957610af861065c565b5b5f610b0684828501610ad0565b91505092915050565b5f610b21610b1c8461074e565b610734565b905082815260208101848484011115610b3d57610b3c6106c2565b5b610b48848285610917565b509392505050565b5f82601f830112610b6457610b636106be565b5b8151610b74848260208601610b0f565b91505092915050565b5f60208284031215610b9257610b9161065c565b5b5f82015167ffffffffffffffff811115610baf57610bae610660565b5b610bbb84828501610b50565b9150509291505056fe608060405260405161089538038061089583398181016040528101906100259190610262565b815f5f6101000a81548173ffffffffffffffffffffffffffffffffffffffff021916908373ffffffffffffffffffffffffffffffffffffffff160217905550806001908161007391906104cc565b503060025f6101000a81548173ffffffffffffffffffffffffffffffffffffffff021916908373ffffffffffffffffffffffffffffffffffffffff160217905550505061059b565b5f604051905090565b5f5ffd5b5f5ffd5b5f73ffffffffffffffffffffffffffffffffffffffff82169050919050565b5f6100f5826100cc565b9050919050565b610105816100eb565b811461010f575f5ffd5b50565b5f81519050610120816100fc565b92915050565b5f5ffd5b5f5ffd5b5f601f19601f8301169050919050565b7f4e487b71000000000000000000000000000000000000000000000000000000005f52604160045260245ffd5b6101748261012e565b810181811067ffffffffffffffff821117156101935761019261013e565b5b80604052505050565b5f6101a56100bb565b90506101b1828261016b565b919050565b5f67ffffffffffffffff8211156101d0576101cf61013e565b5b6101d98261012e565b9050602081019050919050565b8281835e5f83830152505050565b5f610206610201846101b6565b61019c565b9050828152602081018484840111156102225761022161012a565b5b61022d8482856101e6565b509392505050565b5f82601f83011261024957610248610126565b5b81516102598482602086016101f4565b91505092915050565b5f5f60408385031215610278576102776100c4565b5b5f61028585828601610112565b925050602083015167ffffffffffffffff8111156102a6576102a56100c8565b5b6102b285828601610235565b9150509250929050565b5f81519050919050565b7f4e487b71000000000000000000000000000000000000000000000000000000005f52602260045260245ffd5b5f600282049050600182168061030a57607f821691505b60208210810361031d5761031c6102c6565b5b50919050565b5f819050815f5260205f209050919050565b5f6020601f8301049050919050565b5f82821b905092915050565b5f6008830261037f7fffffffffffffffffffffffffffffffffffffffffffffffffffffffffffffffff82610344565b6103898683610344565b95508019841693508086168417925050509392505050565b5f819050919050565b5f819050919050565b5f6103cd6103c86103c3846103a1565b6103aa565b6103a1565b9050919050565b5f819050919050565b6103e6836103b3565b6103fa6103f2826103d4565b848454610350565b825550505050565b5f5f905090565b610411610402565b61041c8184846103dd565b505050565b5b8181101561043f576104345f82610409565b600181019050610422565b5050565b601f8211156104845761045581610323565b61045e84610335565b8101602085101561046d578190505b61048161047985610335565b830182610421565b50505b505050565b5f82821c905092915050565b5f6104a45f1984600802610489565b1980831691505092915050565b5f6104bc8383610495565b9150826002028217905092915050565b6104d5826102bc565b67ffffffffffffffff8111156104ee576104ed61013e565b5b6104f882546102f3565b610503828285610443565b5f60209050601f831160018114610534575f8415610522578287015190505b61052c85826104b1565b865550610593565b601f19841661054286610323565b5f5b8281101561056957848901518255600182019150602085019450602081019050610544565b868310156105865784890151610582601f891682610495565b8355505b6001600288020188555050505b505050505050565b6102ed806105a85f395ff3fe608060405234801561000f575f5ffd5b506004361061003f575f3560e01c80630ad9d05214610043578063514fa676146100615780638da5cb5b1461007f575b5f5ffd5b61004b61009d565b60405161005891906101e2565b60405180910390f35b610069610129565b6040516100769190610241565b60405180910390f35b61008761014e565b6040516100949190610241565b60405180910390f35b600180546100aa90610287565b80601f01602080910402602001604051908101604052809291908181526020018280546100d690610287565b80156101215780601f106100f857610100808354040283529160200191610121565b820191905f5260205f20905b81548152906001019060200180831161010457829003601f168201915b505050505081565b60025f9054906101000a900473ffffffffffffffffffffffffffffffffffffffff1681565b5f5f9054906101000a900473ffffffffffffffffffffffffffffffffffffffff1681565b5f81519050919050565b5f82825260208201905092915050565b8281835e5f83830152505050565b5f601f19601f8301169050919050565b5f6101b482610172565b6101be818561017c565b93506101ce81856020860161018c565b6101d78161019a565b840191505092915050565b5f6020820190508181035f8301526101fa81846101aa565b905092915050565b5f73ffffffffffffffffffffffffffffffffffffffff82169050919050565b5f61022b82610202565b9050919050565b61023b81610221565b82525050565b5f6020820190506102545f830184610232565b92915050565b7f4e487b71000000000000000000000000000000000000000000000000000000005f52602260045260245ffd5b5f600282049050600182168061029e57607f821691505b6020821081036102b1576102b061025a565b5b5091905056fea264697066735822122097a0e455d9f8d8b9c6c501111d6f593c1c29614fb227a59e20a5f47108aeac0464736f6c634300081e0033a2646970667358221220d4acc803a22ba7e6f9e8cbbfd2151db60b7d6a36bb3e6a64c5a90e34c8389a3a64736f6c634300081e0033",
					"opcodes": "PUSH1 0x80 PUSH1 0x40 MSTORE CALLVALUE DUP1 ISZERO PUSH1 0xE JUMPI PUSH0 PUSH0 REVERT JUMPDEST POP PUSH2 0x148F DUP1 PUSH2 0x1C PUSH0 CODECOPY PUSH0 RETURN INVALID PUSH1 0x80 PUSH1 0x40 MSTORE PUSH1 0x4 CALLDATASIZE LT PUSH2 0x6F JUMPI PUSH0 CALLDATALOAD PUSH1 0xE0 SHR DUP1 PUSH4 0xA15AB08D GT PUSH2 0x4D JUMPI DUP1 PUSH4 0xA15AB08D EQ PUSH2 0xF8 JUMPI DUP1 PUSH4 0xACE276EE EQ PUSH2 0x120 JUMPI DUP1 PUSH4 0xC33CD615 EQ PUSH2 0x148 JUMPI DUP1 PUSH4 0xF7746E36 EQ PUSH2 0x164 JUMPI PUSH2 0x6F JUMP JUMPDEST DUP1 PUSH4 0x27436B59 EQ PUSH2 0x73 JUMPI DUP1 PUSH4 0x3D4B3015 EQ PUSH2 0x9D JUMPI DUP1 PUSH4 0x5E8BE190 EQ PUSH2 0xB9 JUMPI JUMPDEST PUSH0 PUSH0 REVERT JUMPDEST CALLVALUE DUP1 ISZERO PUSH2 0x7E JUMPI PUSH0 PUSH0 REVERT JUMPDEST POP PUSH2 0x87 PUSH2 0x1A0 JUMP JUMPDEST PUSH1 0x40 MLOAD PUSH2 0x94 SWAP2 SWAP1 PUSH2 0x63A JUMP JUMPDEST PUSH1 0x40 MLOAD DUP1 SWAP2 SUB SWAP1 RETURN JUMPDEST PUSH2 0xB7 PUSH1 0x4 DUP1 CALLDATASIZE SUB DUP2 ADD SWAP1 PUSH2 0xB2 SWAP2 SWAP1 PUSH2 0x82D JUMP JUMPDEST PUSH2 0x1AB JUMP JUMPDEST STOP JUMPDEST CALLVALUE DUP1 ISZERO PUSH2 0xC4 JUMPI PUSH0 PUSH0 REVERT JUMPDEST POP PUSH2 0xDF PUSH1 0x4 DUP1 CALLDATASIZE SUB DUP2 ADD SWAP1 PUSH2 0xDA SWAP2 SWAP1 PUSH2 0x8C3 JUMP JUMPDEST PUSH2 0x24F JUMP JUMPDEST PUSH1 0x40 MLOAD PUSH2 0xEF SWAP5 SWAP4 SWAP3 SWAP2 SWAP1 PUSH2 0x95D JUMP JUMPDEST PUSH1 0x40 MLOAD DUP1 SWAP2 SUB SWAP1 RETURN JUMPDEST CALLVALUE DUP1 ISZERO PUSH2 0x103 JUMPI PUSH0 PUSH0 REVERT JUMPDEST POP PUSH2 0x11E PUSH1 0x4 DUP1 CALLDATASIZE SUB DUP2 ADD SWAP1 PUSH2 0x119 SWAP2 SWAP1 PUSH2 0x9A7 JUMP JUMPDEST PUSH2 0x404 JUMP JUMPDEST STOP JUMPDEST CALLVALUE DUP1 ISZERO PUSH2 0x12B JUMPI PUSH0 PUSH0 REVERT JUMPDEST POP PUSH2 0x146 PUSH1 0x4 DUP1 CALLDATASIZE SUB DUP2 ADD SWAP1 PUSH2 0x141 SWAP2 SWAP1 PUSH2 0x82D JUMP JUMPDEST PUSH2 0x49E JUMP JUMPDEST STOP JUMPDEST PUSH2 0x162 PUSH1 0x4 DUP1 CALLDATASIZE SUB DUP2 ADD SWAP1 PUSH2 0x15D SWAP2 SWAP1 PUSH2 0x9A7 JUMP JUMPDEST PUSH2 0x53E JUMP JUMPDEST STOP JUMPDEST CALLVALUE DUP1 ISZERO PUSH2 0x16F JUMPI PUSH0 PUSH0 REVERT JUMPDEST POP PUSH2 0x18A PUSH1 0x4 DUP1 CALLDATASIZE SUB DUP2 ADD SWAP1 PUSH2 0x185 SWAP2 SWAP1 PUSH2 0x8C3 JUMP JUMPDEST PUSH2 0x5DB JUMP JUMPDEST PUSH1 0x40 MLOAD PUSH2 0x197 SWAP2 SWAP1 PUSH2 0xA5C JUMP JUMPDEST PUSH1 0x40 MLOAD DUP1 SWAP2 SUB SWAP1 RETURN JUMPDEST PUSH0 PUSH0 DUP1 SLOAD SWAP1 POP SWAP1 POP SWAP1 JUMP JUMPDEST PUSH0 CALLVALUE DUP3 SWAP1 DUP6 DUP6 PUSH1 0x40 MLOAD PUSH2 0x1BD SWAP1 PUSH2 0x615 JUMP JUMPDEST PUSH2 0x1C8 SWAP3 SWAP2 SWAP1 PUSH2 0xA75 JUMP JUMPDEST DUP3 SWAP1 PUSH1 0x40 MLOAD DUP1 SWAP2 SUB SWAP1 DUP4 CREATE2 SWAP1 POP SWAP1 POP DUP1 ISZERO DUP1 ISZERO PUSH2 0x1E7 JUMPI RETURNDATASIZE PUSH0 PUSH0 RETURNDATACOPY RETURNDATASIZE PUSH0 REVERT JUMPDEST POP SWAP1 POP PUSH0 DUP2 SWAP1 DUP1 PUSH1 0x1 DUP2 SLOAD ADD DUP1 DUP3 SSTORE DUP1 SWAP2 POP POP PUSH1 0x1 SWAP1 SUB SWAP1 PUSH0 MSTORE PUSH1 0x20 PUSH0 KECCAK256 ADD PUSH0 SWAP1 SWAP2 SWAP1 SWAP2 SWAP1 SWAP2 PUSH2 0x100 EXP DUP2 SLOAD DUP2 PUSH20 0xFFFFFFFFFFFFFFFFFFFFFFFFFFFFFFFFFFFFFFFF MUL NOT AND SWAP1 DUP4 PUSH20 0xFFFFFFFFFFFFFFFFFFFFFFFFFFFFFFFFFFFFFFFF AND MUL OR SWAP1 SSTORE POP POP POP POP POP JUMP JUMPDEST PUSH0 PUSH1 0x60 PUSH0 PUSH0 PUSH0 PUSH0 DUP7 DUP2 SLOAD DUP2 LT PUSH2 0x268 JUMPI PUSH2 0x267 PUSH2 0xAA3 JUMP JUMPDEST JUMPDEST SWAP1 PUSH0 MSTORE PUSH1 0x20 PUSH0 KECCAK256 ADD PUSH0 SWAP1 SLOAD SWAP1 PUSH2 0x100 EXP SWAP1 DIV PUSH20 0xFFFFFFFFFFFFFFFFFFFFFFFFFFFFFFFFFFFFFFFF AND SWAP1 POP DUP1 PUSH20 0xFFFFFFFFFFFFFFFFFFFFFFFFFFFFFFFFFFFFFFFF AND PUSH4 0x8DA5CB5B PUSH1 0x40 MLOAD DUP2 PUSH4 0xFFFFFFFF AND PUSH1 0xE0 SHL DUP2 MSTORE PUSH1 0x4 ADD PUSH1 0x20 PUSH1 0x40 MLOAD DUP1 DUP4 SUB DUP2 DUP7 GAS STATICCALL ISZERO DUP1 ISZERO PUSH2 0x2DB JUMPI RETURNDATASIZE PUSH0 PUSH0 RETURNDATACOPY RETURNDATASIZE PUSH0 REVERT JUMPDEST POP POP POP POP PUSH1 0x40 MLOAD RETURNDATASIZE PUSH1 0x1F NOT PUSH1 0x1F DUP3 ADD AND DUP3 ADD DUP1 PUSH1 0x40 MSTORE POP DUP2 ADD SWAP1 PUSH2 0x2FF SWAP2 SWAP1 PUSH2 0xAE4 JUMP JUMPDEST DUP2 PUSH20 0xFFFFFFFFFFFFFFFFFFFFFFFFFFFFFFFFFFFFFFFF AND PUSH4 0xAD9D052 PUSH1 0x40 MLOAD DUP2 PUSH4 0xFFFFFFFF AND PUSH1 0xE0 SHL DUP2 MSTORE PUSH1 0x4 ADD PUSH0 PUSH1 0x40 MLOAD DUP1 DUP4 SUB DUP2 DUP7 GAS STATICCALL ISZERO DUP1 ISZERO PUSH2 0x347 JUMPI RETURNDATASIZE PUSH0 PUSH0 RETURNDATACOPY RETURNDATASIZE PUSH0 REVERT JUMPDEST POP POP POP POP PUSH1 0x40 MLOAD RETURNDATASIZE PUSH0 DUP3 RETURNDATACOPY RETURNDATASIZE PUSH1 0x1F NOT PUSH1 0x1F DUP3 ADD AND DUP3 ADD DUP1 PUSH1 0x40 MSTORE POP DUP2 ADD SWAP1 PUSH2 0x36F SWAP2 SWAP1 PUSH2 0xB7D JUMP JUMPDEST DUP3 PUSH20 0xFFFFFFFFFFFFFFFFFFFFFFFFFFFFFFFFFFFFFFFF AND PUSH4 0x514FA676 PUSH1 0x40 MLOAD DUP2 PUSH4 0xFFFFFFFF AND PUSH1 0xE0 SHL DUP2 MSTORE PUSH1 0x4 ADD PUSH1 0x20 PUSH1 0x40 MLOAD DUP1 DUP4 SUB DUP2 DUP7 GAS STATICCALL ISZERO DUP1 ISZERO PUSH2 0x3B8 JUMPI RETURNDATASIZE PUSH0 PUSH0 RETURNDATACOPY RETURNDATASIZE PUSH0 REVERT JUMPDEST POP POP POP POP PUSH1 0x40 MLOAD RETURNDATASIZE PUSH1 0x1F NOT PUSH1 0x1F DUP3 ADD AND DUP3 ADD DUP1 PUSH1 0x40 MSTORE POP DUP2 ADD SWAP1 PUSH2 0x3DC SWAP2 SWAP1 PUSH2 0xAE4 JUMP JUMPDEST DUP4 PUSH20 0xFFFFFFFFFFFFFFFFFFFFFFFFFFFFFFFFFFFFFFFF AND BALANCE SWAP5 POP SWAP5 POP SWAP5 POP SWAP5 POP POP SWAP2 SWAP4 POP SWAP2 SWAP4 JUMP JUMPDEST PUSH0 DUP3 DUP3 PUSH1 0x40 MLOAD PUSH2 0x413 SWAP1 PUSH2 0x615 JUMP JUMPDEST PUSH2 0x41E SWAP3 SWAP2 SWAP1 PUSH2 0xA75 JUMP JUMPDEST PUSH1 0x40 MLOAD DUP1 SWAP2 SUB SWAP1 PUSH0 CREATE DUP1 ISZERO DUP1 ISZERO PUSH2 0x437 JUMPI RETURNDATASIZE PUSH0 PUSH0 RETURNDATACOPY RETURNDATASIZE PUSH0 REVERT JUMPDEST POP SWAP1 POP PUSH0 DUP2 SWAP1 DUP1 PUSH1 0x1 DUP2 SLOAD ADD DUP1 DUP3 SSTORE DUP1 SWAP2 POP POP PUSH1 0x1 SWAP1 SUB SWAP1 PUSH0 MSTORE PUSH1 0x20 PUSH0 KECCAK256 ADD PUSH0 SWAP1 SWAP2 SWAP1 SWAP2 SWAP1 SWAP2 PUSH2 0x100 EXP DUP2 SLOAD DUP2 PUSH20 0xFFFFFFFFFFFFFFFFFFFFFFFFFFFFFFFFFFFFFFFF MUL NOT AND SWAP1 DUP4 PUSH20 0xFFFFFFFFFFFFFFFFFFFFFFFFFFFFFFFFFFFFFFFF AND MUL OR SWAP1 SSTORE POP POP POP POP JUMP JUMPDEST PUSH0 DUP2 DUP5 DUP5 PUSH1 0x40 MLOAD PUSH2 0x4AE SWAP1 PUSH2 0x615 JUMP JUMPDEST PUSH2 0x4B9 SWAP3 SWAP2 SWAP1 PUSH2 0xA75 JUMP JUMPDEST DUP2 SWAP1 PUSH1 0x40 MLOAD DUP1 SWAP2 SUB SWAP1 PUSH0 CREATE2 SWAP1 POP DUP1 ISZERO DUP1 ISZERO PUSH2 0x4D6 JUMPI RETURNDATASIZE PUSH0 PUSH0 RETURNDATACOPY RETURNDATASIZE PUSH0 REVERT JUMPDEST POP SWAP1 POP PUSH0 DUP2 SWAP1 DUP1 PUSH1 0x1 DUP2 SLOAD ADD DUP1 DUP3 SSTORE DUP1 SWAP2 POP POP PUSH1 0x1 SWAP1 SUB SWAP1 PUSH0 MSTORE PUSH1 0x20 PUSH0 KECCAK256 ADD PUSH0 SWAP1 SWAP2 SWAP1 SWAP2 SWAP1 SWAP2 PUSH2 0x100 EXP DUP2 SLOAD DUP2 PUSH20 0xFFFFFFFFFFFFFFFFFFFFFFFFFFFFFFFFFFFFFFFF MUL NOT AND SWAP1 DUP4 PUSH20 0xFFFFFFFFFFFFFFFFFFFFFFFFFFFFFFFFFFFFFFFF AND MUL OR SWAP1 SSTORE POP POP POP POP POP JUMP JUMPDEST PUSH0 CALLVALUE DUP4 DUP4 PUSH1 0x40 MLOAD PUSH2 0x54E SWAP1 PUSH2 0x615 JUMP JUMPDEST PUSH2 0x559 SWAP3 SWAP2 SWAP1 PUSH2 0xA75 JUMP JUMPDEST PUSH1 0x40 MLOAD DUP1 SWAP2 SUB SWAP1 DUP3 CREATE SWAP1 POP DUP1 ISZERO DUP1 ISZERO PUSH2 0x574 JUMPI RETURNDATASIZE PUSH0 PUSH0 RETURNDATACOPY RETURNDATASIZE PUSH0 REVERT JUMPDEST POP SWAP1 POP PUSH0 DUP2 SWAP1 DUP1 PUSH1 0x1 DUP2 SLOAD ADD DUP1 DUP3 SSTORE DUP1 SWAP2 POP POP PUSH1 0x1 SWAP1 SUB SWAP1 PUSH0 MSTORE PUSH1 0x20 PUSH0 KECCAK256 ADD PUSH0 SWAP1 SWAP2 SWAP1 SWAP2 SWAP1 SWAP2 PUSH2 0x100 EXP DUP2 SLOAD DUP2 PUSH20 0xFFFFFFFFFFFFFFFFFFFFFFFFFFFFFFFFFFFFFFFF MUL NOT AND SWAP1 DUP4 PUSH20 0xFFFFFFFFFFFFFFFFFFFFFFFFFFFFFFFFFFFFFFFF AND MUL OR SWAP1 SSTORE POP POP POP POP JUMP JUMPDEST PUSH0 DUP2 DUP2 SLOAD DUP2 LT PUSH2 0x5E9 JUMPI PUSH0 DUP1 REVERT JUMPDEST SWAP1 PUSH0 MSTORE PUSH1 0x20 PUSH0 KECCAK256 ADD PUSH0 SWAP2 POP SLOAD SWAP1 PUSH2 0x100 EXP SWAP1 DIV PUSH20 0xFFFFFFFFFFFFFFFFFFFFFFFFFFFFFFFFFFFFFFFF AND DUP2 JUMP JUMPDEST PUSH2 0x895 DUP1 PUSH2 0xBC5 DUP4 CODECOPY ADD SWAP1 JUMP JUMPDEST PUSH0 DUP2 SWAP1 POP SWAP2 SWAP1 POP JUMP JUMPDEST PUSH2 0x634 DUP2 PUSH2 0x622 JUMP JUMPDEST DUP3 MSTORE POP POP JUMP JUMPDEST PUSH0 PUSH1 0x20 DUP3 ADD SWAP1 POP PUSH2 0x64D PUSH0 DUP4 ADD DUP5 PUSH2 0x62B JUMP JUMPDEST SWAP3 SWAP2 POP POP JUMP JUMPDEST PUSH0 PUSH1 0x40 MLOAD SWAP1 POP SWAP1 JUMP JUMPDEST PUSH0 PUSH0 REVERT JUMPDEST PUSH0 PUSH0 REVERT JUMPDEST PUSH0 PUSH20 0xFFFFFFFFFFFFFFFFFFFFFFFFFFFFFFFFFFFFFFFF DUP3 AND SWAP1 POP SWAP2 SWAP1 POP JUMP JUMPDEST PUSH0 PUSH2 0x68D DUP3 PUSH2 0x664 JUMP JUMPDEST SWAP1 POP SWAP2 SWAP1 POP JUMP JUMPDEST PUSH2 0x69D DUP2 PUSH2 0x683 JUMP JUMPDEST DUP2 EQ PUSH2 0x6A7 JUMPI PUSH0 PUSH0 REVERT JUMPDEST POP JUMP JUMPDEST PUSH0 DUP2 CALLDATALOAD SWAP1 POP PUSH2 0x6B8 DUP2 PUSH2 0x694 JUMP JUMPDEST SWAP3 SWAP2 POP POP JUMP JUMPDEST PUSH0 PUSH0 REVERT JUMPDEST PUSH0 PUSH0 REVERT JUMPDEST PUSH0 PUSH1 0x1F NOT PUSH1 0x1F DUP4 ADD AND SWAP1 POP SWAP2 SWAP1 POP JUMP JUMPDEST PUSH32 0x4E487B7100000000000000000000000000000000000000000000000000000000 PUSH0 MSTORE PUSH1 0x41 PUSH1 0x4 MSTORE PUSH1 0x24 PUSH0 REVERT JUMPDEST PUSH2 0x70C DUP3 PUSH2 0x6C6 JUMP JUMPDEST DUP2 ADD DUP2 DUP2 LT PUSH8 0xFFFFFFFFFFFFFFFF DUP3 GT OR ISZERO PUSH2 0x72B JUMPI PUSH2 0x72A PUSH2 0x6D6 JUMP JUMPDEST JUMPDEST DUP1 PUSH1 0x40 MSTORE POP POP POP JUMP JUMPDEST PUSH0 PUSH2 0x73D PUSH2 0x653 JUMP JUMPDEST SWAP1 POP PUSH2 0x749 DUP3 DUP3 PUSH2 0x703 JUMP JUMPDEST SWAP2 SWAP1 POP JUMP JUMPDEST PUSH0 PUSH8 0xFFFFFFFFFFFFFFFF DUP3 GT ISZERO PUSH2 0x768 JUMPI PUSH2 0x767 PUSH2 0x6D6 JUMP JUMPDEST JUMPDEST PUSH2 0x771 DUP3 PUSH2 0x6C6 JUMP JUMPDEST SWAP1 POP PUSH1 0x20 DUP2 ADD SWAP1 POP SWAP2 SWAP1 POP JUMP JUMPDEST DUP3 DUP2 DUP4 CALLDATACOPY PUSH0 DUP4 DUP4 ADD MSTORE POP POP POP JUMP JUMPDEST PUSH0 PUSH2 0x79E PUSH2 0x799 DUP5 PUSH2 0x74E JUMP JUMPDEST PUSH2 0x734 JUMP JUMPDEST SWAP1 POP DUP3 DUP2 MSTORE PUSH1 0x20 DUP2 ADD DUP5 DUP5 DUP5 ADD GT ISZERO PUSH2 0x7BA JUMPI PUSH2 0x7B9 PUSH2 0x6C2 JUMP JUMPDEST JUMPDEST PUSH2 0x7C5 DUP5 DUP3 DUP6 PUSH2 0x77E JUMP JUMPDEST POP SWAP4 SWAP3 POP POP POP JUMP JUMPDEST PUSH0 DUP3 PUSH1 0x1F DUP4 ADD SLT PUSH2 0x7E1 JUMPI PUSH2 0x7E0 PUSH2 0x6BE JUMP JUMPDEST JUMPDEST DUP2 CALLDATALOAD PUSH2 0x7F1 DUP5 DUP3 PUSH1 0x20 DUP7 ADD PUSH2 0x78C JUMP JUMPDEST SWAP2 POP POP SWAP3 SWAP2 POP POP JUMP JUMPDEST PUSH0 DUP2 SWAP1 POP SWAP2 SWAP1 POP JUMP JUMPDEST PUSH2 0x80C DUP2 PUSH2 0x7FA JUMP JUMPDEST DUP2 EQ PUSH2 0x816 JUMPI PUSH0 PUSH0 REVERT JUMPDEST POP JUMP JUMPDEST PUSH0 DUP2 CALLDATALOAD SWAP1 POP PUSH2 0x827 DUP2 PUSH2 0x803 JUMP JUMPDEST SWAP3 SWAP2 POP POP JUMP JUMPDEST PUSH0 PUSH0 PUSH0 PUSH1 0x60 DUP5 DUP7 SUB SLT ISZERO PUSH2 0x844 JUMPI PUSH2 0x843 PUSH2 0x65C JUMP JUMPDEST JUMPDEST PUSH0 PUSH2 0x851 DUP7 DUP3 DUP8 ADD PUSH2 0x6AA JUMP JUMPDEST SWAP4 POP POP PUSH1 0x20 DUP5 ADD CALLDATALOAD PUSH8 0xFFFFFFFFFFFFFFFF DUP2 GT ISZERO PUSH2 0x872 JUMPI PUSH2 0x871 PUSH2 0x660 JUMP JUMPDEST JUMPDEST PUSH2 0x87E DUP7 DUP3 DUP8 ADD PUSH2 0x7CD JUMP JUMPDEST SWAP3 POP POP PUSH1 0x40 PUSH2 0x88F DUP7 DUP3 DUP8 ADD PUSH2 0x819 JUMP JUMPDEST SWAP2 POP POP SWAP3 POP SWAP3 POP SWAP3 JUMP JUMPDEST PUSH2 0x8A2 DUP2 PUSH2 0x622 JUMP JUMPDEST DUP2 EQ PUSH2 0x8AC JUMPI PUSH0 PUSH0 REVERT JUMPDEST POP JUMP JUMPDEST PUSH0 DUP2 CALLDATALOAD SWAP1 POP PUSH2 0x8BD DUP2 PUSH2 0x899 JUMP JUMPDEST SWAP3 SWAP2 POP POP JUMP JUMPDEST PUSH0 PUSH1 0x20 DUP3 DUP5 SUB SLT ISZERO PUSH2 0x8D8 JUMPI PUSH2 0x8D7 PUSH2 0x65C JUMP JUMPDEST JUMPDEST PUSH0 PUSH2 0x8E5 DUP5 DUP3 DUP6 ADD PUSH2 0x8AF JUMP JUMPDEST SWAP2 POP POP SWAP3 SWAP2 POP POP JUMP JUMPDEST PUSH2 0x8F7 DUP2 PUSH2 0x683 JUMP JUMPDEST DUP3 MSTORE POP POP JUMP JUMPDEST PUSH0 DUP2 MLOAD SWAP1 POP SWAP2 SWAP1 POP JUMP JUMPDEST PUSH0 DUP3 DUP3 MSTORE PUSH1 0x20 DUP3 ADD SWAP1 POP SWAP3 SWAP2 POP POP JUMP JUMPDEST DUP3 DUP2 DUP4 MCOPY PUSH0 DUP4 DUP4 ADD MSTORE POP POP POP JUMP JUMPDEST PUSH0 PUSH2 0x92F DUP3 PUSH2 0x8FD JUMP JUMPDEST PUSH2 0x939 DUP2 DUP6 PUSH2 0x907 JUMP JUMPDEST SWAP4 POP PUSH2 0x949 DUP2 DUP6 PUSH1 0x20 DUP7 ADD PUSH2 0x917 JUMP JUMPDEST PUSH2 0x952 DUP2 PUSH2 0x6C6 JUMP JUMPDEST DUP5 ADD SWAP2 POP POP SWAP3 SWAP2 POP POP JUMP JUMPDEST PUSH0 PUSH1 0x80 DUP3 ADD SWAP1 POP PUSH2 0x970 PUSH0 DUP4 ADD DUP8 PUSH2 0x8EE JUMP JUMPDEST DUP2 DUP2 SUB PUSH1 0x20 DUP4 ADD MSTORE PUSH2 0x982 DUP2 DUP7 PUSH2 0x925 JUMP JUMPDEST SWAP1 POP PUSH2 0x991 PUSH1 0x40 DUP4 ADD DUP6 PUSH2 0x8EE JUMP JUMPDEST PUSH2 0x99E PUSH1 0x60 DUP4 ADD DUP5 PUSH2 0x62B JUMP JUMPDEST SWAP6 SWAP5 POP POP POP POP POP JUMP JUMPDEST PUSH0 PUSH0 PUSH1 0x40 DUP4 DUP6 SUB SLT ISZERO PUSH2 0x9BD JUMPI PUSH2 0x9BC PUSH2 0x65C JUMP JUMPDEST JUMPDEST PUSH0 PUSH2 0x9CA DUP6 DUP3 DUP7 ADD PUSH2 0x6AA JUMP JUMPDEST SWAP3 POP POP PUSH1 0x20 DUP4 ADD CALLDATALOAD PUSH8 0xFFFFFFFFFFFFFFFF DUP2 GT ISZERO PUSH2 0x9EB JUMPI PUSH2 0x9EA PUSH2 0x660 JUMP JUMPDEST JUMPDEST PUSH2 0x9F7 DUP6 DUP3 DUP7 ADD PUSH2 0x7CD JUMP JUMPDEST SWAP2 POP POP SWAP3 POP SWAP3 SWAP1 POP JUMP JUMPDEST PUSH0 DUP2 SWAP1 POP SWAP2 SWAP1 POP JUMP JUMPDEST PUSH0 PUSH2 0xA24 PUSH2 0xA1F PUSH2 0xA1A DUP5 PUSH2 0x664 JUMP JUMPDEST PUSH2 0xA01 JUMP JUMPDEST PUSH2 0x664 JUMP JUMPDEST SWAP1 POP SWAP2 SWAP1 POP JUMP JUMPDEST PUSH0 PUSH2 0xA35 DUP3 PUSH2 0xA0A JUMP JUMPDEST SWAP1 POP SWAP2 SWAP1 POP JUMP JUMPDEST PUSH0 PUSH2 0xA46 DUP3 PUSH2 0xA2B JUMP JUMPDEST SWAP1 POP SWAP2 SWAP1 POP JUMP JUMPDEST PUSH2 0xA56 DUP2 PUSH2 0xA3C JUMP JUMPDEST DUP3 MSTORE POP POP JUMP JUMPDEST PUSH0 PUSH1 0x20 DUP3 ADD SWAP1 POP PUSH2 0xA6F PUSH0 DUP4 ADD DUP5 PUSH2 0xA4D JUMP JUMPDEST SWAP3 SWAP2 POP POP JUMP JUMPDEST PUSH0 PUSH1 0x40 DUP3 ADD SWAP1 POP PUSH2 0xA88 PUSH0 DUP4 ADD DUP6 PUSH2 0x8EE JUMP JUMPDEST DUP2 DUP2 SUB PUSH1 0x20 DUP4 ADD MSTORE PUSH2 0xA9A DUP2 DUP5 PUSH2 0x925 JUMP JUMPDEST SWAP1 POP SWAP4 SWAP3 POP POP POP JUMP JUMPDEST PUSH32 0x4E487B7100000000000000000000000000000000000000000000000000000000 PUSH0 MSTORE PUSH1 0x32 PUSH1 0x4 MSTORE PUSH1 0x24 PUSH0 REVERT JUMPDEST PUSH0 DUP2 MLOAD SWAP1 POP PUSH2 0xADE DUP2 PUSH2 0x694 JUMP JUMPDEST SWAP3 SWAP2 POP POP JUMP JUMPDEST PUSH0 PUSH1 0x20 DUP3 DUP5 SUB SLT ISZERO PUSH2 0xAF9 JUMPI PUSH2 0xAF8 PUSH2 0x65C JUMP JUMPDEST JUMPDEST PUSH0 PUSH2 0xB06 DUP5 DUP3 DUP6 ADD PUSH2 0xAD0 JUMP JUMPDEST SWAP2 POP POP SWAP3 SWAP2 POP POP JUMP JUMPDEST PUSH0 PUSH2 0xB21 PUSH2 0xB1C DUP5 PUSH2 0x74E JUMP JUMPDEST PUSH2 0x734 JUMP JUMPDEST SWAP1 POP DUP3 DUP2 MSTORE PUSH1 0x20 DUP2 ADD DUP5 DUP5 DUP5 ADD GT ISZERO PUSH2 0xB3D JUMPI PUSH2 0xB3C PUSH2 0x6C2 JUMP JUMPDEST JUMPDEST PUSH2 0xB48 DUP5 DUP3 DUP6 PUSH2 0x917 JUMP JUMPDEST POP SWAP4 SWAP3 POP POP POP JUMP JUMPDEST PUSH0 DUP3 PUSH1 0x1F DUP4 ADD SLT PUSH2 0xB64 JUMPI PUSH2 0xB63 PUSH2 0x6BE JUMP JUMPDEST JUMPDEST DUP2 MLOAD PUSH2 0xB74 DUP5 DUP3 PUSH1 0x20 DUP7 ADD PUSH2 0xB0F JUMP JUMPDEST SWAP2 POP POP SWAP3 SWAP2 POP POP JUMP JUMPDEST PUSH0 PUSH1 0x20 DUP3 DUP5 SUB SLT ISZERO PUSH2 0xB92 JUMPI PUSH2 0xB91 PUSH2 0x65C JUMP JUMPDEST JUMPDEST PUSH0 DUP3 ADD MLOAD PUSH8 0xFFFFFFFFFFFFFFFF DUP2 GT ISZERO PUSH2 0xBAF JUMPI PUSH2 0xBAE PUSH2 0x660 JUMP JUMPDEST JUMPDEST PUSH2 0xBBB DUP5 DUP3 DUP6 ADD PUSH2 0xB50 JUMP JUMPDEST SWAP2 POP POP SWAP3 SWAP2 POP POP JUMP INVALID PUSH1 0x80 PUSH1 0x40 MSTORE PUSH1 0x40 MLOAD PUSH2 0x895 CODESIZE SUB DUP1 PUSH2 0x895 DUP4 CODECOPY DUP2 DUP2 ADD PUSH1 0x40 MSTORE DUP2 ADD SWAP1 PUSH2 0x25 SWAP2 SWAP1 PUSH2 0x262 JUMP JUMPDEST DUP2 PUSH0 PUSH0 PUSH2 0x100 EXP DUP2 SLOAD DUP2 PUSH20 0xFFFFFFFFFFFFFFFFFFFFFFFFFFFFFFFFFFFFFFFF MUL NOT AND SWAP1 DUP4 PUSH20 0xFFFFFFFFFFFFFFFFFFFFFFFFFFFFFFFFFFFFFFFF AND MUL OR SWAP1 SSTORE POP DUP1 PUSH1 0x1 SWAP1 DUP2 PUSH2 0x73 SWAP2 SWAP1 PUSH2 0x4CC JUMP JUMPDEST POP ADDRESS PUSH1 0x2 PUSH0 PUSH2 0x100 EXP DUP2 SLOAD DUP2 PUSH20 0xFFFFFFFFFFFFFFFFFFFFFFFFFFFFFFFFFFFFFFFF MUL NOT AND SWAP1 DUP4 PUSH20 0xFFFFFFFFFFFFFFFFFFFFFFFFFFFFFFFFFFFFFFFF AND MUL OR SWAP1 SSTORE POP POP POP PUSH2 0x59B JUMP JUMPDEST PUSH0 PUSH1 0x40 MLOAD SWAP1 POP SWAP1 JUMP JUMPDEST PUSH0 PUSH0 REVERT JUMPDEST PUSH0 PUSH0 REVERT JUMPDEST PUSH0 PUSH20 0xFFFFFFFFFFFFFFFFFFFFFFFFFFFFFFFFFFFFFFFF DUP3 AND SWAP1 POP SWAP2 SWAP1 POP JUMP JUMPDEST PUSH0 PUSH2 0xF5 DUP3 PUSH2 0xCC JUMP JUMPDEST SWAP1 POP SWAP2 SWAP1 POP JUMP JUMPDEST PUSH2 0x105 DUP2 PUSH2 0xEB JUMP JUMPDEST DUP2 EQ PUSH2 0x10F JUMPI PUSH0 PUSH0 REVERT JUMPDEST POP JUMP JUMPDEST PUSH0 DUP2 MLOAD SWAP1 POP PUSH2 0x120 DUP2 PUSH2 0xFC JUMP JUMPDEST SWAP3 SWAP2 POP POP JUMP JUMPDEST PUSH0 PUSH0 REVERT JUMPDEST PUSH0 PUSH0 REVERT JUMPDEST PUSH0 PUSH1 0x1F NOT PUSH1 0x1F DUP4 ADD AND SWAP1 POP SWAP2 SWAP1 POP JUMP JUMPDEST PUSH32 0x4E487B7100000000000000000000000000000000000000000000000000000000 PUSH0 MSTORE PUSH1 0x41 PUSH1 0x4 MSTORE PUSH1 0x24 PUSH0 REVERT JUMPDEST PUSH2 0x174 DUP3 PUSH2 0x12E JUMP JUMPDEST DUP2 ADD DUP2 DUP2 LT PUSH8 0xFFFFFFFFFFFFFFFF DUP3 GT OR ISZERO PUSH2 0x193 JUMPI PUSH2 0x192 PUSH2 0x13E JUMP JUMPDEST JUMPDEST DUP1 PUSH1 0x40 MSTORE POP POP POP JUMP JUMPDEST PUSH0 PUSH2 0x1A5 PUSH2 0xBB JUMP JUMPDEST SWAP1 POP PUSH2 0x1B1 DUP3 DUP3 PUSH2 0x16B JUMP JUMPDEST SWAP2 SWAP1 POP JUMP JUMPDEST PUSH0 PUSH8 0xFFFFFFFFFFFFFFFF DUP3 GT ISZERO PUSH2 0x1D0 JUMPI PUSH2 0x1CF PUSH2 0x13E JUMP JUMPDEST JUMPDEST PUSH2 0x1D9 DUP3 PUSH2 0x12E JUMP JUMPDEST SWAP1 POP PUSH1 0x20 DUP2 ADD SWAP1 POP SWAP2 SWAP1 POP JUMP JUMPDEST DUP3 DUP2 DUP4 MCOPY PUSH0 DUP4 DUP4 ADD MSTORE POP POP POP JUMP JUMPDEST PUSH0 PUSH2 0x206 PUSH2 0x201 DUP5 PUSH2 0x1B6 JUMP JUMPDEST PUSH2 0x19C JUMP JUMPDEST SWAP1 POP DUP3 DUP2 MSTORE PUSH1 0x20 DUP2 ADD DUP5 DUP5 DUP5 ADD GT ISZERO PUSH2 0x222 JUMPI PUSH2 0x221 PUSH2 0x12A JUMP JUMPDEST JUMPDEST PUSH2 0x22D DUP5 DUP3 DUP6 PUSH2 0x1E6 JUMP JUMPDEST POP SWAP4 SWAP3 POP POP POP JUMP JUMPDEST PUSH0 DUP3 PUSH1 0x1F DUP4 ADD SLT PUSH2 0x249 JUMPI PUSH2 0x248 PUSH2 0x126 JUMP JUMPDEST JUMPDEST DUP2 MLOAD PUSH2 0x259 DUP5 DUP3 PUSH1 0x20 DUP7 ADD PUSH2 0x1F4 JUMP JUMPDEST SWAP2 POP POP SWAP3 SWAP2 POP POP JUMP JUMPDEST PUSH0 PUSH0 PUSH1 0x40 DUP4 DUP6 SUB SLT ISZERO PUSH2 0x278 JUMPI PUSH2 0x277 PUSH2 0xC4 JUMP JUMPDEST JUMPDEST PUSH0 PUSH2 0x285 DUP6 DUP3 DUP7 ADD PUSH2 0x112 JUMP JUMPDEST SWAP3 POP POP PUSH1 0x20 DUP4 ADD MLOAD PUSH8 0xFFFFFFFFFFFFFFFF DUP2 GT ISZERO PUSH2 0x2A6 JUMPI PUSH2 0x2A5 PUSH2 0xC8 JUMP JUMPDEST JUMPDEST PUSH2 0x2B2 DUP6 DUP3 DUP7 ADD PUSH2 0x235 JUMP JUMPDEST SWAP2 POP POP SWAP3 POP SWAP3 SWAP1 POP JUMP JUMPDEST PUSH0 DUP2 MLOAD SWAP1 POP SWAP2 SWAP1 POP JUMP JUMPDEST PUSH32 0x4E487B7100000000000000000000000000000000000000000000000000000000 PUSH0 MSTORE PUSH1 0x22 PUSH1 0x4 MSTORE PUSH1 0x24 PUSH0 REVERT JUMPDEST PUSH0 PUSH1 0x2 DUP3 DIV SWAP1 POP PUSH1 0x1 DUP3 AND DUP1 PUSH2 0x30A JUMPI PUSH1 0x7F DUP3 AND SWAP2 POP JUMPDEST PUSH1 0x20 DUP3 LT DUP2 SUB PUSH2 0x31D JUMPI PUSH2 0x31C PUSH2 0x2C6 JUMP JUMPDEST JUMPDEST POP SWAP2 SWAP1 POP JUMP JUMPDEST PUSH0 DUP2 SWAP1 POP DUP2 PUSH0 MSTORE PUSH1 0x20 PUSH0 KECCAK256 SWAP1 POP SWAP2 SWAP1 POP JUMP JUMPDEST PUSH0 PUSH1 0x20 PUSH1 0x1F DUP4 ADD DIV SWAP1 POP SWAP2 SWAP1 POP JUMP JUMPDEST PUSH0 DUP3 DUP3 SHL SWAP1 POP SWAP3 SWAP2 POP POP JUMP JUMPDEST PUSH0 PUSH1 0x8 DUP4 MUL PUSH2 0x37F PUSH32 0xFFFFFFFFFFFFFFFFFFFFFFFFFFFFFFFFFFFFFFFFFFFFFFFFFFFFFFFFFFFFFFFF DUP3 PUSH2 0x344 JUMP JUMPDEST PUSH2 0x389 DUP7 DUP4 PUSH2 0x344 JUMP JUMPDEST SWAP6 POP DUP1 NOT DUP5 AND SWAP4 POP DUP1 DUP7 AND DUP5 OR SWAP3 POP POP POP SWAP4 SWAP3 POP POP POP JUMP JUMPDEST PUSH0 DUP2 SWAP1 POP SWAP2 SWAP1 POP JUMP JUMPDEST PUSH0 DUP2 SWAP1 POP SWAP2 SWAP1 POP JUMP JUMPDEST PUSH0 PUSH2 0x3CD PUSH2 0x3C8 PUSH2 0x3C3 DUP5 PUSH2 0x3A1 JUMP JUMPDEST PUSH2 0x3AA JUMP JUMPDEST PUSH2 0x3A1 JUMP JUMPDEST SWAP1 POP SWAP2 SWAP1 POP JUMP JUMPDEST PUSH0 DUP2 SWAP1 POP SWAP2 SWAP1 POP JUMP JUMPDEST PUSH2 0x3E6 DUP4 PUSH2 0x3B3 JUMP JUMPDEST PUSH2 0x3FA PUSH2 0x3F2 DUP3 PUSH2 0x3D4 JUMP JUMPDEST DUP5 DUP5 SLOAD PUSH2 0x350 JUMP JUMPDEST DUP3 SSTORE POP POP POP POP JUMP JUMPDEST PUSH0 PUSH0 SWAP1 POP SWAP1 JUMP JUMPDEST PUSH2 0x411 PUSH2 0x402 JUMP JUMPDEST PUSH2 0x41C DUP2 DUP5 DUP5 PUSH2 0x3DD JUMP JUMPDEST POP POP POP JUMP JUMPDEST JUMPDEST DUP2 DUP2 LT ISZERO PUSH2 0x43F JUMPI PUSH2 0x434 PUSH0 DUP3 PUSH2 0x409 JUMP JUMPDEST PUSH1 0x1 DUP2 ADD SWAP1 POP PUSH2 0x422 JUMP JUMPDEST POP POP JUMP JUMPDEST PUSH1 0x1F DUP3 GT ISZERO PUSH2 0x484 JUMPI PUSH2 0x455 DUP2 PUSH2 0x323 JUMP JUMPDEST PUSH2 0x45E DUP5 PUSH2 0x335 JUMP JUMPDEST DUP2 ADD PUSH1 0x20 DUP6 LT ISZERO PUSH2 0x46D JUMPI DUP2 SWAP1 POP JUMPDEST PUSH2 0x481 PUSH2 0x479 DUP6 PUSH2 0x335 JUMP JUMPDEST DUP4 ADD DUP3 PUSH2 0x421 JUMP JUMPDEST POP POP JUMPDEST POP POP POP JUMP JUMPDEST PUSH0 DUP3 DUP3 SHR SWAP1 POP SWAP3 SWAP2 POP POP JUMP JUMPDEST PUSH0 PUSH2 0x4A4 PUSH0 NOT DUP5 PUSH1 0x8 MUL PUSH2 0x489 JUMP JUMPDEST NOT DUP1 DUP4 AND SWAP2 POP POP SWAP3 SWAP2 POP POP JUMP JUMPDEST PUSH0 PUSH2 0x4BC DUP4 DUP4 PUSH2 0x495 JUMP JUMPDEST SWAP2 POP DUP3 PUSH1 0x2 MUL DUP3 OR SWAP1 POP SWAP3 SWAP2 POP POP JUMP JUMPDEST PUSH2 0x4D5 DUP3 PUSH2 0x2BC JUMP JUMPDEST PUSH8 0xFFFFFFFFFFFFFFFF DUP2 GT ISZERO PUSH2 0x4EE JUMPI PUSH2 0x4ED PUSH2 0x13E JUMP JUMPDEST JUMPDEST PUSH2 0x4F8 DUP3 SLOAD PUSH2 0x2F3 JUMP JUMPDEST PUSH2 0x503 DUP3 DUP3 DUP6 PUSH2 0x443 JUMP JUMPDEST PUSH0 PUSH1 0x20 SWAP1 POP PUSH1 0x1F DUP4 GT PUSH1 0x1 DUP2 EQ PUSH2 0x534 JUMPI PUSH0 DUP5 ISZERO PUSH2 0x522 JUMPI DUP3 DUP8 ADD MLOAD SWAP1 POP JUMPDEST PUSH2 0x52C DUP6 DUP3 PUSH2 0x4B1 JUMP JUMPDEST DUP7 SSTORE POP PUSH2 0x593 JUMP JUMPDEST PUSH1 0x1F NOT DUP5 AND PUSH2 0x542 DUP7 PUSH2 0x323 JUMP JUMPDEST PUSH0 JUMPDEST DUP3 DUP2 LT ISZERO PUSH2 0x569 JUMPI DUP5 DUP10 ADD MLOAD DUP3 SSTORE PUSH1 0x1 DUP3 ADD SWAP2 POP PUSH1 0x20 DUP6 ADD SWAP5 POP PUSH1 0x20 DUP2 ADD SWAP1 POP PUSH2 0x544 JUMP JUMPDEST DUP7 DUP4 LT ISZERO PUSH2 0x586 JUMPI DUP5 DUP10 ADD MLOAD PUSH2 0x582 PUSH1 0x1F DUP10 AND DUP3 PUSH2 0x495 JUMP JUMPDEST DUP4 SSTORE POP JUMPDEST PUSH1 0x1 PUSH1 0x2 DUP9 MUL ADD DUP9 SSTORE POP POP POP JUMPDEST POP POP POP POP POP POP JUMP JUMPDEST PUSH2 0x2ED DUP1 PUSH2 0x5A8 PUSH0 CODECOPY PUSH0 RETURN INVALID PUSH1 0x80 PUSH1 0x40 MSTORE CALLVALUE DUP1 ISZERO PUSH2 0xF JUMPI PUSH0 PUSH0 REVERT JUMPDEST POP PUSH1 0x4 CALLDATASIZE LT PUSH2 0x3F JUMPI PUSH0 CALLDATALOAD PUSH1 0xE0 SHR DUP1 PUSH4 0xAD9D052 EQ PUSH2 0x43 JUMPI DUP1 PUSH4 0x514FA676 EQ PUSH2 0x61 JUMPI DUP1 PUSH4 0x8DA5CB5B EQ PUSH2 0x7F JUMPI JUMPDEST PUSH0 PUSH0 REVERT JUMPDEST PUSH2 0x4B PUSH2 0x9D JUMP JUMPDEST PUSH1 0x40 MLOAD PUSH2 0x58 SWAP2 SWAP1 PUSH2 0x1E2 JUMP JUMPDEST PUSH1 0x40 MLOAD DUP1 SWAP2 SUB SWAP1 RETURN JUMPDEST PUSH2 0x69 PUSH2 0x129 JUMP JUMPDEST PUSH1 0x40 MLOAD PUSH2 0x76 SWAP2 SWAP1 PUSH2 0x241 JUMP JUMPDEST PUSH1 0x40 MLOAD DUP1 SWAP2 SUB SWAP1 RETURN JUMPDEST PUSH2 0x87 PUSH2 0x14E JUMP JUMPDEST PUSH1 0x40 MLOAD PUSH2 0x94 SWAP2 SWAP1 PUSH2 0x241 JUMP JUMPDEST PUSH1 0x40 MLOAD DUP1 SWAP2 SUB SWAP1 RETURN JUMPDEST PUSH1 0x1 DUP1 SLOAD PUSH2 0xAA SWAP1 PUSH2 0x287 JUMP JUMPDEST DUP1 PUSH1 0x1F ADD PUSH1 0x20 DUP1 SWAP2 DIV MUL PUSH1 0x20 ADD PUSH1 0x40 MLOAD SWAP1 DUP2 ADD PUSH1 0x40 MSTORE DUP1 SWAP3 SWAP2 SWAP1 DUP2 DUP2 MSTORE PUSH1 0x20 ADD DUP3 DUP1 SLOAD PUSH2 0xD6 SWAP1 PUSH2 0x287 JUMP JUMPDEST DUP1 ISZERO PUSH2 0x121 JUMPI DUP1 PUSH1 0x1F LT PUSH2 0xF8 JUMPI PUSH2 0x100 DUP1 DUP4 SLOAD DIV MUL DUP4 MSTORE SWAP2 PUSH1 0x20 ADD SWAP2 PUSH2 0x121 JUMP JUMPDEST DUP3 ADD SWAP2 SWAP1 PUSH0 MSTORE PUSH1 0x20 PUSH0 KECCAK256 SWAP1 JUMPDEST DUP2 SLOAD DUP2 MSTORE SWAP1 PUSH1 0x1 ADD SWAP1 PUSH1 0x20 ADD DUP1 DUP4 GT PUSH2 0x104 JUMPI DUP3 SWAP1 SUB PUSH1 0x1F AND DUP3 ADD SWAP2 JUMPDEST POP POP POP POP POP DUP2 JUMP JUMPDEST PUSH1 0x2 PUSH0 SWAP1 SLOAD SWAP1 PUSH2 0x100 EXP SWAP1 DIV PUSH20 0xFFFFFFFFFFFFFFFFFFFFFFFFFFFFFFFFFFFFFFFF AND DUP2 JUMP JUMPDEST PUSH0 PUSH0 SWAP1 SLOAD SWAP1 PUSH2 0x100 EXP SWAP1 DIV PUSH20 0xFFFFFFFFFFFFFFFFFFFFFFFFFFFFFFFFFFFFFFFF AND DUP2 JUMP JUMPDEST PUSH0 DUP2 MLOAD SWAP1 POP SWAP2 SWAP1 POP JUMP JUMPDEST PUSH0 DUP3 DUP3 MSTORE PUSH1 0x20 DUP3 ADD SWAP1 POP SWAP3 SWAP2 POP POP JUMP JUMPDEST DUP3 DUP2 DUP4 MCOPY PUSH0 DUP4 DUP4 ADD MSTORE POP POP POP JUMP JUMPDEST PUSH0 PUSH1 0x1F NOT PUSH1 0x1F DUP4 ADD AND SWAP1 POP SWAP2 SWAP1 POP JUMP JUMPDEST PUSH0 PUSH2 0x1B4 DUP3 PUSH2 0x172 JUMP JUMPDEST PUSH2 0x1BE DUP2 DUP6 PUSH2 0x17C JUMP JUMPDEST SWAP4 POP PUSH2 0x1CE DUP2 DUP6 PUSH1 0x20 DUP7 ADD PUSH2 0x18C JUMP JUMPDEST PUSH2 0x1D7 DUP2 PUSH2 0x19A JUMP JUMPDEST DUP5 ADD SWAP2 POP POP SWAP3 SWAP2 POP POP JUMP JUMPDEST PUSH0 PUSH1 0x20 DUP3 ADD SWAP1 POP DUP2 DUP2 SUB PUSH0 DUP4 ADD MSTORE PUSH2 0x1FA DUP2 DUP5 PUSH2 0x1AA JUMP JUMPDEST SWAP1 POP SWAP3 SWAP2 POP POP JUMP JUMPDEST PUSH0 PUSH20 0xFFFFFFFFFFFFFFFFFFFFFFFFFFFFFFFFFFFFFFFF DUP3 AND SWAP1 POP SWAP2 SWAP1 POP JUMP JUMPDEST PUSH0 PUSH2 0x22B DUP3 PUSH2 0x202 JUMP JUMPDEST SWAP1 POP SWAP2 SWAP1 POP JUMP JUMPDEST PUSH2 0x23B DUP2 PUSH2 0x221 JUMP JUMPDEST DUP3 MSTORE POP POP JUMP JUMPDEST PUSH0 PUSH1 0x20 DUP3 ADD SWAP1 POP PUSH2 0x254 PUSH0 DUP4 ADD DUP5 PUSH2 0x232 JUMP JUMPDEST SWAP3 SWAP2 POP POP JUMP JUMPDEST PUSH32 0x4E487B7100000000000000000000000000000000000000000000000000000000 PUSH0 MSTORE PUSH1 0x22 PUSH1 0x4 MSTORE PUSH1 0x24 PUSH0 REVERT JUMPDEST PUSH0 PUSH1 0x2 DUP3 DIV SWAP1 POP PUSH1 0x1 DUP3 AND DUP1 PUSH2 0x29E JUMPI PUSH1 0x7F DUP3 AND SWAP2 POP JUMPDEST PUSH1 0x20 DUP3 LT DUP2 SUB PUSH2 0x2B1 JUMPI PUSH2 0x2B0 PUSH2 0x25A JUMP JUMPDEST JUMPDEST POP SWAP2 SWAP1 POP JUMP INVALID LOG2 PUSH5 0x6970667358 0x22 SLT KECCAK256 SWAP8 LOG0 RETF SSTORE 0xD9 EXTCALL 0xD8 0xB9 0xC6 0xC5 ADD GT SAR PUSH16 0x593C1C29614FB227A59E20A5F47108AE 0xAC DIV PUSH5 0x736F6C6343 STOP ADDMOD 0x1E STOP CALLER LOG2 PUSH5 0x6970667358 0x22 SLT KECCAK256 0xD4 0xAC 0xC8 SUB LOG2 0x2B 0xA7 DUPN 0xF9 0xE8 0xCB 0xBF 0xD2 ISZERO SAR 0xB6 SIGNEXTEND PUSH30 0x6A36BB3E6A64C5A90E34C8389A3A64736F6C634300081E00330000000000 "
				},
				"gasEstimates": {
					"creation": {
						"codeDepositCost": "1052600",
						"executionCost": "1092",
						"totalCost": "1053692"
					},
					"external": {
						"cars(uint256)": "infinite",
						"create(address,string)": "infinite",
						"create2(address,string,bytes32)": "infinite",
						"create2AndSendEther(address,string,bytes32)": "infinite",
						"createAndSendEther(address,string)": "infinite",
						"getCar(uint256)": "infinite",
						"getCarCount()": "2440"
					}
				},
				"methodIdentifiers": {
					"cars(uint256)": "f7746e36",
					"create(address,string)": "a15ab08d",
					"create2(address,string,bytes32)": "ace276ee",
					"create2AndSendEther(address,string,bytes32)": "3d4b3015",
					"createAndSendEther(address,string)": "c33cd615",
					"getCar(uint256)": "5e8be190",
					"getCarCount()": "27436b59"
				}
			},
			"storageLayout": {
				"storage": [
					{
						"astId": 35,
						"contract": "Contract that Creates other Contracts.sol:CarFactory",
						"label": "cars",
						"offset": 0,
						"slot": "0",
						"type": "t_array(t_contract(Car)31)dyn_storage"
					}
				],
				"types": {
					"t_array(t_contract(Car)31)dyn_storage": {
						"base": "t_contract(Car)31",
						"encoding": "dynamic_array",
						"label": "contract Car[]",
						"numberOfBytes": "32"
					},
					"t_contract(Car)31": {
						"encoding": "inplace",
						"label": "contract Car",
						"numberOfBytes": "20"
					}
				}
			},
			"userdoc": {
				"kind": "user",
				"methods": {},
				"version": 1
			}
		}
	}
}