{
	"application_contracts/Merkle Tree.sol": {
		"TestMerkleProof": {
			"abi": [
				{
					"inputs": [],
					"stateMutability": "nonpayable",
					"type": "constructor"
				},
				{
					"inputs": [],
					"name": "getHash",
					"outputs": [
						{
							"internalType": "bytes32[]",
							"name": "",
							"type": "bytes32[]"
						}
					],
					"stateMutability": "view",
					"type": "function"
				},
				{
					"inputs": [],
					"name": "getRoot",
					"outputs": [
						{
							"internalType": "bytes32",
							"name": "",
							"type": "bytes32"
						}
					],
					"stateMutability": "view",
					"type": "function"
				},
				{
					"inputs": [
						{
							"internalType": "uint256",
							"name": "",
							"type": "uint256"
						}
					],
					"name": "hashes",
					"outputs": [
						{
							"internalType": "bytes32",
							"name": "",
							"type": "bytes32"
						}
					],
					"stateMutability": "view",
					"type": "function"
				},
				{
					"inputs": [
						{
							"internalType": "bytes32[]",
							"name": "proof",
							"type": "bytes32[]"
						},
						{
							"internalType": "bytes32",
							"name": "root",
							"type": "bytes32"
						},
						{
							"internalType": "bytes32",
							"name": "leaf",
							"type": "bytes32"
						},
						{
							"internalType": "uint256",
							"name": "index",
							"type": "uint256"
						}
					],
					"name": "verify",
					"outputs": [
						{
							"internalType": "bool",
							"name": "",
							"type": "bool"
						}
					],
					"stateMutability": "pure",
					"type": "function"
				}
			],
			"devdoc": {
				"kind": "dev",
				"methods": {},
				"version": 1
			},
			"evm": {
				"assembly": "    /* \"application_contracts/Merkle Tree.sol\":629:1503  contract TestMerkleProof is MerkleProof {... */\n  mstore(0x40, 0x80)\n    /* \"application_contracts/Merkle Tree.sol\":706:1296  constructor() {... */\n  callvalue\n  dup1\n  iszero\n  tag_1\n  jumpi\n  revert(0x00, 0x00)\ntag_1:\n  pop\n    /* \"application_contracts/Merkle Tree.sol\":731:760  string[4] memory transactions */\n  0x00\n    /* \"application_contracts/Merkle Tree.sol\":731:827  string[4] memory transactions = [\"alice -> bob\", \"bob -> dave\", \"carol -> alice\", \"dave -> bob\"] */\n  mload(0x40)\n  dup1\n  0x80\n  add\n  0x40\n  mstore\n  dup1\n  mload(0x40)\n  dup1\n  0x40\n  add\n  0x40\n  mstore\n  dup1\n  0x0c\n  dup2\n  mstore\n  0x20\n  add\n  0x616c696365202d3e20626f620000000000000000000000000000000000000000\n  dup2\n  mstore\n  pop\n  dup2\n  mstore\n  0x20\n  add\n  mload(0x40)\n  dup1\n  0x40\n  add\n  0x40\n  mstore\n  dup1\n  0x0b\n  dup2\n  mstore\n  0x20\n  add\n  0x626f62202d3e2064617665000000000000000000000000000000000000000000\n  dup2\n  mstore\n  pop\n  dup2\n  mstore\n  0x20\n  add\n  mload(0x40)\n  dup1\n  0x40\n  add\n  0x40\n  mstore\n  dup1\n  0x0e\n  dup2\n  mstore\n  0x20\n  add\n  0x6361726f6c202d3e20616c696365000000000000000000000000000000000000\n  dup2\n  mstore\n  pop\n  dup2\n  mstore\n  0x20\n  add\n  mload(0x40)\n  dup1\n  0x40\n  add\n  0x40\n  mstore\n  dup1\n  0x0b\n  dup2\n  mstore\n  0x20\n  add\n  0x64617665202d3e20626f62000000000000000000000000000000000000000000\n  dup2\n  mstore\n  pop\n  dup2\n  mstore\n  pop\n  swap1\n  pop\n    /* \"application_contracts/Merkle Tree.sol\":843:849  uint i */\n  0x00\n    /* \"application_contracts/Merkle Tree.sol\":852:853  0 */\n  0x00\n    /* \"application_contracts/Merkle Tree.sol\":843:853  uint i = 0 */\n  swap1\n  pop\n    /* \"application_contracts/Merkle Tree.sol\":838:969  for (uint i = 0; i < transactions.length; i++) {... */\ntag_4:\n    /* \"application_contracts/Merkle Tree.sol\":859:878  transactions.length */\n  0x04\n    /* \"application_contracts/Merkle Tree.sol\":855:856  i */\n  dup2\n    /* \"application_contracts/Merkle Tree.sol\":855:878  i < transactions.length */\n  lt\n    /* \"application_contracts/Merkle Tree.sol\":838:969  for (uint i = 0; i < transactions.length; i++) {... */\n  iszero\n  tag_5\n  jumpi\n    /* \"application_contracts/Merkle Tree.sol\":900:906  hashes */\n  0x00\n    /* \"application_contracts/Merkle Tree.sol\":939:951  transactions */\n  dup3\n    /* \"application_contracts/Merkle Tree.sol\":952:953  i */\n  dup3\n    /* \"application_contracts/Merkle Tree.sol\":939:954  transactions[i] */\n  0x04\n  dup2\n  lt\n  tag_7\n  jumpi\n  tag_8\n  tag_9\n  jump\t// in\ntag_8:\ntag_7:\n  0x20\n  mul\n  add\n  mload\n    /* \"application_contracts/Merkle Tree.sol\":922:955  abi.encodePacked(transactions[i]) */\n  add(0x20, mload(0x40))\n  tag_10\n  swap2\n  swap1\n  tag_11\n  jump\t// in\ntag_10:\n  mload(0x40)\n  0x20\n  dup2\n  dup4\n  sub\n  sub\n  dup2\n  mstore\n  swap1\n  0x40\n  mstore\n    /* \"application_contracts/Merkle Tree.sol\":912:956  keccak256(abi.encodePacked(transactions[i])) */\n  dup1\n  mload\n  swap1\n  0x20\n  add\n  keccak256\n    /* \"application_contracts/Merkle Tree.sol\":900:957  hashes.push(keccak256(abi.encodePacked(transactions[i]))) */\n  swap1\n  dup1\n  0x01\n  dup2\n  sload\n  add\n  dup1\n  dup3\n  sstore\n  dup1\n  swap2\n  pop\n  pop\n  0x01\n  swap1\n  sub\n  swap1\n  0x00\n  mstore\n  keccak256(0x00, 0x20)\n  add\n  0x00\n  swap1\n  swap2\n  swap1\n  swap2\n  swap1\n  swap2\n  pop\n  sstore\n    /* \"application_contracts/Merkle Tree.sol\":880:883  i++ */\n  dup1\n  dup1\n  0x01\n  add\n  swap2\n  pop\n  pop\n    /* \"application_contracts/Merkle Tree.sol\":838:969  for (uint i = 0; i < transactions.length; i++) {... */\n  jump(tag_4)\ntag_5:\n  pop\n    /* \"application_contracts/Merkle Tree.sol\":979:985  uint n */\n  0x00\n    /* \"application_contracts/Merkle Tree.sol\":988:1007  transactions.length */\n  0x04\n    /* \"application_contracts/Merkle Tree.sol\":979:1007  uint n = transactions.length */\n  swap1\n  pop\n    /* \"application_contracts/Merkle Tree.sol\":1018:1029  uint offset */\n  0x00\n    /* \"application_contracts/Merkle Tree.sol\":1032:1033  0 */\n  0x00\n    /* \"application_contracts/Merkle Tree.sol\":1018:1033  uint offset = 0 */\n  swap1\n  pop\n    /* \"application_contracts/Merkle Tree.sol\":1044:1289  while (n > 0) {... */\ntag_13:\n    /* \"application_contracts/Merkle Tree.sol\":1055:1056  0 */\n  0x00\n    /* \"application_contracts/Merkle Tree.sol\":1051:1052  n */\n  dup3\n    /* \"application_contracts/Merkle Tree.sol\":1051:1056  n > 0 */\n  gt\n    /* \"application_contracts/Merkle Tree.sol\":1044:1289  while (n > 0) {... */\n  iszero\n  tag_14\n  jumpi\n    /* \"application_contracts/Merkle Tree.sol\":1078:1084  uint i */\n  0x00\n    /* \"application_contracts/Merkle Tree.sol\":1087:1088  0 */\n  0x00\n    /* \"application_contracts/Merkle Tree.sol\":1078:1088  uint i = 0 */\n  swap1\n  pop\n    /* \"application_contracts/Merkle Tree.sol\":1073:1228  for (uint i = 0; i < n - 1; i += 2) {... */\ntag_15:\n    /* \"application_contracts/Merkle Tree.sol\":1098:1099  1 */\n  0x01\n    /* \"application_contracts/Merkle Tree.sol\":1094:1095  n */\n  dup4\n    /* \"application_contracts/Merkle Tree.sol\":1094:1099  n - 1 */\n  tag_18\n  swap2\n  swap1\n  tag_19\n  jump\t// in\ntag_18:\n    /* \"application_contracts/Merkle Tree.sol\":1090:1091  i */\n  dup2\n    /* \"application_contracts/Merkle Tree.sol\":1090:1099  i < n - 1 */\n  lt\n    /* \"application_contracts/Merkle Tree.sol\":1073:1228  for (uint i = 0; i < n - 1; i += 2) {... */\n  iszero\n  tag_16\n  jumpi\n    /* \"application_contracts/Merkle Tree.sol\":1128:1134  hashes */\n  0x00\n    /* \"application_contracts/Merkle Tree.sol\":1167:1173  hashes */\n  0x00\n    /* \"application_contracts/Merkle Tree.sol\":1183:1184  i */\n  dup3\n    /* \"application_contracts/Merkle Tree.sol\":1174:1180  offset */\n  dup5\n    /* \"application_contracts/Merkle Tree.sol\":1174:1184  offset + i */\n  tag_20\n  swap2\n  swap1\n  tag_21\n  jump\t// in\ntag_20:\n    /* \"application_contracts/Merkle Tree.sol\":1167:1185  hashes[offset + i] */\n  dup2\n  sload\n  dup2\n  lt\n  tag_22\n  jumpi\n  tag_23\n  tag_9\n  jump\t// in\ntag_23:\ntag_22:\n  swap1\n  0x00\n  mstore\n  keccak256(0x00, 0x20)\n  add\n  sload\n    /* \"application_contracts/Merkle Tree.sol\":1187:1193  hashes */\n  0x00\n    /* \"application_contracts/Merkle Tree.sol\":1207:1208  1 */\n  0x01\n    /* \"application_contracts/Merkle Tree.sol\":1203:1204  i */\n  dup5\n    /* \"application_contracts/Merkle Tree.sol\":1194:1200  offset */\n  dup7\n    /* \"application_contracts/Merkle Tree.sol\":1194:1204  offset + i */\n  tag_25\n  swap2\n  swap1\n  tag_21\n  jump\t// in\ntag_25:\n    /* \"application_contracts/Merkle Tree.sol\":1194:1208  offset + i + 1 */\n  tag_26\n  swap2\n  swap1\n  tag_21\n  jump\t// in\ntag_26:\n    /* \"application_contracts/Merkle Tree.sol\":1187:1209  hashes[offset + i + 1] */\n  dup2\n  sload\n  dup2\n  lt\n  tag_27\n  jumpi\n  tag_28\n  tag_9\n  jump\t// in\ntag_28:\ntag_27:\n  swap1\n  0x00\n  mstore\n  keccak256(0x00, 0x20)\n  add\n  sload\n    /* \"application_contracts/Merkle Tree.sol\":1150:1210  abi.encodePacked(hashes[offset + i], hashes[offset + i + 1]) */\n  add(0x20, mload(0x40))\n  tag_30\n  swap3\n  swap2\n  swap1\n  tag_31\n  jump\t// in\ntag_30:\n  mload(0x40)\n  0x20\n  dup2\n  dup4\n  sub\n  sub\n  dup2\n  mstore\n  swap1\n  0x40\n  mstore\n    /* \"application_contracts/Merkle Tree.sol\":1140:1211  keccak256(abi.encodePacked(hashes[offset + i], hashes[offset + i + 1])) */\n  dup1\n  mload\n  swap1\n  0x20\n  add\n  keccak256\n    /* \"application_contracts/Merkle Tree.sol\":1128:1212  hashes.push(keccak256(abi.encodePacked(hashes[offset + i], hashes[offset + i + 1]))) */\n  swap1\n  dup1\n  0x01\n  dup2\n  sload\n  add\n  dup1\n  dup3\n  sstore\n  dup1\n  swap2\n  pop\n  pop\n  0x01\n  swap1\n  sub\n  swap1\n  0x00\n  mstore\n  keccak256(0x00, 0x20)\n  add\n  0x00\n  swap1\n  swap2\n  swap1\n  swap2\n  swap1\n  swap2\n  pop\n  sstore\n    /* \"application_contracts/Merkle Tree.sol\":1106:1107  2 */\n  0x02\n    /* \"application_contracts/Merkle Tree.sol\":1101:1107  i += 2 */\n  dup2\n  tag_33\n  swap2\n  swap1\n  tag_21\n  jump\t// in\ntag_33:\n  swap1\n  pop\n    /* \"application_contracts/Merkle Tree.sol\":1073:1228  for (uint i = 0; i < n - 1; i += 2) {... */\n  jump(tag_15)\ntag_16:\n  pop\n    /* \"application_contracts/Merkle Tree.sol\":1252:1253  n */\n  dup2\n    /* \"application_contracts/Merkle Tree.sol\":1242:1253  offset += n */\n  dup2\n  tag_34\n  swap2\n  swap1\n  tag_21\n  jump\t// in\ntag_34:\n  swap1\n  pop\n    /* \"application_contracts/Merkle Tree.sol\":1276:1277  2 */\n  0x02\n    /* \"application_contracts/Merkle Tree.sol\":1272:1273  n */\n  dup3\n    /* \"application_contracts/Merkle Tree.sol\":1272:1277  n / 2 */\n  tag_35\n  swap2\n  swap1\n  tag_36\n  jump\t// in\ntag_35:\n    /* \"application_contracts/Merkle Tree.sol\":1268:1277  n = n / 2 */\n  swap2\n  pop\n    /* \"application_contracts/Merkle Tree.sol\":1044:1289  while (n > 0) {... */\n  jump(tag_13)\ntag_14:\n    /* \"application_contracts/Merkle Tree.sol\":720:1296  {... */\n  pop\n  pop\n  pop\n    /* \"application_contracts/Merkle Tree.sol\":629:1503  contract TestMerkleProof is MerkleProof {... */\n  jump(tag_37)\n    /* \"#utility.yul\":7:187   */\ntag_9:\n    /* \"#utility.yul\":55:132   */\n  0x4e487b7100000000000000000000000000000000000000000000000000000000\n    /* \"#utility.yul\":52:53   */\n  0x00\n    /* \"#utility.yul\":45:133   */\n  mstore\n    /* \"#utility.yul\":152:156   */\n  0x32\n    /* \"#utility.yul\":149:150   */\n  0x04\n    /* \"#utility.yul\":142:157   */\n  mstore\n    /* \"#utility.yul\":176:180   */\n  0x24\n    /* \"#utility.yul\":173:174   */\n  0x00\n    /* \"#utility.yul\":166:181   */\n  revert\n    /* \"#utility.yul\":193:292   */\ntag_38:\n    /* \"#utility.yul\":245:251   */\n  0x00\n    /* \"#utility.yul\":279:284   */\n  dup2\n    /* \"#utility.yul\":273:285   */\n  mload\n    /* \"#utility.yul\":263:285   */\n  swap1\n  pop\n    /* \"#utility.yul\":193:292   */\n  swap2\n  swap1\n  pop\n  jump\t// out\n    /* \"#utility.yul\":298:446   */\ntag_39:\n    /* \"#utility.yul\":400:411   */\n  0x00\n    /* \"#utility.yul\":437:440   */\n  dup2\n    /* \"#utility.yul\":422:440   */\n  swap1\n  pop\n    /* \"#utility.yul\":298:446   */\n  swap3\n  swap2\n  pop\n  pop\n  jump\t// out\n    /* \"#utility.yul\":452:591   */\ntag_40:\n    /* \"#utility.yul\":541:547   */\n  dup3\n    /* \"#utility.yul\":536:539   */\n  dup2\n    /* \"#utility.yul\":531:534   */\n  dup4\n    /* \"#utility.yul\":525:548   */\n  mcopy\n    /* \"#utility.yul\":582:583   */\n  0x00\n    /* \"#utility.yul\":573:579   */\n  dup4\n    /* \"#utility.yul\":568:571   */\n  dup4\n    /* \"#utility.yul\":564:580   */\n  add\n    /* \"#utility.yul\":557:584   */\n  mstore\n    /* \"#utility.yul\":452:591   */\n  pop\n  pop\n  pop\n  jump\t// out\n    /* \"#utility.yul\":597:987   */\ntag_41:\n    /* \"#utility.yul\":703:706   */\n  0x00\n    /* \"#utility.yul\":731:770   */\n  tag_54\n    /* \"#utility.yul\":764:769   */\n  dup3\n    /* \"#utility.yul\":731:770   */\n  tag_38\n  jump\t// in\ntag_54:\n    /* \"#utility.yul\":786:875   */\n  tag_55\n    /* \"#utility.yul\":868:874   */\n  dup2\n    /* \"#utility.yul\":863:866   */\n  dup6\n    /* \"#utility.yul\":786:875   */\n  tag_39\n  jump\t// in\ntag_55:\n    /* \"#utility.yul\":779:875   */\n  swap4\n  pop\n    /* \"#utility.yul\":884:949   */\n  tag_56\n    /* \"#utility.yul\":942:948   */\n  dup2\n    /* \"#utility.yul\":937:940   */\n  dup6\n    /* \"#utility.yul\":930:934   */\n  0x20\n    /* \"#utility.yul\":923:928   */\n  dup7\n    /* \"#utility.yul\":919:935   */\n  add\n    /* \"#utility.yul\":884:949   */\n  tag_40\n  jump\t// in\ntag_56:\n    /* \"#utility.yul\":974:980   */\n  dup1\n    /* \"#utility.yul\":969:972   */\n  dup5\n    /* \"#utility.yul\":965:981   */\n  add\n    /* \"#utility.yul\":958:981   */\n  swap2\n  pop\n    /* \"#utility.yul\":707:987   */\n  pop\n    /* \"#utility.yul\":597:987   */\n  swap3\n  swap2\n  pop\n  pop\n  jump\t// out\n    /* \"#utility.yul\":993:1268   */\ntag_11:\n    /* \"#utility.yul\":1125:1128   */\n  0x00\n    /* \"#utility.yul\":1147:1242   */\n  tag_58\n    /* \"#utility.yul\":1238:1241   */\n  dup3\n    /* \"#utility.yul\":1229:1235   */\n  dup5\n    /* \"#utility.yul\":1147:1242   */\n  tag_41\n  jump\t// in\ntag_58:\n    /* \"#utility.yul\":1140:1242   */\n  swap2\n  pop\n    /* \"#utility.yul\":1259:1262   */\n  dup2\n    /* \"#utility.yul\":1252:1262   */\n  swap1\n  pop\n    /* \"#utility.yul\":993:1268   */\n  swap3\n  swap2\n  pop\n  pop\n  jump\t// out\n    /* \"#utility.yul\":1274:1351   */\ntag_42:\n    /* \"#utility.yul\":1311:1318   */\n  0x00\n    /* \"#utility.yul\":1340:1345   */\n  dup2\n    /* \"#utility.yul\":1329:1345   */\n  swap1\n  pop\n    /* \"#utility.yul\":1274:1351   */\n  swap2\n  swap1\n  pop\n  jump\t// out\n    /* \"#utility.yul\":1357:1537   */\ntag_43:\n    /* \"#utility.yul\":1405:1482   */\n  0x4e487b7100000000000000000000000000000000000000000000000000000000\n    /* \"#utility.yul\":1402:1403   */\n  0x00\n    /* \"#utility.yul\":1395:1483   */\n  mstore\n    /* \"#utility.yul\":1502:1506   */\n  0x11\n    /* \"#utility.yul\":1499:1500   */\n  0x04\n    /* \"#utility.yul\":1492:1507   */\n  mstore\n    /* \"#utility.yul\":1526:1530   */\n  0x24\n    /* \"#utility.yul\":1523:1524   */\n  0x00\n    /* \"#utility.yul\":1516:1531   */\n  revert\n    /* \"#utility.yul\":1543:1737   */\ntag_19:\n    /* \"#utility.yul\":1583:1587   */\n  0x00\n    /* \"#utility.yul\":1603:1623   */\n  tag_62\n    /* \"#utility.yul\":1621:1622   */\n  dup3\n    /* \"#utility.yul\":1603:1623   */\n  tag_42\n  jump\t// in\ntag_62:\n    /* \"#utility.yul\":1598:1623   */\n  swap2\n  pop\n    /* \"#utility.yul\":1637:1657   */\n  tag_63\n    /* \"#utility.yul\":1655:1656   */\n  dup4\n    /* \"#utility.yul\":1637:1657   */\n  tag_42\n  jump\t// in\ntag_63:\n    /* \"#utility.yul\":1632:1657   */\n  swap3\n  pop\n    /* \"#utility.yul\":1681:1682   */\n  dup3\n    /* \"#utility.yul\":1678:1679   */\n  dup3\n    /* \"#utility.yul\":1674:1683   */\n  sub\n    /* \"#utility.yul\":1666:1683   */\n  swap1\n  pop\n    /* \"#utility.yul\":1705:1706   */\n  dup2\n    /* \"#utility.yul\":1699:1703   */\n  dup2\n    /* \"#utility.yul\":1696:1707   */\n  gt\n    /* \"#utility.yul\":1693:1730   */\n  iszero\n  tag_64\n  jumpi\n    /* \"#utility.yul\":1710:1728   */\n  tag_65\n  tag_43\n  jump\t// in\ntag_65:\n    /* \"#utility.yul\":1693:1730   */\ntag_64:\n    /* \"#utility.yul\":1543:1737   */\n  swap3\n  swap2\n  pop\n  pop\n  jump\t// out\n    /* \"#utility.yul\":1743:1934   */\ntag_21:\n    /* \"#utility.yul\":1783:1786   */\n  0x00\n    /* \"#utility.yul\":1802:1822   */\n  tag_67\n    /* \"#utility.yul\":1820:1821   */\n  dup3\n    /* \"#utility.yul\":1802:1822   */\n  tag_42\n  jump\t// in\ntag_67:\n    /* \"#utility.yul\":1797:1822   */\n  swap2\n  pop\n    /* \"#utility.yul\":1836:1856   */\n  tag_68\n    /* \"#utility.yul\":1854:1855   */\n  dup4\n    /* \"#utility.yul\":1836:1856   */\n  tag_42\n  jump\t// in\ntag_68:\n    /* \"#utility.yul\":1831:1856   */\n  swap3\n  pop\n    /* \"#utility.yul\":1879:1880   */\n  dup3\n    /* \"#utility.yul\":1876:1877   */\n  dup3\n    /* \"#utility.yul\":1872:1881   */\n  add\n    /* \"#utility.yul\":1865:1881   */\n  swap1\n  pop\n    /* \"#utility.yul\":1900:1903   */\n  dup1\n    /* \"#utility.yul\":1897:1898   */\n  dup3\n    /* \"#utility.yul\":1894:1904   */\n  gt\n    /* \"#utility.yul\":1891:1927   */\n  iszero\n  tag_69\n  jumpi\n    /* \"#utility.yul\":1907:1925   */\n  tag_70\n  tag_43\n  jump\t// in\ntag_70:\n    /* \"#utility.yul\":1891:1927   */\ntag_69:\n    /* \"#utility.yul\":1743:1934   */\n  swap3\n  swap2\n  pop\n  pop\n  jump\t// out\n    /* \"#utility.yul\":1940:2017   */\ntag_44:\n    /* \"#utility.yul\":1977:1984   */\n  0x00\n    /* \"#utility.yul\":2006:2011   */\n  dup2\n    /* \"#utility.yul\":1995:2011   */\n  swap1\n  pop\n    /* \"#utility.yul\":1940:2017   */\n  swap2\n  swap1\n  pop\n  jump\t// out\n    /* \"#utility.yul\":2023:2102   */\ntag_45:\n    /* \"#utility.yul\":2062:2069   */\n  0x00\n    /* \"#utility.yul\":2091:2096   */\n  dup2\n    /* \"#utility.yul\":2080:2096   */\n  swap1\n  pop\n    /* \"#utility.yul\":2023:2102   */\n  swap2\n  swap1\n  pop\n  jump\t// out\n    /* \"#utility.yul\":2108:2265   */\ntag_46:\n    /* \"#utility.yul\":2213:2258   */\n  tag_74\n    /* \"#utility.yul\":2233:2257   */\n  tag_75\n    /* \"#utility.yul\":2251:2256   */\n  dup3\n    /* \"#utility.yul\":2233:2257   */\n  tag_44\n  jump\t// in\ntag_75:\n    /* \"#utility.yul\":2213:2258   */\n  tag_45\n  jump\t// in\ntag_74:\n    /* \"#utility.yul\":2208:2211   */\n  dup3\n    /* \"#utility.yul\":2201:2259   */\n  mstore\n    /* \"#utility.yul\":2108:2265   */\n  pop\n  pop\n  jump\t// out\n    /* \"#utility.yul\":2271:2668   */\ntag_31:\n    /* \"#utility.yul\":2411:2414   */\n  0x00\n    /* \"#utility.yul\":2426:2501   */\n  tag_77\n    /* \"#utility.yul\":2497:2500   */\n  dup3\n    /* \"#utility.yul\":2488:2494   */\n  dup6\n    /* \"#utility.yul\":2426:2501   */\n  tag_46\n  jump\t// in\ntag_77:\n    /* \"#utility.yul\":2526:2528   */\n  0x20\n    /* \"#utility.yul\":2521:2524   */\n  dup3\n    /* \"#utility.yul\":2517:2529   */\n  add\n    /* \"#utility.yul\":2510:2529   */\n  swap2\n  pop\n    /* \"#utility.yul\":2539:2614   */\n  tag_78\n    /* \"#utility.yul\":2610:2613   */\n  dup3\n    /* \"#utility.yul\":2601:2607   */\n  dup5\n    /* \"#utility.yul\":2539:2614   */\n  tag_46\n  jump\t// in\ntag_78:\n    /* \"#utility.yul\":2639:2641   */\n  0x20\n    /* \"#utility.yul\":2634:2637   */\n  dup3\n    /* \"#utility.yul\":2630:2642   */\n  add\n    /* \"#utility.yul\":2623:2642   */\n  swap2\n  pop\n    /* \"#utility.yul\":2659:2662   */\n  dup2\n    /* \"#utility.yul\":2652:2662   */\n  swap1\n  pop\n    /* \"#utility.yul\":2271:2668   */\n  swap4\n  swap3\n  pop\n  pop\n  pop\n  jump\t// out\n    /* \"#utility.yul\":2674:2854   */\ntag_47:\n    /* \"#utility.yul\":2722:2799   */\n  0x4e487b7100000000000000000000000000000000000000000000000000000000\n    /* \"#utility.yul\":2719:2720   */\n  0x00\n    /* \"#utility.yul\":2712:2800   */\n  mstore\n    /* \"#utility.yul\":2819:2823   */\n  0x12\n    /* \"#utility.yul\":2816:2817   */\n  0x04\n    /* \"#utility.yul\":2809:2824   */\n  mstore\n    /* \"#utility.yul\":2843:2847   */\n  0x24\n    /* \"#utility.yul\":2840:2841   */\n  0x00\n    /* \"#utility.yul\":2833:2848   */\n  revert\n    /* \"#utility.yul\":2860:3045   */\ntag_36:\n    /* \"#utility.yul\":2900:2901   */\n  0x00\n    /* \"#utility.yul\":2917:2937   */\n  tag_81\n    /* \"#utility.yul\":2935:2936   */\n  dup3\n    /* \"#utility.yul\":2917:2937   */\n  tag_42\n  jump\t// in\ntag_81:\n    /* \"#utility.yul\":2912:2937   */\n  swap2\n  pop\n    /* \"#utility.yul\":2951:2971   */\n  tag_82\n    /* \"#utility.yul\":2969:2970   */\n  dup4\n    /* \"#utility.yul\":2951:2971   */\n  tag_42\n  jump\t// in\ntag_82:\n    /* \"#utility.yul\":2946:2971   */\n  swap3\n  pop\n    /* \"#utility.yul\":2990:2991   */\n  dup3\n    /* \"#utility.yul\":2980:3015   */\n  tag_83\n  jumpi\n    /* \"#utility.yul\":2995:3013   */\n  tag_84\n  tag_47\n  jump\t// in\ntag_84:\n    /* \"#utility.yul\":2980:3015   */\ntag_83:\n    /* \"#utility.yul\":3037:3038   */\n  dup3\n    /* \"#utility.yul\":3034:3035   */\n  dup3\n    /* \"#utility.yul\":3030:3039   */\n  div\n    /* \"#utility.yul\":3025:3039   */\n  swap1\n  pop\n    /* \"#utility.yul\":2860:3045   */\n  swap3\n  swap2\n  pop\n  pop\n  jump\t// out\n    /* \"application_contracts/Merkle Tree.sol\":629:1503  contract TestMerkleProof is MerkleProof {... */\ntag_37:\n  dataSize(sub_0)\n  dup1\n  dataOffset(sub_0)\n  0x00\n  codecopy\n  0x00\n  return\nstop\n\nsub_0: assembly {\n        /* \"application_contracts/Merkle Tree.sol\":629:1503  contract TestMerkleProof is MerkleProof {... */\n      mstore(0x40, 0x80)\n      callvalue\n      dup1\n      iszero\n      tag_1\n      jumpi\n      revert(0x00, 0x00)\n    tag_1:\n      pop\n      jumpi(tag_2, lt(calldatasize, 0x04))\n      shr(0xe0, calldataload(0x00))\n      dup1\n      0x21fb335c\n      eq\n      tag_3\n      jumpi\n      dup1\n      0x501895ae\n      eq\n      tag_4\n      jumpi\n      dup1\n      0x5ca1e165\n      eq\n      tag_5\n      jumpi\n      dup1\n      0xd13319c4\n      eq\n      tag_6\n      jumpi\n    tag_2:\n      revert(0x00, 0x00)\n        /* \"application_contracts/Merkle Tree.sol\":89:622  function verify(bytes32[] memory proof, bytes32 root, bytes32 leaf, uint index) public pure returns (bool) {... */\n    tag_3:\n      tag_7\n      0x04\n      dup1\n      calldatasize\n      sub\n      dup2\n      add\n      swap1\n      tag_8\n      swap2\n      swap1\n      tag_9\n      jump\t// in\n    tag_8:\n      tag_10\n      jump\t// in\n    tag_7:\n      mload(0x40)\n      tag_11\n      swap2\n      swap1\n      tag_12\n      jump\t// in\n    tag_11:\n      mload(0x40)\n      dup1\n      swap2\n      sub\n      swap1\n      return\n        /* \"application_contracts/Merkle Tree.sol\":676:699  bytes32[] public hashes */\n    tag_4:\n      tag_13\n      0x04\n      dup1\n      calldatasize\n      sub\n      dup2\n      add\n      swap1\n      tag_14\n      swap2\n      swap1\n      tag_15\n      jump\t// in\n    tag_14:\n      tag_16\n      jump\t// in\n    tag_13:\n      mload(0x40)\n      tag_17\n      swap2\n      swap1\n      tag_18\n      jump\t// in\n    tag_17:\n      mload(0x40)\n      dup1\n      swap2\n      sub\n      swap1\n      return\n        /* \"application_contracts/Merkle Tree.sol\":1302:1402  function getRoot() public view returns (bytes32) {... */\n    tag_5:\n      tag_19\n      tag_20\n      jump\t// in\n    tag_19:\n      mload(0x40)\n      tag_21\n      swap2\n      swap1\n      tag_18\n      jump\t// in\n    tag_21:\n      mload(0x40)\n      dup1\n      swap2\n      sub\n      swap1\n      return\n        /* \"application_contracts/Merkle Tree.sol\":1408:1498  function getHash() public view returns (bytes32[] memory) {... */\n    tag_6:\n      tag_22\n      tag_23\n      jump\t// in\n    tag_22:\n      mload(0x40)\n      tag_24\n      swap2\n      swap1\n      tag_25\n      jump\t// in\n    tag_24:\n      mload(0x40)\n      dup1\n      swap2\n      sub\n      swap1\n      return\n        /* \"application_contracts/Merkle Tree.sol\":89:622  function verify(bytes32[] memory proof, bytes32 root, bytes32 leaf, uint index) public pure returns (bool) {... */\n    tag_10:\n        /* \"application_contracts/Merkle Tree.sol\":190:194  bool */\n      0x00\n        /* \"application_contracts/Merkle Tree.sol\":207:219  bytes32 hash */\n      0x00\n        /* \"application_contracts/Merkle Tree.sol\":222:226  leaf */\n      dup4\n        /* \"application_contracts/Merkle Tree.sol\":207:226  bytes32 hash = leaf */\n      swap1\n      pop\n        /* \"application_contracts/Merkle Tree.sol\":242:248  uint i */\n      0x00\n        /* \"application_contracts/Merkle Tree.sol\":251:252  0 */\n      0x00\n        /* \"application_contracts/Merkle Tree.sol\":242:252  uint i = 0 */\n      swap1\n      pop\n        /* \"application_contracts/Merkle Tree.sol\":237:585  for (uint i = 0; i < proof.length; i++) {... */\n    tag_27:\n        /* \"application_contracts/Merkle Tree.sol\":258:263  proof */\n      dup7\n        /* \"application_contracts/Merkle Tree.sol\":258:270  proof.length */\n      mload\n        /* \"application_contracts/Merkle Tree.sol\":254:255  i */\n      dup2\n        /* \"application_contracts/Merkle Tree.sol\":254:270  i < proof.length */\n      lt\n        /* \"application_contracts/Merkle Tree.sol\":237:585  for (uint i = 0; i < proof.length; i++) {... */\n      iszero\n      tag_28\n      jumpi\n        /* \"application_contracts/Merkle Tree.sol\":292:312  bytes32 proofElement */\n      0x00\n        /* \"application_contracts/Merkle Tree.sol\":315:320  proof */\n      dup8\n        /* \"application_contracts/Merkle Tree.sol\":321:322  i */\n      dup3\n        /* \"application_contracts/Merkle Tree.sol\":315:323  proof[i] */\n      dup2\n      mload\n      dup2\n      lt\n      tag_30\n      jumpi\n      tag_31\n      tag_32\n      jump\t// in\n    tag_31:\n    tag_30:\n      0x20\n      mul\n      0x20\n      add\n      add\n      mload\n        /* \"application_contracts/Merkle Tree.sol\":292:323  bytes32 proofElement = proof[i] */\n      swap1\n      pop\n        /* \"application_contracts/Merkle Tree.sol\":355:356  0 */\n      0x00\n        /* \"application_contracts/Merkle Tree.sol\":350:351  2 */\n      0x02\n        /* \"application_contracts/Merkle Tree.sol\":342:347  index */\n      dup7\n        /* \"application_contracts/Merkle Tree.sol\":342:351  index % 2 */\n      tag_33\n      swap2\n      swap1\n      tag_34\n      jump\t// in\n    tag_33:\n        /* \"application_contracts/Merkle Tree.sol\":342:356  index % 2 == 0 */\n      sub\n        /* \"application_contracts/Merkle Tree.sol\":338:542  if (index % 2 == 0) {... */\n      tag_35\n      jumpi\n        /* \"application_contracts/Merkle Tree.sol\":411:415  hash */\n      dup3\n        /* \"application_contracts/Merkle Tree.sol\":417:429  proofElement */\n      dup2\n        /* \"application_contracts/Merkle Tree.sol\":394:430  abi.encodePacked(hash, proofElement) */\n      add(0x20, mload(0x40))\n      tag_36\n      swap3\n      swap2\n      swap1\n      tag_37\n      jump\t// in\n    tag_36:\n      mload(0x40)\n      0x20\n      dup2\n      dup4\n      sub\n      sub\n      dup2\n      mstore\n      swap1\n      0x40\n      mstore\n        /* \"application_contracts/Merkle Tree.sol\":384:431  keccak256(abi.encodePacked(hash, proofElement)) */\n      dup1\n      mload\n      swap1\n      0x20\n      add\n      keccak256\n        /* \"application_contracts/Merkle Tree.sol\":377:431  hash = keccak256(abi.encodePacked(hash, proofElement)) */\n      swap3\n      pop\n        /* \"application_contracts/Merkle Tree.sol\":338:542  if (index % 2 == 0) {... */\n      jump(tag_38)\n    tag_35:\n        /* \"application_contracts/Merkle Tree.sol\":506:518  proofElement */\n      dup1\n        /* \"application_contracts/Merkle Tree.sol\":520:524  hash */\n      dup4\n        /* \"application_contracts/Merkle Tree.sol\":489:525  abi.encodePacked(proofElement, hash) */\n      add(0x20, mload(0x40))\n      tag_39\n      swap3\n      swap2\n      swap1\n      tag_37\n      jump\t// in\n    tag_39:\n      mload(0x40)\n      0x20\n      dup2\n      dup4\n      sub\n      sub\n      dup2\n      mstore\n      swap1\n      0x40\n      mstore\n        /* \"application_contracts/Merkle Tree.sol\":479:526  keccak256(abi.encodePacked(proofElement, hash)) */\n      dup1\n      mload\n      swap1\n      0x20\n      add\n      keccak256\n        /* \"application_contracts/Merkle Tree.sol\":472:526  hash = keccak256(abi.encodePacked(proofElement, hash)) */\n      swap3\n      pop\n        /* \"application_contracts/Merkle Tree.sol\":338:542  if (index % 2 == 0) {... */\n    tag_38:\n        /* \"application_contracts/Merkle Tree.sol\":572:573  2 */\n      0x02\n        /* \"application_contracts/Merkle Tree.sol\":564:569  index */\n      dup6\n        /* \"application_contracts/Merkle Tree.sol\":564:573  index / 2 */\n      tag_40\n      swap2\n      swap1\n      tag_41\n      jump\t// in\n    tag_40:\n        /* \"application_contracts/Merkle Tree.sol\":556:573  index = index / 2 */\n      swap5\n      pop\n        /* \"application_contracts/Merkle Tree.sol\":277:585  {... */\n      pop\n        /* \"application_contracts/Merkle Tree.sol\":272:275  i++ */\n      dup1\n      dup1\n      0x01\n      add\n      swap2\n      pop\n      pop\n        /* \"application_contracts/Merkle Tree.sol\":237:585  for (uint i = 0; i < proof.length; i++) {... */\n      jump(tag_27)\n    tag_28:\n      pop\n        /* \"application_contracts/Merkle Tree.sol\":610:614  root */\n      dup5\n        /* \"application_contracts/Merkle Tree.sol\":602:606  hash */\n      dup2\n        /* \"application_contracts/Merkle Tree.sol\":602:614  hash == root */\n      eq\n        /* \"application_contracts/Merkle Tree.sol\":595:614  return hash == root */\n      swap2\n      pop\n      pop\n        /* \"application_contracts/Merkle Tree.sol\":89:622  function verify(bytes32[] memory proof, bytes32 root, bytes32 leaf, uint index) public pure returns (bool) {... */\n      swap5\n      swap4\n      pop\n      pop\n      pop\n      pop\n      jump\t// out\n        /* \"application_contracts/Merkle Tree.sol\":676:699  bytes32[] public hashes */\n    tag_16:\n      0x00\n      dup2\n      dup2\n      sload\n      dup2\n      lt\n      tag_42\n      jumpi\n      0x00\n      dup1\n      revert\n    tag_42:\n      swap1\n      0x00\n      mstore\n      keccak256(0x00, 0x20)\n      add\n      0x00\n      swap2\n      pop\n      swap1\n      pop\n      sload\n      dup2\n      jump\t// out\n        /* \"application_contracts/Merkle Tree.sol\":1302:1402  function getRoot() public view returns (bytes32) {... */\n    tag_20:\n        /* \"application_contracts/Merkle Tree.sol\":1342:1349  bytes32 */\n      0x00\n        /* \"application_contracts/Merkle Tree.sol\":1369:1375  hashes */\n      0x00\n        /* \"application_contracts/Merkle Tree.sol\":1392:1393  1 */\n      0x01\n        /* \"application_contracts/Merkle Tree.sol\":1376:1382  hashes */\n      0x00\n        /* \"application_contracts/Merkle Tree.sol\":1376:1389  hashes.length */\n      dup1\n      sload\n      swap1\n      pop\n        /* \"application_contracts/Merkle Tree.sol\":1376:1393  hashes.length - 1 */\n      tag_45\n      swap2\n      swap1\n      tag_46\n      jump\t// in\n    tag_45:\n        /* \"application_contracts/Merkle Tree.sol\":1369:1394  hashes[hashes.length - 1] */\n      dup2\n      sload\n      dup2\n      lt\n      tag_47\n      jumpi\n      tag_48\n      tag_32\n      jump\t// in\n    tag_48:\n    tag_47:\n      swap1\n      0x00\n      mstore\n      keccak256(0x00, 0x20)\n      add\n      sload\n        /* \"application_contracts/Merkle Tree.sol\":1362:1394  return hashes[hashes.length - 1] */\n      swap1\n      pop\n        /* \"application_contracts/Merkle Tree.sol\":1302:1402  function getRoot() public view returns (bytes32) {... */\n      swap1\n      jump\t// out\n        /* \"application_contracts/Merkle Tree.sol\":1408:1498  function getHash() public view returns (bytes32[] memory) {... */\n    tag_23:\n        /* \"application_contracts/Merkle Tree.sol\":1448:1464  bytes32[] memory */\n      0x60\n        /* \"application_contracts/Merkle Tree.sol\":1484:1490  hashes */\n      0x00\n        /* \"application_contracts/Merkle Tree.sol\":1477:1490  return hashes */\n      dup1\n      sload\n      dup1\n      0x20\n      mul\n      0x20\n      add\n      mload(0x40)\n      swap1\n      dup2\n      add\n      0x40\n      mstore\n      dup1\n      swap3\n      swap2\n      swap1\n      dup2\n      dup2\n      mstore\n      0x20\n      add\n      dup3\n      dup1\n      sload\n      dup1\n      iszero\n      tag_51\n      jumpi\n      0x20\n      mul\n      dup3\n      add\n      swap2\n      swap1\n      0x00\n      mstore\n      keccak256(0x00, 0x20)\n      swap1\n    tag_52:\n      dup2\n      sload\n      dup2\n      mstore\n      0x20\n      add\n      swap1\n      0x01\n      add\n      swap1\n      dup1\n      dup4\n      gt\n      tag_52\n      jumpi\n    tag_51:\n      pop\n      pop\n      pop\n      pop\n      pop\n      swap1\n      pop\n        /* \"application_contracts/Merkle Tree.sol\":1408:1498  function getHash() public view returns (bytes32[] memory) {... */\n      swap1\n      jump\t// out\n        /* \"#utility.yul\":7:82   */\n    tag_53:\n        /* \"#utility.yul\":40:46   */\n      0x00\n        /* \"#utility.yul\":73:75   */\n      0x40\n        /* \"#utility.yul\":67:76   */\n      mload\n        /* \"#utility.yul\":57:76   */\n      swap1\n      pop\n        /* \"#utility.yul\":7:82   */\n      swap1\n      jump\t// out\n        /* \"#utility.yul\":88:205   */\n    tag_54:\n        /* \"#utility.yul\":197:198   */\n      0x00\n        /* \"#utility.yul\":194:195   */\n      0x00\n        /* \"#utility.yul\":187:199   */\n      revert\n        /* \"#utility.yul\":211:328   */\n    tag_55:\n        /* \"#utility.yul\":320:321   */\n      0x00\n        /* \"#utility.yul\":317:318   */\n      0x00\n        /* \"#utility.yul\":310:322   */\n      revert\n        /* \"#utility.yul\":334:451   */\n    tag_56:\n        /* \"#utility.yul\":443:444   */\n      0x00\n        /* \"#utility.yul\":440:441   */\n      0x00\n        /* \"#utility.yul\":433:445   */\n      revert\n        /* \"#utility.yul\":457:559   */\n    tag_57:\n        /* \"#utility.yul\":498:504   */\n      0x00\n        /* \"#utility.yul\":549:551   */\n      0x1f\n        /* \"#utility.yul\":545:552   */\n      not\n        /* \"#utility.yul\":540:542   */\n      0x1f\n        /* \"#utility.yul\":533:538   */\n      dup4\n        /* \"#utility.yul\":529:543   */\n      add\n        /* \"#utility.yul\":525:553   */\n      and\n        /* \"#utility.yul\":515:553   */\n      swap1\n      pop\n        /* \"#utility.yul\":457:559   */\n      swap2\n      swap1\n      pop\n      jump\t// out\n        /* \"#utility.yul\":565:745   */\n    tag_58:\n        /* \"#utility.yul\":613:690   */\n      0x4e487b7100000000000000000000000000000000000000000000000000000000\n        /* \"#utility.yul\":610:611   */\n      0x00\n        /* \"#utility.yul\":603:691   */\n      mstore\n        /* \"#utility.yul\":710:714   */\n      0x41\n        /* \"#utility.yul\":707:708   */\n      0x04\n        /* \"#utility.yul\":700:715   */\n      mstore\n        /* \"#utility.yul\":734:738   */\n      0x24\n        /* \"#utility.yul\":731:732   */\n      0x00\n        /* \"#utility.yul\":724:739   */\n      revert\n        /* \"#utility.yul\":751:1032   */\n    tag_59:\n        /* \"#utility.yul\":834:861   */\n      tag_93\n        /* \"#utility.yul\":856:860   */\n      dup3\n        /* \"#utility.yul\":834:861   */\n      tag_57\n      jump\t// in\n    tag_93:\n        /* \"#utility.yul\":826:832   */\n      dup2\n        /* \"#utility.yul\":822:862   */\n      add\n        /* \"#utility.yul\":964:970   */\n      dup2\n        /* \"#utility.yul\":952:962   */\n      dup2\n        /* \"#utility.yul\":949:971   */\n      lt\n        /* \"#utility.yul\":928:946   */\n      0xffffffffffffffff\n        /* \"#utility.yul\":916:926   */\n      dup3\n        /* \"#utility.yul\":913:947   */\n      gt\n        /* \"#utility.yul\":910:972   */\n      or\n        /* \"#utility.yul\":907:995   */\n      iszero\n      tag_94\n      jumpi\n        /* \"#utility.yul\":975:993   */\n      tag_95\n      tag_58\n      jump\t// in\n    tag_95:\n        /* \"#utility.yul\":907:995   */\n    tag_94:\n        /* \"#utility.yul\":1015:1025   */\n      dup1\n        /* \"#utility.yul\":1011:1013   */\n      0x40\n        /* \"#utility.yul\":1004:1026   */\n      mstore\n        /* \"#utility.yul\":794:1032   */\n      pop\n        /* \"#utility.yul\":751:1032   */\n      pop\n      pop\n      jump\t// out\n        /* \"#utility.yul\":1038:1167   */\n    tag_60:\n        /* \"#utility.yul\":1072:1078   */\n      0x00\n        /* \"#utility.yul\":1099:1119   */\n      tag_97\n      tag_53\n      jump\t// in\n    tag_97:\n        /* \"#utility.yul\":1089:1119   */\n      swap1\n      pop\n        /* \"#utility.yul\":1128:1161   */\n      tag_98\n        /* \"#utility.yul\":1156:1160   */\n      dup3\n        /* \"#utility.yul\":1148:1154   */\n      dup3\n        /* \"#utility.yul\":1128:1161   */\n      tag_59\n      jump\t// in\n    tag_98:\n        /* \"#utility.yul\":1038:1167   */\n      swap2\n      swap1\n      pop\n      jump\t// out\n        /* \"#utility.yul\":1173:1484   */\n    tag_61:\n        /* \"#utility.yul\":1250:1254   */\n      0x00\n        /* \"#utility.yul\":1340:1358   */\n      0xffffffffffffffff\n        /* \"#utility.yul\":1332:1338   */\n      dup3\n        /* \"#utility.yul\":1329:1359   */\n      gt\n        /* \"#utility.yul\":1326:1382   */\n      iszero\n      tag_100\n      jumpi\n        /* \"#utility.yul\":1362:1380   */\n      tag_101\n      tag_58\n      jump\t// in\n    tag_101:\n        /* \"#utility.yul\":1326:1382   */\n    tag_100:\n        /* \"#utility.yul\":1412:1416   */\n      0x20\n        /* \"#utility.yul\":1404:1410   */\n      dup3\n        /* \"#utility.yul\":1400:1417   */\n      mul\n        /* \"#utility.yul\":1392:1417   */\n      swap1\n      pop\n        /* \"#utility.yul\":1472:1476   */\n      0x20\n        /* \"#utility.yul\":1466:1470   */\n      dup2\n        /* \"#utility.yul\":1462:1477   */\n      add\n        /* \"#utility.yul\":1454:1477   */\n      swap1\n      pop\n        /* \"#utility.yul\":1173:1484   */\n      swap2\n      swap1\n      pop\n      jump\t// out\n        /* \"#utility.yul\":1490:1607   */\n    tag_62:\n        /* \"#utility.yul\":1599:1600   */\n      0x00\n        /* \"#utility.yul\":1596:1597   */\n      0x00\n        /* \"#utility.yul\":1589:1601   */\n      revert\n        /* \"#utility.yul\":1613:1690   */\n    tag_63:\n        /* \"#utility.yul\":1650:1657   */\n      0x00\n        /* \"#utility.yul\":1679:1684   */\n      dup2\n        /* \"#utility.yul\":1668:1684   */\n      swap1\n      pop\n        /* \"#utility.yul\":1613:1690   */\n      swap2\n      swap1\n      pop\n      jump\t// out\n        /* \"#utility.yul\":1696:1818   */\n    tag_64:\n        /* \"#utility.yul\":1769:1793   */\n      tag_105\n        /* \"#utility.yul\":1787:1792   */\n      dup2\n        /* \"#utility.yul\":1769:1793   */\n      tag_63\n      jump\t// in\n    tag_105:\n        /* \"#utility.yul\":1762:1767   */\n      dup2\n        /* \"#utility.yul\":1759:1794   */\n      eq\n        /* \"#utility.yul\":1749:1812   */\n      tag_106\n      jumpi\n        /* \"#utility.yul\":1808:1809   */\n      0x00\n        /* \"#utility.yul\":1805:1806   */\n      0x00\n        /* \"#utility.yul\":1798:1810   */\n      revert\n        /* \"#utility.yul\":1749:1812   */\n    tag_106:\n        /* \"#utility.yul\":1696:1818   */\n      pop\n      jump\t// out\n        /* \"#utility.yul\":1824:1963   */\n    tag_65:\n        /* \"#utility.yul\":1870:1875   */\n      0x00\n        /* \"#utility.yul\":1908:1914   */\n      dup2\n        /* \"#utility.yul\":1895:1915   */\n      calldataload\n        /* \"#utility.yul\":1886:1915   */\n      swap1\n      pop\n        /* \"#utility.yul\":1924:1957   */\n      tag_108\n        /* \"#utility.yul\":1951:1956   */\n      dup2\n        /* \"#utility.yul\":1924:1957   */\n      tag_64\n      jump\t// in\n    tag_108:\n        /* \"#utility.yul\":1824:1963   */\n      swap3\n      swap2\n      pop\n      pop\n      jump\t// out\n        /* \"#utility.yul\":1986:2696   */\n    tag_66:\n        /* \"#utility.yul\":2082:2087   */\n      0x00\n        /* \"#utility.yul\":2107:2188   */\n      tag_110\n        /* \"#utility.yul\":2123:2187   */\n      tag_111\n        /* \"#utility.yul\":2180:2186   */\n      dup5\n        /* \"#utility.yul\":2123:2187   */\n      tag_61\n      jump\t// in\n    tag_111:\n        /* \"#utility.yul\":2107:2188   */\n      tag_60\n      jump\t// in\n    tag_110:\n        /* \"#utility.yul\":2098:2188   */\n      swap1\n      pop\n        /* \"#utility.yul\":2208:2213   */\n      dup1\n        /* \"#utility.yul\":2237:2243   */\n      dup4\n        /* \"#utility.yul\":2230:2235   */\n      dup3\n        /* \"#utility.yul\":2223:2244   */\n      mstore\n        /* \"#utility.yul\":2271:2275   */\n      0x20\n        /* \"#utility.yul\":2264:2269   */\n      dup3\n        /* \"#utility.yul\":2260:2276   */\n      add\n        /* \"#utility.yul\":2253:2276   */\n      swap1\n      pop\n        /* \"#utility.yul\":2324:2328   */\n      0x20\n        /* \"#utility.yul\":2316:2322   */\n      dup5\n        /* \"#utility.yul\":2312:2329   */\n      mul\n        /* \"#utility.yul\":2304:2310   */\n      dup4\n        /* \"#utility.yul\":2300:2330   */\n      add\n        /* \"#utility.yul\":2353:2356   */\n      dup6\n        /* \"#utility.yul\":2345:2351   */\n      dup2\n        /* \"#utility.yul\":2342:2357   */\n      gt\n        /* \"#utility.yul\":2339:2461   */\n      iszero\n      tag_112\n      jumpi\n        /* \"#utility.yul\":2372:2451   */\n      tag_113\n      tag_62\n      jump\t// in\n    tag_113:\n        /* \"#utility.yul\":2339:2461   */\n    tag_112:\n        /* \"#utility.yul\":2487:2493   */\n      dup4\n        /* \"#utility.yul\":2470:2690   */\n    tag_114:\n        /* \"#utility.yul\":2504:2510   */\n      dup2\n        /* \"#utility.yul\":2499:2502   */\n      dup2\n        /* \"#utility.yul\":2496:2511   */\n      lt\n        /* \"#utility.yul\":2470:2690   */\n      iszero\n      tag_116\n      jumpi\n        /* \"#utility.yul\":2579:2582   */\n      dup1\n        /* \"#utility.yul\":2608:2645   */\n      tag_117\n        /* \"#utility.yul\":2641:2644   */\n      dup9\n        /* \"#utility.yul\":2629:2639   */\n      dup3\n        /* \"#utility.yul\":2608:2645   */\n      tag_65\n      jump\t// in\n    tag_117:\n        /* \"#utility.yul\":2603:2606   */\n      dup5\n        /* \"#utility.yul\":2596:2646   */\n      mstore\n        /* \"#utility.yul\":2675:2679   */\n      0x20\n        /* \"#utility.yul\":2670:2673   */\n      dup5\n        /* \"#utility.yul\":2666:2680   */\n      add\n        /* \"#utility.yul\":2659:2680   */\n      swap4\n      pop\n        /* \"#utility.yul\":2546:2690   */\n      pop\n        /* \"#utility.yul\":2530:2534   */\n      0x20\n        /* \"#utility.yul\":2525:2528   */\n      dup2\n        /* \"#utility.yul\":2521:2535   */\n      add\n        /* \"#utility.yul\":2514:2535   */\n      swap1\n      pop\n        /* \"#utility.yul\":2470:2690   */\n      jump(tag_114)\n    tag_116:\n        /* \"#utility.yul\":2474:2495   */\n      pop\n        /* \"#utility.yul\":2088:2696   */\n      pop\n      pop\n        /* \"#utility.yul\":1986:2696   */\n      swap4\n      swap3\n      pop\n      pop\n      pop\n      jump\t// out\n        /* \"#utility.yul\":2719:3089   */\n    tag_67:\n        /* \"#utility.yul\":2790:2795   */\n      0x00\n        /* \"#utility.yul\":2839:2842   */\n      dup3\n        /* \"#utility.yul\":2832:2836   */\n      0x1f\n        /* \"#utility.yul\":2824:2830   */\n      dup4\n        /* \"#utility.yul\":2820:2837   */\n      add\n        /* \"#utility.yul\":2816:2843   */\n      slt\n        /* \"#utility.yul\":2806:2928   */\n      tag_119\n      jumpi\n        /* \"#utility.yul\":2847:2926   */\n      tag_120\n      tag_56\n      jump\t// in\n    tag_120:\n        /* \"#utility.yul\":2806:2928   */\n    tag_119:\n        /* \"#utility.yul\":2964:2970   */\n      dup2\n        /* \"#utility.yul\":2951:2971   */\n      calldataload\n        /* \"#utility.yul\":2989:3083   */\n      tag_121\n        /* \"#utility.yul\":3079:3082   */\n      dup5\n        /* \"#utility.yul\":3071:3077   */\n      dup3\n        /* \"#utility.yul\":3064:3068   */\n      0x20\n        /* \"#utility.yul\":3056:3062   */\n      dup7\n        /* \"#utility.yul\":3052:3069   */\n      add\n        /* \"#utility.yul\":2989:3083   */\n      tag_66\n      jump\t// in\n    tag_121:\n        /* \"#utility.yul\":2980:3083   */\n      swap2\n      pop\n        /* \"#utility.yul\":2796:3089   */\n      pop\n        /* \"#utility.yul\":2719:3089   */\n      swap3\n      swap2\n      pop\n      pop\n      jump\t// out\n        /* \"#utility.yul\":3095:3172   */\n    tag_68:\n        /* \"#utility.yul\":3132:3139   */\n      0x00\n        /* \"#utility.yul\":3161:3166   */\n      dup2\n        /* \"#utility.yul\":3150:3166   */\n      swap1\n      pop\n        /* \"#utility.yul\":3095:3172   */\n      swap2\n      swap1\n      pop\n      jump\t// out\n        /* \"#utility.yul\":3178:3300   */\n    tag_69:\n        /* \"#utility.yul\":3251:3275   */\n      tag_124\n        /* \"#utility.yul\":3269:3274   */\n      dup2\n        /* \"#utility.yul\":3251:3275   */\n      tag_68\n      jump\t// in\n    tag_124:\n        /* \"#utility.yul\":3244:3249   */\n      dup2\n        /* \"#utility.yul\":3241:3276   */\n      eq\n        /* \"#utility.yul\":3231:3294   */\n      tag_125\n      jumpi\n        /* \"#utility.yul\":3290:3291   */\n      0x00\n        /* \"#utility.yul\":3287:3288   */\n      0x00\n        /* \"#utility.yul\":3280:3292   */\n      revert\n        /* \"#utility.yul\":3231:3294   */\n    tag_125:\n        /* \"#utility.yul\":3178:3300   */\n      pop\n      jump\t// out\n        /* \"#utility.yul\":3306:3445   */\n    tag_70:\n        /* \"#utility.yul\":3352:3357   */\n      0x00\n        /* \"#utility.yul\":3390:3396   */\n      dup2\n        /* \"#utility.yul\":3377:3397   */\n      calldataload\n        /* \"#utility.yul\":3368:3397   */\n      swap1\n      pop\n        /* \"#utility.yul\":3406:3439   */\n      tag_127\n        /* \"#utility.yul\":3433:3438   */\n      dup2\n        /* \"#utility.yul\":3406:3439   */\n      tag_69\n      jump\t// in\n    tag_127:\n        /* \"#utility.yul\":3306:3445   */\n      swap3\n      swap2\n      pop\n      pop\n      jump\t// out\n        /* \"#utility.yul\":3451:4426   */\n    tag_9:\n        /* \"#utility.yul\":3562:3568   */\n      0x00\n        /* \"#utility.yul\":3570:3576   */\n      0x00\n        /* \"#utility.yul\":3578:3584   */\n      0x00\n        /* \"#utility.yul\":3586:3592   */\n      0x00\n        /* \"#utility.yul\":3635:3638   */\n      0x80\n        /* \"#utility.yul\":3623:3632   */\n      dup6\n        /* \"#utility.yul\":3614:3621   */\n      dup8\n        /* \"#utility.yul\":3610:3633   */\n      sub\n        /* \"#utility.yul\":3606:3639   */\n      slt\n        /* \"#utility.yul\":3603:3723   */\n      iszero\n      tag_129\n      jumpi\n        /* \"#utility.yul\":3642:3721   */\n      tag_130\n      tag_54\n      jump\t// in\n    tag_130:\n        /* \"#utility.yul\":3603:3723   */\n    tag_129:\n        /* \"#utility.yul\":3790:3791   */\n      0x00\n        /* \"#utility.yul\":3779:3788   */\n      dup6\n        /* \"#utility.yul\":3775:3792   */\n      add\n        /* \"#utility.yul\":3762:3793   */\n      calldataload\n        /* \"#utility.yul\":3820:3838   */\n      0xffffffffffffffff\n        /* \"#utility.yul\":3812:3818   */\n      dup2\n        /* \"#utility.yul\":3809:3839   */\n      gt\n        /* \"#utility.yul\":3806:3923   */\n      iszero\n      tag_131\n      jumpi\n        /* \"#utility.yul\":3842:3921   */\n      tag_132\n      tag_55\n      jump\t// in\n    tag_132:\n        /* \"#utility.yul\":3806:3923   */\n    tag_131:\n        /* \"#utility.yul\":3947:4025   */\n      tag_133\n        /* \"#utility.yul\":4017:4024   */\n      dup8\n        /* \"#utility.yul\":4008:4014   */\n      dup3\n        /* \"#utility.yul\":3997:4006   */\n      dup9\n        /* \"#utility.yul\":3993:4015   */\n      add\n        /* \"#utility.yul\":3947:4025   */\n      tag_67\n      jump\t// in\n    tag_133:\n        /* \"#utility.yul\":3937:4025   */\n      swap5\n      pop\n        /* \"#utility.yul\":3733:4035   */\n      pop\n        /* \"#utility.yul\":4074:4076   */\n      0x20\n        /* \"#utility.yul\":4100:4153   */\n      tag_134\n        /* \"#utility.yul\":4145:4152   */\n      dup8\n        /* \"#utility.yul\":4136:4142   */\n      dup3\n        /* \"#utility.yul\":4125:4134   */\n      dup9\n        /* \"#utility.yul\":4121:4143   */\n      add\n        /* \"#utility.yul\":4100:4153   */\n      tag_65\n      jump\t// in\n    tag_134:\n        /* \"#utility.yul\":4090:4153   */\n      swap4\n      pop\n        /* \"#utility.yul\":4045:4163   */\n      pop\n        /* \"#utility.yul\":4202:4204   */\n      0x40\n        /* \"#utility.yul\":4228:4281   */\n      tag_135\n        /* \"#utility.yul\":4273:4280   */\n      dup8\n        /* \"#utility.yul\":4264:4270   */\n      dup3\n        /* \"#utility.yul\":4253:4262   */\n      dup9\n        /* \"#utility.yul\":4249:4271   */\n      add\n        /* \"#utility.yul\":4228:4281   */\n      tag_65\n      jump\t// in\n    tag_135:\n        /* \"#utility.yul\":4218:4281   */\n      swap3\n      pop\n        /* \"#utility.yul\":4173:4291   */\n      pop\n        /* \"#utility.yul\":4330:4332   */\n      0x60\n        /* \"#utility.yul\":4356:4409   */\n      tag_136\n        /* \"#utility.yul\":4401:4408   */\n      dup8\n        /* \"#utility.yul\":4392:4398   */\n      dup3\n        /* \"#utility.yul\":4381:4390   */\n      dup9\n        /* \"#utility.yul\":4377:4399   */\n      add\n        /* \"#utility.yul\":4356:4409   */\n      tag_70\n      jump\t// in\n    tag_136:\n        /* \"#utility.yul\":4346:4409   */\n      swap2\n      pop\n        /* \"#utility.yul\":4301:4419   */\n      pop\n        /* \"#utility.yul\":3451:4426   */\n      swap3\n      swap6\n      swap2\n      swap5\n      pop\n      swap3\n      pop\n      jump\t// out\n        /* \"#utility.yul\":4432:4522   */\n    tag_71:\n        /* \"#utility.yul\":4466:4473   */\n      0x00\n        /* \"#utility.yul\":4509:4514   */\n      dup2\n        /* \"#utility.yul\":4502:4515   */\n      iszero\n        /* \"#utility.yul\":4495:4516   */\n      iszero\n        /* \"#utility.yul\":4484:4516   */\n      swap1\n      pop\n        /* \"#utility.yul\":4432:4522   */\n      swap2\n      swap1\n      pop\n      jump\t// out\n        /* \"#utility.yul\":4528:4637   */\n    tag_72:\n        /* \"#utility.yul\":4609:4630   */\n      tag_139\n        /* \"#utility.yul\":4624:4629   */\n      dup2\n        /* \"#utility.yul\":4609:4630   */\n      tag_71\n      jump\t// in\n    tag_139:\n        /* \"#utility.yul\":4604:4607   */\n      dup3\n        /* \"#utility.yul\":4597:4631   */\n      mstore\n        /* \"#utility.yul\":4528:4637   */\n      pop\n      pop\n      jump\t// out\n        /* \"#utility.yul\":4643:4853   */\n    tag_12:\n        /* \"#utility.yul\":4730:4734   */\n      0x00\n        /* \"#utility.yul\":4768:4770   */\n      0x20\n        /* \"#utility.yul\":4757:4766   */\n      dup3\n        /* \"#utility.yul\":4753:4771   */\n      add\n        /* \"#utility.yul\":4745:4771   */\n      swap1\n      pop\n        /* \"#utility.yul\":4781:4846   */\n      tag_141\n        /* \"#utility.yul\":4843:4844   */\n      0x00\n        /* \"#utility.yul\":4832:4841   */\n      dup4\n        /* \"#utility.yul\":4828:4845   */\n      add\n        /* \"#utility.yul\":4819:4825   */\n      dup5\n        /* \"#utility.yul\":4781:4846   */\n      tag_72\n      jump\t// in\n    tag_141:\n        /* \"#utility.yul\":4643:4853   */\n      swap3\n      swap2\n      pop\n      pop\n      jump\t// out\n        /* \"#utility.yul\":4859:5188   */\n    tag_15:\n        /* \"#utility.yul\":4918:4924   */\n      0x00\n        /* \"#utility.yul\":4967:4969   */\n      0x20\n        /* \"#utility.yul\":4955:4964   */\n      dup3\n        /* \"#utility.yul\":4946:4953   */\n      dup5\n        /* \"#utility.yul\":4942:4965   */\n      sub\n        /* \"#utility.yul\":4938:4970   */\n      slt\n        /* \"#utility.yul\":4935:5054   */\n      iszero\n      tag_143\n      jumpi\n        /* \"#utility.yul\":4973:5052   */\n      tag_144\n      tag_54\n      jump\t// in\n    tag_144:\n        /* \"#utility.yul\":4935:5054   */\n    tag_143:\n        /* \"#utility.yul\":5093:5094   */\n      0x00\n        /* \"#utility.yul\":5118:5171   */\n      tag_145\n        /* \"#utility.yul\":5163:5170   */\n      dup5\n        /* \"#utility.yul\":5154:5160   */\n      dup3\n        /* \"#utility.yul\":5143:5152   */\n      dup6\n        /* \"#utility.yul\":5139:5161   */\n      add\n        /* \"#utility.yul\":5118:5171   */\n      tag_70\n      jump\t// in\n    tag_145:\n        /* \"#utility.yul\":5108:5171   */\n      swap2\n      pop\n        /* \"#utility.yul\":5064:5181   */\n      pop\n        /* \"#utility.yul\":4859:5188   */\n      swap3\n      swap2\n      pop\n      pop\n      jump\t// out\n        /* \"#utility.yul\":5194:5312   */\n    tag_73:\n        /* \"#utility.yul\":5281:5305   */\n      tag_147\n        /* \"#utility.yul\":5299:5304   */\n      dup2\n        /* \"#utility.yul\":5281:5305   */\n      tag_63\n      jump\t// in\n    tag_147:\n        /* \"#utility.yul\":5276:5279   */\n      dup3\n        /* \"#utility.yul\":5269:5306   */\n      mstore\n        /* \"#utility.yul\":5194:5312   */\n      pop\n      pop\n      jump\t// out\n        /* \"#utility.yul\":5318:5540   */\n    tag_18:\n        /* \"#utility.yul\":5411:5415   */\n      0x00\n        /* \"#utility.yul\":5449:5451   */\n      0x20\n        /* \"#utility.yul\":5438:5447   */\n      dup3\n        /* \"#utility.yul\":5434:5452   */\n      add\n        /* \"#utility.yul\":5426:5452   */\n      swap1\n      pop\n        /* \"#utility.yul\":5462:5533   */\n      tag_149\n        /* \"#utility.yul\":5530:5531   */\n      0x00\n        /* \"#utility.yul\":5519:5528   */\n      dup4\n        /* \"#utility.yul\":5515:5532   */\n      add\n        /* \"#utility.yul\":5506:5512   */\n      dup5\n        /* \"#utility.yul\":5462:5533   */\n      tag_73\n      jump\t// in\n    tag_149:\n        /* \"#utility.yul\":5318:5540   */\n      swap3\n      swap2\n      pop\n      pop\n      jump\t// out\n        /* \"#utility.yul\":5546:5660   */\n    tag_74:\n        /* \"#utility.yul\":5613:5619   */\n      0x00\n        /* \"#utility.yul\":5647:5652   */\n      dup2\n        /* \"#utility.yul\":5641:5653   */\n      mload\n        /* \"#utility.yul\":5631:5653   */\n      swap1\n      pop\n        /* \"#utility.yul\":5546:5660   */\n      swap2\n      swap1\n      pop\n      jump\t// out\n        /* \"#utility.yul\":5666:5850   */\n    tag_75:\n        /* \"#utility.yul\":5765:5776   */\n      0x00\n        /* \"#utility.yul\":5799:5805   */\n      dup3\n        /* \"#utility.yul\":5794:5797   */\n      dup3\n        /* \"#utility.yul\":5787:5806   */\n      mstore\n        /* \"#utility.yul\":5839:5843   */\n      0x20\n        /* \"#utility.yul\":5834:5837   */\n      dup3\n        /* \"#utility.yul\":5830:5844   */\n      add\n        /* \"#utility.yul\":5815:5844   */\n      swap1\n      pop\n        /* \"#utility.yul\":5666:5850   */\n      swap3\n      swap2\n      pop\n      pop\n      jump\t// out\n        /* \"#utility.yul\":5856:5988   */\n    tag_76:\n        /* \"#utility.yul\":5923:5927   */\n      0x00\n        /* \"#utility.yul\":5946:5949   */\n      dup2\n        /* \"#utility.yul\":5938:5949   */\n      swap1\n      pop\n        /* \"#utility.yul\":5976:5980   */\n      0x20\n        /* \"#utility.yul\":5971:5974   */\n      dup3\n        /* \"#utility.yul\":5967:5981   */\n      add\n        /* \"#utility.yul\":5959:5981   */\n      swap1\n      pop\n        /* \"#utility.yul\":5856:5988   */\n      swap2\n      swap1\n      pop\n      jump\t// out\n        /* \"#utility.yul\":5994:6102   */\n    tag_77:\n        /* \"#utility.yul\":6071:6095   */\n      tag_154\n        /* \"#utility.yul\":6089:6094   */\n      dup2\n        /* \"#utility.yul\":6071:6095   */\n      tag_63\n      jump\t// in\n    tag_154:\n        /* \"#utility.yul\":6066:6069   */\n      dup3\n        /* \"#utility.yul\":6059:6096   */\n      mstore\n        /* \"#utility.yul\":5994:6102   */\n      pop\n      pop\n      jump\t// out\n        /* \"#utility.yul\":6108:6287   */\n    tag_78:\n        /* \"#utility.yul\":6177:6187   */\n      0x00\n        /* \"#utility.yul\":6198:6244   */\n      tag_156\n        /* \"#utility.yul\":6240:6243   */\n      dup4\n        /* \"#utility.yul\":6232:6238   */\n      dup4\n        /* \"#utility.yul\":6198:6244   */\n      tag_77\n      jump\t// in\n    tag_156:\n        /* \"#utility.yul\":6276:6280   */\n      0x20\n        /* \"#utility.yul\":6271:6274   */\n      dup4\n        /* \"#utility.yul\":6267:6281   */\n      add\n        /* \"#utility.yul\":6253:6281   */\n      swap1\n      pop\n        /* \"#utility.yul\":6108:6287   */\n      swap3\n      swap2\n      pop\n      pop\n      jump\t// out\n        /* \"#utility.yul\":6293:6406   */\n    tag_79:\n        /* \"#utility.yul\":6363:6367   */\n      0x00\n        /* \"#utility.yul\":6395:6399   */\n      0x20\n        /* \"#utility.yul\":6390:6393   */\n      dup3\n        /* \"#utility.yul\":6386:6400   */\n      add\n        /* \"#utility.yul\":6378:6400   */\n      swap1\n      pop\n        /* \"#utility.yul\":6293:6406   */\n      swap2\n      swap1\n      pop\n      jump\t// out\n        /* \"#utility.yul\":6442:7174   */\n    tag_80:\n        /* \"#utility.yul\":6561:6564   */\n      0x00\n        /* \"#utility.yul\":6590:6644   */\n      tag_159\n        /* \"#utility.yul\":6638:6643   */\n      dup3\n        /* \"#utility.yul\":6590:6644   */\n      tag_74\n      jump\t// in\n    tag_159:\n        /* \"#utility.yul\":6660:6746   */\n      tag_160\n        /* \"#utility.yul\":6739:6745   */\n      dup2\n        /* \"#utility.yul\":6734:6737   */\n      dup6\n        /* \"#utility.yul\":6660:6746   */\n      tag_75\n      jump\t// in\n    tag_160:\n        /* \"#utility.yul\":6653:6746   */\n      swap4\n      pop\n        /* \"#utility.yul\":6770:6826   */\n      tag_161\n        /* \"#utility.yul\":6820:6825   */\n      dup4\n        /* \"#utility.yul\":6770:6826   */\n      tag_76\n      jump\t// in\n    tag_161:\n        /* \"#utility.yul\":6849:6856   */\n      dup1\n        /* \"#utility.yul\":6880:6881   */\n      0x00\n        /* \"#utility.yul\":6865:7149   */\n    tag_162:\n        /* \"#utility.yul\":6890:6896   */\n      dup4\n        /* \"#utility.yul\":6887:6888   */\n      dup2\n        /* \"#utility.yul\":6884:6897   */\n      lt\n        /* \"#utility.yul\":6865:7149   */\n      iszero\n      tag_164\n      jumpi\n        /* \"#utility.yul\":6966:6972   */\n      dup2\n        /* \"#utility.yul\":6960:6973   */\n      mload\n        /* \"#utility.yul\":6993:7056   */\n      tag_165\n        /* \"#utility.yul\":7052:7055   */\n      dup9\n        /* \"#utility.yul\":7037:7050   */\n      dup3\n        /* \"#utility.yul\":6993:7056   */\n      tag_78\n      jump\t// in\n    tag_165:\n        /* \"#utility.yul\":6986:7056   */\n      swap8\n      pop\n        /* \"#utility.yul\":7079:7139   */\n      tag_166\n        /* \"#utility.yul\":7132:7138   */\n      dup4\n        /* \"#utility.yul\":7079:7139   */\n      tag_79\n      jump\t// in\n    tag_166:\n        /* \"#utility.yul\":7069:7139   */\n      swap3\n      pop\n        /* \"#utility.yul\":6925:7149   */\n      pop\n        /* \"#utility.yul\":6912:6913   */\n      0x01\n        /* \"#utility.yul\":6909:6910   */\n      dup2\n        /* \"#utility.yul\":6905:6914   */\n      add\n        /* \"#utility.yul\":6900:6914   */\n      swap1\n      pop\n        /* \"#utility.yul\":6865:7149   */\n      jump(tag_162)\n    tag_164:\n        /* \"#utility.yul\":6869:6883   */\n      pop\n        /* \"#utility.yul\":7165:7168   */\n      dup6\n        /* \"#utility.yul\":7158:7168   */\n      swap4\n      pop\n        /* \"#utility.yul\":6566:7174   */\n      pop\n      pop\n      pop\n        /* \"#utility.yul\":6442:7174   */\n      swap3\n      swap2\n      pop\n      pop\n      jump\t// out\n        /* \"#utility.yul\":7180:7553   */\n    tag_25:\n        /* \"#utility.yul\":7323:7327   */\n      0x00\n        /* \"#utility.yul\":7361:7363   */\n      0x20\n        /* \"#utility.yul\":7350:7359   */\n      dup3\n        /* \"#utility.yul\":7346:7364   */\n      add\n        /* \"#utility.yul\":7338:7364   */\n      swap1\n      pop\n        /* \"#utility.yul\":7410:7419   */\n      dup2\n        /* \"#utility.yul\":7404:7408   */\n      dup2\n        /* \"#utility.yul\":7400:7420   */\n      sub\n        /* \"#utility.yul\":7396:7397   */\n      0x00\n        /* \"#utility.yul\":7385:7394   */\n      dup4\n        /* \"#utility.yul\":7381:7398   */\n      add\n        /* \"#utility.yul\":7374:7421   */\n      mstore\n        /* \"#utility.yul\":7438:7546   */\n      tag_168\n        /* \"#utility.yul\":7541:7545   */\n      dup2\n        /* \"#utility.yul\":7532:7538   */\n      dup5\n        /* \"#utility.yul\":7438:7546   */\n      tag_80\n      jump\t// in\n    tag_168:\n        /* \"#utility.yul\":7430:7546   */\n      swap1\n      pop\n        /* \"#utility.yul\":7180:7553   */\n      swap3\n      swap2\n      pop\n      pop\n      jump\t// out\n        /* \"#utility.yul\":7559:7739   */\n    tag_32:\n        /* \"#utility.yul\":7607:7684   */\n      0x4e487b7100000000000000000000000000000000000000000000000000000000\n        /* \"#utility.yul\":7604:7605   */\n      0x00\n        /* \"#utility.yul\":7597:7685   */\n      mstore\n        /* \"#utility.yul\":7704:7708   */\n      0x32\n        /* \"#utility.yul\":7701:7702   */\n      0x04\n        /* \"#utility.yul\":7694:7709   */\n      mstore\n        /* \"#utility.yul\":7728:7732   */\n      0x24\n        /* \"#utility.yul\":7725:7726   */\n      0x00\n        /* \"#utility.yul\":7718:7733   */\n      revert\n        /* \"#utility.yul\":7745:7925   */\n    tag_81:\n        /* \"#utility.yul\":7793:7870   */\n      0x4e487b7100000000000000000000000000000000000000000000000000000000\n        /* \"#utility.yul\":7790:7791   */\n      0x00\n        /* \"#utility.yul\":7783:7871   */\n      mstore\n        /* \"#utility.yul\":7890:7894   */\n      0x12\n        /* \"#utility.yul\":7887:7888   */\n      0x04\n        /* \"#utility.yul\":7880:7895   */\n      mstore\n        /* \"#utility.yul\":7914:7918   */\n      0x24\n        /* \"#utility.yul\":7911:7912   */\n      0x00\n        /* \"#utility.yul\":7904:7919   */\n      revert\n        /* \"#utility.yul\":7931:8107   */\n    tag_34:\n        /* \"#utility.yul\":7963:7964   */\n      0x00\n        /* \"#utility.yul\":7980:8000   */\n      tag_172\n        /* \"#utility.yul\":7998:7999   */\n      dup3\n        /* \"#utility.yul\":7980:8000   */\n      tag_68\n      jump\t// in\n    tag_172:\n        /* \"#utility.yul\":7975:8000   */\n      swap2\n      pop\n        /* \"#utility.yul\":8014:8034   */\n      tag_173\n        /* \"#utility.yul\":8032:8033   */\n      dup4\n        /* \"#utility.yul\":8014:8034   */\n      tag_68\n      jump\t// in\n    tag_173:\n        /* \"#utility.yul\":8009:8034   */\n      swap3\n      pop\n        /* \"#utility.yul\":8053:8054   */\n      dup3\n        /* \"#utility.yul\":8043:8078   */\n      tag_174\n      jumpi\n        /* \"#utility.yul\":8058:8076   */\n      tag_175\n      tag_81\n      jump\t// in\n    tag_175:\n        /* \"#utility.yul\":8043:8078   */\n    tag_174:\n        /* \"#utility.yul\":8099:8100   */\n      dup3\n        /* \"#utility.yul\":8096:8097   */\n      dup3\n        /* \"#utility.yul\":8092:8101   */\n      mod\n        /* \"#utility.yul\":8087:8101   */\n      swap1\n      pop\n        /* \"#utility.yul\":7931:8107   */\n      swap3\n      swap2\n      pop\n      pop\n      jump\t// out\n        /* \"#utility.yul\":8113:8192   */\n    tag_82:\n        /* \"#utility.yul\":8152:8159   */\n      0x00\n        /* \"#utility.yul\":8181:8186   */\n      dup2\n        /* \"#utility.yul\":8170:8186   */\n      swap1\n      pop\n        /* \"#utility.yul\":8113:8192   */\n      swap2\n      swap1\n      pop\n      jump\t// out\n        /* \"#utility.yul\":8198:8355   */\n    tag_83:\n        /* \"#utility.yul\":8303:8348   */\n      tag_178\n        /* \"#utility.yul\":8323:8347   */\n      tag_179\n        /* \"#utility.yul\":8341:8346   */\n      dup3\n        /* \"#utility.yul\":8323:8347   */\n      tag_63\n      jump\t// in\n    tag_179:\n        /* \"#utility.yul\":8303:8348   */\n      tag_82\n      jump\t// in\n    tag_178:\n        /* \"#utility.yul\":8298:8301   */\n      dup3\n        /* \"#utility.yul\":8291:8349   */\n      mstore\n        /* \"#utility.yul\":8198:8355   */\n      pop\n      pop\n      jump\t// out\n        /* \"#utility.yul\":8361:8758   */\n    tag_37:\n        /* \"#utility.yul\":8501:8504   */\n      0x00\n        /* \"#utility.yul\":8516:8591   */\n      tag_181\n        /* \"#utility.yul\":8587:8590   */\n      dup3\n        /* \"#utility.yul\":8578:8584   */\n      dup6\n        /* \"#utility.yul\":8516:8591   */\n      tag_83\n      jump\t// in\n    tag_181:\n        /* \"#utility.yul\":8616:8618   */\n      0x20\n        /* \"#utility.yul\":8611:8614   */\n      dup3\n        /* \"#utility.yul\":8607:8619   */\n      add\n        /* \"#utility.yul\":8600:8619   */\n      swap2\n      pop\n        /* \"#utility.yul\":8629:8704   */\n      tag_182\n        /* \"#utility.yul\":8700:8703   */\n      dup3\n        /* \"#utility.yul\":8691:8697   */\n      dup5\n        /* \"#utility.yul\":8629:8704   */\n      tag_83\n      jump\t// in\n    tag_182:\n        /* \"#utility.yul\":8729:8731   */\n      0x20\n        /* \"#utility.yul\":8724:8727   */\n      dup3\n        /* \"#utility.yul\":8720:8732   */\n      add\n        /* \"#utility.yul\":8713:8732   */\n      swap2\n      pop\n        /* \"#utility.yul\":8749:8752   */\n      dup2\n        /* \"#utility.yul\":8742:8752   */\n      swap1\n      pop\n        /* \"#utility.yul\":8361:8758   */\n      swap4\n      swap3\n      pop\n      pop\n      pop\n      jump\t// out\n        /* \"#utility.yul\":8764:8944   */\n    tag_84:\n        /* \"#utility.yul\":8812:8889   */\n      0x4e487b7100000000000000000000000000000000000000000000000000000000\n        /* \"#utility.yul\":8809:8810   */\n      0x00\n        /* \"#utility.yul\":8802:8890   */\n      mstore\n        /* \"#utility.yul\":8909:8913   */\n      0x11\n        /* \"#utility.yul\":8906:8907   */\n      0x04\n        /* \"#utility.yul\":8899:8914   */\n      mstore\n        /* \"#utility.yul\":8933:8937   */\n      0x24\n        /* \"#utility.yul\":8930:8931   */\n      0x00\n        /* \"#utility.yul\":8923:8938   */\n      revert\n        /* \"#utility.yul\":8950:9135   */\n    tag_41:\n        /* \"#utility.yul\":8990:8991   */\n      0x00\n        /* \"#utility.yul\":9007:9027   */\n      tag_185\n        /* \"#utility.yul\":9025:9026   */\n      dup3\n        /* \"#utility.yul\":9007:9027   */\n      tag_68\n      jump\t// in\n    tag_185:\n        /* \"#utility.yul\":9002:9027   */\n      swap2\n      pop\n        /* \"#utility.yul\":9041:9061   */\n      tag_186\n        /* \"#utility.yul\":9059:9060   */\n      dup4\n        /* \"#utility.yul\":9041:9061   */\n      tag_68\n      jump\t// in\n    tag_186:\n        /* \"#utility.yul\":9036:9061   */\n      swap3\n      pop\n        /* \"#utility.yul\":9080:9081   */\n      dup3\n        /* \"#utility.yul\":9070:9105   */\n      tag_187\n      jumpi\n        /* \"#utility.yul\":9085:9103   */\n      tag_188\n      tag_81\n      jump\t// in\n    tag_188:\n        /* \"#utility.yul\":9070:9105   */\n    tag_187:\n        /* \"#utility.yul\":9127:9128   */\n      dup3\n        /* \"#utility.yul\":9124:9125   */\n      dup3\n        /* \"#utility.yul\":9120:9129   */\n      div\n        /* \"#utility.yul\":9115:9129   */\n      swap1\n      pop\n        /* \"#utility.yul\":8950:9135   */\n      swap3\n      swap2\n      pop\n      pop\n      jump\t// out\n        /* \"#utility.yul\":9141:9335   */\n    tag_46:\n        /* \"#utility.yul\":9181:9185   */\n      0x00\n        /* \"#utility.yul\":9201:9221   */\n      tag_190\n        /* \"#utility.yul\":9219:9220   */\n      dup3\n        /* \"#utility.yul\":9201:9221   */\n      tag_68\n      jump\t// in\n    tag_190:\n        /* \"#utility.yul\":9196:9221   */\n      swap2\n      pop\n        /* \"#utility.yul\":9235:9255   */\n      tag_191\n        /* \"#utility.yul\":9253:9254   */\n      dup4\n        /* \"#utility.yul\":9235:9255   */\n      tag_68\n      jump\t// in\n    tag_191:\n        /* \"#utility.yul\":9230:9255   */\n      swap3\n      pop\n        /* \"#utility.yul\":9279:9280   */\n      dup3\n        /* \"#utility.yul\":9276:9277   */\n      dup3\n        /* \"#utility.yul\":9272:9281   */\n      sub\n        /* \"#utility.yul\":9264:9281   */\n      swap1\n      pop\n        /* \"#utility.yul\":9303:9304   */\n      dup2\n        /* \"#utility.yul\":9297:9301   */\n      dup2\n        /* \"#utility.yul\":9294:9305   */\n      gt\n        /* \"#utility.yul\":9291:9328   */\n      iszero\n      tag_192\n      jumpi\n        /* \"#utility.yul\":9308:9326   */\n      tag_193\n      tag_84\n      jump\t// in\n    tag_193:\n        /* \"#utility.yul\":9291:9328   */\n    tag_192:\n        /* \"#utility.yul\":9141:9335   */\n      swap3\n      swap2\n      pop\n      pop\n      jump\t// out\n\n    auxdata: 0xa2646970667358221220c6b01ee92ad197aae84b35e380ddf391cb7e3a370518903b40dbaef12881b82564736f6c634300081e0033\n}\n",
				"bytecode": {
					"linkReferences": {},
					"object": "608060405234801561000f575f5ffd5b505f60405180608001604052806040518060400160405280600c81526020017f616c696365202d3e20626f62000000000000000000000000000000000000000081525081526020016040518060400160405280600b81526020017f626f62202d3e206461766500000000000000000000000000000000000000000081525081526020016040518060400160405280600e81526020017f6361726f6c202d3e20616c69636500000000000000000000000000000000000081525081526020016040518060400160405280600b81526020017f64617665202d3e20626f6200000000000000000000000000000000000000000081525081525090505f5f90505b6004811015610185575f82826004811061012a57610129610295565b5b602002015160405160200161013f9190610314565b60405160208183030381529060405280519060200120908060018154018082558091505060019003905f5260205f20015f9091909190915055808060010191505061010d565b505f600490505f5f90505b5f82111561028d575f5f90505b6001836101aa9190610360565b81101561026a575f5f82846101bf9190610393565b815481106101d0576101cf610295565b5b905f5260205f2001545f600184866101e89190610393565b6101f29190610393565b8154811061020357610202610295565b5b905f5260205f20015460405160200161021d9291906103ef565b60405160208183030381529060405280519060200120908060018154018082558091505060019003905f5260205f20015f90919091909150556002816102639190610393565b905061019d565b5081816102779190610393565b90506002826102869190610447565b9150610190565b505050610477565b7f4e487b71000000000000000000000000000000000000000000000000000000005f52603260045260245ffd5b5f81519050919050565b5f81905092915050565b8281835e5f83830152505050565b5f6102ee826102c2565b6102f881856102cc565b93506103088185602086016102d6565b80840191505092915050565b5f61031f82846102e4565b915081905092915050565b5f819050919050565b7f4e487b71000000000000000000000000000000000000000000000000000000005f52601160045260245ffd5b5f61036a8261032a565b91506103758361032a565b925082820390508181111561038d5761038c610333565b5b92915050565b5f61039d8261032a565b91506103a88361032a565b92508282019050808211156103c0576103bf610333565b5b92915050565b5f819050919050565b5f819050919050565b6103e96103e4826103c6565b6103cf565b82525050565b5f6103fa82856103d8565b60208201915061040a82846103d8565b6020820191508190509392505050565b7f4e487b71000000000000000000000000000000000000000000000000000000005f52601260045260245ffd5b5f6104518261032a565b915061045c8361032a565b92508261046c5761046b61041a565b5b828204905092915050565b61079b806104845f395ff3fe608060405234801561000f575f5ffd5b506004361061004a575f3560e01c806321fb335c1461004e578063501895ae1461007e5780635ca1e165146100ae578063d13319c4146100cc575b5f5ffd5b61006860048036038101906100639190610423565b6100ea565b60405161007591906104bd565b60405180910390f35b610098600480360381019061009391906104d6565b6101b6565b6040516100a59190610510565b60405180910390f35b6100b66101d5565b6040516100c39190610510565b60405180910390f35b6100d4610207565b6040516100e191906105e0565b60405180910390f35b5f5f8390505f5f90505b86518110156101a7575f87828151811061011157610110610600565b5b602002602001015190505f600286610129919061065a565b0361015e5782816040516020016101419291906106aa565b60405160208183030381529060405280519060200120925061018a565b80836040516020016101719291906106aa565b6040516020818303038152906040528051906020012092505b6002856101979190610702565b94505080806001019150506100f4565b50848114915050949350505050565b5f81815481106101c4575f80fd5b905f5260205f20015f915090505481565b5f5f60015f805490506101e89190610732565b815481106101f9576101f8610600565b5b905f5260205f200154905090565b60605f80548060200260200160405190810160405280929190818152602001828054801561025257602002820191905f5260205f20905b81548152602001906001019080831161023e575b5050505050905090565b5f604051905090565b5f5ffd5b5f5ffd5b5f5ffd5b5f601f19601f8301169050919050565b7f4e487b71000000000000000000000000000000000000000000000000000000005f52604160045260245ffd5b6102b782610271565b810181811067ffffffffffffffff821117156102d6576102d5610281565b5b80604052505050565b5f6102e861025c565b90506102f482826102ae565b919050565b5f67ffffffffffffffff82111561031357610312610281565b5b602082029050602081019050919050565b5f5ffd5b5f819050919050565b61033a81610328565b8114610344575f5ffd5b50565b5f8135905061035581610331565b92915050565b5f61036d610368846102f9565b6102df565b905080838252602082019050602084028301858111156103905761038f610324565b5b835b818110156103b957806103a58882610347565b845260208401935050602081019050610392565b5050509392505050565b5f82601f8301126103d7576103d661026d565b5b81356103e784826020860161035b565b91505092915050565b5f819050919050565b610402816103f0565b811461040c575f5ffd5b50565b5f8135905061041d816103f9565b92915050565b5f5f5f5f6080858703121561043b5761043a610265565b5b5f85013567ffffffffffffffff81111561045857610457610269565b5b610464878288016103c3565b945050602061047587828801610347565b935050604061048687828801610347565b92505060606104978782880161040f565b91505092959194509250565b5f8115159050919050565b6104b7816104a3565b82525050565b5f6020820190506104d05f8301846104ae565b92915050565b5f602082840312156104eb576104ea610265565b5b5f6104f88482850161040f565b91505092915050565b61050a81610328565b82525050565b5f6020820190506105235f830184610501565b92915050565b5f81519050919050565b5f82825260208201905092915050565b5f819050602082019050919050565b61055b81610328565b82525050565b5f61056c8383610552565b60208301905092915050565b5f602082019050919050565b5f61058e82610529565b6105988185610533565b93506105a383610543565b805f5b838110156105d35781516105ba8882610561565b97506105c583610578565b9250506001810190506105a6565b5085935050505092915050565b5f6020820190508181035f8301526105f88184610584565b905092915050565b7f4e487b71000000000000000000000000000000000000000000000000000000005f52603260045260245ffd5b7f4e487b71000000000000000000000000000000000000000000000000000000005f52601260045260245ffd5b5f610664826103f0565b915061066f836103f0565b92508261067f5761067e61062d565b5b828206905092915050565b5f819050919050565b6106a461069f82610328565b61068a565b82525050565b5f6106b58285610693565b6020820191506106c58284610693565b6020820191508190509392505050565b7f4e487b71000000000000000000000000000000000000000000000000000000005f52601160045260245ffd5b5f61070c826103f0565b9150610717836103f0565b9250826107275761072661062d565b5b828204905092915050565b5f61073c826103f0565b9150610747836103f0565b925082820390508181111561075f5761075e6106d5565b5b9291505056fea2646970667358221220c6b01ee92ad197aae84b35e380ddf391cb7e3a370518903b40dbaef12881b82564736f6c634300081e0033",
					"opcodes": "PUSH1 0x80 PUSH1 0x40 MSTORE CALLVALUE DUP1 ISZERO PUSH2 0xF JUMPI PUSH0 PUSH0 REVERT JUMPDEST POP PUSH0 PUSH1 0x40 MLOAD DUP1 PUSH1 0x80 ADD PUSH1 0x40 MSTORE DUP1 PUSH1 0x40 MLOAD DUP1 PUSH1 0x40 ADD PUSH1 0x40 MSTORE DUP1 PUSH1 0xC DUP2 MSTORE PUSH1 0x20 ADD PUSH32 0x616C696365202D3E20626F620000000000000000000000000000000000000000 DUP2 MSTORE POP DUP2 MSTORE PUSH1 0x20 ADD PUSH1 0x40 MLOAD DUP1 PUSH1 0x40 ADD PUSH1 0x40 MSTORE DUP1 PUSH1 0xB DUP2 MSTORE PUSH1 0x20 ADD PUSH32 0x626F62202D3E2064617665000000000000000000000000000000000000000000 DUP2 MSTORE POP DUP2 MSTORE PUSH1 0x20 ADD PUSH1 0x40 MLOAD DUP1 PUSH1 0x40 ADD PUSH1 0x40 MSTORE DUP1 PUSH1 0xE DUP2 MSTORE PUSH1 0x20 ADD PUSH32 0x6361726F6C202D3E20616C696365000000000000000000000000000000000000 DUP2 MSTORE POP DUP2 MSTORE PUSH1 0x20 ADD PUSH1 0x40 MLOAD DUP1 PUSH1 0x40 ADD PUSH1 0x40 MSTORE DUP1 PUSH1 0xB DUP2 MSTORE PUSH1 0x20 ADD PUSH32 0x64617665202D3E20626F62000000000000000000000000000000000000000000 DUP2 MSTORE POP DUP2 MSTORE POP SWAP1 POP PUSH0 PUSH0 SWAP1 POP JUMPDEST PUSH1 0x4 DUP2 LT ISZERO PUSH2 0x185 JUMPI PUSH0 DUP3 DUP3 PUSH1 0x4 DUP2 LT PUSH2 0x12A JUMPI PUSH2 0x129 PUSH2 0x295 JUMP JUMPDEST JUMPDEST PUSH1 0x20 MUL ADD MLOAD PUSH1 0x40 MLOAD PUSH1 0x20 ADD PUSH2 0x13F SWAP2 SWAP1 PUSH2 0x314 JUMP JUMPDEST PUSH1 0x40 MLOAD PUSH1 0x20 DUP2 DUP4 SUB SUB DUP2 MSTORE SWAP1 PUSH1 0x40 MSTORE DUP1 MLOAD SWAP1 PUSH1 0x20 ADD KECCAK256 SWAP1 DUP1 PUSH1 0x1 DUP2 SLOAD ADD DUP1 DUP3 SSTORE DUP1 SWAP2 POP POP PUSH1 0x1 SWAP1 SUB SWAP1 PUSH0 MSTORE PUSH1 0x20 PUSH0 KECCAK256 ADD PUSH0 SWAP1 SWAP2 SWAP1 SWAP2 SWAP1 SWAP2 POP SSTORE DUP1 DUP1 PUSH1 0x1 ADD SWAP2 POP POP PUSH2 0x10D JUMP JUMPDEST POP PUSH0 PUSH1 0x4 SWAP1 POP PUSH0 PUSH0 SWAP1 POP JUMPDEST PUSH0 DUP3 GT ISZERO PUSH2 0x28D JUMPI PUSH0 PUSH0 SWAP1 POP JUMPDEST PUSH1 0x1 DUP4 PUSH2 0x1AA SWAP2 SWAP1 PUSH2 0x360 JUMP JUMPDEST DUP2 LT ISZERO PUSH2 0x26A JUMPI PUSH0 PUSH0 DUP3 DUP5 PUSH2 0x1BF SWAP2 SWAP1 PUSH2 0x393 JUMP JUMPDEST DUP2 SLOAD DUP2 LT PUSH2 0x1D0 JUMPI PUSH2 0x1CF PUSH2 0x295 JUMP JUMPDEST JUMPDEST SWAP1 PUSH0 MSTORE PUSH1 0x20 PUSH0 KECCAK256 ADD SLOAD PUSH0 PUSH1 0x1 DUP5 DUP7 PUSH2 0x1E8 SWAP2 SWAP1 PUSH2 0x393 JUMP JUMPDEST PUSH2 0x1F2 SWAP2 SWAP1 PUSH2 0x393 JUMP JUMPDEST DUP2 SLOAD DUP2 LT PUSH2 0x203 JUMPI PUSH2 0x202 PUSH2 0x295 JUMP JUMPDEST JUMPDEST SWAP1 PUSH0 MSTORE PUSH1 0x20 PUSH0 KECCAK256 ADD SLOAD PUSH1 0x40 MLOAD PUSH1 0x20 ADD PUSH2 0x21D SWAP3 SWAP2 SWAP1 PUSH2 0x3EF JUMP JUMPDEST PUSH1 0x40 MLOAD PUSH1 0x20 DUP2 DUP4 SUB SUB DUP2 MSTORE SWAP1 PUSH1 0x40 MSTORE DUP1 MLOAD SWAP1 PUSH1 0x20 ADD KECCAK256 SWAP1 DUP1 PUSH1 0x1 DUP2 SLOAD ADD DUP1 DUP3 SSTORE DUP1 SWAP2 POP POP PUSH1 0x1 SWAP1 SUB SWAP1 PUSH0 MSTORE PUSH1 0x20 PUSH0 KECCAK256 ADD PUSH0 SWAP1 SWAP2 SWAP1 SWAP2 SWAP1 SWAP2 POP SSTORE PUSH1 0x2 DUP2 PUSH2 0x263 SWAP2 SWAP1 PUSH2 0x393 JUMP JUMPDEST SWAP1 POP PUSH2 0x19D JUMP JUMPDEST POP DUP2 DUP2 PUSH2 0x277 SWAP2 SWAP1 PUSH2 0x393 JUMP JUMPDEST SWAP1 POP PUSH1 0x2 DUP3 PUSH2 0x286 SWAP2 SWAP1 PUSH2 0x447 JUMP JUMPDEST SWAP2 POP PUSH2 0x190 JUMP JUMPDEST POP POP POP PUSH2 0x477 JUMP JUMPDEST PUSH32 0x4E487B7100000000000000000000000000000000000000000000000000000000 PUSH0 MSTORE PUSH1 0x32 PUSH1 0x4 MSTORE PUSH1 0x24 PUSH0 REVERT JUMPDEST PUSH0 DUP2 MLOAD SWAP1 POP SWAP2 SWAP1 POP JUMP JUMPDEST PUSH0 DUP2 SWAP1 POP SWAP3 SWAP2 POP POP JUMP JUMPDEST DUP3 DUP2 DUP4 MCOPY PUSH0 DUP4 DUP4 ADD MSTORE POP POP POP JUMP JUMPDEST PUSH0 PUSH2 0x2EE DUP3 PUSH2 0x2C2 JUMP JUMPDEST PUSH2 0x2F8 DUP2 DUP6 PUSH2 0x2CC JUMP JUMPDEST SWAP4 POP PUSH2 0x308 DUP2 DUP6 PUSH1 0x20 DUP7 ADD PUSH2 0x2D6 JUMP JUMPDEST DUP1 DUP5 ADD SWAP2 POP POP SWAP3 SWAP2 POP POP JUMP JUMPDEST PUSH0 PUSH2 0x31F DUP3 DUP5 PUSH2 0x2E4 JUMP JUMPDEST SWAP2 POP DUP2 SWAP1 POP SWAP3 SWAP2 POP POP JUMP JUMPDEST PUSH0 DUP2 SWAP1 POP SWAP2 SWAP1 POP JUMP JUMPDEST PUSH32 0x4E487B7100000000000000000000000000000000000000000000000000000000 PUSH0 MSTORE PUSH1 0x11 PUSH1 0x4 MSTORE PUSH1 0x24 PUSH0 REVERT JUMPDEST PUSH0 PUSH2 0x36A DUP3 PUSH2 0x32A JUMP JUMPDEST SWAP2 POP PUSH2 0x375 DUP4 PUSH2 0x32A JUMP JUMPDEST SWAP3 POP DUP3 DUP3 SUB SWAP1 POP DUP2 DUP2 GT ISZERO PUSH2 0x38D JUMPI PUSH2 0x38C PUSH2 0x333 JUMP JUMPDEST JUMPDEST SWAP3 SWAP2 POP POP JUMP JUMPDEST PUSH0 PUSH2 0x39D DUP3 PUSH2 0x32A JUMP JUMPDEST SWAP2 POP PUSH2 0x3A8 DUP4 PUSH2 0x32A JUMP JUMPDEST SWAP3 POP DUP3 DUP3 ADD SWAP1 POP DUP1 DUP3 GT ISZERO PUSH2 0x3C0 JUMPI PUSH2 0x3BF PUSH2 0x333 JUMP JUMPDEST JUMPDEST SWAP3 SWAP2 POP POP JUMP JUMPDEST PUSH0 DUP2 SWAP1 POP SWAP2 SWAP1 POP JUMP JUMPDEST PUSH0 DUP2 SWAP1 POP SWAP2 SWAP1 POP JUMP JUMPDEST PUSH2 0x3E9 PUSH2 0x3E4 DUP3 PUSH2 0x3C6 JUMP JUMPDEST PUSH2 0x3CF JUMP JUMPDEST DUP3 MSTORE POP POP JUMP JUMPDEST PUSH0 PUSH2 0x3FA DUP3 DUP6 PUSH2 0x3D8 JUMP JUMPDEST PUSH1 0x20 DUP3 ADD SWAP2 POP PUSH2 0x40A DUP3 DUP5 PUSH2 0x3D8 JUMP JUMPDEST PUSH1 0x20 DUP3 ADD SWAP2 POP DUP2 SWAP1 POP SWAP4 SWAP3 POP POP POP JUMP JUMPDEST PUSH32 0x4E487B7100000000000000000000000000000000000000000000000000000000 PUSH0 MSTORE PUSH1 0x12 PUSH1 0x4 MSTORE PUSH1 0x24 PUSH0 REVERT JUMPDEST PUSH0 PUSH2 0x451 DUP3 PUSH2 0x32A JUMP JUMPDEST SWAP2 POP PUSH2 0x45C DUP4 PUSH2 0x32A JUMP JUMPDEST SWAP3 POP DUP3 PUSH2 0x46C JUMPI PUSH2 0x46B PUSH2 0x41A JUMP JUMPDEST JUMPDEST DUP3 DUP3 DIV SWAP1 POP SWAP3 SWAP2 POP POP JUMP JUMPDEST PUSH2 0x79B DUP1 PUSH2 0x484 PUSH0 CODECOPY PUSH0 RETURN INVALID PUSH1 0x80 PUSH1 0x40 MSTORE CALLVALUE DUP1 ISZERO PUSH2 0xF JUMPI PUSH0 PUSH0 REVERT JUMPDEST POP PUSH1 0x4 CALLDATASIZE LT PUSH2 0x4A JUMPI PUSH0 CALLDATALOAD PUSH1 0xE0 SHR DUP1 PUSH4 0x21FB335C EQ PUSH2 0x4E JUMPI DUP1 PUSH4 0x501895AE EQ PUSH2 0x7E JUMPI DUP1 PUSH4 0x5CA1E165 EQ PUSH2 0xAE JUMPI DUP1 PUSH4 0xD13319C4 EQ PUSH2 0xCC JUMPI JUMPDEST PUSH0 PUSH0 REVERT JUMPDEST PUSH2 0x68 PUSH1 0x4 DUP1 CALLDATASIZE SUB DUP2 ADD SWAP1 PUSH2 0x63 SWAP2 SWAP1 PUSH2 0x423 JUMP JUMPDEST PUSH2 0xEA JUMP JUMPDEST PUSH1 0x40 MLOAD PUSH2 0x75 SWAP2 SWAP1 PUSH2 0x4BD JUMP JUMPDEST PUSH1 0x40 MLOAD DUP1 SWAP2 SUB SWAP1 RETURN JUMPDEST PUSH2 0x98 PUSH1 0x4 DUP1 CALLDATASIZE SUB DUP2 ADD SWAP1 PUSH2 0x93 SWAP2 SWAP1 PUSH2 0x4D6 JUMP JUMPDEST PUSH2 0x1B6 JUMP JUMPDEST PUSH1 0x40 MLOAD PUSH2 0xA5 SWAP2 SWAP1 PUSH2 0x510 JUMP JUMPDEST PUSH1 0x40 MLOAD DUP1 SWAP2 SUB SWAP1 RETURN JUMPDEST PUSH2 0xB6 PUSH2 0x1D5 JUMP JUMPDEST PUSH1 0x40 MLOAD PUSH2 0xC3 SWAP2 SWAP1 PUSH2 0x510 JUMP JUMPDEST PUSH1 0x40 MLOAD DUP1 SWAP2 SUB SWAP1 RETURN JUMPDEST PUSH2 0xD4 PUSH2 0x207 JUMP JUMPDEST PUSH1 0x40 MLOAD PUSH2 0xE1 SWAP2 SWAP1 PUSH2 0x5E0 JUMP JUMPDEST PUSH1 0x40 MLOAD DUP1 SWAP2 SUB SWAP1 RETURN JUMPDEST PUSH0 PUSH0 DUP4 SWAP1 POP PUSH0 PUSH0 SWAP1 POP JUMPDEST DUP7 MLOAD DUP2 LT ISZERO PUSH2 0x1A7 JUMPI PUSH0 DUP8 DUP3 DUP2 MLOAD DUP2 LT PUSH2 0x111 JUMPI PUSH2 0x110 PUSH2 0x600 JUMP JUMPDEST JUMPDEST PUSH1 0x20 MUL PUSH1 0x20 ADD ADD MLOAD SWAP1 POP PUSH0 PUSH1 0x2 DUP7 PUSH2 0x129 SWAP2 SWAP1 PUSH2 0x65A JUMP JUMPDEST SUB PUSH2 0x15E JUMPI DUP3 DUP2 PUSH1 0x40 MLOAD PUSH1 0x20 ADD PUSH2 0x141 SWAP3 SWAP2 SWAP1 PUSH2 0x6AA JUMP JUMPDEST PUSH1 0x40 MLOAD PUSH1 0x20 DUP2 DUP4 SUB SUB DUP2 MSTORE SWAP1 PUSH1 0x40 MSTORE DUP1 MLOAD SWAP1 PUSH1 0x20 ADD KECCAK256 SWAP3 POP PUSH2 0x18A JUMP JUMPDEST DUP1 DUP4 PUSH1 0x40 MLOAD PUSH1 0x20 ADD PUSH2 0x171 SWAP3 SWAP2 SWAP1 PUSH2 0x6AA JUMP JUMPDEST PUSH1 0x40 MLOAD PUSH1 0x20 DUP2 DUP4 SUB SUB DUP2 MSTORE SWAP1 PUSH1 0x40 MSTORE DUP1 MLOAD SWAP1 PUSH1 0x20 ADD KECCAK256 SWAP3 POP JUMPDEST PUSH1 0x2 DUP6 PUSH2 0x197 SWAP2 SWAP1 PUSH2 0x702 JUMP JUMPDEST SWAP5 POP POP DUP1 DUP1 PUSH1 0x1 ADD SWAP2 POP POP PUSH2 0xF4 JUMP JUMPDEST POP DUP5 DUP2 EQ SWAP2 POP POP SWAP5 SWAP4 POP POP POP POP JUMP JUMPDEST PUSH0 DUP2 DUP2 SLOAD DUP2 LT PUSH2 0x1C4 JUMPI PUSH0 DUP1 REVERT JUMPDEST SWAP1 PUSH0 MSTORE PUSH1 0x20 PUSH0 KECCAK256 ADD PUSH0 SWAP2 POP SWAP1 POP SLOAD DUP2 JUMP JUMPDEST PUSH0 PUSH0 PUSH1 0x1 PUSH0 DUP1 SLOAD SWAP1 POP PUSH2 0x1E8 SWAP2 SWAP1 PUSH2 0x732 JUMP JUMPDEST DUP2 SLOAD DUP2 LT PUSH2 0x1F9 JUMPI PUSH2 0x1F8 PUSH2 0x600 JUMP JUMPDEST JUMPDEST SWAP1 PUSH0 MSTORE PUSH1 0x20 PUSH0 KECCAK256 ADD SLOAD SWAP1 POP SWAP1 JUMP JUMPDEST PUSH1 0x60 PUSH0 DUP1 SLOAD DUP1 PUSH1 0x20 MUL PUSH1 0x20 ADD PUSH1 0x40 MLOAD SWAP1 DUP2 ADD PUSH1 0x40 MSTORE DUP1 SWAP3 SWAP2 SWAP1 DUP2 DUP2 MSTORE PUSH1 0x20 ADD DUP3 DUP1 SLOAD DUP1 ISZERO PUSH2 0x252 JUMPI PUSH1 0x20 MUL DUP3 ADD SWAP2 SWAP1 PUSH0 MSTORE PUSH1 0x20 PUSH0 KECCAK256 SWAP1 JUMPDEST DUP2 SLOAD DUP2 MSTORE PUSH1 0x20 ADD SWAP1 PUSH1 0x1 ADD SWAP1 DUP1 DUP4 GT PUSH2 0x23E JUMPI JUMPDEST POP POP POP POP POP SWAP1 POP SWAP1 JUMP JUMPDEST PUSH0 PUSH1 0x40 MLOAD SWAP1 POP SWAP1 JUMP JUMPDEST PUSH0 PUSH0 REVERT JUMPDEST PUSH0 PUSH0 REVERT JUMPDEST PUSH0 PUSH0 REVERT JUMPDEST PUSH0 PUSH1 0x1F NOT PUSH1 0x1F DUP4 ADD AND SWAP1 POP SWAP2 SWAP1 POP JUMP JUMPDEST PUSH32 0x4E487B7100000000000000000000000000000000000000000000000000000000 PUSH0 MSTORE PUSH1 0x41 PUSH1 0x4 MSTORE PUSH1 0x24 PUSH0 REVERT JUMPDEST PUSH2 0x2B7 DUP3 PUSH2 0x271 JUMP JUMPDEST DUP2 ADD DUP2 DUP2 LT PUSH8 0xFFFFFFFFFFFFFFFF DUP3 GT OR ISZERO PUSH2 0x2D6 JUMPI PUSH2 0x2D5 PUSH2 0x281 JUMP JUMPDEST JUMPDEST DUP1 PUSH1 0x40 MSTORE POP POP POP JUMP JUMPDEST PUSH0 PUSH2 0x2E8 PUSH2 0x25C JUMP JUMPDEST SWAP1 POP PUSH2 0x2F4 DUP3 DUP3 PUSH2 0x2AE JUMP JUMPDEST SWAP2 SWAP1 POP JUMP JUMPDEST PUSH0 PUSH8 0xFFFFFFFFFFFFFFFF DUP3 GT ISZERO PUSH2 0x313 JUMPI PUSH2 0x312 PUSH2 0x281 JUMP JUMPDEST JUMPDEST PUSH1 0x20 DUP3 MUL SWAP1 POP PUSH1 0x20 DUP2 ADD SWAP1 POP SWAP2 SWAP1 POP JUMP JUMPDEST PUSH0 PUSH0 REVERT JUMPDEST PUSH0 DUP2 SWAP1 POP SWAP2 SWAP1 POP JUMP JUMPDEST PUSH2 0x33A DUP2 PUSH2 0x328 JUMP JUMPDEST DUP2 EQ PUSH2 0x344 JUMPI PUSH0 PUSH0 REVERT JUMPDEST POP JUMP JUMPDEST PUSH0 DUP2 CALLDATALOAD SWAP1 POP PUSH2 0x355 DUP2 PUSH2 0x331 JUMP JUMPDEST SWAP3 SWAP2 POP POP JUMP JUMPDEST PUSH0 PUSH2 0x36D PUSH2 0x368 DUP5 PUSH2 0x2F9 JUMP JUMPDEST PUSH2 0x2DF JUMP JUMPDEST SWAP1 POP DUP1 DUP4 DUP3 MSTORE PUSH1 0x20 DUP3 ADD SWAP1 POP PUSH1 0x20 DUP5 MUL DUP4 ADD DUP6 DUP2 GT ISZERO PUSH2 0x390 JUMPI PUSH2 0x38F PUSH2 0x324 JUMP JUMPDEST JUMPDEST DUP4 JUMPDEST DUP2 DUP2 LT ISZERO PUSH2 0x3B9 JUMPI DUP1 PUSH2 0x3A5 DUP9 DUP3 PUSH2 0x347 JUMP JUMPDEST DUP5 MSTORE PUSH1 0x20 DUP5 ADD SWAP4 POP POP PUSH1 0x20 DUP2 ADD SWAP1 POP PUSH2 0x392 JUMP JUMPDEST POP POP POP SWAP4 SWAP3 POP POP POP JUMP JUMPDEST PUSH0 DUP3 PUSH1 0x1F DUP4 ADD SLT PUSH2 0x3D7 JUMPI PUSH2 0x3D6 PUSH2 0x26D JUMP JUMPDEST JUMPDEST DUP2 CALLDATALOAD PUSH2 0x3E7 DUP5 DUP3 PUSH1 0x20 DUP7 ADD PUSH2 0x35B JUMP JUMPDEST SWAP2 POP POP SWAP3 SWAP2 POP POP JUMP JUMPDEST PUSH0 DUP2 SWAP1 POP SWAP2 SWAP1 POP JUMP JUMPDEST PUSH2 0x402 DUP2 PUSH2 0x3F0 JUMP JUMPDEST DUP2 EQ PUSH2 0x40C JUMPI PUSH0 PUSH0 REVERT JUMPDEST POP JUMP JUMPDEST PUSH0 DUP2 CALLDATALOAD SWAP1 POP PUSH2 0x41D DUP2 PUSH2 0x3F9 JUMP JUMPDEST SWAP3 SWAP2 POP POP JUMP JUMPDEST PUSH0 PUSH0 PUSH0 PUSH0 PUSH1 0x80 DUP6 DUP8 SUB SLT ISZERO PUSH2 0x43B JUMPI PUSH2 0x43A PUSH2 0x265 JUMP JUMPDEST JUMPDEST PUSH0 DUP6 ADD CALLDATALOAD PUSH8 0xFFFFFFFFFFFFFFFF DUP2 GT ISZERO PUSH2 0x458 JUMPI PUSH2 0x457 PUSH2 0x269 JUMP JUMPDEST JUMPDEST PUSH2 0x464 DUP8 DUP3 DUP9 ADD PUSH2 0x3C3 JUMP JUMPDEST SWAP5 POP POP PUSH1 0x20 PUSH2 0x475 DUP8 DUP3 DUP9 ADD PUSH2 0x347 JUMP JUMPDEST SWAP4 POP POP PUSH1 0x40 PUSH2 0x486 DUP8 DUP3 DUP9 ADD PUSH2 0x347 JUMP JUMPDEST SWAP3 POP POP PUSH1 0x60 PUSH2 0x497 DUP8 DUP3 DUP9 ADD PUSH2 0x40F JUMP JUMPDEST SWAP2 POP POP SWAP3 SWAP6 SWAP2 SWAP5 POP SWAP3 POP JUMP JUMPDEST PUSH0 DUP2 ISZERO ISZERO SWAP1 POP SWAP2 SWAP1 POP JUMP JUMPDEST PUSH2 0x4B7 DUP2 PUSH2 0x4A3 JUMP JUMPDEST DUP3 MSTORE POP POP JUMP JUMPDEST PUSH0 PUSH1 0x20 DUP3 ADD SWAP1 POP PUSH2 0x4D0 PUSH0 DUP4 ADD DUP5 PUSH2 0x4AE JUMP JUMPDEST SWAP3 SWAP2 POP POP JUMP JUMPDEST PUSH0 PUSH1 0x20 DUP3 DUP5 SUB SLT ISZERO PUSH2 0x4EB JUMPI PUSH2 0x4EA PUSH2 0x265 JUMP JUMPDEST JUMPDEST PUSH0 PUSH2 0x4F8 DUP5 DUP3 DUP6 ADD PUSH2 0x40F JUMP JUMPDEST SWAP2 POP POP SWAP3 SWAP2 POP POP JUMP JUMPDEST PUSH2 0x50A DUP2 PUSH2 0x328 JUMP JUMPDEST DUP3 MSTORE POP POP JUMP JUMPDEST PUSH0 PUSH1 0x20 DUP3 ADD SWAP1 POP PUSH2 0x523 PUSH0 DUP4 ADD DUP5 PUSH2 0x501 JUMP JUMPDEST SWAP3 SWAP2 POP POP JUMP JUMPDEST PUSH0 DUP2 MLOAD SWAP1 POP SWAP2 SWAP1 POP JUMP JUMPDEST PUSH0 DUP3 DUP3 MSTORE PUSH1 0x20 DUP3 ADD SWAP1 POP SWAP3 SWAP2 POP POP JUMP JUMPDEST PUSH0 DUP2 SWAP1 POP PUSH1 0x20 DUP3 ADD SWAP1 POP SWAP2 SWAP1 POP JUMP JUMPDEST PUSH2 0x55B DUP2 PUSH2 0x328 JUMP JUMPDEST DUP3 MSTORE POP POP JUMP JUMPDEST PUSH0 PUSH2 0x56C DUP4 DUP4 PUSH2 0x552 JUMP JUMPDEST PUSH1 0x20 DUP4 ADD SWAP1 POP SWAP3 SWAP2 POP POP JUMP JUMPDEST PUSH0 PUSH1 0x20 DUP3 ADD SWAP1 POP SWAP2 SWAP1 POP JUMP JUMPDEST PUSH0 PUSH2 0x58E DUP3 PUSH2 0x529 JUMP JUMPDEST PUSH2 0x598 DUP2 DUP6 PUSH2 0x533 JUMP JUMPDEST SWAP4 POP PUSH2 0x5A3 DUP4 PUSH2 0x543 JUMP JUMPDEST DUP1 PUSH0 JUMPDEST DUP4 DUP2 LT ISZERO PUSH2 0x5D3 JUMPI DUP2 MLOAD PUSH2 0x5BA DUP9 DUP3 PUSH2 0x561 JUMP JUMPDEST SWAP8 POP PUSH2 0x5C5 DUP4 PUSH2 0x578 JUMP JUMPDEST SWAP3 POP POP PUSH1 0x1 DUP2 ADD SWAP1 POP PUSH2 0x5A6 JUMP JUMPDEST POP DUP6 SWAP4 POP POP POP POP SWAP3 SWAP2 POP POP JUMP JUMPDEST PUSH0 PUSH1 0x20 DUP3 ADD SWAP1 POP DUP2 DUP2 SUB PUSH0 DUP4 ADD MSTORE PUSH2 0x5F8 DUP2 DUP5 PUSH2 0x584 JUMP JUMPDEST SWAP1 POP SWAP3 SWAP2 POP POP JUMP JUMPDEST PUSH32 0x4E487B7100000000000000000000000000000000000000000000000000000000 PUSH0 MSTORE PUSH1 0x32 PUSH1 0x4 MSTORE PUSH1 0x24 PUSH0 REVERT JUMPDEST PUSH32 0x4E487B7100000000000000000000000000000000000000000000000000000000 PUSH0 MSTORE PUSH1 0x12 PUSH1 0x4 MSTORE PUSH1 0x24 PUSH0 REVERT JUMPDEST PUSH0 PUSH2 0x664 DUP3 PUSH2 0x3F0 JUMP JUMPDEST SWAP2 POP PUSH2 0x66F DUP4 PUSH2 0x3F0 JUMP JUMPDEST SWAP3 POP DUP3 PUSH2 0x67F JUMPI PUSH2 0x67E PUSH2 0x62D JUMP JUMPDEST JUMPDEST DUP3 DUP3 MOD SWAP1 POP SWAP3 SWAP2 POP POP JUMP JUMPDEST PUSH0 DUP2 SWAP1 POP SWAP2 SWAP1 POP JUMP JUMPDEST PUSH2 0x6A4 PUSH2 0x69F DUP3 PUSH2 0x328 JUMP JUMPDEST PUSH2 0x68A JUMP JUMPDEST DUP3 MSTORE POP POP JUMP JUMPDEST PUSH0 PUSH2 0x6B5 DUP3 DUP6 PUSH2 0x693 JUMP JUMPDEST PUSH1 0x20 DUP3 ADD SWAP2 POP PUSH2 0x6C5 DUP3 DUP5 PUSH2 0x693 JUMP JUMPDEST PUSH1 0x20 DUP3 ADD SWAP2 POP DUP2 SWAP1 POP SWAP4 SWAP3 POP POP POP JUMP JUMPDEST PUSH32 0x4E487B7100000000000000000000000000000000000000000000000000000000 PUSH0 MSTORE PUSH1 0x11 PUSH1 0x4 MSTORE PUSH1 0x24 PUSH0 REVERT JUMPDEST PUSH0 PUSH2 0x70C DUP3 PUSH2 0x3F0 JUMP JUMPDEST SWAP2 POP PUSH2 0x717 DUP4 PUSH2 0x3F0 JUMP JUMPDEST SWAP3 POP DUP3 PUSH2 0x727 JUMPI PUSH2 0x726 PUSH2 0x62D JUMP JUMPDEST JUMPDEST DUP3 DUP3 DIV SWAP1 POP SWAP3 SWAP2 POP POP JUMP JUMPDEST PUSH0 PUSH2 0x73C DUP3 PUSH2 0x3F0 JUMP JUMPDEST SWAP2 POP PUSH2 0x747 DUP4 PUSH2 0x3F0 JUMP JUMPDEST SWAP3 POP DUP3 DUP3 SUB SWAP1 POP DUP2 DUP2 GT ISZERO PUSH2 0x75F JUMPI PUSH2 0x75E PUSH2 0x6D5 JUMP JUMPDEST JUMPDEST SWAP3 SWAP2 POP POP JUMP INVALID LOG2 PUSH5 0x6970667358 0x22 SLT KECCAK256 0xC6 0xB0 0x1E 0xE9 0x2A DATALOADN 0x97AA 0xE8 0x4B CALLDATALOAD CALLF 0x80DD RETURN SWAP2 0xCB PUSH31 0x3A370518903B40DBAEF12881B82564736F6C634300081E0033000000000000 "
				},
				"gasEstimates": {
					"creation": {
						"codeDepositCost": "389400",
						"executionCost": "infinite",
						"totalCost": "infinite"
					},
					"external": {
						"getHash()": "infinite",
						"getRoot()": "infinite",
						"hashes(uint256)": "4870",
						"verify(bytes32[],bytes32,bytes32,uint256)": "infinite"
					}
				},
				"methodIdentifiers": {
					"getHash()": "d13319c4",
					"getRoot()": "5ca1e165",
					"hashes(uint256)": "501895ae",
					"verify(bytes32[],bytes32,bytes32,uint256)": "21fb335c"
				}
			},
			"storageLayout": {
				"storage": [
					{
						"astId": 83,
						"contract": "application_contracts/Merkle Tree.sol:TestMerkleProof",
						"label": "hashes",
						"offset": 0,
						"slot": "0",
						"type": "t_array(t_bytes32)dyn_storage"
					}
				],
				"types": {
					"t_array(t_bytes32)dyn_storage": {
						"base": "t_bytes32",
						"encoding": "dynamic_array",
						"label": "bytes32[]",
						"numberOfBytes": "32"
					},
					"t_bytes32": {
						"encoding": "inplace",
						"label": "bytes32",
						"numberOfBytes": "32"
					}
				}
			},
			"userdoc": {
				"kind": "user",
				"methods": {},
				"version": 1
			}
		}
	}
}