{
	"application_contracts/Uni-Directional Payment Channel.sol": {
		"UniDirectionalPaymentChannel": {
			"abi": [
				{
					"inputs": [
						{
							"internalType": "address payable",
							"name": "_receiver",
							"type": "address"
						}
					],
					"stateMutability": "payable",
					"type": "constructor"
				},
				{
					"inputs": [],
					"name": "cancel",
					"outputs": [],
					"stateMutability": "nonpayable",
					"type": "function"
				},
				{
					"inputs": [
						{
							"internalType": "uint256",
							"name": "_amount",
							"type": "uint256"
						},
						{
							"internalType": "bytes",
							"name": "_sig",
							"type": "bytes"
						}
					],
					"name": "close",
					"outputs": [],
					"stateMutability": "nonpayable",
					"type": "function"
				},
				{
					"inputs": [],
					"name": "expiresAt",
					"outputs": [
						{
							"internalType": "uint256",
							"name": "",
							"type": "uint256"
						}
					],
					"stateMutability": "view",
					"type": "function"
				},
				{
					"inputs": [
						{
							"internalType": "uint256",
							"name": "_amount",
							"type": "uint256"
						}
					],
					"name": "getEthSignedHash",
					"outputs": [
						{
							"internalType": "bytes32",
							"name": "",
							"type": "bytes32"
						}
					],
					"stateMutability": "view",
					"type": "function"
				},
				{
					"inputs": [
						{
							"internalType": "uint256",
							"name": "_amount",
							"type": "uint256"
						}
					],
					"name": "getHash",
					"outputs": [
						{
							"internalType": "bytes32",
							"name": "",
							"type": "bytes32"
						}
					],
					"stateMutability": "view",
					"type": "function"
				},
				{
					"inputs": [],
					"name": "receiver",
					"outputs": [
						{
							"internalType": "address payable",
							"name": "",
							"type": "address"
						}
					],
					"stateMutability": "view",
					"type": "function"
				},
				{
					"inputs": [],
					"name": "sender",
					"outputs": [
						{
							"internalType": "address payable",
							"name": "",
							"type": "address"
						}
					],
					"stateMutability": "view",
					"type": "function"
				},
				{
					"inputs": [
						{
							"internalType": "uint256",
							"name": "_amount",
							"type": "uint256"
						},
						{
							"internalType": "bytes",
							"name": "_sig",
							"type": "bytes"
						}
					],
					"name": "verify",
					"outputs": [
						{
							"internalType": "bool",
							"name": "",
							"type": "bool"
						}
					],
					"stateMutability": "view",
					"type": "function"
				}
			],
			"devdoc": {
				"kind": "dev",
				"methods": {},
				"version": 1
			},
			"evm": {
				"assembly": "    /* \"application_contracts/Uni-Directional Payment Channel.sol\":287:2259  contract UniDirectionalPaymentChannel is ReentrancyGuard {... */\n  mstore(0x40, 0x80)\n    /* \"application_contracts/Uni-Directional Payment Channel.sol\":536:775  constructor(address payable _receiver) payable {... */\n  mload(0x40)\n  sub(codesize, bytecodeSize)\n  dup1\n  bytecodeSize\n  dup4\n  codecopy\n  dup2\n  dup2\n  add\n  0x40\n  mstore\n  dup2\n  add\n  swap1\n  tag_1\n  swap2\n  swap1\n  tag_2\n  jump\t// in\ntag_1:\n    /* \"github.com/OpenZeppelin/openzeppelin-contracts/blob/release-v4.5/contracts/security/ReentrancyGuard.sol\":1701:1702  1 */\n  0x01\n    /* \"github.com/OpenZeppelin/openzeppelin-contracts/blob/release-v4.5/contracts/security/ReentrancyGuard.sol\":1806:1813  _status */\n  0x00\n    /* \"github.com/OpenZeppelin/openzeppelin-contracts/blob/release-v4.5/contracts/security/ReentrancyGuard.sol\":1806:1828  _status = _NOT_ENTERED */\n  dup2\n  swap1\n  sstore\n  pop\n    /* \"application_contracts/Uni-Directional Payment Channel.sol\":622:623  0 */\n  0x00\n    /* \"application_contracts/Uni-Directional Payment Channel.sol\":601:624  _receiver != address(0) */\n  0xffffffffffffffffffffffffffffffffffffffff\n  and\n    /* \"application_contracts/Uni-Directional Payment Channel.sol\":601:610  _receiver */\n  dup2\n    /* \"application_contracts/Uni-Directional Payment Channel.sol\":601:624  _receiver != address(0) */\n  0xffffffffffffffffffffffffffffffffffffffff\n  and\n  sub\n    /* \"application_contracts/Uni-Directional Payment Channel.sol\":593:652  require(_receiver != address(0), \"receiver = zero address\") */\n  tag_7\n  jumpi\n  mload(0x40)\n  0x08c379a000000000000000000000000000000000000000000000000000000000\n  dup2\n  mstore\n  0x04\n  add\n  tag_8\n  swap1\n  tag_9\n  jump\t// in\ntag_8:\n  mload(0x40)\n  dup1\n  swap2\n  sub\n  swap1\n  revert\ntag_7:\n    /* \"application_contracts/Uni-Directional Payment Channel.sol\":679:689  msg.sender */\n  caller\n    /* \"application_contracts/Uni-Directional Payment Channel.sol\":662:668  sender */\n  0x01\n  0x00\n    /* \"application_contracts/Uni-Directional Payment Channel.sol\":662:690  sender = payable(msg.sender) */\n  0x0100\n  exp\n  dup2\n  sload\n  dup2\n  0xffffffffffffffffffffffffffffffffffffffff\n  mul\n  not\n  and\n  swap1\n  dup4\n  0xffffffffffffffffffffffffffffffffffffffff\n  and\n  mul\n  or\n  swap1\n  sstore\n  pop\n    /* \"application_contracts/Uni-Directional Payment Channel.sol\":711:720  _receiver */\n  dup1\n    /* \"application_contracts/Uni-Directional Payment Channel.sol\":700:708  receiver */\n  0x02\n  0x00\n    /* \"application_contracts/Uni-Directional Payment Channel.sol\":700:720  receiver = _receiver */\n  0x0100\n  exp\n  dup2\n  sload\n  dup2\n  0xffffffffffffffffffffffffffffffffffffffff\n  mul\n  not\n  and\n  swap1\n  dup4\n  0xffffffffffffffffffffffffffffffffffffffff\n  and\n  mul\n  or\n  swap1\n  sstore\n  pop\n    /* \"application_contracts/Uni-Directional Payment Channel.sol\":486:502  7 * 24 * 60 * 60 */\n  0x093a80\n    /* \"application_contracts/Uni-Directional Payment Channel.sol\":742:757  block.timestamp */\n  timestamp\n    /* \"application_contracts/Uni-Directional Payment Channel.sol\":742:768  block.timestamp + DURATION */\n  tag_10\n  swap2\n  swap1\n  tag_11\n  jump\t// in\ntag_10:\n    /* \"application_contracts/Uni-Directional Payment Channel.sol\":730:739  expiresAt */\n  0x03\n    /* \"application_contracts/Uni-Directional Payment Channel.sol\":730:768  expiresAt = block.timestamp + DURATION */\n  dup2\n  swap1\n  sstore\n  pop\n    /* \"application_contracts/Uni-Directional Payment Channel.sol\":536:775  constructor(address payable _receiver) payable {... */\n  pop\n    /* \"application_contracts/Uni-Directional Payment Channel.sol\":287:2259  contract UniDirectionalPaymentChannel is ReentrancyGuard {... */\n  jump(tag_12)\n    /* \"#utility.yul\":88:205   */\ntag_14:\n    /* \"#utility.yul\":197:198   */\n  0x00\n    /* \"#utility.yul\":194:195   */\n  0x00\n    /* \"#utility.yul\":187:199   */\n  revert\n    /* \"#utility.yul\":334:460   */\ntag_16:\n    /* \"#utility.yul\":371:378   */\n  0x00\n    /* \"#utility.yul\":411:453   */\n  0xffffffffffffffffffffffffffffffffffffffff\n    /* \"#utility.yul\":404:409   */\n  dup3\n    /* \"#utility.yul\":400:454   */\n  and\n    /* \"#utility.yul\":389:454   */\n  swap1\n  pop\n    /* \"#utility.yul\":334:460   */\n  swap2\n  swap1\n  pop\n  jump\t// out\n    /* \"#utility.yul\":466:570   */\ntag_17:\n    /* \"#utility.yul\":511:518   */\n  0x00\n    /* \"#utility.yul\":540:564   */\n  tag_31\n    /* \"#utility.yul\":558:563   */\n  dup3\n    /* \"#utility.yul\":540:564   */\n  tag_16\n  jump\t// in\ntag_31:\n    /* \"#utility.yul\":529:564   */\n  swap1\n  pop\n    /* \"#utility.yul\":466:570   */\n  swap2\n  swap1\n  pop\n  jump\t// out\n    /* \"#utility.yul\":576:714   */\ntag_18:\n    /* \"#utility.yul\":657:689   */\n  tag_33\n    /* \"#utility.yul\":683:688   */\n  dup2\n    /* \"#utility.yul\":657:689   */\n  tag_17\n  jump\t// in\ntag_33:\n    /* \"#utility.yul\":650:655   */\n  dup2\n    /* \"#utility.yul\":647:690   */\n  eq\n    /* \"#utility.yul\":637:708   */\n  tag_34\n  jumpi\n    /* \"#utility.yul\":704:705   */\n  0x00\n    /* \"#utility.yul\":701:702   */\n  0x00\n    /* \"#utility.yul\":694:706   */\n  revert\n    /* \"#utility.yul\":637:708   */\ntag_34:\n    /* \"#utility.yul\":576:714   */\n  pop\n  jump\t// out\n    /* \"#utility.yul\":720:879   */\ntag_19:\n    /* \"#utility.yul\":785:790   */\n  0x00\n    /* \"#utility.yul\":816:822   */\n  dup2\n    /* \"#utility.yul\":810:823   */\n  mload\n    /* \"#utility.yul\":801:823   */\n  swap1\n  pop\n    /* \"#utility.yul\":832:873   */\n  tag_36\n    /* \"#utility.yul\":867:872   */\n  dup2\n    /* \"#utility.yul\":832:873   */\n  tag_18\n  jump\t// in\ntag_36:\n    /* \"#utility.yul\":720:879   */\n  swap3\n  swap2\n  pop\n  pop\n  jump\t// out\n    /* \"#utility.yul\":885:1252   */\ntag_2:\n    /* \"#utility.yul\":963:969   */\n  0x00\n    /* \"#utility.yul\":1012:1014   */\n  0x20\n    /* \"#utility.yul\":1000:1009   */\n  dup3\n    /* \"#utility.yul\":991:998   */\n  dup5\n    /* \"#utility.yul\":987:1010   */\n  sub\n    /* \"#utility.yul\":983:1015   */\n  slt\n    /* \"#utility.yul\":980:1099   */\n  iszero\n  tag_38\n  jumpi\n    /* \"#utility.yul\":1018:1097   */\n  tag_39\n  tag_14\n  jump\t// in\ntag_39:\n    /* \"#utility.yul\":980:1099   */\ntag_38:\n    /* \"#utility.yul\":1138:1139   */\n  0x00\n    /* \"#utility.yul\":1163:1235   */\n  tag_40\n    /* \"#utility.yul\":1227:1234   */\n  dup5\n    /* \"#utility.yul\":1218:1224   */\n  dup3\n    /* \"#utility.yul\":1207:1216   */\n  dup6\n    /* \"#utility.yul\":1203:1225   */\n  add\n    /* \"#utility.yul\":1163:1235   */\n  tag_19\n  jump\t// in\ntag_40:\n    /* \"#utility.yul\":1153:1235   */\n  swap2\n  pop\n    /* \"#utility.yul\":1109:1245   */\n  pop\n    /* \"#utility.yul\":885:1252   */\n  swap3\n  swap2\n  pop\n  pop\n  jump\t// out\n    /* \"#utility.yul\":1258:1427   */\ntag_20:\n    /* \"#utility.yul\":1342:1353   */\n  0x00\n    /* \"#utility.yul\":1376:1382   */\n  dup3\n    /* \"#utility.yul\":1371:1374   */\n  dup3\n    /* \"#utility.yul\":1364:1383   */\n  mstore\n    /* \"#utility.yul\":1416:1420   */\n  0x20\n    /* \"#utility.yul\":1411:1414   */\n  dup3\n    /* \"#utility.yul\":1407:1421   */\n  add\n    /* \"#utility.yul\":1392:1421   */\n  swap1\n  pop\n    /* \"#utility.yul\":1258:1427   */\n  swap3\n  swap2\n  pop\n  pop\n  jump\t// out\n    /* \"#utility.yul\":1433:1606   */\ntag_21:\n    /* \"#utility.yul\":1573:1598   */\n  0x7265636569766572203d207a65726f2061646472657373000000000000000000\n    /* \"#utility.yul\":1569:1570   */\n  0x00\n    /* \"#utility.yul\":1561:1567   */\n  dup3\n    /* \"#utility.yul\":1557:1571   */\n  add\n    /* \"#utility.yul\":1550:1599   */\n  mstore\n    /* \"#utility.yul\":1433:1606   */\n  pop\n  jump\t// out\n    /* \"#utility.yul\":1612:1978   */\ntag_22:\n    /* \"#utility.yul\":1754:1757   */\n  0x00\n    /* \"#utility.yul\":1775:1842   */\n  tag_44\n    /* \"#utility.yul\":1839:1841   */\n  0x17\n    /* \"#utility.yul\":1834:1837   */\n  dup4\n    /* \"#utility.yul\":1775:1842   */\n  tag_20\n  jump\t// in\ntag_44:\n    /* \"#utility.yul\":1768:1842   */\n  swap2\n  pop\n    /* \"#utility.yul\":1851:1944   */\n  tag_45\n    /* \"#utility.yul\":1940:1943   */\n  dup3\n    /* \"#utility.yul\":1851:1944   */\n  tag_21\n  jump\t// in\ntag_45:\n    /* \"#utility.yul\":1969:1971   */\n  0x20\n    /* \"#utility.yul\":1964:1967   */\n  dup3\n    /* \"#utility.yul\":1960:1972   */\n  add\n    /* \"#utility.yul\":1953:1972   */\n  swap1\n  pop\n    /* \"#utility.yul\":1612:1978   */\n  swap2\n  swap1\n  pop\n  jump\t// out\n    /* \"#utility.yul\":1984:2403   */\ntag_9:\n    /* \"#utility.yul\":2150:2154   */\n  0x00\n    /* \"#utility.yul\":2188:2190   */\n  0x20\n    /* \"#utility.yul\":2177:2186   */\n  dup3\n    /* \"#utility.yul\":2173:2191   */\n  add\n    /* \"#utility.yul\":2165:2191   */\n  swap1\n  pop\n    /* \"#utility.yul\":2237:2246   */\n  dup2\n    /* \"#utility.yul\":2231:2235   */\n  dup2\n    /* \"#utility.yul\":2227:2247   */\n  sub\n    /* \"#utility.yul\":2223:2224   */\n  0x00\n    /* \"#utility.yul\":2212:2221   */\n  dup4\n    /* \"#utility.yul\":2208:2225   */\n  add\n    /* \"#utility.yul\":2201:2248   */\n  mstore\n    /* \"#utility.yul\":2265:2396   */\n  tag_47\n    /* \"#utility.yul\":2391:2395   */\n  dup2\n    /* \"#utility.yul\":2265:2396   */\n  tag_22\n  jump\t// in\ntag_47:\n    /* \"#utility.yul\":2257:2396   */\n  swap1\n  pop\n    /* \"#utility.yul\":1984:2403   */\n  swap2\n  swap1\n  pop\n  jump\t// out\n    /* \"#utility.yul\":2409:2486   */\ntag_23:\n    /* \"#utility.yul\":2446:2453   */\n  0x00\n    /* \"#utility.yul\":2475:2480   */\n  dup2\n    /* \"#utility.yul\":2464:2480   */\n  swap1\n  pop\n    /* \"#utility.yul\":2409:2486   */\n  swap2\n  swap1\n  pop\n  jump\t// out\n    /* \"#utility.yul\":2492:2672   */\ntag_24:\n    /* \"#utility.yul\":2540:2617   */\n  0x4e487b7100000000000000000000000000000000000000000000000000000000\n    /* \"#utility.yul\":2537:2538   */\n  0x00\n    /* \"#utility.yul\":2530:2618   */\n  mstore\n    /* \"#utility.yul\":2637:2641   */\n  0x11\n    /* \"#utility.yul\":2634:2635   */\n  0x04\n    /* \"#utility.yul\":2627:2642   */\n  mstore\n    /* \"#utility.yul\":2661:2665   */\n  0x24\n    /* \"#utility.yul\":2658:2659   */\n  0x00\n    /* \"#utility.yul\":2651:2666   */\n  revert\n    /* \"#utility.yul\":2678:2869   */\ntag_11:\n    /* \"#utility.yul\":2718:2721   */\n  0x00\n    /* \"#utility.yul\":2737:2757   */\n  tag_51\n    /* \"#utility.yul\":2755:2756   */\n  dup3\n    /* \"#utility.yul\":2737:2757   */\n  tag_23\n  jump\t// in\ntag_51:\n    /* \"#utility.yul\":2732:2757   */\n  swap2\n  pop\n    /* \"#utility.yul\":2771:2791   */\n  tag_52\n    /* \"#utility.yul\":2789:2790   */\n  dup4\n    /* \"#utility.yul\":2771:2791   */\n  tag_23\n  jump\t// in\ntag_52:\n    /* \"#utility.yul\":2766:2791   */\n  swap3\n  pop\n    /* \"#utility.yul\":2814:2815   */\n  dup3\n    /* \"#utility.yul\":2811:2812   */\n  dup3\n    /* \"#utility.yul\":2807:2816   */\n  add\n    /* \"#utility.yul\":2800:2816   */\n  swap1\n  pop\n    /* \"#utility.yul\":2835:2838   */\n  dup1\n    /* \"#utility.yul\":2832:2833   */\n  dup3\n    /* \"#utility.yul\":2829:2839   */\n  gt\n    /* \"#utility.yul\":2826:2862   */\n  iszero\n  tag_53\n  jumpi\n    /* \"#utility.yul\":2842:2860   */\n  tag_54\n  tag_24\n  jump\t// in\ntag_54:\n    /* \"#utility.yul\":2826:2862   */\ntag_53:\n    /* \"#utility.yul\":2678:2869   */\n  swap3\n  swap2\n  pop\n  pop\n  jump\t// out\n    /* \"application_contracts/Uni-Directional Payment Channel.sol\":287:2259  contract UniDirectionalPaymentChannel is ReentrancyGuard {... */\ntag_12:\n  dataSize(sub_0)\n  dup1\n  dataOffset(sub_0)\n  0x00\n  codecopy\n  0x00\n  return\nstop\n\nsub_0: assembly {\n        /* \"application_contracts/Uni-Directional Payment Channel.sol\":287:2259  contract UniDirectionalPaymentChannel is ReentrancyGuard {... */\n      mstore(0x40, 0x80)\n      callvalue\n      dup1\n      iszero\n      tag_1\n      jumpi\n      revert(0x00, 0x00)\n    tag_1:\n      pop\n      jumpi(tag_2, lt(calldatasize, 0x04))\n      shr(0xe0, calldataload(0x00))\n      dup1\n      0x85852ce4\n      gt\n      tag_11\n      jumpi\n      dup1\n      0x85852ce4\n      eq\n      tag_7\n      jumpi\n      dup1\n      0x8622a689\n      eq\n      tag_8\n      jumpi\n      dup1\n      0xea8a1af0\n      eq\n      tag_9\n      jumpi\n      dup1\n      0xf7260d3e\n      eq\n      tag_10\n      jumpi\n      jump(tag_2)\n    tag_11:\n      dup1\n      0x415ffba7\n      eq\n      tag_3\n      jumpi\n      dup1\n      0x552f50b6\n      eq\n      tag_4\n      jumpi\n      dup1\n      0x67e404ce\n      eq\n      tag_5\n      jumpi\n      dup1\n      0x6b2fafa9\n      eq\n      tag_6\n      jumpi\n    tag_2:\n      revert(0x00, 0x00)\n        /* \"application_contracts/Uni-Directional Payment Channel.sol\":1709:2078  function close(uint _amount, bytes memory _sig) external nonReentrant {... */\n    tag_3:\n      tag_12\n      0x04\n      dup1\n      calldatasize\n      sub\n      dup2\n      add\n      swap1\n      tag_13\n      swap2\n      swap1\n      tag_14\n      jump\t// in\n    tag_13:\n      tag_15\n      jump\t// in\n    tag_12:\n      stop\n        /* \"application_contracts/Uni-Directional Payment Channel.sol\":1293:1415  function getEthSignedHash(uint _amount) external view returns (bytes32) {... */\n    tag_4:\n      tag_16\n      0x04\n      dup1\n      calldatasize\n      sub\n      dup2\n      add\n      swap1\n      tag_17\n      swap2\n      swap1\n      tag_18\n      jump\t// in\n    tag_17:\n      tag_19\n      jump\t// in\n    tag_16:\n      mload(0x40)\n      tag_20\n      swap2\n      swap1\n      tag_21\n      jump\t// in\n    tag_20:\n      mload(0x40)\n      dup1\n      swap2\n      sub\n      swap1\n      return\n        /* \"application_contracts/Uni-Directional Payment Channel.sol\":380:409  address payable public sender */\n    tag_5:\n      tag_22\n      tag_23\n      jump\t// in\n    tag_22:\n      mload(0x40)\n      tag_24\n      swap2\n      swap1\n      tag_25\n      jump\t// in\n    tag_24:\n      mload(0x40)\n      dup1\n      swap2\n      sub\n      swap1\n      return\n        /* \"application_contracts/Uni-Directional Payment Channel.sol\":1039:1143  function getHash(uint _amount) external view returns (bytes32) {... */\n    tag_6:\n      tag_26\n      0x04\n      dup1\n      calldatasize\n      sub\n      dup2\n      add\n      swap1\n      tag_27\n      swap2\n      swap1\n      tag_18\n      jump\t// in\n    tag_27:\n      tag_28\n      jump\t// in\n    tag_26:\n      mload(0x40)\n      tag_29\n      swap2\n      swap1\n      tag_21\n      jump\t// in\n    tag_29:\n      mload(0x40)\n      dup1\n      swap2\n      sub\n      swap1\n      return\n        /* \"application_contracts/Uni-Directional Payment Channel.sol\":1579:1703  function verify(uint _amount, bytes memory _sig) external view returns (bool) {... */\n    tag_7:\n      tag_30\n      0x04\n      dup1\n      calldatasize\n      sub\n      dup2\n      add\n      swap1\n      tag_31\n      swap2\n      swap1\n      tag_14\n      jump\t// in\n    tag_31:\n      tag_32\n      jump\t// in\n    tag_30:\n      mload(0x40)\n      tag_33\n      swap2\n      swap1\n      tag_34\n      jump\t// in\n    tag_33:\n      mload(0x40)\n      dup1\n      swap2\n      sub\n      swap1\n      return\n        /* \"application_contracts/Uni-Directional Payment Channel.sol\":508:529  uint public expiresAt */\n    tag_8:\n      tag_35\n      tag_36\n      jump\t// in\n    tag_35:\n      mload(0x40)\n      tag_37\n      swap2\n      swap1\n      tag_38\n      jump\t// in\n    tag_37:\n      mload(0x40)\n      dup1\n      swap2\n      sub\n      swap1\n      return\n        /* \"application_contracts/Uni-Directional Payment Channel.sol\":2084:2257  function cancel() external {... */\n    tag_9:\n      tag_39\n      tag_40\n      jump\t// in\n    tag_39:\n      stop\n        /* \"application_contracts/Uni-Directional Payment Channel.sol\":415:446  address payable public receiver */\n    tag_10:\n      tag_41\n      tag_42\n      jump\t// in\n    tag_41:\n      mload(0x40)\n      tag_43\n      swap2\n      swap1\n      tag_25\n      jump\t// in\n    tag_43:\n      mload(0x40)\n      dup1\n      swap2\n      sub\n      swap1\n      return\n        /* \"application_contracts/Uni-Directional Payment Channel.sol\":1709:2078  function close(uint _amount, bytes memory _sig) external nonReentrant {... */\n    tag_15:\n        /* \"github.com/OpenZeppelin/openzeppelin-contracts/blob/release-v4.5/contracts/security/ReentrancyGuard.sol\":1744:1745  2 */\n      0x02\n        /* \"github.com/OpenZeppelin/openzeppelin-contracts/blob/release-v4.5/contracts/security/ReentrancyGuard.sol\":2325:2332  _status */\n      sload(0x00)\n        /* \"github.com/OpenZeppelin/openzeppelin-contracts/blob/release-v4.5/contracts/security/ReentrancyGuard.sol\":2325:2344  _status != _ENTERED */\n      sub\n        /* \"github.com/OpenZeppelin/openzeppelin-contracts/blob/release-v4.5/contracts/security/ReentrancyGuard.sol\":2317:2380  require(_status != _ENTERED, \"ReentrancyGuard: reentrant call\") */\n      tag_45\n      jumpi\n      mload(0x40)\n      0x08c379a000000000000000000000000000000000000000000000000000000000\n      dup2\n      mstore\n      0x04\n      add\n      tag_46\n      swap1\n      tag_47\n      jump\t// in\n    tag_46:\n      mload(0x40)\n      dup1\n      swap2\n      sub\n      swap1\n      revert\n    tag_45:\n        /* \"github.com/OpenZeppelin/openzeppelin-contracts/blob/release-v4.5/contracts/security/ReentrancyGuard.sol\":1744:1745  2 */\n      0x02\n        /* \"github.com/OpenZeppelin/openzeppelin-contracts/blob/release-v4.5/contracts/security/ReentrancyGuard.sol\":2455:2462  _status */\n      0x00\n        /* \"github.com/OpenZeppelin/openzeppelin-contracts/blob/release-v4.5/contracts/security/ReentrancyGuard.sol\":2455:2473  _status = _ENTERED */\n      dup2\n      swap1\n      sstore\n      pop\n        /* \"application_contracts/Uni-Directional Payment Channel.sol\":1811:1819  receiver */\n      0x02\n      0x00\n      swap1\n      sload\n      swap1\n      0x0100\n      exp\n      swap1\n      div\n      0xffffffffffffffffffffffffffffffffffffffff\n      and\n        /* \"application_contracts/Uni-Directional Payment Channel.sol\":1797:1819  msg.sender == receiver */\n      0xffffffffffffffffffffffffffffffffffffffff\n      and\n        /* \"application_contracts/Uni-Directional Payment Channel.sol\":1797:1807  msg.sender */\n      caller\n        /* \"application_contracts/Uni-Directional Payment Channel.sol\":1797:1819  msg.sender == receiver */\n      0xffffffffffffffffffffffffffffffffffffffff\n      and\n      eq\n        /* \"application_contracts/Uni-Directional Payment Channel.sol\":1789:1833  require(msg.sender == receiver, \"!receiver\") */\n      tag_49\n      jumpi\n      mload(0x40)\n      0x08c379a000000000000000000000000000000000000000000000000000000000\n      dup2\n      mstore\n      0x04\n      add\n      tag_50\n      swap1\n      tag_51\n      jump\t// in\n    tag_50:\n      mload(0x40)\n      dup1\n      swap2\n      sub\n      swap1\n      revert\n    tag_49:\n        /* \"application_contracts/Uni-Directional Payment Channel.sol\":1851:1873  _verify(_amount, _sig) */\n      tag_52\n        /* \"application_contracts/Uni-Directional Payment Channel.sol\":1859:1866  _amount */\n      dup3\n        /* \"application_contracts/Uni-Directional Payment Channel.sol\":1868:1872  _sig */\n      dup3\n        /* \"application_contracts/Uni-Directional Payment Channel.sol\":1851:1858  _verify */\n      tag_53\n        /* \"application_contracts/Uni-Directional Payment Channel.sol\":1851:1873  _verify(_amount, _sig) */\n      jump\t// in\n    tag_52:\n        /* \"application_contracts/Uni-Directional Payment Channel.sol\":1843:1889  require(_verify(_amount, _sig), \"invalid sig\") */\n      tag_54\n      jumpi\n      mload(0x40)\n      0x08c379a000000000000000000000000000000000000000000000000000000000\n      dup2\n      mstore\n      0x04\n      add\n      tag_55\n      swap1\n      tag_56\n      jump\t// in\n    tag_55:\n      mload(0x40)\n      dup1\n      swap2\n      sub\n      swap1\n      revert\n    tag_54:\n        /* \"application_contracts/Uni-Directional Payment Channel.sol\":1901:1910  bool sent */\n      0x00\n        /* \"application_contracts/Uni-Directional Payment Channel.sol\":1916:1924  receiver */\n      0x02\n      0x00\n      swap1\n      sload\n      swap1\n      0x0100\n      exp\n      swap1\n      div\n      0xffffffffffffffffffffffffffffffffffffffff\n      and\n        /* \"application_contracts/Uni-Directional Payment Channel.sol\":1916:1929  receiver.call */\n      0xffffffffffffffffffffffffffffffffffffffff\n      and\n        /* \"application_contracts/Uni-Directional Payment Channel.sol\":1937:1944  _amount */\n      dup4\n        /* \"application_contracts/Uni-Directional Payment Channel.sol\":1916:1949  receiver.call{value: _amount}(\"\") */\n      mload(0x40)\n      tag_57\n      swap1\n      tag_58\n      jump\t// in\n    tag_57:\n      0x00\n      mload(0x40)\n      dup1\n      dup4\n      sub\n      dup2\n      dup6\n      dup8\n      gas\n      call\n      swap3\n      pop\n      pop\n      pop\n      returndatasize\n      dup1\n      0x00\n      dup2\n      eq\n      tag_61\n      jumpi\n      mload(0x40)\n      swap2\n      pop\n      and(add(returndatasize, 0x3f), not(0x1f))\n      dup3\n      add\n      0x40\n      mstore\n      returndatasize\n      dup3\n      mstore\n      returndatasize\n      0x00\n      0x20\n      dup5\n      add\n      returndatacopy\n      jump(tag_60)\n    tag_61:\n      0x60\n      swap2\n      pop\n    tag_60:\n      pop\n        /* \"application_contracts/Uni-Directional Payment Channel.sol\":1900:1949  (bool sent, ) = receiver.call{value: _amount}(\"\") */\n      pop\n      swap1\n      pop\n        /* \"application_contracts/Uni-Directional Payment Channel.sol\":1967:1971  sent */\n      dup1\n        /* \"application_contracts/Uni-Directional Payment Channel.sol\":1959:1996  require(sent, \"Failed to send Ether\") */\n      tag_62\n      jumpi\n      mload(0x40)\n      0x08c379a000000000000000000000000000000000000000000000000000000000\n      dup2\n      mstore\n      0x04\n      add\n      tag_63\n      swap1\n      tag_64\n      jump\t// in\n    tag_63:\n      mload(0x40)\n      dup1\n      swap2\n      sub\n      swap1\n      revert\n    tag_62:\n        /* \"application_contracts/Uni-Directional Payment Channel.sol\":2064:2070  sender */\n      0x01\n      0x00\n      swap1\n      sload\n      swap1\n      0x0100\n      exp\n      swap1\n      div\n      0xffffffffffffffffffffffffffffffffffffffff\n      and\n        /* \"application_contracts/Uni-Directional Payment Channel.sol\":2051:2071  selfdestruct(sender) */\n      0xffffffffffffffffffffffffffffffffffffffff\n      and\n      selfdestruct\n        /* \"application_contracts/Uni-Directional Payment Channel.sol\":1293:1415  function getEthSignedHash(uint _amount) external view returns (bytes32) {... */\n    tag_19:\n        /* \"application_contracts/Uni-Directional Payment Channel.sol\":1356:1363  bytes32 */\n      0x00\n        /* \"application_contracts/Uni-Directional Payment Channel.sol\":1382:1408  _getEthSignedHash(_amount) */\n      tag_66\n        /* \"application_contracts/Uni-Directional Payment Channel.sol\":1400:1407  _amount */\n      dup3\n        /* \"application_contracts/Uni-Directional Payment Channel.sol\":1382:1399  _getEthSignedHash */\n      tag_67\n        /* \"application_contracts/Uni-Directional Payment Channel.sol\":1382:1408  _getEthSignedHash(_amount) */\n      jump\t// in\n    tag_66:\n        /* \"application_contracts/Uni-Directional Payment Channel.sol\":1375:1408  return _getEthSignedHash(_amount) */\n      swap1\n      pop\n        /* \"application_contracts/Uni-Directional Payment Channel.sol\":1293:1415  function getEthSignedHash(uint _amount) external view returns (bytes32) {... */\n      swap2\n      swap1\n      pop\n      jump\t// out\n        /* \"application_contracts/Uni-Directional Payment Channel.sol\":380:409  address payable public sender */\n    tag_23:\n      0x01\n      0x00\n      swap1\n      sload\n      swap1\n      0x0100\n      exp\n      swap1\n      div\n      0xffffffffffffffffffffffffffffffffffffffff\n      and\n      dup2\n      jump\t// out\n        /* \"application_contracts/Uni-Directional Payment Channel.sol\":1039:1143  function getHash(uint _amount) external view returns (bytes32) {... */\n    tag_28:\n        /* \"application_contracts/Uni-Directional Payment Channel.sol\":1093:1100  bytes32 */\n      0x00\n        /* \"application_contracts/Uni-Directional Payment Channel.sol\":1119:1136  _getHash(_amount) */\n      tag_69\n        /* \"application_contracts/Uni-Directional Payment Channel.sol\":1128:1135  _amount */\n      dup3\n        /* \"application_contracts/Uni-Directional Payment Channel.sol\":1119:1127  _getHash */\n      tag_70\n        /* \"application_contracts/Uni-Directional Payment Channel.sol\":1119:1136  _getHash(_amount) */\n      jump\t// in\n    tag_69:\n        /* \"application_contracts/Uni-Directional Payment Channel.sol\":1112:1136  return _getHash(_amount) */\n      swap1\n      pop\n        /* \"application_contracts/Uni-Directional Payment Channel.sol\":1039:1143  function getHash(uint _amount) external view returns (bytes32) {... */\n      swap2\n      swap1\n      pop\n      jump\t// out\n        /* \"application_contracts/Uni-Directional Payment Channel.sol\":1579:1703  function verify(uint _amount, bytes memory _sig) external view returns (bool) {... */\n    tag_32:\n        /* \"application_contracts/Uni-Directional Payment Channel.sol\":1651:1655  bool */\n      0x00\n        /* \"application_contracts/Uni-Directional Payment Channel.sol\":1674:1696  _verify(_amount, _sig) */\n      tag_72\n        /* \"application_contracts/Uni-Directional Payment Channel.sol\":1682:1689  _amount */\n      dup4\n        /* \"application_contracts/Uni-Directional Payment Channel.sol\":1691:1695  _sig */\n      dup4\n        /* \"application_contracts/Uni-Directional Payment Channel.sol\":1674:1681  _verify */\n      tag_53\n        /* \"application_contracts/Uni-Directional Payment Channel.sol\":1674:1696  _verify(_amount, _sig) */\n      jump\t// in\n    tag_72:\n        /* \"application_contracts/Uni-Directional Payment Channel.sol\":1667:1696  return _verify(_amount, _sig) */\n      swap1\n      pop\n        /* \"application_contracts/Uni-Directional Payment Channel.sol\":1579:1703  function verify(uint _amount, bytes memory _sig) external view returns (bool) {... */\n      swap3\n      swap2\n      pop\n      pop\n      jump\t// out\n        /* \"application_contracts/Uni-Directional Payment Channel.sol\":508:529  uint public expiresAt */\n    tag_36:\n      sload(0x03)\n      dup2\n      jump\t// out\n        /* \"application_contracts/Uni-Directional Payment Channel.sol\":2084:2257  function cancel() external {... */\n    tag_40:\n        /* \"application_contracts/Uni-Directional Payment Channel.sol\":2143:2149  sender */\n      0x01\n      0x00\n      swap1\n      sload\n      swap1\n      0x0100\n      exp\n      swap1\n      div\n      0xffffffffffffffffffffffffffffffffffffffff\n      and\n        /* \"application_contracts/Uni-Directional Payment Channel.sol\":2129:2149  msg.sender == sender */\n      0xffffffffffffffffffffffffffffffffffffffff\n      and\n        /* \"application_contracts/Uni-Directional Payment Channel.sol\":2129:2139  msg.sender */\n      caller\n        /* \"application_contracts/Uni-Directional Payment Channel.sol\":2129:2149  msg.sender == sender */\n      0xffffffffffffffffffffffffffffffffffffffff\n      and\n      eq\n        /* \"application_contracts/Uni-Directional Payment Channel.sol\":2121:2161  require(msg.sender == sender, \"!sender\") */\n      tag_74\n      jumpi\n      mload(0x40)\n      0x08c379a000000000000000000000000000000000000000000000000000000000\n      dup2\n      mstore\n      0x04\n      add\n      tag_75\n      swap1\n      tag_76\n      jump\t// in\n    tag_75:\n      mload(0x40)\n      dup1\n      swap2\n      sub\n      swap1\n      revert\n    tag_74:\n        /* \"application_contracts/Uni-Directional Payment Channel.sol\":2198:2207  expiresAt */\n      sload(0x03)\n        /* \"application_contracts/Uni-Directional Payment Channel.sol\":2179:2194  block.timestamp */\n      timestamp\n        /* \"application_contracts/Uni-Directional Payment Channel.sol\":2179:2207  block.timestamp >= expiresAt */\n      lt\n      iszero\n        /* \"application_contracts/Uni-Directional Payment Channel.sol\":2171:2220  require(block.timestamp >= expiresAt, \"!expired\") */\n      tag_77\n      jumpi\n      mload(0x40)\n      0x08c379a000000000000000000000000000000000000000000000000000000000\n      dup2\n      mstore\n      0x04\n      add\n      tag_78\n      swap1\n      tag_79\n      jump\t// in\n    tag_78:\n      mload(0x40)\n      dup1\n      swap2\n      sub\n      swap1\n      revert\n    tag_77:\n        /* \"application_contracts/Uni-Directional Payment Channel.sol\":2243:2249  sender */\n      0x01\n      0x00\n      swap1\n      sload\n      swap1\n      0x0100\n      exp\n      swap1\n      div\n      0xffffffffffffffffffffffffffffffffffffffff\n      and\n        /* \"application_contracts/Uni-Directional Payment Channel.sol\":2230:2250  selfdestruct(sender) */\n      0xffffffffffffffffffffffffffffffffffffffff\n      and\n      selfdestruct\n        /* \"application_contracts/Uni-Directional Payment Channel.sol\":415:446  address payable public receiver */\n    tag_42:\n      0x02\n      0x00\n      swap1\n      sload\n      swap1\n      0x0100\n      exp\n      swap1\n      div\n      0xffffffffffffffffffffffffffffffffffffffff\n      and\n      dup2\n      jump\t// out\n        /* \"application_contracts/Uni-Directional Payment Channel.sol\":1421:1573  function _verify(uint _amount, bytes memory _sig) private view returns (bool) {... */\n    tag_53:\n        /* \"application_contracts/Uni-Directional Payment Channel.sol\":1493:1497  bool */\n      0x00\n        /* \"application_contracts/Uni-Directional Payment Channel.sol\":1560:1566  sender */\n      0x01\n      0x00\n      swap1\n      sload\n      swap1\n      0x0100\n      exp\n      swap1\n      div\n      0xffffffffffffffffffffffffffffffffffffffff\n      and\n        /* \"application_contracts/Uni-Directional Payment Channel.sol\":1516:1566  _getEthSignedHash(_amount).recover(_sig) == sender */\n      0xffffffffffffffffffffffffffffffffffffffff\n      and\n        /* \"application_contracts/Uni-Directional Payment Channel.sol\":1516:1556  _getEthSignedHash(_amount).recover(_sig) */\n      tag_81\n        /* \"application_contracts/Uni-Directional Payment Channel.sol\":1551:1555  _sig */\n      dup4\n        /* \"application_contracts/Uni-Directional Payment Channel.sol\":1516:1542  _getEthSignedHash(_amount) */\n      tag_82\n        /* \"application_contracts/Uni-Directional Payment Channel.sol\":1534:1541  _amount */\n      dup7\n        /* \"application_contracts/Uni-Directional Payment Channel.sol\":1516:1533  _getEthSignedHash */\n      tag_67\n        /* \"application_contracts/Uni-Directional Payment Channel.sol\":1516:1542  _getEthSignedHash(_amount) */\n      jump\t// in\n    tag_82:\n        /* \"application_contracts/Uni-Directional Payment Channel.sol\":1516:1550  _getEthSignedHash(_amount).recover */\n      tag_83\n      swap1\n        /* \"application_contracts/Uni-Directional Payment Channel.sol\":1516:1556  _getEthSignedHash(_amount).recover(_sig) */\n      swap2\n      swap1\n      0xffffffff\n      and\n      jump\t// in\n    tag_81:\n        /* \"application_contracts/Uni-Directional Payment Channel.sol\":1516:1566  _getEthSignedHash(_amount).recover(_sig) == sender */\n      0xffffffffffffffffffffffffffffffffffffffff\n      and\n      eq\n        /* \"application_contracts/Uni-Directional Payment Channel.sol\":1509:1566  return _getEthSignedHash(_amount).recover(_sig) == sender */\n      swap1\n      pop\n        /* \"application_contracts/Uni-Directional Payment Channel.sol\":1421:1573  function _verify(uint _amount, bytes memory _sig) private view returns (bool) {... */\n      swap3\n      swap2\n      pop\n      pop\n      jump\t// out\n        /* \"application_contracts/Uni-Directional Payment Channel.sol\":1149:1287  function _getEthSignedHash(uint _amount) private view returns (bytes32) {... */\n    tag_67:\n        /* \"application_contracts/Uni-Directional Payment Channel.sol\":1212:1219  bytes32 */\n      0x00\n        /* \"application_contracts/Uni-Directional Payment Channel.sol\":1238:1280  _getHash(_amount).toEthSignedMessageHash() */\n      tag_85\n        /* \"application_contracts/Uni-Directional Payment Channel.sol\":1238:1255  _getHash(_amount) */\n      tag_86\n        /* \"application_contracts/Uni-Directional Payment Channel.sol\":1247:1254  _amount */\n      dup4\n        /* \"application_contracts/Uni-Directional Payment Channel.sol\":1238:1246  _getHash */\n      tag_70\n        /* \"application_contracts/Uni-Directional Payment Channel.sol\":1238:1255  _getHash(_amount) */\n      jump\t// in\n    tag_86:\n        /* \"application_contracts/Uni-Directional Payment Channel.sol\":1238:1278  _getHash(_amount).toEthSignedMessageHash */\n      tag_87\n        /* \"application_contracts/Uni-Directional Payment Channel.sol\":1238:1280  _getHash(_amount).toEthSignedMessageHash() */\n      jump\t// in\n    tag_85:\n        /* \"application_contracts/Uni-Directional Payment Channel.sol\":1231:1280  return _getHash(_amount).toEthSignedMessageHash() */\n      swap1\n      pop\n        /* \"application_contracts/Uni-Directional Payment Channel.sol\":1149:1287  function _getEthSignedHash(uint _amount) private view returns (bytes32) {... */\n      swap2\n      swap1\n      pop\n      jump\t// out\n        /* \"application_contracts/Uni-Directional Payment Channel.sol\":781:1033  function _getHash(uint _amount) private view returns (bytes32) {... */\n    tag_70:\n        /* \"application_contracts/Uni-Directional Payment Channel.sol\":835:842  bytes32 */\n      0x00\n        /* \"application_contracts/Uni-Directional Payment Channel.sol\":1010:1014  this */\n      address\n        /* \"application_contracts/Uni-Directional Payment Channel.sol\":1017:1024  _amount */\n      dup3\n        /* \"application_contracts/Uni-Directional Payment Channel.sol\":985:1025  abi.encodePacked(address(this), _amount) */\n      add(0x20, mload(0x40))\n      tag_89\n      swap3\n      swap2\n      swap1\n      tag_90\n      jump\t// in\n    tag_89:\n      mload(0x40)\n      0x20\n      dup2\n      dup4\n      sub\n      sub\n      dup2\n      mstore\n      swap1\n      0x40\n      mstore\n        /* \"application_contracts/Uni-Directional Payment Channel.sol\":975:1026  keccak256(abi.encodePacked(address(this), _amount)) */\n      dup1\n      mload\n      swap1\n      0x20\n      add\n      keccak256\n        /* \"application_contracts/Uni-Directional Payment Channel.sol\":968:1026  return keccak256(abi.encodePacked(address(this), _amount)) */\n      swap1\n      pop\n        /* \"application_contracts/Uni-Directional Payment Channel.sol\":781:1033  function _getHash(uint _amount) private view returns (bytes32) {... */\n      swap2\n      swap1\n      pop\n      jump\t// out\n        /* \"github.com/OpenZeppelin/openzeppelin-contracts/blob/release-v4.5/contracts/utils/cryptography/ECDSA.sol\":4308:4535  function recover(bytes32 hash, bytes memory signature) internal pure returns (address) {... */\n    tag_83:\n        /* \"github.com/OpenZeppelin/openzeppelin-contracts/blob/release-v4.5/contracts/utils/cryptography/ECDSA.sol\":4386:4393  address */\n      0x00\n        /* \"github.com/OpenZeppelin/openzeppelin-contracts/blob/release-v4.5/contracts/utils/cryptography/ECDSA.sol\":4406:4423  address recovered */\n      0x00\n        /* \"github.com/OpenZeppelin/openzeppelin-contracts/blob/release-v4.5/contracts/utils/cryptography/ECDSA.sol\":4425:4443  RecoverError error */\n      0x00\n        /* \"github.com/OpenZeppelin/openzeppelin-contracts/blob/release-v4.5/contracts/utils/cryptography/ECDSA.sol\":4447:4474  tryRecover(hash, signature) */\n      tag_92\n        /* \"github.com/OpenZeppelin/openzeppelin-contracts/blob/release-v4.5/contracts/utils/cryptography/ECDSA.sol\":4458:4462  hash */\n      dup6\n        /* \"github.com/OpenZeppelin/openzeppelin-contracts/blob/release-v4.5/contracts/utils/cryptography/ECDSA.sol\":4464:4473  signature */\n      dup6\n        /* \"github.com/OpenZeppelin/openzeppelin-contracts/blob/release-v4.5/contracts/utils/cryptography/ECDSA.sol\":4447:4457  tryRecover */\n      tag_93\n        /* \"github.com/OpenZeppelin/openzeppelin-contracts/blob/release-v4.5/contracts/utils/cryptography/ECDSA.sol\":4447:4474  tryRecover(hash, signature) */\n      jump\t// in\n    tag_92:\n        /* \"github.com/OpenZeppelin/openzeppelin-contracts/blob/release-v4.5/contracts/utils/cryptography/ECDSA.sol\":4405:4474  (address recovered, RecoverError error) = tryRecover(hash, signature) */\n      swap2\n      pop\n      swap2\n      pop\n        /* \"github.com/OpenZeppelin/openzeppelin-contracts/blob/release-v4.5/contracts/utils/cryptography/ECDSA.sol\":4484:4502  _throwError(error) */\n      tag_94\n        /* \"github.com/OpenZeppelin/openzeppelin-contracts/blob/release-v4.5/contracts/utils/cryptography/ECDSA.sol\":4496:4501  error */\n      dup2\n        /* \"github.com/OpenZeppelin/openzeppelin-contracts/blob/release-v4.5/contracts/utils/cryptography/ECDSA.sol\":4484:4495  _throwError */\n      tag_95\n        /* \"github.com/OpenZeppelin/openzeppelin-contracts/blob/release-v4.5/contracts/utils/cryptography/ECDSA.sol\":4484:4502  _throwError(error) */\n      jump\t// in\n    tag_94:\n        /* \"github.com/OpenZeppelin/openzeppelin-contracts/blob/release-v4.5/contracts/utils/cryptography/ECDSA.sol\":4519:4528  recovered */\n      dup2\n        /* \"github.com/OpenZeppelin/openzeppelin-contracts/blob/release-v4.5/contracts/utils/cryptography/ECDSA.sol\":4512:4528  return recovered */\n      swap3\n      pop\n      pop\n      pop\n        /* \"github.com/OpenZeppelin/openzeppelin-contracts/blob/release-v4.5/contracts/utils/cryptography/ECDSA.sol\":4308:4535  function recover(bytes32 hash, bytes memory signature) internal pure returns (address) {... */\n      swap3\n      swap2\n      pop\n      pop\n      jump\t// out\n        /* \"github.com/OpenZeppelin/openzeppelin-contracts/blob/release-v4.5/contracts/utils/cryptography/ECDSA.sol\":8012:8277  function toEthSignedMessageHash(bytes32 hash) internal pure returns (bytes32) {... */\n    tag_87:\n        /* \"github.com/OpenZeppelin/openzeppelin-contracts/blob/release-v4.5/contracts/utils/cryptography/ECDSA.sol\":8081:8088  bytes32 */\n      0x00\n        /* \"github.com/OpenZeppelin/openzeppelin-contracts/blob/release-v4.5/contracts/utils/cryptography/ECDSA.sol\":8264:8268  hash */\n      dup2\n        /* \"github.com/OpenZeppelin/openzeppelin-contracts/blob/release-v4.5/contracts/utils/cryptography/ECDSA.sol\":8211:8269  abi.encodePacked(\"\\x19Ethereum Signed Message:\\n32\", hash) */\n      add(0x20, mload(0x40))\n      tag_97\n      swap2\n      swap1\n      tag_98\n      jump\t// in\n    tag_97:\n      mload(0x40)\n      0x20\n      dup2\n      dup4\n      sub\n      sub\n      dup2\n      mstore\n      swap1\n      0x40\n      mstore\n        /* \"github.com/OpenZeppelin/openzeppelin-contracts/blob/release-v4.5/contracts/utils/cryptography/ECDSA.sol\":8201:8270  keccak256(abi.encodePacked(\"\\x19Ethereum Signed Message:\\n32\", hash)) */\n      dup1\n      mload\n      swap1\n      0x20\n      add\n      keccak256\n        /* \"github.com/OpenZeppelin/openzeppelin-contracts/blob/release-v4.5/contracts/utils/cryptography/ECDSA.sol\":8194:8270  return keccak256(abi.encodePacked(\"\\x19Ethereum Signed Message:\\n32\", hash)) */\n      swap1\n      pop\n        /* \"github.com/OpenZeppelin/openzeppelin-contracts/blob/release-v4.5/contracts/utils/cryptography/ECDSA.sol\":8012:8277  function toEthSignedMessageHash(bytes32 hash) internal pure returns (bytes32) {... */\n      swap2\n      swap1\n      pop\n      jump\t// out\n        /* \"github.com/OpenZeppelin/openzeppelin-contracts/blob/release-v4.5/contracts/utils/cryptography/ECDSA.sol\":2243:3522  function tryRecover(bytes32 hash, bytes memory signature) internal pure returns (address, RecoverError) {... */\n    tag_93:\n        /* \"github.com/OpenZeppelin/openzeppelin-contracts/blob/release-v4.5/contracts/utils/cryptography/ECDSA.sol\":2324:2331  address */\n      0x00\n        /* \"github.com/OpenZeppelin/openzeppelin-contracts/blob/release-v4.5/contracts/utils/cryptography/ECDSA.sol\":2333:2345  RecoverError */\n      0x00\n        /* \"github.com/OpenZeppelin/openzeppelin-contracts/blob/release-v4.5/contracts/utils/cryptography/ECDSA.sol\":2574:2576  65 */\n      0x41\n        /* \"github.com/OpenZeppelin/openzeppelin-contracts/blob/release-v4.5/contracts/utils/cryptography/ECDSA.sol\":2554:2563  signature */\n      dup4\n        /* \"github.com/OpenZeppelin/openzeppelin-contracts/blob/release-v4.5/contracts/utils/cryptography/ECDSA.sol\":2554:2570  signature.length */\n      mload\n        /* \"github.com/OpenZeppelin/openzeppelin-contracts/blob/release-v4.5/contracts/utils/cryptography/ECDSA.sol\":2554:2576  signature.length == 65 */\n      sub\n        /* \"github.com/OpenZeppelin/openzeppelin-contracts/blob/release-v4.5/contracts/utils/cryptography/ECDSA.sol\":2550:3516  if (signature.length == 65) {... */\n      tag_100\n      jumpi\n        /* \"github.com/OpenZeppelin/openzeppelin-contracts/blob/release-v4.5/contracts/utils/cryptography/ECDSA.sol\":2592:2601  bytes32 r */\n      0x00\n        /* \"github.com/OpenZeppelin/openzeppelin-contracts/blob/release-v4.5/contracts/utils/cryptography/ECDSA.sol\":2615:2624  bytes32 s */\n      0x00\n        /* \"github.com/OpenZeppelin/openzeppelin-contracts/blob/release-v4.5/contracts/utils/cryptography/ECDSA.sol\":2638:2645  uint8 v */\n      0x00\n        /* \"github.com/OpenZeppelin/openzeppelin-contracts/blob/release-v4.5/contracts/utils/cryptography/ECDSA.sol\":2843:2847  0x20 */\n      0x20\n        /* \"github.com/OpenZeppelin/openzeppelin-contracts/blob/release-v4.5/contracts/utils/cryptography/ECDSA.sol\":2832:2841  signature */\n      dup7\n        /* \"github.com/OpenZeppelin/openzeppelin-contracts/blob/release-v4.5/contracts/utils/cryptography/ECDSA.sol\":2828:2848  add(signature, 0x20) */\n      add\n        /* \"github.com/OpenZeppelin/openzeppelin-contracts/blob/release-v4.5/contracts/utils/cryptography/ECDSA.sol\":2822:2849  mload(add(signature, 0x20)) */\n      mload\n        /* \"github.com/OpenZeppelin/openzeppelin-contracts/blob/release-v4.5/contracts/utils/cryptography/ECDSA.sol\":2817:2849  r := mload(add(signature, 0x20)) */\n      swap3\n      pop\n        /* \"github.com/OpenZeppelin/openzeppelin-contracts/blob/release-v4.5/contracts/utils/cryptography/ECDSA.sol\":2892:2896  0x40 */\n      0x40\n        /* \"github.com/OpenZeppelin/openzeppelin-contracts/blob/release-v4.5/contracts/utils/cryptography/ECDSA.sol\":2881:2890  signature */\n      dup7\n        /* \"github.com/OpenZeppelin/openzeppelin-contracts/blob/release-v4.5/contracts/utils/cryptography/ECDSA.sol\":2877:2897  add(signature, 0x40) */\n      add\n        /* \"github.com/OpenZeppelin/openzeppelin-contracts/blob/release-v4.5/contracts/utils/cryptography/ECDSA.sol\":2871:2898  mload(add(signature, 0x40)) */\n      mload\n        /* \"github.com/OpenZeppelin/openzeppelin-contracts/blob/release-v4.5/contracts/utils/cryptography/ECDSA.sol\":2866:2898  s := mload(add(signature, 0x40)) */\n      swap2\n      pop\n        /* \"github.com/OpenZeppelin/openzeppelin-contracts/blob/release-v4.5/contracts/utils/cryptography/ECDSA.sol\":2949:2953  0x60 */\n      0x60\n        /* \"github.com/OpenZeppelin/openzeppelin-contracts/blob/release-v4.5/contracts/utils/cryptography/ECDSA.sol\":2938:2947  signature */\n      dup7\n        /* \"github.com/OpenZeppelin/openzeppelin-contracts/blob/release-v4.5/contracts/utils/cryptography/ECDSA.sol\":2934:2954  add(signature, 0x60) */\n      add\n        /* \"github.com/OpenZeppelin/openzeppelin-contracts/blob/release-v4.5/contracts/utils/cryptography/ECDSA.sol\":2928:2955  mload(add(signature, 0x60)) */\n      mload\n        /* \"github.com/OpenZeppelin/openzeppelin-contracts/blob/release-v4.5/contracts/utils/cryptography/ECDSA.sol\":2925:2926  0 */\n      0x00\n        /* \"github.com/OpenZeppelin/openzeppelin-contracts/blob/release-v4.5/contracts/utils/cryptography/ECDSA.sol\":2920:2956  byte(0, mload(add(signature, 0x60))) */\n      byte\n        /* \"github.com/OpenZeppelin/openzeppelin-contracts/blob/release-v4.5/contracts/utils/cryptography/ECDSA.sol\":2915:2956  v := byte(0, mload(add(signature, 0x60))) */\n      swap1\n      pop\n        /* \"github.com/OpenZeppelin/openzeppelin-contracts/blob/release-v4.5/contracts/utils/cryptography/ECDSA.sol\":2990:3015  tryRecover(hash, v, r, s) */\n      tag_101\n        /* \"github.com/OpenZeppelin/openzeppelin-contracts/blob/release-v4.5/contracts/utils/cryptography/ECDSA.sol\":3001:3005  hash */\n      dup8\n        /* \"github.com/OpenZeppelin/openzeppelin-contracts/blob/release-v4.5/contracts/utils/cryptography/ECDSA.sol\":3007:3008  v */\n      dup3\n        /* \"github.com/OpenZeppelin/openzeppelin-contracts/blob/release-v4.5/contracts/utils/cryptography/ECDSA.sol\":3010:3011  r */\n      dup6\n        /* \"github.com/OpenZeppelin/openzeppelin-contracts/blob/release-v4.5/contracts/utils/cryptography/ECDSA.sol\":3013:3014  s */\n      dup6\n        /* \"github.com/OpenZeppelin/openzeppelin-contracts/blob/release-v4.5/contracts/utils/cryptography/ECDSA.sol\":2990:3000  tryRecover */\n      tag_102\n        /* \"github.com/OpenZeppelin/openzeppelin-contracts/blob/release-v4.5/contracts/utils/cryptography/ECDSA.sol\":2990:3015  tryRecover(hash, v, r, s) */\n      jump\t// in\n    tag_101:\n        /* \"github.com/OpenZeppelin/openzeppelin-contracts/blob/release-v4.5/contracts/utils/cryptography/ECDSA.sol\":2983:3015  return tryRecover(hash, v, r, s) */\n      swap5\n      pop\n      swap5\n      pop\n      pop\n      pop\n      pop\n      jump(tag_99)\n        /* \"github.com/OpenZeppelin/openzeppelin-contracts/blob/release-v4.5/contracts/utils/cryptography/ECDSA.sol\":2550:3516  if (signature.length == 65) {... */\n    tag_100:\n        /* \"github.com/OpenZeppelin/openzeppelin-contracts/blob/release-v4.5/contracts/utils/cryptography/ECDSA.sol\":3056:3058  64 */\n      0x40\n        /* \"github.com/OpenZeppelin/openzeppelin-contracts/blob/release-v4.5/contracts/utils/cryptography/ECDSA.sol\":3036:3045  signature */\n      dup4\n        /* \"github.com/OpenZeppelin/openzeppelin-contracts/blob/release-v4.5/contracts/utils/cryptography/ECDSA.sol\":3036:3052  signature.length */\n      mload\n        /* \"github.com/OpenZeppelin/openzeppelin-contracts/blob/release-v4.5/contracts/utils/cryptography/ECDSA.sol\":3036:3058  signature.length == 64 */\n      sub\n        /* \"github.com/OpenZeppelin/openzeppelin-contracts/blob/release-v4.5/contracts/utils/cryptography/ECDSA.sol\":3032:3516  if (signature.length == 64) {... */\n      tag_104\n      jumpi\n        /* \"github.com/OpenZeppelin/openzeppelin-contracts/blob/release-v4.5/contracts/utils/cryptography/ECDSA.sol\":3074:3083  bytes32 r */\n      0x00\n        /* \"github.com/OpenZeppelin/openzeppelin-contracts/blob/release-v4.5/contracts/utils/cryptography/ECDSA.sol\":3097:3107  bytes32 vs */\n      0x00\n        /* \"github.com/OpenZeppelin/openzeppelin-contracts/blob/release-v4.5/contracts/utils/cryptography/ECDSA.sol\":3305:3309  0x20 */\n      0x20\n        /* \"github.com/OpenZeppelin/openzeppelin-contracts/blob/release-v4.5/contracts/utils/cryptography/ECDSA.sol\":3294:3303  signature */\n      dup6\n        /* \"github.com/OpenZeppelin/openzeppelin-contracts/blob/release-v4.5/contracts/utils/cryptography/ECDSA.sol\":3290:3310  add(signature, 0x20) */\n      add\n        /* \"github.com/OpenZeppelin/openzeppelin-contracts/blob/release-v4.5/contracts/utils/cryptography/ECDSA.sol\":3284:3311  mload(add(signature, 0x20)) */\n      mload\n        /* \"github.com/OpenZeppelin/openzeppelin-contracts/blob/release-v4.5/contracts/utils/cryptography/ECDSA.sol\":3279:3311  r := mload(add(signature, 0x20)) */\n      swap2\n      pop\n        /* \"github.com/OpenZeppelin/openzeppelin-contracts/blob/release-v4.5/contracts/utils/cryptography/ECDSA.sol\":3355:3359  0x40 */\n      0x40\n        /* \"github.com/OpenZeppelin/openzeppelin-contracts/blob/release-v4.5/contracts/utils/cryptography/ECDSA.sol\":3344:3353  signature */\n      dup6\n        /* \"github.com/OpenZeppelin/openzeppelin-contracts/blob/release-v4.5/contracts/utils/cryptography/ECDSA.sol\":3340:3360  add(signature, 0x40) */\n      add\n        /* \"github.com/OpenZeppelin/openzeppelin-contracts/blob/release-v4.5/contracts/utils/cryptography/ECDSA.sol\":3334:3361  mload(add(signature, 0x40)) */\n      mload\n        /* \"github.com/OpenZeppelin/openzeppelin-contracts/blob/release-v4.5/contracts/utils/cryptography/ECDSA.sol\":3328:3361  vs := mload(add(signature, 0x40)) */\n      swap1\n      pop\n        /* \"github.com/OpenZeppelin/openzeppelin-contracts/blob/release-v4.5/contracts/utils/cryptography/ECDSA.sol\":3395:3418  tryRecover(hash, r, vs) */\n      tag_105\n        /* \"github.com/OpenZeppelin/openzeppelin-contracts/blob/release-v4.5/contracts/utils/cryptography/ECDSA.sol\":3406:3410  hash */\n      dup7\n        /* \"github.com/OpenZeppelin/openzeppelin-contracts/blob/release-v4.5/contracts/utils/cryptography/ECDSA.sol\":3412:3413  r */\n      dup4\n        /* \"github.com/OpenZeppelin/openzeppelin-contracts/blob/release-v4.5/contracts/utils/cryptography/ECDSA.sol\":3415:3417  vs */\n      dup4\n        /* \"github.com/OpenZeppelin/openzeppelin-contracts/blob/release-v4.5/contracts/utils/cryptography/ECDSA.sol\":3395:3405  tryRecover */\n      tag_106\n        /* \"github.com/OpenZeppelin/openzeppelin-contracts/blob/release-v4.5/contracts/utils/cryptography/ECDSA.sol\":3395:3418  tryRecover(hash, r, vs) */\n      jump\t// in\n    tag_105:\n        /* \"github.com/OpenZeppelin/openzeppelin-contracts/blob/release-v4.5/contracts/utils/cryptography/ECDSA.sol\":3388:3418  return tryRecover(hash, r, vs) */\n      swap4\n      pop\n      swap4\n      pop\n      pop\n      pop\n      jump(tag_99)\n        /* \"github.com/OpenZeppelin/openzeppelin-contracts/blob/release-v4.5/contracts/utils/cryptography/ECDSA.sol\":3032:3516  if (signature.length == 64) {... */\n    tag_104:\n        /* \"github.com/OpenZeppelin/openzeppelin-contracts/blob/release-v4.5/contracts/utils/cryptography/ECDSA.sol\":3465:3466  0 */\n      0x00\n        /* \"github.com/OpenZeppelin/openzeppelin-contracts/blob/release-v4.5/contracts/utils/cryptography/ECDSA.sol\":3469:3504  RecoverError.InvalidSignatureLength */\n      0x02\n        /* \"github.com/OpenZeppelin/openzeppelin-contracts/blob/release-v4.5/contracts/utils/cryptography/ECDSA.sol\":3449:3505  return (address(0), RecoverError.InvalidSignatureLength) */\n      swap2\n      pop\n      swap2\n      pop\n        /* \"github.com/OpenZeppelin/openzeppelin-contracts/blob/release-v4.5/contracts/utils/cryptography/ECDSA.sol\":2243:3522  function tryRecover(bytes32 hash, bytes memory signature) internal pure returns (address, RecoverError) {... */\n    tag_99:\n      swap3\n      pop\n      swap3\n      swap1\n      pop\n      jump\t// out\n        /* \"github.com/OpenZeppelin/openzeppelin-contracts/blob/release-v4.5/contracts/utils/cryptography/ECDSA.sol\":548:1179  function _throwError(RecoverError error) private pure {... */\n    tag_95:\n        /* \"github.com/OpenZeppelin/openzeppelin-contracts/blob/release-v4.5/contracts/utils/cryptography/ECDSA.sol\":625:645  RecoverError.NoError */\n      0x00\n        /* \"github.com/OpenZeppelin/openzeppelin-contracts/blob/release-v4.5/contracts/utils/cryptography/ECDSA.sol\":616:645  error == RecoverError.NoError */\n      0x04\n      dup2\n      gt\n      iszero\n      tag_109\n      jumpi\n      tag_110\n      tag_111\n      jump\t// in\n    tag_110:\n    tag_109:\n        /* \"github.com/OpenZeppelin/openzeppelin-contracts/blob/release-v4.5/contracts/utils/cryptography/ECDSA.sol\":616:621  error */\n      dup2\n        /* \"github.com/OpenZeppelin/openzeppelin-contracts/blob/release-v4.5/contracts/utils/cryptography/ECDSA.sol\":616:645  error == RecoverError.NoError */\n      0x04\n      dup2\n      gt\n      iszero\n      tag_112\n      jumpi\n      tag_113\n      tag_111\n      jump\t// in\n    tag_113:\n    tag_112:\n      sub\n        /* \"github.com/OpenZeppelin/openzeppelin-contracts/blob/release-v4.5/contracts/utils/cryptography/ECDSA.sol\":612:1173  if (error == RecoverError.NoError) {... */\n      iszero\n        /* \"github.com/OpenZeppelin/openzeppelin-contracts/blob/release-v4.5/contracts/utils/cryptography/ECDSA.sol\":661:668  return; */\n      tag_108\n        /* \"github.com/OpenZeppelin/openzeppelin-contracts/blob/release-v4.5/contracts/utils/cryptography/ECDSA.sol\":612:1173  if (error == RecoverError.NoError) {... */\n      jumpi\n        /* \"github.com/OpenZeppelin/openzeppelin-contracts/blob/release-v4.5/contracts/utils/cryptography/ECDSA.sol\":721:750  RecoverError.InvalidSignature */\n      0x01\n        /* \"github.com/OpenZeppelin/openzeppelin-contracts/blob/release-v4.5/contracts/utils/cryptography/ECDSA.sol\":712:750  error == RecoverError.InvalidSignature */\n      0x04\n      dup2\n      gt\n      iszero\n      tag_116\n      jumpi\n      tag_117\n      tag_111\n      jump\t// in\n    tag_117:\n    tag_116:\n        /* \"github.com/OpenZeppelin/openzeppelin-contracts/blob/release-v4.5/contracts/utils/cryptography/ECDSA.sol\":712:717  error */\n      dup2\n        /* \"github.com/OpenZeppelin/openzeppelin-contracts/blob/release-v4.5/contracts/utils/cryptography/ECDSA.sol\":712:750  error == RecoverError.InvalidSignature */\n      0x04\n      dup2\n      gt\n      iszero\n      tag_118\n      jumpi\n      tag_119\n      tag_111\n      jump\t// in\n    tag_119:\n    tag_118:\n      sub\n        /* \"github.com/OpenZeppelin/openzeppelin-contracts/blob/release-v4.5/contracts/utils/cryptography/ECDSA.sol\":708:1173  if (error == RecoverError.InvalidSignature) {... */\n      tag_120\n      jumpi\n        /* \"github.com/OpenZeppelin/openzeppelin-contracts/blob/release-v4.5/contracts/utils/cryptography/ECDSA.sol\":766:800  revert(\"ECDSA: invalid signature\") */\n      mload(0x40)\n      0x08c379a000000000000000000000000000000000000000000000000000000000\n      dup2\n      mstore\n      0x04\n      add\n      tag_121\n      swap1\n      tag_122\n      jump\t// in\n    tag_121:\n      mload(0x40)\n      dup1\n      swap2\n      sub\n      swap1\n      revert\n        /* \"github.com/OpenZeppelin/openzeppelin-contracts/blob/release-v4.5/contracts/utils/cryptography/ECDSA.sol\":708:1173  if (error == RecoverError.InvalidSignature) {... */\n    tag_120:\n        /* \"github.com/OpenZeppelin/openzeppelin-contracts/blob/release-v4.5/contracts/utils/cryptography/ECDSA.sol\":830:865  RecoverError.InvalidSignatureLength */\n      0x02\n        /* \"github.com/OpenZeppelin/openzeppelin-contracts/blob/release-v4.5/contracts/utils/cryptography/ECDSA.sol\":821:865  error == RecoverError.InvalidSignatureLength */\n      0x04\n      dup2\n      gt\n      iszero\n      tag_124\n      jumpi\n      tag_125\n      tag_111\n      jump\t// in\n    tag_125:\n    tag_124:\n        /* \"github.com/OpenZeppelin/openzeppelin-contracts/blob/release-v4.5/contracts/utils/cryptography/ECDSA.sol\":821:826  error */\n      dup2\n        /* \"github.com/OpenZeppelin/openzeppelin-contracts/blob/release-v4.5/contracts/utils/cryptography/ECDSA.sol\":821:865  error == RecoverError.InvalidSignatureLength */\n      0x04\n      dup2\n      gt\n      iszero\n      tag_126\n      jumpi\n      tag_127\n      tag_111\n      jump\t// in\n    tag_127:\n    tag_126:\n      sub\n        /* \"github.com/OpenZeppelin/openzeppelin-contracts/blob/release-v4.5/contracts/utils/cryptography/ECDSA.sol\":817:1173  if (error == RecoverError.InvalidSignatureLength) {... */\n      tag_128\n      jumpi\n        /* \"github.com/OpenZeppelin/openzeppelin-contracts/blob/release-v4.5/contracts/utils/cryptography/ECDSA.sol\":881:922  revert(\"ECDSA: invalid signature length\") */\n      mload(0x40)\n      0x08c379a000000000000000000000000000000000000000000000000000000000\n      dup2\n      mstore\n      0x04\n      add\n      tag_129\n      swap1\n      tag_130\n      jump\t// in\n    tag_129:\n      mload(0x40)\n      dup1\n      swap2\n      sub\n      swap1\n      revert\n        /* \"github.com/OpenZeppelin/openzeppelin-contracts/blob/release-v4.5/contracts/utils/cryptography/ECDSA.sol\":817:1173  if (error == RecoverError.InvalidSignatureLength) {... */\n    tag_128:\n        /* \"github.com/OpenZeppelin/openzeppelin-contracts/blob/release-v4.5/contracts/utils/cryptography/ECDSA.sol\":952:982  RecoverError.InvalidSignatureS */\n      0x03\n        /* \"github.com/OpenZeppelin/openzeppelin-contracts/blob/release-v4.5/contracts/utils/cryptography/ECDSA.sol\":943:982  error == RecoverError.InvalidSignatureS */\n      0x04\n      dup2\n      gt\n      iszero\n      tag_132\n      jumpi\n      tag_133\n      tag_111\n      jump\t// in\n    tag_133:\n    tag_132:\n        /* \"github.com/OpenZeppelin/openzeppelin-contracts/blob/release-v4.5/contracts/utils/cryptography/ECDSA.sol\":943:948  error */\n      dup2\n        /* \"github.com/OpenZeppelin/openzeppelin-contracts/blob/release-v4.5/contracts/utils/cryptography/ECDSA.sol\":943:982  error == RecoverError.InvalidSignatureS */\n      0x04\n      dup2\n      gt\n      iszero\n      tag_134\n      jumpi\n      tag_135\n      tag_111\n      jump\t// in\n    tag_135:\n    tag_134:\n      sub\n        /* \"github.com/OpenZeppelin/openzeppelin-contracts/blob/release-v4.5/contracts/utils/cryptography/ECDSA.sol\":939:1173  if (error == RecoverError.InvalidSignatureS) {... */\n      tag_136\n      jumpi\n        /* \"github.com/OpenZeppelin/openzeppelin-contracts/blob/release-v4.5/contracts/utils/cryptography/ECDSA.sol\":998:1042  revert(\"ECDSA: invalid signature 's' value\") */\n      mload(0x40)\n      0x08c379a000000000000000000000000000000000000000000000000000000000\n      dup2\n      mstore\n      0x04\n      add\n      tag_137\n      swap1\n      tag_138\n      jump\t// in\n    tag_137:\n      mload(0x40)\n      dup1\n      swap2\n      sub\n      swap1\n      revert\n        /* \"github.com/OpenZeppelin/openzeppelin-contracts/blob/release-v4.5/contracts/utils/cryptography/ECDSA.sol\":939:1173  if (error == RecoverError.InvalidSignatureS) {... */\n    tag_136:\n        /* \"github.com/OpenZeppelin/openzeppelin-contracts/blob/release-v4.5/contracts/utils/cryptography/ECDSA.sol\":1072:1102  RecoverError.InvalidSignatureV */\n      0x04\n        /* \"github.com/OpenZeppelin/openzeppelin-contracts/blob/release-v4.5/contracts/utils/cryptography/ECDSA.sol\":1063:1102  error == RecoverError.InvalidSignatureV */\n      dup1\n      dup2\n      gt\n      iszero\n      tag_140\n      jumpi\n      tag_141\n      tag_111\n      jump\t// in\n    tag_141:\n    tag_140:\n        /* \"github.com/OpenZeppelin/openzeppelin-contracts/blob/release-v4.5/contracts/utils/cryptography/ECDSA.sol\":1063:1068  error */\n      dup2\n        /* \"github.com/OpenZeppelin/openzeppelin-contracts/blob/release-v4.5/contracts/utils/cryptography/ECDSA.sol\":1063:1102  error == RecoverError.InvalidSignatureV */\n      0x04\n      dup2\n      gt\n      iszero\n      tag_142\n      jumpi\n      tag_143\n      tag_111\n      jump\t// in\n    tag_143:\n    tag_142:\n      sub\n        /* \"github.com/OpenZeppelin/openzeppelin-contracts/blob/release-v4.5/contracts/utils/cryptography/ECDSA.sol\":1059:1173  if (error == RecoverError.InvalidSignatureV) {... */\n      tag_144\n      jumpi\n        /* \"github.com/OpenZeppelin/openzeppelin-contracts/blob/release-v4.5/contracts/utils/cryptography/ECDSA.sol\":1118:1162  revert(\"ECDSA: invalid signature 'v' value\") */\n      mload(0x40)\n      0x08c379a000000000000000000000000000000000000000000000000000000000\n      dup2\n      mstore\n      0x04\n      add\n      tag_145\n      swap1\n      tag_146\n      jump\t// in\n    tag_145:\n      mload(0x40)\n      dup1\n      swap2\n      sub\n      swap1\n      revert\n        /* \"github.com/OpenZeppelin/openzeppelin-contracts/blob/release-v4.5/contracts/utils/cryptography/ECDSA.sol\":1059:1173  if (error == RecoverError.InvalidSignatureV) {... */\n    tag_144:\n        /* \"github.com/OpenZeppelin/openzeppelin-contracts/blob/release-v4.5/contracts/utils/cryptography/ECDSA.sol\":548:1179  function _throwError(RecoverError error) private pure {... */\n    tag_108:\n      pop\n      jump\t// out\n        /* \"github.com/OpenZeppelin/openzeppelin-contracts/blob/release-v4.5/contracts/utils/cryptography/ECDSA.sol\":5716:7319  function tryRecover(... */\n    tag_102:\n        /* \"github.com/OpenZeppelin/openzeppelin-contracts/blob/release-v4.5/contracts/utils/cryptography/ECDSA.sol\":5842:5849  address */\n      0x00\n        /* \"github.com/OpenZeppelin/openzeppelin-contracts/blob/release-v4.5/contracts/utils/cryptography/ECDSA.sol\":5851:5863  RecoverError */\n      0x00\n        /* \"github.com/OpenZeppelin/openzeppelin-contracts/blob/release-v4.5/contracts/utils/cryptography/ECDSA.sol\":6766:6832  0x7FFFFFFFFFFFFFFFFFFFFFFFFFFFFFFF5D576E7357A4501DDFE92F46681B20A0 */\n      0x7fffffffffffffffffffffffffffffff5d576e7357a4501ddfe92f46681b20a0\n        /* \"github.com/OpenZeppelin/openzeppelin-contracts/blob/release-v4.5/contracts/utils/cryptography/ECDSA.sol\":6761:6762  s */\n      dup4\n        /* \"github.com/OpenZeppelin/openzeppelin-contracts/blob/release-v4.5/contracts/utils/cryptography/ECDSA.sol\":6753:6763  uint256(s) */\n      0x00\n      shr\n        /* \"github.com/OpenZeppelin/openzeppelin-contracts/blob/release-v4.5/contracts/utils/cryptography/ECDSA.sol\":6753:6832  uint256(s) > 0x7FFFFFFFFFFFFFFFFFFFFFFFFFFFFFFF5D576E7357A4501DDFE92F46681B20A0 */\n      gt\n        /* \"github.com/OpenZeppelin/openzeppelin-contracts/blob/release-v4.5/contracts/utils/cryptography/ECDSA.sol\":6749:6910  if (uint256(s) > 0x7FFFFFFFFFFFFFFFFFFFFFFFFFFFFFFF5D576E7357A4501DDFE92F46681B20A0) {... */\n      iszero\n      tag_148\n      jumpi\n        /* \"github.com/OpenZeppelin/openzeppelin-contracts/blob/release-v4.5/contracts/utils/cryptography/ECDSA.sol\":6864:6865  0 */\n      0x00\n        /* \"github.com/OpenZeppelin/openzeppelin-contracts/blob/release-v4.5/contracts/utils/cryptography/ECDSA.sol\":6868:6898  RecoverError.InvalidSignatureS */\n      0x03\n        /* \"github.com/OpenZeppelin/openzeppelin-contracts/blob/release-v4.5/contracts/utils/cryptography/ECDSA.sol\":6848:6899  return (address(0), RecoverError.InvalidSignatureS) */\n      swap2\n      pop\n      swap2\n      pop\n      jump(tag_147)\n        /* \"github.com/OpenZeppelin/openzeppelin-contracts/blob/release-v4.5/contracts/utils/cryptography/ECDSA.sol\":6749:6910  if (uint256(s) > 0x7FFFFFFFFFFFFFFFFFFFFFFFFFFFFFFF5D576E7357A4501DDFE92F46681B20A0) {... */\n    tag_148:\n        /* \"github.com/OpenZeppelin/openzeppelin-contracts/blob/release-v4.5/contracts/utils/cryptography/ECDSA.sol\":6928:6930  27 */\n      0x1b\n        /* \"github.com/OpenZeppelin/openzeppelin-contracts/blob/release-v4.5/contracts/utils/cryptography/ECDSA.sol\":6923:6924  v */\n      dup6\n        /* \"github.com/OpenZeppelin/openzeppelin-contracts/blob/release-v4.5/contracts/utils/cryptography/ECDSA.sol\":6923:6930  v != 27 */\n      0xff\n      and\n      eq\n      iszero\n        /* \"github.com/OpenZeppelin/openzeppelin-contracts/blob/release-v4.5/contracts/utils/cryptography/ECDSA.sol\":6923:6941  v != 27 && v != 28 */\n      dup1\n      iszero\n      tag_149\n      jumpi\n      pop\n        /* \"github.com/OpenZeppelin/openzeppelin-contracts/blob/release-v4.5/contracts/utils/cryptography/ECDSA.sol\":6939:6941  28 */\n      0x1c\n        /* \"github.com/OpenZeppelin/openzeppelin-contracts/blob/release-v4.5/contracts/utils/cryptography/ECDSA.sol\":6934:6935  v */\n      dup6\n        /* \"github.com/OpenZeppelin/openzeppelin-contracts/blob/release-v4.5/contracts/utils/cryptography/ECDSA.sol\":6934:6941  v != 28 */\n      0xff\n      and\n      eq\n      iszero\n        /* \"github.com/OpenZeppelin/openzeppelin-contracts/blob/release-v4.5/contracts/utils/cryptography/ECDSA.sol\":6923:6941  v != 27 && v != 28 */\n    tag_149:\n        /* \"github.com/OpenZeppelin/openzeppelin-contracts/blob/release-v4.5/contracts/utils/cryptography/ECDSA.sol\":6919:7019  if (v != 27 && v != 28) {... */\n      iszero\n      tag_150\n      jumpi\n        /* \"github.com/OpenZeppelin/openzeppelin-contracts/blob/release-v4.5/contracts/utils/cryptography/ECDSA.sol\":6973:6974  0 */\n      0x00\n        /* \"github.com/OpenZeppelin/openzeppelin-contracts/blob/release-v4.5/contracts/utils/cryptography/ECDSA.sol\":6977:7007  RecoverError.InvalidSignatureV */\n      0x04\n        /* \"github.com/OpenZeppelin/openzeppelin-contracts/blob/release-v4.5/contracts/utils/cryptography/ECDSA.sol\":6957:7008  return (address(0), RecoverError.InvalidSignatureV) */\n      swap2\n      pop\n      swap2\n      pop\n      jump(tag_147)\n        /* \"github.com/OpenZeppelin/openzeppelin-contracts/blob/release-v4.5/contracts/utils/cryptography/ECDSA.sol\":6919:7019  if (v != 27 && v != 28) {... */\n    tag_150:\n        /* \"github.com/OpenZeppelin/openzeppelin-contracts/blob/release-v4.5/contracts/utils/cryptography/ECDSA.sol\":7113:7127  address signer */\n      0x00\n        /* \"github.com/OpenZeppelin/openzeppelin-contracts/blob/release-v4.5/contracts/utils/cryptography/ECDSA.sol\":7130:7154  ecrecover(hash, v, r, s) */\n      0x01\n        /* \"github.com/OpenZeppelin/openzeppelin-contracts/blob/release-v4.5/contracts/utils/cryptography/ECDSA.sol\":7140:7144  hash */\n      dup8\n        /* \"github.com/OpenZeppelin/openzeppelin-contracts/blob/release-v4.5/contracts/utils/cryptography/ECDSA.sol\":7146:7147  v */\n      dup8\n        /* \"github.com/OpenZeppelin/openzeppelin-contracts/blob/release-v4.5/contracts/utils/cryptography/ECDSA.sol\":7149:7150  r */\n      dup8\n        /* \"github.com/OpenZeppelin/openzeppelin-contracts/blob/release-v4.5/contracts/utils/cryptography/ECDSA.sol\":7152:7153  s */\n      dup8\n        /* \"github.com/OpenZeppelin/openzeppelin-contracts/blob/release-v4.5/contracts/utils/cryptography/ECDSA.sol\":7130:7154  ecrecover(hash, v, r, s) */\n      mload(0x40)\n      0x00\n      dup2\n      mstore\n      0x20\n      add\n      0x40\n      mstore\n      mload(0x40)\n      tag_151\n      swap5\n      swap4\n      swap3\n      swap2\n      swap1\n      tag_152\n      jump\t// in\n    tag_151:\n      0x20\n      mload(0x40)\n      0x20\n      dup2\n      sub\n      swap1\n      dup1\n      dup5\n      sub\n      swap1\n      dup6\n      gas\n      staticcall\n      iszero\n      dup1\n      iszero\n      tag_154\n      jumpi\n      returndatacopy(0x00, 0x00, returndatasize)\n      revert(0x00, returndatasize)\n    tag_154:\n      pop\n      pop\n      pop\n      mload(sub(mload(0x40), 0x20))\n        /* \"github.com/OpenZeppelin/openzeppelin-contracts/blob/release-v4.5/contracts/utils/cryptography/ECDSA.sol\":7113:7154  address signer = ecrecover(hash, v, r, s) */\n      swap1\n      pop\n        /* \"github.com/OpenZeppelin/openzeppelin-contracts/blob/release-v4.5/contracts/utils/cryptography/ECDSA.sol\":7186:7187  0 */\n      0x00\n        /* \"github.com/OpenZeppelin/openzeppelin-contracts/blob/release-v4.5/contracts/utils/cryptography/ECDSA.sol\":7168:7188  signer == address(0) */\n      0xffffffffffffffffffffffffffffffffffffffff\n      and\n        /* \"github.com/OpenZeppelin/openzeppelin-contracts/blob/release-v4.5/contracts/utils/cryptography/ECDSA.sol\":7168:7174  signer */\n      dup2\n        /* \"github.com/OpenZeppelin/openzeppelin-contracts/blob/release-v4.5/contracts/utils/cryptography/ECDSA.sol\":7168:7188  signer == address(0) */\n      0xffffffffffffffffffffffffffffffffffffffff\n      and\n      sub\n        /* \"github.com/OpenZeppelin/openzeppelin-contracts/blob/release-v4.5/contracts/utils/cryptography/ECDSA.sol\":7164:7265  if (signer == address(0)) {... */\n      tag_155\n      jumpi\n        /* \"github.com/OpenZeppelin/openzeppelin-contracts/blob/release-v4.5/contracts/utils/cryptography/ECDSA.sol\":7220:7221  0 */\n      0x00\n        /* \"github.com/OpenZeppelin/openzeppelin-contracts/blob/release-v4.5/contracts/utils/cryptography/ECDSA.sol\":7224:7253  RecoverError.InvalidSignature */\n      0x01\n        /* \"github.com/OpenZeppelin/openzeppelin-contracts/blob/release-v4.5/contracts/utils/cryptography/ECDSA.sol\":7204:7254  return (address(0), RecoverError.InvalidSignature) */\n      swap3\n      pop\n      swap3\n      pop\n      pop\n      jump(tag_147)\n        /* \"github.com/OpenZeppelin/openzeppelin-contracts/blob/release-v4.5/contracts/utils/cryptography/ECDSA.sol\":7164:7265  if (signer == address(0)) {... */\n    tag_155:\n        /* \"github.com/OpenZeppelin/openzeppelin-contracts/blob/release-v4.5/contracts/utils/cryptography/ECDSA.sol\":7283:7289  signer */\n      dup1\n        /* \"github.com/OpenZeppelin/openzeppelin-contracts/blob/release-v4.5/contracts/utils/cryptography/ECDSA.sol\":7291:7311  RecoverError.NoError */\n      0x00\n        /* \"github.com/OpenZeppelin/openzeppelin-contracts/blob/release-v4.5/contracts/utils/cryptography/ECDSA.sol\":7275:7312  return (signer, RecoverError.NoError) */\n      swap3\n      pop\n      swap3\n      pop\n      pop\n        /* \"github.com/OpenZeppelin/openzeppelin-contracts/blob/release-v4.5/contracts/utils/cryptography/ECDSA.sol\":5716:7319  function tryRecover(... */\n    tag_147:\n      swap5\n      pop\n      swap5\n      swap3\n      pop\n      pop\n      pop\n      jump\t// out\n        /* \"github.com/OpenZeppelin/openzeppelin-contracts/blob/release-v4.5/contracts/utils/cryptography/ECDSA.sol\":4789:5125  function tryRecover(... */\n    tag_106:\n        /* \"github.com/OpenZeppelin/openzeppelin-contracts/blob/release-v4.5/contracts/utils/cryptography/ECDSA.sol\":4899:4906  address */\n      0x00\n        /* \"github.com/OpenZeppelin/openzeppelin-contracts/blob/release-v4.5/contracts/utils/cryptography/ECDSA.sol\":4908:4920  RecoverError */\n      0x00\n        /* \"github.com/OpenZeppelin/openzeppelin-contracts/blob/release-v4.5/contracts/utils/cryptography/ECDSA.sol\":4932:4941  bytes32 s */\n      0x00\n        /* \"github.com/OpenZeppelin/openzeppelin-contracts/blob/release-v4.5/contracts/utils/cryptography/ECDSA.sol\":4957:5023  0x7fffffffffffffffffffffffffffffffffffffffffffffffffffffffffffffff */\n      0x7fffffffffffffffffffffffffffffffffffffffffffffffffffffffffffffff\n        /* \"github.com/OpenZeppelin/openzeppelin-contracts/blob/release-v4.5/contracts/utils/cryptography/ECDSA.sol\":4949:5024  bytes32(0x7fffffffffffffffffffffffffffffffffffffffffffffffffffffffffffffff) */\n      0x00\n      shl\n        /* \"github.com/OpenZeppelin/openzeppelin-contracts/blob/release-v4.5/contracts/utils/cryptography/ECDSA.sol\":4944:4946  vs */\n      dup5\n        /* \"github.com/OpenZeppelin/openzeppelin-contracts/blob/release-v4.5/contracts/utils/cryptography/ECDSA.sol\":4944:5024  vs & bytes32(0x7fffffffffffffffffffffffffffffffffffffffffffffffffffffffffffffff) */\n      and\n        /* \"github.com/OpenZeppelin/openzeppelin-contracts/blob/release-v4.5/contracts/utils/cryptography/ECDSA.sol\":4932:5024  bytes32 s = vs & bytes32(0x7fffffffffffffffffffffffffffffffffffffffffffffffffffffffffffffff) */\n      swap1\n      pop\n        /* \"github.com/OpenZeppelin/openzeppelin-contracts/blob/release-v4.5/contracts/utils/cryptography/ECDSA.sol\":5034:5041  uint8 v */\n      0x00\n        /* \"github.com/OpenZeppelin/openzeppelin-contracts/blob/release-v4.5/contracts/utils/cryptography/ECDSA.sol\":5073:5075  27 */\n      0x1b\n        /* \"github.com/OpenZeppelin/openzeppelin-contracts/blob/release-v4.5/contracts/utils/cryptography/ECDSA.sol\":5066:5069  255 */\n      0xff\n        /* \"github.com/OpenZeppelin/openzeppelin-contracts/blob/release-v4.5/contracts/utils/cryptography/ECDSA.sol\":5059:5061  vs */\n      dup7\n        /* \"github.com/OpenZeppelin/openzeppelin-contracts/blob/release-v4.5/contracts/utils/cryptography/ECDSA.sol\":5051:5062  uint256(vs) */\n      0x00\n      shr\n        /* \"github.com/OpenZeppelin/openzeppelin-contracts/blob/release-v4.5/contracts/utils/cryptography/ECDSA.sol\":5051:5069  uint256(vs) >> 255 */\n      swap1\n      shr\n        /* \"github.com/OpenZeppelin/openzeppelin-contracts/blob/release-v4.5/contracts/utils/cryptography/ECDSA.sol\":5050:5075  (uint256(vs) >> 255) + 27 */\n      tag_157\n      swap2\n      swap1\n      tag_158\n      jump\t// in\n    tag_157:\n        /* \"github.com/OpenZeppelin/openzeppelin-contracts/blob/release-v4.5/contracts/utils/cryptography/ECDSA.sol\":5034:5076  uint8 v = uint8((uint256(vs) >> 255) + 27) */\n      swap1\n      pop\n        /* \"github.com/OpenZeppelin/openzeppelin-contracts/blob/release-v4.5/contracts/utils/cryptography/ECDSA.sol\":5093:5118  tryRecover(hash, v, r, s) */\n      tag_159\n        /* \"github.com/OpenZeppelin/openzeppelin-contracts/blob/release-v4.5/contracts/utils/cryptography/ECDSA.sol\":5104:5108  hash */\n      dup8\n        /* \"github.com/OpenZeppelin/openzeppelin-contracts/blob/release-v4.5/contracts/utils/cryptography/ECDSA.sol\":5110:5111  v */\n      dup3\n        /* \"github.com/OpenZeppelin/openzeppelin-contracts/blob/release-v4.5/contracts/utils/cryptography/ECDSA.sol\":5113:5114  r */\n      dup9\n        /* \"github.com/OpenZeppelin/openzeppelin-contracts/blob/release-v4.5/contracts/utils/cryptography/ECDSA.sol\":5116:5117  s */\n      dup6\n        /* \"github.com/OpenZeppelin/openzeppelin-contracts/blob/release-v4.5/contracts/utils/cryptography/ECDSA.sol\":5093:5103  tryRecover */\n      tag_102\n        /* \"github.com/OpenZeppelin/openzeppelin-contracts/blob/release-v4.5/contracts/utils/cryptography/ECDSA.sol\":5093:5118  tryRecover(hash, v, r, s) */\n      jump\t// in\n    tag_159:\n        /* \"github.com/OpenZeppelin/openzeppelin-contracts/blob/release-v4.5/contracts/utils/cryptography/ECDSA.sol\":5086:5118  return tryRecover(hash, v, r, s) */\n      swap4\n      pop\n      swap4\n      pop\n      pop\n      pop\n        /* \"github.com/OpenZeppelin/openzeppelin-contracts/blob/release-v4.5/contracts/utils/cryptography/ECDSA.sol\":4789:5125  function tryRecover(... */\n      swap4\n      pop\n      swap4\n      swap2\n      pop\n      pop\n      jump\t// out\n        /* \"#utility.yul\":7:82   */\n    tag_160:\n        /* \"#utility.yul\":40:46   */\n      0x00\n        /* \"#utility.yul\":73:75   */\n      0x40\n        /* \"#utility.yul\":67:76   */\n      mload\n        /* \"#utility.yul\":57:76   */\n      swap1\n      pop\n        /* \"#utility.yul\":7:82   */\n      swap1\n      jump\t// out\n        /* \"#utility.yul\":88:205   */\n    tag_161:\n        /* \"#utility.yul\":197:198   */\n      0x00\n        /* \"#utility.yul\":194:195   */\n      0x00\n        /* \"#utility.yul\":187:199   */\n      revert\n        /* \"#utility.yul\":211:328   */\n    tag_162:\n        /* \"#utility.yul\":320:321   */\n      0x00\n        /* \"#utility.yul\":317:318   */\n      0x00\n        /* \"#utility.yul\":310:322   */\n      revert\n        /* \"#utility.yul\":334:411   */\n    tag_163:\n        /* \"#utility.yul\":371:378   */\n      0x00\n        /* \"#utility.yul\":400:405   */\n      dup2\n        /* \"#utility.yul\":389:405   */\n      swap1\n      pop\n        /* \"#utility.yul\":334:411   */\n      swap2\n      swap1\n      pop\n      jump\t// out\n        /* \"#utility.yul\":417:539   */\n    tag_164:\n        /* \"#utility.yul\":490:514   */\n      tag_229\n        /* \"#utility.yul\":508:513   */\n      dup2\n        /* \"#utility.yul\":490:514   */\n      tag_163\n      jump\t// in\n    tag_229:\n        /* \"#utility.yul\":483:488   */\n      dup2\n        /* \"#utility.yul\":480:515   */\n      eq\n        /* \"#utility.yul\":470:533   */\n      tag_230\n      jumpi\n        /* \"#utility.yul\":529:530   */\n      0x00\n        /* \"#utility.yul\":526:527   */\n      0x00\n        /* \"#utility.yul\":519:531   */\n      revert\n        /* \"#utility.yul\":470:533   */\n    tag_230:\n        /* \"#utility.yul\":417:539   */\n      pop\n      jump\t// out\n        /* \"#utility.yul\":545:684   */\n    tag_165:\n        /* \"#utility.yul\":591:596   */\n      0x00\n        /* \"#utility.yul\":629:635   */\n      dup2\n        /* \"#utility.yul\":616:636   */\n      calldataload\n        /* \"#utility.yul\":607:636   */\n      swap1\n      pop\n        /* \"#utility.yul\":645:678   */\n      tag_232\n        /* \"#utility.yul\":672:677   */\n      dup2\n        /* \"#utility.yul\":645:678   */\n      tag_164\n      jump\t// in\n    tag_232:\n        /* \"#utility.yul\":545:684   */\n      swap3\n      swap2\n      pop\n      pop\n      jump\t// out\n        /* \"#utility.yul\":690:807   */\n    tag_166:\n        /* \"#utility.yul\":799:800   */\n      0x00\n        /* \"#utility.yul\":796:797   */\n      0x00\n        /* \"#utility.yul\":789:801   */\n      revert\n        /* \"#utility.yul\":813:930   */\n    tag_167:\n        /* \"#utility.yul\":922:923   */\n      0x00\n        /* \"#utility.yul\":919:920   */\n      0x00\n        /* \"#utility.yul\":912:924   */\n      revert\n        /* \"#utility.yul\":936:1038   */\n    tag_168:\n        /* \"#utility.yul\":977:983   */\n      0x00\n        /* \"#utility.yul\":1028:1030   */\n      0x1f\n        /* \"#utility.yul\":1024:1031   */\n      not\n        /* \"#utility.yul\":1019:1021   */\n      0x1f\n        /* \"#utility.yul\":1012:1017   */\n      dup4\n        /* \"#utility.yul\":1008:1022   */\n      add\n        /* \"#utility.yul\":1004:1032   */\n      and\n        /* \"#utility.yul\":994:1032   */\n      swap1\n      pop\n        /* \"#utility.yul\":936:1038   */\n      swap2\n      swap1\n      pop\n      jump\t// out\n        /* \"#utility.yul\":1044:1224   */\n    tag_169:\n        /* \"#utility.yul\":1092:1169   */\n      0x4e487b7100000000000000000000000000000000000000000000000000000000\n        /* \"#utility.yul\":1089:1090   */\n      0x00\n        /* \"#utility.yul\":1082:1170   */\n      mstore\n        /* \"#utility.yul\":1189:1193   */\n      0x41\n        /* \"#utility.yul\":1186:1187   */\n      0x04\n        /* \"#utility.yul\":1179:1194   */\n      mstore\n        /* \"#utility.yul\":1213:1217   */\n      0x24\n        /* \"#utility.yul\":1210:1211   */\n      0x00\n        /* \"#utility.yul\":1203:1218   */\n      revert\n        /* \"#utility.yul\":1230:1511   */\n    tag_170:\n        /* \"#utility.yul\":1313:1340   */\n      tag_238\n        /* \"#utility.yul\":1335:1339   */\n      dup3\n        /* \"#utility.yul\":1313:1340   */\n      tag_168\n      jump\t// in\n    tag_238:\n        /* \"#utility.yul\":1305:1311   */\n      dup2\n        /* \"#utility.yul\":1301:1341   */\n      add\n        /* \"#utility.yul\":1443:1449   */\n      dup2\n        /* \"#utility.yul\":1431:1441   */\n      dup2\n        /* \"#utility.yul\":1428:1450   */\n      lt\n        /* \"#utility.yul\":1407:1425   */\n      0xffffffffffffffff\n        /* \"#utility.yul\":1395:1405   */\n      dup3\n        /* \"#utility.yul\":1392:1426   */\n      gt\n        /* \"#utility.yul\":1389:1451   */\n      or\n        /* \"#utility.yul\":1386:1474   */\n      iszero\n      tag_239\n      jumpi\n        /* \"#utility.yul\":1454:1472   */\n      tag_240\n      tag_169\n      jump\t// in\n    tag_240:\n        /* \"#utility.yul\":1386:1474   */\n    tag_239:\n        /* \"#utility.yul\":1494:1504   */\n      dup1\n        /* \"#utility.yul\":1490:1492   */\n      0x40\n        /* \"#utility.yul\":1483:1505   */\n      mstore\n        /* \"#utility.yul\":1273:1511   */\n      pop\n        /* \"#utility.yul\":1230:1511   */\n      pop\n      pop\n      jump\t// out\n        /* \"#utility.yul\":1517:1646   */\n    tag_171:\n        /* \"#utility.yul\":1551:1557   */\n      0x00\n        /* \"#utility.yul\":1578:1598   */\n      tag_242\n      tag_160\n      jump\t// in\n    tag_242:\n        /* \"#utility.yul\":1568:1598   */\n      swap1\n      pop\n        /* \"#utility.yul\":1607:1640   */\n      tag_243\n        /* \"#utility.yul\":1635:1639   */\n      dup3\n        /* \"#utility.yul\":1627:1633   */\n      dup3\n        /* \"#utility.yul\":1607:1640   */\n      tag_170\n      jump\t// in\n    tag_243:\n        /* \"#utility.yul\":1517:1646   */\n      swap2\n      swap1\n      pop\n      jump\t// out\n        /* \"#utility.yul\":1652:1959   */\n    tag_172:\n        /* \"#utility.yul\":1713:1717   */\n      0x00\n        /* \"#utility.yul\":1803:1821   */\n      0xffffffffffffffff\n        /* \"#utility.yul\":1795:1801   */\n      dup3\n        /* \"#utility.yul\":1792:1822   */\n      gt\n        /* \"#utility.yul\":1789:1845   */\n      iszero\n      tag_245\n      jumpi\n        /* \"#utility.yul\":1825:1843   */\n      tag_246\n      tag_169\n      jump\t// in\n    tag_246:\n        /* \"#utility.yul\":1789:1845   */\n    tag_245:\n        /* \"#utility.yul\":1863:1892   */\n      tag_247\n        /* \"#utility.yul\":1885:1891   */\n      dup3\n        /* \"#utility.yul\":1863:1892   */\n      tag_168\n      jump\t// in\n    tag_247:\n        /* \"#utility.yul\":1855:1892   */\n      swap1\n      pop\n        /* \"#utility.yul\":1947:1951   */\n      0x20\n        /* \"#utility.yul\":1941:1945   */\n      dup2\n        /* \"#utility.yul\":1937:1952   */\n      add\n        /* \"#utility.yul\":1929:1952   */\n      swap1\n      pop\n        /* \"#utility.yul\":1652:1959   */\n      swap2\n      swap1\n      pop\n      jump\t// out\n        /* \"#utility.yul\":1965:2113   */\n    tag_173:\n        /* \"#utility.yul\":2063:2069   */\n      dup3\n        /* \"#utility.yul\":2058:2061   */\n      dup2\n        /* \"#utility.yul\":2053:2056   */\n      dup4\n        /* \"#utility.yul\":2040:2070   */\n      calldatacopy\n        /* \"#utility.yul\":2104:2105   */\n      0x00\n        /* \"#utility.yul\":2095:2101   */\n      dup4\n        /* \"#utility.yul\":2090:2093   */\n      dup4\n        /* \"#utility.yul\":2086:2102   */\n      add\n        /* \"#utility.yul\":2079:2106   */\n      mstore\n        /* \"#utility.yul\":1965:2113   */\n      pop\n      pop\n      pop\n      jump\t// out\n        /* \"#utility.yul\":2119:2542   */\n    tag_174:\n        /* \"#utility.yul\":2196:2201   */\n      0x00\n        /* \"#utility.yul\":2221:2286   */\n      tag_250\n        /* \"#utility.yul\":2237:2285   */\n      tag_251\n        /* \"#utility.yul\":2278:2284   */\n      dup5\n        /* \"#utility.yul\":2237:2285   */\n      tag_172\n      jump\t// in\n    tag_251:\n        /* \"#utility.yul\":2221:2286   */\n      tag_171\n      jump\t// in\n    tag_250:\n        /* \"#utility.yul\":2212:2286   */\n      swap1\n      pop\n        /* \"#utility.yul\":2309:2315   */\n      dup3\n        /* \"#utility.yul\":2302:2307   */\n      dup2\n        /* \"#utility.yul\":2295:2316   */\n      mstore\n        /* \"#utility.yul\":2347:2351   */\n      0x20\n        /* \"#utility.yul\":2340:2345   */\n      dup2\n        /* \"#utility.yul\":2336:2352   */\n      add\n        /* \"#utility.yul\":2385:2388   */\n      dup5\n        /* \"#utility.yul\":2376:2382   */\n      dup5\n        /* \"#utility.yul\":2371:2374   */\n      dup5\n        /* \"#utility.yul\":2367:2383   */\n      add\n        /* \"#utility.yul\":2364:2389   */\n      gt\n        /* \"#utility.yul\":2361:2473   */\n      iszero\n      tag_252\n      jumpi\n        /* \"#utility.yul\":2392:2471   */\n      tag_253\n      tag_167\n      jump\t// in\n    tag_253:\n        /* \"#utility.yul\":2361:2473   */\n    tag_252:\n        /* \"#utility.yul\":2482:2536   */\n      tag_254\n        /* \"#utility.yul\":2529:2535   */\n      dup5\n        /* \"#utility.yul\":2524:2527   */\n      dup3\n        /* \"#utility.yul\":2519:2522   */\n      dup6\n        /* \"#utility.yul\":2482:2536   */\n      tag_173\n      jump\t// in\n    tag_254:\n        /* \"#utility.yul\":2202:2542   */\n      pop\n        /* \"#utility.yul\":2119:2542   */\n      swap4\n      swap3\n      pop\n      pop\n      pop\n      jump\t// out\n        /* \"#utility.yul\":2561:2899   */\n    tag_175:\n        /* \"#utility.yul\":2616:2621   */\n      0x00\n        /* \"#utility.yul\":2665:2668   */\n      dup3\n        /* \"#utility.yul\":2658:2662   */\n      0x1f\n        /* \"#utility.yul\":2650:2656   */\n      dup4\n        /* \"#utility.yul\":2646:2663   */\n      add\n        /* \"#utility.yul\":2642:2669   */\n      slt\n        /* \"#utility.yul\":2632:2754   */\n      tag_256\n      jumpi\n        /* \"#utility.yul\":2673:2752   */\n      tag_257\n      tag_166\n      jump\t// in\n    tag_257:\n        /* \"#utility.yul\":2632:2754   */\n    tag_256:\n        /* \"#utility.yul\":2790:2796   */\n      dup2\n        /* \"#utility.yul\":2777:2797   */\n      calldataload\n        /* \"#utility.yul\":2815:2893   */\n      tag_258\n        /* \"#utility.yul\":2889:2892   */\n      dup5\n        /* \"#utility.yul\":2881:2887   */\n      dup3\n        /* \"#utility.yul\":2874:2878   */\n      0x20\n        /* \"#utility.yul\":2866:2872   */\n      dup7\n        /* \"#utility.yul\":2862:2879   */\n      add\n        /* \"#utility.yul\":2815:2893   */\n      tag_174\n      jump\t// in\n    tag_258:\n        /* \"#utility.yul\":2806:2893   */\n      swap2\n      pop\n        /* \"#utility.yul\":2622:2899   */\n      pop\n        /* \"#utility.yul\":2561:2899   */\n      swap3\n      swap2\n      pop\n      pop\n      jump\t// out\n        /* \"#utility.yul\":2905:3557   */\n    tag_14:\n        /* \"#utility.yul\":2982:2988   */\n      0x00\n        /* \"#utility.yul\":2990:2996   */\n      0x00\n        /* \"#utility.yul\":3039:3041   */\n      0x40\n        /* \"#utility.yul\":3027:3036   */\n      dup4\n        /* \"#utility.yul\":3018:3025   */\n      dup6\n        /* \"#utility.yul\":3014:3037   */\n      sub\n        /* \"#utility.yul\":3010:3042   */\n      slt\n        /* \"#utility.yul\":3007:3126   */\n      iszero\n      tag_260\n      jumpi\n        /* \"#utility.yul\":3045:3124   */\n      tag_261\n      tag_161\n      jump\t// in\n    tag_261:\n        /* \"#utility.yul\":3007:3126   */\n    tag_260:\n        /* \"#utility.yul\":3165:3166   */\n      0x00\n        /* \"#utility.yul\":3190:3243   */\n      tag_262\n        /* \"#utility.yul\":3235:3242   */\n      dup6\n        /* \"#utility.yul\":3226:3232   */\n      dup3\n        /* \"#utility.yul\":3215:3224   */\n      dup7\n        /* \"#utility.yul\":3211:3233   */\n      add\n        /* \"#utility.yul\":3190:3243   */\n      tag_165\n      jump\t// in\n    tag_262:\n        /* \"#utility.yul\":3180:3243   */\n      swap3\n      pop\n        /* \"#utility.yul\":3136:3253   */\n      pop\n        /* \"#utility.yul\":3320:3322   */\n      0x20\n        /* \"#utility.yul\":3309:3318   */\n      dup4\n        /* \"#utility.yul\":3305:3323   */\n      add\n        /* \"#utility.yul\":3292:3324   */\n      calldataload\n        /* \"#utility.yul\":3351:3369   */\n      0xffffffffffffffff\n        /* \"#utility.yul\":3343:3349   */\n      dup2\n        /* \"#utility.yul\":3340:3370   */\n      gt\n        /* \"#utility.yul\":3337:3454   */\n      iszero\n      tag_263\n      jumpi\n        /* \"#utility.yul\":3373:3452   */\n      tag_264\n      tag_162\n      jump\t// in\n    tag_264:\n        /* \"#utility.yul\":3337:3454   */\n    tag_263:\n        /* \"#utility.yul\":3478:3540   */\n      tag_265\n        /* \"#utility.yul\":3532:3539   */\n      dup6\n        /* \"#utility.yul\":3523:3529   */\n      dup3\n        /* \"#utility.yul\":3512:3521   */\n      dup7\n        /* \"#utility.yul\":3508:3530   */\n      add\n        /* \"#utility.yul\":3478:3540   */\n      tag_175\n      jump\t// in\n    tag_265:\n        /* \"#utility.yul\":3468:3540   */\n      swap2\n      pop\n        /* \"#utility.yul\":3263:3550   */\n      pop\n        /* \"#utility.yul\":2905:3557   */\n      swap3\n      pop\n      swap3\n      swap1\n      pop\n      jump\t// out\n        /* \"#utility.yul\":3563:3892   */\n    tag_18:\n        /* \"#utility.yul\":3622:3628   */\n      0x00\n        /* \"#utility.yul\":3671:3673   */\n      0x20\n        /* \"#utility.yul\":3659:3668   */\n      dup3\n        /* \"#utility.yul\":3650:3657   */\n      dup5\n        /* \"#utility.yul\":3646:3669   */\n      sub\n        /* \"#utility.yul\":3642:3674   */\n      slt\n        /* \"#utility.yul\":3639:3758   */\n      iszero\n      tag_267\n      jumpi\n        /* \"#utility.yul\":3677:3756   */\n      tag_268\n      tag_161\n      jump\t// in\n    tag_268:\n        /* \"#utility.yul\":3639:3758   */\n    tag_267:\n        /* \"#utility.yul\":3797:3798   */\n      0x00\n        /* \"#utility.yul\":3822:3875   */\n      tag_269\n        /* \"#utility.yul\":3867:3874   */\n      dup5\n        /* \"#utility.yul\":3858:3864   */\n      dup3\n        /* \"#utility.yul\":3847:3856   */\n      dup6\n        /* \"#utility.yul\":3843:3865   */\n      add\n        /* \"#utility.yul\":3822:3875   */\n      tag_165\n      jump\t// in\n    tag_269:\n        /* \"#utility.yul\":3812:3875   */\n      swap2\n      pop\n        /* \"#utility.yul\":3768:3885   */\n      pop\n        /* \"#utility.yul\":3563:3892   */\n      swap3\n      swap2\n      pop\n      pop\n      jump\t// out\n        /* \"#utility.yul\":3898:3975   */\n    tag_176:\n        /* \"#utility.yul\":3935:3942   */\n      0x00\n        /* \"#utility.yul\":3964:3969   */\n      dup2\n        /* \"#utility.yul\":3953:3969   */\n      swap1\n      pop\n        /* \"#utility.yul\":3898:3975   */\n      swap2\n      swap1\n      pop\n      jump\t// out\n        /* \"#utility.yul\":3981:4099   */\n    tag_177:\n        /* \"#utility.yul\":4068:4092   */\n      tag_272\n        /* \"#utility.yul\":4086:4091   */\n      dup2\n        /* \"#utility.yul\":4068:4092   */\n      tag_176\n      jump\t// in\n    tag_272:\n        /* \"#utility.yul\":4063:4066   */\n      dup3\n        /* \"#utility.yul\":4056:4093   */\n      mstore\n        /* \"#utility.yul\":3981:4099   */\n      pop\n      pop\n      jump\t// out\n        /* \"#utility.yul\":4105:4327   */\n    tag_21:\n        /* \"#utility.yul\":4198:4202   */\n      0x00\n        /* \"#utility.yul\":4236:4238   */\n      0x20\n        /* \"#utility.yul\":4225:4234   */\n      dup3\n        /* \"#utility.yul\":4221:4239   */\n      add\n        /* \"#utility.yul\":4213:4239   */\n      swap1\n      pop\n        /* \"#utility.yul\":4249:4320   */\n      tag_274\n        /* \"#utility.yul\":4317:4318   */\n      0x00\n        /* \"#utility.yul\":4306:4315   */\n      dup4\n        /* \"#utility.yul\":4302:4319   */\n      add\n        /* \"#utility.yul\":4293:4299   */\n      dup5\n        /* \"#utility.yul\":4249:4320   */\n      tag_177\n      jump\t// in\n    tag_274:\n        /* \"#utility.yul\":4105:4327   */\n      swap3\n      swap2\n      pop\n      pop\n      jump\t// out\n        /* \"#utility.yul\":4333:4459   */\n    tag_178:\n        /* \"#utility.yul\":4370:4377   */\n      0x00\n        /* \"#utility.yul\":4410:4452   */\n      0xffffffffffffffffffffffffffffffffffffffff\n        /* \"#utility.yul\":4403:4408   */\n      dup3\n        /* \"#utility.yul\":4399:4453   */\n      and\n        /* \"#utility.yul\":4388:4453   */\n      swap1\n      pop\n        /* \"#utility.yul\":4333:4459   */\n      swap2\n      swap1\n      pop\n      jump\t// out\n        /* \"#utility.yul\":4465:4569   */\n    tag_179:\n        /* \"#utility.yul\":4510:4517   */\n      0x00\n        /* \"#utility.yul\":4539:4563   */\n      tag_277\n        /* \"#utility.yul\":4557:4562   */\n      dup3\n        /* \"#utility.yul\":4539:4563   */\n      tag_178\n      jump\t// in\n    tag_277:\n        /* \"#utility.yul\":4528:4563   */\n      swap1\n      pop\n        /* \"#utility.yul\":4465:4569   */\n      swap2\n      swap1\n      pop\n      jump\t// out\n        /* \"#utility.yul\":4575:4717   */\n    tag_180:\n        /* \"#utility.yul\":4678:4710   */\n      tag_279\n        /* \"#utility.yul\":4704:4709   */\n      dup2\n        /* \"#utility.yul\":4678:4710   */\n      tag_179\n      jump\t// in\n    tag_279:\n        /* \"#utility.yul\":4673:4676   */\n      dup3\n        /* \"#utility.yul\":4666:4711   */\n      mstore\n        /* \"#utility.yul\":4575:4717   */\n      pop\n      pop\n      jump\t// out\n        /* \"#utility.yul\":4723:4977   */\n    tag_25:\n        /* \"#utility.yul\":4832:4836   */\n      0x00\n        /* \"#utility.yul\":4870:4872   */\n      0x20\n        /* \"#utility.yul\":4859:4868   */\n      dup3\n        /* \"#utility.yul\":4855:4873   */\n      add\n        /* \"#utility.yul\":4847:4873   */\n      swap1\n      pop\n        /* \"#utility.yul\":4883:4970   */\n      tag_281\n        /* \"#utility.yul\":4967:4968   */\n      0x00\n        /* \"#utility.yul\":4956:4965   */\n      dup4\n        /* \"#utility.yul\":4952:4969   */\n      add\n        /* \"#utility.yul\":4943:4949   */\n      dup5\n        /* \"#utility.yul\":4883:4970   */\n      tag_180\n      jump\t// in\n    tag_281:\n        /* \"#utility.yul\":4723:4977   */\n      swap3\n      swap2\n      pop\n      pop\n      jump\t// out\n        /* \"#utility.yul\":4983:5073   */\n    tag_181:\n        /* \"#utility.yul\":5017:5024   */\n      0x00\n        /* \"#utility.yul\":5060:5065   */\n      dup2\n        /* \"#utility.yul\":5053:5066   */\n      iszero\n        /* \"#utility.yul\":5046:5067   */\n      iszero\n        /* \"#utility.yul\":5035:5067   */\n      swap1\n      pop\n        /* \"#utility.yul\":4983:5073   */\n      swap2\n      swap1\n      pop\n      jump\t// out\n        /* \"#utility.yul\":5079:5188   */\n    tag_182:\n        /* \"#utility.yul\":5160:5181   */\n      tag_284\n        /* \"#utility.yul\":5175:5180   */\n      dup2\n        /* \"#utility.yul\":5160:5181   */\n      tag_181\n      jump\t// in\n    tag_284:\n        /* \"#utility.yul\":5155:5158   */\n      dup3\n        /* \"#utility.yul\":5148:5182   */\n      mstore\n        /* \"#utility.yul\":5079:5188   */\n      pop\n      pop\n      jump\t// out\n        /* \"#utility.yul\":5194:5404   */\n    tag_34:\n        /* \"#utility.yul\":5281:5285   */\n      0x00\n        /* \"#utility.yul\":5319:5321   */\n      0x20\n        /* \"#utility.yul\":5308:5317   */\n      dup3\n        /* \"#utility.yul\":5304:5322   */\n      add\n        /* \"#utility.yul\":5296:5322   */\n      swap1\n      pop\n        /* \"#utility.yul\":5332:5397   */\n      tag_286\n        /* \"#utility.yul\":5394:5395   */\n      0x00\n        /* \"#utility.yul\":5383:5392   */\n      dup4\n        /* \"#utility.yul\":5379:5396   */\n      add\n        /* \"#utility.yul\":5370:5376   */\n      dup5\n        /* \"#utility.yul\":5332:5397   */\n      tag_182\n      jump\t// in\n    tag_286:\n        /* \"#utility.yul\":5194:5404   */\n      swap3\n      swap2\n      pop\n      pop\n      jump\t// out\n        /* \"#utility.yul\":5410:5528   */\n    tag_183:\n        /* \"#utility.yul\":5497:5521   */\n      tag_288\n        /* \"#utility.yul\":5515:5520   */\n      dup2\n        /* \"#utility.yul\":5497:5521   */\n      tag_163\n      jump\t// in\n    tag_288:\n        /* \"#utility.yul\":5492:5495   */\n      dup3\n        /* \"#utility.yul\":5485:5522   */\n      mstore\n        /* \"#utility.yul\":5410:5528   */\n      pop\n      pop\n      jump\t// out\n        /* \"#utility.yul\":5534:5756   */\n    tag_38:\n        /* \"#utility.yul\":5627:5631   */\n      0x00\n        /* \"#utility.yul\":5665:5667   */\n      0x20\n        /* \"#utility.yul\":5654:5663   */\n      dup3\n        /* \"#utility.yul\":5650:5668   */\n      add\n        /* \"#utility.yul\":5642:5668   */\n      swap1\n      pop\n        /* \"#utility.yul\":5678:5749   */\n      tag_290\n        /* \"#utility.yul\":5746:5747   */\n      0x00\n        /* \"#utility.yul\":5735:5744   */\n      dup4\n        /* \"#utility.yul\":5731:5748   */\n      add\n        /* \"#utility.yul\":5722:5728   */\n      dup5\n        /* \"#utility.yul\":5678:5749   */\n      tag_183\n      jump\t// in\n    tag_290:\n        /* \"#utility.yul\":5534:5756   */\n      swap3\n      swap2\n      pop\n      pop\n      jump\t// out\n        /* \"#utility.yul\":5762:5931   */\n    tag_184:\n        /* \"#utility.yul\":5846:5857   */\n      0x00\n        /* \"#utility.yul\":5880:5886   */\n      dup3\n        /* \"#utility.yul\":5875:5878   */\n      dup3\n        /* \"#utility.yul\":5868:5887   */\n      mstore\n        /* \"#utility.yul\":5920:5924   */\n      0x20\n        /* \"#utility.yul\":5915:5918   */\n      dup3\n        /* \"#utility.yul\":5911:5925   */\n      add\n        /* \"#utility.yul\":5896:5925   */\n      swap1\n      pop\n        /* \"#utility.yul\":5762:5931   */\n      swap3\n      swap2\n      pop\n      pop\n      jump\t// out\n        /* \"#utility.yul\":5937:6118   */\n    tag_185:\n        /* \"#utility.yul\":6077:6110   */\n      0x5265656e7472616e637947756172643a207265656e7472616e742063616c6c00\n        /* \"#utility.yul\":6073:6074   */\n      0x00\n        /* \"#utility.yul\":6065:6071   */\n      dup3\n        /* \"#utility.yul\":6061:6075   */\n      add\n        /* \"#utility.yul\":6054:6111   */\n      mstore\n        /* \"#utility.yul\":5937:6118   */\n      pop\n      jump\t// out\n        /* \"#utility.yul\":6124:6490   */\n    tag_186:\n        /* \"#utility.yul\":6266:6269   */\n      0x00\n        /* \"#utility.yul\":6287:6354   */\n      tag_294\n        /* \"#utility.yul\":6351:6353   */\n      0x1f\n        /* \"#utility.yul\":6346:6349   */\n      dup4\n        /* \"#utility.yul\":6287:6354   */\n      tag_184\n      jump\t// in\n    tag_294:\n        /* \"#utility.yul\":6280:6354   */\n      swap2\n      pop\n        /* \"#utility.yul\":6363:6456   */\n      tag_295\n        /* \"#utility.yul\":6452:6455   */\n      dup3\n        /* \"#utility.yul\":6363:6456   */\n      tag_185\n      jump\t// in\n    tag_295:\n        /* \"#utility.yul\":6481:6483   */\n      0x20\n        /* \"#utility.yul\":6476:6479   */\n      dup3\n        /* \"#utility.yul\":6472:6484   */\n      add\n        /* \"#utility.yul\":6465:6484   */\n      swap1\n      pop\n        /* \"#utility.yul\":6124:6490   */\n      swap2\n      swap1\n      pop\n      jump\t// out\n        /* \"#utility.yul\":6496:6915   */\n    tag_47:\n        /* \"#utility.yul\":6662:6666   */\n      0x00\n        /* \"#utility.yul\":6700:6702   */\n      0x20\n        /* \"#utility.yul\":6689:6698   */\n      dup3\n        /* \"#utility.yul\":6685:6703   */\n      add\n        /* \"#utility.yul\":6677:6703   */\n      swap1\n      pop\n        /* \"#utility.yul\":6749:6758   */\n      dup2\n        /* \"#utility.yul\":6743:6747   */\n      dup2\n        /* \"#utility.yul\":6739:6759   */\n      sub\n        /* \"#utility.yul\":6735:6736   */\n      0x00\n        /* \"#utility.yul\":6724:6733   */\n      dup4\n        /* \"#utility.yul\":6720:6737   */\n      add\n        /* \"#utility.yul\":6713:6760   */\n      mstore\n        /* \"#utility.yul\":6777:6908   */\n      tag_297\n        /* \"#utility.yul\":6903:6907   */\n      dup2\n        /* \"#utility.yul\":6777:6908   */\n      tag_186\n      jump\t// in\n    tag_297:\n        /* \"#utility.yul\":6769:6908   */\n      swap1\n      pop\n        /* \"#utility.yul\":6496:6915   */\n      swap2\n      swap1\n      pop\n      jump\t// out\n        /* \"#utility.yul\":6921:7080   */\n    tag_187:\n        /* \"#utility.yul\":7061:7072   */\n      0x2172656365697665720000000000000000000000000000000000000000000000\n        /* \"#utility.yul\":7057:7058   */\n      0x00\n        /* \"#utility.yul\":7049:7055   */\n      dup3\n        /* \"#utility.yul\":7045:7059   */\n      add\n        /* \"#utility.yul\":7038:7073   */\n      mstore\n        /* \"#utility.yul\":6921:7080   */\n      pop\n      jump\t// out\n        /* \"#utility.yul\":7086:7451   */\n    tag_188:\n        /* \"#utility.yul\":7228:7231   */\n      0x00\n        /* \"#utility.yul\":7249:7315   */\n      tag_300\n        /* \"#utility.yul\":7313:7314   */\n      0x09\n        /* \"#utility.yul\":7308:7311   */\n      dup4\n        /* \"#utility.yul\":7249:7315   */\n      tag_184\n      jump\t// in\n    tag_300:\n        /* \"#utility.yul\":7242:7315   */\n      swap2\n      pop\n        /* \"#utility.yul\":7324:7417   */\n      tag_301\n        /* \"#utility.yul\":7413:7416   */\n      dup3\n        /* \"#utility.yul\":7324:7417   */\n      tag_187\n      jump\t// in\n    tag_301:\n        /* \"#utility.yul\":7442:7444   */\n      0x20\n        /* \"#utility.yul\":7437:7440   */\n      dup3\n        /* \"#utility.yul\":7433:7445   */\n      add\n        /* \"#utility.yul\":7426:7445   */\n      swap1\n      pop\n        /* \"#utility.yul\":7086:7451   */\n      swap2\n      swap1\n      pop\n      jump\t// out\n        /* \"#utility.yul\":7457:7876   */\n    tag_51:\n        /* \"#utility.yul\":7623:7627   */\n      0x00\n        /* \"#utility.yul\":7661:7663   */\n      0x20\n        /* \"#utility.yul\":7650:7659   */\n      dup3\n        /* \"#utility.yul\":7646:7664   */\n      add\n        /* \"#utility.yul\":7638:7664   */\n      swap1\n      pop\n        /* \"#utility.yul\":7710:7719   */\n      dup2\n        /* \"#utility.yul\":7704:7708   */\n      dup2\n        /* \"#utility.yul\":7700:7720   */\n      sub\n        /* \"#utility.yul\":7696:7697   */\n      0x00\n        /* \"#utility.yul\":7685:7694   */\n      dup4\n        /* \"#utility.yul\":7681:7698   */\n      add\n        /* \"#utility.yul\":7674:7721   */\n      mstore\n        /* \"#utility.yul\":7738:7869   */\n      tag_303\n        /* \"#utility.yul\":7864:7868   */\n      dup2\n        /* \"#utility.yul\":7738:7869   */\n      tag_188\n      jump\t// in\n    tag_303:\n        /* \"#utility.yul\":7730:7869   */\n      swap1\n      pop\n        /* \"#utility.yul\":7457:7876   */\n      swap2\n      swap1\n      pop\n      jump\t// out\n        /* \"#utility.yul\":7882:8043   */\n    tag_189:\n        /* \"#utility.yul\":8022:8035   */\n      0x696e76616c696420736967000000000000000000000000000000000000000000\n        /* \"#utility.yul\":8018:8019   */\n      0x00\n        /* \"#utility.yul\":8010:8016   */\n      dup3\n        /* \"#utility.yul\":8006:8020   */\n      add\n        /* \"#utility.yul\":7999:8036   */\n      mstore\n        /* \"#utility.yul\":7882:8043   */\n      pop\n      jump\t// out\n        /* \"#utility.yul\":8049:8415   */\n    tag_190:\n        /* \"#utility.yul\":8191:8194   */\n      0x00\n        /* \"#utility.yul\":8212:8279   */\n      tag_306\n        /* \"#utility.yul\":8276:8278   */\n      0x0b\n        /* \"#utility.yul\":8271:8274   */\n      dup4\n        /* \"#utility.yul\":8212:8279   */\n      tag_184\n      jump\t// in\n    tag_306:\n        /* \"#utility.yul\":8205:8279   */\n      swap2\n      pop\n        /* \"#utility.yul\":8288:8381   */\n      tag_307\n        /* \"#utility.yul\":8377:8380   */\n      dup3\n        /* \"#utility.yul\":8288:8381   */\n      tag_189\n      jump\t// in\n    tag_307:\n        /* \"#utility.yul\":8406:8408   */\n      0x20\n        /* \"#utility.yul\":8401:8404   */\n      dup3\n        /* \"#utility.yul\":8397:8409   */\n      add\n        /* \"#utility.yul\":8390:8409   */\n      swap1\n      pop\n        /* \"#utility.yul\":8049:8415   */\n      swap2\n      swap1\n      pop\n      jump\t// out\n        /* \"#utility.yul\":8421:8840   */\n    tag_56:\n        /* \"#utility.yul\":8587:8591   */\n      0x00\n        /* \"#utility.yul\":8625:8627   */\n      0x20\n        /* \"#utility.yul\":8614:8623   */\n      dup3\n        /* \"#utility.yul\":8610:8628   */\n      add\n        /* \"#utility.yul\":8602:8628   */\n      swap1\n      pop\n        /* \"#utility.yul\":8674:8683   */\n      dup2\n        /* \"#utility.yul\":8668:8672   */\n      dup2\n        /* \"#utility.yul\":8664:8684   */\n      sub\n        /* \"#utility.yul\":8660:8661   */\n      0x00\n        /* \"#utility.yul\":8649:8658   */\n      dup4\n        /* \"#utility.yul\":8645:8662   */\n      add\n        /* \"#utility.yul\":8638:8685   */\n      mstore\n        /* \"#utility.yul\":8702:8833   */\n      tag_309\n        /* \"#utility.yul\":8828:8832   */\n      dup2\n        /* \"#utility.yul\":8702:8833   */\n      tag_190\n      jump\t// in\n    tag_309:\n        /* \"#utility.yul\":8694:8833   */\n      swap1\n      pop\n        /* \"#utility.yul\":8421:8840   */\n      swap2\n      swap1\n      pop\n      jump\t// out\n        /* \"#utility.yul\":8846:8993   */\n    tag_191:\n        /* \"#utility.yul\":8947:8958   */\n      0x00\n        /* \"#utility.yul\":8984:8987   */\n      dup2\n        /* \"#utility.yul\":8969:8987   */\n      swap1\n      pop\n        /* \"#utility.yul\":8846:8993   */\n      swap3\n      swap2\n      pop\n      pop\n      jump\t// out\n        /* \"#utility.yul\":8999:9113   */\n    tag_192:\n      pop\n      jump\t// out\n        /* \"#utility.yul\":9119:9517   */\n    tag_193:\n        /* \"#utility.yul\":9278:9281   */\n      0x00\n        /* \"#utility.yul\":9299:9382   */\n      tag_313\n        /* \"#utility.yul\":9380:9381   */\n      0x00\n        /* \"#utility.yul\":9375:9378   */\n      dup4\n        /* \"#utility.yul\":9299:9382   */\n      tag_191\n      jump\t// in\n    tag_313:\n        /* \"#utility.yul\":9292:9382   */\n      swap2\n      pop\n        /* \"#utility.yul\":9391:9484   */\n      tag_314\n        /* \"#utility.yul\":9480:9483   */\n      dup3\n        /* \"#utility.yul\":9391:9484   */\n      tag_192\n      jump\t// in\n    tag_314:\n        /* \"#utility.yul\":9509:9510   */\n      0x00\n        /* \"#utility.yul\":9504:9507   */\n      dup3\n        /* \"#utility.yul\":9500:9511   */\n      add\n        /* \"#utility.yul\":9493:9511   */\n      swap1\n      pop\n        /* \"#utility.yul\":9119:9517   */\n      swap2\n      swap1\n      pop\n      jump\t// out\n        /* \"#utility.yul\":9523:9902   */\n    tag_58:\n        /* \"#utility.yul\":9707:9710   */\n      0x00\n        /* \"#utility.yul\":9729:9876   */\n      tag_316\n        /* \"#utility.yul\":9872:9875   */\n      dup3\n        /* \"#utility.yul\":9729:9876   */\n      tag_193\n      jump\t// in\n    tag_316:\n        /* \"#utility.yul\":9722:9876   */\n      swap2\n      pop\n        /* \"#utility.yul\":9893:9896   */\n      dup2\n        /* \"#utility.yul\":9886:9896   */\n      swap1\n      pop\n        /* \"#utility.yul\":9523:9902   */\n      swap2\n      swap1\n      pop\n      jump\t// out\n        /* \"#utility.yul\":9908:10078   */\n    tag_194:\n        /* \"#utility.yul\":10048:10070   */\n      0x4661696c656420746f2073656e64204574686572000000000000000000000000\n        /* \"#utility.yul\":10044:10045   */\n      0x00\n        /* \"#utility.yul\":10036:10042   */\n      dup3\n        /* \"#utility.yul\":10032:10046   */\n      add\n        /* \"#utility.yul\":10025:10071   */\n      mstore\n        /* \"#utility.yul\":9908:10078   */\n      pop\n      jump\t// out\n        /* \"#utility.yul\":10084:10450   */\n    tag_195:\n        /* \"#utility.yul\":10226:10229   */\n      0x00\n        /* \"#utility.yul\":10247:10314   */\n      tag_319\n        /* \"#utility.yul\":10311:10313   */\n      0x14\n        /* \"#utility.yul\":10306:10309   */\n      dup4\n        /* \"#utility.yul\":10247:10314   */\n      tag_184\n      jump\t// in\n    tag_319:\n        /* \"#utility.yul\":10240:10314   */\n      swap2\n      pop\n        /* \"#utility.yul\":10323:10416   */\n      tag_320\n        /* \"#utility.yul\":10412:10415   */\n      dup3\n        /* \"#utility.yul\":10323:10416   */\n      tag_194\n      jump\t// in\n    tag_320:\n        /* \"#utility.yul\":10441:10443   */\n      0x20\n        /* \"#utility.yul\":10436:10439   */\n      dup3\n        /* \"#utility.yul\":10432:10444   */\n      add\n        /* \"#utility.yul\":10425:10444   */\n      swap1\n      pop\n        /* \"#utility.yul\":10084:10450   */\n      swap2\n      swap1\n      pop\n      jump\t// out\n        /* \"#utility.yul\":10456:10875   */\n    tag_64:\n        /* \"#utility.yul\":10622:10626   */\n      0x00\n        /* \"#utility.yul\":10660:10662   */\n      0x20\n        /* \"#utility.yul\":10649:10658   */\n      dup3\n        /* \"#utility.yul\":10645:10663   */\n      add\n        /* \"#utility.yul\":10637:10663   */\n      swap1\n      pop\n        /* \"#utility.yul\":10709:10718   */\n      dup2\n        /* \"#utility.yul\":10703:10707   */\n      dup2\n        /* \"#utility.yul\":10699:10719   */\n      sub\n        /* \"#utility.yul\":10695:10696   */\n      0x00\n        /* \"#utility.yul\":10684:10693   */\n      dup4\n        /* \"#utility.yul\":10680:10697   */\n      add\n        /* \"#utility.yul\":10673:10720   */\n      mstore\n        /* \"#utility.yul\":10737:10868   */\n      tag_322\n        /* \"#utility.yul\":10863:10867   */\n      dup2\n        /* \"#utility.yul\":10737:10868   */\n      tag_195\n      jump\t// in\n    tag_322:\n        /* \"#utility.yul\":10729:10868   */\n      swap1\n      pop\n        /* \"#utility.yul\":10456:10875   */\n      swap2\n      swap1\n      pop\n      jump\t// out\n        /* \"#utility.yul\":10881:11038   */\n    tag_196:\n        /* \"#utility.yul\":11021:11030   */\n      0x2173656e64657200000000000000000000000000000000000000000000000000\n        /* \"#utility.yul\":11017:11018   */\n      0x00\n        /* \"#utility.yul\":11009:11015   */\n      dup3\n        /* \"#utility.yul\":11005:11019   */\n      add\n        /* \"#utility.yul\":10998:11031   */\n      mstore\n        /* \"#utility.yul\":10881:11038   */\n      pop\n      jump\t// out\n        /* \"#utility.yul\":11044:11409   */\n    tag_197:\n        /* \"#utility.yul\":11186:11189   */\n      0x00\n        /* \"#utility.yul\":11207:11273   */\n      tag_325\n        /* \"#utility.yul\":11271:11272   */\n      0x07\n        /* \"#utility.yul\":11266:11269   */\n      dup4\n        /* \"#utility.yul\":11207:11273   */\n      tag_184\n      jump\t// in\n    tag_325:\n        /* \"#utility.yul\":11200:11273   */\n      swap2\n      pop\n        /* \"#utility.yul\":11282:11375   */\n      tag_326\n        /* \"#utility.yul\":11371:11374   */\n      dup3\n        /* \"#utility.yul\":11282:11375   */\n      tag_196\n      jump\t// in\n    tag_326:\n        /* \"#utility.yul\":11400:11402   */\n      0x20\n        /* \"#utility.yul\":11395:11398   */\n      dup3\n        /* \"#utility.yul\":11391:11403   */\n      add\n        /* \"#utility.yul\":11384:11403   */\n      swap1\n      pop\n        /* \"#utility.yul\":11044:11409   */\n      swap2\n      swap1\n      pop\n      jump\t// out\n        /* \"#utility.yul\":11415:11834   */\n    tag_76:\n        /* \"#utility.yul\":11581:11585   */\n      0x00\n        /* \"#utility.yul\":11619:11621   */\n      0x20\n        /* \"#utility.yul\":11608:11617   */\n      dup3\n        /* \"#utility.yul\":11604:11622   */\n      add\n        /* \"#utility.yul\":11596:11622   */\n      swap1\n      pop\n        /* \"#utility.yul\":11668:11677   */\n      dup2\n        /* \"#utility.yul\":11662:11666   */\n      dup2\n        /* \"#utility.yul\":11658:11678   */\n      sub\n        /* \"#utility.yul\":11654:11655   */\n      0x00\n        /* \"#utility.yul\":11643:11652   */\n      dup4\n        /* \"#utility.yul\":11639:11656   */\n      add\n        /* \"#utility.yul\":11632:11679   */\n      mstore\n        /* \"#utility.yul\":11696:11827   */\n      tag_328\n        /* \"#utility.yul\":11822:11826   */\n      dup2\n        /* \"#utility.yul\":11696:11827   */\n      tag_197\n      jump\t// in\n    tag_328:\n        /* \"#utility.yul\":11688:11827   */\n      swap1\n      pop\n        /* \"#utility.yul\":11415:11834   */\n      swap2\n      swap1\n      pop\n      jump\t// out\n        /* \"#utility.yul\":11840:11998   */\n    tag_198:\n        /* \"#utility.yul\":11980:11990   */\n      0x2165787069726564000000000000000000000000000000000000000000000000\n        /* \"#utility.yul\":11976:11977   */\n      0x00\n        /* \"#utility.yul\":11968:11974   */\n      dup3\n        /* \"#utility.yul\":11964:11978   */\n      add\n        /* \"#utility.yul\":11957:11991   */\n      mstore\n        /* \"#utility.yul\":11840:11998   */\n      pop\n      jump\t// out\n        /* \"#utility.yul\":12004:12369   */\n    tag_199:\n        /* \"#utility.yul\":12146:12149   */\n      0x00\n        /* \"#utility.yul\":12167:12233   */\n      tag_331\n        /* \"#utility.yul\":12231:12232   */\n      0x08\n        /* \"#utility.yul\":12226:12229   */\n      dup4\n        /* \"#utility.yul\":12167:12233   */\n      tag_184\n      jump\t// in\n    tag_331:\n        /* \"#utility.yul\":12160:12233   */\n      swap2\n      pop\n        /* \"#utility.yul\":12242:12335   */\n      tag_332\n        /* \"#utility.yul\":12331:12334   */\n      dup3\n        /* \"#utility.yul\":12242:12335   */\n      tag_198\n      jump\t// in\n    tag_332:\n        /* \"#utility.yul\":12360:12362   */\n      0x20\n        /* \"#utility.yul\":12355:12358   */\n      dup3\n        /* \"#utility.yul\":12351:12363   */\n      add\n        /* \"#utility.yul\":12344:12363   */\n      swap1\n      pop\n        /* \"#utility.yul\":12004:12369   */\n      swap2\n      swap1\n      pop\n      jump\t// out\n        /* \"#utility.yul\":12375:12794   */\n    tag_79:\n        /* \"#utility.yul\":12541:12545   */\n      0x00\n        /* \"#utility.yul\":12579:12581   */\n      0x20\n        /* \"#utility.yul\":12568:12577   */\n      dup3\n        /* \"#utility.yul\":12564:12582   */\n      add\n        /* \"#utility.yul\":12556:12582   */\n      swap1\n      pop\n        /* \"#utility.yul\":12628:12637   */\n      dup2\n        /* \"#utility.yul\":12622:12626   */\n      dup2\n        /* \"#utility.yul\":12618:12638   */\n      sub\n        /* \"#utility.yul\":12614:12615   */\n      0x00\n        /* \"#utility.yul\":12603:12612   */\n      dup4\n        /* \"#utility.yul\":12599:12616   */\n      add\n        /* \"#utility.yul\":12592:12639   */\n      mstore\n        /* \"#utility.yul\":12656:12787   */\n      tag_334\n        /* \"#utility.yul\":12782:12786   */\n      dup2\n        /* \"#utility.yul\":12656:12787   */\n      tag_199\n      jump\t// in\n    tag_334:\n        /* \"#utility.yul\":12648:12787   */\n      swap1\n      pop\n        /* \"#utility.yul\":12375:12794   */\n      swap2\n      swap1\n      pop\n      jump\t// out\n        /* \"#utility.yul\":12800:12896   */\n    tag_200:\n        /* \"#utility.yul\":12837:12844   */\n      0x00\n        /* \"#utility.yul\":12866:12890   */\n      tag_336\n        /* \"#utility.yul\":12884:12889   */\n      dup3\n        /* \"#utility.yul\":12866:12890   */\n      tag_178\n      jump\t// in\n    tag_336:\n        /* \"#utility.yul\":12855:12890   */\n      swap1\n      pop\n        /* \"#utility.yul\":12800:12896   */\n      swap2\n      swap1\n      pop\n      jump\t// out\n        /* \"#utility.yul\":12902:12996   */\n    tag_201:\n        /* \"#utility.yul\":12935:12943   */\n      0x00\n        /* \"#utility.yul\":12983:12988   */\n      dup2\n        /* \"#utility.yul\":12979:12981   */\n      0x60\n        /* \"#utility.yul\":12975:12989   */\n      shl\n        /* \"#utility.yul\":12954:12989   */\n      swap1\n      pop\n        /* \"#utility.yul\":12902:12996   */\n      swap2\n      swap1\n      pop\n      jump\t// out\n        /* \"#utility.yul\":13002:13096   */\n    tag_202:\n        /* \"#utility.yul\":13041:13048   */\n      0x00\n        /* \"#utility.yul\":13070:13090   */\n      tag_339\n        /* \"#utility.yul\":13084:13089   */\n      dup3\n        /* \"#utility.yul\":13070:13090   */\n      tag_201\n      jump\t// in\n    tag_339:\n        /* \"#utility.yul\":13059:13090   */\n      swap1\n      pop\n        /* \"#utility.yul\":13002:13096   */\n      swap2\n      swap1\n      pop\n      jump\t// out\n        /* \"#utility.yul\":13102:13202   */\n    tag_203:\n        /* \"#utility.yul\":13141:13148   */\n      0x00\n        /* \"#utility.yul\":13170:13196   */\n      tag_341\n        /* \"#utility.yul\":13190:13195   */\n      dup3\n        /* \"#utility.yul\":13170:13196   */\n      tag_202\n      jump\t// in\n    tag_341:\n        /* \"#utility.yul\":13159:13196   */\n      swap1\n      pop\n        /* \"#utility.yul\":13102:13202   */\n      swap2\n      swap1\n      pop\n      jump\t// out\n        /* \"#utility.yul\":13208:13365   */\n    tag_204:\n        /* \"#utility.yul\":13313:13358   */\n      tag_343\n        /* \"#utility.yul\":13333:13357   */\n      tag_344\n        /* \"#utility.yul\":13351:13356   */\n      dup3\n        /* \"#utility.yul\":13333:13357   */\n      tag_200\n      jump\t// in\n    tag_344:\n        /* \"#utility.yul\":13313:13358   */\n      tag_203\n      jump\t// in\n    tag_343:\n        /* \"#utility.yul\":13308:13311   */\n      dup3\n        /* \"#utility.yul\":13301:13359   */\n      mstore\n        /* \"#utility.yul\":13208:13365   */\n      pop\n      pop\n      jump\t// out\n        /* \"#utility.yul\":13371:13450   */\n    tag_205:\n        /* \"#utility.yul\":13410:13417   */\n      0x00\n        /* \"#utility.yul\":13439:13444   */\n      dup2\n        /* \"#utility.yul\":13428:13444   */\n      swap1\n      pop\n        /* \"#utility.yul\":13371:13450   */\n      swap2\n      swap1\n      pop\n      jump\t// out\n        /* \"#utility.yul\":13456:13613   */\n    tag_206:\n        /* \"#utility.yul\":13561:13606   */\n      tag_347\n        /* \"#utility.yul\":13581:13605   */\n      tag_348\n        /* \"#utility.yul\":13599:13604   */\n      dup3\n        /* \"#utility.yul\":13581:13605   */\n      tag_163\n      jump\t// in\n    tag_348:\n        /* \"#utility.yul\":13561:13606   */\n      tag_205\n      jump\t// in\n    tag_347:\n        /* \"#utility.yul\":13556:13559   */\n      dup3\n        /* \"#utility.yul\":13549:13607   */\n      mstore\n        /* \"#utility.yul\":13456:13613   */\n      pop\n      pop\n      jump\t// out\n        /* \"#utility.yul\":13619:14016   */\n    tag_90:\n        /* \"#utility.yul\":13759:13762   */\n      0x00\n        /* \"#utility.yul\":13774:13849   */\n      tag_350\n        /* \"#utility.yul\":13845:13848   */\n      dup3\n        /* \"#utility.yul\":13836:13842   */\n      dup6\n        /* \"#utility.yul\":13774:13849   */\n      tag_204\n      jump\t// in\n    tag_350:\n        /* \"#utility.yul\":13874:13876   */\n      0x14\n        /* \"#utility.yul\":13869:13872   */\n      dup3\n        /* \"#utility.yul\":13865:13877   */\n      add\n        /* \"#utility.yul\":13858:13877   */\n      swap2\n      pop\n        /* \"#utility.yul\":13887:13962   */\n      tag_351\n        /* \"#utility.yul\":13958:13961   */\n      dup3\n        /* \"#utility.yul\":13949:13955   */\n      dup5\n        /* \"#utility.yul\":13887:13962   */\n      tag_206\n      jump\t// in\n    tag_351:\n        /* \"#utility.yul\":13987:13989   */\n      0x20\n        /* \"#utility.yul\":13982:13985   */\n      dup3\n        /* \"#utility.yul\":13978:13990   */\n      add\n        /* \"#utility.yul\":13971:13990   */\n      swap2\n      pop\n        /* \"#utility.yul\":14007:14010   */\n      dup2\n        /* \"#utility.yul\":14000:14010   */\n      swap1\n      pop\n        /* \"#utility.yul\":13619:14016   */\n      swap4\n      swap3\n      pop\n      pop\n      pop\n      jump\t// out\n        /* \"#utility.yul\":14022:14170   */\n    tag_207:\n        /* \"#utility.yul\":14124:14135   */\n      0x00\n        /* \"#utility.yul\":14161:14164   */\n      dup2\n        /* \"#utility.yul\":14146:14164   */\n      swap1\n      pop\n        /* \"#utility.yul\":14022:14170   */\n      swap3\n      swap2\n      pop\n      pop\n      jump\t// out\n        /* \"#utility.yul\":14176:14390   */\n    tag_208:\n        /* \"#utility.yul\":14316:14382   */\n      0x19457468657265756d205369676e6564204d6573736167653a0a333200000000\n        /* \"#utility.yul\":14312:14313   */\n      0x00\n        /* \"#utility.yul\":14304:14310   */\n      dup3\n        /* \"#utility.yul\":14300:14314   */\n      add\n        /* \"#utility.yul\":14293:14383   */\n      mstore\n        /* \"#utility.yul\":14176:14390   */\n      pop\n      jump\t// out\n        /* \"#utility.yul\":14396:14798   */\n    tag_209:\n        /* \"#utility.yul\":14556:14559   */\n      0x00\n        /* \"#utility.yul\":14577:14662   */\n      tag_355\n        /* \"#utility.yul\":14659:14661   */\n      0x1c\n        /* \"#utility.yul\":14654:14657   */\n      dup4\n        /* \"#utility.yul\":14577:14662   */\n      tag_207\n      jump\t// in\n    tag_355:\n        /* \"#utility.yul\":14570:14662   */\n      swap2\n      pop\n        /* \"#utility.yul\":14671:14764   */\n      tag_356\n        /* \"#utility.yul\":14760:14763   */\n      dup3\n        /* \"#utility.yul\":14671:14764   */\n      tag_208\n      jump\t// in\n    tag_356:\n        /* \"#utility.yul\":14789:14791   */\n      0x1c\n        /* \"#utility.yul\":14784:14787   */\n      dup3\n        /* \"#utility.yul\":14780:14792   */\n      add\n        /* \"#utility.yul\":14773:14792   */\n      swap1\n      pop\n        /* \"#utility.yul\":14396:14798   */\n      swap2\n      swap1\n      pop\n      jump\t// out\n        /* \"#utility.yul\":14804:14883   */\n    tag_210:\n        /* \"#utility.yul\":14843:14850   */\n      0x00\n        /* \"#utility.yul\":14872:14877   */\n      dup2\n        /* \"#utility.yul\":14861:14877   */\n      swap1\n      pop\n        /* \"#utility.yul\":14804:14883   */\n      swap2\n      swap1\n      pop\n      jump\t// out\n        /* \"#utility.yul\":14889:15046   */\n    tag_211:\n        /* \"#utility.yul\":14994:15039   */\n      tag_359\n        /* \"#utility.yul\":15014:15038   */\n      tag_360\n        /* \"#utility.yul\":15032:15037   */\n      dup3\n        /* \"#utility.yul\":15014:15038   */\n      tag_176\n      jump\t// in\n    tag_360:\n        /* \"#utility.yul\":14994:15039   */\n      tag_210\n      jump\t// in\n    tag_359:\n        /* \"#utility.yul\":14989:14992   */\n      dup3\n        /* \"#utility.yul\":14982:15040   */\n      mstore\n        /* \"#utility.yul\":14889:15046   */\n      pop\n      pop\n      jump\t// out\n        /* \"#utility.yul\":15052:15574   */\n    tag_98:\n        /* \"#utility.yul\":15265:15268   */\n      0x00\n        /* \"#utility.yul\":15287:15435   */\n      tag_362\n        /* \"#utility.yul\":15431:15434   */\n      dup3\n        /* \"#utility.yul\":15287:15435   */\n      tag_209\n      jump\t// in\n    tag_362:\n        /* \"#utility.yul\":15280:15435   */\n      swap2\n      pop\n        /* \"#utility.yul\":15445:15520   */\n      tag_363\n        /* \"#utility.yul\":15516:15519   */\n      dup3\n        /* \"#utility.yul\":15507:15513   */\n      dup5\n        /* \"#utility.yul\":15445:15520   */\n      tag_211\n      jump\t// in\n    tag_363:\n        /* \"#utility.yul\":15545:15547   */\n      0x20\n        /* \"#utility.yul\":15540:15543   */\n      dup3\n        /* \"#utility.yul\":15536:15548   */\n      add\n        /* \"#utility.yul\":15529:15548   */\n      swap2\n      pop\n        /* \"#utility.yul\":15565:15568   */\n      dup2\n        /* \"#utility.yul\":15558:15568   */\n      swap1\n      pop\n        /* \"#utility.yul\":15052:15574   */\n      swap3\n      swap2\n      pop\n      pop\n      jump\t// out\n        /* \"#utility.yul\":15580:15760   */\n    tag_111:\n        /* \"#utility.yul\":15628:15705   */\n      0x4e487b7100000000000000000000000000000000000000000000000000000000\n        /* \"#utility.yul\":15625:15626   */\n      0x00\n        /* \"#utility.yul\":15618:15706   */\n      mstore\n        /* \"#utility.yul\":15725:15729   */\n      0x21\n        /* \"#utility.yul\":15722:15723   */\n      0x04\n        /* \"#utility.yul\":15715:15730   */\n      mstore\n        /* \"#utility.yul\":15749:15753   */\n      0x24\n        /* \"#utility.yul\":15746:15747   */\n      0x00\n        /* \"#utility.yul\":15739:15754   */\n      revert\n        /* \"#utility.yul\":15766:15940   */\n    tag_212:\n        /* \"#utility.yul\":15906:15932   */\n      0x45434453413a20696e76616c6964207369676e61747572650000000000000000\n        /* \"#utility.yul\":15902:15903   */\n      0x00\n        /* \"#utility.yul\":15894:15900   */\n      dup3\n        /* \"#utility.yul\":15890:15904   */\n      add\n        /* \"#utility.yul\":15883:15933   */\n      mstore\n        /* \"#utility.yul\":15766:15940   */\n      pop\n      jump\t// out\n        /* \"#utility.yul\":15946:16312   */\n    tag_213:\n        /* \"#utility.yul\":16088:16091   */\n      0x00\n        /* \"#utility.yul\":16109:16176   */\n      tag_367\n        /* \"#utility.yul\":16173:16175   */\n      0x18\n        /* \"#utility.yul\":16168:16171   */\n      dup4\n        /* \"#utility.yul\":16109:16176   */\n      tag_184\n      jump\t// in\n    tag_367:\n        /* \"#utility.yul\":16102:16176   */\n      swap2\n      pop\n        /* \"#utility.yul\":16185:16278   */\n      tag_368\n        /* \"#utility.yul\":16274:16277   */\n      dup3\n        /* \"#utility.yul\":16185:16278   */\n      tag_212\n      jump\t// in\n    tag_368:\n        /* \"#utility.yul\":16303:16305   */\n      0x20\n        /* \"#utility.yul\":16298:16301   */\n      dup3\n        /* \"#utility.yul\":16294:16306   */\n      add\n        /* \"#utility.yul\":16287:16306   */\n      swap1\n      pop\n        /* \"#utility.yul\":15946:16312   */\n      swap2\n      swap1\n      pop\n      jump\t// out\n        /* \"#utility.yul\":16318:16737   */\n    tag_122:\n        /* \"#utility.yul\":16484:16488   */\n      0x00\n        /* \"#utility.yul\":16522:16524   */\n      0x20\n        /* \"#utility.yul\":16511:16520   */\n      dup3\n        /* \"#utility.yul\":16507:16525   */\n      add\n        /* \"#utility.yul\":16499:16525   */\n      swap1\n      pop\n        /* \"#utility.yul\":16571:16580   */\n      dup2\n        /* \"#utility.yul\":16565:16569   */\n      dup2\n        /* \"#utility.yul\":16561:16581   */\n      sub\n        /* \"#utility.yul\":16557:16558   */\n      0x00\n        /* \"#utility.yul\":16546:16555   */\n      dup4\n        /* \"#utility.yul\":16542:16559   */\n      add\n        /* \"#utility.yul\":16535:16582   */\n      mstore\n        /* \"#utility.yul\":16599:16730   */\n      tag_370\n        /* \"#utility.yul\":16725:16729   */\n      dup2\n        /* \"#utility.yul\":16599:16730   */\n      tag_213\n      jump\t// in\n    tag_370:\n        /* \"#utility.yul\":16591:16730   */\n      swap1\n      pop\n        /* \"#utility.yul\":16318:16737   */\n      swap2\n      swap1\n      pop\n      jump\t// out\n        /* \"#utility.yul\":16743:16924   */\n    tag_214:\n        /* \"#utility.yul\":16883:16916   */\n      0x45434453413a20696e76616c6964207369676e6174757265206c656e67746800\n        /* \"#utility.yul\":16879:16880   */\n      0x00\n        /* \"#utility.yul\":16871:16877   */\n      dup3\n        /* \"#utility.yul\":16867:16881   */\n      add\n        /* \"#utility.yul\":16860:16917   */\n      mstore\n        /* \"#utility.yul\":16743:16924   */\n      pop\n      jump\t// out\n        /* \"#utility.yul\":16930:17296   */\n    tag_215:\n        /* \"#utility.yul\":17072:17075   */\n      0x00\n        /* \"#utility.yul\":17093:17160   */\n      tag_373\n        /* \"#utility.yul\":17157:17159   */\n      0x1f\n        /* \"#utility.yul\":17152:17155   */\n      dup4\n        /* \"#utility.yul\":17093:17160   */\n      tag_184\n      jump\t// in\n    tag_373:\n        /* \"#utility.yul\":17086:17160   */\n      swap2\n      pop\n        /* \"#utility.yul\":17169:17262   */\n      tag_374\n        /* \"#utility.yul\":17258:17261   */\n      dup3\n        /* \"#utility.yul\":17169:17262   */\n      tag_214\n      jump\t// in\n    tag_374:\n        /* \"#utility.yul\":17287:17289   */\n      0x20\n        /* \"#utility.yul\":17282:17285   */\n      dup3\n        /* \"#utility.yul\":17278:17290   */\n      add\n        /* \"#utility.yul\":17271:17290   */\n      swap1\n      pop\n        /* \"#utility.yul\":16930:17296   */\n      swap2\n      swap1\n      pop\n      jump\t// out\n        /* \"#utility.yul\":17302:17721   */\n    tag_130:\n        /* \"#utility.yul\":17468:17472   */\n      0x00\n        /* \"#utility.yul\":17506:17508   */\n      0x20\n        /* \"#utility.yul\":17495:17504   */\n      dup3\n        /* \"#utility.yul\":17491:17509   */\n      add\n        /* \"#utility.yul\":17483:17509   */\n      swap1\n      pop\n        /* \"#utility.yul\":17555:17564   */\n      dup2\n        /* \"#utility.yul\":17549:17553   */\n      dup2\n        /* \"#utility.yul\":17545:17565   */\n      sub\n        /* \"#utility.yul\":17541:17542   */\n      0x00\n        /* \"#utility.yul\":17530:17539   */\n      dup4\n        /* \"#utility.yul\":17526:17543   */\n      add\n        /* \"#utility.yul\":17519:17566   */\n      mstore\n        /* \"#utility.yul\":17583:17714   */\n      tag_376\n        /* \"#utility.yul\":17709:17713   */\n      dup2\n        /* \"#utility.yul\":17583:17714   */\n      tag_215\n      jump\t// in\n    tag_376:\n        /* \"#utility.yul\":17575:17714   */\n      swap1\n      pop\n        /* \"#utility.yul\":17302:17721   */\n      swap2\n      swap1\n      pop\n      jump\t// out\n        /* \"#utility.yul\":17727:17948   */\n    tag_216:\n        /* \"#utility.yul\":17867:17901   */\n      0x45434453413a20696e76616c6964207369676e6174757265202773272076616c\n        /* \"#utility.yul\":17863:17864   */\n      0x00\n        /* \"#utility.yul\":17855:17861   */\n      dup3\n        /* \"#utility.yul\":17851:17865   */\n      add\n        /* \"#utility.yul\":17844:17902   */\n      mstore\n        /* \"#utility.yul\":17936:17940   */\n      0x7565000000000000000000000000000000000000000000000000000000000000\n        /* \"#utility.yul\":17931:17933   */\n      0x20\n        /* \"#utility.yul\":17923:17929   */\n      dup3\n        /* \"#utility.yul\":17919:17934   */\n      add\n        /* \"#utility.yul\":17912:17941   */\n      mstore\n        /* \"#utility.yul\":17727:17948   */\n      pop\n      jump\t// out\n        /* \"#utility.yul\":17954:18320   */\n    tag_217:\n        /* \"#utility.yul\":18096:18099   */\n      0x00\n        /* \"#utility.yul\":18117:18184   */\n      tag_379\n        /* \"#utility.yul\":18181:18183   */\n      0x22\n        /* \"#utility.yul\":18176:18179   */\n      dup4\n        /* \"#utility.yul\":18117:18184   */\n      tag_184\n      jump\t// in\n    tag_379:\n        /* \"#utility.yul\":18110:18184   */\n      swap2\n      pop\n        /* \"#utility.yul\":18193:18286   */\n      tag_380\n        /* \"#utility.yul\":18282:18285   */\n      dup3\n        /* \"#utility.yul\":18193:18286   */\n      tag_216\n      jump\t// in\n    tag_380:\n        /* \"#utility.yul\":18311:18313   */\n      0x40\n        /* \"#utility.yul\":18306:18309   */\n      dup3\n        /* \"#utility.yul\":18302:18314   */\n      add\n        /* \"#utility.yul\":18295:18314   */\n      swap1\n      pop\n        /* \"#utility.yul\":17954:18320   */\n      swap2\n      swap1\n      pop\n      jump\t// out\n        /* \"#utility.yul\":18326:18745   */\n    tag_138:\n        /* \"#utility.yul\":18492:18496   */\n      0x00\n        /* \"#utility.yul\":18530:18532   */\n      0x20\n        /* \"#utility.yul\":18519:18528   */\n      dup3\n        /* \"#utility.yul\":18515:18533   */\n      add\n        /* \"#utility.yul\":18507:18533   */\n      swap1\n      pop\n        /* \"#utility.yul\":18579:18588   */\n      dup2\n        /* \"#utility.yul\":18573:18577   */\n      dup2\n        /* \"#utility.yul\":18569:18589   */\n      sub\n        /* \"#utility.yul\":18565:18566   */\n      0x00\n        /* \"#utility.yul\":18554:18563   */\n      dup4\n        /* \"#utility.yul\":18550:18567   */\n      add\n        /* \"#utility.yul\":18543:18590   */\n      mstore\n        /* \"#utility.yul\":18607:18738   */\n      tag_382\n        /* \"#utility.yul\":18733:18737   */\n      dup2\n        /* \"#utility.yul\":18607:18738   */\n      tag_217\n      jump\t// in\n    tag_382:\n        /* \"#utility.yul\":18599:18738   */\n      swap1\n      pop\n        /* \"#utility.yul\":18326:18745   */\n      swap2\n      swap1\n      pop\n      jump\t// out\n        /* \"#utility.yul\":18751:18972   */\n    tag_218:\n        /* \"#utility.yul\":18891:18925   */\n      0x45434453413a20696e76616c6964207369676e6174757265202776272076616c\n        /* \"#utility.yul\":18887:18888   */\n      0x00\n        /* \"#utility.yul\":18879:18885   */\n      dup3\n        /* \"#utility.yul\":18875:18889   */\n      add\n        /* \"#utility.yul\":18868:18926   */\n      mstore\n        /* \"#utility.yul\":18960:18964   */\n      0x7565000000000000000000000000000000000000000000000000000000000000\n        /* \"#utility.yul\":18955:18957   */\n      0x20\n        /* \"#utility.yul\":18947:18953   */\n      dup3\n        /* \"#utility.yul\":18943:18958   */\n      add\n        /* \"#utility.yul\":18936:18965   */\n      mstore\n        /* \"#utility.yul\":18751:18972   */\n      pop\n      jump\t// out\n        /* \"#utility.yul\":18978:19344   */\n    tag_219:\n        /* \"#utility.yul\":19120:19123   */\n      0x00\n        /* \"#utility.yul\":19141:19208   */\n      tag_385\n        /* \"#utility.yul\":19205:19207   */\n      0x22\n        /* \"#utility.yul\":19200:19203   */\n      dup4\n        /* \"#utility.yul\":19141:19208   */\n      tag_184\n      jump\t// in\n    tag_385:\n        /* \"#utility.yul\":19134:19208   */\n      swap2\n      pop\n        /* \"#utility.yul\":19217:19310   */\n      tag_386\n        /* \"#utility.yul\":19306:19309   */\n      dup3\n        /* \"#utility.yul\":19217:19310   */\n      tag_218\n      jump\t// in\n    tag_386:\n        /* \"#utility.yul\":19335:19337   */\n      0x40\n        /* \"#utility.yul\":19330:19333   */\n      dup3\n        /* \"#utility.yul\":19326:19338   */\n      add\n        /* \"#utility.yul\":19319:19338   */\n      swap1\n      pop\n        /* \"#utility.yul\":18978:19344   */\n      swap2\n      swap1\n      pop\n      jump\t// out\n        /* \"#utility.yul\":19350:19769   */\n    tag_146:\n        /* \"#utility.yul\":19516:19520   */\n      0x00\n        /* \"#utility.yul\":19554:19556   */\n      0x20\n        /* \"#utility.yul\":19543:19552   */\n      dup3\n        /* \"#utility.yul\":19539:19557   */\n      add\n        /* \"#utility.yul\":19531:19557   */\n      swap1\n      pop\n        /* \"#utility.yul\":19603:19612   */\n      dup2\n        /* \"#utility.yul\":19597:19601   */\n      dup2\n        /* \"#utility.yul\":19593:19613   */\n      sub\n        /* \"#utility.yul\":19589:19590   */\n      0x00\n        /* \"#utility.yul\":19578:19587   */\n      dup4\n        /* \"#utility.yul\":19574:19591   */\n      add\n        /* \"#utility.yul\":19567:19614   */\n      mstore\n        /* \"#utility.yul\":19631:19762   */\n      tag_388\n        /* \"#utility.yul\":19757:19761   */\n      dup2\n        /* \"#utility.yul\":19631:19762   */\n      tag_219\n      jump\t// in\n    tag_388:\n        /* \"#utility.yul\":19623:19762   */\n      swap1\n      pop\n        /* \"#utility.yul\":19350:19769   */\n      swap2\n      swap1\n      pop\n      jump\t// out\n        /* \"#utility.yul\":19775:19861   */\n    tag_220:\n        /* \"#utility.yul\":19810:19817   */\n      0x00\n        /* \"#utility.yul\":19850:19854   */\n      0xff\n        /* \"#utility.yul\":19843:19848   */\n      dup3\n        /* \"#utility.yul\":19839:19855   */\n      and\n        /* \"#utility.yul\":19828:19855   */\n      swap1\n      pop\n        /* \"#utility.yul\":19775:19861   */\n      swap2\n      swap1\n      pop\n      jump\t// out\n        /* \"#utility.yul\":19867:19979   */\n    tag_221:\n        /* \"#utility.yul\":19950:19972   */\n      tag_391\n        /* \"#utility.yul\":19966:19971   */\n      dup2\n        /* \"#utility.yul\":19950:19972   */\n      tag_220\n      jump\t// in\n    tag_391:\n        /* \"#utility.yul\":19945:19948   */\n      dup3\n        /* \"#utility.yul\":19938:19973   */\n      mstore\n        /* \"#utility.yul\":19867:19979   */\n      pop\n      pop\n      jump\t// out\n        /* \"#utility.yul\":19985:20530   */\n    tag_152:\n        /* \"#utility.yul\":20158:20162   */\n      0x00\n        /* \"#utility.yul\":20196:20199   */\n      0x80\n        /* \"#utility.yul\":20185:20194   */\n      dup3\n        /* \"#utility.yul\":20181:20200   */\n      add\n        /* \"#utility.yul\":20173:20200   */\n      swap1\n      pop\n        /* \"#utility.yul\":20210:20281   */\n      tag_393\n        /* \"#utility.yul\":20278:20279   */\n      0x00\n        /* \"#utility.yul\":20267:20276   */\n      dup4\n        /* \"#utility.yul\":20263:20280   */\n      add\n        /* \"#utility.yul\":20254:20260   */\n      dup8\n        /* \"#utility.yul\":20210:20281   */\n      tag_177\n      jump\t// in\n    tag_393:\n        /* \"#utility.yul\":20291:20359   */\n      tag_394\n        /* \"#utility.yul\":20355:20357   */\n      0x20\n        /* \"#utility.yul\":20344:20353   */\n      dup4\n        /* \"#utility.yul\":20340:20358   */\n      add\n        /* \"#utility.yul\":20331:20337   */\n      dup7\n        /* \"#utility.yul\":20291:20359   */\n      tag_221\n      jump\t// in\n    tag_394:\n        /* \"#utility.yul\":20369:20441   */\n      tag_395\n        /* \"#utility.yul\":20437:20439   */\n      0x40\n        /* \"#utility.yul\":20426:20435   */\n      dup4\n        /* \"#utility.yul\":20422:20440   */\n      add\n        /* \"#utility.yul\":20413:20419   */\n      dup6\n        /* \"#utility.yul\":20369:20441   */\n      tag_177\n      jump\t// in\n    tag_395:\n        /* \"#utility.yul\":20451:20523   */\n      tag_396\n        /* \"#utility.yul\":20519:20521   */\n      0x60\n        /* \"#utility.yul\":20508:20517   */\n      dup4\n        /* \"#utility.yul\":20504:20522   */\n      add\n        /* \"#utility.yul\":20495:20501   */\n      dup5\n        /* \"#utility.yul\":20451:20523   */\n      tag_177\n      jump\t// in\n    tag_396:\n        /* \"#utility.yul\":19985:20530   */\n      swap6\n      swap5\n      pop\n      pop\n      pop\n      pop\n      pop\n      jump\t// out\n        /* \"#utility.yul\":20536:20716   */\n    tag_222:\n        /* \"#utility.yul\":20584:20661   */\n      0x4e487b7100000000000000000000000000000000000000000000000000000000\n        /* \"#utility.yul\":20581:20582   */\n      0x00\n        /* \"#utility.yul\":20574:20662   */\n      mstore\n        /* \"#utility.yul\":20681:20685   */\n      0x11\n        /* \"#utility.yul\":20678:20679   */\n      0x04\n        /* \"#utility.yul\":20671:20686   */\n      mstore\n        /* \"#utility.yul\":20705:20709   */\n      0x24\n        /* \"#utility.yul\":20702:20703   */\n      0x00\n        /* \"#utility.yul\":20695:20710   */\n      revert\n        /* \"#utility.yul\":20722:20913   */\n    tag_158:\n        /* \"#utility.yul\":20762:20765   */\n      0x00\n        /* \"#utility.yul\":20781:20801   */\n      tag_399\n        /* \"#utility.yul\":20799:20800   */\n      dup3\n        /* \"#utility.yul\":20781:20801   */\n      tag_163\n      jump\t// in\n    tag_399:\n        /* \"#utility.yul\":20776:20801   */\n      swap2\n      pop\n        /* \"#utility.yul\":20815:20835   */\n      tag_400\n        /* \"#utility.yul\":20833:20834   */\n      dup4\n        /* \"#utility.yul\":20815:20835   */\n      tag_163\n      jump\t// in\n    tag_400:\n        /* \"#utility.yul\":20810:20835   */\n      swap3\n      pop\n        /* \"#utility.yul\":20858:20859   */\n      dup3\n        /* \"#utility.yul\":20855:20856   */\n      dup3\n        /* \"#utility.yul\":20851:20860   */\n      add\n        /* \"#utility.yul\":20844:20860   */\n      swap1\n      pop\n        /* \"#utility.yul\":20879:20882   */\n      dup1\n        /* \"#utility.yul\":20876:20877   */\n      dup3\n        /* \"#utility.yul\":20873:20883   */\n      gt\n        /* \"#utility.yul\":20870:20906   */\n      iszero\n      tag_401\n      jumpi\n        /* \"#utility.yul\":20886:20904   */\n      tag_402\n      tag_222\n      jump\t// in\n    tag_402:\n        /* \"#utility.yul\":20870:20906   */\n    tag_401:\n        /* \"#utility.yul\":20722:20913   */\n      swap3\n      swap2\n      pop\n      pop\n      jump\t// out\n\n    auxdata: 0xa2646970667358221220cd3aae58bcec4faa7d31769df4f539f9f2b07254ca8be768bacd3fc995b66b9564736f6c634300081e0033\n}\n",
				"bytecode": {
					"linkReferences": {},
					"object": "60806040526040516116a23803806116a283398181016040528101906100259190610193565b60015f819055505f73ffffffffffffffffffffffffffffffffffffffff168173ffffffffffffffffffffffffffffffffffffffff160361009a576040517f08c379a000000000000000000000000000000000000000000000000000000000815260040161009190610218565b60405180910390fd5b3360015f6101000a81548173ffffffffffffffffffffffffffffffffffffffff021916908373ffffffffffffffffffffffffffffffffffffffff1602179055508060025f6101000a81548173ffffffffffffffffffffffffffffffffffffffff021916908373ffffffffffffffffffffffffffffffffffffffff16021790555062093a8042610129919061026c565b6003819055505061029f565b5f5ffd5b5f73ffffffffffffffffffffffffffffffffffffffff82169050919050565b5f61016282610139565b9050919050565b61017281610158565b811461017c575f5ffd5b50565b5f8151905061018d81610169565b92915050565b5f602082840312156101a8576101a7610135565b5b5f6101b58482850161017f565b91505092915050565b5f82825260208201905092915050565b7f7265636569766572203d207a65726f20616464726573730000000000000000005f82015250565b5f6102026017836101be565b915061020d826101ce565b602082019050919050565b5f6020820190508181035f83015261022f816101f6565b9050919050565b5f819050919050565b7f4e487b71000000000000000000000000000000000000000000000000000000005f52601160045260245ffd5b5f61027682610236565b915061028183610236565b92508282019050808211156102995761029861023f565b5b92915050565b6113f6806102ac5f395ff3fe608060405234801561000f575f5ffd5b5060043610610086575f3560e01c806385852ce41161005957806385852ce4146101245780638622a68914610154578063ea8a1af014610172578063f7260d3e1461017c57610086565b8063415ffba71461008a578063552f50b6146100a657806367e404ce146100d65780636b2fafa9146100f4575b5f5ffd5b6100a4600480360381019061009f9190610b85565b61019a565b005b6100c060048036038101906100bb9190610bdf565b6103c0565b6040516100cd9190610c22565b60405180910390f35b6100de6103d1565b6040516100eb9190610c7a565b60405180910390f35b61010e60048036038101906101099190610bdf565b6103f6565b60405161011b9190610c22565b60405180910390f35b61013e60048036038101906101399190610b85565b610407565b60405161014b9190610cad565b60405180910390f35b61015c61041a565b6040516101699190610cd5565b60405180910390f35b61017a610420565b005b61018461052e565b6040516101919190610c7a565b60405180910390f35b60025f54036101de576040517f08c379a00000000000000000000000000000000000000000000000000000000081526004016101d590610d48565b60405180910390fd5b60025f8190555060025f9054906101000a900473ffffffffffffffffffffffffffffffffffffffff1673ffffffffffffffffffffffffffffffffffffffff163373ffffffffffffffffffffffffffffffffffffffff1614610274576040517f08c379a000000000000000000000000000000000000000000000000000000000815260040161026b90610db0565b60405180910390fd5b61027e8282610553565b6102bd576040517f08c379a00000000000000000000000000000000000000000000000000000000081526004016102b490610e18565b60405180910390fd5b5f60025f9054906101000a900473ffffffffffffffffffffffffffffffffffffffff1673ffffffffffffffffffffffffffffffffffffffff168360405161030390610e63565b5f6040518083038185875af1925050503d805f811461033d576040519150601f19603f3d011682016040523d82523d5f602084013e610342565b606091505b5050905080610386576040517f08c379a000000000000000000000000000000000000000000000000000000000815260040161037d90610ec1565b60405180910390fd5b60015f9054906101000a900473ffffffffffffffffffffffffffffffffffffffff1673ffffffffffffffffffffffffffffffffffffffff16ff5b5f6103ca826105c6565b9050919050565b60015f9054906101000a900473ffffffffffffffffffffffffffffffffffffffff1681565b5f610400826105df565b9050919050565b5f6104128383610553565b905092915050565b60035481565b60015f9054906101000a900473ffffffffffffffffffffffffffffffffffffffff1673ffffffffffffffffffffffffffffffffffffffff163373ffffffffffffffffffffffffffffffffffffffff16146104af576040517f08c379a00000000000000000000000000000000000000000000000000000000081526004016104a690610f29565b60405180910390fd5b6003544210156104f4576040517f08c379a00000000000000000000000000000000000000000000000000000000081526004016104eb90610f91565b60405180910390fd5b60015f9054906101000a900473ffffffffffffffffffffffffffffffffffffffff1673ffffffffffffffffffffffffffffffffffffffff16ff5b60025f9054906101000a900473ffffffffffffffffffffffffffffffffffffffff1681565b5f60015f9054906101000a900473ffffffffffffffffffffffffffffffffffffffff1673ffffffffffffffffffffffffffffffffffffffff166105a783610599866105c6565b61061090919063ffffffff16565b73ffffffffffffffffffffffffffffffffffffffff1614905092915050565b5f6105d86105d3836105df565b610635565b9050919050565b5f30826040516020016105f3929190611025565b604051602081830303815290604052805190602001209050919050565b5f5f5f61061d8585610664565b9150915061062a816106df565b819250505092915050565b5f8160405160200161064791906110c4565b604051602081830303815290604052805190602001209050919050565b5f5f60418351036106a1575f5f5f602086015192506040860151915060608601515f1a9050610695878285856108aa565b945094505050506106d8565b60408351036106d0575f5f60208501519150604085015190506106c58683836109ab565b9350935050506106d8565b5f6002915091505b9250929050565b5f60048111156106f2576106f16110e9565b5b816004811115610705576107046110e9565b5b03156108a7576001600481111561071f5761071e6110e9565b5b816004811115610732576107316110e9565b5b03610772576040517f08c379a000000000000000000000000000000000000000000000000000000000815260040161076990611160565b60405180910390fd5b60026004811115610786576107856110e9565b5b816004811115610799576107986110e9565b5b036107d9576040517f08c379a00000000000000000000000000000000000000000000000000000000081526004016107d0906111c8565b60405180910390fd5b600360048111156107ed576107ec6110e9565b5b816004811115610800576107ff6110e9565b5b03610840576040517f08c379a000000000000000000000000000000000000000000000000000000000815260040161083790611256565b60405180910390fd5b600480811115610853576108526110e9565b5b816004811115610866576108656110e9565b5b036108a6576040517f08c379a000000000000000000000000000000000000000000000000000000000815260040161089d906112e4565b60405180910390fd5b5b50565b5f5f7f7fffffffffffffffffffffffffffffff5d576e7357a4501ddfe92f46681b20a0835f1c11156108e2575f6003915091506109a2565b601b8560ff16141580156108fa5750601c8560ff1614155b1561090b575f6004915091506109a2565b5f6001878787876040515f815260200160405260405161092e949392919061131d565b6020604051602081039080840390855afa15801561094e573d5f5f3e3d5ffd5b5050506020604051035190505f73ffffffffffffffffffffffffffffffffffffffff168173ffffffffffffffffffffffffffffffffffffffff160361099a575f600192509250506109a2565b805f92509250505b94509492505050565b5f5f5f7f7fffffffffffffffffffffffffffffffffffffffffffffffffffffffffffffff5f1b841690505f601b60ff865f1c901c6109e9919061138d565b90506109f7878288856108aa565b935093505050935093915050565b5f604051905090565b5f5ffd5b5f5ffd5b5f819050919050565b610a2881610a16565b8114610a32575f5ffd5b50565b5f81359050610a4381610a1f565b92915050565b5f5ffd5b5f5ffd5b5f601f19601f8301169050919050565b7f4e487b71000000000000000000000000000000000000000000000000000000005f52604160045260245ffd5b610a9782610a51565b810181811067ffffffffffffffff82111715610ab657610ab5610a61565b5b80604052505050565b5f610ac8610a05565b9050610ad48282610a8e565b919050565b5f67ffffffffffffffff821115610af357610af2610a61565b5b610afc82610a51565b9050602081019050919050565b828183375f83830152505050565b5f610b29610b2484610ad9565b610abf565b905082815260208101848484011115610b4557610b44610a4d565b5b610b50848285610b09565b509392505050565b5f82601f830112610b6c57610b6b610a49565b5b8135610b7c848260208601610b17565b91505092915050565b5f5f60408385031215610b9b57610b9a610a0e565b5b5f610ba885828601610a35565b925050602083013567ffffffffffffffff811115610bc957610bc8610a12565b5b610bd585828601610b58565b9150509250929050565b5f60208284031215610bf457610bf3610a0e565b5b5f610c0184828501610a35565b91505092915050565b5f819050919050565b610c1c81610c0a565b82525050565b5f602082019050610c355f830184610c13565b92915050565b5f73ffffffffffffffffffffffffffffffffffffffff82169050919050565b5f610c6482610c3b565b9050919050565b610c7481610c5a565b82525050565b5f602082019050610c8d5f830184610c6b565b92915050565b5f8115159050919050565b610ca781610c93565b82525050565b5f602082019050610cc05f830184610c9e565b92915050565b610ccf81610a16565b82525050565b5f602082019050610ce85f830184610cc6565b92915050565b5f82825260208201905092915050565b7f5265656e7472616e637947756172643a207265656e7472616e742063616c6c005f82015250565b5f610d32601f83610cee565b9150610d3d82610cfe565b602082019050919050565b5f6020820190508181035f830152610d5f81610d26565b9050919050565b7f21726563656976657200000000000000000000000000000000000000000000005f82015250565b5f610d9a600983610cee565b9150610da582610d66565b602082019050919050565b5f6020820190508181035f830152610dc781610d8e565b9050919050565b7f696e76616c6964207369670000000000000000000000000000000000000000005f82015250565b5f610e02600b83610cee565b9150610e0d82610dce565b602082019050919050565b5f6020820190508181035f830152610e2f81610df6565b9050919050565b5f81905092915050565b50565b5f610e4e5f83610e36565b9150610e5982610e40565b5f82019050919050565b5f610e6d82610e43565b9150819050919050565b7f4661696c656420746f2073656e642045746865720000000000000000000000005f82015250565b5f610eab601483610cee565b9150610eb682610e77565b602082019050919050565b5f6020820190508181035f830152610ed881610e9f565b9050919050565b7f2173656e646572000000000000000000000000000000000000000000000000005f82015250565b5f610f13600783610cee565b9150610f1e82610edf565b602082019050919050565b5f6020820190508181035f830152610f4081610f07565b9050919050565b7f21657870697265640000000000000000000000000000000000000000000000005f82015250565b5f610f7b600883610cee565b9150610f8682610f47565b602082019050919050565b5f6020820190508181035f830152610fa881610f6f565b9050919050565b5f610fb982610c3b565b9050919050565b5f8160601b9050919050565b5f610fd682610fc0565b9050919050565b5f610fe782610fcc565b9050919050565b610fff610ffa82610faf565b610fdd565b82525050565b5f819050919050565b61101f61101a82610a16565b611005565b82525050565b5f6110308285610fee565b601482019150611040828461100e565b6020820191508190509392505050565b5f81905092915050565b7f19457468657265756d205369676e6564204d6573736167653a0a3332000000005f82015250565b5f61108e601c83611050565b91506110998261105a565b601c82019050919050565b5f819050919050565b6110be6110b982610c0a565b6110a4565b82525050565b5f6110ce82611082565b91506110da82846110ad565b60208201915081905092915050565b7f4e487b71000000000000000000000000000000000000000000000000000000005f52602160045260245ffd5b7f45434453413a20696e76616c6964207369676e617475726500000000000000005f82015250565b5f61114a601883610cee565b915061115582611116565b602082019050919050565b5f6020820190508181035f8301526111778161113e565b9050919050565b7f45434453413a20696e76616c6964207369676e6174757265206c656e677468005f82015250565b5f6111b2601f83610cee565b91506111bd8261117e565b602082019050919050565b5f6020820190508181035f8301526111df816111a6565b9050919050565b7f45434453413a20696e76616c6964207369676e6174757265202773272076616c5f8201527f7565000000000000000000000000000000000000000000000000000000000000602082015250565b5f611240602283610cee565b915061124b826111e6565b604082019050919050565b5f6020820190508181035f83015261126d81611234565b9050919050565b7f45434453413a20696e76616c6964207369676e6174757265202776272076616c5f8201527f7565000000000000000000000000000000000000000000000000000000000000602082015250565b5f6112ce602283610cee565b91506112d982611274565b604082019050919050565b5f6020820190508181035f8301526112fb816112c2565b9050919050565b5f60ff82169050919050565b61131781611302565b82525050565b5f6080820190506113305f830187610c13565b61133d602083018661130e565b61134a6040830185610c13565b6113576060830184610c13565b95945050505050565b7f4e487b71000000000000000000000000000000000000000000000000000000005f52601160045260245ffd5b5f61139782610a16565b91506113a283610a16565b92508282019050808211156113ba576113b9611360565b5b9291505056fea2646970667358221220cd3aae58bcec4faa7d31769df4f539f9f2b07254ca8be768bacd3fc995b66b9564736f6c634300081e0033",
					"opcodes": "PUSH1 0x80 PUSH1 0x40 MSTORE PUSH1 0x40 MLOAD PUSH2 0x16A2 CODESIZE SUB DUP1 PUSH2 0x16A2 DUP4 CODECOPY DUP2 DUP2 ADD PUSH1 0x40 MSTORE DUP2 ADD SWAP1 PUSH2 0x25 SWAP2 SWAP1 PUSH2 0x193 JUMP JUMPDEST PUSH1 0x1 PUSH0 DUP2 SWAP1 SSTORE POP PUSH0 PUSH20 0xFFFFFFFFFFFFFFFFFFFFFFFFFFFFFFFFFFFFFFFF AND DUP2 PUSH20 0xFFFFFFFFFFFFFFFFFFFFFFFFFFFFFFFFFFFFFFFF AND SUB PUSH2 0x9A JUMPI PUSH1 0x40 MLOAD PUSH32 0x8C379A000000000000000000000000000000000000000000000000000000000 DUP2 MSTORE PUSH1 0x4 ADD PUSH2 0x91 SWAP1 PUSH2 0x218 JUMP JUMPDEST PUSH1 0x40 MLOAD DUP1 SWAP2 SUB SWAP1 REVERT JUMPDEST CALLER PUSH1 0x1 PUSH0 PUSH2 0x100 EXP DUP2 SLOAD DUP2 PUSH20 0xFFFFFFFFFFFFFFFFFFFFFFFFFFFFFFFFFFFFFFFF MUL NOT AND SWAP1 DUP4 PUSH20 0xFFFFFFFFFFFFFFFFFFFFFFFFFFFFFFFFFFFFFFFF AND MUL OR SWAP1 SSTORE POP DUP1 PUSH1 0x2 PUSH0 PUSH2 0x100 EXP DUP2 SLOAD DUP2 PUSH20 0xFFFFFFFFFFFFFFFFFFFFFFFFFFFFFFFFFFFFFFFF MUL NOT AND SWAP1 DUP4 PUSH20 0xFFFFFFFFFFFFFFFFFFFFFFFFFFFFFFFFFFFFFFFF AND MUL OR SWAP1 SSTORE POP PUSH3 0x93A80 TIMESTAMP PUSH2 0x129 SWAP2 SWAP1 PUSH2 0x26C JUMP JUMPDEST PUSH1 0x3 DUP2 SWAP1 SSTORE POP POP PUSH2 0x29F JUMP JUMPDEST PUSH0 PUSH0 REVERT JUMPDEST PUSH0 PUSH20 0xFFFFFFFFFFFFFFFFFFFFFFFFFFFFFFFFFFFFFFFF DUP3 AND SWAP1 POP SWAP2 SWAP1 POP JUMP JUMPDEST PUSH0 PUSH2 0x162 DUP3 PUSH2 0x139 JUMP JUMPDEST SWAP1 POP SWAP2 SWAP1 POP JUMP JUMPDEST PUSH2 0x172 DUP2 PUSH2 0x158 JUMP JUMPDEST DUP2 EQ PUSH2 0x17C JUMPI PUSH0 PUSH0 REVERT JUMPDEST POP JUMP JUMPDEST PUSH0 DUP2 MLOAD SWAP1 POP PUSH2 0x18D DUP2 PUSH2 0x169 JUMP JUMPDEST SWAP3 SWAP2 POP POP JUMP JUMPDEST PUSH0 PUSH1 0x20 DUP3 DUP5 SUB SLT ISZERO PUSH2 0x1A8 JUMPI PUSH2 0x1A7 PUSH2 0x135 JUMP JUMPDEST JUMPDEST PUSH0 PUSH2 0x1B5 DUP5 DUP3 DUP6 ADD PUSH2 0x17F JUMP JUMPDEST SWAP2 POP POP SWAP3 SWAP2 POP POP JUMP JUMPDEST PUSH0 DUP3 DUP3 MSTORE PUSH1 0x20 DUP3 ADD SWAP1 POP SWAP3 SWAP2 POP POP JUMP JUMPDEST PUSH32 0x7265636569766572203D207A65726F2061646472657373000000000000000000 PUSH0 DUP3 ADD MSTORE POP JUMP JUMPDEST PUSH0 PUSH2 0x202 PUSH1 0x17 DUP4 PUSH2 0x1BE JUMP JUMPDEST SWAP2 POP PUSH2 0x20D DUP3 PUSH2 0x1CE JUMP JUMPDEST PUSH1 0x20 DUP3 ADD SWAP1 POP SWAP2 SWAP1 POP JUMP JUMPDEST PUSH0 PUSH1 0x20 DUP3 ADD SWAP1 POP DUP2 DUP2 SUB PUSH0 DUP4 ADD MSTORE PUSH2 0x22F DUP2 PUSH2 0x1F6 JUMP JUMPDEST SWAP1 POP SWAP2 SWAP1 POP JUMP JUMPDEST PUSH0 DUP2 SWAP1 POP SWAP2 SWAP1 POP JUMP JUMPDEST PUSH32 0x4E487B7100000000000000000000000000000000000000000000000000000000 PUSH0 MSTORE PUSH1 0x11 PUSH1 0x4 MSTORE PUSH1 0x24 PUSH0 REVERT JUMPDEST PUSH0 PUSH2 0x276 DUP3 PUSH2 0x236 JUMP JUMPDEST SWAP2 POP PUSH2 0x281 DUP4 PUSH2 0x236 JUMP JUMPDEST SWAP3 POP DUP3 DUP3 ADD SWAP1 POP DUP1 DUP3 GT ISZERO PUSH2 0x299 JUMPI PUSH2 0x298 PUSH2 0x23F JUMP JUMPDEST JUMPDEST SWAP3 SWAP2 POP POP JUMP JUMPDEST PUSH2 0x13F6 DUP1 PUSH2 0x2AC PUSH0 CODECOPY PUSH0 RETURN INVALID PUSH1 0x80 PUSH1 0x40 MSTORE CALLVALUE DUP1 ISZERO PUSH2 0xF JUMPI PUSH0 PUSH0 REVERT JUMPDEST POP PUSH1 0x4 CALLDATASIZE LT PUSH2 0x86 JUMPI PUSH0 CALLDATALOAD PUSH1 0xE0 SHR DUP1 PUSH4 0x85852CE4 GT PUSH2 0x59 JUMPI DUP1 PUSH4 0x85852CE4 EQ PUSH2 0x124 JUMPI DUP1 PUSH4 0x8622A689 EQ PUSH2 0x154 JUMPI DUP1 PUSH4 0xEA8A1AF0 EQ PUSH2 0x172 JUMPI DUP1 PUSH4 0xF7260D3E EQ PUSH2 0x17C JUMPI PUSH2 0x86 JUMP JUMPDEST DUP1 PUSH4 0x415FFBA7 EQ PUSH2 0x8A JUMPI DUP1 PUSH4 0x552F50B6 EQ PUSH2 0xA6 JUMPI DUP1 PUSH4 0x67E404CE EQ PUSH2 0xD6 JUMPI DUP1 PUSH4 0x6B2FAFA9 EQ PUSH2 0xF4 JUMPI JUMPDEST PUSH0 PUSH0 REVERT JUMPDEST PUSH2 0xA4 PUSH1 0x4 DUP1 CALLDATASIZE SUB DUP2 ADD SWAP1 PUSH2 0x9F SWAP2 SWAP1 PUSH2 0xB85 JUMP JUMPDEST PUSH2 0x19A JUMP JUMPDEST STOP JUMPDEST PUSH2 0xC0 PUSH1 0x4 DUP1 CALLDATASIZE SUB DUP2 ADD SWAP1 PUSH2 0xBB SWAP2 SWAP1 PUSH2 0xBDF JUMP JUMPDEST PUSH2 0x3C0 JUMP JUMPDEST PUSH1 0x40 MLOAD PUSH2 0xCD SWAP2 SWAP1 PUSH2 0xC22 JUMP JUMPDEST PUSH1 0x40 MLOAD DUP1 SWAP2 SUB SWAP1 RETURN JUMPDEST PUSH2 0xDE PUSH2 0x3D1 JUMP JUMPDEST PUSH1 0x40 MLOAD PUSH2 0xEB SWAP2 SWAP1 PUSH2 0xC7A JUMP JUMPDEST PUSH1 0x40 MLOAD DUP1 SWAP2 SUB SWAP1 RETURN JUMPDEST PUSH2 0x10E PUSH1 0x4 DUP1 CALLDATASIZE SUB DUP2 ADD SWAP1 PUSH2 0x109 SWAP2 SWAP1 PUSH2 0xBDF JUMP JUMPDEST PUSH2 0x3F6 JUMP JUMPDEST PUSH1 0x40 MLOAD PUSH2 0x11B SWAP2 SWAP1 PUSH2 0xC22 JUMP JUMPDEST PUSH1 0x40 MLOAD DUP1 SWAP2 SUB SWAP1 RETURN JUMPDEST PUSH2 0x13E PUSH1 0x4 DUP1 CALLDATASIZE SUB DUP2 ADD SWAP1 PUSH2 0x139 SWAP2 SWAP1 PUSH2 0xB85 JUMP JUMPDEST PUSH2 0x407 JUMP JUMPDEST PUSH1 0x40 MLOAD PUSH2 0x14B SWAP2 SWAP1 PUSH2 0xCAD JUMP JUMPDEST PUSH1 0x40 MLOAD DUP1 SWAP2 SUB SWAP1 RETURN JUMPDEST PUSH2 0x15C PUSH2 0x41A JUMP JUMPDEST PUSH1 0x40 MLOAD PUSH2 0x169 SWAP2 SWAP1 PUSH2 0xCD5 JUMP JUMPDEST PUSH1 0x40 MLOAD DUP1 SWAP2 SUB SWAP1 RETURN JUMPDEST PUSH2 0x17A PUSH2 0x420 JUMP JUMPDEST STOP JUMPDEST PUSH2 0x184 PUSH2 0x52E JUMP JUMPDEST PUSH1 0x40 MLOAD PUSH2 0x191 SWAP2 SWAP1 PUSH2 0xC7A JUMP JUMPDEST PUSH1 0x40 MLOAD DUP1 SWAP2 SUB SWAP1 RETURN JUMPDEST PUSH1 0x2 PUSH0 SLOAD SUB PUSH2 0x1DE JUMPI PUSH1 0x40 MLOAD PUSH32 0x8C379A000000000000000000000000000000000000000000000000000000000 DUP2 MSTORE PUSH1 0x4 ADD PUSH2 0x1D5 SWAP1 PUSH2 0xD48 JUMP JUMPDEST PUSH1 0x40 MLOAD DUP1 SWAP2 SUB SWAP1 REVERT JUMPDEST PUSH1 0x2 PUSH0 DUP2 SWAP1 SSTORE POP PUSH1 0x2 PUSH0 SWAP1 SLOAD SWAP1 PUSH2 0x100 EXP SWAP1 DIV PUSH20 0xFFFFFFFFFFFFFFFFFFFFFFFFFFFFFFFFFFFFFFFF AND PUSH20 0xFFFFFFFFFFFFFFFFFFFFFFFFFFFFFFFFFFFFFFFF AND CALLER PUSH20 0xFFFFFFFFFFFFFFFFFFFFFFFFFFFFFFFFFFFFFFFF AND EQ PUSH2 0x274 JUMPI PUSH1 0x40 MLOAD PUSH32 0x8C379A000000000000000000000000000000000000000000000000000000000 DUP2 MSTORE PUSH1 0x4 ADD PUSH2 0x26B SWAP1 PUSH2 0xDB0 JUMP JUMPDEST PUSH1 0x40 MLOAD DUP1 SWAP2 SUB SWAP1 REVERT JUMPDEST PUSH2 0x27E DUP3 DUP3 PUSH2 0x553 JUMP JUMPDEST PUSH2 0x2BD JUMPI PUSH1 0x40 MLOAD PUSH32 0x8C379A000000000000000000000000000000000000000000000000000000000 DUP2 MSTORE PUSH1 0x4 ADD PUSH2 0x2B4 SWAP1 PUSH2 0xE18 JUMP JUMPDEST PUSH1 0x40 MLOAD DUP1 SWAP2 SUB SWAP1 REVERT JUMPDEST PUSH0 PUSH1 0x2 PUSH0 SWAP1 SLOAD SWAP1 PUSH2 0x100 EXP SWAP1 DIV PUSH20 0xFFFFFFFFFFFFFFFFFFFFFFFFFFFFFFFFFFFFFFFF AND PUSH20 0xFFFFFFFFFFFFFFFFFFFFFFFFFFFFFFFFFFFFFFFF AND DUP4 PUSH1 0x40 MLOAD PUSH2 0x303 SWAP1 PUSH2 0xE63 JUMP JUMPDEST PUSH0 PUSH1 0x40 MLOAD DUP1 DUP4 SUB DUP2 DUP6 DUP8 GAS CALL SWAP3 POP POP POP RETURNDATASIZE DUP1 PUSH0 DUP2 EQ PUSH2 0x33D JUMPI PUSH1 0x40 MLOAD SWAP2 POP PUSH1 0x1F NOT PUSH1 0x3F RETURNDATASIZE ADD AND DUP3 ADD PUSH1 0x40 MSTORE RETURNDATASIZE DUP3 MSTORE RETURNDATASIZE PUSH0 PUSH1 0x20 DUP5 ADD RETURNDATACOPY PUSH2 0x342 JUMP JUMPDEST PUSH1 0x60 SWAP2 POP JUMPDEST POP POP SWAP1 POP DUP1 PUSH2 0x386 JUMPI PUSH1 0x40 MLOAD PUSH32 0x8C379A000000000000000000000000000000000000000000000000000000000 DUP2 MSTORE PUSH1 0x4 ADD PUSH2 0x37D SWAP1 PUSH2 0xEC1 JUMP JUMPDEST PUSH1 0x40 MLOAD DUP1 SWAP2 SUB SWAP1 REVERT JUMPDEST PUSH1 0x1 PUSH0 SWAP1 SLOAD SWAP1 PUSH2 0x100 EXP SWAP1 DIV PUSH20 0xFFFFFFFFFFFFFFFFFFFFFFFFFFFFFFFFFFFFFFFF AND PUSH20 0xFFFFFFFFFFFFFFFFFFFFFFFFFFFFFFFFFFFFFFFF AND SELFDESTRUCT JUMPDEST PUSH0 PUSH2 0x3CA DUP3 PUSH2 0x5C6 JUMP JUMPDEST SWAP1 POP SWAP2 SWAP1 POP JUMP JUMPDEST PUSH1 0x1 PUSH0 SWAP1 SLOAD SWAP1 PUSH2 0x100 EXP SWAP1 DIV PUSH20 0xFFFFFFFFFFFFFFFFFFFFFFFFFFFFFFFFFFFFFFFF AND DUP2 JUMP JUMPDEST PUSH0 PUSH2 0x400 DUP3 PUSH2 0x5DF JUMP JUMPDEST SWAP1 POP SWAP2 SWAP1 POP JUMP JUMPDEST PUSH0 PUSH2 0x412 DUP4 DUP4 PUSH2 0x553 JUMP JUMPDEST SWAP1 POP SWAP3 SWAP2 POP POP JUMP JUMPDEST PUSH1 0x3 SLOAD DUP2 JUMP JUMPDEST PUSH1 0x1 PUSH0 SWAP1 SLOAD SWAP1 PUSH2 0x100 EXP SWAP1 DIV PUSH20 0xFFFFFFFFFFFFFFFFFFFFFFFFFFFFFFFFFFFFFFFF AND PUSH20 0xFFFFFFFFFFFFFFFFFFFFFFFFFFFFFFFFFFFFFFFF AND CALLER PUSH20 0xFFFFFFFFFFFFFFFFFFFFFFFFFFFFFFFFFFFFFFFF AND EQ PUSH2 0x4AF JUMPI PUSH1 0x40 MLOAD PUSH32 0x8C379A000000000000000000000000000000000000000000000000000000000 DUP2 MSTORE PUSH1 0x4 ADD PUSH2 0x4A6 SWAP1 PUSH2 0xF29 JUMP JUMPDEST PUSH1 0x40 MLOAD DUP1 SWAP2 SUB SWAP1 REVERT JUMPDEST PUSH1 0x3 SLOAD TIMESTAMP LT ISZERO PUSH2 0x4F4 JUMPI PUSH1 0x40 MLOAD PUSH32 0x8C379A000000000000000000000000000000000000000000000000000000000 DUP2 MSTORE PUSH1 0x4 ADD PUSH2 0x4EB SWAP1 PUSH2 0xF91 JUMP JUMPDEST PUSH1 0x40 MLOAD DUP1 SWAP2 SUB SWAP1 REVERT JUMPDEST PUSH1 0x1 PUSH0 SWAP1 SLOAD SWAP1 PUSH2 0x100 EXP SWAP1 DIV PUSH20 0xFFFFFFFFFFFFFFFFFFFFFFFFFFFFFFFFFFFFFFFF AND PUSH20 0xFFFFFFFFFFFFFFFFFFFFFFFFFFFFFFFFFFFFFFFF AND SELFDESTRUCT JUMPDEST PUSH1 0x2 PUSH0 SWAP1 SLOAD SWAP1 PUSH2 0x100 EXP SWAP1 DIV PUSH20 0xFFFFFFFFFFFFFFFFFFFFFFFFFFFFFFFFFFFFFFFF AND DUP2 JUMP JUMPDEST PUSH0 PUSH1 0x1 PUSH0 SWAP1 SLOAD SWAP1 PUSH2 0x100 EXP SWAP1 DIV PUSH20 0xFFFFFFFFFFFFFFFFFFFFFFFFFFFFFFFFFFFFFFFF AND PUSH20 0xFFFFFFFFFFFFFFFFFFFFFFFFFFFFFFFFFFFFFFFF AND PUSH2 0x5A7 DUP4 PUSH2 0x599 DUP7 PUSH2 0x5C6 JUMP JUMPDEST PUSH2 0x610 SWAP1 SWAP2 SWAP1 PUSH4 0xFFFFFFFF AND JUMP JUMPDEST PUSH20 0xFFFFFFFFFFFFFFFFFFFFFFFFFFFFFFFFFFFFFFFF AND EQ SWAP1 POP SWAP3 SWAP2 POP POP JUMP JUMPDEST PUSH0 PUSH2 0x5D8 PUSH2 0x5D3 DUP4 PUSH2 0x5DF JUMP JUMPDEST PUSH2 0x635 JUMP JUMPDEST SWAP1 POP SWAP2 SWAP1 POP JUMP JUMPDEST PUSH0 ADDRESS DUP3 PUSH1 0x40 MLOAD PUSH1 0x20 ADD PUSH2 0x5F3 SWAP3 SWAP2 SWAP1 PUSH2 0x1025 JUMP JUMPDEST PUSH1 0x40 MLOAD PUSH1 0x20 DUP2 DUP4 SUB SUB DUP2 MSTORE SWAP1 PUSH1 0x40 MSTORE DUP1 MLOAD SWAP1 PUSH1 0x20 ADD KECCAK256 SWAP1 POP SWAP2 SWAP1 POP JUMP JUMPDEST PUSH0 PUSH0 PUSH0 PUSH2 0x61D DUP6 DUP6 PUSH2 0x664 JUMP JUMPDEST SWAP2 POP SWAP2 POP PUSH2 0x62A DUP2 PUSH2 0x6DF JUMP JUMPDEST DUP2 SWAP3 POP POP POP SWAP3 SWAP2 POP POP JUMP JUMPDEST PUSH0 DUP2 PUSH1 0x40 MLOAD PUSH1 0x20 ADD PUSH2 0x647 SWAP2 SWAP1 PUSH2 0x10C4 JUMP JUMPDEST PUSH1 0x40 MLOAD PUSH1 0x20 DUP2 DUP4 SUB SUB DUP2 MSTORE SWAP1 PUSH1 0x40 MSTORE DUP1 MLOAD SWAP1 PUSH1 0x20 ADD KECCAK256 SWAP1 POP SWAP2 SWAP1 POP JUMP JUMPDEST PUSH0 PUSH0 PUSH1 0x41 DUP4 MLOAD SUB PUSH2 0x6A1 JUMPI PUSH0 PUSH0 PUSH0 PUSH1 0x20 DUP7 ADD MLOAD SWAP3 POP PUSH1 0x40 DUP7 ADD MLOAD SWAP2 POP PUSH1 0x60 DUP7 ADD MLOAD PUSH0 BYTE SWAP1 POP PUSH2 0x695 DUP8 DUP3 DUP6 DUP6 PUSH2 0x8AA JUMP JUMPDEST SWAP5 POP SWAP5 POP POP POP POP PUSH2 0x6D8 JUMP JUMPDEST PUSH1 0x40 DUP4 MLOAD SUB PUSH2 0x6D0 JUMPI PUSH0 PUSH0 PUSH1 0x20 DUP6 ADD MLOAD SWAP2 POP PUSH1 0x40 DUP6 ADD MLOAD SWAP1 POP PUSH2 0x6C5 DUP7 DUP4 DUP4 PUSH2 0x9AB JUMP JUMPDEST SWAP4 POP SWAP4 POP POP POP PUSH2 0x6D8 JUMP JUMPDEST PUSH0 PUSH1 0x2 SWAP2 POP SWAP2 POP JUMPDEST SWAP3 POP SWAP3 SWAP1 POP JUMP JUMPDEST PUSH0 PUSH1 0x4 DUP2 GT ISZERO PUSH2 0x6F2 JUMPI PUSH2 0x6F1 PUSH2 0x10E9 JUMP JUMPDEST JUMPDEST DUP2 PUSH1 0x4 DUP2 GT ISZERO PUSH2 0x705 JUMPI PUSH2 0x704 PUSH2 0x10E9 JUMP JUMPDEST JUMPDEST SUB ISZERO PUSH2 0x8A7 JUMPI PUSH1 0x1 PUSH1 0x4 DUP2 GT ISZERO PUSH2 0x71F JUMPI PUSH2 0x71E PUSH2 0x10E9 JUMP JUMPDEST JUMPDEST DUP2 PUSH1 0x4 DUP2 GT ISZERO PUSH2 0x732 JUMPI PUSH2 0x731 PUSH2 0x10E9 JUMP JUMPDEST JUMPDEST SUB PUSH2 0x772 JUMPI PUSH1 0x40 MLOAD PUSH32 0x8C379A000000000000000000000000000000000000000000000000000000000 DUP2 MSTORE PUSH1 0x4 ADD PUSH2 0x769 SWAP1 PUSH2 0x1160 JUMP JUMPDEST PUSH1 0x40 MLOAD DUP1 SWAP2 SUB SWAP1 REVERT JUMPDEST PUSH1 0x2 PUSH1 0x4 DUP2 GT ISZERO PUSH2 0x786 JUMPI PUSH2 0x785 PUSH2 0x10E9 JUMP JUMPDEST JUMPDEST DUP2 PUSH1 0x4 DUP2 GT ISZERO PUSH2 0x799 JUMPI PUSH2 0x798 PUSH2 0x10E9 JUMP JUMPDEST JUMPDEST SUB PUSH2 0x7D9 JUMPI PUSH1 0x40 MLOAD PUSH32 0x8C379A000000000000000000000000000000000000000000000000000000000 DUP2 MSTORE PUSH1 0x4 ADD PUSH2 0x7D0 SWAP1 PUSH2 0x11C8 JUMP JUMPDEST PUSH1 0x40 MLOAD DUP1 SWAP2 SUB SWAP1 REVERT JUMPDEST PUSH1 0x3 PUSH1 0x4 DUP2 GT ISZERO PUSH2 0x7ED JUMPI PUSH2 0x7EC PUSH2 0x10E9 JUMP JUMPDEST JUMPDEST DUP2 PUSH1 0x4 DUP2 GT ISZERO PUSH2 0x800 JUMPI PUSH2 0x7FF PUSH2 0x10E9 JUMP JUMPDEST JUMPDEST SUB PUSH2 0x840 JUMPI PUSH1 0x40 MLOAD PUSH32 0x8C379A000000000000000000000000000000000000000000000000000000000 DUP2 MSTORE PUSH1 0x4 ADD PUSH2 0x837 SWAP1 PUSH2 0x1256 JUMP JUMPDEST PUSH1 0x40 MLOAD DUP1 SWAP2 SUB SWAP1 REVERT JUMPDEST PUSH1 0x4 DUP1 DUP2 GT ISZERO PUSH2 0x853 JUMPI PUSH2 0x852 PUSH2 0x10E9 JUMP JUMPDEST JUMPDEST DUP2 PUSH1 0x4 DUP2 GT ISZERO PUSH2 0x866 JUMPI PUSH2 0x865 PUSH2 0x10E9 JUMP JUMPDEST JUMPDEST SUB PUSH2 0x8A6 JUMPI PUSH1 0x40 MLOAD PUSH32 0x8C379A000000000000000000000000000000000000000000000000000000000 DUP2 MSTORE PUSH1 0x4 ADD PUSH2 0x89D SWAP1 PUSH2 0x12E4 JUMP JUMPDEST PUSH1 0x40 MLOAD DUP1 SWAP2 SUB SWAP1 REVERT JUMPDEST JUMPDEST POP JUMP JUMPDEST PUSH0 PUSH0 PUSH32 0x7FFFFFFFFFFFFFFFFFFFFFFFFFFFFFFF5D576E7357A4501DDFE92F46681B20A0 DUP4 PUSH0 SHR GT ISZERO PUSH2 0x8E2 JUMPI PUSH0 PUSH1 0x3 SWAP2 POP SWAP2 POP PUSH2 0x9A2 JUMP JUMPDEST PUSH1 0x1B DUP6 PUSH1 0xFF AND EQ ISZERO DUP1 ISZERO PUSH2 0x8FA JUMPI POP PUSH1 0x1C DUP6 PUSH1 0xFF AND EQ ISZERO JUMPDEST ISZERO PUSH2 0x90B JUMPI PUSH0 PUSH1 0x4 SWAP2 POP SWAP2 POP PUSH2 0x9A2 JUMP JUMPDEST PUSH0 PUSH1 0x1 DUP8 DUP8 DUP8 DUP8 PUSH1 0x40 MLOAD PUSH0 DUP2 MSTORE PUSH1 0x20 ADD PUSH1 0x40 MSTORE PUSH1 0x40 MLOAD PUSH2 0x92E SWAP5 SWAP4 SWAP3 SWAP2 SWAP1 PUSH2 0x131D JUMP JUMPDEST PUSH1 0x20 PUSH1 0x40 MLOAD PUSH1 0x20 DUP2 SUB SWAP1 DUP1 DUP5 SUB SWAP1 DUP6 GAS STATICCALL ISZERO DUP1 ISZERO PUSH2 0x94E JUMPI RETURNDATASIZE PUSH0 PUSH0 RETURNDATACOPY RETURNDATASIZE PUSH0 REVERT JUMPDEST POP POP POP PUSH1 0x20 PUSH1 0x40 MLOAD SUB MLOAD SWAP1 POP PUSH0 PUSH20 0xFFFFFFFFFFFFFFFFFFFFFFFFFFFFFFFFFFFFFFFF AND DUP2 PUSH20 0xFFFFFFFFFFFFFFFFFFFFFFFFFFFFFFFFFFFFFFFF AND SUB PUSH2 0x99A JUMPI PUSH0 PUSH1 0x1 SWAP3 POP SWAP3 POP POP PUSH2 0x9A2 JUMP JUMPDEST DUP1 PUSH0 SWAP3 POP SWAP3 POP POP JUMPDEST SWAP5 POP SWAP5 SWAP3 POP POP POP JUMP JUMPDEST PUSH0 PUSH0 PUSH0 PUSH32 0x7FFFFFFFFFFFFFFFFFFFFFFFFFFFFFFFFFFFFFFFFFFFFFFFFFFFFFFFFFFFFFFF PUSH0 SHL DUP5 AND SWAP1 POP PUSH0 PUSH1 0x1B PUSH1 0xFF DUP7 PUSH0 SHR SWAP1 SHR PUSH2 0x9E9 SWAP2 SWAP1 PUSH2 0x138D JUMP JUMPDEST SWAP1 POP PUSH2 0x9F7 DUP8 DUP3 DUP9 DUP6 PUSH2 0x8AA JUMP JUMPDEST SWAP4 POP SWAP4 POP POP POP SWAP4 POP SWAP4 SWAP2 POP POP JUMP JUMPDEST PUSH0 PUSH1 0x40 MLOAD SWAP1 POP SWAP1 JUMP JUMPDEST PUSH0 PUSH0 REVERT JUMPDEST PUSH0 PUSH0 REVERT JUMPDEST PUSH0 DUP2 SWAP1 POP SWAP2 SWAP1 POP JUMP JUMPDEST PUSH2 0xA28 DUP2 PUSH2 0xA16 JUMP JUMPDEST DUP2 EQ PUSH2 0xA32 JUMPI PUSH0 PUSH0 REVERT JUMPDEST POP JUMP JUMPDEST PUSH0 DUP2 CALLDATALOAD SWAP1 POP PUSH2 0xA43 DUP2 PUSH2 0xA1F JUMP JUMPDEST SWAP3 SWAP2 POP POP JUMP JUMPDEST PUSH0 PUSH0 REVERT JUMPDEST PUSH0 PUSH0 REVERT JUMPDEST PUSH0 PUSH1 0x1F NOT PUSH1 0x1F DUP4 ADD AND SWAP1 POP SWAP2 SWAP1 POP JUMP JUMPDEST PUSH32 0x4E487B7100000000000000000000000000000000000000000000000000000000 PUSH0 MSTORE PUSH1 0x41 PUSH1 0x4 MSTORE PUSH1 0x24 PUSH0 REVERT JUMPDEST PUSH2 0xA97 DUP3 PUSH2 0xA51 JUMP JUMPDEST DUP2 ADD DUP2 DUP2 LT PUSH8 0xFFFFFFFFFFFFFFFF DUP3 GT OR ISZERO PUSH2 0xAB6 JUMPI PUSH2 0xAB5 PUSH2 0xA61 JUMP JUMPDEST JUMPDEST DUP1 PUSH1 0x40 MSTORE POP POP POP JUMP JUMPDEST PUSH0 PUSH2 0xAC8 PUSH2 0xA05 JUMP JUMPDEST SWAP1 POP PUSH2 0xAD4 DUP3 DUP3 PUSH2 0xA8E JUMP JUMPDEST SWAP2 SWAP1 POP JUMP JUMPDEST PUSH0 PUSH8 0xFFFFFFFFFFFFFFFF DUP3 GT ISZERO PUSH2 0xAF3 JUMPI PUSH2 0xAF2 PUSH2 0xA61 JUMP JUMPDEST JUMPDEST PUSH2 0xAFC DUP3 PUSH2 0xA51 JUMP JUMPDEST SWAP1 POP PUSH1 0x20 DUP2 ADD SWAP1 POP SWAP2 SWAP1 POP JUMP JUMPDEST DUP3 DUP2 DUP4 CALLDATACOPY PUSH0 DUP4 DUP4 ADD MSTORE POP POP POP JUMP JUMPDEST PUSH0 PUSH2 0xB29 PUSH2 0xB24 DUP5 PUSH2 0xAD9 JUMP JUMPDEST PUSH2 0xABF JUMP JUMPDEST SWAP1 POP DUP3 DUP2 MSTORE PUSH1 0x20 DUP2 ADD DUP5 DUP5 DUP5 ADD GT ISZERO PUSH2 0xB45 JUMPI PUSH2 0xB44 PUSH2 0xA4D JUMP JUMPDEST JUMPDEST PUSH2 0xB50 DUP5 DUP3 DUP6 PUSH2 0xB09 JUMP JUMPDEST POP SWAP4 SWAP3 POP POP POP JUMP JUMPDEST PUSH0 DUP3 PUSH1 0x1F DUP4 ADD SLT PUSH2 0xB6C JUMPI PUSH2 0xB6B PUSH2 0xA49 JUMP JUMPDEST JUMPDEST DUP2 CALLDATALOAD PUSH2 0xB7C DUP5 DUP3 PUSH1 0x20 DUP7 ADD PUSH2 0xB17 JUMP JUMPDEST SWAP2 POP POP SWAP3 SWAP2 POP POP JUMP JUMPDEST PUSH0 PUSH0 PUSH1 0x40 DUP4 DUP6 SUB SLT ISZERO PUSH2 0xB9B JUMPI PUSH2 0xB9A PUSH2 0xA0E JUMP JUMPDEST JUMPDEST PUSH0 PUSH2 0xBA8 DUP6 DUP3 DUP7 ADD PUSH2 0xA35 JUMP JUMPDEST SWAP3 POP POP PUSH1 0x20 DUP4 ADD CALLDATALOAD PUSH8 0xFFFFFFFFFFFFFFFF DUP2 GT ISZERO PUSH2 0xBC9 JUMPI PUSH2 0xBC8 PUSH2 0xA12 JUMP JUMPDEST JUMPDEST PUSH2 0xBD5 DUP6 DUP3 DUP7 ADD PUSH2 0xB58 JUMP JUMPDEST SWAP2 POP POP SWAP3 POP SWAP3 SWAP1 POP JUMP JUMPDEST PUSH0 PUSH1 0x20 DUP3 DUP5 SUB SLT ISZERO PUSH2 0xBF4 JUMPI PUSH2 0xBF3 PUSH2 0xA0E JUMP JUMPDEST JUMPDEST PUSH0 PUSH2 0xC01 DUP5 DUP3 DUP6 ADD PUSH2 0xA35 JUMP JUMPDEST SWAP2 POP POP SWAP3 SWAP2 POP POP JUMP JUMPDEST PUSH0 DUP2 SWAP1 POP SWAP2 SWAP1 POP JUMP JUMPDEST PUSH2 0xC1C DUP2 PUSH2 0xC0A JUMP JUMPDEST DUP3 MSTORE POP POP JUMP JUMPDEST PUSH0 PUSH1 0x20 DUP3 ADD SWAP1 POP PUSH2 0xC35 PUSH0 DUP4 ADD DUP5 PUSH2 0xC13 JUMP JUMPDEST SWAP3 SWAP2 POP POP JUMP JUMPDEST PUSH0 PUSH20 0xFFFFFFFFFFFFFFFFFFFFFFFFFFFFFFFFFFFFFFFF DUP3 AND SWAP1 POP SWAP2 SWAP1 POP JUMP JUMPDEST PUSH0 PUSH2 0xC64 DUP3 PUSH2 0xC3B JUMP JUMPDEST SWAP1 POP SWAP2 SWAP1 POP JUMP JUMPDEST PUSH2 0xC74 DUP2 PUSH2 0xC5A JUMP JUMPDEST DUP3 MSTORE POP POP JUMP JUMPDEST PUSH0 PUSH1 0x20 DUP3 ADD SWAP1 POP PUSH2 0xC8D PUSH0 DUP4 ADD DUP5 PUSH2 0xC6B JUMP JUMPDEST SWAP3 SWAP2 POP POP JUMP JUMPDEST PUSH0 DUP2 ISZERO ISZERO SWAP1 POP SWAP2 SWAP1 POP JUMP JUMPDEST PUSH2 0xCA7 DUP2 PUSH2 0xC93 JUMP JUMPDEST DUP3 MSTORE POP POP JUMP JUMPDEST PUSH0 PUSH1 0x20 DUP3 ADD SWAP1 POP PUSH2 0xCC0 PUSH0 DUP4 ADD DUP5 PUSH2 0xC9E JUMP JUMPDEST SWAP3 SWAP2 POP POP JUMP JUMPDEST PUSH2 0xCCF DUP2 PUSH2 0xA16 JUMP JUMPDEST DUP3 MSTORE POP POP JUMP JUMPDEST PUSH0 PUSH1 0x20 DUP3 ADD SWAP1 POP PUSH2 0xCE8 PUSH0 DUP4 ADD DUP5 PUSH2 0xCC6 JUMP JUMPDEST SWAP3 SWAP2 POP POP JUMP JUMPDEST PUSH0 DUP3 DUP3 MSTORE PUSH1 0x20 DUP3 ADD SWAP1 POP SWAP3 SWAP2 POP POP JUMP JUMPDEST PUSH32 0x5265656E7472616E637947756172643A207265656E7472616E742063616C6C00 PUSH0 DUP3 ADD MSTORE POP JUMP JUMPDEST PUSH0 PUSH2 0xD32 PUSH1 0x1F DUP4 PUSH2 0xCEE JUMP JUMPDEST SWAP2 POP PUSH2 0xD3D DUP3 PUSH2 0xCFE JUMP JUMPDEST PUSH1 0x20 DUP3 ADD SWAP1 POP SWAP2 SWAP1 POP JUMP JUMPDEST PUSH0 PUSH1 0x20 DUP3 ADD SWAP1 POP DUP2 DUP2 SUB PUSH0 DUP4 ADD MSTORE PUSH2 0xD5F DUP2 PUSH2 0xD26 JUMP JUMPDEST SWAP1 POP SWAP2 SWAP1 POP JUMP JUMPDEST PUSH32 0x2172656365697665720000000000000000000000000000000000000000000000 PUSH0 DUP3 ADD MSTORE POP JUMP JUMPDEST PUSH0 PUSH2 0xD9A PUSH1 0x9 DUP4 PUSH2 0xCEE JUMP JUMPDEST SWAP2 POP PUSH2 0xDA5 DUP3 PUSH2 0xD66 JUMP JUMPDEST PUSH1 0x20 DUP3 ADD SWAP1 POP SWAP2 SWAP1 POP JUMP JUMPDEST PUSH0 PUSH1 0x20 DUP3 ADD SWAP1 POP DUP2 DUP2 SUB PUSH0 DUP4 ADD MSTORE PUSH2 0xDC7 DUP2 PUSH2 0xD8E JUMP JUMPDEST SWAP1 POP SWAP2 SWAP1 POP JUMP JUMPDEST PUSH32 0x696E76616C696420736967000000000000000000000000000000000000000000 PUSH0 DUP3 ADD MSTORE POP JUMP JUMPDEST PUSH0 PUSH2 0xE02 PUSH1 0xB DUP4 PUSH2 0xCEE JUMP JUMPDEST SWAP2 POP PUSH2 0xE0D DUP3 PUSH2 0xDCE JUMP JUMPDEST PUSH1 0x20 DUP3 ADD SWAP1 POP SWAP2 SWAP1 POP JUMP JUMPDEST PUSH0 PUSH1 0x20 DUP3 ADD SWAP1 POP DUP2 DUP2 SUB PUSH0 DUP4 ADD MSTORE PUSH2 0xE2F DUP2 PUSH2 0xDF6 JUMP JUMPDEST SWAP1 POP SWAP2 SWAP1 POP JUMP JUMPDEST PUSH0 DUP2 SWAP1 POP SWAP3 SWAP2 POP POP JUMP JUMPDEST POP JUMP JUMPDEST PUSH0 PUSH2 0xE4E PUSH0 DUP4 PUSH2 0xE36 JUMP JUMPDEST SWAP2 POP PUSH2 0xE59 DUP3 PUSH2 0xE40 JUMP JUMPDEST PUSH0 DUP3 ADD SWAP1 POP SWAP2 SWAP1 POP JUMP JUMPDEST PUSH0 PUSH2 0xE6D DUP3 PUSH2 0xE43 JUMP JUMPDEST SWAP2 POP DUP2 SWAP1 POP SWAP2 SWAP1 POP JUMP JUMPDEST PUSH32 0x4661696C656420746F2073656E64204574686572000000000000000000000000 PUSH0 DUP3 ADD MSTORE POP JUMP JUMPDEST PUSH0 PUSH2 0xEAB PUSH1 0x14 DUP4 PUSH2 0xCEE JUMP JUMPDEST SWAP2 POP PUSH2 0xEB6 DUP3 PUSH2 0xE77 JUMP JUMPDEST PUSH1 0x20 DUP3 ADD SWAP1 POP SWAP2 SWAP1 POP JUMP JUMPDEST PUSH0 PUSH1 0x20 DUP3 ADD SWAP1 POP DUP2 DUP2 SUB PUSH0 DUP4 ADD MSTORE PUSH2 0xED8 DUP2 PUSH2 0xE9F JUMP JUMPDEST SWAP1 POP SWAP2 SWAP1 POP JUMP JUMPDEST PUSH32 0x2173656E64657200000000000000000000000000000000000000000000000000 PUSH0 DUP3 ADD MSTORE POP JUMP JUMPDEST PUSH0 PUSH2 0xF13 PUSH1 0x7 DUP4 PUSH2 0xCEE JUMP JUMPDEST SWAP2 POP PUSH2 0xF1E DUP3 PUSH2 0xEDF JUMP JUMPDEST PUSH1 0x20 DUP3 ADD SWAP1 POP SWAP2 SWAP1 POP JUMP JUMPDEST PUSH0 PUSH1 0x20 DUP3 ADD SWAP1 POP DUP2 DUP2 SUB PUSH0 DUP4 ADD MSTORE PUSH2 0xF40 DUP2 PUSH2 0xF07 JUMP JUMPDEST SWAP1 POP SWAP2 SWAP1 POP JUMP JUMPDEST PUSH32 0x2165787069726564000000000000000000000000000000000000000000000000 PUSH0 DUP3 ADD MSTORE POP JUMP JUMPDEST PUSH0 PUSH2 0xF7B PUSH1 0x8 DUP4 PUSH2 0xCEE JUMP JUMPDEST SWAP2 POP PUSH2 0xF86 DUP3 PUSH2 0xF47 JUMP JUMPDEST PUSH1 0x20 DUP3 ADD SWAP1 POP SWAP2 SWAP1 POP JUMP JUMPDEST PUSH0 PUSH1 0x20 DUP3 ADD SWAP1 POP DUP2 DUP2 SUB PUSH0 DUP4 ADD MSTORE PUSH2 0xFA8 DUP2 PUSH2 0xF6F JUMP JUMPDEST SWAP1 POP SWAP2 SWAP1 POP JUMP JUMPDEST PUSH0 PUSH2 0xFB9 DUP3 PUSH2 0xC3B JUMP JUMPDEST SWAP1 POP SWAP2 SWAP1 POP JUMP JUMPDEST PUSH0 DUP2 PUSH1 0x60 SHL SWAP1 POP SWAP2 SWAP1 POP JUMP JUMPDEST PUSH0 PUSH2 0xFD6 DUP3 PUSH2 0xFC0 JUMP JUMPDEST SWAP1 POP SWAP2 SWAP1 POP JUMP JUMPDEST PUSH0 PUSH2 0xFE7 DUP3 PUSH2 0xFCC JUMP JUMPDEST SWAP1 POP SWAP2 SWAP1 POP JUMP JUMPDEST PUSH2 0xFFF PUSH2 0xFFA DUP3 PUSH2 0xFAF JUMP JUMPDEST PUSH2 0xFDD JUMP JUMPDEST DUP3 MSTORE POP POP JUMP JUMPDEST PUSH0 DUP2 SWAP1 POP SWAP2 SWAP1 POP JUMP JUMPDEST PUSH2 0x101F PUSH2 0x101A DUP3 PUSH2 0xA16 JUMP JUMPDEST PUSH2 0x1005 JUMP JUMPDEST DUP3 MSTORE POP POP JUMP JUMPDEST PUSH0 PUSH2 0x1030 DUP3 DUP6 PUSH2 0xFEE JUMP JUMPDEST PUSH1 0x14 DUP3 ADD SWAP2 POP PUSH2 0x1040 DUP3 DUP5 PUSH2 0x100E JUMP JUMPDEST PUSH1 0x20 DUP3 ADD SWAP2 POP DUP2 SWAP1 POP SWAP4 SWAP3 POP POP POP JUMP JUMPDEST PUSH0 DUP2 SWAP1 POP SWAP3 SWAP2 POP POP JUMP JUMPDEST PUSH32 0x19457468657265756D205369676E6564204D6573736167653A0A333200000000 PUSH0 DUP3 ADD MSTORE POP JUMP JUMPDEST PUSH0 PUSH2 0x108E PUSH1 0x1C DUP4 PUSH2 0x1050 JUMP JUMPDEST SWAP2 POP PUSH2 0x1099 DUP3 PUSH2 0x105A JUMP JUMPDEST PUSH1 0x1C DUP3 ADD SWAP1 POP SWAP2 SWAP1 POP JUMP JUMPDEST PUSH0 DUP2 SWAP1 POP SWAP2 SWAP1 POP JUMP JUMPDEST PUSH2 0x10BE PUSH2 0x10B9 DUP3 PUSH2 0xC0A JUMP JUMPDEST PUSH2 0x10A4 JUMP JUMPDEST DUP3 MSTORE POP POP JUMP JUMPDEST PUSH0 PUSH2 0x10CE DUP3 PUSH2 0x1082 JUMP JUMPDEST SWAP2 POP PUSH2 0x10DA DUP3 DUP5 PUSH2 0x10AD JUMP JUMPDEST PUSH1 0x20 DUP3 ADD SWAP2 POP DUP2 SWAP1 POP SWAP3 SWAP2 POP POP JUMP JUMPDEST PUSH32 0x4E487B7100000000000000000000000000000000000000000000000000000000 PUSH0 MSTORE PUSH1 0x21 PUSH1 0x4 MSTORE PUSH1 0x24 PUSH0 REVERT JUMPDEST PUSH32 0x45434453413A20696E76616C6964207369676E61747572650000000000000000 PUSH0 DUP3 ADD MSTORE POP JUMP JUMPDEST PUSH0 PUSH2 0x114A PUSH1 0x18 DUP4 PUSH2 0xCEE JUMP JUMPDEST SWAP2 POP PUSH2 0x1155 DUP3 PUSH2 0x1116 JUMP JUMPDEST PUSH1 0x20 DUP3 ADD SWAP1 POP SWAP2 SWAP1 POP JUMP JUMPDEST PUSH0 PUSH1 0x20 DUP3 ADD SWAP1 POP DUP2 DUP2 SUB PUSH0 DUP4 ADD MSTORE PUSH2 0x1177 DUP2 PUSH2 0x113E JUMP JUMPDEST SWAP1 POP SWAP2 SWAP1 POP JUMP JUMPDEST PUSH32 0x45434453413A20696E76616C6964207369676E6174757265206C656E67746800 PUSH0 DUP3 ADD MSTORE POP JUMP JUMPDEST PUSH0 PUSH2 0x11B2 PUSH1 0x1F DUP4 PUSH2 0xCEE JUMP JUMPDEST SWAP2 POP PUSH2 0x11BD DUP3 PUSH2 0x117E JUMP JUMPDEST PUSH1 0x20 DUP3 ADD SWAP1 POP SWAP2 SWAP1 POP JUMP JUMPDEST PUSH0 PUSH1 0x20 DUP3 ADD SWAP1 POP DUP2 DUP2 SUB PUSH0 DUP4 ADD MSTORE PUSH2 0x11DF DUP2 PUSH2 0x11A6 JUMP JUMPDEST SWAP1 POP SWAP2 SWAP1 POP JUMP JUMPDEST PUSH32 0x45434453413A20696E76616C6964207369676E6174757265202773272076616C PUSH0 DUP3 ADD MSTORE PUSH32 0x7565000000000000000000000000000000000000000000000000000000000000 PUSH1 0x20 DUP3 ADD MSTORE POP JUMP JUMPDEST PUSH0 PUSH2 0x1240 PUSH1 0x22 DUP4 PUSH2 0xCEE JUMP JUMPDEST SWAP2 POP PUSH2 0x124B DUP3 PUSH2 0x11E6 JUMP JUMPDEST PUSH1 0x40 DUP3 ADD SWAP1 POP SWAP2 SWAP1 POP JUMP JUMPDEST PUSH0 PUSH1 0x20 DUP3 ADD SWAP1 POP DUP2 DUP2 SUB PUSH0 DUP4 ADD MSTORE PUSH2 0x126D DUP2 PUSH2 0x1234 JUMP JUMPDEST SWAP1 POP SWAP2 SWAP1 POP JUMP JUMPDEST PUSH32 0x45434453413A20696E76616C6964207369676E6174757265202776272076616C PUSH0 DUP3 ADD MSTORE PUSH32 0x7565000000000000000000000000000000000000000000000000000000000000 PUSH1 0x20 DUP3 ADD MSTORE POP JUMP JUMPDEST PUSH0 PUSH2 0x12CE PUSH1 0x22 DUP4 PUSH2 0xCEE JUMP JUMPDEST SWAP2 POP PUSH2 0x12D9 DUP3 PUSH2 0x1274 JUMP JUMPDEST PUSH1 0x40 DUP3 ADD SWAP1 POP SWAP2 SWAP1 POP JUMP JUMPDEST PUSH0 PUSH1 0x20 DUP3 ADD SWAP1 POP DUP2 DUP2 SUB PUSH0 DUP4 ADD MSTORE PUSH2 0x12FB DUP2 PUSH2 0x12C2 JUMP JUMPDEST SWAP1 POP SWAP2 SWAP1 POP JUMP JUMPDEST PUSH0 PUSH1 0xFF DUP3 AND SWAP1 POP SWAP2 SWAP1 POP JUMP JUMPDEST PUSH2 0x1317 DUP2 PUSH2 0x1302 JUMP JUMPDEST DUP3 MSTORE POP POP JUMP JUMPDEST PUSH0 PUSH1 0x80 DUP3 ADD SWAP1 POP PUSH2 0x1330 PUSH0 DUP4 ADD DUP8 PUSH2 0xC13 JUMP JUMPDEST PUSH2 0x133D PUSH1 0x20 DUP4 ADD DUP7 PUSH2 0x130E JUMP JUMPDEST PUSH2 0x134A PUSH1 0x40 DUP4 ADD DUP6 PUSH2 0xC13 JUMP JUMPDEST PUSH2 0x1357 PUSH1 0x60 DUP4 ADD DUP5 PUSH2 0xC13 JUMP JUMPDEST SWAP6 SWAP5 POP POP POP POP POP JUMP JUMPDEST PUSH32 0x4E487B7100000000000000000000000000000000000000000000000000000000 PUSH0 MSTORE PUSH1 0x11 PUSH1 0x4 MSTORE PUSH1 0x24 PUSH0 REVERT JUMPDEST PUSH0 PUSH2 0x1397 DUP3 PUSH2 0xA16 JUMP JUMPDEST SWAP2 POP PUSH2 0x13A2 DUP4 PUSH2 0xA16 JUMP JUMPDEST SWAP3 POP DUP3 DUP3 ADD SWAP1 POP DUP1 DUP3 GT ISZERO PUSH2 0x13BA JUMPI PUSH2 0x13B9 PUSH2 0x1360 JUMP JUMPDEST JUMPDEST SWAP3 SWAP2 POP POP JUMP INVALID LOG2 PUSH5 0x6970667358 0x22 SLT KECCAK256 0xCD GASPRICE 0xAE PC 0xBC EOFCREATE 0x4F 0xAA PUSH30 0x31769DF4F539F9F2B07254CA8BE768BACD3FC995B66B9564736F6C634300 ADDMOD 0x1E STOP CALLER "
				},
				"gasEstimates": {
					"creation": {
						"codeDepositCost": "1022000",
						"executionCost": "infinite",
						"totalCost": "infinite"
					},
					"external": {
						"cancel()": "34216",
						"close(uint256,bytes)": "infinite",
						"expiresAt()": "2447",
						"getEthSignedHash(uint256)": "infinite",
						"getHash(uint256)": "infinite",
						"receiver()": "2574",
						"sender()": "2553",
						"verify(uint256,bytes)": "infinite"
					},
					"internal": {
						"_getEthSignedHash(uint256)": "infinite",
						"_getHash(uint256)": "infinite",
						"_verify(uint256,bytes memory)": "infinite"
					}
				},
				"methodIdentifiers": {
					"cancel()": "ea8a1af0",
					"close(uint256,bytes)": "415ffba7",
					"expiresAt()": "8622a689",
					"getEthSignedHash(uint256)": "552f50b6",
					"getHash(uint256)": "6b2fafa9",
					"receiver()": "f7260d3e",
					"sender()": "67e404ce",
					"verify(uint256,bytes)": "85852ce4"
				}
			},
			"storageLayout": {
				"storage": [
					{
						"astId": 229,
						"contract": "application_contracts/Uni-Directional Payment Channel.sol:UniDirectionalPaymentChannel",
						"label": "_status",
						"offset": 0,
						"slot": "0",
						"type": "t_uint256"
					},
					{
						"astId": 10,
						"contract": "application_contracts/Uni-Directional Payment Channel.sol:UniDirectionalPaymentChannel",
						"label": "sender",
						"offset": 0,
						"slot": "1",
						"type": "t_address_payable"
					},
					{
						"astId": 12,
						"contract": "application_contracts/Uni-Directional Payment Channel.sol:UniDirectionalPaymentChannel",
						"label": "receiver",
						"offset": 0,
						"slot": "2",
						"type": "t_address_payable"
					},
					{
						"astId": 23,
						"contract": "application_contracts/Uni-Directional Payment Channel.sol:UniDirectionalPaymentChannel",
						"label": "expiresAt",
						"offset": 0,
						"slot": "3",
						"type": "t_uint256"
					}
				],
				"types": {
					"t_address_payable": {
						"encoding": "inplace",
						"label": "address payable",
						"numberOfBytes": "20"
					},
					"t_uint256": {
						"encoding": "inplace",
						"label": "uint256",
						"numberOfBytes": "32"
					}
				}
			},
			"userdoc": {
				"kind": "user",
				"methods": {},
				"version": 1
			}
		}
	}
}