{
	"Library.sol": {
		"TestSafeMath": {
			"abi": [
				{
					"inputs": [
						{
							"internalType": "uint256",
							"name": "x",
							"type": "uint256"
						},
						{
							"internalType": "uint256",
							"name": "y",
							"type": "uint256"
						}
					],
					"name": "testAdd",
					"outputs": [
						{
							"internalType": "uint256",
							"name": "",
							"type": "uint256"
						}
					],
					"stateMutability": "pure",
					"type": "function"
				},
				{
					"inputs": [
						{
							"internalType": "uint256",
							"name": "x",
							"type": "uint256"
						}
					],
					"name": "testSquareRoot",
					"outputs": [
						{
							"internalType": "uint256",
							"name": "",
							"type": "uint256"
						}
					],
					"stateMutability": "pure",
					"type": "function"
				}
			],
			"devdoc": {
				"kind": "dev",
				"methods": {},
				"version": 1
			},
			"evm": {
				"assembly": "    /* \"Library.sol\":614:873  contract TestSafeMath {... */\n  mstore(0x40, 0x80)\n  callvalue\n  dup1\n  iszero\n  tag_1\n  jumpi\n  revert(0x00, 0x00)\ntag_1:\n  pop\n  dataSize(sub_0)\n  dup1\n  dataOffset(sub_0)\n  0x00\n  codecopy\n  0x00\n  return\nstop\n\nsub_0: assembly {\n        /* \"Library.sol\":614:873  contract TestSafeMath {... */\n      mstore(0x40, 0x80)\n      callvalue\n      dup1\n      iszero\n      tag_1\n      jumpi\n      revert(0x00, 0x00)\n    tag_1:\n      pop\n      jumpi(tag_2, lt(calldatasize, 0x04))\n      shr(0xe0, calldataload(0x00))\n      dup1\n      0x6039b0bd\n      eq\n      tag_3\n      jumpi\n      dup1\n      0x7c3ffef2\n      eq\n      tag_4\n      jumpi\n    tag_2:\n      revert(0x00, 0x00)\n        /* \"Library.sol\":773:870  function testSquareRoot(uint x) public pure returns (uint) {... */\n    tag_3:\n      tag_5\n      0x04\n      dup1\n      calldatasize\n      sub\n      dup2\n      add\n      swap1\n      tag_6\n      swap2\n      swap1\n      tag_7\n      jump\t// in\n    tag_6:\n      tag_8\n      jump\t// in\n    tag_5:\n      mload(0x40)\n      tag_9\n      swap2\n      swap1\n      tag_10\n      jump\t// in\n    tag_9:\n      mload(0x40)\n      dup1\n      swap2\n      sub\n      swap1\n      return\n        /* \"Library.sol\":673:767  function testAdd(uint x, uint y) public pure returns (uint) {... */\n    tag_4:\n      tag_11\n      0x04\n      dup1\n      calldatasize\n      sub\n      dup2\n      add\n      swap1\n      tag_12\n      swap2\n      swap1\n      tag_13\n      jump\t// in\n    tag_12:\n      tag_14\n      jump\t// in\n    tag_11:\n      mload(0x40)\n      tag_15\n      swap2\n      swap1\n      tag_10\n      jump\t// in\n    tag_15:\n      mload(0x40)\n      dup1\n      swap2\n      sub\n      swap1\n      return\n        /* \"Library.sol\":773:870  function testSquareRoot(uint x) public pure returns (uint) {... */\n    tag_8:\n        /* \"Library.sol\":826:830  uint */\n      0x00\n        /* \"Library.sol\":850:862  Math.sqrt(x) */\n      tag_17\n        /* \"Library.sol\":860:861  x */\n      dup3\n        /* \"Library.sol\":850:859  Math.sqrt */\n      tag_18\n        /* \"Library.sol\":850:862  Math.sqrt(x) */\n      jump\t// in\n    tag_17:\n        /* \"Library.sol\":843:862  return Math.sqrt(x) */\n      swap1\n      pop\n        /* \"Library.sol\":773:870  function testSquareRoot(uint x) public pure returns (uint) {... */\n      swap2\n      swap1\n      pop\n      jump\t// out\n        /* \"Library.sol\":673:767  function testAdd(uint x, uint y) public pure returns (uint) {... */\n    tag_14:\n        /* \"Library.sol\":727:731  uint */\n      0x00\n        /* \"Library.sol\":751:759  x.add(y) */\n      tag_20\n        /* \"Library.sol\":757:758  y */\n      dup3\n        /* \"Library.sol\":751:752  x */\n      dup5\n        /* \"Library.sol\":751:756  x.add */\n      tag_21\n      swap1\n        /* \"Library.sol\":751:759  x.add(y) */\n      swap2\n      swap1\n      0xffffffff\n      and\n      jump\t// in\n    tag_20:\n        /* \"Library.sol\":744:759  return x.add(y) */\n      swap1\n      pop\n        /* \"Library.sol\":673:767  function testAdd(uint x, uint y) public pure returns (uint) {... */\n      swap3\n      swap2\n      pop\n      pop\n      jump\t// out\n        /* \"Library.sol\":265:607  function sqrt(uint y) internal pure returns (uint z) {... */\n    tag_18:\n        /* \"Library.sol\":310:316  uint z */\n      0x00\n        /* \"Library.sol\":337:338  3 */\n      0x03\n        /* \"Library.sol\":333:334  y */\n      dup3\n        /* \"Library.sol\":333:338  y > 3 */\n      gt\n        /* \"Library.sol\":329:561  if (y > 3) {... */\n      iszero\n      tag_23\n      jumpi\n        /* \"Library.sol\":359:360  y */\n      dup2\n        /* \"Library.sol\":355:360  z = y */\n      swap1\n      pop\n        /* \"Library.sol\":375:381  uint x */\n      0x00\n        /* \"Library.sol\":392:393  1 */\n      0x01\n        /* \"Library.sol\":388:389  2 */\n      0x02\n        /* \"Library.sol\":384:385  y */\n      dup5\n        /* \"Library.sol\":384:389  y / 2 */\n      tag_24\n      swap2\n      swap1\n      tag_25\n      jump\t// in\n    tag_24:\n        /* \"Library.sol\":384:393  y / 2 + 1 */\n      tag_26\n      swap2\n      swap1\n      tag_27\n      jump\t// in\n    tag_26:\n        /* \"Library.sol\":375:393  uint x = y / 2 + 1 */\n      swap1\n      pop\n        /* \"Library.sol\":408:500  while (x < z) {... */\n    tag_28:\n        /* \"Library.sol\":419:420  z */\n      dup2\n        /* \"Library.sol\":415:416  x */\n      dup2\n        /* \"Library.sol\":415:420  x < z */\n      lt\n        /* \"Library.sol\":408:500  while (x < z) {... */\n      iszero\n      tag_29\n      jumpi\n        /* \"Library.sol\":445:446  x */\n      dup1\n        /* \"Library.sol\":441:446  z = x */\n      swap2\n      pop\n        /* \"Library.sol\":483:484  2 */\n      0x02\n        /* \"Library.sol\":478:479  x */\n      dup2\n        /* \"Library.sol\":474:475  x */\n      dup3\n        /* \"Library.sol\":470:471  y */\n      dup6\n        /* \"Library.sol\":470:475  y / x */\n      tag_30\n      swap2\n      swap1\n      tag_25\n      jump\t// in\n    tag_30:\n        /* \"Library.sol\":470:479  y / x + x */\n      tag_31\n      swap2\n      swap1\n      tag_27\n      jump\t// in\n    tag_31:\n        /* \"Library.sol\":469:484  (y / x + x) / 2 */\n      tag_32\n      swap2\n      swap1\n      tag_25\n      jump\t// in\n    tag_32:\n        /* \"Library.sol\":465:484  x = (y / x + x) / 2 */\n      swap1\n      pop\n        /* \"Library.sol\":408:500  while (x < z) {... */\n      jump(tag_28)\n    tag_29:\n        /* \"Library.sol\":340:511  {... */\n      pop\n        /* \"Library.sol\":329:561  if (y > 3) {... */\n      jump(tag_33)\n    tag_23:\n        /* \"Library.sol\":526:527  0 */\n      0x00\n        /* \"Library.sol\":521:522  y */\n      dup3\n        /* \"Library.sol\":521:527  y != 0 */\n      eq\n        /* \"Library.sol\":517:561  if (y != 0) {... */\n      tag_34\n      jumpi\n        /* \"Library.sol\":548:549  1 */\n      0x01\n        /* \"Library.sol\":544:549  z = 1 */\n      swap1\n      pop\n        /* \"Library.sol\":517:561  if (y != 0) {... */\n    tag_34:\n        /* \"Library.sol\":329:561  if (y > 3) {... */\n    tag_33:\n        /* \"Library.sol\":265:607  function sqrt(uint y) internal pure returns (uint z) {... */\n      swap2\n      swap1\n      pop\n      jump\t// out\n        /* \"Library.sol\":85:238  function add(uint x, uint y) internal pure returns (uint) {... */\n    tag_21:\n        /* \"Library.sol\":137:141  uint */\n      0x00\n        /* \"Library.sol\":154:160  uint z */\n      0x00\n        /* \"Library.sol\":167:168  y */\n      dup3\n        /* \"Library.sol\":163:164  x */\n      dup5\n        /* \"Library.sol\":163:168  x + y */\n      tag_36\n      swap2\n      swap1\n      tag_27\n      jump\t// in\n    tag_36:\n        /* \"Library.sol\":154:168  uint z = x + y */\n      swap1\n      pop\n        /* \"Library.sol\":192:193  x */\n      dup4\n        /* \"Library.sol\":187:188  z */\n      dup2\n        /* \"Library.sol\":187:193  z >= x */\n      lt\n      iszero\n        /* \"Library.sol\":179:211  require(z >= x, \"uint overflow\") */\n      tag_37\n      jumpi\n      mload(0x40)\n      0x08c379a000000000000000000000000000000000000000000000000000000000\n      dup2\n      mstore\n      0x04\n      add\n      tag_38\n      swap1\n      tag_39\n      jump\t// in\n    tag_38:\n      mload(0x40)\n      dup1\n      swap2\n      sub\n      swap1\n      revert\n    tag_37:\n        /* \"Library.sol\":229:230  z */\n      dup1\n        /* \"Library.sol\":222:230  return z */\n      swap2\n      pop\n      pop\n        /* \"Library.sol\":85:238  function add(uint x, uint y) internal pure returns (uint) {... */\n      swap3\n      swap2\n      pop\n      pop\n      jump\t// out\n        /* \"#utility.yul\":88:205   */\n    tag_41:\n        /* \"#utility.yul\":197:198   */\n      0x00\n        /* \"#utility.yul\":194:195   */\n      0x00\n        /* \"#utility.yul\":187:199   */\n      revert\n        /* \"#utility.yul\":334:411   */\n    tag_43:\n        /* \"#utility.yul\":371:378   */\n      0x00\n        /* \"#utility.yul\":400:405   */\n      dup2\n        /* \"#utility.yul\":389:405   */\n      swap1\n      pop\n        /* \"#utility.yul\":334:411   */\n      swap2\n      swap1\n      pop\n      jump\t// out\n        /* \"#utility.yul\":417:539   */\n    tag_44:\n        /* \"#utility.yul\":490:514   */\n      tag_58\n        /* \"#utility.yul\":508:513   */\n      dup2\n        /* \"#utility.yul\":490:514   */\n      tag_43\n      jump\t// in\n    tag_58:\n        /* \"#utility.yul\":483:488   */\n      dup2\n        /* \"#utility.yul\":480:515   */\n      eq\n        /* \"#utility.yul\":470:533   */\n      tag_59\n      jumpi\n        /* \"#utility.yul\":529:530   */\n      0x00\n        /* \"#utility.yul\":526:527   */\n      0x00\n        /* \"#utility.yul\":519:531   */\n      revert\n        /* \"#utility.yul\":470:533   */\n    tag_59:\n        /* \"#utility.yul\":417:539   */\n      pop\n      jump\t// out\n        /* \"#utility.yul\":545:684   */\n    tag_45:\n        /* \"#utility.yul\":591:596   */\n      0x00\n        /* \"#utility.yul\":629:635   */\n      dup2\n        /* \"#utility.yul\":616:636   */\n      calldataload\n        /* \"#utility.yul\":607:636   */\n      swap1\n      pop\n        /* \"#utility.yul\":645:678   */\n      tag_61\n        /* \"#utility.yul\":672:677   */\n      dup2\n        /* \"#utility.yul\":645:678   */\n      tag_44\n      jump\t// in\n    tag_61:\n        /* \"#utility.yul\":545:684   */\n      swap3\n      swap2\n      pop\n      pop\n      jump\t// out\n        /* \"#utility.yul\":690:1019   */\n    tag_7:\n        /* \"#utility.yul\":749:755   */\n      0x00\n        /* \"#utility.yul\":798:800   */\n      0x20\n        /* \"#utility.yul\":786:795   */\n      dup3\n        /* \"#utility.yul\":777:784   */\n      dup5\n        /* \"#utility.yul\":773:796   */\n      sub\n        /* \"#utility.yul\":769:801   */\n      slt\n        /* \"#utility.yul\":766:885   */\n      iszero\n      tag_63\n      jumpi\n        /* \"#utility.yul\":804:883   */\n      tag_64\n      tag_41\n      jump\t// in\n    tag_64:\n        /* \"#utility.yul\":766:885   */\n    tag_63:\n        /* \"#utility.yul\":924:925   */\n      0x00\n        /* \"#utility.yul\":949:1002   */\n      tag_65\n        /* \"#utility.yul\":994:1001   */\n      dup5\n        /* \"#utility.yul\":985:991   */\n      dup3\n        /* \"#utility.yul\":974:983   */\n      dup6\n        /* \"#utility.yul\":970:992   */\n      add\n        /* \"#utility.yul\":949:1002   */\n      tag_45\n      jump\t// in\n    tag_65:\n        /* \"#utility.yul\":939:1002   */\n      swap2\n      pop\n        /* \"#utility.yul\":895:1012   */\n      pop\n        /* \"#utility.yul\":690:1019   */\n      swap3\n      swap2\n      pop\n      pop\n      jump\t// out\n        /* \"#utility.yul\":1025:1143   */\n    tag_46:\n        /* \"#utility.yul\":1112:1136   */\n      tag_67\n        /* \"#utility.yul\":1130:1135   */\n      dup2\n        /* \"#utility.yul\":1112:1136   */\n      tag_43\n      jump\t// in\n    tag_67:\n        /* \"#utility.yul\":1107:1110   */\n      dup3\n        /* \"#utility.yul\":1100:1137   */\n      mstore\n        /* \"#utility.yul\":1025:1143   */\n      pop\n      pop\n      jump\t// out\n        /* \"#utility.yul\":1149:1371   */\n    tag_10:\n        /* \"#utility.yul\":1242:1246   */\n      0x00\n        /* \"#utility.yul\":1280:1282   */\n      0x20\n        /* \"#utility.yul\":1269:1278   */\n      dup3\n        /* \"#utility.yul\":1265:1283   */\n      add\n        /* \"#utility.yul\":1257:1283   */\n      swap1\n      pop\n        /* \"#utility.yul\":1293:1364   */\n      tag_69\n        /* \"#utility.yul\":1361:1362   */\n      0x00\n        /* \"#utility.yul\":1350:1359   */\n      dup4\n        /* \"#utility.yul\":1346:1363   */\n      add\n        /* \"#utility.yul\":1337:1343   */\n      dup5\n        /* \"#utility.yul\":1293:1364   */\n      tag_46\n      jump\t// in\n    tag_69:\n        /* \"#utility.yul\":1149:1371   */\n      swap3\n      swap2\n      pop\n      pop\n      jump\t// out\n        /* \"#utility.yul\":1377:1851   */\n    tag_13:\n        /* \"#utility.yul\":1445:1451   */\n      0x00\n        /* \"#utility.yul\":1453:1459   */\n      0x00\n        /* \"#utility.yul\":1502:1504   */\n      0x40\n        /* \"#utility.yul\":1490:1499   */\n      dup4\n        /* \"#utility.yul\":1481:1488   */\n      dup6\n        /* \"#utility.yul\":1477:1500   */\n      sub\n        /* \"#utility.yul\":1473:1505   */\n      slt\n        /* \"#utility.yul\":1470:1589   */\n      iszero\n      tag_71\n      jumpi\n        /* \"#utility.yul\":1508:1587   */\n      tag_72\n      tag_41\n      jump\t// in\n    tag_72:\n        /* \"#utility.yul\":1470:1589   */\n    tag_71:\n        /* \"#utility.yul\":1628:1629   */\n      0x00\n        /* \"#utility.yul\":1653:1706   */\n      tag_73\n        /* \"#utility.yul\":1698:1705   */\n      dup6\n        /* \"#utility.yul\":1689:1695   */\n      dup3\n        /* \"#utility.yul\":1678:1687   */\n      dup7\n        /* \"#utility.yul\":1674:1696   */\n      add\n        /* \"#utility.yul\":1653:1706   */\n      tag_45\n      jump\t// in\n    tag_73:\n        /* \"#utility.yul\":1643:1706   */\n      swap3\n      pop\n        /* \"#utility.yul\":1599:1716   */\n      pop\n        /* \"#utility.yul\":1755:1757   */\n      0x20\n        /* \"#utility.yul\":1781:1834   */\n      tag_74\n        /* \"#utility.yul\":1826:1833   */\n      dup6\n        /* \"#utility.yul\":1817:1823   */\n      dup3\n        /* \"#utility.yul\":1806:1815   */\n      dup7\n        /* \"#utility.yul\":1802:1824   */\n      add\n        /* \"#utility.yul\":1781:1834   */\n      tag_45\n      jump\t// in\n    tag_74:\n        /* \"#utility.yul\":1771:1834   */\n      swap2\n      pop\n        /* \"#utility.yul\":1726:1844   */\n      pop\n        /* \"#utility.yul\":1377:1851   */\n      swap3\n      pop\n      swap3\n      swap1\n      pop\n      jump\t// out\n        /* \"#utility.yul\":1857:2037   */\n    tag_47:\n        /* \"#utility.yul\":1905:1982   */\n      0x4e487b7100000000000000000000000000000000000000000000000000000000\n        /* \"#utility.yul\":1902:1903   */\n      0x00\n        /* \"#utility.yul\":1895:1983   */\n      mstore\n        /* \"#utility.yul\":2002:2006   */\n      0x12\n        /* \"#utility.yul\":1999:2000   */\n      0x04\n        /* \"#utility.yul\":1992:2007   */\n      mstore\n        /* \"#utility.yul\":2026:2030   */\n      0x24\n        /* \"#utility.yul\":2023:2024   */\n      0x00\n        /* \"#utility.yul\":2016:2031   */\n      revert\n        /* \"#utility.yul\":2043:2223   */\n    tag_48:\n        /* \"#utility.yul\":2091:2168   */\n      0x4e487b7100000000000000000000000000000000000000000000000000000000\n        /* \"#utility.yul\":2088:2089   */\n      0x00\n        /* \"#utility.yul\":2081:2169   */\n      mstore\n        /* \"#utility.yul\":2188:2192   */\n      0x11\n        /* \"#utility.yul\":2185:2186   */\n      0x04\n        /* \"#utility.yul\":2178:2193   */\n      mstore\n        /* \"#utility.yul\":2212:2216   */\n      0x24\n        /* \"#utility.yul\":2209:2210   */\n      0x00\n        /* \"#utility.yul\":2202:2217   */\n      revert\n        /* \"#utility.yul\":2229:2414   */\n    tag_25:\n        /* \"#utility.yul\":2269:2270   */\n      0x00\n        /* \"#utility.yul\":2286:2306   */\n      tag_78\n        /* \"#utility.yul\":2304:2305   */\n      dup3\n        /* \"#utility.yul\":2286:2306   */\n      tag_43\n      jump\t// in\n    tag_78:\n        /* \"#utility.yul\":2281:2306   */\n      swap2\n      pop\n        /* \"#utility.yul\":2320:2340   */\n      tag_79\n        /* \"#utility.yul\":2338:2339   */\n      dup4\n        /* \"#utility.yul\":2320:2340   */\n      tag_43\n      jump\t// in\n    tag_79:\n        /* \"#utility.yul\":2315:2340   */\n      swap3\n      pop\n        /* \"#utility.yul\":2359:2360   */\n      dup3\n        /* \"#utility.yul\":2349:2384   */\n      tag_80\n      jumpi\n        /* \"#utility.yul\":2364:2382   */\n      tag_81\n      tag_47\n      jump\t// in\n    tag_81:\n        /* \"#utility.yul\":2349:2384   */\n    tag_80:\n        /* \"#utility.yul\":2406:2407   */\n      dup3\n        /* \"#utility.yul\":2403:2404   */\n      dup3\n        /* \"#utility.yul\":2399:2408   */\n      div\n        /* \"#utility.yul\":2394:2408   */\n      swap1\n      pop\n        /* \"#utility.yul\":2229:2414   */\n      swap3\n      swap2\n      pop\n      pop\n      jump\t// out\n        /* \"#utility.yul\":2420:2611   */\n    tag_27:\n        /* \"#utility.yul\":2460:2463   */\n      0x00\n        /* \"#utility.yul\":2479:2499   */\n      tag_83\n        /* \"#utility.yul\":2497:2498   */\n      dup3\n        /* \"#utility.yul\":2479:2499   */\n      tag_43\n      jump\t// in\n    tag_83:\n        /* \"#utility.yul\":2474:2499   */\n      swap2\n      pop\n        /* \"#utility.yul\":2513:2533   */\n      tag_84\n        /* \"#utility.yul\":2531:2532   */\n      dup4\n        /* \"#utility.yul\":2513:2533   */\n      tag_43\n      jump\t// in\n    tag_84:\n        /* \"#utility.yul\":2508:2533   */\n      swap3\n      pop\n        /* \"#utility.yul\":2556:2557   */\n      dup3\n        /* \"#utility.yul\":2553:2554   */\n      dup3\n        /* \"#utility.yul\":2549:2558   */\n      add\n        /* \"#utility.yul\":2542:2558   */\n      swap1\n      pop\n        /* \"#utility.yul\":2577:2580   */\n      dup1\n        /* \"#utility.yul\":2574:2575   */\n      dup3\n        /* \"#utility.yul\":2571:2581   */\n      gt\n        /* \"#utility.yul\":2568:2604   */\n      iszero\n      tag_85\n      jumpi\n        /* \"#utility.yul\":2584:2602   */\n      tag_86\n      tag_48\n      jump\t// in\n    tag_86:\n        /* \"#utility.yul\":2568:2604   */\n    tag_85:\n        /* \"#utility.yul\":2420:2611   */\n      swap3\n      swap2\n      pop\n      pop\n      jump\t// out\n        /* \"#utility.yul\":2617:2786   */\n    tag_49:\n        /* \"#utility.yul\":2701:2712   */\n      0x00\n        /* \"#utility.yul\":2735:2741   */\n      dup3\n        /* \"#utility.yul\":2730:2733   */\n      dup3\n        /* \"#utility.yul\":2723:2742   */\n      mstore\n        /* \"#utility.yul\":2775:2779   */\n      0x20\n        /* \"#utility.yul\":2770:2773   */\n      dup3\n        /* \"#utility.yul\":2766:2780   */\n      add\n        /* \"#utility.yul\":2751:2780   */\n      swap1\n      pop\n        /* \"#utility.yul\":2617:2786   */\n      swap3\n      swap2\n      pop\n      pop\n      jump\t// out\n        /* \"#utility.yul\":2792:2955   */\n    tag_50:\n        /* \"#utility.yul\":2932:2947   */\n      0x75696e74206f766572666c6f7700000000000000000000000000000000000000\n        /* \"#utility.yul\":2928:2929   */\n      0x00\n        /* \"#utility.yul\":2920:2926   */\n      dup3\n        /* \"#utility.yul\":2916:2930   */\n      add\n        /* \"#utility.yul\":2909:2948   */\n      mstore\n        /* \"#utility.yul\":2792:2955   */\n      pop\n      jump\t// out\n        /* \"#utility.yul\":2961:3327   */\n    tag_51:\n        /* \"#utility.yul\":3103:3106   */\n      0x00\n        /* \"#utility.yul\":3124:3191   */\n      tag_90\n        /* \"#utility.yul\":3188:3190   */\n      0x0d\n        /* \"#utility.yul\":3183:3186   */\n      dup4\n        /* \"#utility.yul\":3124:3191   */\n      tag_49\n      jump\t// in\n    tag_90:\n        /* \"#utility.yul\":3117:3191   */\n      swap2\n      pop\n        /* \"#utility.yul\":3200:3293   */\n      tag_91\n        /* \"#utility.yul\":3289:3292   */\n      dup3\n        /* \"#utility.yul\":3200:3293   */\n      tag_50\n      jump\t// in\n    tag_91:\n        /* \"#utility.yul\":3318:3320   */\n      0x20\n        /* \"#utility.yul\":3313:3316   */\n      dup3\n        /* \"#utility.yul\":3309:3321   */\n      add\n        /* \"#utility.yul\":3302:3321   */\n      swap1\n      pop\n        /* \"#utility.yul\":2961:3327   */\n      swap2\n      swap1\n      pop\n      jump\t// out\n        /* \"#utility.yul\":3333:3752   */\n    tag_39:\n        /* \"#utility.yul\":3499:3503   */\n      0x00\n        /* \"#utility.yul\":3537:3539   */\n      0x20\n        /* \"#utility.yul\":3526:3535   */\n      dup3\n        /* \"#utility.yul\":3522:3540   */\n      add\n        /* \"#utility.yul\":3514:3540   */\n      swap1\n      pop\n        /* \"#utility.yul\":3586:3595   */\n      dup2\n        /* \"#utility.yul\":3580:3584   */\n      dup2\n        /* \"#utility.yul\":3576:3596   */\n      sub\n        /* \"#utility.yul\":3572:3573   */\n      0x00\n        /* \"#utility.yul\":3561:3570   */\n      dup4\n        /* \"#utility.yul\":3557:3574   */\n      add\n        /* \"#utility.yul\":3550:3597   */\n      mstore\n        /* \"#utility.yul\":3614:3745   */\n      tag_93\n        /* \"#utility.yul\":3740:3744   */\n      dup2\n        /* \"#utility.yul\":3614:3745   */\n      tag_51\n      jump\t// in\n    tag_93:\n        /* \"#utility.yul\":3606:3745   */\n      swap1\n      pop\n        /* \"#utility.yul\":3333:3752   */\n      swap2\n      swap1\n      pop\n      jump\t// out\n\n    auxdata: 0xa264697066735822122039565ae7e7555f11b146550bd55d32a4b0f97e8222d07f035f8472bad3d5f63364736f6c634300081e0033\n}\n",
				"bytecode": {
					"linkReferences": {},
					"object": "6080604052348015600e575f5ffd5b506103cc8061001c5f395ff3fe608060405234801561000f575f5ffd5b5060043610610034575f3560e01c80636039b0bd146100385780637c3ffef214610068575b5f5ffd5b610052600480360381019061004d91906101d0565b610098565b60405161005f919061020a565b60405180910390f35b610082600480360381019061007d9190610223565b6100a9565b60405161008f919061020a565b60405180910390f35b5f6100a2826100c5565b9050919050565b5f6100bd828461013c90919063ffffffff16565b905092915050565b5f600382111561012a578190505f60016002846100e291906102bb565b6100ec91906102eb565b90505b8181101561012457809150600281828561010991906102bb565b61011391906102eb565b61011d91906102bb565b90506100ef565b50610137565b5f821461013657600190505b5b919050565b5f5f828461014a91906102eb565b90508381101561018f576040517f08c379a000000000000000000000000000000000000000000000000000000000815260040161018690610378565b60405180910390fd5b8091505092915050565b5f5ffd5b5f819050919050565b6101af8161019d565b81146101b9575f5ffd5b50565b5f813590506101ca816101a6565b92915050565b5f602082840312156101e5576101e4610199565b5b5f6101f2848285016101bc565b91505092915050565b6102048161019d565b82525050565b5f60208201905061021d5f8301846101fb565b92915050565b5f5f6040838503121561023957610238610199565b5b5f610246858286016101bc565b9250506020610257858286016101bc565b9150509250929050565b7f4e487b71000000000000000000000000000000000000000000000000000000005f52601260045260245ffd5b7f4e487b71000000000000000000000000000000000000000000000000000000005f52601160045260245ffd5b5f6102c58261019d565b91506102d08361019d565b9250826102e0576102df610261565b5b828204905092915050565b5f6102f58261019d565b91506103008361019d565b92508282019050808211156103185761031761028e565b5b92915050565b5f82825260208201905092915050565b7f75696e74206f766572666c6f77000000000000000000000000000000000000005f82015250565b5f610362600d8361031e565b915061036d8261032e565b602082019050919050565b5f6020820190508181035f83015261038f81610356565b905091905056fea264697066735822122039565ae7e7555f11b146550bd55d32a4b0f97e8222d07f035f8472bad3d5f63364736f6c634300081e0033",
					"opcodes": "PUSH1 0x80 PUSH1 0x40 MSTORE CALLVALUE DUP1 ISZERO PUSH1 0xE JUMPI PUSH0 PUSH0 REVERT JUMPDEST POP PUSH2 0x3CC DUP1 PUSH2 0x1C PUSH0 CODECOPY PUSH0 RETURN INVALID PUSH1 0x80 PUSH1 0x40 MSTORE CALLVALUE DUP1 ISZERO PUSH2 0xF JUMPI PUSH0 PUSH0 REVERT JUMPDEST POP PUSH1 0x4 CALLDATASIZE LT PUSH2 0x34 JUMPI PUSH0 CALLDATALOAD PUSH1 0xE0 SHR DUP1 PUSH4 0x6039B0BD EQ PUSH2 0x38 JUMPI DUP1 PUSH4 0x7C3FFEF2 EQ PUSH2 0x68 JUMPI JUMPDEST PUSH0 PUSH0 REVERT JUMPDEST PUSH2 0x52 PUSH1 0x4 DUP1 CALLDATASIZE SUB DUP2 ADD SWAP1 PUSH2 0x4D SWAP2 SWAP1 PUSH2 0x1D0 JUMP JUMPDEST PUSH2 0x98 JUMP JUMPDEST PUSH1 0x40 MLOAD PUSH2 0x5F SWAP2 SWAP1 PUSH2 0x20A JUMP JUMPDEST PUSH1 0x40 MLOAD DUP1 SWAP2 SUB SWAP1 RETURN JUMPDEST PUSH2 0x82 PUSH1 0x4 DUP1 CALLDATASIZE SUB DUP2 ADD SWAP1 PUSH2 0x7D SWAP2 SWAP1 PUSH2 0x223 JUMP JUMPDEST PUSH2 0xA9 JUMP JUMPDEST PUSH1 0x40 MLOAD PUSH2 0x8F SWAP2 SWAP1 PUSH2 0x20A JUMP JUMPDEST PUSH1 0x40 MLOAD DUP1 SWAP2 SUB SWAP1 RETURN JUMPDEST PUSH0 PUSH2 0xA2 DUP3 PUSH2 0xC5 JUMP JUMPDEST SWAP1 POP SWAP2 SWAP1 POP JUMP JUMPDEST PUSH0 PUSH2 0xBD DUP3 DUP5 PUSH2 0x13C SWAP1 SWAP2 SWAP1 PUSH4 0xFFFFFFFF AND JUMP JUMPDEST SWAP1 POP SWAP3 SWAP2 POP POP JUMP JUMPDEST PUSH0 PUSH1 0x3 DUP3 GT ISZERO PUSH2 0x12A JUMPI DUP2 SWAP1 POP PUSH0 PUSH1 0x1 PUSH1 0x2 DUP5 PUSH2 0xE2 SWAP2 SWAP1 PUSH2 0x2BB JUMP JUMPDEST PUSH2 0xEC SWAP2 SWAP1 PUSH2 0x2EB JUMP JUMPDEST SWAP1 POP JUMPDEST DUP2 DUP2 LT ISZERO PUSH2 0x124 JUMPI DUP1 SWAP2 POP PUSH1 0x2 DUP2 DUP3 DUP6 PUSH2 0x109 SWAP2 SWAP1 PUSH2 0x2BB JUMP JUMPDEST PUSH2 0x113 SWAP2 SWAP1 PUSH2 0x2EB JUMP JUMPDEST PUSH2 0x11D SWAP2 SWAP1 PUSH2 0x2BB JUMP JUMPDEST SWAP1 POP PUSH2 0xEF JUMP JUMPDEST POP PUSH2 0x137 JUMP JUMPDEST PUSH0 DUP3 EQ PUSH2 0x136 JUMPI PUSH1 0x1 SWAP1 POP JUMPDEST JUMPDEST SWAP2 SWAP1 POP JUMP JUMPDEST PUSH0 PUSH0 DUP3 DUP5 PUSH2 0x14A SWAP2 SWAP1 PUSH2 0x2EB JUMP JUMPDEST SWAP1 POP DUP4 DUP2 LT ISZERO PUSH2 0x18F JUMPI PUSH1 0x40 MLOAD PUSH32 0x8C379A000000000000000000000000000000000000000000000000000000000 DUP2 MSTORE PUSH1 0x4 ADD PUSH2 0x186 SWAP1 PUSH2 0x378 JUMP JUMPDEST PUSH1 0x40 MLOAD DUP1 SWAP2 SUB SWAP1 REVERT JUMPDEST DUP1 SWAP2 POP POP SWAP3 SWAP2 POP POP JUMP JUMPDEST PUSH0 PUSH0 REVERT JUMPDEST PUSH0 DUP2 SWAP1 POP SWAP2 SWAP1 POP JUMP JUMPDEST PUSH2 0x1AF DUP2 PUSH2 0x19D JUMP JUMPDEST DUP2 EQ PUSH2 0x1B9 JUMPI PUSH0 PUSH0 REVERT JUMPDEST POP JUMP JUMPDEST PUSH0 DUP2 CALLDATALOAD SWAP1 POP PUSH2 0x1CA DUP2 PUSH2 0x1A6 JUMP JUMPDEST SWAP3 SWAP2 POP POP JUMP JUMPDEST PUSH0 PUSH1 0x20 DUP3 DUP5 SUB SLT ISZERO PUSH2 0x1E5 JUMPI PUSH2 0x1E4 PUSH2 0x199 JUMP JUMPDEST JUMPDEST PUSH0 PUSH2 0x1F2 DUP5 DUP3 DUP6 ADD PUSH2 0x1BC JUMP JUMPDEST SWAP2 POP POP SWAP3 SWAP2 POP POP JUMP JUMPDEST PUSH2 0x204 DUP2 PUSH2 0x19D JUMP JUMPDEST DUP3 MSTORE POP POP JUMP JUMPDEST PUSH0 PUSH1 0x20 DUP3 ADD SWAP1 POP PUSH2 0x21D PUSH0 DUP4 ADD DUP5 PUSH2 0x1FB JUMP JUMPDEST SWAP3 SWAP2 POP POP JUMP JUMPDEST PUSH0 PUSH0 PUSH1 0x40 DUP4 DUP6 SUB SLT ISZERO PUSH2 0x239 JUMPI PUSH2 0x238 PUSH2 0x199 JUMP JUMPDEST JUMPDEST PUSH0 PUSH2 0x246 DUP6 DUP3 DUP7 ADD PUSH2 0x1BC JUMP JUMPDEST SWAP3 POP POP PUSH1 0x20 PUSH2 0x257 DUP6 DUP3 DUP7 ADD PUSH2 0x1BC JUMP JUMPDEST SWAP2 POP POP SWAP3 POP SWAP3 SWAP1 POP JUMP JUMPDEST PUSH32 0x4E487B7100000000000000000000000000000000000000000000000000000000 PUSH0 MSTORE PUSH1 0x12 PUSH1 0x4 MSTORE PUSH1 0x24 PUSH0 REVERT JUMPDEST PUSH32 0x4E487B7100000000000000000000000000000000000000000000000000000000 PUSH0 MSTORE PUSH1 0x11 PUSH1 0x4 MSTORE PUSH1 0x24 PUSH0 REVERT JUMPDEST PUSH0 PUSH2 0x2C5 DUP3 PUSH2 0x19D JUMP JUMPDEST SWAP2 POP PUSH2 0x2D0 DUP4 PUSH2 0x19D JUMP JUMPDEST SWAP3 POP DUP3 PUSH2 0x2E0 JUMPI PUSH2 0x2DF PUSH2 0x261 JUMP JUMPDEST JUMPDEST DUP3 DUP3 DIV SWAP1 POP SWAP3 SWAP2 POP POP JUMP JUMPDEST PUSH0 PUSH2 0x2F5 DUP3 PUSH2 0x19D JUMP JUMPDEST SWAP2 POP PUSH2 0x300 DUP4 PUSH2 0x19D JUMP JUMPDEST SWAP3 POP DUP3 DUP3 ADD SWAP1 POP DUP1 DUP3 GT ISZERO PUSH2 0x318 JUMPI PUSH2 0x317 PUSH2 0x28E JUMP JUMPDEST JUMPDEST SWAP3 SWAP2 POP POP JUMP JUMPDEST PUSH0 DUP3 DUP3 MSTORE PUSH1 0x20 DUP3 ADD SWAP1 POP SWAP3 SWAP2 POP POP JUMP JUMPDEST PUSH32 0x75696E74206F766572666C6F7700000000000000000000000000000000000000 PUSH0 DUP3 ADD MSTORE POP JUMP JUMPDEST PUSH0 PUSH2 0x362 PUSH1 0xD DUP4 PUSH2 0x31E JUMP JUMPDEST SWAP2 POP PUSH2 0x36D DUP3 PUSH2 0x32E JUMP JUMPDEST PUSH1 0x20 DUP3 ADD SWAP1 POP SWAP2 SWAP1 POP JUMP JUMPDEST PUSH0 PUSH1 0x20 DUP3 ADD SWAP1 POP DUP2 DUP2 SUB PUSH0 DUP4 ADD MSTORE PUSH2 0x38F DUP2 PUSH2 0x356 JUMP JUMPDEST SWAP1 POP SWAP2 SWAP1 POP JUMP INVALID LOG2 PUSH5 0x6970667358 0x22 SLT KECCAK256 CODECOPY JUMP GAS SWAPN 0xE7 SSTORE PUSH0 GT 0xB1 CHAINID SSTORE SIGNEXTEND 0xD5 TSTORE ORIGIN LOG4 0xB0 EXTDELEGATECALL PUSH31 0x8222D07F035F8472BAD3D5F63364736F6C634300081E003300000000000000 "
				},
				"gasEstimates": {
					"creation": {
						"codeDepositCost": "194400",
						"executionCost": "236",
						"totalCost": "194636"
					},
					"external": {
						"testAdd(uint256,uint256)": "infinite",
						"testSquareRoot(uint256)": "infinite"
					}
				},
				"methodIdentifiers": {
					"testAdd(uint256,uint256)": "7c3ffef2",
					"testSquareRoot(uint256)": "6039b0bd"
				}
			},
			"storageLayout": {
				"storage": [],
				"types": null
			},
			"userdoc": {
				"kind": "user",
				"methods": {},
				"version": 1
			}
		}
	}
}