{
	"application_contracts/Iterable Mapping.sol": {
		"TestIterableMap": {
			"abi": [
				{
					"inputs": [],
					"name": "testIterableMap",
					"outputs": [],
					"stateMutability": "nonpayable",
					"type": "function"
				}
			],
			"devdoc": {
				"kind": "dev",
				"methods": {},
				"version": 1
			},
			"evm": {
				"assembly": "    /* \"application_contracts/Iterable Mapping.sol\":1381:2162  contract TestIterableMap {... */\n  mstore(0x40, 0x80)\n  callvalue\n  dup1\n  iszero\n  tag_1\n  jumpi\n  revert(0x00, 0x00)\ntag_1:\n  pop\n  dataSize(sub_0)\n  dup1\n  dataOffset(sub_0)\n  0x00\n  codecopy\n  0x00\n  return\nstop\n\nsub_0: assembly {\n        /* \"application_contracts/Iterable Mapping.sol\":1381:2162  contract TestIterableMap {... */\n      mstore(0x40, 0x80)\n      callvalue\n      dup1\n      iszero\n      tag_1\n      jumpi\n      revert(0x00, 0x00)\n    tag_1:\n      pop\n      jumpi(tag_2, lt(calldatasize, 0x04))\n      shr(0xe0, calldataload(0x00))\n      dup1\n      0xd230a0d5\n      eq\n      tag_3\n      jumpi\n    tag_2:\n      revert(0x00, 0x00)\n        /* \"application_contracts/Iterable Mapping.sol\":1501:2160  function testIterableMap() public {... */\n    tag_3:\n      tag_4\n      tag_5\n      jump\t// in\n    tag_4:\n      stop\n    tag_5:\n        /* \"application_contracts/Iterable Mapping.sol\":1545:1548  map */\n      0x00\n        /* \"application_contracts/Iterable Mapping.sol\":1545:1552  map.set */\n      linkerSymbol(\"bd4f3c0a31c71ec028fb605325b346fa128286fe376a8013bcc3fed51edf7b50\")\n      0xbc2b405c\n      swap1\n      swap2\n        /* \"application_contracts/Iterable Mapping.sol\":1561:1562  0 */\n      0x00\n        /* \"application_contracts/Iterable Mapping.sol\":1565:1566  0 */\n      0x00\n        /* \"application_contracts/Iterable Mapping.sol\":1545:1567  map.set(address(0), 0) */\n      mload(0x40)\n      dup5\n      0xffffffff\n      and\n      0xe0\n      shl\n      dup2\n      mstore\n      0x04\n      add\n      tag_7\n      swap4\n      swap3\n      swap2\n      swap1\n      tag_8\n      jump\t// in\n    tag_7:\n      0x00\n      mload(0x40)\n      dup1\n      dup4\n      sub\n      dup2\n      dup7\n      dup1\n      extcodesize\n      iszero\n      dup1\n      iszero\n      tag_9\n      jumpi\n      revert(0x00, 0x00)\n    tag_9:\n      pop\n      gas\n      delegatecall\n      iszero\n      dup1\n      iszero\n      tag_11\n      jumpi\n      returndatacopy(0x00, 0x00, returndatasize)\n      revert(0x00, returndatasize)\n    tag_11:\n      pop\n      pop\n      pop\n      pop\n        /* \"application_contracts/Iterable Mapping.sol\":1577:1580  map */\n      0x00\n        /* \"application_contracts/Iterable Mapping.sol\":1577:1584  map.set */\n      linkerSymbol(\"bd4f3c0a31c71ec028fb605325b346fa128286fe376a8013bcc3fed51edf7b50\")\n      0xbc2b405c\n      swap1\n      swap2\n        /* \"application_contracts/Iterable Mapping.sol\":1593:1594  1 */\n      0x01\n        /* \"application_contracts/Iterable Mapping.sol\":1597:1600  100 */\n      0x64\n        /* \"application_contracts/Iterable Mapping.sol\":1577:1601  map.set(address(1), 100) */\n      mload(0x40)\n      dup5\n      0xffffffff\n      and\n      0xe0\n      shl\n      dup2\n      mstore\n      0x04\n      add\n      tag_12\n      swap4\n      swap3\n      swap2\n      swap1\n      tag_13\n      jump\t// in\n    tag_12:\n      0x00\n      mload(0x40)\n      dup1\n      dup4\n      sub\n      dup2\n      dup7\n      dup1\n      extcodesize\n      iszero\n      dup1\n      iszero\n      tag_14\n      jumpi\n      revert(0x00, 0x00)\n    tag_14:\n      pop\n      gas\n      delegatecall\n      iszero\n      dup1\n      iszero\n      tag_16\n      jumpi\n      returndatacopy(0x00, 0x00, returndatasize)\n      revert(0x00, returndatasize)\n    tag_16:\n      pop\n      pop\n      pop\n      pop\n        /* \"application_contracts/Iterable Mapping.sol\":1611:1614  map */\n      0x00\n        /* \"application_contracts/Iterable Mapping.sol\":1611:1618  map.set */\n      linkerSymbol(\"bd4f3c0a31c71ec028fb605325b346fa128286fe376a8013bcc3fed51edf7b50\")\n      0xbc2b405c\n      swap1\n      swap2\n        /* \"application_contracts/Iterable Mapping.sol\":1627:1628  2 */\n      0x02\n        /* \"application_contracts/Iterable Mapping.sol\":1631:1634  200 */\n      0xc8\n        /* \"application_contracts/Iterable Mapping.sol\":1611:1635  map.set(address(2), 200) */\n      mload(0x40)\n      dup5\n      0xffffffff\n      and\n      0xe0\n      shl\n      dup2\n      mstore\n      0x04\n      add\n      tag_17\n      swap4\n      swap3\n      swap2\n      swap1\n      tag_18\n      jump\t// in\n    tag_17:\n      0x00\n      mload(0x40)\n      dup1\n      dup4\n      sub\n      dup2\n      dup7\n      dup1\n      extcodesize\n      iszero\n      dup1\n      iszero\n      tag_19\n      jumpi\n      revert(0x00, 0x00)\n    tag_19:\n      pop\n      gas\n      delegatecall\n      iszero\n      dup1\n      iszero\n      tag_21\n      jumpi\n      returndatacopy(0x00, 0x00, returndatasize)\n      revert(0x00, returndatasize)\n    tag_21:\n      pop\n      pop\n      pop\n      pop\n        /* \"application_contracts/Iterable Mapping.sol\":1655:1658  map */\n      0x00\n        /* \"application_contracts/Iterable Mapping.sol\":1655:1662  map.set */\n      linkerSymbol(\"bd4f3c0a31c71ec028fb605325b346fa128286fe376a8013bcc3fed51edf7b50\")\n      0xbc2b405c\n      swap1\n      swap2\n        /* \"application_contracts/Iterable Mapping.sol\":1671:1672  2 */\n      0x02\n        /* \"application_contracts/Iterable Mapping.sol\":1675:1678  200 */\n      0xc8\n        /* \"application_contracts/Iterable Mapping.sol\":1655:1679  map.set(address(2), 200) */\n      mload(0x40)\n      dup5\n      0xffffffff\n      and\n      0xe0\n      shl\n      dup2\n      mstore\n      0x04\n      add\n      tag_22\n      swap4\n      swap3\n      swap2\n      swap1\n      tag_18\n      jump\t// in\n    tag_22:\n      0x00\n      mload(0x40)\n      dup1\n      dup4\n      sub\n      dup2\n      dup7\n      dup1\n      extcodesize\n      iszero\n      dup1\n      iszero\n      tag_23\n      jumpi\n      revert(0x00, 0x00)\n    tag_23:\n      pop\n      gas\n      delegatecall\n      iszero\n      dup1\n      iszero\n      tag_25\n      jumpi\n      returndatacopy(0x00, 0x00, returndatasize)\n      revert(0x00, returndatasize)\n    tag_25:\n      pop\n      pop\n      pop\n      pop\n        /* \"application_contracts/Iterable Mapping.sol\":1699:1702  map */\n      0x00\n        /* \"application_contracts/Iterable Mapping.sol\":1699:1706  map.set */\n      linkerSymbol(\"bd4f3c0a31c71ec028fb605325b346fa128286fe376a8013bcc3fed51edf7b50\")\n      0xbc2b405c\n      swap1\n      swap2\n        /* \"application_contracts/Iterable Mapping.sol\":1715:1716  3 */\n      0x03\n        /* \"application_contracts/Iterable Mapping.sol\":1719:1722  300 */\n      0x012c\n        /* \"application_contracts/Iterable Mapping.sol\":1699:1723  map.set(address(3), 300) */\n      mload(0x40)\n      dup5\n      0xffffffff\n      and\n      0xe0\n      shl\n      dup2\n      mstore\n      0x04\n      add\n      tag_26\n      swap4\n      swap3\n      swap2\n      swap1\n      tag_27\n      jump\t// in\n    tag_26:\n      0x00\n      mload(0x40)\n      dup1\n      dup4\n      sub\n      dup2\n      dup7\n      dup1\n      extcodesize\n      iszero\n      dup1\n      iszero\n      tag_28\n      jumpi\n      revert(0x00, 0x00)\n    tag_28:\n      pop\n      gas\n      delegatecall\n      iszero\n      dup1\n      iszero\n      tag_30\n      jumpi\n      returndatacopy(0x00, 0x00, returndatasize)\n      revert(0x00, returndatasize)\n    tag_30:\n      pop\n      pop\n      pop\n      pop\n        /* \"application_contracts/Iterable Mapping.sol\":1739:1745  uint i */\n      0x00\n        /* \"application_contracts/Iterable Mapping.sol\":1748:1749  0 */\n      0x00\n        /* \"application_contracts/Iterable Mapping.sol\":1739:1749  uint i = 0 */\n      swap1\n      pop\n        /* \"application_contracts/Iterable Mapping.sol\":1734:1876  for (uint i = 0; i < map.size(); i++) {... */\n    tag_31:\n        /* \"application_contracts/Iterable Mapping.sol\":1755:1758  map */\n      0x00\n        /* \"application_contracts/Iterable Mapping.sol\":1755:1763  map.size */\n      linkerSymbol(\"bd4f3c0a31c71ec028fb605325b346fa128286fe376a8013bcc3fed51edf7b50\")\n      0xdeb3d896\n      swap1\n      swap2\n        /* \"application_contracts/Iterable Mapping.sol\":1755:1765  map.size() */\n      mload(0x40)\n      dup3\n      0xffffffff\n      and\n      0xe0\n      shl\n      dup2\n      mstore\n      0x04\n      add\n      tag_34\n      swap2\n      swap1\n      tag_35\n      jump\t// in\n    tag_34:\n      0x20\n      mload(0x40)\n      dup1\n      dup4\n      sub\n      dup2\n      dup7\n      gas\n      delegatecall\n      iszero\n      dup1\n      iszero\n      tag_37\n      jumpi\n      returndatacopy(0x00, 0x00, returndatasize)\n      revert(0x00, returndatasize)\n    tag_37:\n      pop\n      pop\n      pop\n      pop\n      mload(0x40)\n      returndatasize\n      not(0x1f)\n      0x1f\n      dup3\n      add\n      and\n      dup3\n      add\n      dup1\n      0x40\n      mstore\n      pop\n      dup2\n      add\n      swap1\n      tag_38\n      swap2\n      swap1\n      tag_39\n      jump\t// in\n    tag_38:\n        /* \"application_contracts/Iterable Mapping.sol\":1751:1752  i */\n      dup2\n        /* \"application_contracts/Iterable Mapping.sol\":1751:1765  i < map.size() */\n      lt\n        /* \"application_contracts/Iterable Mapping.sol\":1734:1876  for (uint i = 0; i < map.size(); i++) {... */\n      iszero\n      tag_32\n      jumpi\n        /* \"application_contracts/Iterable Mapping.sol\":1786:1797  address key */\n      0x00\n        /* \"application_contracts/Iterable Mapping.sol\":1800:1803  map */\n      0x00\n        /* \"application_contracts/Iterable Mapping.sol\":1800:1817  map.getKeyAtIndex */\n      linkerSymbol(\"bd4f3c0a31c71ec028fb605325b346fa128286fe376a8013bcc3fed51edf7b50\")\n      0xd1aa9e7e\n      swap1\n      swap2\n        /* \"application_contracts/Iterable Mapping.sol\":1818:1819  i */\n      dup5\n        /* \"application_contracts/Iterable Mapping.sol\":1800:1820  map.getKeyAtIndex(i) */\n      mload(0x40)\n      dup4\n      0xffffffff\n      and\n      0xe0\n      shl\n      dup2\n      mstore\n      0x04\n      add\n      tag_40\n      swap3\n      swap2\n      swap1\n      tag_41\n      jump\t// in\n    tag_40:\n      0x20\n      mload(0x40)\n      dup1\n      dup4\n      sub\n      dup2\n      dup7\n      gas\n      delegatecall\n      iszero\n      dup1\n      iszero\n      tag_43\n      jumpi\n      returndatacopy(0x00, 0x00, returndatasize)\n      revert(0x00, returndatasize)\n    tag_43:\n      pop\n      pop\n      pop\n      pop\n      mload(0x40)\n      returndatasize\n      not(0x1f)\n      0x1f\n      dup3\n      add\n      and\n      dup3\n      add\n      dup1\n      0x40\n      mstore\n      pop\n      dup2\n      add\n      swap1\n      tag_44\n      swap2\n      swap1\n      tag_45\n      jump\t// in\n    tag_44:\n        /* \"application_contracts/Iterable Mapping.sol\":1786:1820  address key = map.getKeyAtIndex(i) */\n      swap1\n      pop\n        /* \"application_contracts/Iterable Mapping.sol\":1861:1864  100 */\n      0x64\n        /* \"application_contracts/Iterable Mapping.sol\":1857:1858  i */\n      dup3\n        /* \"application_contracts/Iterable Mapping.sol\":1857:1864  i * 100 */\n      tag_46\n      swap2\n      swap1\n      tag_47\n      jump\t// in\n    tag_46:\n        /* \"application_contracts/Iterable Mapping.sol\":1841:1844  map */\n      0x00\n        /* \"application_contracts/Iterable Mapping.sol\":1841:1848  map.get */\n      linkerSymbol(\"bd4f3c0a31c71ec028fb605325b346fa128286fe376a8013bcc3fed51edf7b50\")\n      0x732a2ccf\n      swap1\n      swap2\n        /* \"application_contracts/Iterable Mapping.sol\":1849:1852  key */\n      dup5\n        /* \"application_contracts/Iterable Mapping.sol\":1841:1853  map.get(key) */\n      mload(0x40)\n      dup4\n      0xffffffff\n      and\n      0xe0\n      shl\n      dup2\n      mstore\n      0x04\n      add\n      tag_48\n      swap3\n      swap2\n      swap1\n      tag_49\n      jump\t// in\n    tag_48:\n      0x20\n      mload(0x40)\n      dup1\n      dup4\n      sub\n      dup2\n      dup7\n      gas\n      delegatecall\n      iszero\n      dup1\n      iszero\n      tag_51\n      jumpi\n      returndatacopy(0x00, 0x00, returndatasize)\n      revert(0x00, returndatasize)\n    tag_51:\n      pop\n      pop\n      pop\n      pop\n      mload(0x40)\n      returndatasize\n      not(0x1f)\n      0x1f\n      dup3\n      add\n      and\n      dup3\n      add\n      dup1\n      0x40\n      mstore\n      pop\n      dup2\n      add\n      swap1\n      tag_52\n      swap2\n      swap1\n      tag_39\n      jump\t// in\n    tag_52:\n        /* \"application_contracts/Iterable Mapping.sol\":1841:1864  map.get(key) == i * 100 */\n      eq\n        /* \"application_contracts/Iterable Mapping.sol\":1834:1865  assert(map.get(key) == i * 100) */\n      tag_53\n      jumpi\n      tag_54\n      tag_55\n      jump\t// in\n    tag_54:\n    tag_53:\n        /* \"application_contracts/Iterable Mapping.sol\":1772:1876  {... */\n      pop\n        /* \"application_contracts/Iterable Mapping.sol\":1767:1770  i++ */\n      dup1\n      dup1\n      0x01\n      add\n      swap2\n      pop\n      pop\n        /* \"application_contracts/Iterable Mapping.sol\":1734:1876  for (uint i = 0; i < map.size(); i++) {... */\n      jump(tag_31)\n    tag_32:\n      pop\n        /* \"application_contracts/Iterable Mapping.sol\":1886:1889  map */\n      0x00\n        /* \"application_contracts/Iterable Mapping.sol\":1886:1896  map.remove */\n      linkerSymbol(\"bd4f3c0a31c71ec028fb605325b346fa128286fe376a8013bcc3fed51edf7b50\")\n      0x4c60db9c\n      swap1\n      swap2\n        /* \"application_contracts/Iterable Mapping.sol\":1905:1906  1 */\n      0x01\n        /* \"application_contracts/Iterable Mapping.sol\":1886:1908  map.remove(address(1)) */\n      mload(0x40)\n      dup4\n      0xffffffff\n      and\n      0xe0\n      shl\n      dup2\n      mstore\n      0x04\n      add\n      tag_56\n      swap3\n      swap2\n      swap1\n      tag_49\n      jump\t// in\n    tag_56:\n      0x00\n      mload(0x40)\n      dup1\n      dup4\n      sub\n      dup2\n      dup7\n      dup1\n      extcodesize\n      iszero\n      dup1\n      iszero\n      tag_57\n      jumpi\n      revert(0x00, 0x00)\n    tag_57:\n      pop\n      gas\n      delegatecall\n      iszero\n      dup1\n      iszero\n      tag_59\n      jumpi\n      returndatacopy(0x00, 0x00, returndatasize)\n      revert(0x00, returndatasize)\n    tag_59:\n      pop\n      pop\n      pop\n      pop\n        /* \"application_contracts/Iterable Mapping.sol\":1995:1996  3 */\n      0x03\n        /* \"application_contracts/Iterable Mapping.sol\":1981:1984  map */\n      0x00\n        /* \"application_contracts/Iterable Mapping.sol\":1981:1989  map.size */\n      linkerSymbol(\"bd4f3c0a31c71ec028fb605325b346fa128286fe376a8013bcc3fed51edf7b50\")\n      0xdeb3d896\n      swap1\n      swap2\n        /* \"application_contracts/Iterable Mapping.sol\":1981:1991  map.size() */\n      mload(0x40)\n      dup3\n      0xffffffff\n      and\n      0xe0\n      shl\n      dup2\n      mstore\n      0x04\n      add\n      tag_60\n      swap2\n      swap1\n      tag_35\n      jump\t// in\n    tag_60:\n      0x20\n      mload(0x40)\n      dup1\n      dup4\n      sub\n      dup2\n      dup7\n      gas\n      delegatecall\n      iszero\n      dup1\n      iszero\n      tag_62\n      jumpi\n      returndatacopy(0x00, 0x00, returndatasize)\n      revert(0x00, returndatasize)\n    tag_62:\n      pop\n      pop\n      pop\n      pop\n      mload(0x40)\n      returndatasize\n      not(0x1f)\n      0x1f\n      dup3\n      add\n      and\n      dup3\n      add\n      dup1\n      0x40\n      mstore\n      pop\n      dup2\n      add\n      swap1\n      tag_63\n      swap2\n      swap1\n      tag_39\n      jump\t// in\n    tag_63:\n        /* \"application_contracts/Iterable Mapping.sol\":1981:1996  map.size() == 3 */\n      eq\n        /* \"application_contracts/Iterable Mapping.sol\":1974:1997  assert(map.size() == 3) */\n      tag_64\n      jumpi\n      tag_65\n      tag_55\n      jump\t// in\n    tag_65:\n    tag_64:\n        /* \"application_contracts/Iterable Mapping.sol\":2046:2047  0 */\n      0x00\n        /* \"application_contracts/Iterable Mapping.sol\":2014:2048  map.getKeyAtIndex(0) == address(0) */\n      0xffffffffffffffffffffffffffffffffffffffff\n      and\n        /* \"application_contracts/Iterable Mapping.sol\":2014:2017  map */\n      0x00\n        /* \"application_contracts/Iterable Mapping.sol\":2014:2031  map.getKeyAtIndex */\n      linkerSymbol(\"bd4f3c0a31c71ec028fb605325b346fa128286fe376a8013bcc3fed51edf7b50\")\n      0xd1aa9e7e\n      swap1\n      swap2\n        /* \"application_contracts/Iterable Mapping.sol\":2032:2033  0 */\n      0x00\n        /* \"application_contracts/Iterable Mapping.sol\":2014:2034  map.getKeyAtIndex(0) */\n      mload(0x40)\n      dup4\n      0xffffffff\n      and\n      0xe0\n      shl\n      dup2\n      mstore\n      0x04\n      add\n      tag_66\n      swap3\n      swap2\n      swap1\n      tag_67\n      jump\t// in\n    tag_66:\n      0x20\n      mload(0x40)\n      dup1\n      dup4\n      sub\n      dup2\n      dup7\n      gas\n      delegatecall\n      iszero\n      dup1\n      iszero\n      tag_69\n      jumpi\n      returndatacopy(0x00, 0x00, returndatasize)\n      revert(0x00, returndatasize)\n    tag_69:\n      pop\n      pop\n      pop\n      pop\n      mload(0x40)\n      returndatasize\n      not(0x1f)\n      0x1f\n      dup3\n      add\n      and\n      dup3\n      add\n      dup1\n      0x40\n      mstore\n      pop\n      dup2\n      add\n      swap1\n      tag_70\n      swap2\n      swap1\n      tag_45\n      jump\t// in\n    tag_70:\n        /* \"application_contracts/Iterable Mapping.sol\":2014:2048  map.getKeyAtIndex(0) == address(0) */\n      0xffffffffffffffffffffffffffffffffffffffff\n      and\n      eq\n        /* \"application_contracts/Iterable Mapping.sol\":2007:2049  assert(map.getKeyAtIndex(0) == address(0)) */\n      tag_71\n      jumpi\n      tag_72\n      tag_55\n      jump\t// in\n    tag_72:\n    tag_71:\n        /* \"application_contracts/Iterable Mapping.sol\":2098:2099  3 */\n      0x03\n        /* \"application_contracts/Iterable Mapping.sol\":2066:2100  map.getKeyAtIndex(1) == address(3) */\n      0xffffffffffffffffffffffffffffffffffffffff\n      and\n        /* \"application_contracts/Iterable Mapping.sol\":2066:2069  map */\n      0x00\n        /* \"application_contracts/Iterable Mapping.sol\":2066:2083  map.getKeyAtIndex */\n      linkerSymbol(\"bd4f3c0a31c71ec028fb605325b346fa128286fe376a8013bcc3fed51edf7b50\")\n      0xd1aa9e7e\n      swap1\n      swap2\n        /* \"application_contracts/Iterable Mapping.sol\":2084:2085  1 */\n      0x01\n        /* \"application_contracts/Iterable Mapping.sol\":2066:2086  map.getKeyAtIndex(1) */\n      mload(0x40)\n      dup4\n      0xffffffff\n      and\n      0xe0\n      shl\n      dup2\n      mstore\n      0x04\n      add\n      tag_73\n      swap3\n      swap2\n      swap1\n      tag_74\n      jump\t// in\n    tag_73:\n      0x20\n      mload(0x40)\n      dup1\n      dup4\n      sub\n      dup2\n      dup7\n      gas\n      delegatecall\n      iszero\n      dup1\n      iszero\n      tag_76\n      jumpi\n      returndatacopy(0x00, 0x00, returndatasize)\n      revert(0x00, returndatasize)\n    tag_76:\n      pop\n      pop\n      pop\n      pop\n      mload(0x40)\n      returndatasize\n      not(0x1f)\n      0x1f\n      dup3\n      add\n      and\n      dup3\n      add\n      dup1\n      0x40\n      mstore\n      pop\n      dup2\n      add\n      swap1\n      tag_77\n      swap2\n      swap1\n      tag_45\n      jump\t// in\n    tag_77:\n        /* \"application_contracts/Iterable Mapping.sol\":2066:2100  map.getKeyAtIndex(1) == address(3) */\n      0xffffffffffffffffffffffffffffffffffffffff\n      and\n      eq\n        /* \"application_contracts/Iterable Mapping.sol\":2059:2101  assert(map.getKeyAtIndex(1) == address(3)) */\n      tag_78\n      jumpi\n      tag_79\n      tag_55\n      jump\t// in\n    tag_79:\n    tag_78:\n        /* \"application_contracts/Iterable Mapping.sol\":2150:2151  2 */\n      0x02\n        /* \"application_contracts/Iterable Mapping.sol\":2118:2152  map.getKeyAtIndex(2) == address(2) */\n      0xffffffffffffffffffffffffffffffffffffffff\n      and\n        /* \"application_contracts/Iterable Mapping.sol\":2118:2121  map */\n      0x00\n        /* \"application_contracts/Iterable Mapping.sol\":2118:2135  map.getKeyAtIndex */\n      linkerSymbol(\"bd4f3c0a31c71ec028fb605325b346fa128286fe376a8013bcc3fed51edf7b50\")\n      0xd1aa9e7e\n      swap1\n      swap2\n        /* \"application_contracts/Iterable Mapping.sol\":2136:2137  2 */\n      0x02\n        /* \"application_contracts/Iterable Mapping.sol\":2118:2138  map.getKeyAtIndex(2) */\n      mload(0x40)\n      dup4\n      0xffffffff\n      and\n      0xe0\n      shl\n      dup2\n      mstore\n      0x04\n      add\n      tag_80\n      swap3\n      swap2\n      swap1\n      tag_81\n      jump\t// in\n    tag_80:\n      0x20\n      mload(0x40)\n      dup1\n      dup4\n      sub\n      dup2\n      dup7\n      gas\n      delegatecall\n      iszero\n      dup1\n      iszero\n      tag_83\n      jumpi\n      returndatacopy(0x00, 0x00, returndatasize)\n      revert(0x00, returndatasize)\n    tag_83:\n      pop\n      pop\n      pop\n      pop\n      mload(0x40)\n      returndatasize\n      not(0x1f)\n      0x1f\n      dup3\n      add\n      and\n      dup3\n      add\n      dup1\n      0x40\n      mstore\n      pop\n      dup2\n      add\n      swap1\n      tag_84\n      swap2\n      swap1\n      tag_45\n      jump\t// in\n    tag_84:\n        /* \"application_contracts/Iterable Mapping.sol\":2118:2152  map.getKeyAtIndex(2) == address(2) */\n      0xffffffffffffffffffffffffffffffffffffffff\n      and\n      eq\n        /* \"application_contracts/Iterable Mapping.sol\":2111:2153  assert(map.getKeyAtIndex(2) == address(2)) */\n      tag_85\n      jumpi\n      tag_86\n      tag_55\n      jump\t// in\n    tag_86:\n    tag_85:\n        /* \"application_contracts/Iterable Mapping.sol\":1501:2160  function testIterableMap() public {... */\n      jump\t// out\n        /* \"#utility.yul\":7:134   */\n    tag_87:\n        /* \"#utility.yul\":122:127   */\n      dup1\n        /* \"#utility.yul\":117:120   */\n      dup3\n        /* \"#utility.yul\":110:128   */\n      mstore\n        /* \"#utility.yul\":7:134   */\n      pop\n      pop\n      jump\t// out\n        /* \"#utility.yul\":140:266   */\n    tag_88:\n        /* \"#utility.yul\":177:184   */\n      0x00\n        /* \"#utility.yul\":217:259   */\n      0xffffffffffffffffffffffffffffffffffffffff\n        /* \"#utility.yul\":210:215   */\n      dup3\n        /* \"#utility.yul\":206:260   */\n      and\n        /* \"#utility.yul\":195:260   */\n      swap1\n      pop\n        /* \"#utility.yul\":140:266   */\n      swap2\n      swap1\n      pop\n      jump\t// out\n        /* \"#utility.yul\":272:368   */\n    tag_89:\n        /* \"#utility.yul\":309:316   */\n      0x00\n        /* \"#utility.yul\":338:362   */\n      tag_124\n        /* \"#utility.yul\":356:361   */\n      dup3\n        /* \"#utility.yul\":338:362   */\n      tag_88\n      jump\t// in\n    tag_124:\n        /* \"#utility.yul\":327:362   */\n      swap1\n      pop\n        /* \"#utility.yul\":272:368   */\n      swap2\n      swap1\n      pop\n      jump\t// out\n        /* \"#utility.yul\":374:500   */\n    tag_90:\n        /* \"#utility.yul\":469:493   */\n      tag_126\n        /* \"#utility.yul\":487:492   */\n      dup2\n        /* \"#utility.yul\":469:493   */\n      tag_89\n      jump\t// in\n    tag_126:\n        /* \"#utility.yul\":464:467   */\n      dup3\n        /* \"#utility.yul\":457:494   */\n      mstore\n        /* \"#utility.yul\":374:500   */\n      pop\n      pop\n      jump\t// out\n        /* \"#utility.yul\":506:591   */\n    tag_91:\n        /* \"#utility.yul\":551:558   */\n      0x00\n        /* \"#utility.yul\":580:585   */\n      dup2\n        /* \"#utility.yul\":569:585   */\n      swap1\n      pop\n        /* \"#utility.yul\":506:591   */\n      swap2\n      swap1\n      pop\n      jump\t// out\n        /* \"#utility.yul\":597:674   */\n    tag_92:\n        /* \"#utility.yul\":634:641   */\n      0x00\n        /* \"#utility.yul\":663:668   */\n      dup2\n        /* \"#utility.yul\":652:668   */\n      swap1\n      pop\n        /* \"#utility.yul\":597:674   */\n      swap2\n      swap1\n      pop\n      jump\t// out\n        /* \"#utility.yul\":680:740   */\n    tag_93:\n        /* \"#utility.yul\":708:711   */\n      0x00\n        /* \"#utility.yul\":729:734   */\n      dup2\n        /* \"#utility.yul\":722:734   */\n      swap1\n      pop\n        /* \"#utility.yul\":680:740   */\n      swap2\n      swap1\n      pop\n      jump\t// out\n        /* \"#utility.yul\":746:904   */\n    tag_94:\n        /* \"#utility.yul\":804:813   */\n      0x00\n        /* \"#utility.yul\":837:898   */\n      tag_131\n        /* \"#utility.yul\":855:897   */\n      tag_132\n        /* \"#utility.yul\":864:896   */\n      tag_133\n        /* \"#utility.yul\":890:895   */\n      dup5\n        /* \"#utility.yul\":864:896   */\n      tag_91\n      jump\t// in\n    tag_133:\n        /* \"#utility.yul\":855:897   */\n      tag_93\n      jump\t// in\n    tag_132:\n        /* \"#utility.yul\":837:898   */\n      tag_92\n      jump\t// in\n    tag_131:\n        /* \"#utility.yul\":824:898   */\n      swap1\n      pop\n        /* \"#utility.yul\":746:904   */\n      swap2\n      swap1\n      pop\n      jump\t// out\n        /* \"#utility.yul\":910:1065   */\n    tag_95:\n        /* \"#utility.yul\":1013:1058   */\n      tag_135\n        /* \"#utility.yul\":1052:1057   */\n      dup2\n        /* \"#utility.yul\":1013:1058   */\n      tag_94\n      jump\t// in\n    tag_135:\n        /* \"#utility.yul\":1008:1011   */\n      dup3\n        /* \"#utility.yul\":1001:1059   */\n      mstore\n        /* \"#utility.yul\":910:1065   */\n      pop\n      pop\n      jump\t// out\n        /* \"#utility.yul\":1071:1601   */\n    tag_8:\n        /* \"#utility.yul\":1256:1260   */\n      0x00\n        /* \"#utility.yul\":1294:1296   */\n      0x60\n        /* \"#utility.yul\":1283:1292   */\n      dup3\n        /* \"#utility.yul\":1279:1297   */\n      add\n        /* \"#utility.yul\":1271:1297   */\n      swap1\n      pop\n        /* \"#utility.yul\":1307:1406   */\n      tag_137\n        /* \"#utility.yul\":1403:1404   */\n      0x00\n        /* \"#utility.yul\":1392:1401   */\n      dup4\n        /* \"#utility.yul\":1388:1405   */\n      add\n        /* \"#utility.yul\":1379:1385   */\n      dup7\n        /* \"#utility.yul\":1307:1406   */\n      tag_87\n      jump\t// in\n    tag_137:\n        /* \"#utility.yul\":1416:1496   */\n      tag_138\n        /* \"#utility.yul\":1492:1494   */\n      0x20\n        /* \"#utility.yul\":1481:1490   */\n      dup4\n        /* \"#utility.yul\":1477:1495   */\n      add\n        /* \"#utility.yul\":1468:1474   */\n      dup6\n        /* \"#utility.yul\":1416:1496   */\n      tag_90\n      jump\t// in\n    tag_138:\n        /* \"#utility.yul\":1506:1594   */\n      tag_139\n        /* \"#utility.yul\":1590:1592   */\n      0x40\n        /* \"#utility.yul\":1579:1588   */\n      dup4\n        /* \"#utility.yul\":1575:1593   */\n      add\n        /* \"#utility.yul\":1566:1572   */\n      dup5\n        /* \"#utility.yul\":1506:1594   */\n      tag_95\n      jump\t// in\n    tag_139:\n        /* \"#utility.yul\":1071:1601   */\n      swap5\n      swap4\n      pop\n      pop\n      pop\n      pop\n      jump\t// out\n        /* \"#utility.yul\":1607:1694   */\n    tag_96:\n        /* \"#utility.yul\":1654:1661   */\n      0x00\n        /* \"#utility.yul\":1683:1688   */\n      dup2\n        /* \"#utility.yul\":1672:1688   */\n      swap1\n      pop\n        /* \"#utility.yul\":1607:1694   */\n      swap2\n      swap1\n      pop\n      jump\t// out\n        /* \"#utility.yul\":1700:1862   */\n    tag_97:\n        /* \"#utility.yul\":1760:1769   */\n      0x00\n        /* \"#utility.yul\":1793:1856   */\n      tag_142\n        /* \"#utility.yul\":1811:1855   */\n      tag_143\n        /* \"#utility.yul\":1820:1854   */\n      tag_144\n        /* \"#utility.yul\":1848:1853   */\n      dup5\n        /* \"#utility.yul\":1820:1854   */\n      tag_96\n      jump\t// in\n    tag_144:\n        /* \"#utility.yul\":1811:1855   */\n      tag_93\n      jump\t// in\n    tag_143:\n        /* \"#utility.yul\":1793:1856   */\n      tag_92\n      jump\t// in\n    tag_142:\n        /* \"#utility.yul\":1780:1856   */\n      swap1\n      pop\n        /* \"#utility.yul\":1700:1862   */\n      swap2\n      swap1\n      pop\n      jump\t// out\n        /* \"#utility.yul\":1868:2027   */\n    tag_98:\n        /* \"#utility.yul\":1973:2020   */\n      tag_146\n        /* \"#utility.yul\":2014:2019   */\n      dup2\n        /* \"#utility.yul\":1973:2020   */\n      tag_97\n      jump\t// in\n    tag_146:\n        /* \"#utility.yul\":1968:1971   */\n      dup3\n        /* \"#utility.yul\":1961:2021   */\n      mstore\n        /* \"#utility.yul\":1868:2027   */\n      pop\n      pop\n      jump\t// out\n        /* \"#utility.yul\":2033:2567   */\n    tag_13:\n        /* \"#utility.yul\":2220:2224   */\n      0x00\n        /* \"#utility.yul\":2258:2260   */\n      0x60\n        /* \"#utility.yul\":2247:2256   */\n      dup3\n        /* \"#utility.yul\":2243:2261   */\n      add\n        /* \"#utility.yul\":2235:2261   */\n      swap1\n      pop\n        /* \"#utility.yul\":2271:2370   */\n      tag_148\n        /* \"#utility.yul\":2367:2368   */\n      0x00\n        /* \"#utility.yul\":2356:2365   */\n      dup4\n        /* \"#utility.yul\":2352:2369   */\n      add\n        /* \"#utility.yul\":2343:2349   */\n      dup7\n        /* \"#utility.yul\":2271:2370   */\n      tag_87\n      jump\t// in\n    tag_148:\n        /* \"#utility.yul\":2380:2460   */\n      tag_149\n        /* \"#utility.yul\":2456:2458   */\n      0x20\n        /* \"#utility.yul\":2445:2454   */\n      dup4\n        /* \"#utility.yul\":2441:2459   */\n      add\n        /* \"#utility.yul\":2432:2438   */\n      dup6\n        /* \"#utility.yul\":2380:2460   */\n      tag_90\n      jump\t// in\n    tag_149:\n        /* \"#utility.yul\":2470:2560   */\n      tag_150\n        /* \"#utility.yul\":2556:2558   */\n      0x40\n        /* \"#utility.yul\":2545:2554   */\n      dup4\n        /* \"#utility.yul\":2541:2559   */\n      add\n        /* \"#utility.yul\":2532:2538   */\n      dup5\n        /* \"#utility.yul\":2470:2560   */\n      tag_98\n      jump\t// in\n    tag_150:\n        /* \"#utility.yul\":2033:2567   */\n      swap5\n      swap4\n      pop\n      pop\n      pop\n      pop\n      jump\t// out\n        /* \"#utility.yul\":2573:2660   */\n    tag_99:\n        /* \"#utility.yul\":2620:2627   */\n      0x00\n        /* \"#utility.yul\":2649:2654   */\n      dup2\n        /* \"#utility.yul\":2638:2654   */\n      swap1\n      pop\n        /* \"#utility.yul\":2573:2660   */\n      swap2\n      swap1\n      pop\n      jump\t// out\n        /* \"#utility.yul\":2666:2828   */\n    tag_100:\n        /* \"#utility.yul\":2726:2735   */\n      0x00\n        /* \"#utility.yul\":2759:2822   */\n      tag_153\n        /* \"#utility.yul\":2777:2821   */\n      tag_154\n        /* \"#utility.yul\":2786:2820   */\n      tag_155\n        /* \"#utility.yul\":2814:2819   */\n      dup5\n        /* \"#utility.yul\":2786:2820   */\n      tag_99\n      jump\t// in\n    tag_155:\n        /* \"#utility.yul\":2777:2821   */\n      tag_93\n      jump\t// in\n    tag_154:\n        /* \"#utility.yul\":2759:2822   */\n      tag_92\n      jump\t// in\n    tag_153:\n        /* \"#utility.yul\":2746:2822   */\n      swap1\n      pop\n        /* \"#utility.yul\":2666:2828   */\n      swap2\n      swap1\n      pop\n      jump\t// out\n        /* \"#utility.yul\":2834:2993   */\n    tag_101:\n        /* \"#utility.yul\":2939:2986   */\n      tag_157\n        /* \"#utility.yul\":2980:2985   */\n      dup2\n        /* \"#utility.yul\":2939:2986   */\n      tag_100\n      jump\t// in\n    tag_157:\n        /* \"#utility.yul\":2934:2937   */\n      dup3\n        /* \"#utility.yul\":2927:2987   */\n      mstore\n        /* \"#utility.yul\":2834:2993   */\n      pop\n      pop\n      jump\t// out\n        /* \"#utility.yul\":2999:3533   */\n    tag_18:\n        /* \"#utility.yul\":3186:3190   */\n      0x00\n        /* \"#utility.yul\":3224:3226   */\n      0x60\n        /* \"#utility.yul\":3213:3222   */\n      dup3\n        /* \"#utility.yul\":3209:3227   */\n      add\n        /* \"#utility.yul\":3201:3227   */\n      swap1\n      pop\n        /* \"#utility.yul\":3237:3336   */\n      tag_159\n        /* \"#utility.yul\":3333:3334   */\n      0x00\n        /* \"#utility.yul\":3322:3331   */\n      dup4\n        /* \"#utility.yul\":3318:3335   */\n      add\n        /* \"#utility.yul\":3309:3315   */\n      dup7\n        /* \"#utility.yul\":3237:3336   */\n      tag_87\n      jump\t// in\n    tag_159:\n        /* \"#utility.yul\":3346:3426   */\n      tag_160\n        /* \"#utility.yul\":3422:3424   */\n      0x20\n        /* \"#utility.yul\":3411:3420   */\n      dup4\n        /* \"#utility.yul\":3407:3425   */\n      add\n        /* \"#utility.yul\":3398:3404   */\n      dup6\n        /* \"#utility.yul\":3346:3426   */\n      tag_90\n      jump\t// in\n    tag_160:\n        /* \"#utility.yul\":3436:3526   */\n      tag_161\n        /* \"#utility.yul\":3522:3524   */\n      0x40\n        /* \"#utility.yul\":3511:3520   */\n      dup4\n        /* \"#utility.yul\":3507:3525   */\n      add\n        /* \"#utility.yul\":3498:3504   */\n      dup5\n        /* \"#utility.yul\":3436:3526   */\n      tag_101\n      jump\t// in\n    tag_161:\n        /* \"#utility.yul\":2999:3533   */\n      swap5\n      swap4\n      pop\n      pop\n      pop\n      pop\n      jump\t// out\n        /* \"#utility.yul\":3539:3626   */\n    tag_102:\n        /* \"#utility.yul\":3586:3593   */\n      0x00\n        /* \"#utility.yul\":3615:3620   */\n      dup2\n        /* \"#utility.yul\":3604:3620   */\n      swap1\n      pop\n        /* \"#utility.yul\":3539:3626   */\n      swap2\n      swap1\n      pop\n      jump\t// out\n        /* \"#utility.yul\":3632:3794   */\n    tag_103:\n        /* \"#utility.yul\":3692:3701   */\n      0x00\n        /* \"#utility.yul\":3725:3788   */\n      tag_164\n        /* \"#utility.yul\":3743:3787   */\n      tag_165\n        /* \"#utility.yul\":3752:3786   */\n      tag_166\n        /* \"#utility.yul\":3780:3785   */\n      dup5\n        /* \"#utility.yul\":3752:3786   */\n      tag_102\n      jump\t// in\n    tag_166:\n        /* \"#utility.yul\":3743:3787   */\n      tag_93\n      jump\t// in\n    tag_165:\n        /* \"#utility.yul\":3725:3788   */\n      tag_92\n      jump\t// in\n    tag_164:\n        /* \"#utility.yul\":3712:3788   */\n      swap1\n      pop\n        /* \"#utility.yul\":3632:3794   */\n      swap2\n      swap1\n      pop\n      jump\t// out\n        /* \"#utility.yul\":3800:3959   */\n    tag_104:\n        /* \"#utility.yul\":3905:3952   */\n      tag_168\n        /* \"#utility.yul\":3946:3951   */\n      dup2\n        /* \"#utility.yul\":3905:3952   */\n      tag_103\n      jump\t// in\n    tag_168:\n        /* \"#utility.yul\":3900:3903   */\n      dup3\n        /* \"#utility.yul\":3893:3953   */\n      mstore\n        /* \"#utility.yul\":3800:3959   */\n      pop\n      pop\n      jump\t// out\n        /* \"#utility.yul\":3965:4499   */\n    tag_27:\n        /* \"#utility.yul\":4152:4156   */\n      0x00\n        /* \"#utility.yul\":4190:4192   */\n      0x60\n        /* \"#utility.yul\":4179:4188   */\n      dup3\n        /* \"#utility.yul\":4175:4193   */\n      add\n        /* \"#utility.yul\":4167:4193   */\n      swap1\n      pop\n        /* \"#utility.yul\":4203:4302   */\n      tag_170\n        /* \"#utility.yul\":4299:4300   */\n      0x00\n        /* \"#utility.yul\":4288:4297   */\n      dup4\n        /* \"#utility.yul\":4284:4301   */\n      add\n        /* \"#utility.yul\":4275:4281   */\n      dup7\n        /* \"#utility.yul\":4203:4302   */\n      tag_87\n      jump\t// in\n    tag_170:\n        /* \"#utility.yul\":4312:4392   */\n      tag_171\n        /* \"#utility.yul\":4388:4390   */\n      0x20\n        /* \"#utility.yul\":4377:4386   */\n      dup4\n        /* \"#utility.yul\":4373:4391   */\n      add\n        /* \"#utility.yul\":4364:4370   */\n      dup6\n        /* \"#utility.yul\":4312:4392   */\n      tag_90\n      jump\t// in\n    tag_171:\n        /* \"#utility.yul\":4402:4492   */\n      tag_172\n        /* \"#utility.yul\":4488:4490   */\n      0x40\n        /* \"#utility.yul\":4477:4486   */\n      dup4\n        /* \"#utility.yul\":4473:4491   */\n      add\n        /* \"#utility.yul\":4464:4470   */\n      dup5\n        /* \"#utility.yul\":4402:4492   */\n      tag_104\n      jump\t// in\n    tag_172:\n        /* \"#utility.yul\":3965:4499   */\n      swap5\n      swap4\n      pop\n      pop\n      pop\n      pop\n      jump\t// out\n        /* \"#utility.yul\":4505:4783   */\n    tag_35:\n        /* \"#utility.yul\":4626:4630   */\n      0x00\n        /* \"#utility.yul\":4664:4666   */\n      0x20\n        /* \"#utility.yul\":4653:4662   */\n      dup3\n        /* \"#utility.yul\":4649:4667   */\n      add\n        /* \"#utility.yul\":4641:4667   */\n      swap1\n      pop\n        /* \"#utility.yul\":4677:4776   */\n      tag_174\n        /* \"#utility.yul\":4773:4774   */\n      0x00\n        /* \"#utility.yul\":4762:4771   */\n      dup4\n        /* \"#utility.yul\":4758:4775   */\n      add\n        /* \"#utility.yul\":4749:4755   */\n      dup5\n        /* \"#utility.yul\":4677:4776   */\n      tag_87\n      jump\t// in\n    tag_174:\n        /* \"#utility.yul\":4505:4783   */\n      swap3\n      swap2\n      pop\n      pop\n      jump\t// out\n        /* \"#utility.yul\":4870:4987   */\n    tag_106:\n        /* \"#utility.yul\":4979:4980   */\n      0x00\n        /* \"#utility.yul\":4976:4977   */\n      0x00\n        /* \"#utility.yul\":4969:4981   */\n      revert\n        /* \"#utility.yul\":5116:5238   */\n    tag_108:\n        /* \"#utility.yul\":5189:5213   */\n      tag_179\n        /* \"#utility.yul\":5207:5212   */\n      dup2\n        /* \"#utility.yul\":5189:5213   */\n      tag_92\n      jump\t// in\n    tag_179:\n        /* \"#utility.yul\":5182:5187   */\n      dup2\n        /* \"#utility.yul\":5179:5214   */\n      eq\n        /* \"#utility.yul\":5169:5232   */\n      tag_180\n      jumpi\n        /* \"#utility.yul\":5228:5229   */\n      0x00\n        /* \"#utility.yul\":5225:5226   */\n      0x00\n        /* \"#utility.yul\":5218:5230   */\n      revert\n        /* \"#utility.yul\":5169:5232   */\n    tag_180:\n        /* \"#utility.yul\":5116:5238   */\n      pop\n      jump\t// out\n        /* \"#utility.yul\":5244:5387   */\n    tag_109:\n        /* \"#utility.yul\":5301:5306   */\n      0x00\n        /* \"#utility.yul\":5332:5338   */\n      dup2\n        /* \"#utility.yul\":5326:5339   */\n      mload\n        /* \"#utility.yul\":5317:5339   */\n      swap1\n      pop\n        /* \"#utility.yul\":5348:5381   */\n      tag_182\n        /* \"#utility.yul\":5375:5380   */\n      dup2\n        /* \"#utility.yul\":5348:5381   */\n      tag_108\n      jump\t// in\n    tag_182:\n        /* \"#utility.yul\":5244:5387   */\n      swap3\n      swap2\n      pop\n      pop\n      jump\t// out\n        /* \"#utility.yul\":5393:5744   */\n    tag_39:\n        /* \"#utility.yul\":5463:5469   */\n      0x00\n        /* \"#utility.yul\":5512:5514   */\n      0x20\n        /* \"#utility.yul\":5500:5509   */\n      dup3\n        /* \"#utility.yul\":5491:5498   */\n      dup5\n        /* \"#utility.yul\":5487:5510   */\n      sub\n        /* \"#utility.yul\":5483:5515   */\n      slt\n        /* \"#utility.yul\":5480:5599   */\n      iszero\n      tag_184\n      jumpi\n        /* \"#utility.yul\":5518:5597   */\n      tag_185\n      tag_106\n      jump\t// in\n    tag_185:\n        /* \"#utility.yul\":5480:5599   */\n    tag_184:\n        /* \"#utility.yul\":5638:5639   */\n      0x00\n        /* \"#utility.yul\":5663:5727   */\n      tag_186\n        /* \"#utility.yul\":5719:5726   */\n      dup5\n        /* \"#utility.yul\":5710:5716   */\n      dup3\n        /* \"#utility.yul\":5699:5708   */\n      dup6\n        /* \"#utility.yul\":5695:5717   */\n      add\n        /* \"#utility.yul\":5663:5727   */\n      tag_109\n      jump\t// in\n    tag_186:\n        /* \"#utility.yul\":5653:5727   */\n      swap2\n      pop\n        /* \"#utility.yul\":5609:5737   */\n      pop\n        /* \"#utility.yul\":5393:5744   */\n      swap3\n      swap2\n      pop\n      pop\n      jump\t// out\n        /* \"#utility.yul\":5750:5876   */\n    tag_110:\n        /* \"#utility.yul\":5845:5869   */\n      tag_188\n        /* \"#utility.yul\":5863:5868   */\n      dup2\n        /* \"#utility.yul\":5845:5869   */\n      tag_92\n      jump\t// in\n    tag_188:\n        /* \"#utility.yul\":5840:5843   */\n      dup3\n        /* \"#utility.yul\":5833:5870   */\n      mstore\n        /* \"#utility.yul\":5750:5876   */\n      pop\n      pop\n      jump\t// out\n        /* \"#utility.yul\":5882:6278   */\n    tag_41:\n        /* \"#utility.yul\":6031:6035   */\n      0x00\n        /* \"#utility.yul\":6069:6071   */\n      0x40\n        /* \"#utility.yul\":6058:6067   */\n      dup3\n        /* \"#utility.yul\":6054:6072   */\n      add\n        /* \"#utility.yul\":6046:6072   */\n      swap1\n      pop\n        /* \"#utility.yul\":6082:6181   */\n      tag_190\n        /* \"#utility.yul\":6178:6179   */\n      0x00\n        /* \"#utility.yul\":6167:6176   */\n      dup4\n        /* \"#utility.yul\":6163:6180   */\n      add\n        /* \"#utility.yul\":6154:6160   */\n      dup6\n        /* \"#utility.yul\":6082:6181   */\n      tag_87\n      jump\t// in\n    tag_190:\n        /* \"#utility.yul\":6191:6271   */\n      tag_191\n        /* \"#utility.yul\":6267:6269   */\n      0x20\n        /* \"#utility.yul\":6256:6265   */\n      dup4\n        /* \"#utility.yul\":6252:6270   */\n      add\n        /* \"#utility.yul\":6243:6249   */\n      dup5\n        /* \"#utility.yul\":6191:6271   */\n      tag_110\n      jump\t// in\n    tag_191:\n        /* \"#utility.yul\":5882:6278   */\n      swap4\n      swap3\n      pop\n      pop\n      pop\n      jump\t// out\n        /* \"#utility.yul\":6284:6406   */\n    tag_111:\n        /* \"#utility.yul\":6357:6381   */\n      tag_193\n        /* \"#utility.yul\":6375:6380   */\n      dup2\n        /* \"#utility.yul\":6357:6381   */\n      tag_89\n      jump\t// in\n    tag_193:\n        /* \"#utility.yul\":6350:6355   */\n      dup2\n        /* \"#utility.yul\":6347:6382   */\n      eq\n        /* \"#utility.yul\":6337:6400   */\n      tag_194\n      jumpi\n        /* \"#utility.yul\":6396:6397   */\n      0x00\n        /* \"#utility.yul\":6393:6394   */\n      0x00\n        /* \"#utility.yul\":6386:6398   */\n      revert\n        /* \"#utility.yul\":6337:6400   */\n    tag_194:\n        /* \"#utility.yul\":6284:6406   */\n      pop\n      jump\t// out\n        /* \"#utility.yul\":6412:6555   */\n    tag_112:\n        /* \"#utility.yul\":6469:6474   */\n      0x00\n        /* \"#utility.yul\":6500:6506   */\n      dup2\n        /* \"#utility.yul\":6494:6507   */\n      mload\n        /* \"#utility.yul\":6485:6507   */\n      swap1\n      pop\n        /* \"#utility.yul\":6516:6549   */\n      tag_196\n        /* \"#utility.yul\":6543:6548   */\n      dup2\n        /* \"#utility.yul\":6516:6549   */\n      tag_111\n      jump\t// in\n    tag_196:\n        /* \"#utility.yul\":6412:6555   */\n      swap3\n      swap2\n      pop\n      pop\n      jump\t// out\n        /* \"#utility.yul\":6561:6912   */\n    tag_45:\n        /* \"#utility.yul\":6631:6637   */\n      0x00\n        /* \"#utility.yul\":6680:6682   */\n      0x20\n        /* \"#utility.yul\":6668:6677   */\n      dup3\n        /* \"#utility.yul\":6659:6666   */\n      dup5\n        /* \"#utility.yul\":6655:6678   */\n      sub\n        /* \"#utility.yul\":6651:6683   */\n      slt\n        /* \"#utility.yul\":6648:6767   */\n      iszero\n      tag_198\n      jumpi\n        /* \"#utility.yul\":6686:6765   */\n      tag_199\n      tag_106\n      jump\t// in\n    tag_199:\n        /* \"#utility.yul\":6648:6767   */\n    tag_198:\n        /* \"#utility.yul\":6806:6807   */\n      0x00\n        /* \"#utility.yul\":6831:6895   */\n      tag_200\n        /* \"#utility.yul\":6887:6894   */\n      dup5\n        /* \"#utility.yul\":6878:6884   */\n      dup3\n        /* \"#utility.yul\":6867:6876   */\n      dup6\n        /* \"#utility.yul\":6863:6885   */\n      add\n        /* \"#utility.yul\":6831:6895   */\n      tag_112\n      jump\t// in\n    tag_200:\n        /* \"#utility.yul\":6821:6895   */\n      swap2\n      pop\n        /* \"#utility.yul\":6777:6905   */\n      pop\n        /* \"#utility.yul\":6561:6912   */\n      swap3\n      swap2\n      pop\n      pop\n      jump\t// out\n        /* \"#utility.yul\":6918:7098   */\n    tag_113:\n        /* \"#utility.yul\":6966:7043   */\n      0x4e487b7100000000000000000000000000000000000000000000000000000000\n        /* \"#utility.yul\":6963:6964   */\n      0x00\n        /* \"#utility.yul\":6956:7044   */\n      mstore\n        /* \"#utility.yul\":7063:7067   */\n      0x11\n        /* \"#utility.yul\":7060:7061   */\n      0x04\n        /* \"#utility.yul\":7053:7068   */\n      mstore\n        /* \"#utility.yul\":7087:7091   */\n      0x24\n        /* \"#utility.yul\":7084:7085   */\n      0x00\n        /* \"#utility.yul\":7077:7092   */\n      revert\n        /* \"#utility.yul\":7104:7514   */\n    tag_47:\n        /* \"#utility.yul\":7144:7151   */\n      0x00\n        /* \"#utility.yul\":7167:7187   */\n      tag_203\n        /* \"#utility.yul\":7185:7186   */\n      dup3\n        /* \"#utility.yul\":7167:7187   */\n      tag_92\n      jump\t// in\n    tag_203:\n        /* \"#utility.yul\":7162:7187   */\n      swap2\n      pop\n        /* \"#utility.yul\":7201:7221   */\n      tag_204\n        /* \"#utility.yul\":7219:7220   */\n      dup4\n        /* \"#utility.yul\":7201:7221   */\n      tag_92\n      jump\t// in\n    tag_204:\n        /* \"#utility.yul\":7196:7221   */\n      swap3\n      pop\n        /* \"#utility.yul\":7256:7257   */\n      dup3\n        /* \"#utility.yul\":7253:7254   */\n      dup3\n        /* \"#utility.yul\":7249:7258   */\n      mul\n        /* \"#utility.yul\":7278:7308   */\n      tag_205\n        /* \"#utility.yul\":7296:7307   */\n      dup2\n        /* \"#utility.yul\":7278:7308   */\n      tag_92\n      jump\t// in\n    tag_205:\n        /* \"#utility.yul\":7267:7308   */\n      swap2\n      pop\n        /* \"#utility.yul\":7457:7458   */\n      dup3\n        /* \"#utility.yul\":7448:7455   */\n      dup3\n        /* \"#utility.yul\":7444:7459   */\n      div\n        /* \"#utility.yul\":7441:7442   */\n      dup5\n        /* \"#utility.yul\":7438:7460   */\n      eq\n        /* \"#utility.yul\":7418:7419   */\n      dup4\n        /* \"#utility.yul\":7411:7420   */\n      iszero\n        /* \"#utility.yul\":7391:7474   */\n      or\n        /* \"#utility.yul\":7368:7507   */\n      tag_206\n      jumpi\n        /* \"#utility.yul\":7487:7505   */\n      tag_207\n      tag_113\n      jump\t// in\n    tag_207:\n        /* \"#utility.yul\":7368:7507   */\n    tag_206:\n        /* \"#utility.yul\":7152:7514   */\n      pop\n        /* \"#utility.yul\":7104:7514   */\n      swap3\n      swap2\n      pop\n      pop\n      jump\t// out\n        /* \"#utility.yul\":7520:7916   */\n    tag_49:\n        /* \"#utility.yul\":7669:7673   */\n      0x00\n        /* \"#utility.yul\":7707:7709   */\n      0x40\n        /* \"#utility.yul\":7696:7705   */\n      dup3\n        /* \"#utility.yul\":7692:7710   */\n      add\n        /* \"#utility.yul\":7684:7710   */\n      swap1\n      pop\n        /* \"#utility.yul\":7720:7819   */\n      tag_209\n        /* \"#utility.yul\":7816:7817   */\n      0x00\n        /* \"#utility.yul\":7805:7814   */\n      dup4\n        /* \"#utility.yul\":7801:7818   */\n      add\n        /* \"#utility.yul\":7792:7798   */\n      dup6\n        /* \"#utility.yul\":7720:7819   */\n      tag_87\n      jump\t// in\n    tag_209:\n        /* \"#utility.yul\":7829:7909   */\n      tag_210\n        /* \"#utility.yul\":7905:7907   */\n      0x20\n        /* \"#utility.yul\":7894:7903   */\n      dup4\n        /* \"#utility.yul\":7890:7908   */\n      add\n        /* \"#utility.yul\":7881:7887   */\n      dup5\n        /* \"#utility.yul\":7829:7909   */\n      tag_90\n      jump\t// in\n    tag_210:\n        /* \"#utility.yul\":7520:7916   */\n      swap4\n      swap3\n      pop\n      pop\n      pop\n      jump\t// out\n        /* \"#utility.yul\":7922:8102   */\n    tag_55:\n        /* \"#utility.yul\":7970:8047   */\n      0x4e487b7100000000000000000000000000000000000000000000000000000000\n        /* \"#utility.yul\":7967:7968   */\n      0x00\n        /* \"#utility.yul\":7960:8048   */\n      mstore\n        /* \"#utility.yul\":8067:8071   */\n      0x01\n        /* \"#utility.yul\":8064:8065   */\n      0x04\n        /* \"#utility.yul\":8057:8072   */\n      mstore\n        /* \"#utility.yul\":8091:8095   */\n      0x24\n        /* \"#utility.yul\":8088:8089   */\n      0x00\n        /* \"#utility.yul\":8081:8096   */\n      revert\n        /* \"#utility.yul\":8108:8520   */\n    tag_67:\n        /* \"#utility.yul\":8265:8269   */\n      0x00\n        /* \"#utility.yul\":8303:8305   */\n      0x40\n        /* \"#utility.yul\":8292:8301   */\n      dup3\n        /* \"#utility.yul\":8288:8306   */\n      add\n        /* \"#utility.yul\":8280:8306   */\n      swap1\n      pop\n        /* \"#utility.yul\":8316:8415   */\n      tag_213\n        /* \"#utility.yul\":8412:8413   */\n      0x00\n        /* \"#utility.yul\":8401:8410   */\n      dup4\n        /* \"#utility.yul\":8397:8414   */\n      add\n        /* \"#utility.yul\":8388:8394   */\n      dup6\n        /* \"#utility.yul\":8316:8415   */\n      tag_87\n      jump\t// in\n    tag_213:\n        /* \"#utility.yul\":8425:8513   */\n      tag_214\n        /* \"#utility.yul\":8509:8511   */\n      0x20\n        /* \"#utility.yul\":8498:8507   */\n      dup4\n        /* \"#utility.yul\":8494:8512   */\n      add\n        /* \"#utility.yul\":8485:8491   */\n      dup5\n        /* \"#utility.yul\":8425:8513   */\n      tag_95\n      jump\t// in\n    tag_214:\n        /* \"#utility.yul\":8108:8520   */\n      swap4\n      swap3\n      pop\n      pop\n      pop\n      jump\t// out\n        /* \"#utility.yul\":8526:8611   */\n    tag_114:\n        /* \"#utility.yul\":8571:8578   */\n      0x00\n        /* \"#utility.yul\":8600:8605   */\n      dup2\n        /* \"#utility.yul\":8589:8605   */\n      swap1\n      pop\n        /* \"#utility.yul\":8526:8611   */\n      swap2\n      swap1\n      pop\n      jump\t// out\n        /* \"#utility.yul\":8617:8775   */\n    tag_115:\n        /* \"#utility.yul\":8675:8684   */\n      0x00\n        /* \"#utility.yul\":8708:8769   */\n      tag_217\n        /* \"#utility.yul\":8726:8768   */\n      tag_218\n        /* \"#utility.yul\":8735:8767   */\n      tag_219\n        /* \"#utility.yul\":8761:8766   */\n      dup5\n        /* \"#utility.yul\":8735:8767   */\n      tag_114\n      jump\t// in\n    tag_219:\n        /* \"#utility.yul\":8726:8768   */\n      tag_93\n      jump\t// in\n    tag_218:\n        /* \"#utility.yul\":8708:8769   */\n      tag_92\n      jump\t// in\n    tag_217:\n        /* \"#utility.yul\":8695:8769   */\n      swap1\n      pop\n        /* \"#utility.yul\":8617:8775   */\n      swap2\n      swap1\n      pop\n      jump\t// out\n        /* \"#utility.yul\":8781:8936   */\n    tag_116:\n        /* \"#utility.yul\":8884:8929   */\n      tag_221\n        /* \"#utility.yul\":8923:8928   */\n      dup2\n        /* \"#utility.yul\":8884:8929   */\n      tag_115\n      jump\t// in\n    tag_221:\n        /* \"#utility.yul\":8879:8882   */\n      dup3\n        /* \"#utility.yul\":8872:8930   */\n      mstore\n        /* \"#utility.yul\":8781:8936   */\n      pop\n      pop\n      jump\t// out\n        /* \"#utility.yul\":8942:9354   */\n    tag_74:\n        /* \"#utility.yul\":9099:9103   */\n      0x00\n        /* \"#utility.yul\":9137:9139   */\n      0x40\n        /* \"#utility.yul\":9126:9135   */\n      dup3\n        /* \"#utility.yul\":9122:9140   */\n      add\n        /* \"#utility.yul\":9114:9140   */\n      swap1\n      pop\n        /* \"#utility.yul\":9150:9249   */\n      tag_223\n        /* \"#utility.yul\":9246:9247   */\n      0x00\n        /* \"#utility.yul\":9235:9244   */\n      dup4\n        /* \"#utility.yul\":9231:9248   */\n      add\n        /* \"#utility.yul\":9222:9228   */\n      dup6\n        /* \"#utility.yul\":9150:9249   */\n      tag_87\n      jump\t// in\n    tag_223:\n        /* \"#utility.yul\":9259:9347   */\n      tag_224\n        /* \"#utility.yul\":9343:9345   */\n      0x20\n        /* \"#utility.yul\":9332:9341   */\n      dup4\n        /* \"#utility.yul\":9328:9346   */\n      add\n        /* \"#utility.yul\":9319:9325   */\n      dup5\n        /* \"#utility.yul\":9259:9347   */\n      tag_116\n      jump\t// in\n    tag_224:\n        /* \"#utility.yul\":8942:9354   */\n      swap4\n      swap3\n      pop\n      pop\n      pop\n      jump\t// out\n        /* \"#utility.yul\":9360:9445   */\n    tag_117:\n        /* \"#utility.yul\":9405:9412   */\n      0x00\n        /* \"#utility.yul\":9434:9439   */\n      dup2\n        /* \"#utility.yul\":9423:9439   */\n      swap1\n      pop\n        /* \"#utility.yul\":9360:9445   */\n      swap2\n      swap1\n      pop\n      jump\t// out\n        /* \"#utility.yul\":9451:9609   */\n    tag_118:\n        /* \"#utility.yul\":9509:9518   */\n      0x00\n        /* \"#utility.yul\":9542:9603   */\n      tag_227\n        /* \"#utility.yul\":9560:9602   */\n      tag_228\n        /* \"#utility.yul\":9569:9601   */\n      tag_229\n        /* \"#utility.yul\":9595:9600   */\n      dup5\n        /* \"#utility.yul\":9569:9601   */\n      tag_117\n      jump\t// in\n    tag_229:\n        /* \"#utility.yul\":9560:9602   */\n      tag_93\n      jump\t// in\n    tag_228:\n        /* \"#utility.yul\":9542:9603   */\n      tag_92\n      jump\t// in\n    tag_227:\n        /* \"#utility.yul\":9529:9603   */\n      swap1\n      pop\n        /* \"#utility.yul\":9451:9609   */\n      swap2\n      swap1\n      pop\n      jump\t// out\n        /* \"#utility.yul\":9615:9770   */\n    tag_119:\n        /* \"#utility.yul\":9718:9763   */\n      tag_231\n        /* \"#utility.yul\":9757:9762   */\n      dup2\n        /* \"#utility.yul\":9718:9763   */\n      tag_118\n      jump\t// in\n    tag_231:\n        /* \"#utility.yul\":9713:9716   */\n      dup3\n        /* \"#utility.yul\":9706:9764   */\n      mstore\n        /* \"#utility.yul\":9615:9770   */\n      pop\n      pop\n      jump\t// out\n        /* \"#utility.yul\":9776:10188   */\n    tag_81:\n        /* \"#utility.yul\":9933:9937   */\n      0x00\n        /* \"#utility.yul\":9971:9973   */\n      0x40\n        /* \"#utility.yul\":9960:9969   */\n      dup3\n        /* \"#utility.yul\":9956:9974   */\n      add\n        /* \"#utility.yul\":9948:9974   */\n      swap1\n      pop\n        /* \"#utility.yul\":9984:10083   */\n      tag_233\n        /* \"#utility.yul\":10080:10081   */\n      0x00\n        /* \"#utility.yul\":10069:10078   */\n      dup4\n        /* \"#utility.yul\":10065:10082   */\n      add\n        /* \"#utility.yul\":10056:10062   */\n      dup6\n        /* \"#utility.yul\":9984:10083   */\n      tag_87\n      jump\t// in\n    tag_233:\n        /* \"#utility.yul\":10093:10181   */\n      tag_234\n        /* \"#utility.yul\":10177:10179   */\n      0x20\n        /* \"#utility.yul\":10166:10175   */\n      dup4\n        /* \"#utility.yul\":10162:10180   */\n      add\n        /* \"#utility.yul\":10153:10159   */\n      dup5\n        /* \"#utility.yul\":10093:10181   */\n      tag_119\n      jump\t// in\n    tag_234:\n        /* \"#utility.yul\":9776:10188   */\n      swap4\n      swap3\n      pop\n      pop\n      pop\n      jump\t// out\n\n    auxdata: 0xa2646970667358221220936eb19618f4f90107650d1d3025d9782e52324fe52ff59e92d68c32f9c09e0d64736f6c634300081e0033\n}\n",
				"bytecode": {
					"linkReferences": {
						"application_contracts/Iterable Mapping.sol": {
							"IterableMapping": [
								{
									"length": 20,
									"start": 86
								},
								{
									"length": 20,
									"start": 191
								},
								{
									"length": 20,
									"start": 298
								},
								{
									"length": 20,
									"start": 405
								},
								{
									"length": 20,
									"start": 512
								},
								{
									"length": 20,
									"start": 625
								},
								{
									"length": 20,
									"start": 753
								},
								{
									"length": 20,
									"start": 890
								},
								{
									"length": 20,
									"start": 1041
								},
								{
									"length": 20,
									"start": 1147
								},
								{
									"length": 20,
									"start": 1304
								},
								{
									"length": 20,
									"start": 1486
								},
								{
									"length": 20,
									"start": 1669
								}
							]
						}
					},
					"object": "6080604052348015600e575f5ffd5b50610bf38061001c5f395ff3fe608060405234801561000f575f5ffd5b5060043610610029575f3560e01c8063d230a0d51461002d575b5f5ffd5b610035610037565b005b5f73__$bd4f3c0a31c71ec028fb605325b346fa12$__63bc2b405c90915f5f6040518463ffffffff1660e01b815260040161007493929190610798565b5f6040518083038186803b15801561008a575f5ffd5b505af415801561009c573d5f5f3e3d5ffd5b505050505f73__$bd4f3c0a31c71ec028fb605325b346fa12$__63bc2b405c9091600160646040518463ffffffff1660e01b81526004016100df93929190610806565b5f6040518083038186803b1580156100f5575f5ffd5b505af4158015610107573d5f5f3e3d5ffd5b505050505f73__$bd4f3c0a31c71ec028fb605325b346fa12$__63bc2b405c9091600260c86040518463ffffffff1660e01b815260040161014a93929190610874565b5f6040518083038186803b158015610160575f5ffd5b505af4158015610172573d5f5f3e3d5ffd5b505050505f73__$bd4f3c0a31c71ec028fb605325b346fa12$__63bc2b405c9091600260c86040518463ffffffff1660e01b81526004016101b593929190610874565b5f6040518083038186803b1580156101cb575f5ffd5b505af41580156101dd573d5f5f3e3d5ffd5b505050505f73__$bd4f3c0a31c71ec028fb605325b346fa12$__63bc2b405c9091600361012c6040518463ffffffff1660e01b8152600401610221939291906108e2565b5f6040518083038186803b158015610237575f5ffd5b505af4158015610249573d5f5f3e3d5ffd5b505050505f5f90505b5f73__$bd4f3c0a31c71ec028fb605325b346fa12$__63deb3d89690916040518263ffffffff1660e01b815260040161028b9190610917565b602060405180830381865af41580156102a6573d5f5f3e3d5ffd5b505050506040513d601f19601f820116820180604052508101906102ca919061095e565b8110156103f1575f5f73__$bd4f3c0a31c71ec028fb605325b346fa12$__63d1aa9e7e9091846040518363ffffffff1660e01b815260040161030d929190610998565b602060405180830381865af4158015610328573d5f5f3e3d5ffd5b505050506040513d601f19601f8201168201806040525081019061034c91906109e9565b905060648261035b9190610a41565b5f73__$bd4f3c0a31c71ec028fb605325b346fa12$__63732a2ccf9091846040518363ffffffff1660e01b8152600401610396929190610a82565b602060405180830381865af41580156103b1573d5f5f3e3d5ffd5b505050506040513d601f19601f820116820180604052508101906103d5919061095e565b146103e3576103e2610aa9565b5b508080600101915050610252565b505f73__$bd4f3c0a31c71ec028fb605325b346fa12$__634c60db9c909160016040518363ffffffff1660e01b815260040161042e929190610a82565b5f6040518083038186803b158015610444575f5ffd5b505af4158015610456573d5f5f3e3d5ffd5b5050505060035f73__$bd4f3c0a31c71ec028fb605325b346fa12$__63deb3d89690916040518263ffffffff1660e01b81526004016104959190610917565b602060405180830381865af41580156104b0573d5f5f3e3d5ffd5b505050506040513d601f19601f820116820180604052508101906104d4919061095e565b146104e2576104e1610aa9565b5b5f73ffffffffffffffffffffffffffffffffffffffff165f73__$bd4f3c0a31c71ec028fb605325b346fa12$__63d1aa9e7e90915f6040518363ffffffff1660e01b8152600401610534929190610ad6565b602060405180830381865af415801561054f573d5f5f3e3d5ffd5b505050506040513d601f19601f8201168201806040525081019061057391906109e9565b73ffffffffffffffffffffffffffffffffffffffff161461059757610596610aa9565b5b600373ffffffffffffffffffffffffffffffffffffffff165f73__$bd4f3c0a31c71ec028fb605325b346fa12$__63d1aa9e7e909160016040518363ffffffff1660e01b81526004016105eb929190610b36565b602060405180830381865af4158015610606573d5f5f3e3d5ffd5b505050506040513d601f19601f8201168201806040525081019061062a91906109e9565b73ffffffffffffffffffffffffffffffffffffffff161461064e5761064d610aa9565b5b600273ffffffffffffffffffffffffffffffffffffffff165f73__$bd4f3c0a31c71ec028fb605325b346fa12$__63d1aa9e7e909160026040518363ffffffff1660e01b81526004016106a2929190610b96565b602060405180830381865af41580156106bd573d5f5f3e3d5ffd5b505050506040513d601f19601f820116820180604052508101906106e191906109e9565b73ffffffffffffffffffffffffffffffffffffffff161461070557610704610aa9565b5b565b8082525050565b5f73ffffffffffffffffffffffffffffffffffffffff82169050919050565b5f6107378261070e565b9050919050565b6107478161072d565b82525050565b5f819050919050565b5f819050919050565b5f819050919050565b5f61078261077d6107788461074d565b61075f565b610756565b9050919050565b61079281610768565b82525050565b5f6060820190506107ab5f830186610707565b6107b8602083018561073e565b6107c56040830184610789565b949350505050565b5f819050919050565b5f6107f06107eb6107e6846107cd565b61075f565b610756565b9050919050565b610800816107d6565b82525050565b5f6060820190506108195f830186610707565b610826602083018561073e565b61083360408301846107f7565b949350505050565b5f819050919050565b5f61085e6108596108548461083b565b61075f565b610756565b9050919050565b61086e81610844565b82525050565b5f6060820190506108875f830186610707565b610894602083018561073e565b6108a16040830184610865565b949350505050565b5f819050919050565b5f6108cc6108c76108c2846108a9565b61075f565b610756565b9050919050565b6108dc816108b2565b82525050565b5f6060820190506108f55f830186610707565b610902602083018561073e565b61090f60408301846108d3565b949350505050565b5f60208201905061092a5f830184610707565b92915050565b5f5ffd5b61093d81610756565b8114610947575f5ffd5b50565b5f8151905061095881610934565b92915050565b5f6020828403121561097357610972610930565b5b5f6109808482850161094a565b91505092915050565b61099281610756565b82525050565b5f6040820190506109ab5f830185610707565b6109b86020830184610989565b9392505050565b6109c88161072d565b81146109d2575f5ffd5b50565b5f815190506109e3816109bf565b92915050565b5f602082840312156109fe576109fd610930565b5b5f610a0b848285016109d5565b91505092915050565b7f4e487b71000000000000000000000000000000000000000000000000000000005f52601160045260245ffd5b5f610a4b82610756565b9150610a5683610756565b9250828202610a6481610756565b91508282048414831517610a7b57610a7a610a14565b5b5092915050565b5f604082019050610a955f830185610707565b610aa2602083018461073e565b9392505050565b7f4e487b71000000000000000000000000000000000000000000000000000000005f52600160045260245ffd5b5f604082019050610ae95f830185610707565b610af66020830184610789565b9392505050565b5f819050919050565b5f610b20610b1b610b1684610afd565b61075f565b610756565b9050919050565b610b3081610b06565b82525050565b5f604082019050610b495f830185610707565b610b566020830184610b27565b9392505050565b5f819050919050565b5f610b80610b7b610b7684610b5d565b61075f565b610756565b9050919050565b610b9081610b66565b82525050565b5f604082019050610ba95f830185610707565b610bb66020830184610b87565b939250505056fea2646970667358221220936eb19618f4f90107650d1d3025d9782e52324fe52ff59e92d68c32f9c09e0d64736f6c634300081e0033",
					"opcodes": "PUSH1 0x80 PUSH1 0x40 MSTORE CALLVALUE DUP1 ISZERO PUSH1 0xE JUMPI PUSH0 PUSH0 REVERT JUMPDEST POP PUSH2 0xBF3 DUP1 PUSH2 0x1C PUSH0 CODECOPY PUSH0 RETURN INVALID PUSH1 0x80 PUSH1 0x40 MSTORE CALLVALUE DUP1 ISZERO PUSH2 0xF JUMPI PUSH0 PUSH0 REVERT JUMPDEST POP PUSH1 0x4 CALLDATASIZE LT PUSH2 0x29 JUMPI PUSH0 CALLDATALOAD PUSH1 0xE0 SHR DUP1 PUSH4 0xD230A0D5 EQ PUSH2 0x2D JUMPI JUMPDEST PUSH0 PUSH0 REVERT JUMPDEST PUSH2 0x35 PUSH2 0x37 JUMP JUMPDEST STOP JUMPDEST PUSH0 PUSH20 0x0 PUSH4 0xBC2B405C SWAP1 SWAP2 PUSH0 PUSH0 PUSH1 0x40 MLOAD DUP5 PUSH4 0xFFFFFFFF AND PUSH1 0xE0 SHL DUP2 MSTORE PUSH1 0x4 ADD PUSH2 0x74 SWAP4 SWAP3 SWAP2 SWAP1 PUSH2 0x798 JUMP JUMPDEST PUSH0 PUSH1 0x40 MLOAD DUP1 DUP4 SUB DUP2 DUP7 DUP1 EXTCODESIZE ISZERO DUP1 ISZERO PUSH2 0x8A JUMPI PUSH0 PUSH0 REVERT JUMPDEST POP GAS DELEGATECALL ISZERO DUP1 ISZERO PUSH2 0x9C JUMPI RETURNDATASIZE PUSH0 PUSH0 RETURNDATACOPY RETURNDATASIZE PUSH0 REVERT JUMPDEST POP POP POP POP PUSH0 PUSH20 0x0 PUSH4 0xBC2B405C SWAP1 SWAP2 PUSH1 0x1 PUSH1 0x64 PUSH1 0x40 MLOAD DUP5 PUSH4 0xFFFFFFFF AND PUSH1 0xE0 SHL DUP2 MSTORE PUSH1 0x4 ADD PUSH2 0xDF SWAP4 SWAP3 SWAP2 SWAP1 PUSH2 0x806 JUMP JUMPDEST PUSH0 PUSH1 0x40 MLOAD DUP1 DUP4 SUB DUP2 DUP7 DUP1 EXTCODESIZE ISZERO DUP1 ISZERO PUSH2 0xF5 JUMPI PUSH0 PUSH0 REVERT JUMPDEST POP GAS DELEGATECALL ISZERO DUP1 ISZERO PUSH2 0x107 JUMPI RETURNDATASIZE PUSH0 PUSH0 RETURNDATACOPY RETURNDATASIZE PUSH0 REVERT JUMPDEST POP POP POP POP PUSH0 PUSH20 0x0 PUSH4 0xBC2B405C SWAP1 SWAP2 PUSH1 0x2 PUSH1 0xC8 PUSH1 0x40 MLOAD DUP5 PUSH4 0xFFFFFFFF AND PUSH1 0xE0 SHL DUP2 MSTORE PUSH1 0x4 ADD PUSH2 0x14A SWAP4 SWAP3 SWAP2 SWAP1 PUSH2 0x874 JUMP JUMPDEST PUSH0 PUSH1 0x40 MLOAD DUP1 DUP4 SUB DUP2 DUP7 DUP1 EXTCODESIZE ISZERO DUP1 ISZERO PUSH2 0x160 JUMPI PUSH0 PUSH0 REVERT JUMPDEST POP GAS DELEGATECALL ISZERO DUP1 ISZERO PUSH2 0x172 JUMPI RETURNDATASIZE PUSH0 PUSH0 RETURNDATACOPY RETURNDATASIZE PUSH0 REVERT JUMPDEST POP POP POP POP PUSH0 PUSH20 0x0 PUSH4 0xBC2B405C SWAP1 SWAP2 PUSH1 0x2 PUSH1 0xC8 PUSH1 0x40 MLOAD DUP5 PUSH4 0xFFFFFFFF AND PUSH1 0xE0 SHL DUP2 MSTORE PUSH1 0x4 ADD PUSH2 0x1B5 SWAP4 SWAP3 SWAP2 SWAP1 PUSH2 0x874 JUMP JUMPDEST PUSH0 PUSH1 0x40 MLOAD DUP1 DUP4 SUB DUP2 DUP7 DUP1 EXTCODESIZE ISZERO DUP1 ISZERO PUSH2 0x1CB JUMPI PUSH0 PUSH0 REVERT JUMPDEST POP GAS DELEGATECALL ISZERO DUP1 ISZERO PUSH2 0x1DD JUMPI RETURNDATASIZE PUSH0 PUSH0 RETURNDATACOPY RETURNDATASIZE PUSH0 REVERT JUMPDEST POP POP POP POP PUSH0 PUSH20 0x0 PUSH4 0xBC2B405C SWAP1 SWAP2 PUSH1 0x3 PUSH2 0x12C PUSH1 0x40 MLOAD DUP5 PUSH4 0xFFFFFFFF AND PUSH1 0xE0 SHL DUP2 MSTORE PUSH1 0x4 ADD PUSH2 0x221 SWAP4 SWAP3 SWAP2 SWAP1 PUSH2 0x8E2 JUMP JUMPDEST PUSH0 PUSH1 0x40 MLOAD DUP1 DUP4 SUB DUP2 DUP7 DUP1 EXTCODESIZE ISZERO DUP1 ISZERO PUSH2 0x237 JUMPI PUSH0 PUSH0 REVERT JUMPDEST POP GAS DELEGATECALL ISZERO DUP1 ISZERO PUSH2 0x249 JUMPI RETURNDATASIZE PUSH0 PUSH0 RETURNDATACOPY RETURNDATASIZE PUSH0 REVERT JUMPDEST POP POP POP POP PUSH0 PUSH0 SWAP1 POP JUMPDEST PUSH0 PUSH20 0x0 PUSH4 0xDEB3D896 SWAP1 SWAP2 PUSH1 0x40 MLOAD DUP3 PUSH4 0xFFFFFFFF AND PUSH1 0xE0 SHL DUP2 MSTORE PUSH1 0x4 ADD PUSH2 0x28B SWAP2 SWAP1 PUSH2 0x917 JUMP JUMPDEST PUSH1 0x20 PUSH1 0x40 MLOAD DUP1 DUP4 SUB DUP2 DUP7 GAS DELEGATECALL ISZERO DUP1 ISZERO PUSH2 0x2A6 JUMPI RETURNDATASIZE PUSH0 PUSH0 RETURNDATACOPY RETURNDATASIZE PUSH0 REVERT JUMPDEST POP POP POP POP PUSH1 0x40 MLOAD RETURNDATASIZE PUSH1 0x1F NOT PUSH1 0x1F DUP3 ADD AND DUP3 ADD DUP1 PUSH1 0x40 MSTORE POP DUP2 ADD SWAP1 PUSH2 0x2CA SWAP2 SWAP1 PUSH2 0x95E JUMP JUMPDEST DUP2 LT ISZERO PUSH2 0x3F1 JUMPI PUSH0 PUSH0 PUSH20 0x0 PUSH4 0xD1AA9E7E SWAP1 SWAP2 DUP5 PUSH1 0x40 MLOAD DUP4 PUSH4 0xFFFFFFFF AND PUSH1 0xE0 SHL DUP2 MSTORE PUSH1 0x4 ADD PUSH2 0x30D SWAP3 SWAP2 SWAP1 PUSH2 0x998 JUMP JUMPDEST PUSH1 0x20 PUSH1 0x40 MLOAD DUP1 DUP4 SUB DUP2 DUP7 GAS DELEGATECALL ISZERO DUP1 ISZERO PUSH2 0x328 JUMPI RETURNDATASIZE PUSH0 PUSH0 RETURNDATACOPY RETURNDATASIZE PUSH0 REVERT JUMPDEST POP POP POP POP PUSH1 0x40 MLOAD RETURNDATASIZE PUSH1 0x1F NOT PUSH1 0x1F DUP3 ADD AND DUP3 ADD DUP1 PUSH1 0x40 MSTORE POP DUP2 ADD SWAP1 PUSH2 0x34C SWAP2 SWAP1 PUSH2 0x9E9 JUMP JUMPDEST SWAP1 POP PUSH1 0x64 DUP3 PUSH2 0x35B SWAP2 SWAP1 PUSH2 0xA41 JUMP JUMPDEST PUSH0 PUSH20 0x0 PUSH4 0x732A2CCF SWAP1 SWAP2 DUP5 PUSH1 0x40 MLOAD DUP4 PUSH4 0xFFFFFFFF AND PUSH1 0xE0 SHL DUP2 MSTORE PUSH1 0x4 ADD PUSH2 0x396 SWAP3 SWAP2 SWAP1 PUSH2 0xA82 JUMP JUMPDEST PUSH1 0x20 PUSH1 0x40 MLOAD DUP1 DUP4 SUB DUP2 DUP7 GAS DELEGATECALL ISZERO DUP1 ISZERO PUSH2 0x3B1 JUMPI RETURNDATASIZE PUSH0 PUSH0 RETURNDATACOPY RETURNDATASIZE PUSH0 REVERT JUMPDEST POP POP POP POP PUSH1 0x40 MLOAD RETURNDATASIZE PUSH1 0x1F NOT PUSH1 0x1F DUP3 ADD AND DUP3 ADD DUP1 PUSH1 0x40 MSTORE POP DUP2 ADD SWAP1 PUSH2 0x3D5 SWAP2 SWAP1 PUSH2 0x95E JUMP JUMPDEST EQ PUSH2 0x3E3 JUMPI PUSH2 0x3E2 PUSH2 0xAA9 JUMP JUMPDEST JUMPDEST POP DUP1 DUP1 PUSH1 0x1 ADD SWAP2 POP POP PUSH2 0x252 JUMP JUMPDEST POP PUSH0 PUSH20 0x0 PUSH4 0x4C60DB9C SWAP1 SWAP2 PUSH1 0x1 PUSH1 0x40 MLOAD DUP4 PUSH4 0xFFFFFFFF AND PUSH1 0xE0 SHL DUP2 MSTORE PUSH1 0x4 ADD PUSH2 0x42E SWAP3 SWAP2 SWAP1 PUSH2 0xA82 JUMP JUMPDEST PUSH0 PUSH1 0x40 MLOAD DUP1 DUP4 SUB DUP2 DUP7 DUP1 EXTCODESIZE ISZERO DUP1 ISZERO PUSH2 0x444 JUMPI PUSH0 PUSH0 REVERT JUMPDEST POP GAS DELEGATECALL ISZERO DUP1 ISZERO PUSH2 0x456 JUMPI RETURNDATASIZE PUSH0 PUSH0 RETURNDATACOPY RETURNDATASIZE PUSH0 REVERT JUMPDEST POP POP POP POP PUSH1 0x3 PUSH0 PUSH20 0x0 PUSH4 0xDEB3D896 SWAP1 SWAP2 PUSH1 0x40 MLOAD DUP3 PUSH4 0xFFFFFFFF AND PUSH1 0xE0 SHL DUP2 MSTORE PUSH1 0x4 ADD PUSH2 0x495 SWAP2 SWAP1 PUSH2 0x917 JUMP JUMPDEST PUSH1 0x20 PUSH1 0x40 MLOAD DUP1 DUP4 SUB DUP2 DUP7 GAS DELEGATECALL ISZERO DUP1 ISZERO PUSH2 0x4B0 JUMPI RETURNDATASIZE PUSH0 PUSH0 RETURNDATACOPY RETURNDATASIZE PUSH0 REVERT JUMPDEST POP POP POP POP PUSH1 0x40 MLOAD RETURNDATASIZE PUSH1 0x1F NOT PUSH1 0x1F DUP3 ADD AND DUP3 ADD DUP1 PUSH1 0x40 MSTORE POP DUP2 ADD SWAP1 PUSH2 0x4D4 SWAP2 SWAP1 PUSH2 0x95E JUMP JUMPDEST EQ PUSH2 0x4E2 JUMPI PUSH2 0x4E1 PUSH2 0xAA9 JUMP JUMPDEST JUMPDEST PUSH0 PUSH20 0xFFFFFFFFFFFFFFFFFFFFFFFFFFFFFFFFFFFFFFFF AND PUSH0 PUSH20 0x0 PUSH4 0xD1AA9E7E SWAP1 SWAP2 PUSH0 PUSH1 0x40 MLOAD DUP4 PUSH4 0xFFFFFFFF AND PUSH1 0xE0 SHL DUP2 MSTORE PUSH1 0x4 ADD PUSH2 0x534 SWAP3 SWAP2 SWAP1 PUSH2 0xAD6 JUMP JUMPDEST PUSH1 0x20 PUSH1 0x40 MLOAD DUP1 DUP4 SUB DUP2 DUP7 GAS DELEGATECALL ISZERO DUP1 ISZERO PUSH2 0x54F JUMPI RETURNDATASIZE PUSH0 PUSH0 RETURNDATACOPY RETURNDATASIZE PUSH0 REVERT JUMPDEST POP POP POP POP PUSH1 0x40 MLOAD RETURNDATASIZE PUSH1 0x1F NOT PUSH1 0x1F DUP3 ADD AND DUP3 ADD DUP1 PUSH1 0x40 MSTORE POP DUP2 ADD SWAP1 PUSH2 0x573 SWAP2 SWAP1 PUSH2 0x9E9 JUMP JUMPDEST PUSH20 0xFFFFFFFFFFFFFFFFFFFFFFFFFFFFFFFFFFFFFFFF AND EQ PUSH2 0x597 JUMPI PUSH2 0x596 PUSH2 0xAA9 JUMP JUMPDEST JUMPDEST PUSH1 0x3 PUSH20 0xFFFFFFFFFFFFFFFFFFFFFFFFFFFFFFFFFFFFFFFF AND PUSH0 PUSH20 0x0 PUSH4 0xD1AA9E7E SWAP1 SWAP2 PUSH1 0x1 PUSH1 0x40 MLOAD DUP4 PUSH4 0xFFFFFFFF AND PUSH1 0xE0 SHL DUP2 MSTORE PUSH1 0x4 ADD PUSH2 0x5EB SWAP3 SWAP2 SWAP1 PUSH2 0xB36 JUMP JUMPDEST PUSH1 0x20 PUSH1 0x40 MLOAD DUP1 DUP4 SUB DUP2 DUP7 GAS DELEGATECALL ISZERO DUP1 ISZERO PUSH2 0x606 JUMPI RETURNDATASIZE PUSH0 PUSH0 RETURNDATACOPY RETURNDATASIZE PUSH0 REVERT JUMPDEST POP POP POP POP PUSH1 0x40 MLOAD RETURNDATASIZE PUSH1 0x1F NOT PUSH1 0x1F DUP3 ADD AND DUP3 ADD DUP1 PUSH1 0x40 MSTORE POP DUP2 ADD SWAP1 PUSH2 0x62A SWAP2 SWAP1 PUSH2 0x9E9 JUMP JUMPDEST PUSH20 0xFFFFFFFFFFFFFFFFFFFFFFFFFFFFFFFFFFFFFFFF AND EQ PUSH2 0x64E JUMPI PUSH2 0x64D PUSH2 0xAA9 JUMP JUMPDEST JUMPDEST PUSH1 0x2 PUSH20 0xFFFFFFFFFFFFFFFFFFFFFFFFFFFFFFFFFFFFFFFF AND PUSH0 PUSH20 0x0 PUSH4 0xD1AA9E7E SWAP1 SWAP2 PUSH1 0x2 PUSH1 0x40 MLOAD DUP4 PUSH4 0xFFFFFFFF AND PUSH1 0xE0 SHL DUP2 MSTORE PUSH1 0x4 ADD PUSH2 0x6A2 SWAP3 SWAP2 SWAP1 PUSH2 0xB96 JUMP JUMPDEST PUSH1 0x20 PUSH1 0x40 MLOAD DUP1 DUP4 SUB DUP2 DUP7 GAS DELEGATECALL ISZERO DUP1 ISZERO PUSH2 0x6BD JUMPI RETURNDATASIZE PUSH0 PUSH0 RETURNDATACOPY RETURNDATASIZE PUSH0 REVERT JUMPDEST POP POP POP POP PUSH1 0x40 MLOAD RETURNDATASIZE PUSH1 0x1F NOT PUSH1 0x1F DUP3 ADD AND DUP3 ADD DUP1 PUSH1 0x40 MSTORE POP DUP2 ADD SWAP1 PUSH2 0x6E1 SWAP2 SWAP1 PUSH2 0x9E9 JUMP JUMPDEST PUSH20 0xFFFFFFFFFFFFFFFFFFFFFFFFFFFFFFFFFFFFFFFF AND EQ PUSH2 0x705 JUMPI PUSH2 0x704 PUSH2 0xAA9 JUMP JUMPDEST JUMPDEST JUMP JUMPDEST DUP1 DUP3 MSTORE POP POP JUMP JUMPDEST PUSH0 PUSH20 0xFFFFFFFFFFFFFFFFFFFFFFFFFFFFFFFFFFFFFFFF DUP3 AND SWAP1 POP SWAP2 SWAP1 POP JUMP JUMPDEST PUSH0 PUSH2 0x737 DUP3 PUSH2 0x70E JUMP JUMPDEST SWAP1 POP SWAP2 SWAP1 POP JUMP JUMPDEST PUSH2 0x747 DUP2 PUSH2 0x72D JUMP JUMPDEST DUP3 MSTORE POP POP JUMP JUMPDEST PUSH0 DUP2 SWAP1 POP SWAP2 SWAP1 POP JUMP JUMPDEST PUSH0 DUP2 SWAP1 POP SWAP2 SWAP1 POP JUMP JUMPDEST PUSH0 DUP2 SWAP1 POP SWAP2 SWAP1 POP JUMP JUMPDEST PUSH0 PUSH2 0x782 PUSH2 0x77D PUSH2 0x778 DUP5 PUSH2 0x74D JUMP JUMPDEST PUSH2 0x75F JUMP JUMPDEST PUSH2 0x756 JUMP JUMPDEST SWAP1 POP SWAP2 SWAP1 POP JUMP JUMPDEST PUSH2 0x792 DUP2 PUSH2 0x768 JUMP JUMPDEST DUP3 MSTORE POP POP JUMP JUMPDEST PUSH0 PUSH1 0x60 DUP3 ADD SWAP1 POP PUSH2 0x7AB PUSH0 DUP4 ADD DUP7 PUSH2 0x707 JUMP JUMPDEST PUSH2 0x7B8 PUSH1 0x20 DUP4 ADD DUP6 PUSH2 0x73E JUMP JUMPDEST PUSH2 0x7C5 PUSH1 0x40 DUP4 ADD DUP5 PUSH2 0x789 JUMP JUMPDEST SWAP5 SWAP4 POP POP POP POP JUMP JUMPDEST PUSH0 DUP2 SWAP1 POP SWAP2 SWAP1 POP JUMP JUMPDEST PUSH0 PUSH2 0x7F0 PUSH2 0x7EB PUSH2 0x7E6 DUP5 PUSH2 0x7CD JUMP JUMPDEST PUSH2 0x75F JUMP JUMPDEST PUSH2 0x756 JUMP JUMPDEST SWAP1 POP SWAP2 SWAP1 POP JUMP JUMPDEST PUSH2 0x800 DUP2 PUSH2 0x7D6 JUMP JUMPDEST DUP3 MSTORE POP POP JUMP JUMPDEST PUSH0 PUSH1 0x60 DUP3 ADD SWAP1 POP PUSH2 0x819 PUSH0 DUP4 ADD DUP7 PUSH2 0x707 JUMP JUMPDEST PUSH2 0x826 PUSH1 0x20 DUP4 ADD DUP6 PUSH2 0x73E JUMP JUMPDEST PUSH2 0x833 PUSH1 0x40 DUP4 ADD DUP5 PUSH2 0x7F7 JUMP JUMPDEST SWAP5 SWAP4 POP POP POP POP JUMP JUMPDEST PUSH0 DUP2 SWAP1 POP SWAP2 SWAP1 POP JUMP JUMPDEST PUSH0 PUSH2 0x85E PUSH2 0x859 PUSH2 0x854 DUP5 PUSH2 0x83B JUMP JUMPDEST PUSH2 0x75F JUMP JUMPDEST PUSH2 0x756 JUMP JUMPDEST SWAP1 POP SWAP2 SWAP1 POP JUMP JUMPDEST PUSH2 0x86E DUP2 PUSH2 0x844 JUMP JUMPDEST DUP3 MSTORE POP POP JUMP JUMPDEST PUSH0 PUSH1 0x60 DUP3 ADD SWAP1 POP PUSH2 0x887 PUSH0 DUP4 ADD DUP7 PUSH2 0x707 JUMP JUMPDEST PUSH2 0x894 PUSH1 0x20 DUP4 ADD DUP6 PUSH2 0x73E JUMP JUMPDEST PUSH2 0x8A1 PUSH1 0x40 DUP4 ADD DUP5 PUSH2 0x865 JUMP JUMPDEST SWAP5 SWAP4 POP POP POP POP JUMP JUMPDEST PUSH0 DUP2 SWAP1 POP SWAP2 SWAP1 POP JUMP JUMPDEST PUSH0 PUSH2 0x8CC PUSH2 0x8C7 PUSH2 0x8C2 DUP5 PUSH2 0x8A9 JUMP JUMPDEST PUSH2 0x75F JUMP JUMPDEST PUSH2 0x756 JUMP JUMPDEST SWAP1 POP SWAP2 SWAP1 POP JUMP JUMPDEST PUSH2 0x8DC DUP2 PUSH2 0x8B2 JUMP JUMPDEST DUP3 MSTORE POP POP JUMP JUMPDEST PUSH0 PUSH1 0x60 DUP3 ADD SWAP1 POP PUSH2 0x8F5 PUSH0 DUP4 ADD DUP7 PUSH2 0x707 JUMP JUMPDEST PUSH2 0x902 PUSH1 0x20 DUP4 ADD DUP6 PUSH2 0x73E JUMP JUMPDEST PUSH2 0x90F PUSH1 0x40 DUP4 ADD DUP5 PUSH2 0x8D3 JUMP JUMPDEST SWAP5 SWAP4 POP POP POP POP JUMP JUMPDEST PUSH0 PUSH1 0x20 DUP3 ADD SWAP1 POP PUSH2 0x92A PUSH0 DUP4 ADD DUP5 PUSH2 0x707 JUMP JUMPDEST SWAP3 SWAP2 POP POP JUMP JUMPDEST PUSH0 PUSH0 REVERT JUMPDEST PUSH2 0x93D DUP2 PUSH2 0x756 JUMP JUMPDEST DUP2 EQ PUSH2 0x947 JUMPI PUSH0 PUSH0 REVERT JUMPDEST POP JUMP JUMPDEST PUSH0 DUP2 MLOAD SWAP1 POP PUSH2 0x958 DUP2 PUSH2 0x934 JUMP JUMPDEST SWAP3 SWAP2 POP POP JUMP JUMPDEST PUSH0 PUSH1 0x20 DUP3 DUP5 SUB SLT ISZERO PUSH2 0x973 JUMPI PUSH2 0x972 PUSH2 0x930 JUMP JUMPDEST JUMPDEST PUSH0 PUSH2 0x980 DUP5 DUP3 DUP6 ADD PUSH2 0x94A JUMP JUMPDEST SWAP2 POP POP SWAP3 SWAP2 POP POP JUMP JUMPDEST PUSH2 0x992 DUP2 PUSH2 0x756 JUMP JUMPDEST DUP3 MSTORE POP POP JUMP JUMPDEST PUSH0 PUSH1 0x40 DUP3 ADD SWAP1 POP PUSH2 0x9AB PUSH0 DUP4 ADD DUP6 PUSH2 0x707 JUMP JUMPDEST PUSH2 0x9B8 PUSH1 0x20 DUP4 ADD DUP5 PUSH2 0x989 JUMP JUMPDEST SWAP4 SWAP3 POP POP POP JUMP JUMPDEST PUSH2 0x9C8 DUP2 PUSH2 0x72D JUMP JUMPDEST DUP2 EQ PUSH2 0x9D2 JUMPI PUSH0 PUSH0 REVERT JUMPDEST POP JUMP JUMPDEST PUSH0 DUP2 MLOAD SWAP1 POP PUSH2 0x9E3 DUP2 PUSH2 0x9BF JUMP JUMPDEST SWAP3 SWAP2 POP POP JUMP JUMPDEST PUSH0 PUSH1 0x20 DUP3 DUP5 SUB SLT ISZERO PUSH2 0x9FE JUMPI PUSH2 0x9FD PUSH2 0x930 JUMP JUMPDEST JUMPDEST PUSH0 PUSH2 0xA0B DUP5 DUP3 DUP6 ADD PUSH2 0x9D5 JUMP JUMPDEST SWAP2 POP POP SWAP3 SWAP2 POP POP JUMP JUMPDEST PUSH32 0x4E487B7100000000000000000000000000000000000000000000000000000000 PUSH0 MSTORE PUSH1 0x11 PUSH1 0x4 MSTORE PUSH1 0x24 PUSH0 REVERT JUMPDEST PUSH0 PUSH2 0xA4B DUP3 PUSH2 0x756 JUMP JUMPDEST SWAP2 POP PUSH2 0xA56 DUP4 PUSH2 0x756 JUMP JUMPDEST SWAP3 POP DUP3 DUP3 MUL PUSH2 0xA64 DUP2 PUSH2 0x756 JUMP JUMPDEST SWAP2 POP DUP3 DUP3 DIV DUP5 EQ DUP4 ISZERO OR PUSH2 0xA7B JUMPI PUSH2 0xA7A PUSH2 0xA14 JUMP JUMPDEST JUMPDEST POP SWAP3 SWAP2 POP POP JUMP JUMPDEST PUSH0 PUSH1 0x40 DUP3 ADD SWAP1 POP PUSH2 0xA95 PUSH0 DUP4 ADD DUP6 PUSH2 0x707 JUMP JUMPDEST PUSH2 0xAA2 PUSH1 0x20 DUP4 ADD DUP5 PUSH2 0x73E JUMP JUMPDEST SWAP4 SWAP3 POP POP POP JUMP JUMPDEST PUSH32 0x4E487B7100000000000000000000000000000000000000000000000000000000 PUSH0 MSTORE PUSH1 0x1 PUSH1 0x4 MSTORE PUSH1 0x24 PUSH0 REVERT JUMPDEST PUSH0 PUSH1 0x40 DUP3 ADD SWAP1 POP PUSH2 0xAE9 PUSH0 DUP4 ADD DUP6 PUSH2 0x707 JUMP JUMPDEST PUSH2 0xAF6 PUSH1 0x20 DUP4 ADD DUP5 PUSH2 0x789 JUMP JUMPDEST SWAP4 SWAP3 POP POP POP JUMP JUMPDEST PUSH0 DUP2 SWAP1 POP SWAP2 SWAP1 POP JUMP JUMPDEST PUSH0 PUSH2 0xB20 PUSH2 0xB1B PUSH2 0xB16 DUP5 PUSH2 0xAFD JUMP JUMPDEST PUSH2 0x75F JUMP JUMPDEST PUSH2 0x756 JUMP JUMPDEST SWAP1 POP SWAP2 SWAP1 POP JUMP JUMPDEST PUSH2 0xB30 DUP2 PUSH2 0xB06 JUMP JUMPDEST DUP3 MSTORE POP POP JUMP JUMPDEST PUSH0 PUSH1 0x40 DUP3 ADD SWAP1 POP PUSH2 0xB49 PUSH0 DUP4 ADD DUP6 PUSH2 0x707 JUMP JUMPDEST PUSH2 0xB56 PUSH1 0x20 DUP4 ADD DUP5 PUSH2 0xB27 JUMP JUMPDEST SWAP4 SWAP3 POP POP POP JUMP JUMPDEST PUSH0 DUP2 SWAP1 POP SWAP2 SWAP1 POP JUMP JUMPDEST PUSH0 PUSH2 0xB80 PUSH2 0xB7B PUSH2 0xB76 DUP5 PUSH2 0xB5D JUMP JUMPDEST PUSH2 0x75F JUMP JUMPDEST PUSH2 0x756 JUMP JUMPDEST SWAP1 POP SWAP2 SWAP1 POP JUMP JUMPDEST PUSH2 0xB90 DUP2 PUSH2 0xB66 JUMP JUMPDEST DUP3 MSTORE POP POP JUMP JUMPDEST PUSH0 PUSH1 0x40 DUP3 ADD SWAP1 POP PUSH2 0xBA9 PUSH0 DUP4 ADD DUP6 PUSH2 0x707 JUMP JUMPDEST PUSH2 0xBB6 PUSH1 0x20 DUP4 ADD DUP5 PUSH2 0xB87 JUMP JUMPDEST SWAP4 SWAP3 POP POP POP JUMP INVALID LOG2 PUSH5 0x6970667358 0x22 SLT KECCAK256 SWAP4 PUSH15 0xB19618F4F90107650D1D3025D9782E MSTORE ORIGIN 0x4F JUMPF 0x2FF5 SWAP15 SWAP3 0xD6 DUP13 ORIGIN EXTDELEGATECALL 0xC0 SWAP15 0xD PUSH5 0x736F6C6343 STOP ADDMOD 0x1E STOP CALLER "
				},
				"gasEstimates": {
					"creation": {
						"codeDepositCost": "611800",
						"executionCost": "643",
						"totalCost": "612443"
					},
					"external": {
						"testIterableMap()": "infinite"
					}
				},
				"methodIdentifiers": {
					"testIterableMap()": "d230a0d5"
				}
			},
			"storageLayout": {
				"storage": [
					{
						"astId": 210,
						"contract": "application_contracts/Iterable Mapping.sol:TestIterableMap",
						"label": "map",
						"offset": 0,
						"slot": "0",
						"type": "t_struct(Map)17_storage"
					}
				],
				"types": {
					"t_address": {
						"encoding": "inplace",
						"label": "address",
						"numberOfBytes": "20"
					},
					"t_array(t_address)dyn_storage": {
						"base": "t_address",
						"encoding": "dynamic_array",
						"label": "address[]",
						"numberOfBytes": "32"
					},
					"t_bool": {
						"encoding": "inplace",
						"label": "bool",
						"numberOfBytes": "1"
					},
					"t_mapping(t_address,t_bool)": {
						"encoding": "mapping",
						"key": "t_address",
						"label": "mapping(address => bool)",
						"numberOfBytes": "32",
						"value": "t_bool"
					},
					"t_mapping(t_address,t_uint256)": {
						"encoding": "mapping",
						"key": "t_address",
						"label": "mapping(address => uint256)",
						"numberOfBytes": "32",
						"value": "t_uint256"
					},
					"t_struct(Map)17_storage": {
						"encoding": "inplace",
						"label": "struct IterableMapping.Map",
						"members": [
							{
								"astId": 4,
								"contract": "application_contracts/Iterable Mapping.sol:TestIterableMap",
								"label": "keys",
								"offset": 0,
								"slot": "0",
								"type": "t_array(t_address)dyn_storage"
							},
							{
								"astId": 8,
								"contract": "application_contracts/Iterable Mapping.sol:TestIterableMap",
								"label": "values",
								"offset": 0,
								"slot": "1",
								"type": "t_mapping(t_address,t_uint256)"
							},
							{
								"astId": 12,
								"contract": "application_contracts/Iterable Mapping.sol:TestIterableMap",
								"label": "indexOf",
								"offset": 0,
								"slot": "2",
								"type": "t_mapping(t_address,t_uint256)"
							},
							{
								"astId": 16,
								"contract": "application_contracts/Iterable Mapping.sol:TestIterableMap",
								"label": "inserted",
								"offset": 0,
								"slot": "3",
								"type": "t_mapping(t_address,t_bool)"
							}
						],
						"numberOfBytes": "128"
					},
					"t_uint256": {
						"encoding": "inplace",
						"label": "uint256",
						"numberOfBytes": "32"
					}
				}
			},
			"userdoc": {
				"kind": "user",
				"methods": {},
				"version": 1
			}
		}
	}
}