{
	"application_contracts/Multi-Sig Wallet.sol": {
		"MultiSigWallet": {
			"abi": [
				{
					"inputs": [
						{
							"internalType": "address[]",
							"name": "_owners",
							"type": "address[]"
						},
						{
							"internalType": "uint256",
							"name": "_numConfirmationsRequired",
							"type": "uint256"
						}
					],
					"stateMutability": "nonpayable",
					"type": "constructor"
				},
				{
					"anonymous": false,
					"inputs": [
						{
							"indexed": true,
							"internalType": "address",
							"name": "owner",
							"type": "address"
						},
						{
							"indexed": true,
							"internalType": "uint256",
							"name": "txIndex",
							"type": "uint256"
						}
					],
					"name": "ConfirmTransaction",
					"type": "event"
				},
				{
					"anonymous": false,
					"inputs": [
						{
							"indexed": true,
							"internalType": "address",
							"name": "sender",
							"type": "address"
						},
						{
							"indexed": false,
							"internalType": "uint256",
							"name": "amount",
							"type": "uint256"
						},
						{
							"indexed": false,
							"internalType": "uint256",
							"name": "balance",
							"type": "uint256"
						}
					],
					"name": "Deposit",
					"type": "event"
				},
				{
					"anonymous": false,
					"inputs": [
						{
							"indexed": true,
							"internalType": "address",
							"name": "owner",
							"type": "address"
						},
						{
							"indexed": true,
							"internalType": "uint256",
							"name": "txIndex",
							"type": "uint256"
						}
					],
					"name": "ExecuteTransaction",
					"type": "event"
				},
				{
					"anonymous": false,
					"inputs": [
						{
							"indexed": true,
							"internalType": "address",
							"name": "owner",
							"type": "address"
						},
						{
							"indexed": true,
							"internalType": "uint256",
							"name": "txIndex",
							"type": "uint256"
						}
					],
					"name": "RevokeConfirmation",
					"type": "event"
				},
				{
					"anonymous": false,
					"inputs": [
						{
							"indexed": true,
							"internalType": "address",
							"name": "owner",
							"type": "address"
						},
						{
							"indexed": true,
							"internalType": "uint256",
							"name": "txIndex",
							"type": "uint256"
						},
						{
							"indexed": true,
							"internalType": "address",
							"name": "to",
							"type": "address"
						},
						{
							"indexed": false,
							"internalType": "uint256",
							"name": "value",
							"type": "uint256"
						},
						{
							"indexed": false,
							"internalType": "bytes",
							"name": "data",
							"type": "bytes"
						}
					],
					"name": "SubmitTransaction",
					"type": "event"
				},
				{
					"inputs": [
						{
							"internalType": "uint256",
							"name": "_txIndex",
							"type": "uint256"
						}
					],
					"name": "confirmTransaction",
					"outputs": [],
					"stateMutability": "nonpayable",
					"type": "function"
				},
				{
					"inputs": [
						{
							"internalType": "uint256",
							"name": "_txIndex",
							"type": "uint256"
						}
					],
					"name": "executeTransaction",
					"outputs": [],
					"stateMutability": "nonpayable",
					"type": "function"
				},
				{
					"inputs": [],
					"name": "getOwners",
					"outputs": [
						{
							"internalType": "address[]",
							"name": "",
							"type": "address[]"
						}
					],
					"stateMutability": "view",
					"type": "function"
				},
				{
					"inputs": [
						{
							"internalType": "uint256",
							"name": "_txIndex",
							"type": "uint256"
						}
					],
					"name": "getTransaction",
					"outputs": [
						{
							"internalType": "address",
							"name": "to",
							"type": "address"
						},
						{
							"internalType": "uint256",
							"name": "value",
							"type": "uint256"
						},
						{
							"internalType": "bytes",
							"name": "data",
							"type": "bytes"
						},
						{
							"internalType": "bool",
							"name": "executed",
							"type": "bool"
						},
						{
							"internalType": "uint256",
							"name": "numConfirmations",
							"type": "uint256"
						}
					],
					"stateMutability": "view",
					"type": "function"
				},
				{
					"inputs": [],
					"name": "getTransactionCount",
					"outputs": [
						{
							"internalType": "uint256",
							"name": "",
							"type": "uint256"
						}
					],
					"stateMutability": "view",
					"type": "function"
				},
				{
					"inputs": [
						{
							"internalType": "uint256",
							"name": "",
							"type": "uint256"
						},
						{
							"internalType": "address",
							"name": "",
							"type": "address"
						}
					],
					"name": "isConfirmed",
					"outputs": [
						{
							"internalType": "bool",
							"name": "",
							"type": "bool"
						}
					],
					"stateMutability": "view",
					"type": "function"
				},
				{
					"inputs": [
						{
							"internalType": "address",
							"name": "",
							"type": "address"
						}
					],
					"name": "isOwner",
					"outputs": [
						{
							"internalType": "bool",
							"name": "",
							"type": "bool"
						}
					],
					"stateMutability": "view",
					"type": "function"
				},
				{
					"inputs": [],
					"name": "numConfirmationsRequired",
					"outputs": [
						{
							"internalType": "uint256",
							"name": "",
							"type": "uint256"
						}
					],
					"stateMutability": "view",
					"type": "function"
				},
				{
					"inputs": [
						{
							"internalType": "uint256",
							"name": "",
							"type": "uint256"
						}
					],
					"name": "owners",
					"outputs": [
						{
							"internalType": "address",
							"name": "",
							"type": "address"
						}
					],
					"stateMutability": "view",
					"type": "function"
				},
				{
					"inputs": [
						{
							"internalType": "uint256",
							"name": "_txIndex",
							"type": "uint256"
						}
					],
					"name": "revokeConfirmation",
					"outputs": [],
					"stateMutability": "nonpayable",
					"type": "function"
				},
				{
					"inputs": [
						{
							"internalType": "address",
							"name": "_to",
							"type": "address"
						},
						{
							"internalType": "uint256",
							"name": "_value",
							"type": "uint256"
						},
						{
							"internalType": "bytes",
							"name": "_data",
							"type": "bytes"
						}
					],
					"name": "submitTransaction",
					"outputs": [],
					"stateMutability": "nonpayable",
					"type": "function"
				},
				{
					"inputs": [
						{
							"internalType": "uint256",
							"name": "",
							"type": "uint256"
						}
					],
					"name": "transactions",
					"outputs": [
						{
							"internalType": "address",
							"name": "to",
							"type": "address"
						},
						{
							"internalType": "uint256",
							"name": "value",
							"type": "uint256"
						},
						{
							"internalType": "bytes",
							"name": "data",
							"type": "bytes"
						},
						{
							"internalType": "bool",
							"name": "executed",
							"type": "bool"
						},
						{
							"internalType": "uint256",
							"name": "numConfirmations",
							"type": "uint256"
						}
					],
					"stateMutability": "view",
					"type": "function"
				}
			],
			"devdoc": {
				"kind": "dev",
				"methods": {},
				"version": 1
			},
			"evm": {
				"assembly": "    /* \"application_contracts/Multi-Sig Wallet.sol\":159:4805  contract MultiSigWallet {... */\n  mstore(0x40, 0x80)\n    /* \"application_contracts/Multi-Sig Wallet.sol\":1908:2528  constructor(address[] memory _owners, uint _numConfirmationsRequired) {... */\n  callvalue\n  dup1\n  iszero\n  tag_1\n  jumpi\n  revert(0x00, 0x00)\ntag_1:\n  pop\n  mload(0x40)\n  sub(codesize, bytecodeSize)\n  dup1\n  bytecodeSize\n  dup4\n  codecopy\n  dup2\n  dup2\n  add\n  0x40\n  mstore\n  dup2\n  add\n  swap1\n  tag_2\n  swap2\n  swap1\n  tag_3\n  jump\t// in\ntag_2:\n    /* \"application_contracts/Multi-Sig Wallet.sol\":2013:2014  0 */\n  0x00\n    /* \"application_contracts/Multi-Sig Wallet.sol\":1996:2003  _owners */\n  dup3\n    /* \"application_contracts/Multi-Sig Wallet.sol\":1996:2010  _owners.length */\n  mload\n    /* \"application_contracts/Multi-Sig Wallet.sol\":1996:2014  _owners.length > 0 */\n  gt\n    /* \"application_contracts/Multi-Sig Wallet.sol\":1988:2034  require(_owners.length > 0, \"owners required\") */\n  tag_6\n  jumpi\n  mload(0x40)\n  0x08c379a000000000000000000000000000000000000000000000000000000000\n  dup2\n  mstore\n  0x04\n  add\n  tag_7\n  swap1\n  tag_8\n  jump\t// in\ntag_7:\n  mload(0x40)\n  dup1\n  swap2\n  sub\n  swap1\n  revert\ntag_6:\n    /* \"application_contracts/Multi-Sig Wallet.sol\":2080:2081  0 */\n  0x00\n    /* \"application_contracts/Multi-Sig Wallet.sol\":2052:2077  _numConfirmationsRequired */\n  dup2\n    /* \"application_contracts/Multi-Sig Wallet.sol\":2052:2081  _numConfirmationsRequired > 0 */\n  gt\n    /* \"application_contracts/Multi-Sig Wallet.sol\":2052:2128  _numConfirmationsRequired > 0 && _numConfirmationsRequired <= _owners.length */\n  dup1\n  iszero\n  tag_9\n  jumpi\n  pop\n    /* \"application_contracts/Multi-Sig Wallet.sol\":2114:2121  _owners */\n  dup2\n    /* \"application_contracts/Multi-Sig Wallet.sol\":2114:2128  _owners.length */\n  mload\n    /* \"application_contracts/Multi-Sig Wallet.sol\":2085:2110  _numConfirmationsRequired */\n  dup2\n    /* \"application_contracts/Multi-Sig Wallet.sol\":2085:2128  _numConfirmationsRequired <= _owners.length */\n  gt\n  iszero\n    /* \"application_contracts/Multi-Sig Wallet.sol\":2052:2128  _numConfirmationsRequired > 0 && _numConfirmationsRequired <= _owners.length */\ntag_9:\n    /* \"application_contracts/Multi-Sig Wallet.sol\":2044:2173  require(_numConfirmationsRequired > 0 && _numConfirmationsRequired <= _owners.length, \"invalid number of required confirmations\") */\n  tag_10\n  jumpi\n  mload(0x40)\n  0x08c379a000000000000000000000000000000000000000000000000000000000\n  dup2\n  mstore\n  0x04\n  add\n  tag_11\n  swap1\n  tag_12\n  jump\t// in\ntag_11:\n  mload(0x40)\n  dup1\n  swap2\n  sub\n  swap1\n  revert\ntag_10:\n    /* \"application_contracts/Multi-Sig Wallet.sol\":2188:2194  uint i */\n  0x00\n    /* \"application_contracts/Multi-Sig Wallet.sol\":2197:2198  0 */\n  0x00\n    /* \"application_contracts/Multi-Sig Wallet.sol\":2188:2198  uint i = 0 */\n  swap1\n  pop\n    /* \"application_contracts/Multi-Sig Wallet.sol\":2183:2460  for (uint i = 0; i < _owners.length; i++) {... */\ntag_13:\n    /* \"application_contracts/Multi-Sig Wallet.sol\":2204:2211  _owners */\n  dup3\n    /* \"application_contracts/Multi-Sig Wallet.sol\":2204:2218  _owners.length */\n  mload\n    /* \"application_contracts/Multi-Sig Wallet.sol\":2200:2201  i */\n  dup2\n    /* \"application_contracts/Multi-Sig Wallet.sol\":2200:2218  i < _owners.length */\n  lt\n    /* \"application_contracts/Multi-Sig Wallet.sol\":2183:2460  for (uint i = 0; i < _owners.length; i++) {... */\n  iszero\n  tag_14\n  jumpi\n    /* \"application_contracts/Multi-Sig Wallet.sol\":2239:2252  address owner */\n  0x00\n    /* \"application_contracts/Multi-Sig Wallet.sol\":2255:2262  _owners */\n  dup4\n    /* \"application_contracts/Multi-Sig Wallet.sol\":2263:2264  i */\n  dup3\n    /* \"application_contracts/Multi-Sig Wallet.sol\":2255:2265  _owners[i] */\n  dup2\n  mload\n  dup2\n  lt\n  tag_16\n  jumpi\n  tag_17\n  tag_18\n  jump\t// in\ntag_17:\ntag_16:\n  0x20\n  mul\n  0x20\n  add\n  add\n  mload\n    /* \"application_contracts/Multi-Sig Wallet.sol\":2239:2265  address owner = _owners[i] */\n  swap1\n  pop\n    /* \"application_contracts/Multi-Sig Wallet.sol\":2304:2305  0 */\n  0x00\n    /* \"application_contracts/Multi-Sig Wallet.sol\":2287:2306  owner != address(0) */\n  0xffffffffffffffffffffffffffffffffffffffff\n  and\n    /* \"application_contracts/Multi-Sig Wallet.sol\":2287:2292  owner */\n  dup2\n    /* \"application_contracts/Multi-Sig Wallet.sol\":2287:2306  owner != address(0) */\n  0xffffffffffffffffffffffffffffffffffffffff\n  and\n  sub\n    /* \"application_contracts/Multi-Sig Wallet.sol\":2279:2324  require(owner != address(0), \"invalid owner\") */\n  tag_19\n  jumpi\n  mload(0x40)\n  0x08c379a000000000000000000000000000000000000000000000000000000000\n  dup2\n  mstore\n  0x04\n  add\n  tag_20\n  swap1\n  tag_21\n  jump\t// in\ntag_20:\n  mload(0x40)\n  dup1\n  swap2\n  sub\n  swap1\n  revert\ntag_19:\n    /* \"application_contracts/Multi-Sig Wallet.sol\":2347:2354  isOwner */\n  0x01\n    /* \"application_contracts/Multi-Sig Wallet.sol\":2347:2361  isOwner[owner] */\n  0x00\n    /* \"application_contracts/Multi-Sig Wallet.sol\":2355:2360  owner */\n  dup3\n    /* \"application_contracts/Multi-Sig Wallet.sol\":2347:2361  isOwner[owner] */\n  0xffffffffffffffffffffffffffffffffffffffff\n  and\n  0xffffffffffffffffffffffffffffffffffffffff\n  and\n  dup2\n  mstore\n  0x20\n  add\n  swap1\n  dup2\n  mstore\n  0x20\n  add\n  0x00\n  keccak256\n  0x00\n  swap1\n  sload\n  swap1\n  0x0100\n  exp\n  swap1\n  div\n  0xff\n  and\n    /* \"application_contracts/Multi-Sig Wallet.sol\":2346:2361  !isOwner[owner] */\n  iszero\n    /* \"application_contracts/Multi-Sig Wallet.sol\":2338:2382  require(!isOwner[owner], \"owner not unique\") */\n  tag_22\n  jumpi\n  mload(0x40)\n  0x08c379a000000000000000000000000000000000000000000000000000000000\n  dup2\n  mstore\n  0x04\n  add\n  tag_23\n  swap1\n  tag_24\n  jump\t// in\ntag_23:\n  mload(0x40)\n  dup1\n  swap2\n  sub\n  swap1\n  revert\ntag_22:\n    /* \"application_contracts/Multi-Sig Wallet.sol\":2413:2417  true */\n  0x01\n    /* \"application_contracts/Multi-Sig Wallet.sol\":2396:2403  isOwner */\n  dup1\n    /* \"application_contracts/Multi-Sig Wallet.sol\":2396:2410  isOwner[owner] */\n  0x00\n    /* \"application_contracts/Multi-Sig Wallet.sol\":2404:2409  owner */\n  dup4\n    /* \"application_contracts/Multi-Sig Wallet.sol\":2396:2410  isOwner[owner] */\n  0xffffffffffffffffffffffffffffffffffffffff\n  and\n  0xffffffffffffffffffffffffffffffffffffffff\n  and\n  dup2\n  mstore\n  0x20\n  add\n  swap1\n  dup2\n  mstore\n  0x20\n  add\n  0x00\n  keccak256\n  0x00\n    /* \"application_contracts/Multi-Sig Wallet.sol\":2396:2417  isOwner[owner] = true */\n  0x0100\n  exp\n  dup2\n  sload\n  dup2\n  0xff\n  mul\n  not\n  and\n  swap1\n  dup4\n  iszero\n  iszero\n  mul\n  or\n  swap1\n  sstore\n  pop\n    /* \"application_contracts/Multi-Sig Wallet.sol\":2431:2437  owners */\n  0x00\n    /* \"application_contracts/Multi-Sig Wallet.sol\":2443:2448  owner */\n  dup2\n    /* \"application_contracts/Multi-Sig Wallet.sol\":2431:2449  owners.push(owner) */\n  swap1\n  dup1\n  0x01\n  dup2\n  sload\n  add\n  dup1\n  dup3\n  sstore\n  dup1\n  swap2\n  pop\n  pop\n  0x01\n  swap1\n  sub\n  swap1\n  0x00\n  mstore\n  keccak256(0x00, 0x20)\n  add\n  0x00\n  swap1\n  swap2\n  swap1\n  swap2\n  swap1\n  swap2\n  0x0100\n  exp\n  dup2\n  sload\n  dup2\n  0xffffffffffffffffffffffffffffffffffffffff\n  mul\n  not\n  and\n  swap1\n  dup4\n  0xffffffffffffffffffffffffffffffffffffffff\n  and\n  mul\n  or\n  swap1\n  sstore\n  pop\n    /* \"application_contracts/Multi-Sig Wallet.sol\":2225:2460  {... */\n  pop\n    /* \"application_contracts/Multi-Sig Wallet.sol\":2220:2223  i++ */\n  dup1\n  dup1\n  0x01\n  add\n  swap2\n  pop\n  pop\n    /* \"application_contracts/Multi-Sig Wallet.sol\":2183:2460  for (uint i = 0; i < _owners.length; i++) {... */\n  jump(tag_13)\ntag_14:\n  pop\n    /* \"application_contracts/Multi-Sig Wallet.sol\":2496:2521  _numConfirmationsRequired */\n  dup1\n    /* \"application_contracts/Multi-Sig Wallet.sol\":2469:2493  numConfirmationsRequired */\n  0x02\n    /* \"application_contracts/Multi-Sig Wallet.sol\":2469:2521  numConfirmationsRequired = _numConfirmationsRequired */\n  dup2\n  swap1\n  sstore\n  pop\n    /* \"application_contracts/Multi-Sig Wallet.sol\":1908:2528  constructor(address[] memory _owners, uint _numConfirmationsRequired) {... */\n  pop\n  pop\n    /* \"application_contracts/Multi-Sig Wallet.sol\":159:4805  contract MultiSigWallet {... */\n  jump(tag_26)\n    /* \"#utility.yul\":7:82   */\ntag_27:\n    /* \"#utility.yul\":40:46   */\n  0x00\n    /* \"#utility.yul\":73:75   */\n  0x40\n    /* \"#utility.yul\":67:76   */\n  mload\n    /* \"#utility.yul\":57:76   */\n  swap1\n  pop\n    /* \"#utility.yul\":7:82   */\n  swap1\n  jump\t// out\n    /* \"#utility.yul\":88:205   */\ntag_28:\n    /* \"#utility.yul\":197:198   */\n  0x00\n    /* \"#utility.yul\":194:195   */\n  0x00\n    /* \"#utility.yul\":187:199   */\n  revert\n    /* \"#utility.yul\":211:328   */\ntag_29:\n    /* \"#utility.yul\":320:321   */\n  0x00\n    /* \"#utility.yul\":317:318   */\n  0x00\n    /* \"#utility.yul\":310:322   */\n  revert\n    /* \"#utility.yul\":334:451   */\ntag_30:\n    /* \"#utility.yul\":443:444   */\n  0x00\n    /* \"#utility.yul\":440:441   */\n  0x00\n    /* \"#utility.yul\":433:445   */\n  revert\n    /* \"#utility.yul\":457:559   */\ntag_31:\n    /* \"#utility.yul\":498:504   */\n  0x00\n    /* \"#utility.yul\":549:551   */\n  0x1f\n    /* \"#utility.yul\":545:552   */\n  not\n    /* \"#utility.yul\":540:542   */\n  0x1f\n    /* \"#utility.yul\":533:538   */\n  dup4\n    /* \"#utility.yul\":529:543   */\n  add\n    /* \"#utility.yul\":525:553   */\n  and\n    /* \"#utility.yul\":515:553   */\n  swap1\n  pop\n    /* \"#utility.yul\":457:559   */\n  swap2\n  swap1\n  pop\n  jump\t// out\n    /* \"#utility.yul\":565:745   */\ntag_32:\n    /* \"#utility.yul\":613:690   */\n  0x4e487b7100000000000000000000000000000000000000000000000000000000\n    /* \"#utility.yul\":610:611   */\n  0x00\n    /* \"#utility.yul\":603:691   */\n  mstore\n    /* \"#utility.yul\":710:714   */\n  0x41\n    /* \"#utility.yul\":707:708   */\n  0x04\n    /* \"#utility.yul\":700:715   */\n  mstore\n    /* \"#utility.yul\":734:738   */\n  0x24\n    /* \"#utility.yul\":731:732   */\n  0x00\n    /* \"#utility.yul\":724:739   */\n  revert\n    /* \"#utility.yul\":751:1032   */\ntag_33:\n    /* \"#utility.yul\":834:861   */\n  tag_63\n    /* \"#utility.yul\":856:860   */\n  dup3\n    /* \"#utility.yul\":834:861   */\n  tag_31\n  jump\t// in\ntag_63:\n    /* \"#utility.yul\":826:832   */\n  dup2\n    /* \"#utility.yul\":822:862   */\n  add\n    /* \"#utility.yul\":964:970   */\n  dup2\n    /* \"#utility.yul\":952:962   */\n  dup2\n    /* \"#utility.yul\":949:971   */\n  lt\n    /* \"#utility.yul\":928:946   */\n  0xffffffffffffffff\n    /* \"#utility.yul\":916:926   */\n  dup3\n    /* \"#utility.yul\":913:947   */\n  gt\n    /* \"#utility.yul\":910:972   */\n  or\n    /* \"#utility.yul\":907:995   */\n  iszero\n  tag_64\n  jumpi\n    /* \"#utility.yul\":975:993   */\n  tag_65\n  tag_32\n  jump\t// in\ntag_65:\n    /* \"#utility.yul\":907:995   */\ntag_64:\n    /* \"#utility.yul\":1015:1025   */\n  dup1\n    /* \"#utility.yul\":1011:1013   */\n  0x40\n    /* \"#utility.yul\":1004:1026   */\n  mstore\n    /* \"#utility.yul\":794:1032   */\n  pop\n    /* \"#utility.yul\":751:1032   */\n  pop\n  pop\n  jump\t// out\n    /* \"#utility.yul\":1038:1167   */\ntag_34:\n    /* \"#utility.yul\":1072:1078   */\n  0x00\n    /* \"#utility.yul\":1099:1119   */\n  tag_67\n  tag_27\n  jump\t// in\ntag_67:\n    /* \"#utility.yul\":1089:1119   */\n  swap1\n  pop\n    /* \"#utility.yul\":1128:1161   */\n  tag_68\n    /* \"#utility.yul\":1156:1160   */\n  dup3\n    /* \"#utility.yul\":1148:1154   */\n  dup3\n    /* \"#utility.yul\":1128:1161   */\n  tag_33\n  jump\t// in\ntag_68:\n    /* \"#utility.yul\":1038:1167   */\n  swap2\n  swap1\n  pop\n  jump\t// out\n    /* \"#utility.yul\":1173:1484   */\ntag_35:\n    /* \"#utility.yul\":1250:1254   */\n  0x00\n    /* \"#utility.yul\":1340:1358   */\n  0xffffffffffffffff\n    /* \"#utility.yul\":1332:1338   */\n  dup3\n    /* \"#utility.yul\":1329:1359   */\n  gt\n    /* \"#utility.yul\":1326:1382   */\n  iszero\n  tag_70\n  jumpi\n    /* \"#utility.yul\":1362:1380   */\n  tag_71\n  tag_32\n  jump\t// in\ntag_71:\n    /* \"#utility.yul\":1326:1382   */\ntag_70:\n    /* \"#utility.yul\":1412:1416   */\n  0x20\n    /* \"#utility.yul\":1404:1410   */\n  dup3\n    /* \"#utility.yul\":1400:1417   */\n  mul\n    /* \"#utility.yul\":1392:1417   */\n  swap1\n  pop\n    /* \"#utility.yul\":1472:1476   */\n  0x20\n    /* \"#utility.yul\":1466:1470   */\n  dup2\n    /* \"#utility.yul\":1462:1477   */\n  add\n    /* \"#utility.yul\":1454:1477   */\n  swap1\n  pop\n    /* \"#utility.yul\":1173:1484   */\n  swap2\n  swap1\n  pop\n  jump\t// out\n    /* \"#utility.yul\":1490:1607   */\ntag_36:\n    /* \"#utility.yul\":1599:1600   */\n  0x00\n    /* \"#utility.yul\":1596:1597   */\n  0x00\n    /* \"#utility.yul\":1589:1601   */\n  revert\n    /* \"#utility.yul\":1613:1739   */\ntag_37:\n    /* \"#utility.yul\":1650:1657   */\n  0x00\n    /* \"#utility.yul\":1690:1732   */\n  0xffffffffffffffffffffffffffffffffffffffff\n    /* \"#utility.yul\":1683:1688   */\n  dup3\n    /* \"#utility.yul\":1679:1733   */\n  and\n    /* \"#utility.yul\":1668:1733   */\n  swap1\n  pop\n    /* \"#utility.yul\":1613:1739   */\n  swap2\n  swap1\n  pop\n  jump\t// out\n    /* \"#utility.yul\":1745:1841   */\ntag_38:\n    /* \"#utility.yul\":1782:1789   */\n  0x00\n    /* \"#utility.yul\":1811:1835   */\n  tag_75\n    /* \"#utility.yul\":1829:1834   */\n  dup3\n    /* \"#utility.yul\":1811:1835   */\n  tag_37\n  jump\t// in\ntag_75:\n    /* \"#utility.yul\":1800:1835   */\n  swap1\n  pop\n    /* \"#utility.yul\":1745:1841   */\n  swap2\n  swap1\n  pop\n  jump\t// out\n    /* \"#utility.yul\":1847:1969   */\ntag_39:\n    /* \"#utility.yul\":1920:1944   */\n  tag_77\n    /* \"#utility.yul\":1938:1943   */\n  dup2\n    /* \"#utility.yul\":1920:1944   */\n  tag_38\n  jump\t// in\ntag_77:\n    /* \"#utility.yul\":1913:1918   */\n  dup2\n    /* \"#utility.yul\":1910:1945   */\n  eq\n    /* \"#utility.yul\":1900:1963   */\n  tag_78\n  jumpi\n    /* \"#utility.yul\":1959:1960   */\n  0x00\n    /* \"#utility.yul\":1956:1957   */\n  0x00\n    /* \"#utility.yul\":1949:1961   */\n  revert\n    /* \"#utility.yul\":1900:1963   */\ntag_78:\n    /* \"#utility.yul\":1847:1969   */\n  pop\n  jump\t// out\n    /* \"#utility.yul\":1975:2118   */\ntag_40:\n    /* \"#utility.yul\":2032:2037   */\n  0x00\n    /* \"#utility.yul\":2063:2069   */\n  dup2\n    /* \"#utility.yul\":2057:2070   */\n  mload\n    /* \"#utility.yul\":2048:2070   */\n  swap1\n  pop\n    /* \"#utility.yul\":2079:2112   */\n  tag_80\n    /* \"#utility.yul\":2106:2111   */\n  dup2\n    /* \"#utility.yul\":2079:2112   */\n  tag_39\n  jump\t// in\ntag_80:\n    /* \"#utility.yul\":1975:2118   */\n  swap3\n  swap2\n  pop\n  pop\n  jump\t// out\n    /* \"#utility.yul\":2141:2873   */\ntag_41:\n    /* \"#utility.yul\":2248:2253   */\n  0x00\n    /* \"#utility.yul\":2273:2354   */\n  tag_82\n    /* \"#utility.yul\":2289:2353   */\n  tag_83\n    /* \"#utility.yul\":2346:2352   */\n  dup5\n    /* \"#utility.yul\":2289:2353   */\n  tag_35\n  jump\t// in\ntag_83:\n    /* \"#utility.yul\":2273:2354   */\n  tag_34\n  jump\t// in\ntag_82:\n    /* \"#utility.yul\":2264:2354   */\n  swap1\n  pop\n    /* \"#utility.yul\":2374:2379   */\n  dup1\n    /* \"#utility.yul\":2403:2409   */\n  dup4\n    /* \"#utility.yul\":2396:2401   */\n  dup3\n    /* \"#utility.yul\":2389:2410   */\n  mstore\n    /* \"#utility.yul\":2437:2441   */\n  0x20\n    /* \"#utility.yul\":2430:2435   */\n  dup3\n    /* \"#utility.yul\":2426:2442   */\n  add\n    /* \"#utility.yul\":2419:2442   */\n  swap1\n  pop\n    /* \"#utility.yul\":2490:2494   */\n  0x20\n    /* \"#utility.yul\":2482:2488   */\n  dup5\n    /* \"#utility.yul\":2478:2495   */\n  mul\n    /* \"#utility.yul\":2470:2476   */\n  dup4\n    /* \"#utility.yul\":2466:2496   */\n  add\n    /* \"#utility.yul\":2519:2522   */\n  dup6\n    /* \"#utility.yul\":2511:2517   */\n  dup2\n    /* \"#utility.yul\":2508:2523   */\n  gt\n    /* \"#utility.yul\":2505:2627   */\n  iszero\n  tag_84\n  jumpi\n    /* \"#utility.yul\":2538:2617   */\n  tag_85\n  tag_36\n  jump\t// in\ntag_85:\n    /* \"#utility.yul\":2505:2627   */\ntag_84:\n    /* \"#utility.yul\":2653:2659   */\n  dup4\n    /* \"#utility.yul\":2636:2867   */\ntag_86:\n    /* \"#utility.yul\":2670:2676   */\n  dup2\n    /* \"#utility.yul\":2665:2668   */\n  dup2\n    /* \"#utility.yul\":2662:2677   */\n  lt\n    /* \"#utility.yul\":2636:2867   */\n  iszero\n  tag_88\n  jumpi\n    /* \"#utility.yul\":2745:2748   */\n  dup1\n    /* \"#utility.yul\":2774:2822   */\n  tag_89\n    /* \"#utility.yul\":2818:2821   */\n  dup9\n    /* \"#utility.yul\":2806:2816   */\n  dup3\n    /* \"#utility.yul\":2774:2822   */\n  tag_40\n  jump\t// in\ntag_89:\n    /* \"#utility.yul\":2769:2772   */\n  dup5\n    /* \"#utility.yul\":2762:2823   */\n  mstore\n    /* \"#utility.yul\":2852:2856   */\n  0x20\n    /* \"#utility.yul\":2847:2850   */\n  dup5\n    /* \"#utility.yul\":2843:2857   */\n  add\n    /* \"#utility.yul\":2836:2857   */\n  swap4\n  pop\n    /* \"#utility.yul\":2712:2867   */\n  pop\n    /* \"#utility.yul\":2696:2700   */\n  0x20\n    /* \"#utility.yul\":2691:2694   */\n  dup2\n    /* \"#utility.yul\":2687:2701   */\n  add\n    /* \"#utility.yul\":2680:2701   */\n  swap1\n  pop\n    /* \"#utility.yul\":2636:2867   */\n  jump(tag_86)\ntag_88:\n    /* \"#utility.yul\":2640:2661   */\n  pop\n    /* \"#utility.yul\":2254:2873   */\n  pop\n  pop\n    /* \"#utility.yul\":2141:2873   */\n  swap4\n  swap3\n  pop\n  pop\n  pop\n  jump\t// out\n    /* \"#utility.yul\":2896:3281   */\ntag_42:\n    /* \"#utility.yul\":2978:2983   */\n  0x00\n    /* \"#utility.yul\":3027:3030   */\n  dup3\n    /* \"#utility.yul\":3020:3024   */\n  0x1f\n    /* \"#utility.yul\":3012:3018   */\n  dup4\n    /* \"#utility.yul\":3008:3025   */\n  add\n    /* \"#utility.yul\":3004:3031   */\n  slt\n    /* \"#utility.yul\":2994:3116   */\n  tag_91\n  jumpi\n    /* \"#utility.yul\":3035:3114   */\n  tag_92\n  tag_30\n  jump\t// in\ntag_92:\n    /* \"#utility.yul\":2994:3116   */\ntag_91:\n    /* \"#utility.yul\":3145:3151   */\n  dup2\n    /* \"#utility.yul\":3139:3152   */\n  mload\n    /* \"#utility.yul\":3170:3275   */\n  tag_93\n    /* \"#utility.yul\":3271:3274   */\n  dup5\n    /* \"#utility.yul\":3263:3269   */\n  dup3\n    /* \"#utility.yul\":3256:3260   */\n  0x20\n    /* \"#utility.yul\":3248:3254   */\n  dup7\n    /* \"#utility.yul\":3244:3261   */\n  add\n    /* \"#utility.yul\":3170:3275   */\n  tag_41\n  jump\t// in\ntag_93:\n    /* \"#utility.yul\":3161:3275   */\n  swap2\n  pop\n    /* \"#utility.yul\":2984:3281   */\n  pop\n    /* \"#utility.yul\":2896:3281   */\n  swap3\n  swap2\n  pop\n  pop\n  jump\t// out\n    /* \"#utility.yul\":3287:3364   */\ntag_43:\n    /* \"#utility.yul\":3324:3331   */\n  0x00\n    /* \"#utility.yul\":3353:3358   */\n  dup2\n    /* \"#utility.yul\":3342:3358   */\n  swap1\n  pop\n    /* \"#utility.yul\":3287:3364   */\n  swap2\n  swap1\n  pop\n  jump\t// out\n    /* \"#utility.yul\":3370:3492   */\ntag_44:\n    /* \"#utility.yul\":3443:3467   */\n  tag_96\n    /* \"#utility.yul\":3461:3466   */\n  dup2\n    /* \"#utility.yul\":3443:3467   */\n  tag_43\n  jump\t// in\ntag_96:\n    /* \"#utility.yul\":3436:3441   */\n  dup2\n    /* \"#utility.yul\":3433:3468   */\n  eq\n    /* \"#utility.yul\":3423:3486   */\n  tag_97\n  jumpi\n    /* \"#utility.yul\":3482:3483   */\n  0x00\n    /* \"#utility.yul\":3479:3480   */\n  0x00\n    /* \"#utility.yul\":3472:3484   */\n  revert\n    /* \"#utility.yul\":3423:3486   */\ntag_97:\n    /* \"#utility.yul\":3370:3492   */\n  pop\n  jump\t// out\n    /* \"#utility.yul\":3498:3641   */\ntag_45:\n    /* \"#utility.yul\":3555:3560   */\n  0x00\n    /* \"#utility.yul\":3586:3592   */\n  dup2\n    /* \"#utility.yul\":3580:3593   */\n  mload\n    /* \"#utility.yul\":3571:3593   */\n  swap1\n  pop\n    /* \"#utility.yul\":3602:3635   */\n  tag_99\n    /* \"#utility.yul\":3629:3634   */\n  dup2\n    /* \"#utility.yul\":3602:3635   */\n  tag_44\n  jump\t// in\ntag_99:\n    /* \"#utility.yul\":3498:3641   */\n  swap3\n  swap2\n  pop\n  pop\n  jump\t// out\n    /* \"#utility.yul\":3647:4357   */\ntag_3:\n    /* \"#utility.yul\":3751:3757   */\n  0x00\n    /* \"#utility.yul\":3759:3765   */\n  0x00\n    /* \"#utility.yul\":3808:3810   */\n  0x40\n    /* \"#utility.yul\":3796:3805   */\n  dup4\n    /* \"#utility.yul\":3787:3794   */\n  dup6\n    /* \"#utility.yul\":3783:3806   */\n  sub\n    /* \"#utility.yul\":3779:3811   */\n  slt\n    /* \"#utility.yul\":3776:3895   */\n  iszero\n  tag_101\n  jumpi\n    /* \"#utility.yul\":3814:3893   */\n  tag_102\n  tag_28\n  jump\t// in\ntag_102:\n    /* \"#utility.yul\":3776:3895   */\ntag_101:\n    /* \"#utility.yul\":3955:3956   */\n  0x00\n    /* \"#utility.yul\":3944:3953   */\n  dup4\n    /* \"#utility.yul\":3940:3957   */\n  add\n    /* \"#utility.yul\":3934:3958   */\n  mload\n    /* \"#utility.yul\":3985:4003   */\n  0xffffffffffffffff\n    /* \"#utility.yul\":3977:3983   */\n  dup2\n    /* \"#utility.yul\":3974:4004   */\n  gt\n    /* \"#utility.yul\":3971:4088   */\n  iszero\n  tag_103\n  jumpi\n    /* \"#utility.yul\":4007:4086   */\n  tag_104\n  tag_29\n  jump\t// in\ntag_104:\n    /* \"#utility.yul\":3971:4088   */\ntag_103:\n    /* \"#utility.yul\":4112:4201   */\n  tag_105\n    /* \"#utility.yul\":4193:4200   */\n  dup6\n    /* \"#utility.yul\":4184:4190   */\n  dup3\n    /* \"#utility.yul\":4173:4182   */\n  dup7\n    /* \"#utility.yul\":4169:4191   */\n  add\n    /* \"#utility.yul\":4112:4201   */\n  tag_42\n  jump\t// in\ntag_105:\n    /* \"#utility.yul\":4102:4201   */\n  swap3\n  pop\n    /* \"#utility.yul\":3905:4211   */\n  pop\n    /* \"#utility.yul\":4250:4252   */\n  0x20\n    /* \"#utility.yul\":4276:4340   */\n  tag_106\n    /* \"#utility.yul\":4332:4339   */\n  dup6\n    /* \"#utility.yul\":4323:4329   */\n  dup3\n    /* \"#utility.yul\":4312:4321   */\n  dup7\n    /* \"#utility.yul\":4308:4330   */\n  add\n    /* \"#utility.yul\":4276:4340   */\n  tag_45\n  jump\t// in\ntag_106:\n    /* \"#utility.yul\":4266:4340   */\n  swap2\n  pop\n    /* \"#utility.yul\":4221:4350   */\n  pop\n    /* \"#utility.yul\":3647:4357   */\n  swap3\n  pop\n  swap3\n  swap1\n  pop\n  jump\t// out\n    /* \"#utility.yul\":4363:4532   */\ntag_46:\n    /* \"#utility.yul\":4447:4458   */\n  0x00\n    /* \"#utility.yul\":4481:4487   */\n  dup3\n    /* \"#utility.yul\":4476:4479   */\n  dup3\n    /* \"#utility.yul\":4469:4488   */\n  mstore\n    /* \"#utility.yul\":4521:4525   */\n  0x20\n    /* \"#utility.yul\":4516:4519   */\n  dup3\n    /* \"#utility.yul\":4512:4526   */\n  add\n    /* \"#utility.yul\":4497:4526   */\n  swap1\n  pop\n    /* \"#utility.yul\":4363:4532   */\n  swap3\n  swap2\n  pop\n  pop\n  jump\t// out\n    /* \"#utility.yul\":4538:4703   */\ntag_47:\n    /* \"#utility.yul\":4678:4695   */\n  0x6f776e6572732072657175697265640000000000000000000000000000000000\n    /* \"#utility.yul\":4674:4675   */\n  0x00\n    /* \"#utility.yul\":4666:4672   */\n  dup3\n    /* \"#utility.yul\":4662:4676   */\n  add\n    /* \"#utility.yul\":4655:4696   */\n  mstore\n    /* \"#utility.yul\":4538:4703   */\n  pop\n  jump\t// out\n    /* \"#utility.yul\":4709:5075   */\ntag_48:\n    /* \"#utility.yul\":4851:4854   */\n  0x00\n    /* \"#utility.yul\":4872:4939   */\n  tag_110\n    /* \"#utility.yul\":4936:4938   */\n  0x0f\n    /* \"#utility.yul\":4931:4934   */\n  dup4\n    /* \"#utility.yul\":4872:4939   */\n  tag_46\n  jump\t// in\ntag_110:\n    /* \"#utility.yul\":4865:4939   */\n  swap2\n  pop\n    /* \"#utility.yul\":4948:5041   */\n  tag_111\n    /* \"#utility.yul\":5037:5040   */\n  dup3\n    /* \"#utility.yul\":4948:5041   */\n  tag_47\n  jump\t// in\ntag_111:\n    /* \"#utility.yul\":5066:5068   */\n  0x20\n    /* \"#utility.yul\":5061:5064   */\n  dup3\n    /* \"#utility.yul\":5057:5069   */\n  add\n    /* \"#utility.yul\":5050:5069   */\n  swap1\n  pop\n    /* \"#utility.yul\":4709:5075   */\n  swap2\n  swap1\n  pop\n  jump\t// out\n    /* \"#utility.yul\":5081:5500   */\ntag_8:\n    /* \"#utility.yul\":5247:5251   */\n  0x00\n    /* \"#utility.yul\":5285:5287   */\n  0x20\n    /* \"#utility.yul\":5274:5283   */\n  dup3\n    /* \"#utility.yul\":5270:5288   */\n  add\n    /* \"#utility.yul\":5262:5288   */\n  swap1\n  pop\n    /* \"#utility.yul\":5334:5343   */\n  dup2\n    /* \"#utility.yul\":5328:5332   */\n  dup2\n    /* \"#utility.yul\":5324:5344   */\n  sub\n    /* \"#utility.yul\":5320:5321   */\n  0x00\n    /* \"#utility.yul\":5309:5318   */\n  dup4\n    /* \"#utility.yul\":5305:5322   */\n  add\n    /* \"#utility.yul\":5298:5345   */\n  mstore\n    /* \"#utility.yul\":5362:5493   */\n  tag_113\n    /* \"#utility.yul\":5488:5492   */\n  dup2\n    /* \"#utility.yul\":5362:5493   */\n  tag_48\n  jump\t// in\ntag_113:\n    /* \"#utility.yul\":5354:5493   */\n  swap1\n  pop\n    /* \"#utility.yul\":5081:5500   */\n  swap2\n  swap1\n  pop\n  jump\t// out\n    /* \"#utility.yul\":5506:5733   */\ntag_49:\n    /* \"#utility.yul\":5646:5680   */\n  0x696e76616c6964206e756d626572206f6620726571756972656420636f6e6669\n    /* \"#utility.yul\":5642:5643   */\n  0x00\n    /* \"#utility.yul\":5634:5640   */\n  dup3\n    /* \"#utility.yul\":5630:5644   */\n  add\n    /* \"#utility.yul\":5623:5681   */\n  mstore\n    /* \"#utility.yul\":5715:5725   */\n  0x726d6174696f6e73000000000000000000000000000000000000000000000000\n    /* \"#utility.yul\":5710:5712   */\n  0x20\n    /* \"#utility.yul\":5702:5708   */\n  dup3\n    /* \"#utility.yul\":5698:5713   */\n  add\n    /* \"#utility.yul\":5691:5726   */\n  mstore\n    /* \"#utility.yul\":5506:5733   */\n  pop\n  jump\t// out\n    /* \"#utility.yul\":5739:6105   */\ntag_50:\n    /* \"#utility.yul\":5881:5884   */\n  0x00\n    /* \"#utility.yul\":5902:5969   */\n  tag_116\n    /* \"#utility.yul\":5966:5968   */\n  0x28\n    /* \"#utility.yul\":5961:5964   */\n  dup4\n    /* \"#utility.yul\":5902:5969   */\n  tag_46\n  jump\t// in\ntag_116:\n    /* \"#utility.yul\":5895:5969   */\n  swap2\n  pop\n    /* \"#utility.yul\":5978:6071   */\n  tag_117\n    /* \"#utility.yul\":6067:6070   */\n  dup3\n    /* \"#utility.yul\":5978:6071   */\n  tag_49\n  jump\t// in\ntag_117:\n    /* \"#utility.yul\":6096:6098   */\n  0x40\n    /* \"#utility.yul\":6091:6094   */\n  dup3\n    /* \"#utility.yul\":6087:6099   */\n  add\n    /* \"#utility.yul\":6080:6099   */\n  swap1\n  pop\n    /* \"#utility.yul\":5739:6105   */\n  swap2\n  swap1\n  pop\n  jump\t// out\n    /* \"#utility.yul\":6111:6530   */\ntag_12:\n    /* \"#utility.yul\":6277:6281   */\n  0x00\n    /* \"#utility.yul\":6315:6317   */\n  0x20\n    /* \"#utility.yul\":6304:6313   */\n  dup3\n    /* \"#utility.yul\":6300:6318   */\n  add\n    /* \"#utility.yul\":6292:6318   */\n  swap1\n  pop\n    /* \"#utility.yul\":6364:6373   */\n  dup2\n    /* \"#utility.yul\":6358:6362   */\n  dup2\n    /* \"#utility.yul\":6354:6374   */\n  sub\n    /* \"#utility.yul\":6350:6351   */\n  0x00\n    /* \"#utility.yul\":6339:6348   */\n  dup4\n    /* \"#utility.yul\":6335:6352   */\n  add\n    /* \"#utility.yul\":6328:6375   */\n  mstore\n    /* \"#utility.yul\":6392:6523   */\n  tag_119\n    /* \"#utility.yul\":6518:6522   */\n  dup2\n    /* \"#utility.yul\":6392:6523   */\n  tag_50\n  jump\t// in\ntag_119:\n    /* \"#utility.yul\":6384:6523   */\n  swap1\n  pop\n    /* \"#utility.yul\":6111:6530   */\n  swap2\n  swap1\n  pop\n  jump\t// out\n    /* \"#utility.yul\":6536:6716   */\ntag_18:\n    /* \"#utility.yul\":6584:6661   */\n  0x4e487b7100000000000000000000000000000000000000000000000000000000\n    /* \"#utility.yul\":6581:6582   */\n  0x00\n    /* \"#utility.yul\":6574:6662   */\n  mstore\n    /* \"#utility.yul\":6681:6685   */\n  0x32\n    /* \"#utility.yul\":6678:6679   */\n  0x04\n    /* \"#utility.yul\":6671:6686   */\n  mstore\n    /* \"#utility.yul\":6705:6709   */\n  0x24\n    /* \"#utility.yul\":6702:6703   */\n  0x00\n    /* \"#utility.yul\":6695:6710   */\n  revert\n    /* \"#utility.yul\":6722:6885   */\ntag_51:\n    /* \"#utility.yul\":6862:6877   */\n  0x696e76616c6964206f776e657200000000000000000000000000000000000000\n    /* \"#utility.yul\":6858:6859   */\n  0x00\n    /* \"#utility.yul\":6850:6856   */\n  dup3\n    /* \"#utility.yul\":6846:6860   */\n  add\n    /* \"#utility.yul\":6839:6878   */\n  mstore\n    /* \"#utility.yul\":6722:6885   */\n  pop\n  jump\t// out\n    /* \"#utility.yul\":6891:7257   */\ntag_52:\n    /* \"#utility.yul\":7033:7036   */\n  0x00\n    /* \"#utility.yul\":7054:7121   */\n  tag_123\n    /* \"#utility.yul\":7118:7120   */\n  0x0d\n    /* \"#utility.yul\":7113:7116   */\n  dup4\n    /* \"#utility.yul\":7054:7121   */\n  tag_46\n  jump\t// in\ntag_123:\n    /* \"#utility.yul\":7047:7121   */\n  swap2\n  pop\n    /* \"#utility.yul\":7130:7223   */\n  tag_124\n    /* \"#utility.yul\":7219:7222   */\n  dup3\n    /* \"#utility.yul\":7130:7223   */\n  tag_51\n  jump\t// in\ntag_124:\n    /* \"#utility.yul\":7248:7250   */\n  0x20\n    /* \"#utility.yul\":7243:7246   */\n  dup3\n    /* \"#utility.yul\":7239:7251   */\n  add\n    /* \"#utility.yul\":7232:7251   */\n  swap1\n  pop\n    /* \"#utility.yul\":6891:7257   */\n  swap2\n  swap1\n  pop\n  jump\t// out\n    /* \"#utility.yul\":7263:7682   */\ntag_21:\n    /* \"#utility.yul\":7429:7433   */\n  0x00\n    /* \"#utility.yul\":7467:7469   */\n  0x20\n    /* \"#utility.yul\":7456:7465   */\n  dup3\n    /* \"#utility.yul\":7452:7470   */\n  add\n    /* \"#utility.yul\":7444:7470   */\n  swap1\n  pop\n    /* \"#utility.yul\":7516:7525   */\n  dup2\n    /* \"#utility.yul\":7510:7514   */\n  dup2\n    /* \"#utility.yul\":7506:7526   */\n  sub\n    /* \"#utility.yul\":7502:7503   */\n  0x00\n    /* \"#utility.yul\":7491:7500   */\n  dup4\n    /* \"#utility.yul\":7487:7504   */\n  add\n    /* \"#utility.yul\":7480:7527   */\n  mstore\n    /* \"#utility.yul\":7544:7675   */\n  tag_126\n    /* \"#utility.yul\":7670:7674   */\n  dup2\n    /* \"#utility.yul\":7544:7675   */\n  tag_52\n  jump\t// in\ntag_126:\n    /* \"#utility.yul\":7536:7675   */\n  swap1\n  pop\n    /* \"#utility.yul\":7263:7682   */\n  swap2\n  swap1\n  pop\n  jump\t// out\n    /* \"#utility.yul\":7688:7854   */\ntag_53:\n    /* \"#utility.yul\":7828:7846   */\n  0x6f776e6572206e6f7420756e6971756500000000000000000000000000000000\n    /* \"#utility.yul\":7824:7825   */\n  0x00\n    /* \"#utility.yul\":7816:7822   */\n  dup3\n    /* \"#utility.yul\":7812:7826   */\n  add\n    /* \"#utility.yul\":7805:7847   */\n  mstore\n    /* \"#utility.yul\":7688:7854   */\n  pop\n  jump\t// out\n    /* \"#utility.yul\":7860:8226   */\ntag_54:\n    /* \"#utility.yul\":8002:8005   */\n  0x00\n    /* \"#utility.yul\":8023:8090   */\n  tag_129\n    /* \"#utility.yul\":8087:8089   */\n  0x10\n    /* \"#utility.yul\":8082:8085   */\n  dup4\n    /* \"#utility.yul\":8023:8090   */\n  tag_46\n  jump\t// in\ntag_129:\n    /* \"#utility.yul\":8016:8090   */\n  swap2\n  pop\n    /* \"#utility.yul\":8099:8192   */\n  tag_130\n    /* \"#utility.yul\":8188:8191   */\n  dup3\n    /* \"#utility.yul\":8099:8192   */\n  tag_53\n  jump\t// in\ntag_130:\n    /* \"#utility.yul\":8217:8219   */\n  0x20\n    /* \"#utility.yul\":8212:8215   */\n  dup3\n    /* \"#utility.yul\":8208:8220   */\n  add\n    /* \"#utility.yul\":8201:8220   */\n  swap1\n  pop\n    /* \"#utility.yul\":7860:8226   */\n  swap2\n  swap1\n  pop\n  jump\t// out\n    /* \"#utility.yul\":8232:8651   */\ntag_24:\n    /* \"#utility.yul\":8398:8402   */\n  0x00\n    /* \"#utility.yul\":8436:8438   */\n  0x20\n    /* \"#utility.yul\":8425:8434   */\n  dup3\n    /* \"#utility.yul\":8421:8439   */\n  add\n    /* \"#utility.yul\":8413:8439   */\n  swap1\n  pop\n    /* \"#utility.yul\":8485:8494   */\n  dup2\n    /* \"#utility.yul\":8479:8483   */\n  dup2\n    /* \"#utility.yul\":8475:8495   */\n  sub\n    /* \"#utility.yul\":8471:8472   */\n  0x00\n    /* \"#utility.yul\":8460:8469   */\n  dup4\n    /* \"#utility.yul\":8456:8473   */\n  add\n    /* \"#utility.yul\":8449:8496   */\n  mstore\n    /* \"#utility.yul\":8513:8644   */\n  tag_132\n    /* \"#utility.yul\":8639:8643   */\n  dup2\n    /* \"#utility.yul\":8513:8644   */\n  tag_54\n  jump\t// in\ntag_132:\n    /* \"#utility.yul\":8505:8644   */\n  swap1\n  pop\n    /* \"#utility.yul\":8232:8651   */\n  swap2\n  swap1\n  pop\n  jump\t// out\n    /* \"application_contracts/Multi-Sig Wallet.sol\":159:4805  contract MultiSigWallet {... */\ntag_26:\n  dataSize(sub_0)\n  dup1\n  dataOffset(sub_0)\n  0x00\n  codecopy\n  0x00\n  return\nstop\n\nsub_0: assembly {\n        /* \"application_contracts/Multi-Sig Wallet.sol\":159:4805  contract MultiSigWallet {... */\n      mstore(0x40, 0x80)\n      callvalue\n      dup1\n      iszero\n      tag_1\n      jumpi\n      revert(0x00, 0x00)\n    tag_1:\n      pop\n      jumpi(tag_2, lt(calldatasize, 0x04))\n      shr(0xe0, calldataload(0x00))\n      dup1\n      0x9ace38c2\n      gt\n      tag_15\n      jumpi\n      dup1\n      0x9ace38c2\n      eq\n      tag_9\n      jumpi\n      dup1\n      0xa0e67e2b\n      eq\n      tag_10\n      jumpi\n      dup1\n      0xc01a8c84\n      eq\n      tag_11\n      jumpi\n      dup1\n      0xc6427474\n      eq\n      tag_12\n      jumpi\n      dup1\n      0xd0549b85\n      eq\n      tag_13\n      jumpi\n      dup1\n      0xee22610b\n      eq\n      tag_14\n      jumpi\n      jump(tag_2)\n    tag_15:\n      dup1\n      0x025e7c27\n      eq\n      tag_3\n      jumpi\n      dup1\n      0x20ea8d86\n      eq\n      tag_4\n      jumpi\n      dup1\n      0x2e7700f0\n      eq\n      tag_5\n      jumpi\n      dup1\n      0x2f54bf6e\n      eq\n      tag_6\n      jumpi\n      dup1\n      0x33ea3dc8\n      eq\n      tag_7\n      jumpi\n      dup1\n      0x80f59a65\n      eq\n      tag_8\n      jumpi\n    tag_2:\n      revert(0x00, 0x00)\n        /* \"application_contracts/Multi-Sig Wallet.sol\":963:986  address[] public owners */\n    tag_3:\n      tag_16\n      0x04\n      dup1\n      calldatasize\n      sub\n      dup2\n      add\n      swap1\n      tag_17\n      swap2\n      swap1\n      tag_18\n      jump\t// in\n    tag_17:\n      tag_19\n      jump\t// in\n    tag_16:\n      mload(0x40)\n      tag_20\n      swap2\n      swap1\n      tag_21\n      jump\t// in\n    tag_20:\n      mload(0x40)\n      dup1\n      swap2\n      sub\n      swap1\n      return\n        /* \"application_contracts/Multi-Sig Wallet.sol\":3865:4260  function revokeConfirmation(uint _txIndex) public onlyOwner txExists(_txIndex) notExecuted(_txIndex) {... */\n    tag_4:\n      tag_22\n      0x04\n      dup1\n      calldatasize\n      sub\n      dup2\n      add\n      swap1\n      tag_23\n      swap2\n      swap1\n      tag_18\n      jump\t// in\n    tag_23:\n      tag_24\n      jump\t// in\n    tag_22:\n      stop\n        /* \"application_contracts/Multi-Sig Wallet.sol\":4360:4461  function getTransactionCount() public view returns (uint) {... */\n    tag_5:\n      tag_25\n      tag_26\n      jump\t// in\n    tag_25:\n      mload(0x40)\n      tag_27\n      swap2\n      swap1\n      tag_28\n      jump\t// in\n    tag_27:\n      mload(0x40)\n      dup1\n      swap2\n      sub\n      swap1\n      return\n        /* \"application_contracts/Multi-Sig Wallet.sol\":1075:1114  mapping(address => bool) public isOwner */\n    tag_6:\n      tag_29\n      0x04\n      dup1\n      calldatasize\n      sub\n      dup2\n      add\n      swap1\n      tag_30\n      swap2\n      swap1\n      tag_31\n      jump\t// in\n    tag_30:\n      tag_32\n      jump\t// in\n    tag_29:\n      mload(0x40)\n      tag_33\n      swap2\n      swap1\n      tag_34\n      jump\t// in\n    tag_33:\n      mload(0x40)\n      dup1\n      swap2\n      sub\n      swap1\n      return\n        /* \"application_contracts/Multi-Sig Wallet.sol\":4466:4802  function getTransaction(uint _txIndex) public view returns (address to, uint value, bytes memory data, bool executed, uint numConfirmations) {... */\n    tag_7:\n      tag_35\n      0x04\n      dup1\n      calldatasize\n      sub\n      dup2\n      add\n      swap1\n      tag_36\n      swap2\n      swap1\n      tag_18\n      jump\t// in\n    tag_36:\n      tag_37\n      jump\t// in\n    tag_35:\n      mload(0x40)\n      tag_38\n      swap6\n      swap5\n      swap4\n      swap3\n      swap2\n      swap1\n      tag_39\n      jump\t// in\n    tag_38:\n      mload(0x40)\n      dup1\n      swap2\n      sub\n      swap1\n      return\n        /* \"application_contracts/Multi-Sig Wallet.sol\":1307:1367  mapping(uint => mapping(address => bool)) public isConfirmed */\n    tag_8:\n      tag_40\n      0x04\n      dup1\n      calldatasize\n      sub\n      dup2\n      add\n      swap1\n      tag_41\n      swap2\n      swap1\n      tag_42\n      jump\t// in\n    tag_41:\n      tag_43\n      jump\t// in\n    tag_40:\n      mload(0x40)\n      tag_44\n      swap2\n      swap1\n      tag_34\n      jump\t// in\n    tag_44:\n      mload(0x40)\n      dup1\n      swap2\n      sub\n      swap1\n      return\n        /* \"application_contracts/Multi-Sig Wallet.sol\":1373:1406  Transaction[] public transactions */\n    tag_9:\n      tag_45\n      0x04\n      dup1\n      calldatasize\n      sub\n      dup2\n      add\n      swap1\n      tag_46\n      swap2\n      swap1\n      tag_18\n      jump\t// in\n    tag_46:\n      tag_47\n      jump\t// in\n    tag_45:\n      mload(0x40)\n      tag_48\n      swap6\n      swap5\n      swap4\n      swap3\n      swap2\n      swap1\n      tag_39\n      jump\t// in\n    tag_48:\n      mload(0x40)\n      dup1\n      swap2\n      sub\n      swap1\n      return\n        /* \"application_contracts/Multi-Sig Wallet.sol\":4265:4355  function getOwners() public view returns (address[] memory) {... */\n    tag_10:\n      tag_49\n      tag_50\n      jump\t// in\n    tag_49:\n      mload(0x40)\n      tag_51\n      swap2\n      swap1\n      tag_52\n      jump\t// in\n    tag_51:\n      mload(0x40)\n      dup1\n      swap2\n      sub\n      swap1\n      return\n        /* \"application_contracts/Multi-Sig Wallet.sol\":2995:3340  function confirmTransaction(uint _txIndex) public onlyOwner txExists(_txIndex) notExecuted(_txIndex) notConfirmed(_txIndex) {... */\n    tag_11:\n      tag_53\n      0x04\n      dup1\n      calldatasize\n      sub\n      dup2\n      add\n      swap1\n      tag_54\n      swap2\n      swap1\n      tag_18\n      jump\t// in\n    tag_54:\n      tag_55\n      jump\t// in\n    tag_53:\n      stop\n        /* \"application_contracts/Multi-Sig Wallet.sol\":2534:2990  function submitTransaction(address _to, uint _value, bytes memory _data) public onlyOwner {... */\n    tag_12:\n      tag_56\n      0x04\n      dup1\n      calldatasize\n      sub\n      dup2\n      add\n      swap1\n      tag_57\n      swap2\n      swap1\n      tag_58\n      jump\t// in\n    tag_57:\n      tag_59\n      jump\t// in\n    tag_56:\n      stop\n        /* \"application_contracts/Multi-Sig Wallet.sol\":1120:1156  uint public numConfirmationsRequired */\n    tag_13:\n      tag_60\n      tag_61\n      jump\t// in\n    tag_60:\n      mload(0x40)\n      tag_62\n      swap2\n      swap1\n      tag_28\n      jump\t// in\n    tag_62:\n      mload(0x40)\n      dup1\n      swap2\n      sub\n      swap1\n      return\n        /* \"application_contracts/Multi-Sig Wallet.sol\":3345:3860  function executeTransaction(uint _txIndex) public onlyOwner txExists(_txIndex) notExecuted(_txIndex) {... */\n    tag_14:\n      tag_63\n      0x04\n      dup1\n      calldatasize\n      sub\n      dup2\n      add\n      swap1\n      tag_64\n      swap2\n      swap1\n      tag_18\n      jump\t// in\n    tag_64:\n      tag_65\n      jump\t// in\n    tag_63:\n      stop\n        /* \"application_contracts/Multi-Sig Wallet.sol\":963:986  address[] public owners */\n    tag_19:\n      0x00\n      dup2\n      dup2\n      sload\n      dup2\n      lt\n      tag_66\n      jumpi\n      0x00\n      dup1\n      revert\n    tag_66:\n      swap1\n      0x00\n      mstore\n      keccak256(0x00, 0x20)\n      add\n      0x00\n      swap2\n      pop\n      sload\n      swap1\n      0x0100\n      exp\n      swap1\n      div\n      0xffffffffffffffffffffffffffffffffffffffff\n      and\n      dup2\n      jump\t// out\n        /* \"application_contracts/Multi-Sig Wallet.sol\":3865:4260  function revokeConfirmation(uint _txIndex) public onlyOwner txExists(_txIndex) notExecuted(_txIndex) {... */\n    tag_24:\n        /* \"application_contracts/Multi-Sig Wallet.sol\":1452:1459  isOwner */\n      0x01\n        /* \"application_contracts/Multi-Sig Wallet.sol\":1452:1471  isOwner[msg.sender] */\n      0x00\n        /* \"application_contracts/Multi-Sig Wallet.sol\":1460:1470  msg.sender */\n      caller\n        /* \"application_contracts/Multi-Sig Wallet.sol\":1452:1471  isOwner[msg.sender] */\n      0xffffffffffffffffffffffffffffffffffffffff\n      and\n      0xffffffffffffffffffffffffffffffffffffffff\n      and\n      dup2\n      mstore\n      0x20\n      add\n      swap1\n      dup2\n      mstore\n      0x20\n      add\n      0x00\n      keccak256\n      0x00\n      swap1\n      sload\n      swap1\n      0x0100\n      exp\n      swap1\n      div\n      0xff\n      and\n        /* \"application_contracts/Multi-Sig Wallet.sol\":1444:1485  require(isOwner[msg.sender], \"not owner\") */\n      tag_69\n      jumpi\n      mload(0x40)\n      0x08c379a000000000000000000000000000000000000000000000000000000000\n      dup2\n      mstore\n      0x04\n      add\n      tag_70\n      swap1\n      tag_71\n      jump\t// in\n    tag_70:\n      mload(0x40)\n      dup1\n      swap2\n      sub\n      swap1\n      revert\n    tag_69:\n        /* \"application_contracts/Multi-Sig Wallet.sol\":3934:3942  _txIndex */\n      dup1\n        /* \"application_contracts/Multi-Sig Wallet.sol\":1570:1582  transactions */\n      0x04\n        /* \"application_contracts/Multi-Sig Wallet.sol\":1570:1589  transactions.length */\n      dup1\n      sload\n      swap1\n      pop\n        /* \"application_contracts/Multi-Sig Wallet.sol\":1559:1567  _txIndex */\n      dup2\n        /* \"application_contracts/Multi-Sig Wallet.sol\":1559:1589  _txIndex < transactions.length */\n      lt\n        /* \"application_contracts/Multi-Sig Wallet.sol\":1551:1611  require(_txIndex < transactions.length, \"tx does not exist\") */\n      tag_73\n      jumpi\n      mload(0x40)\n      0x08c379a000000000000000000000000000000000000000000000000000000000\n      dup2\n      mstore\n      0x04\n      add\n      tag_74\n      swap1\n      tag_75\n      jump\t// in\n    tag_74:\n      mload(0x40)\n      dup1\n      swap2\n      sub\n      swap1\n      revert\n    tag_73:\n        /* \"application_contracts/Multi-Sig Wallet.sol\":3956:3964  _txIndex */\n      dup2\n        /* \"application_contracts/Multi-Sig Wallet.sol\":1690:1702  transactions */\n      0x04\n        /* \"application_contracts/Multi-Sig Wallet.sol\":1703:1711  _txIndex */\n      dup2\n        /* \"application_contracts/Multi-Sig Wallet.sol\":1690:1712  transactions[_txIndex] */\n      dup2\n      sload\n      dup2\n      lt\n      tag_77\n      jumpi\n      tag_78\n      tag_79\n      jump\t// in\n    tag_78:\n    tag_77:\n      swap1\n      0x00\n      mstore\n      keccak256(0x00, 0x20)\n      swap1\n      0x05\n      mul\n      add\n        /* \"application_contracts/Multi-Sig Wallet.sol\":1690:1721  transactions[_txIndex].executed */\n      0x03\n      add\n      0x00\n      swap1\n      sload\n      swap1\n      0x0100\n      exp\n      swap1\n      div\n      0xff\n      and\n        /* \"application_contracts/Multi-Sig Wallet.sol\":1689:1721  !transactions[_txIndex].executed */\n      iszero\n        /* \"application_contracts/Multi-Sig Wallet.sol\":1681:1745  require(!transactions[_txIndex].executed, \"tx already executed\") */\n      tag_81\n      jumpi\n      mload(0x40)\n      0x08c379a000000000000000000000000000000000000000000000000000000000\n      dup2\n      mstore\n      0x04\n      add\n      tag_82\n      swap1\n      tag_83\n      jump\t// in\n    tag_82:\n      mload(0x40)\n      dup1\n      swap2\n      sub\n      swap1\n      revert\n    tag_81:\n        /* \"application_contracts/Multi-Sig Wallet.sol\":3976:4007  Transaction storage transaction */\n      0x00\n        /* \"application_contracts/Multi-Sig Wallet.sol\":4010:4022  transactions */\n      0x04\n        /* \"application_contracts/Multi-Sig Wallet.sol\":4023:4031  _txIndex */\n      dup5\n        /* \"application_contracts/Multi-Sig Wallet.sol\":4010:4032  transactions[_txIndex] */\n      dup2\n      sload\n      dup2\n      lt\n      tag_85\n      jumpi\n      tag_86\n      tag_79\n      jump\t// in\n    tag_86:\n    tag_85:\n      swap1\n      0x00\n      mstore\n      keccak256(0x00, 0x20)\n      swap1\n      0x05\n      mul\n      add\n        /* \"application_contracts/Multi-Sig Wallet.sol\":3976:4032  Transaction storage transaction = transactions[_txIndex] */\n      swap1\n      pop\n        /* \"application_contracts/Multi-Sig Wallet.sol\":4050:4061  isConfirmed */\n      0x03\n        /* \"application_contracts/Multi-Sig Wallet.sol\":4050:4071  isConfirmed[_txIndex] */\n      0x00\n        /* \"application_contracts/Multi-Sig Wallet.sol\":4062:4070  _txIndex */\n      dup6\n        /* \"application_contracts/Multi-Sig Wallet.sol\":4050:4071  isConfirmed[_txIndex] */\n      dup2\n      mstore\n      0x20\n      add\n      swap1\n      dup2\n      mstore\n      0x20\n      add\n      0x00\n      keccak256\n        /* \"application_contracts/Multi-Sig Wallet.sol\":4050:4083  isConfirmed[_txIndex][msg.sender] */\n      0x00\n        /* \"application_contracts/Multi-Sig Wallet.sol\":4072:4082  msg.sender */\n      caller\n        /* \"application_contracts/Multi-Sig Wallet.sol\":4050:4083  isConfirmed[_txIndex][msg.sender] */\n      0xffffffffffffffffffffffffffffffffffffffff\n      and\n      0xffffffffffffffffffffffffffffffffffffffff\n      and\n      dup2\n      mstore\n      0x20\n      add\n      swap1\n      dup2\n      mstore\n      0x20\n      add\n      0x00\n      keccak256\n      0x00\n      swap1\n      sload\n      swap1\n      0x0100\n      exp\n      swap1\n      div\n      0xff\n      and\n        /* \"application_contracts/Multi-Sig Wallet.sol\":4042:4104  require(isConfirmed[_txIndex][msg.sender], \"tx not confirmed\") */\n      tag_88\n      jumpi\n      mload(0x40)\n      0x08c379a000000000000000000000000000000000000000000000000000000000\n      dup2\n      mstore\n      0x04\n      add\n      tag_89\n      swap1\n      tag_90\n      jump\t// in\n    tag_89:\n      mload(0x40)\n      dup1\n      swap2\n      sub\n      swap1\n      revert\n    tag_88:\n        /* \"application_contracts/Multi-Sig Wallet.sol\":4146:4147  1 */\n      0x01\n        /* \"application_contracts/Multi-Sig Wallet.sol\":4114:4125  transaction */\n      dup2\n        /* \"application_contracts/Multi-Sig Wallet.sol\":4114:4142  transaction.numConfirmations */\n      0x04\n      add\n      0x00\n        /* \"application_contracts/Multi-Sig Wallet.sol\":4114:4147  transaction.numConfirmations -= 1 */\n      dup3\n      dup3\n      sload\n      tag_91\n      swap2\n      swap1\n      tag_92\n      jump\t// in\n    tag_91:\n      swap3\n      pop\n      pop\n      dup2\n      swap1\n      sstore\n      pop\n        /* \"application_contracts/Multi-Sig Wallet.sol\":4193:4198  false */\n      0x00\n        /* \"application_contracts/Multi-Sig Wallet.sol\":4157:4168  isConfirmed */\n      0x03\n        /* \"application_contracts/Multi-Sig Wallet.sol\":4157:4178  isConfirmed[_txIndex] */\n      0x00\n        /* \"application_contracts/Multi-Sig Wallet.sol\":4169:4177  _txIndex */\n      dup7\n        /* \"application_contracts/Multi-Sig Wallet.sol\":4157:4178  isConfirmed[_txIndex] */\n      dup2\n      mstore\n      0x20\n      add\n      swap1\n      dup2\n      mstore\n      0x20\n      add\n      0x00\n      keccak256\n        /* \"application_contracts/Multi-Sig Wallet.sol\":4157:4190  isConfirmed[_txIndex][msg.sender] */\n      0x00\n        /* \"application_contracts/Multi-Sig Wallet.sol\":4179:4189  msg.sender */\n      caller\n        /* \"application_contracts/Multi-Sig Wallet.sol\":4157:4190  isConfirmed[_txIndex][msg.sender] */\n      0xffffffffffffffffffffffffffffffffffffffff\n      and\n      0xffffffffffffffffffffffffffffffffffffffff\n      and\n      dup2\n      mstore\n      0x20\n      add\n      swap1\n      dup2\n      mstore\n      0x20\n      add\n      0x00\n      keccak256\n      0x00\n        /* \"application_contracts/Multi-Sig Wallet.sol\":4157:4198  isConfirmed[_txIndex][msg.sender] = false */\n      0x0100\n      exp\n      dup2\n      sload\n      dup2\n      0xff\n      mul\n      not\n      and\n      swap1\n      dup4\n      iszero\n      iszero\n      mul\n      or\n      swap1\n      sstore\n      pop\n        /* \"application_contracts/Multi-Sig Wallet.sol\":4244:4252  _txIndex */\n      dup4\n        /* \"application_contracts/Multi-Sig Wallet.sol\":4232:4242  msg.sender */\n      caller\n        /* \"application_contracts/Multi-Sig Wallet.sol\":4213:4253  RevokeConfirmation(msg.sender, _txIndex) */\n      0xffffffffffffffffffffffffffffffffffffffff\n      and\n      0xf0dca620e2e81f7841d07bcc105e1704fb01475b278a9d4c236e1c62945edd55\n      mload(0x40)\n      mload(0x40)\n      dup1\n      swap2\n      sub\n      swap1\n      log3\n        /* \"application_contracts/Multi-Sig Wallet.sol\":3966:4260  {... */\n      pop\n        /* \"application_contracts/Multi-Sig Wallet.sol\":1621:1622  _ */\n      pop\n        /* \"application_contracts/Multi-Sig Wallet.sol\":1495:1496  _ */\n      pop\n        /* \"application_contracts/Multi-Sig Wallet.sol\":3865:4260  function revokeConfirmation(uint _txIndex) public onlyOwner txExists(_txIndex) notExecuted(_txIndex) {... */\n      pop\n      jump\t// out\n        /* \"application_contracts/Multi-Sig Wallet.sol\":4360:4461  function getTransactionCount() public view returns (uint) {... */\n    tag_26:\n        /* \"application_contracts/Multi-Sig Wallet.sol\":4412:4416  uint */\n      0x00\n        /* \"application_contracts/Multi-Sig Wallet.sol\":4435:4447  transactions */\n      0x04\n        /* \"application_contracts/Multi-Sig Wallet.sol\":4435:4454  transactions.length */\n      dup1\n      sload\n      swap1\n      pop\n        /* \"application_contracts/Multi-Sig Wallet.sol\":4428:4454  return transactions.length */\n      swap1\n      pop\n        /* \"application_contracts/Multi-Sig Wallet.sol\":4360:4461  function getTransactionCount() public view returns (uint) {... */\n      swap1\n      jump\t// out\n        /* \"application_contracts/Multi-Sig Wallet.sol\":1075:1114  mapping(address => bool) public isOwner */\n    tag_32:\n      mstore(0x20, 0x01)\n      dup1\n      0x00\n      mstore\n      keccak256(0x00, 0x40)\n      0x00\n      swap2\n      pop\n      sload\n      swap1\n      0x0100\n      exp\n      swap1\n      div\n      0xff\n      and\n      dup2\n      jump\t// out\n        /* \"application_contracts/Multi-Sig Wallet.sol\":4466:4802  function getTransaction(uint _txIndex) public view returns (address to, uint value, bytes memory data, bool executed, uint numConfirmations) {... */\n    tag_37:\n        /* \"application_contracts/Multi-Sig Wallet.sol\":4526:4536  address to */\n      0x00\n        /* \"application_contracts/Multi-Sig Wallet.sol\":4538:4548  uint value */\n      0x00\n        /* \"application_contracts/Multi-Sig Wallet.sol\":4550:4567  bytes memory data */\n      0x60\n        /* \"application_contracts/Multi-Sig Wallet.sol\":4569:4582  bool executed */\n      0x00\n        /* \"application_contracts/Multi-Sig Wallet.sol\":4584:4605  uint numConfirmations */\n      0x00\n        /* \"application_contracts/Multi-Sig Wallet.sol\":4617:4648  Transaction storage transaction */\n      0x00\n        /* \"application_contracts/Multi-Sig Wallet.sol\":4651:4663  transactions */\n      0x04\n        /* \"application_contracts/Multi-Sig Wallet.sol\":4664:4672  _txIndex */\n      dup8\n        /* \"application_contracts/Multi-Sig Wallet.sol\":4651:4673  transactions[_txIndex] */\n      dup2\n      sload\n      dup2\n      lt\n      tag_95\n      jumpi\n      tag_96\n      tag_79\n      jump\t// in\n    tag_96:\n    tag_95:\n      swap1\n      0x00\n      mstore\n      keccak256(0x00, 0x20)\n      swap1\n      0x05\n      mul\n      add\n        /* \"application_contracts/Multi-Sig Wallet.sol\":4617:4673  Transaction storage transaction = transactions[_txIndex] */\n      swap1\n      pop\n        /* \"application_contracts/Multi-Sig Wallet.sol\":4691:4702  transaction */\n      dup1\n        /* \"application_contracts/Multi-Sig Wallet.sol\":4691:4705  transaction.to */\n      0x00\n      add\n      0x00\n      swap1\n      sload\n      swap1\n      0x0100\n      exp\n      swap1\n      div\n      0xffffffffffffffffffffffffffffffffffffffff\n      and\n        /* \"application_contracts/Multi-Sig Wallet.sol\":4707:4718  transaction */\n      dup2\n        /* \"application_contracts/Multi-Sig Wallet.sol\":4707:4724  transaction.value */\n      0x01\n      add\n      sload\n        /* \"application_contracts/Multi-Sig Wallet.sol\":4726:4737  transaction */\n      dup3\n        /* \"application_contracts/Multi-Sig Wallet.sol\":4726:4742  transaction.data */\n      0x02\n      add\n        /* \"application_contracts/Multi-Sig Wallet.sol\":4744:4755  transaction */\n      dup4\n        /* \"application_contracts/Multi-Sig Wallet.sol\":4744:4764  transaction.executed */\n      0x03\n      add\n      0x00\n      swap1\n      sload\n      swap1\n      0x0100\n      exp\n      swap1\n      div\n      0xff\n      and\n        /* \"application_contracts/Multi-Sig Wallet.sol\":4766:4777  transaction */\n      dup5\n        /* \"application_contracts/Multi-Sig Wallet.sol\":4766:4794  transaction.numConfirmations */\n      0x04\n      add\n      sload\n        /* \"application_contracts/Multi-Sig Wallet.sol\":4683:4795  return (transaction.to, transaction.value, transaction.data, transaction.executed, transaction.numConfirmations) */\n      dup3\n      dup1\n      sload\n      tag_98\n      swap1\n      tag_99\n      jump\t// in\n    tag_98:\n      dup1\n      0x1f\n      add\n      0x20\n      dup1\n      swap2\n      div\n      mul\n      0x20\n      add\n      mload(0x40)\n      swap1\n      dup2\n      add\n      0x40\n      mstore\n      dup1\n      swap3\n      swap2\n      swap1\n      dup2\n      dup2\n      mstore\n      0x20\n      add\n      dup3\n      dup1\n      sload\n      tag_100\n      swap1\n      tag_99\n      jump\t// in\n    tag_100:\n      dup1\n      iszero\n      tag_101\n      jumpi\n      dup1\n      0x1f\n      lt\n      tag_102\n      jumpi\n      0x0100\n      dup1\n      dup4\n      sload\n      div\n      mul\n      dup4\n      mstore\n      swap2\n      0x20\n      add\n      swap2\n      jump(tag_101)\n    tag_102:\n      dup3\n      add\n      swap2\n      swap1\n      0x00\n      mstore\n      keccak256(0x00, 0x20)\n      swap1\n    tag_103:\n      dup2\n      sload\n      dup2\n      mstore\n      swap1\n      0x01\n      add\n      swap1\n      0x20\n      add\n      dup1\n      dup4\n      gt\n      tag_103\n      jumpi\n      dup3\n      swap1\n      sub\n      0x1f\n      and\n      dup3\n      add\n      swap2\n    tag_101:\n      pop\n      pop\n      pop\n      pop\n      pop\n      swap3\n      pop\n      swap6\n      pop\n      swap6\n      pop\n      swap6\n      pop\n      swap6\n      pop\n      swap6\n      pop\n      pop\n        /* \"application_contracts/Multi-Sig Wallet.sol\":4466:4802  function getTransaction(uint _txIndex) public view returns (address to, uint value, bytes memory data, bool executed, uint numConfirmations) {... */\n      swap2\n      swap4\n      swap6\n      swap1\n      swap3\n      swap5\n      pop\n      jump\t// out\n        /* \"application_contracts/Multi-Sig Wallet.sol\":1307:1367  mapping(uint => mapping(address => bool)) public isConfirmed */\n    tag_43:\n      mstore(0x20, 0x03)\n      dup2\n      0x00\n      mstore\n      mstore(0x20, keccak256(0x00, 0x40))\n      dup1\n      0x00\n      mstore\n      keccak256(0x00, 0x40)\n      0x00\n      swap2\n      pop\n      swap2\n      pop\n      swap1\n      sload\n      swap1\n      0x0100\n      exp\n      swap1\n      div\n      0xff\n      and\n      dup2\n      jump\t// out\n        /* \"application_contracts/Multi-Sig Wallet.sol\":1373:1406  Transaction[] public transactions */\n    tag_47:\n      0x04\n      dup2\n      dup2\n      sload\n      dup2\n      lt\n      tag_104\n      jumpi\n      0x00\n      dup1\n      revert\n    tag_104:\n      swap1\n      0x00\n      mstore\n      keccak256(0x00, 0x20)\n      swap1\n      0x05\n      mul\n      add\n      0x00\n      swap2\n      pop\n      swap1\n      pop\n      dup1\n      0x00\n      add\n      0x00\n      swap1\n      sload\n      swap1\n      0x0100\n      exp\n      swap1\n      div\n      0xffffffffffffffffffffffffffffffffffffffff\n      and\n      swap1\n      dup1\n      0x01\n      add\n      sload\n      swap1\n      dup1\n      0x02\n      add\n      dup1\n      sload\n      tag_106\n      swap1\n      tag_99\n      jump\t// in\n    tag_106:\n      dup1\n      0x1f\n      add\n      0x20\n      dup1\n      swap2\n      div\n      mul\n      0x20\n      add\n      mload(0x40)\n      swap1\n      dup2\n      add\n      0x40\n      mstore\n      dup1\n      swap3\n      swap2\n      swap1\n      dup2\n      dup2\n      mstore\n      0x20\n      add\n      dup3\n      dup1\n      sload\n      tag_107\n      swap1\n      tag_99\n      jump\t// in\n    tag_107:\n      dup1\n      iszero\n      tag_108\n      jumpi\n      dup1\n      0x1f\n      lt\n      tag_109\n      jumpi\n      0x0100\n      dup1\n      dup4\n      sload\n      div\n      mul\n      dup4\n      mstore\n      swap2\n      0x20\n      add\n      swap2\n      jump(tag_108)\n    tag_109:\n      dup3\n      add\n      swap2\n      swap1\n      0x00\n      mstore\n      keccak256(0x00, 0x20)\n      swap1\n    tag_110:\n      dup2\n      sload\n      dup2\n      mstore\n      swap1\n      0x01\n      add\n      swap1\n      0x20\n      add\n      dup1\n      dup4\n      gt\n      tag_110\n      jumpi\n      dup3\n      swap1\n      sub\n      0x1f\n      and\n      dup3\n      add\n      swap2\n    tag_108:\n      pop\n      pop\n      pop\n      pop\n      pop\n      swap1\n      dup1\n      0x03\n      add\n      0x00\n      swap1\n      sload\n      swap1\n      0x0100\n      exp\n      swap1\n      div\n      0xff\n      and\n      swap1\n      dup1\n      0x04\n      add\n      sload\n      swap1\n      pop\n      dup6\n      jump\t// out\n        /* \"application_contracts/Multi-Sig Wallet.sol\":4265:4355  function getOwners() public view returns (address[] memory) {... */\n    tag_50:\n        /* \"application_contracts/Multi-Sig Wallet.sol\":4307:4323  address[] memory */\n      0x60\n        /* \"application_contracts/Multi-Sig Wallet.sol\":4342:4348  owners */\n      0x00\n        /* \"application_contracts/Multi-Sig Wallet.sol\":4335:4348  return owners */\n      dup1\n      sload\n      dup1\n      0x20\n      mul\n      0x20\n      add\n      mload(0x40)\n      swap1\n      dup2\n      add\n      0x40\n      mstore\n      dup1\n      swap3\n      swap2\n      swap1\n      dup2\n      dup2\n      mstore\n      0x20\n      add\n      dup3\n      dup1\n      sload\n      dup1\n      iszero\n      tag_112\n      jumpi\n      0x20\n      mul\n      dup3\n      add\n      swap2\n      swap1\n      0x00\n      mstore\n      keccak256(0x00, 0x20)\n      swap1\n    tag_113:\n      dup2\n      0x00\n      swap1\n      sload\n      swap1\n      0x0100\n      exp\n      swap1\n      div\n      0xffffffffffffffffffffffffffffffffffffffff\n      and\n      0xffffffffffffffffffffffffffffffffffffffff\n      and\n      dup2\n      mstore\n      0x20\n      add\n      swap1\n      0x01\n      add\n      swap1\n      dup1\n      dup4\n      gt\n      tag_113\n      jumpi\n    tag_112:\n      pop\n      pop\n      pop\n      pop\n      pop\n      swap1\n      pop\n        /* \"application_contracts/Multi-Sig Wallet.sol\":4265:4355  function getOwners() public view returns (address[] memory) {... */\n      swap1\n      jump\t// out\n        /* \"application_contracts/Multi-Sig Wallet.sol\":2995:3340  function confirmTransaction(uint _txIndex) public onlyOwner txExists(_txIndex) notExecuted(_txIndex) notConfirmed(_txIndex) {... */\n    tag_55:\n        /* \"application_contracts/Multi-Sig Wallet.sol\":1452:1459  isOwner */\n      0x01\n        /* \"application_contracts/Multi-Sig Wallet.sol\":1452:1471  isOwner[msg.sender] */\n      0x00\n        /* \"application_contracts/Multi-Sig Wallet.sol\":1460:1470  msg.sender */\n      caller\n        /* \"application_contracts/Multi-Sig Wallet.sol\":1452:1471  isOwner[msg.sender] */\n      0xffffffffffffffffffffffffffffffffffffffff\n      and\n      0xffffffffffffffffffffffffffffffffffffffff\n      and\n      dup2\n      mstore\n      0x20\n      add\n      swap1\n      dup2\n      mstore\n      0x20\n      add\n      0x00\n      keccak256\n      0x00\n      swap1\n      sload\n      swap1\n      0x0100\n      exp\n      swap1\n      div\n      0xff\n      and\n        /* \"application_contracts/Multi-Sig Wallet.sol\":1444:1485  require(isOwner[msg.sender], \"not owner\") */\n      tag_115\n      jumpi\n      mload(0x40)\n      0x08c379a000000000000000000000000000000000000000000000000000000000\n      dup2\n      mstore\n      0x04\n      add\n      tag_116\n      swap1\n      tag_71\n      jump\t// in\n    tag_116:\n      mload(0x40)\n      dup1\n      swap2\n      sub\n      swap1\n      revert\n    tag_115:\n        /* \"application_contracts/Multi-Sig Wallet.sol\":3064:3072  _txIndex */\n      dup1\n        /* \"application_contracts/Multi-Sig Wallet.sol\":1570:1582  transactions */\n      0x04\n        /* \"application_contracts/Multi-Sig Wallet.sol\":1570:1589  transactions.length */\n      dup1\n      sload\n      swap1\n      pop\n        /* \"application_contracts/Multi-Sig Wallet.sol\":1559:1567  _txIndex */\n      dup2\n        /* \"application_contracts/Multi-Sig Wallet.sol\":1559:1589  _txIndex < transactions.length */\n      lt\n        /* \"application_contracts/Multi-Sig Wallet.sol\":1551:1611  require(_txIndex < transactions.length, \"tx does not exist\") */\n      tag_118\n      jumpi\n      mload(0x40)\n      0x08c379a000000000000000000000000000000000000000000000000000000000\n      dup2\n      mstore\n      0x04\n      add\n      tag_119\n      swap1\n      tag_75\n      jump\t// in\n    tag_119:\n      mload(0x40)\n      dup1\n      swap2\n      sub\n      swap1\n      revert\n    tag_118:\n        /* \"application_contracts/Multi-Sig Wallet.sol\":3086:3094  _txIndex */\n      dup2\n        /* \"application_contracts/Multi-Sig Wallet.sol\":1690:1702  transactions */\n      0x04\n        /* \"application_contracts/Multi-Sig Wallet.sol\":1703:1711  _txIndex */\n      dup2\n        /* \"application_contracts/Multi-Sig Wallet.sol\":1690:1712  transactions[_txIndex] */\n      dup2\n      sload\n      dup2\n      lt\n      tag_121\n      jumpi\n      tag_122\n      tag_79\n      jump\t// in\n    tag_122:\n    tag_121:\n      swap1\n      0x00\n      mstore\n      keccak256(0x00, 0x20)\n      swap1\n      0x05\n      mul\n      add\n        /* \"application_contracts/Multi-Sig Wallet.sol\":1690:1721  transactions[_txIndex].executed */\n      0x03\n      add\n      0x00\n      swap1\n      sload\n      swap1\n      0x0100\n      exp\n      swap1\n      div\n      0xff\n      and\n        /* \"application_contracts/Multi-Sig Wallet.sol\":1689:1721  !transactions[_txIndex].executed */\n      iszero\n        /* \"application_contracts/Multi-Sig Wallet.sol\":1681:1745  require(!transactions[_txIndex].executed, \"tx already executed\") */\n      tag_124\n      jumpi\n      mload(0x40)\n      0x08c379a000000000000000000000000000000000000000000000000000000000\n      dup2\n      mstore\n      0x04\n      add\n      tag_125\n      swap1\n      tag_83\n      jump\t// in\n    tag_125:\n      mload(0x40)\n      dup1\n      swap2\n      sub\n      swap1\n      revert\n    tag_124:\n        /* \"application_contracts/Multi-Sig Wallet.sol\":3109:3117  _txIndex */\n      dup3\n        /* \"application_contracts/Multi-Sig Wallet.sol\":1825:1836  isConfirmed */\n      0x03\n        /* \"application_contracts/Multi-Sig Wallet.sol\":1825:1846  isConfirmed[_txIndex] */\n      0x00\n        /* \"application_contracts/Multi-Sig Wallet.sol\":1837:1845  _txIndex */\n      dup3\n        /* \"application_contracts/Multi-Sig Wallet.sol\":1825:1846  isConfirmed[_txIndex] */\n      dup2\n      mstore\n      0x20\n      add\n      swap1\n      dup2\n      mstore\n      0x20\n      add\n      0x00\n      keccak256\n        /* \"application_contracts/Multi-Sig Wallet.sol\":1825:1858  isConfirmed[_txIndex][msg.sender] */\n      0x00\n        /* \"application_contracts/Multi-Sig Wallet.sol\":1847:1857  msg.sender */\n      caller\n        /* \"application_contracts/Multi-Sig Wallet.sol\":1825:1858  isConfirmed[_txIndex][msg.sender] */\n      0xffffffffffffffffffffffffffffffffffffffff\n      and\n      0xffffffffffffffffffffffffffffffffffffffff\n      and\n      dup2\n      mstore\n      0x20\n      add\n      swap1\n      dup2\n      mstore\n      0x20\n      add\n      0x00\n      keccak256\n      0x00\n      swap1\n      sload\n      swap1\n      0x0100\n      exp\n      swap1\n      div\n      0xff\n      and\n        /* \"application_contracts/Multi-Sig Wallet.sol\":1824:1858  !isConfirmed[_txIndex][msg.sender] */\n      iszero\n        /* \"application_contracts/Multi-Sig Wallet.sol\":1816:1883  require(!isConfirmed[_txIndex][msg.sender], \"tx already confirmed\") */\n      tag_127\n      jumpi\n      mload(0x40)\n      0x08c379a000000000000000000000000000000000000000000000000000000000\n      dup2\n      mstore\n      0x04\n      add\n      tag_128\n      swap1\n      tag_129\n      jump\t// in\n    tag_128:\n      mload(0x40)\n      dup1\n      swap2\n      sub\n      swap1\n      revert\n    tag_127:\n        /* \"application_contracts/Multi-Sig Wallet.sol\":3129:3160  Transaction storage transaction */\n      0x00\n        /* \"application_contracts/Multi-Sig Wallet.sol\":3163:3175  transactions */\n      0x04\n        /* \"application_contracts/Multi-Sig Wallet.sol\":3176:3184  _txIndex */\n      dup6\n        /* \"application_contracts/Multi-Sig Wallet.sol\":3163:3185  transactions[_txIndex] */\n      dup2\n      sload\n      dup2\n      lt\n      tag_131\n      jumpi\n      tag_132\n      tag_79\n      jump\t// in\n    tag_132:\n    tag_131:\n      swap1\n      0x00\n      mstore\n      keccak256(0x00, 0x20)\n      swap1\n      0x05\n      mul\n      add\n        /* \"application_contracts/Multi-Sig Wallet.sol\":3129:3185  Transaction storage transaction = transactions[_txIndex] */\n      swap1\n      pop\n        /* \"application_contracts/Multi-Sig Wallet.sol\":3227:3228  1 */\n      0x01\n        /* \"application_contracts/Multi-Sig Wallet.sol\":3195:3206  transaction */\n      dup2\n        /* \"application_contracts/Multi-Sig Wallet.sol\":3195:3223  transaction.numConfirmations */\n      0x04\n      add\n      0x00\n        /* \"application_contracts/Multi-Sig Wallet.sol\":3195:3228  transaction.numConfirmations += 1 */\n      dup3\n      dup3\n      sload\n      tag_134\n      swap2\n      swap1\n      tag_135\n      jump\t// in\n    tag_134:\n      swap3\n      pop\n      pop\n      dup2\n      swap1\n      sstore\n      pop\n        /* \"application_contracts/Multi-Sig Wallet.sol\":3274:3278  true */\n      0x01\n        /* \"application_contracts/Multi-Sig Wallet.sol\":3238:3249  isConfirmed */\n      0x03\n        /* \"application_contracts/Multi-Sig Wallet.sol\":3238:3259  isConfirmed[_txIndex] */\n      0x00\n        /* \"application_contracts/Multi-Sig Wallet.sol\":3250:3258  _txIndex */\n      dup8\n        /* \"application_contracts/Multi-Sig Wallet.sol\":3238:3259  isConfirmed[_txIndex] */\n      dup2\n      mstore\n      0x20\n      add\n      swap1\n      dup2\n      mstore\n      0x20\n      add\n      0x00\n      keccak256\n        /* \"application_contracts/Multi-Sig Wallet.sol\":3238:3271  isConfirmed[_txIndex][msg.sender] */\n      0x00\n        /* \"application_contracts/Multi-Sig Wallet.sol\":3260:3270  msg.sender */\n      caller\n        /* \"application_contracts/Multi-Sig Wallet.sol\":3238:3271  isConfirmed[_txIndex][msg.sender] */\n      0xffffffffffffffffffffffffffffffffffffffff\n      and\n      0xffffffffffffffffffffffffffffffffffffffff\n      and\n      dup2\n      mstore\n      0x20\n      add\n      swap1\n      dup2\n      mstore\n      0x20\n      add\n      0x00\n      keccak256\n      0x00\n        /* \"application_contracts/Multi-Sig Wallet.sol\":3238:3278  isConfirmed[_txIndex][msg.sender] = true */\n      0x0100\n      exp\n      dup2\n      sload\n      dup2\n      0xff\n      mul\n      not\n      and\n      swap1\n      dup4\n      iszero\n      iszero\n      mul\n      or\n      swap1\n      sstore\n      pop\n        /* \"application_contracts/Multi-Sig Wallet.sol\":3324:3332  _txIndex */\n      dup5\n        /* \"application_contracts/Multi-Sig Wallet.sol\":3312:3322  msg.sender */\n      caller\n        /* \"application_contracts/Multi-Sig Wallet.sol\":3293:3333  ConfirmTransaction(msg.sender, _txIndex) */\n      0xffffffffffffffffffffffffffffffffffffffff\n      and\n      0x5cbe105e36805f7820e291f799d5794ff948af2a5f664e580382defb63390041\n      mload(0x40)\n      mload(0x40)\n      dup1\n      swap2\n      sub\n      swap1\n      log3\n        /* \"application_contracts/Multi-Sig Wallet.sol\":3119:3340  {... */\n      pop\n        /* \"application_contracts/Multi-Sig Wallet.sol\":1755:1756  _ */\n      pop\n        /* \"application_contracts/Multi-Sig Wallet.sol\":1621:1622  _ */\n      pop\n        /* \"application_contracts/Multi-Sig Wallet.sol\":1495:1496  _ */\n      pop\n        /* \"application_contracts/Multi-Sig Wallet.sol\":2995:3340  function confirmTransaction(uint _txIndex) public onlyOwner txExists(_txIndex) notExecuted(_txIndex) notConfirmed(_txIndex) {... */\n      pop\n      jump\t// out\n        /* \"application_contracts/Multi-Sig Wallet.sol\":2534:2990  function submitTransaction(address _to, uint _value, bytes memory _data) public onlyOwner {... */\n    tag_59:\n        /* \"application_contracts/Multi-Sig Wallet.sol\":1452:1459  isOwner */\n      0x01\n        /* \"application_contracts/Multi-Sig Wallet.sol\":1452:1471  isOwner[msg.sender] */\n      0x00\n        /* \"application_contracts/Multi-Sig Wallet.sol\":1460:1470  msg.sender */\n      caller\n        /* \"application_contracts/Multi-Sig Wallet.sol\":1452:1471  isOwner[msg.sender] */\n      0xffffffffffffffffffffffffffffffffffffffff\n      and\n      0xffffffffffffffffffffffffffffffffffffffff\n      and\n      dup2\n      mstore\n      0x20\n      add\n      swap1\n      dup2\n      mstore\n      0x20\n      add\n      0x00\n      keccak256\n      0x00\n      swap1\n      sload\n      swap1\n      0x0100\n      exp\n      swap1\n      div\n      0xff\n      and\n        /* \"application_contracts/Multi-Sig Wallet.sol\":1444:1485  require(isOwner[msg.sender], \"not owner\") */\n      tag_137\n      jumpi\n      mload(0x40)\n      0x08c379a000000000000000000000000000000000000000000000000000000000\n      dup2\n      mstore\n      0x04\n      add\n      tag_138\n      swap1\n      tag_71\n      jump\t// in\n    tag_138:\n      mload(0x40)\n      dup1\n      swap2\n      sub\n      swap1\n      revert\n    tag_137:\n        /* \"application_contracts/Multi-Sig Wallet.sol\":2634:2646  uint txIndex */\n      0x00\n        /* \"application_contracts/Multi-Sig Wallet.sol\":2649:2661  transactions */\n      0x04\n        /* \"application_contracts/Multi-Sig Wallet.sol\":2649:2668  transactions.length */\n      dup1\n      sload\n      swap1\n      pop\n        /* \"application_contracts/Multi-Sig Wallet.sol\":2634:2668  uint txIndex = transactions.length */\n      swap1\n      pop\n        /* \"application_contracts/Multi-Sig Wallet.sol\":2678:2708  Transaction memory transaction */\n      0x00\n        /* \"application_contracts/Multi-Sig Wallet.sol\":2711:2870  Transaction ({... */\n      mload(0x40)\n      dup1\n      0xa0\n      add\n      0x40\n      mstore\n      dup1\n        /* \"application_contracts/Multi-Sig Wallet.sol\":2742:2745  _to */\n      dup7\n        /* \"application_contracts/Multi-Sig Wallet.sol\":2711:2870  Transaction ({... */\n      0xffffffffffffffffffffffffffffffffffffffff\n      and\n      dup2\n      mstore\n      0x20\n      add\n        /* \"application_contracts/Multi-Sig Wallet.sol\":2766:2772  _value */\n      dup6\n        /* \"application_contracts/Multi-Sig Wallet.sol\":2711:2870  Transaction ({... */\n      dup2\n      mstore\n      0x20\n      add\n        /* \"application_contracts/Multi-Sig Wallet.sol\":2792:2797  _data */\n      dup5\n        /* \"application_contracts/Multi-Sig Wallet.sol\":2711:2870  Transaction ({... */\n      dup2\n      mstore\n      0x20\n      add\n        /* \"application_contracts/Multi-Sig Wallet.sol\":2821:2826  false */\n      0x00\n        /* \"application_contracts/Multi-Sig Wallet.sol\":2711:2870  Transaction ({... */\n      iszero\n      iszero\n      dup2\n      mstore\n      0x20\n      add\n        /* \"application_contracts/Multi-Sig Wallet.sol\":2858:2859  0 */\n      0x00\n        /* \"application_contracts/Multi-Sig Wallet.sol\":2711:2870  Transaction ({... */\n      dup2\n      mstore\n      pop\n        /* \"application_contracts/Multi-Sig Wallet.sol\":2678:2870  Transaction memory transaction = Transaction ({... */\n      swap1\n      pop\n        /* \"application_contracts/Multi-Sig Wallet.sol\":2880:2892  transactions */\n      0x04\n        /* \"application_contracts/Multi-Sig Wallet.sol\":2898:2909  transaction */\n      dup2\n        /* \"application_contracts/Multi-Sig Wallet.sol\":2880:2910  transactions.push(transaction) */\n      swap1\n      dup1\n      0x01\n      dup2\n      sload\n      add\n      dup1\n      dup3\n      sstore\n      dup1\n      swap2\n      pop\n      pop\n      0x01\n      swap1\n      sub\n      swap1\n      0x00\n      mstore\n      keccak256(0x00, 0x20)\n      swap1\n      0x05\n      mul\n      add\n      0x00\n      swap1\n      swap2\n      swap1\n      swap2\n      swap1\n      swap2\n      pop\n      0x00\n      dup3\n      add\n      mload\n      dup2\n      0x00\n      add\n      exp(0x0100, 0x00)\n      dup2\n      sload\n      dup2\n      0xffffffffffffffffffffffffffffffffffffffff\n      mul\n      not\n      and\n      swap1\n      dup4\n      0xffffffffffffffffffffffffffffffffffffffff\n      and\n      mul\n      or\n      swap1\n      sstore\n      pop\n      0x20\n      dup3\n      add\n      mload\n      dup2\n      0x01\n      add\n      sstore\n      0x40\n      dup3\n      add\n      mload\n      dup2\n      0x02\n      add\n      swap1\n      dup2\n      tag_141\n      swap2\n      swap1\n      tag_142\n      jump\t// in\n    tag_141:\n      pop\n      0x60\n      dup3\n      add\n      mload\n      dup2\n      0x03\n      add\n      exp(0x0100, 0x00)\n      dup2\n      sload\n      dup2\n      0xff\n      mul\n      not\n      and\n      swap1\n      dup4\n      iszero\n      iszero\n      mul\n      or\n      swap1\n      sstore\n      pop\n      0x80\n      dup3\n      add\n      mload\n      dup2\n      0x04\n      add\n      sstore\n      pop\n      pop\n        /* \"application_contracts/Multi-Sig Wallet.sol\":2964:2967  _to */\n      dup5\n        /* \"application_contracts/Multi-Sig Wallet.sol\":2925:2983  SubmitTransaction(msg.sender, txIndex, _to, _value, _data) */\n      0xffffffffffffffffffffffffffffffffffffffff\n      and\n        /* \"application_contracts/Multi-Sig Wallet.sol\":2955:2962  txIndex */\n      dup3\n        /* \"application_contracts/Multi-Sig Wallet.sol\":2943:2953  msg.sender */\n      caller\n        /* \"application_contracts/Multi-Sig Wallet.sol\":2925:2983  SubmitTransaction(msg.sender, txIndex, _to, _value, _data) */\n      0xffffffffffffffffffffffffffffffffffffffff\n      and\n      0xd5a05bf70715ad82a09a756320284a1b54c9ff74cd0f8cce6219e79b563fe59d\n        /* \"application_contracts/Multi-Sig Wallet.sol\":2969:2975  _value */\n      dup8\n        /* \"application_contracts/Multi-Sig Wallet.sol\":2977:2982  _data */\n      dup8\n        /* \"application_contracts/Multi-Sig Wallet.sol\":2925:2983  SubmitTransaction(msg.sender, txIndex, _to, _value, _data) */\n      mload(0x40)\n      tag_143\n      swap3\n      swap2\n      swap1\n      tag_144\n      jump\t// in\n    tag_143:\n      mload(0x40)\n      dup1\n      swap2\n      sub\n      swap1\n      log4\n        /* \"application_contracts/Multi-Sig Wallet.sol\":2624:2990  {... */\n      pop\n      pop\n        /* \"application_contracts/Multi-Sig Wallet.sol\":2534:2990  function submitTransaction(address _to, uint _value, bytes memory _data) public onlyOwner {... */\n      pop\n      pop\n      pop\n      jump\t// out\n        /* \"application_contracts/Multi-Sig Wallet.sol\":1120:1156  uint public numConfirmationsRequired */\n    tag_61:\n      sload(0x02)\n      dup2\n      jump\t// out\n        /* \"application_contracts/Multi-Sig Wallet.sol\":3345:3860  function executeTransaction(uint _txIndex) public onlyOwner txExists(_txIndex) notExecuted(_txIndex) {... */\n    tag_65:\n        /* \"application_contracts/Multi-Sig Wallet.sol\":1452:1459  isOwner */\n      0x01\n        /* \"application_contracts/Multi-Sig Wallet.sol\":1452:1471  isOwner[msg.sender] */\n      0x00\n        /* \"application_contracts/Multi-Sig Wallet.sol\":1460:1470  msg.sender */\n      caller\n        /* \"application_contracts/Multi-Sig Wallet.sol\":1452:1471  isOwner[msg.sender] */\n      0xffffffffffffffffffffffffffffffffffffffff\n      and\n      0xffffffffffffffffffffffffffffffffffffffff\n      and\n      dup2\n      mstore\n      0x20\n      add\n      swap1\n      dup2\n      mstore\n      0x20\n      add\n      0x00\n      keccak256\n      0x00\n      swap1\n      sload\n      swap1\n      0x0100\n      exp\n      swap1\n      div\n      0xff\n      and\n        /* \"application_contracts/Multi-Sig Wallet.sol\":1444:1485  require(isOwner[msg.sender], \"not owner\") */\n      tag_146\n      jumpi\n      mload(0x40)\n      0x08c379a000000000000000000000000000000000000000000000000000000000\n      dup2\n      mstore\n      0x04\n      add\n      tag_147\n      swap1\n      tag_71\n      jump\t// in\n    tag_147:\n      mload(0x40)\n      dup1\n      swap2\n      sub\n      swap1\n      revert\n    tag_146:\n        /* \"application_contracts/Multi-Sig Wallet.sol\":3414:3422  _txIndex */\n      dup1\n        /* \"application_contracts/Multi-Sig Wallet.sol\":1570:1582  transactions */\n      0x04\n        /* \"application_contracts/Multi-Sig Wallet.sol\":1570:1589  transactions.length */\n      dup1\n      sload\n      swap1\n      pop\n        /* \"application_contracts/Multi-Sig Wallet.sol\":1559:1567  _txIndex */\n      dup2\n        /* \"application_contracts/Multi-Sig Wallet.sol\":1559:1589  _txIndex < transactions.length */\n      lt\n        /* \"application_contracts/Multi-Sig Wallet.sol\":1551:1611  require(_txIndex < transactions.length, \"tx does not exist\") */\n      tag_149\n      jumpi\n      mload(0x40)\n      0x08c379a000000000000000000000000000000000000000000000000000000000\n      dup2\n      mstore\n      0x04\n      add\n      tag_150\n      swap1\n      tag_75\n      jump\t// in\n    tag_150:\n      mload(0x40)\n      dup1\n      swap2\n      sub\n      swap1\n      revert\n    tag_149:\n        /* \"application_contracts/Multi-Sig Wallet.sol\":3436:3444  _txIndex */\n      dup2\n        /* \"application_contracts/Multi-Sig Wallet.sol\":1690:1702  transactions */\n      0x04\n        /* \"application_contracts/Multi-Sig Wallet.sol\":1703:1711  _txIndex */\n      dup2\n        /* \"application_contracts/Multi-Sig Wallet.sol\":1690:1712  transactions[_txIndex] */\n      dup2\n      sload\n      dup2\n      lt\n      tag_152\n      jumpi\n      tag_153\n      tag_79\n      jump\t// in\n    tag_153:\n    tag_152:\n      swap1\n      0x00\n      mstore\n      keccak256(0x00, 0x20)\n      swap1\n      0x05\n      mul\n      add\n        /* \"application_contracts/Multi-Sig Wallet.sol\":1690:1721  transactions[_txIndex].executed */\n      0x03\n      add\n      0x00\n      swap1\n      sload\n      swap1\n      0x0100\n      exp\n      swap1\n      div\n      0xff\n      and\n        /* \"application_contracts/Multi-Sig Wallet.sol\":1689:1721  !transactions[_txIndex].executed */\n      iszero\n        /* \"application_contracts/Multi-Sig Wallet.sol\":1681:1745  require(!transactions[_txIndex].executed, \"tx already executed\") */\n      tag_155\n      jumpi\n      mload(0x40)\n      0x08c379a000000000000000000000000000000000000000000000000000000000\n      dup2\n      mstore\n      0x04\n      add\n      tag_156\n      swap1\n      tag_83\n      jump\t// in\n    tag_156:\n      mload(0x40)\n      dup1\n      swap2\n      sub\n      swap1\n      revert\n    tag_155:\n        /* \"application_contracts/Multi-Sig Wallet.sol\":3456:3487  Transaction storage transaction */\n      0x00\n        /* \"application_contracts/Multi-Sig Wallet.sol\":3490:3502  transactions */\n      0x04\n        /* \"application_contracts/Multi-Sig Wallet.sol\":3503:3511  _txIndex */\n      dup5\n        /* \"application_contracts/Multi-Sig Wallet.sol\":3490:3512  transactions[_txIndex] */\n      dup2\n      sload\n      dup2\n      lt\n      tag_158\n      jumpi\n      tag_159\n      tag_79\n      jump\t// in\n    tag_159:\n    tag_158:\n      swap1\n      0x00\n      mstore\n      keccak256(0x00, 0x20)\n      swap1\n      0x05\n      mul\n      add\n        /* \"application_contracts/Multi-Sig Wallet.sol\":3456:3512  Transaction storage transaction = transactions[_txIndex] */\n      swap1\n      pop\n        /* \"application_contracts/Multi-Sig Wallet.sol\":3562:3586  numConfirmationsRequired */\n      sload(0x02)\n        /* \"application_contracts/Multi-Sig Wallet.sol\":3530:3541  transaction */\n      dup2\n        /* \"application_contracts/Multi-Sig Wallet.sol\":3530:3558  transaction.numConfirmations */\n      0x04\n      add\n      sload\n        /* \"application_contracts/Multi-Sig Wallet.sol\":3530:3586  transaction.numConfirmations >= numConfirmationsRequired */\n      lt\n      iszero\n        /* \"application_contracts/Multi-Sig Wallet.sol\":3522:3608  require(transaction.numConfirmations >= numConfirmationsRequired, \"cannot execute tx\") */\n      tag_161\n      jumpi\n      mload(0x40)\n      0x08c379a000000000000000000000000000000000000000000000000000000000\n      dup2\n      mstore\n      0x04\n      add\n      tag_162\n      swap1\n      tag_163\n      jump\t// in\n    tag_162:\n      mload(0x40)\n      dup1\n      swap2\n      sub\n      swap1\n      revert\n    tag_161:\n        /* \"application_contracts/Multi-Sig Wallet.sol\":3641:3645  true */\n      0x01\n        /* \"application_contracts/Multi-Sig Wallet.sol\":3618:3629  transaction */\n      dup2\n        /* \"application_contracts/Multi-Sig Wallet.sol\":3618:3638  transaction.executed */\n      0x03\n      add\n      0x00\n        /* \"application_contracts/Multi-Sig Wallet.sol\":3618:3645  transaction.executed = true */\n      0x0100\n      exp\n      dup2\n      sload\n      dup2\n      0xff\n      mul\n      not\n      and\n      swap1\n      dup4\n      iszero\n      iszero\n      mul\n      or\n      swap1\n      sstore\n      pop\n        /* \"application_contracts/Multi-Sig Wallet.sol\":3656:3668  bool success */\n      0x00\n        /* \"application_contracts/Multi-Sig Wallet.sol\":3674:3685  transaction */\n      dup2\n        /* \"application_contracts/Multi-Sig Wallet.sol\":3674:3688  transaction.to */\n      0x00\n      add\n      0x00\n      swap1\n      sload\n      swap1\n      0x0100\n      exp\n      swap1\n      div\n      0xffffffffffffffffffffffffffffffffffffffff\n      and\n        /* \"application_contracts/Multi-Sig Wallet.sol\":3674:3693  transaction.to.call */\n      0xffffffffffffffffffffffffffffffffffffffff\n      and\n        /* \"application_contracts/Multi-Sig Wallet.sol\":3701:3712  transaction */\n      dup3\n        /* \"application_contracts/Multi-Sig Wallet.sol\":3701:3718  transaction.value */\n      0x01\n      add\n      sload\n        /* \"application_contracts/Multi-Sig Wallet.sol\":3733:3744  transaction */\n      dup4\n        /* \"application_contracts/Multi-Sig Wallet.sol\":3733:3749  transaction.data */\n      0x02\n      add\n        /* \"application_contracts/Multi-Sig Wallet.sol\":3674:3759  transaction.to.call{value: transaction.value}(... */\n      mload(0x40)\n      tag_164\n      swap2\n      swap1\n      tag_165\n      jump\t// in\n    tag_164:\n      0x00\n      mload(0x40)\n      dup1\n      dup4\n      sub\n      dup2\n      dup6\n      dup8\n      gas\n      call\n      swap3\n      pop\n      pop\n      pop\n      returndatasize\n      dup1\n      0x00\n      dup2\n      eq\n      tag_168\n      jumpi\n      mload(0x40)\n      swap2\n      pop\n      and(add(returndatasize, 0x3f), not(0x1f))\n      dup3\n      add\n      0x40\n      mstore\n      returndatasize\n      dup3\n      mstore\n      returndatasize\n      0x00\n      0x20\n      dup5\n      add\n      returndatacopy\n      jump(tag_167)\n    tag_168:\n      0x60\n      swap2\n      pop\n    tag_167:\n      pop\n        /* \"application_contracts/Multi-Sig Wallet.sol\":3655:3759  (bool success, ) = transaction.to.call{value: transaction.value}(... */\n      pop\n      swap1\n      pop\n        /* \"application_contracts/Multi-Sig Wallet.sol\":3777:3784  success */\n      dup1\n        /* \"application_contracts/Multi-Sig Wallet.sol\":3769:3798  require(success, \"tx failed\") */\n      tag_169\n      jumpi\n      mload(0x40)\n      0x08c379a000000000000000000000000000000000000000000000000000000000\n      dup2\n      mstore\n      0x04\n      add\n      tag_170\n      swap1\n      tag_171\n      jump\t// in\n    tag_170:\n      mload(0x40)\n      dup1\n      swap2\n      sub\n      swap1\n      revert\n    tag_169:\n        /* \"application_contracts/Multi-Sig Wallet.sol\":3844:3852  _txIndex */\n      dup5\n        /* \"application_contracts/Multi-Sig Wallet.sol\":3832:3842  msg.sender */\n      caller\n        /* \"application_contracts/Multi-Sig Wallet.sol\":3813:3853  ExecuteTransaction(msg.sender, _txIndex) */\n      0xffffffffffffffffffffffffffffffffffffffff\n      and\n      0x5445f318f4f5fcfb66592e68e0cc5822aa15664039bd5f0ffde24c5a8142b1ac\n      mload(0x40)\n      mload(0x40)\n      dup1\n      swap2\n      sub\n      swap1\n      log3\n        /* \"application_contracts/Multi-Sig Wallet.sol\":3446:3860  {... */\n      pop\n      pop\n        /* \"application_contracts/Multi-Sig Wallet.sol\":1621:1622  _ */\n      pop\n        /* \"application_contracts/Multi-Sig Wallet.sol\":1495:1496  _ */\n      pop\n        /* \"application_contracts/Multi-Sig Wallet.sol\":3345:3860  function executeTransaction(uint _txIndex) public onlyOwner txExists(_txIndex) notExecuted(_txIndex) {... */\n      pop\n      jump\t// out\n        /* \"#utility.yul\":7:82   */\n    tag_172:\n        /* \"#utility.yul\":40:46   */\n      0x00\n        /* \"#utility.yul\":73:75   */\n      0x40\n        /* \"#utility.yul\":67:76   */\n      mload\n        /* \"#utility.yul\":57:76   */\n      swap1\n      pop\n        /* \"#utility.yul\":7:82   */\n      swap1\n      jump\t// out\n        /* \"#utility.yul\":88:205   */\n    tag_173:\n        /* \"#utility.yul\":197:198   */\n      0x00\n        /* \"#utility.yul\":194:195   */\n      0x00\n        /* \"#utility.yul\":187:199   */\n      revert\n        /* \"#utility.yul\":211:328   */\n    tag_174:\n        /* \"#utility.yul\":320:321   */\n      0x00\n        /* \"#utility.yul\":317:318   */\n      0x00\n        /* \"#utility.yul\":310:322   */\n      revert\n        /* \"#utility.yul\":334:411   */\n    tag_175:\n        /* \"#utility.yul\":371:378   */\n      0x00\n        /* \"#utility.yul\":400:405   */\n      dup2\n        /* \"#utility.yul\":389:405   */\n      swap1\n      pop\n        /* \"#utility.yul\":334:411   */\n      swap2\n      swap1\n      pop\n      jump\t// out\n        /* \"#utility.yul\":417:539   */\n    tag_176:\n        /* \"#utility.yul\":490:514   */\n      tag_247\n        /* \"#utility.yul\":508:513   */\n      dup2\n        /* \"#utility.yul\":490:514   */\n      tag_175\n      jump\t// in\n    tag_247:\n        /* \"#utility.yul\":483:488   */\n      dup2\n        /* \"#utility.yul\":480:515   */\n      eq\n        /* \"#utility.yul\":470:533   */\n      tag_248\n      jumpi\n        /* \"#utility.yul\":529:530   */\n      0x00\n        /* \"#utility.yul\":526:527   */\n      0x00\n        /* \"#utility.yul\":519:531   */\n      revert\n        /* \"#utility.yul\":470:533   */\n    tag_248:\n        /* \"#utility.yul\":417:539   */\n      pop\n      jump\t// out\n        /* \"#utility.yul\":545:684   */\n    tag_177:\n        /* \"#utility.yul\":591:596   */\n      0x00\n        /* \"#utility.yul\":629:635   */\n      dup2\n        /* \"#utility.yul\":616:636   */\n      calldataload\n        /* \"#utility.yul\":607:636   */\n      swap1\n      pop\n        /* \"#utility.yul\":645:678   */\n      tag_250\n        /* \"#utility.yul\":672:677   */\n      dup2\n        /* \"#utility.yul\":645:678   */\n      tag_176\n      jump\t// in\n    tag_250:\n        /* \"#utility.yul\":545:684   */\n      swap3\n      swap2\n      pop\n      pop\n      jump\t// out\n        /* \"#utility.yul\":690:1019   */\n    tag_18:\n        /* \"#utility.yul\":749:755   */\n      0x00\n        /* \"#utility.yul\":798:800   */\n      0x20\n        /* \"#utility.yul\":786:795   */\n      dup3\n        /* \"#utility.yul\":777:784   */\n      dup5\n        /* \"#utility.yul\":773:796   */\n      sub\n        /* \"#utility.yul\":769:801   */\n      slt\n        /* \"#utility.yul\":766:885   */\n      iszero\n      tag_252\n      jumpi\n        /* \"#utility.yul\":804:883   */\n      tag_253\n      tag_173\n      jump\t// in\n    tag_253:\n        /* \"#utility.yul\":766:885   */\n    tag_252:\n        /* \"#utility.yul\":924:925   */\n      0x00\n        /* \"#utility.yul\":949:1002   */\n      tag_254\n        /* \"#utility.yul\":994:1001   */\n      dup5\n        /* \"#utility.yul\":985:991   */\n      dup3\n        /* \"#utility.yul\":974:983   */\n      dup6\n        /* \"#utility.yul\":970:992   */\n      add\n        /* \"#utility.yul\":949:1002   */\n      tag_177\n      jump\t// in\n    tag_254:\n        /* \"#utility.yul\":939:1002   */\n      swap2\n      pop\n        /* \"#utility.yul\":895:1012   */\n      pop\n        /* \"#utility.yul\":690:1019   */\n      swap3\n      swap2\n      pop\n      pop\n      jump\t// out\n        /* \"#utility.yul\":1025:1151   */\n    tag_178:\n        /* \"#utility.yul\":1062:1069   */\n      0x00\n        /* \"#utility.yul\":1102:1144   */\n      0xffffffffffffffffffffffffffffffffffffffff\n        /* \"#utility.yul\":1095:1100   */\n      dup3\n        /* \"#utility.yul\":1091:1145   */\n      and\n        /* \"#utility.yul\":1080:1145   */\n      swap1\n      pop\n        /* \"#utility.yul\":1025:1151   */\n      swap2\n      swap1\n      pop\n      jump\t// out\n        /* \"#utility.yul\":1157:1253   */\n    tag_179:\n        /* \"#utility.yul\":1194:1201   */\n      0x00\n        /* \"#utility.yul\":1223:1247   */\n      tag_257\n        /* \"#utility.yul\":1241:1246   */\n      dup3\n        /* \"#utility.yul\":1223:1247   */\n      tag_178\n      jump\t// in\n    tag_257:\n        /* \"#utility.yul\":1212:1247   */\n      swap1\n      pop\n        /* \"#utility.yul\":1157:1253   */\n      swap2\n      swap1\n      pop\n      jump\t// out\n        /* \"#utility.yul\":1259:1377   */\n    tag_180:\n        /* \"#utility.yul\":1346:1370   */\n      tag_259\n        /* \"#utility.yul\":1364:1369   */\n      dup2\n        /* \"#utility.yul\":1346:1370   */\n      tag_179\n      jump\t// in\n    tag_259:\n        /* \"#utility.yul\":1341:1344   */\n      dup3\n        /* \"#utility.yul\":1334:1371   */\n      mstore\n        /* \"#utility.yul\":1259:1377   */\n      pop\n      pop\n      jump\t// out\n        /* \"#utility.yul\":1383:1605   */\n    tag_21:\n        /* \"#utility.yul\":1476:1480   */\n      0x00\n        /* \"#utility.yul\":1514:1516   */\n      0x20\n        /* \"#utility.yul\":1503:1512   */\n      dup3\n        /* \"#utility.yul\":1499:1517   */\n      add\n        /* \"#utility.yul\":1491:1517   */\n      swap1\n      pop\n        /* \"#utility.yul\":1527:1598   */\n      tag_261\n        /* \"#utility.yul\":1595:1596   */\n      0x00\n        /* \"#utility.yul\":1584:1593   */\n      dup4\n        /* \"#utility.yul\":1580:1597   */\n      add\n        /* \"#utility.yul\":1571:1577   */\n      dup5\n        /* \"#utility.yul\":1527:1598   */\n      tag_180\n      jump\t// in\n    tag_261:\n        /* \"#utility.yul\":1383:1605   */\n      swap3\n      swap2\n      pop\n      pop\n      jump\t// out\n        /* \"#utility.yul\":1611:1729   */\n    tag_181:\n        /* \"#utility.yul\":1698:1722   */\n      tag_263\n        /* \"#utility.yul\":1716:1721   */\n      dup2\n        /* \"#utility.yul\":1698:1722   */\n      tag_175\n      jump\t// in\n    tag_263:\n        /* \"#utility.yul\":1693:1696   */\n      dup3\n        /* \"#utility.yul\":1686:1723   */\n      mstore\n        /* \"#utility.yul\":1611:1729   */\n      pop\n      pop\n      jump\t// out\n        /* \"#utility.yul\":1735:1957   */\n    tag_28:\n        /* \"#utility.yul\":1828:1832   */\n      0x00\n        /* \"#utility.yul\":1866:1868   */\n      0x20\n        /* \"#utility.yul\":1855:1864   */\n      dup3\n        /* \"#utility.yul\":1851:1869   */\n      add\n        /* \"#utility.yul\":1843:1869   */\n      swap1\n      pop\n        /* \"#utility.yul\":1879:1950   */\n      tag_265\n        /* \"#utility.yul\":1947:1948   */\n      0x00\n        /* \"#utility.yul\":1936:1945   */\n      dup4\n        /* \"#utility.yul\":1932:1949   */\n      add\n        /* \"#utility.yul\":1923:1929   */\n      dup5\n        /* \"#utility.yul\":1879:1950   */\n      tag_181\n      jump\t// in\n    tag_265:\n        /* \"#utility.yul\":1735:1957   */\n      swap3\n      swap2\n      pop\n      pop\n      jump\t// out\n        /* \"#utility.yul\":1963:2085   */\n    tag_182:\n        /* \"#utility.yul\":2036:2060   */\n      tag_267\n        /* \"#utility.yul\":2054:2059   */\n      dup2\n        /* \"#utility.yul\":2036:2060   */\n      tag_179\n      jump\t// in\n    tag_267:\n        /* \"#utility.yul\":2029:2034   */\n      dup2\n        /* \"#utility.yul\":2026:2061   */\n      eq\n        /* \"#utility.yul\":2016:2079   */\n      tag_268\n      jumpi\n        /* \"#utility.yul\":2075:2076   */\n      0x00\n        /* \"#utility.yul\":2072:2073   */\n      0x00\n        /* \"#utility.yul\":2065:2077   */\n      revert\n        /* \"#utility.yul\":2016:2079   */\n    tag_268:\n        /* \"#utility.yul\":1963:2085   */\n      pop\n      jump\t// out\n        /* \"#utility.yul\":2091:2230   */\n    tag_183:\n        /* \"#utility.yul\":2137:2142   */\n      0x00\n        /* \"#utility.yul\":2175:2181   */\n      dup2\n        /* \"#utility.yul\":2162:2182   */\n      calldataload\n        /* \"#utility.yul\":2153:2182   */\n      swap1\n      pop\n        /* \"#utility.yul\":2191:2224   */\n      tag_270\n        /* \"#utility.yul\":2218:2223   */\n      dup2\n        /* \"#utility.yul\":2191:2224   */\n      tag_182\n      jump\t// in\n    tag_270:\n        /* \"#utility.yul\":2091:2230   */\n      swap3\n      swap2\n      pop\n      pop\n      jump\t// out\n        /* \"#utility.yul\":2236:2565   */\n    tag_31:\n        /* \"#utility.yul\":2295:2301   */\n      0x00\n        /* \"#utility.yul\":2344:2346   */\n      0x20\n        /* \"#utility.yul\":2332:2341   */\n      dup3\n        /* \"#utility.yul\":2323:2330   */\n      dup5\n        /* \"#utility.yul\":2319:2342   */\n      sub\n        /* \"#utility.yul\":2315:2347   */\n      slt\n        /* \"#utility.yul\":2312:2431   */\n      iszero\n      tag_272\n      jumpi\n        /* \"#utility.yul\":2350:2429   */\n      tag_273\n      tag_173\n      jump\t// in\n    tag_273:\n        /* \"#utility.yul\":2312:2431   */\n    tag_272:\n        /* \"#utility.yul\":2470:2471   */\n      0x00\n        /* \"#utility.yul\":2495:2548   */\n      tag_274\n        /* \"#utility.yul\":2540:2547   */\n      dup5\n        /* \"#utility.yul\":2531:2537   */\n      dup3\n        /* \"#utility.yul\":2520:2529   */\n      dup6\n        /* \"#utility.yul\":2516:2538   */\n      add\n        /* \"#utility.yul\":2495:2548   */\n      tag_183\n      jump\t// in\n    tag_274:\n        /* \"#utility.yul\":2485:2548   */\n      swap2\n      pop\n        /* \"#utility.yul\":2441:2558   */\n      pop\n        /* \"#utility.yul\":2236:2565   */\n      swap3\n      swap2\n      pop\n      pop\n      jump\t// out\n        /* \"#utility.yul\":2571:2661   */\n    tag_184:\n        /* \"#utility.yul\":2605:2612   */\n      0x00\n        /* \"#utility.yul\":2648:2653   */\n      dup2\n        /* \"#utility.yul\":2641:2654   */\n      iszero\n        /* \"#utility.yul\":2634:2655   */\n      iszero\n        /* \"#utility.yul\":2623:2655   */\n      swap1\n      pop\n        /* \"#utility.yul\":2571:2661   */\n      swap2\n      swap1\n      pop\n      jump\t// out\n        /* \"#utility.yul\":2667:2776   */\n    tag_185:\n        /* \"#utility.yul\":2748:2769   */\n      tag_277\n        /* \"#utility.yul\":2763:2768   */\n      dup2\n        /* \"#utility.yul\":2748:2769   */\n      tag_184\n      jump\t// in\n    tag_277:\n        /* \"#utility.yul\":2743:2746   */\n      dup3\n        /* \"#utility.yul\":2736:2770   */\n      mstore\n        /* \"#utility.yul\":2667:2776   */\n      pop\n      pop\n      jump\t// out\n        /* \"#utility.yul\":2782:2992   */\n    tag_34:\n        /* \"#utility.yul\":2869:2873   */\n      0x00\n        /* \"#utility.yul\":2907:2909   */\n      0x20\n        /* \"#utility.yul\":2896:2905   */\n      dup3\n        /* \"#utility.yul\":2892:2910   */\n      add\n        /* \"#utility.yul\":2884:2910   */\n      swap1\n      pop\n        /* \"#utility.yul\":2920:2985   */\n      tag_279\n        /* \"#utility.yul\":2982:2983   */\n      0x00\n        /* \"#utility.yul\":2971:2980   */\n      dup4\n        /* \"#utility.yul\":2967:2984   */\n      add\n        /* \"#utility.yul\":2958:2964   */\n      dup5\n        /* \"#utility.yul\":2920:2985   */\n      tag_185\n      jump\t// in\n    tag_279:\n        /* \"#utility.yul\":2782:2992   */\n      swap3\n      swap2\n      pop\n      pop\n      jump\t// out\n        /* \"#utility.yul\":2998:3096   */\n    tag_186:\n        /* \"#utility.yul\":3049:3055   */\n      0x00\n        /* \"#utility.yul\":3083:3088   */\n      dup2\n        /* \"#utility.yul\":3077:3089   */\n      mload\n        /* \"#utility.yul\":3067:3089   */\n      swap1\n      pop\n        /* \"#utility.yul\":2998:3096   */\n      swap2\n      swap1\n      pop\n      jump\t// out\n        /* \"#utility.yul\":3102:3270   */\n    tag_187:\n        /* \"#utility.yul\":3185:3196   */\n      0x00\n        /* \"#utility.yul\":3219:3225   */\n      dup3\n        /* \"#utility.yul\":3214:3217   */\n      dup3\n        /* \"#utility.yul\":3207:3226   */\n      mstore\n        /* \"#utility.yul\":3259:3263   */\n      0x20\n        /* \"#utility.yul\":3254:3257   */\n      dup3\n        /* \"#utility.yul\":3250:3264   */\n      add\n        /* \"#utility.yul\":3235:3264   */\n      swap1\n      pop\n        /* \"#utility.yul\":3102:3270   */\n      swap3\n      swap2\n      pop\n      pop\n      jump\t// out\n        /* \"#utility.yul\":3276:3415   */\n    tag_188:\n        /* \"#utility.yul\":3365:3371   */\n      dup3\n        /* \"#utility.yul\":3360:3363   */\n      dup2\n        /* \"#utility.yul\":3355:3358   */\n      dup4\n        /* \"#utility.yul\":3349:3372   */\n      mcopy\n        /* \"#utility.yul\":3406:3407   */\n      0x00\n        /* \"#utility.yul\":3397:3403   */\n      dup4\n        /* \"#utility.yul\":3392:3395   */\n      dup4\n        /* \"#utility.yul\":3388:3404   */\n      add\n        /* \"#utility.yul\":3381:3408   */\n      mstore\n        /* \"#utility.yul\":3276:3415   */\n      pop\n      pop\n      pop\n      jump\t// out\n        /* \"#utility.yul\":3421:3523   */\n    tag_189:\n        /* \"#utility.yul\":3462:3468   */\n      0x00\n        /* \"#utility.yul\":3513:3515   */\n      0x1f\n        /* \"#utility.yul\":3509:3516   */\n      not\n        /* \"#utility.yul\":3504:3506   */\n      0x1f\n        /* \"#utility.yul\":3497:3502   */\n      dup4\n        /* \"#utility.yul\":3493:3507   */\n      add\n        /* \"#utility.yul\":3489:3517   */\n      and\n        /* \"#utility.yul\":3479:3517   */\n      swap1\n      pop\n        /* \"#utility.yul\":3421:3523   */\n      swap2\n      swap1\n      pop\n      jump\t// out\n        /* \"#utility.yul\":3529:3902   */\n    tag_190:\n        /* \"#utility.yul\":3615:3618   */\n      0x00\n        /* \"#utility.yul\":3643:3681   */\n      tag_285\n        /* \"#utility.yul\":3675:3680   */\n      dup3\n        /* \"#utility.yul\":3643:3681   */\n      tag_186\n      jump\t// in\n    tag_285:\n        /* \"#utility.yul\":3697:3767   */\n      tag_286\n        /* \"#utility.yul\":3760:3766   */\n      dup2\n        /* \"#utility.yul\":3755:3758   */\n      dup6\n        /* \"#utility.yul\":3697:3767   */\n      tag_187\n      jump\t// in\n    tag_286:\n        /* \"#utility.yul\":3690:3767   */\n      swap4\n      pop\n        /* \"#utility.yul\":3776:3841   */\n      tag_287\n        /* \"#utility.yul\":3834:3840   */\n      dup2\n        /* \"#utility.yul\":3829:3832   */\n      dup6\n        /* \"#utility.yul\":3822:3826   */\n      0x20\n        /* \"#utility.yul\":3815:3820   */\n      dup7\n        /* \"#utility.yul\":3811:3827   */\n      add\n        /* \"#utility.yul\":3776:3841   */\n      tag_188\n      jump\t// in\n    tag_287:\n        /* \"#utility.yul\":3866:3895   */\n      tag_288\n        /* \"#utility.yul\":3888:3894   */\n      dup2\n        /* \"#utility.yul\":3866:3895   */\n      tag_189\n      jump\t// in\n    tag_288:\n        /* \"#utility.yul\":3861:3864   */\n      dup5\n        /* \"#utility.yul\":3857:3896   */\n      add\n        /* \"#utility.yul\":3850:3896   */\n      swap2\n      pop\n        /* \"#utility.yul\":3619:3902   */\n      pop\n        /* \"#utility.yul\":3529:3902   */\n      swap3\n      swap2\n      pop\n      pop\n      jump\t// out\n        /* \"#utility.yul\":3908:4647   */\n    tag_39:\n        /* \"#utility.yul\":4125:4129   */\n      0x00\n        /* \"#utility.yul\":4163:4166   */\n      0xa0\n        /* \"#utility.yul\":4152:4161   */\n      dup3\n        /* \"#utility.yul\":4148:4167   */\n      add\n        /* \"#utility.yul\":4140:4167   */\n      swap1\n      pop\n        /* \"#utility.yul\":4177:4248   */\n      tag_290\n        /* \"#utility.yul\":4245:4246   */\n      0x00\n        /* \"#utility.yul\":4234:4243   */\n      dup4\n        /* \"#utility.yul\":4230:4247   */\n      add\n        /* \"#utility.yul\":4221:4227   */\n      dup9\n        /* \"#utility.yul\":4177:4248   */\n      tag_180\n      jump\t// in\n    tag_290:\n        /* \"#utility.yul\":4258:4330   */\n      tag_291\n        /* \"#utility.yul\":4326:4328   */\n      0x20\n        /* \"#utility.yul\":4315:4324   */\n      dup4\n        /* \"#utility.yul\":4311:4329   */\n      add\n        /* \"#utility.yul\":4302:4308   */\n      dup8\n        /* \"#utility.yul\":4258:4330   */\n      tag_181\n      jump\t// in\n    tag_291:\n        /* \"#utility.yul\":4377:4386   */\n      dup2\n        /* \"#utility.yul\":4371:4375   */\n      dup2\n        /* \"#utility.yul\":4367:4387   */\n      sub\n        /* \"#utility.yul\":4362:4364   */\n      0x40\n        /* \"#utility.yul\":4351:4360   */\n      dup4\n        /* \"#utility.yul\":4347:4365   */\n      add\n        /* \"#utility.yul\":4340:4388   */\n      mstore\n        /* \"#utility.yul\":4405:4481   */\n      tag_292\n        /* \"#utility.yul\":4476:4480   */\n      dup2\n        /* \"#utility.yul\":4467:4473   */\n      dup7\n        /* \"#utility.yul\":4405:4481   */\n      tag_190\n      jump\t// in\n    tag_292:\n        /* \"#utility.yul\":4397:4481   */\n      swap1\n      pop\n        /* \"#utility.yul\":4491:4557   */\n      tag_293\n        /* \"#utility.yul\":4553:4555   */\n      0x60\n        /* \"#utility.yul\":4542:4551   */\n      dup4\n        /* \"#utility.yul\":4538:4556   */\n      add\n        /* \"#utility.yul\":4529:4535   */\n      dup6\n        /* \"#utility.yul\":4491:4557   */\n      tag_185\n      jump\t// in\n    tag_293:\n        /* \"#utility.yul\":4567:4640   */\n      tag_294\n        /* \"#utility.yul\":4635:4638   */\n      0x80\n        /* \"#utility.yul\":4624:4633   */\n      dup4\n        /* \"#utility.yul\":4620:4639   */\n      add\n        /* \"#utility.yul\":4611:4617   */\n      dup5\n        /* \"#utility.yul\":4567:4640   */\n      tag_181\n      jump\t// in\n    tag_294:\n        /* \"#utility.yul\":3908:4647   */\n      swap7\n      swap6\n      pop\n      pop\n      pop\n      pop\n      pop\n      pop\n      jump\t// out\n        /* \"#utility.yul\":4653:5127   */\n    tag_42:\n        /* \"#utility.yul\":4721:4727   */\n      0x00\n        /* \"#utility.yul\":4729:4735   */\n      0x00\n        /* \"#utility.yul\":4778:4780   */\n      0x40\n        /* \"#utility.yul\":4766:4775   */\n      dup4\n        /* \"#utility.yul\":4757:4764   */\n      dup6\n        /* \"#utility.yul\":4753:4776   */\n      sub\n        /* \"#utility.yul\":4749:4781   */\n      slt\n        /* \"#utility.yul\":4746:4865   */\n      iszero\n      tag_296\n      jumpi\n        /* \"#utility.yul\":4784:4863   */\n      tag_297\n      tag_173\n      jump\t// in\n    tag_297:\n        /* \"#utility.yul\":4746:4865   */\n    tag_296:\n        /* \"#utility.yul\":4904:4905   */\n      0x00\n        /* \"#utility.yul\":4929:4982   */\n      tag_298\n        /* \"#utility.yul\":4974:4981   */\n      dup6\n        /* \"#utility.yul\":4965:4971   */\n      dup3\n        /* \"#utility.yul\":4954:4963   */\n      dup7\n        /* \"#utility.yul\":4950:4972   */\n      add\n        /* \"#utility.yul\":4929:4982   */\n      tag_177\n      jump\t// in\n    tag_298:\n        /* \"#utility.yul\":4919:4982   */\n      swap3\n      pop\n        /* \"#utility.yul\":4875:4992   */\n      pop\n        /* \"#utility.yul\":5031:5033   */\n      0x20\n        /* \"#utility.yul\":5057:5110   */\n      tag_299\n        /* \"#utility.yul\":5102:5109   */\n      dup6\n        /* \"#utility.yul\":5093:5099   */\n      dup3\n        /* \"#utility.yul\":5082:5091   */\n      dup7\n        /* \"#utility.yul\":5078:5100   */\n      add\n        /* \"#utility.yul\":5057:5110   */\n      tag_183\n      jump\t// in\n    tag_299:\n        /* \"#utility.yul\":5047:5110   */\n      swap2\n      pop\n        /* \"#utility.yul\":5002:5120   */\n      pop\n        /* \"#utility.yul\":4653:5127   */\n      swap3\n      pop\n      swap3\n      swap1\n      pop\n      jump\t// out\n        /* \"#utility.yul\":5133:5247   */\n    tag_191:\n        /* \"#utility.yul\":5200:5206   */\n      0x00\n        /* \"#utility.yul\":5234:5239   */\n      dup2\n        /* \"#utility.yul\":5228:5240   */\n      mload\n        /* \"#utility.yul\":5218:5240   */\n      swap1\n      pop\n        /* \"#utility.yul\":5133:5247   */\n      swap2\n      swap1\n      pop\n      jump\t// out\n        /* \"#utility.yul\":5253:5437   */\n    tag_192:\n        /* \"#utility.yul\":5352:5363   */\n      0x00\n        /* \"#utility.yul\":5386:5392   */\n      dup3\n        /* \"#utility.yul\":5381:5384   */\n      dup3\n        /* \"#utility.yul\":5374:5393   */\n      mstore\n        /* \"#utility.yul\":5426:5430   */\n      0x20\n        /* \"#utility.yul\":5421:5424   */\n      dup3\n        /* \"#utility.yul\":5417:5431   */\n      add\n        /* \"#utility.yul\":5402:5431   */\n      swap1\n      pop\n        /* \"#utility.yul\":5253:5437   */\n      swap3\n      swap2\n      pop\n      pop\n      jump\t// out\n        /* \"#utility.yul\":5443:5575   */\n    tag_193:\n        /* \"#utility.yul\":5510:5514   */\n      0x00\n        /* \"#utility.yul\":5533:5536   */\n      dup2\n        /* \"#utility.yul\":5525:5536   */\n      swap1\n      pop\n        /* \"#utility.yul\":5563:5567   */\n      0x20\n        /* \"#utility.yul\":5558:5561   */\n      dup3\n        /* \"#utility.yul\":5554:5568   */\n      add\n        /* \"#utility.yul\":5546:5568   */\n      swap1\n      pop\n        /* \"#utility.yul\":5443:5575   */\n      swap2\n      swap1\n      pop\n      jump\t// out\n        /* \"#utility.yul\":5581:5689   */\n    tag_194:\n        /* \"#utility.yul\":5658:5682   */\n      tag_304\n        /* \"#utility.yul\":5676:5681   */\n      dup2\n        /* \"#utility.yul\":5658:5682   */\n      tag_179\n      jump\t// in\n    tag_304:\n        /* \"#utility.yul\":5653:5656   */\n      dup3\n        /* \"#utility.yul\":5646:5683   */\n      mstore\n        /* \"#utility.yul\":5581:5689   */\n      pop\n      pop\n      jump\t// out\n        /* \"#utility.yul\":5695:5874   */\n    tag_195:\n        /* \"#utility.yul\":5764:5774   */\n      0x00\n        /* \"#utility.yul\":5785:5831   */\n      tag_306\n        /* \"#utility.yul\":5827:5830   */\n      dup4\n        /* \"#utility.yul\":5819:5825   */\n      dup4\n        /* \"#utility.yul\":5785:5831   */\n      tag_194\n      jump\t// in\n    tag_306:\n        /* \"#utility.yul\":5863:5867   */\n      0x20\n        /* \"#utility.yul\":5858:5861   */\n      dup4\n        /* \"#utility.yul\":5854:5868   */\n      add\n        /* \"#utility.yul\":5840:5868   */\n      swap1\n      pop\n        /* \"#utility.yul\":5695:5874   */\n      swap3\n      swap2\n      pop\n      pop\n      jump\t// out\n        /* \"#utility.yul\":5880:5993   */\n    tag_196:\n        /* \"#utility.yul\":5950:5954   */\n      0x00\n        /* \"#utility.yul\":5982:5986   */\n      0x20\n        /* \"#utility.yul\":5977:5980   */\n      dup3\n        /* \"#utility.yul\":5973:5987   */\n      add\n        /* \"#utility.yul\":5965:5987   */\n      swap1\n      pop\n        /* \"#utility.yul\":5880:5993   */\n      swap2\n      swap1\n      pop\n      jump\t// out\n        /* \"#utility.yul\":6029:6761   */\n    tag_197:\n        /* \"#utility.yul\":6148:6151   */\n      0x00\n        /* \"#utility.yul\":6177:6231   */\n      tag_309\n        /* \"#utility.yul\":6225:6230   */\n      dup3\n        /* \"#utility.yul\":6177:6231   */\n      tag_191\n      jump\t// in\n    tag_309:\n        /* \"#utility.yul\":6247:6333   */\n      tag_310\n        /* \"#utility.yul\":6326:6332   */\n      dup2\n        /* \"#utility.yul\":6321:6324   */\n      dup6\n        /* \"#utility.yul\":6247:6333   */\n      tag_192\n      jump\t// in\n    tag_310:\n        /* \"#utility.yul\":6240:6333   */\n      swap4\n      pop\n        /* \"#utility.yul\":6357:6413   */\n      tag_311\n        /* \"#utility.yul\":6407:6412   */\n      dup4\n        /* \"#utility.yul\":6357:6413   */\n      tag_193\n      jump\t// in\n    tag_311:\n        /* \"#utility.yul\":6436:6443   */\n      dup1\n        /* \"#utility.yul\":6467:6468   */\n      0x00\n        /* \"#utility.yul\":6452:6736   */\n    tag_312:\n        /* \"#utility.yul\":6477:6483   */\n      dup4\n        /* \"#utility.yul\":6474:6475   */\n      dup2\n        /* \"#utility.yul\":6471:6484   */\n      lt\n        /* \"#utility.yul\":6452:6736   */\n      iszero\n      tag_314\n      jumpi\n        /* \"#utility.yul\":6553:6559   */\n      dup2\n        /* \"#utility.yul\":6547:6560   */\n      mload\n        /* \"#utility.yul\":6580:6643   */\n      tag_315\n        /* \"#utility.yul\":6639:6642   */\n      dup9\n        /* \"#utility.yul\":6624:6637   */\n      dup3\n        /* \"#utility.yul\":6580:6643   */\n      tag_195\n      jump\t// in\n    tag_315:\n        /* \"#utility.yul\":6573:6643   */\n      swap8\n      pop\n        /* \"#utility.yul\":6666:6726   */\n      tag_316\n        /* \"#utility.yul\":6719:6725   */\n      dup4\n        /* \"#utility.yul\":6666:6726   */\n      tag_196\n      jump\t// in\n    tag_316:\n        /* \"#utility.yul\":6656:6726   */\n      swap3\n      pop\n        /* \"#utility.yul\":6512:6736   */\n      pop\n        /* \"#utility.yul\":6499:6500   */\n      0x01\n        /* \"#utility.yul\":6496:6497   */\n      dup2\n        /* \"#utility.yul\":6492:6501   */\n      add\n        /* \"#utility.yul\":6487:6501   */\n      swap1\n      pop\n        /* \"#utility.yul\":6452:6736   */\n      jump(tag_312)\n    tag_314:\n        /* \"#utility.yul\":6456:6470   */\n      pop\n        /* \"#utility.yul\":6752:6755   */\n      dup6\n        /* \"#utility.yul\":6745:6755   */\n      swap4\n      pop\n        /* \"#utility.yul\":6153:6761   */\n      pop\n      pop\n      pop\n        /* \"#utility.yul\":6029:6761   */\n      swap3\n      swap2\n      pop\n      pop\n      jump\t// out\n        /* \"#utility.yul\":6767:7140   */\n    tag_52:\n        /* \"#utility.yul\":6910:6914   */\n      0x00\n        /* \"#utility.yul\":6948:6950   */\n      0x20\n        /* \"#utility.yul\":6937:6946   */\n      dup3\n        /* \"#utility.yul\":6933:6951   */\n      add\n        /* \"#utility.yul\":6925:6951   */\n      swap1\n      pop\n        /* \"#utility.yul\":6997:7006   */\n      dup2\n        /* \"#utility.yul\":6991:6995   */\n      dup2\n        /* \"#utility.yul\":6987:7007   */\n      sub\n        /* \"#utility.yul\":6983:6984   */\n      0x00\n        /* \"#utility.yul\":6972:6981   */\n      dup4\n        /* \"#utility.yul\":6968:6985   */\n      add\n        /* \"#utility.yul\":6961:7008   */\n      mstore\n        /* \"#utility.yul\":7025:7133   */\n      tag_318\n        /* \"#utility.yul\":7128:7132   */\n      dup2\n        /* \"#utility.yul\":7119:7125   */\n      dup5\n        /* \"#utility.yul\":7025:7133   */\n      tag_197\n      jump\t// in\n    tag_318:\n        /* \"#utility.yul\":7017:7133   */\n      swap1\n      pop\n        /* \"#utility.yul\":6767:7140   */\n      swap3\n      swap2\n      pop\n      pop\n      jump\t// out\n        /* \"#utility.yul\":7146:7263   */\n    tag_198:\n        /* \"#utility.yul\":7255:7256   */\n      0x00\n        /* \"#utility.yul\":7252:7253   */\n      0x00\n        /* \"#utility.yul\":7245:7257   */\n      revert\n        /* \"#utility.yul\":7269:7386   */\n    tag_199:\n        /* \"#utility.yul\":7378:7379   */\n      0x00\n        /* \"#utility.yul\":7375:7376   */\n      0x00\n        /* \"#utility.yul\":7368:7380   */\n      revert\n        /* \"#utility.yul\":7392:7572   */\n    tag_200:\n        /* \"#utility.yul\":7440:7517   */\n      0x4e487b7100000000000000000000000000000000000000000000000000000000\n        /* \"#utility.yul\":7437:7438   */\n      0x00\n        /* \"#utility.yul\":7430:7518   */\n      mstore\n        /* \"#utility.yul\":7537:7541   */\n      0x41\n        /* \"#utility.yul\":7534:7535   */\n      0x04\n        /* \"#utility.yul\":7527:7542   */\n      mstore\n        /* \"#utility.yul\":7561:7565   */\n      0x24\n        /* \"#utility.yul\":7558:7559   */\n      0x00\n        /* \"#utility.yul\":7551:7566   */\n      revert\n        /* \"#utility.yul\":7578:7859   */\n    tag_201:\n        /* \"#utility.yul\":7661:7688   */\n      tag_323\n        /* \"#utility.yul\":7683:7687   */\n      dup3\n        /* \"#utility.yul\":7661:7688   */\n      tag_189\n      jump\t// in\n    tag_323:\n        /* \"#utility.yul\":7653:7659   */\n      dup2\n        /* \"#utility.yul\":7649:7689   */\n      add\n        /* \"#utility.yul\":7791:7797   */\n      dup2\n        /* \"#utility.yul\":7779:7789   */\n      dup2\n        /* \"#utility.yul\":7776:7798   */\n      lt\n        /* \"#utility.yul\":7755:7773   */\n      0xffffffffffffffff\n        /* \"#utility.yul\":7743:7753   */\n      dup3\n        /* \"#utility.yul\":7740:7774   */\n      gt\n        /* \"#utility.yul\":7737:7799   */\n      or\n        /* \"#utility.yul\":7734:7822   */\n      iszero\n      tag_324\n      jumpi\n        /* \"#utility.yul\":7802:7820   */\n      tag_325\n      tag_200\n      jump\t// in\n    tag_325:\n        /* \"#utility.yul\":7734:7822   */\n    tag_324:\n        /* \"#utility.yul\":7842:7852   */\n      dup1\n        /* \"#utility.yul\":7838:7840   */\n      0x40\n        /* \"#utility.yul\":7831:7853   */\n      mstore\n        /* \"#utility.yul\":7621:7859   */\n      pop\n        /* \"#utility.yul\":7578:7859   */\n      pop\n      pop\n      jump\t// out\n        /* \"#utility.yul\":7865:7994   */\n    tag_202:\n        /* \"#utility.yul\":7899:7905   */\n      0x00\n        /* \"#utility.yul\":7926:7946   */\n      tag_327\n      tag_172\n      jump\t// in\n    tag_327:\n        /* \"#utility.yul\":7916:7946   */\n      swap1\n      pop\n        /* \"#utility.yul\":7955:7988   */\n      tag_328\n        /* \"#utility.yul\":7983:7987   */\n      dup3\n        /* \"#utility.yul\":7975:7981   */\n      dup3\n        /* \"#utility.yul\":7955:7988   */\n      tag_201\n      jump\t// in\n    tag_328:\n        /* \"#utility.yul\":7865:7994   */\n      swap2\n      swap1\n      pop\n      jump\t// out\n        /* \"#utility.yul\":8000:8307   */\n    tag_203:\n        /* \"#utility.yul\":8061:8065   */\n      0x00\n        /* \"#utility.yul\":8151:8169   */\n      0xffffffffffffffff\n        /* \"#utility.yul\":8143:8149   */\n      dup3\n        /* \"#utility.yul\":8140:8170   */\n      gt\n        /* \"#utility.yul\":8137:8193   */\n      iszero\n      tag_330\n      jumpi\n        /* \"#utility.yul\":8173:8191   */\n      tag_331\n      tag_200\n      jump\t// in\n    tag_331:\n        /* \"#utility.yul\":8137:8193   */\n    tag_330:\n        /* \"#utility.yul\":8211:8240   */\n      tag_332\n        /* \"#utility.yul\":8233:8239   */\n      dup3\n        /* \"#utility.yul\":8211:8240   */\n      tag_189\n      jump\t// in\n    tag_332:\n        /* \"#utility.yul\":8203:8240   */\n      swap1\n      pop\n        /* \"#utility.yul\":8295:8299   */\n      0x20\n        /* \"#utility.yul\":8289:8293   */\n      dup2\n        /* \"#utility.yul\":8285:8300   */\n      add\n        /* \"#utility.yul\":8277:8300   */\n      swap1\n      pop\n        /* \"#utility.yul\":8000:8307   */\n      swap2\n      swap1\n      pop\n      jump\t// out\n        /* \"#utility.yul\":8313:8461   */\n    tag_204:\n        /* \"#utility.yul\":8411:8417   */\n      dup3\n        /* \"#utility.yul\":8406:8409   */\n      dup2\n        /* \"#utility.yul\":8401:8404   */\n      dup4\n        /* \"#utility.yul\":8388:8418   */\n      calldatacopy\n        /* \"#utility.yul\":8452:8453   */\n      0x00\n        /* \"#utility.yul\":8443:8449   */\n      dup4\n        /* \"#utility.yul\":8438:8441   */\n      dup4\n        /* \"#utility.yul\":8434:8450   */\n      add\n        /* \"#utility.yul\":8427:8454   */\n      mstore\n        /* \"#utility.yul\":8313:8461   */\n      pop\n      pop\n      pop\n      jump\t// out\n        /* \"#utility.yul\":8467:8890   */\n    tag_205:\n        /* \"#utility.yul\":8544:8549   */\n      0x00\n        /* \"#utility.yul\":8569:8634   */\n      tag_335\n        /* \"#utility.yul\":8585:8633   */\n      tag_336\n        /* \"#utility.yul\":8626:8632   */\n      dup5\n        /* \"#utility.yul\":8585:8633   */\n      tag_203\n      jump\t// in\n    tag_336:\n        /* \"#utility.yul\":8569:8634   */\n      tag_202\n      jump\t// in\n    tag_335:\n        /* \"#utility.yul\":8560:8634   */\n      swap1\n      pop\n        /* \"#utility.yul\":8657:8663   */\n      dup3\n        /* \"#utility.yul\":8650:8655   */\n      dup2\n        /* \"#utility.yul\":8643:8664   */\n      mstore\n        /* \"#utility.yul\":8695:8699   */\n      0x20\n        /* \"#utility.yul\":8688:8693   */\n      dup2\n        /* \"#utility.yul\":8684:8700   */\n      add\n        /* \"#utility.yul\":8733:8736   */\n      dup5\n        /* \"#utility.yul\":8724:8730   */\n      dup5\n        /* \"#utility.yul\":8719:8722   */\n      dup5\n        /* \"#utility.yul\":8715:8731   */\n      add\n        /* \"#utility.yul\":8712:8737   */\n      gt\n        /* \"#utility.yul\":8709:8821   */\n      iszero\n      tag_337\n      jumpi\n        /* \"#utility.yul\":8740:8819   */\n      tag_338\n      tag_199\n      jump\t// in\n    tag_338:\n        /* \"#utility.yul\":8709:8821   */\n    tag_337:\n        /* \"#utility.yul\":8830:8884   */\n      tag_339\n        /* \"#utility.yul\":8877:8883   */\n      dup5\n        /* \"#utility.yul\":8872:8875   */\n      dup3\n        /* \"#utility.yul\":8867:8870   */\n      dup6\n        /* \"#utility.yul\":8830:8884   */\n      tag_204\n      jump\t// in\n    tag_339:\n        /* \"#utility.yul\":8550:8890   */\n      pop\n        /* \"#utility.yul\":8467:8890   */\n      swap4\n      swap3\n      pop\n      pop\n      pop\n      jump\t// out\n        /* \"#utility.yul\":8909:9247   */\n    tag_206:\n        /* \"#utility.yul\":8964:8969   */\n      0x00\n        /* \"#utility.yul\":9013:9016   */\n      dup3\n        /* \"#utility.yul\":9006:9010   */\n      0x1f\n        /* \"#utility.yul\":8998:9004   */\n      dup4\n        /* \"#utility.yul\":8994:9011   */\n      add\n        /* \"#utility.yul\":8990:9017   */\n      slt\n        /* \"#utility.yul\":8980:9102   */\n      tag_341\n      jumpi\n        /* \"#utility.yul\":9021:9100   */\n      tag_342\n      tag_198\n      jump\t// in\n    tag_342:\n        /* \"#utility.yul\":8980:9102   */\n    tag_341:\n        /* \"#utility.yul\":9138:9144   */\n      dup2\n        /* \"#utility.yul\":9125:9145   */\n      calldataload\n        /* \"#utility.yul\":9163:9241   */\n      tag_343\n        /* \"#utility.yul\":9237:9240   */\n      dup5\n        /* \"#utility.yul\":9229:9235   */\n      dup3\n        /* \"#utility.yul\":9222:9226   */\n      0x20\n        /* \"#utility.yul\":9214:9220   */\n      dup7\n        /* \"#utility.yul\":9210:9227   */\n      add\n        /* \"#utility.yul\":9163:9241   */\n      tag_205\n      jump\t// in\n    tag_343:\n        /* \"#utility.yul\":9154:9241   */\n      swap2\n      pop\n        /* \"#utility.yul\":8970:9247   */\n      pop\n        /* \"#utility.yul\":8909:9247   */\n      swap3\n      swap2\n      pop\n      pop\n      jump\t// out\n        /* \"#utility.yul\":9253:10050   */\n    tag_58:\n        /* \"#utility.yul\":9339:9345   */\n      0x00\n        /* \"#utility.yul\":9347:9353   */\n      0x00\n        /* \"#utility.yul\":9355:9361   */\n      0x00\n        /* \"#utility.yul\":9404:9406   */\n      0x60\n        /* \"#utility.yul\":9392:9401   */\n      dup5\n        /* \"#utility.yul\":9383:9390   */\n      dup7\n        /* \"#utility.yul\":9379:9402   */\n      sub\n        /* \"#utility.yul\":9375:9407   */\n      slt\n        /* \"#utility.yul\":9372:9491   */\n      iszero\n      tag_345\n      jumpi\n        /* \"#utility.yul\":9410:9489   */\n      tag_346\n      tag_173\n      jump\t// in\n    tag_346:\n        /* \"#utility.yul\":9372:9491   */\n    tag_345:\n        /* \"#utility.yul\":9530:9531   */\n      0x00\n        /* \"#utility.yul\":9555:9608   */\n      tag_347\n        /* \"#utility.yul\":9600:9607   */\n      dup7\n        /* \"#utility.yul\":9591:9597   */\n      dup3\n        /* \"#utility.yul\":9580:9589   */\n      dup8\n        /* \"#utility.yul\":9576:9598   */\n      add\n        /* \"#utility.yul\":9555:9608   */\n      tag_183\n      jump\t// in\n    tag_347:\n        /* \"#utility.yul\":9545:9608   */\n      swap4\n      pop\n        /* \"#utility.yul\":9501:9618   */\n      pop\n        /* \"#utility.yul\":9657:9659   */\n      0x20\n        /* \"#utility.yul\":9683:9736   */\n      tag_348\n        /* \"#utility.yul\":9728:9735   */\n      dup7\n        /* \"#utility.yul\":9719:9725   */\n      dup3\n        /* \"#utility.yul\":9708:9717   */\n      dup8\n        /* \"#utility.yul\":9704:9726   */\n      add\n        /* \"#utility.yul\":9683:9736   */\n      tag_177\n      jump\t// in\n    tag_348:\n        /* \"#utility.yul\":9673:9736   */\n      swap3\n      pop\n        /* \"#utility.yul\":9628:9746   */\n      pop\n        /* \"#utility.yul\":9813:9815   */\n      0x40\n        /* \"#utility.yul\":9802:9811   */\n      dup5\n        /* \"#utility.yul\":9798:9816   */\n      add\n        /* \"#utility.yul\":9785:9817   */\n      calldataload\n        /* \"#utility.yul\":9844:9862   */\n      0xffffffffffffffff\n        /* \"#utility.yul\":9836:9842   */\n      dup2\n        /* \"#utility.yul\":9833:9863   */\n      gt\n        /* \"#utility.yul\":9830:9947   */\n      iszero\n      tag_349\n      jumpi\n        /* \"#utility.yul\":9866:9945   */\n      tag_350\n      tag_174\n      jump\t// in\n    tag_350:\n        /* \"#utility.yul\":9830:9947   */\n    tag_349:\n        /* \"#utility.yul\":9971:10033   */\n      tag_351\n        /* \"#utility.yul\":10025:10032   */\n      dup7\n        /* \"#utility.yul\":10016:10022   */\n      dup3\n        /* \"#utility.yul\":10005:10014   */\n      dup8\n        /* \"#utility.yul\":10001:10023   */\n      add\n        /* \"#utility.yul\":9971:10033   */\n      tag_206\n      jump\t// in\n    tag_351:\n        /* \"#utility.yul\":9961:10033   */\n      swap2\n      pop\n        /* \"#utility.yul\":9756:10043   */\n      pop\n        /* \"#utility.yul\":9253:10050   */\n      swap3\n      pop\n      swap3\n      pop\n      swap3\n      jump\t// out\n        /* \"#utility.yul\":10056:10225   */\n    tag_207:\n        /* \"#utility.yul\":10140:10151   */\n      0x00\n        /* \"#utility.yul\":10174:10180   */\n      dup3\n        /* \"#utility.yul\":10169:10172   */\n      dup3\n        /* \"#utility.yul\":10162:10181   */\n      mstore\n        /* \"#utility.yul\":10214:10218   */\n      0x20\n        /* \"#utility.yul\":10209:10212   */\n      dup3\n        /* \"#utility.yul\":10205:10219   */\n      add\n        /* \"#utility.yul\":10190:10219   */\n      swap1\n      pop\n        /* \"#utility.yul\":10056:10225   */\n      swap3\n      swap2\n      pop\n      pop\n      jump\t// out\n        /* \"#utility.yul\":10231:10390   */\n    tag_208:\n        /* \"#utility.yul\":10371:10382   */\n      0x6e6f74206f776e65720000000000000000000000000000000000000000000000\n        /* \"#utility.yul\":10367:10368   */\n      0x00\n        /* \"#utility.yul\":10359:10365   */\n      dup3\n        /* \"#utility.yul\":10355:10369   */\n      add\n        /* \"#utility.yul\":10348:10383   */\n      mstore\n        /* \"#utility.yul\":10231:10390   */\n      pop\n      jump\t// out\n        /* \"#utility.yul\":10396:10761   */\n    tag_209:\n        /* \"#utility.yul\":10538:10541   */\n      0x00\n        /* \"#utility.yul\":10559:10625   */\n      tag_355\n        /* \"#utility.yul\":10623:10624   */\n      0x09\n        /* \"#utility.yul\":10618:10621   */\n      dup4\n        /* \"#utility.yul\":10559:10625   */\n      tag_207\n      jump\t// in\n    tag_355:\n        /* \"#utility.yul\":10552:10625   */\n      swap2\n      pop\n        /* \"#utility.yul\":10634:10727   */\n      tag_356\n        /* \"#utility.yul\":10723:10726   */\n      dup3\n        /* \"#utility.yul\":10634:10727   */\n      tag_208\n      jump\t// in\n    tag_356:\n        /* \"#utility.yul\":10752:10754   */\n      0x20\n        /* \"#utility.yul\":10747:10750   */\n      dup3\n        /* \"#utility.yul\":10743:10755   */\n      add\n        /* \"#utility.yul\":10736:10755   */\n      swap1\n      pop\n        /* \"#utility.yul\":10396:10761   */\n      swap2\n      swap1\n      pop\n      jump\t// out\n        /* \"#utility.yul\":10767:11186   */\n    tag_71:\n        /* \"#utility.yul\":10933:10937   */\n      0x00\n        /* \"#utility.yul\":10971:10973   */\n      0x20\n        /* \"#utility.yul\":10960:10969   */\n      dup3\n        /* \"#utility.yul\":10956:10974   */\n      add\n        /* \"#utility.yul\":10948:10974   */\n      swap1\n      pop\n        /* \"#utility.yul\":11020:11029   */\n      dup2\n        /* \"#utility.yul\":11014:11018   */\n      dup2\n        /* \"#utility.yul\":11010:11030   */\n      sub\n        /* \"#utility.yul\":11006:11007   */\n      0x00\n        /* \"#utility.yul\":10995:11004   */\n      dup4\n        /* \"#utility.yul\":10991:11008   */\n      add\n        /* \"#utility.yul\":10984:11031   */\n      mstore\n        /* \"#utility.yul\":11048:11179   */\n      tag_358\n        /* \"#utility.yul\":11174:11178   */\n      dup2\n        /* \"#utility.yul\":11048:11179   */\n      tag_209\n      jump\t// in\n    tag_358:\n        /* \"#utility.yul\":11040:11179   */\n      swap1\n      pop\n        /* \"#utility.yul\":10767:11186   */\n      swap2\n      swap1\n      pop\n      jump\t// out\n        /* \"#utility.yul\":11192:11359   */\n    tag_210:\n        /* \"#utility.yul\":11332:11351   */\n      0x747820646f6573206e6f74206578697374000000000000000000000000000000\n        /* \"#utility.yul\":11328:11329   */\n      0x00\n        /* \"#utility.yul\":11320:11326   */\n      dup3\n        /* \"#utility.yul\":11316:11330   */\n      add\n        /* \"#utility.yul\":11309:11352   */\n      mstore\n        /* \"#utility.yul\":11192:11359   */\n      pop\n      jump\t// out\n        /* \"#utility.yul\":11365:11731   */\n    tag_211:\n        /* \"#utility.yul\":11507:11510   */\n      0x00\n        /* \"#utility.yul\":11528:11595   */\n      tag_361\n        /* \"#utility.yul\":11592:11594   */\n      0x11\n        /* \"#utility.yul\":11587:11590   */\n      dup4\n        /* \"#utility.yul\":11528:11595   */\n      tag_207\n      jump\t// in\n    tag_361:\n        /* \"#utility.yul\":11521:11595   */\n      swap2\n      pop\n        /* \"#utility.yul\":11604:11697   */\n      tag_362\n        /* \"#utility.yul\":11693:11696   */\n      dup3\n        /* \"#utility.yul\":11604:11697   */\n      tag_210\n      jump\t// in\n    tag_362:\n        /* \"#utility.yul\":11722:11724   */\n      0x20\n        /* \"#utility.yul\":11717:11720   */\n      dup3\n        /* \"#utility.yul\":11713:11725   */\n      add\n        /* \"#utility.yul\":11706:11725   */\n      swap1\n      pop\n        /* \"#utility.yul\":11365:11731   */\n      swap2\n      swap1\n      pop\n      jump\t// out\n        /* \"#utility.yul\":11737:12156   */\n    tag_75:\n        /* \"#utility.yul\":11903:11907   */\n      0x00\n        /* \"#utility.yul\":11941:11943   */\n      0x20\n        /* \"#utility.yul\":11930:11939   */\n      dup3\n        /* \"#utility.yul\":11926:11944   */\n      add\n        /* \"#utility.yul\":11918:11944   */\n      swap1\n      pop\n        /* \"#utility.yul\":11990:11999   */\n      dup2\n        /* \"#utility.yul\":11984:11988   */\n      dup2\n        /* \"#utility.yul\":11980:12000   */\n      sub\n        /* \"#utility.yul\":11976:11977   */\n      0x00\n        /* \"#utility.yul\":11965:11974   */\n      dup4\n        /* \"#utility.yul\":11961:11978   */\n      add\n        /* \"#utility.yul\":11954:12001   */\n      mstore\n        /* \"#utility.yul\":12018:12149   */\n      tag_364\n        /* \"#utility.yul\":12144:12148   */\n      dup2\n        /* \"#utility.yul\":12018:12149   */\n      tag_211\n      jump\t// in\n    tag_364:\n        /* \"#utility.yul\":12010:12149   */\n      swap1\n      pop\n        /* \"#utility.yul\":11737:12156   */\n      swap2\n      swap1\n      pop\n      jump\t// out\n        /* \"#utility.yul\":12162:12342   */\n    tag_79:\n        /* \"#utility.yul\":12210:12287   */\n      0x4e487b7100000000000000000000000000000000000000000000000000000000\n        /* \"#utility.yul\":12207:12208   */\n      0x00\n        /* \"#utility.yul\":12200:12288   */\n      mstore\n        /* \"#utility.yul\":12307:12311   */\n      0x32\n        /* \"#utility.yul\":12304:12305   */\n      0x04\n        /* \"#utility.yul\":12297:12312   */\n      mstore\n        /* \"#utility.yul\":12331:12335   */\n      0x24\n        /* \"#utility.yul\":12328:12329   */\n      0x00\n        /* \"#utility.yul\":12321:12336   */\n      revert\n        /* \"#utility.yul\":12348:12517   */\n    tag_212:\n        /* \"#utility.yul\":12488:12509   */\n      0x747820616c726561647920657865637574656400000000000000000000000000\n        /* \"#utility.yul\":12484:12485   */\n      0x00\n        /* \"#utility.yul\":12476:12482   */\n      dup3\n        /* \"#utility.yul\":12472:12486   */\n      add\n        /* \"#utility.yul\":12465:12510   */\n      mstore\n        /* \"#utility.yul\":12348:12517   */\n      pop\n      jump\t// out\n        /* \"#utility.yul\":12523:12889   */\n    tag_213:\n        /* \"#utility.yul\":12665:12668   */\n      0x00\n        /* \"#utility.yul\":12686:12753   */\n      tag_368\n        /* \"#utility.yul\":12750:12752   */\n      0x13\n        /* \"#utility.yul\":12745:12748   */\n      dup4\n        /* \"#utility.yul\":12686:12753   */\n      tag_207\n      jump\t// in\n    tag_368:\n        /* \"#utility.yul\":12679:12753   */\n      swap2\n      pop\n        /* \"#utility.yul\":12762:12855   */\n      tag_369\n        /* \"#utility.yul\":12851:12854   */\n      dup3\n        /* \"#utility.yul\":12762:12855   */\n      tag_212\n      jump\t// in\n    tag_369:\n        /* \"#utility.yul\":12880:12882   */\n      0x20\n        /* \"#utility.yul\":12875:12878   */\n      dup3\n        /* \"#utility.yul\":12871:12883   */\n      add\n        /* \"#utility.yul\":12864:12883   */\n      swap1\n      pop\n        /* \"#utility.yul\":12523:12889   */\n      swap2\n      swap1\n      pop\n      jump\t// out\n        /* \"#utility.yul\":12895:13314   */\n    tag_83:\n        /* \"#utility.yul\":13061:13065   */\n      0x00\n        /* \"#utility.yul\":13099:13101   */\n      0x20\n        /* \"#utility.yul\":13088:13097   */\n      dup3\n        /* \"#utility.yul\":13084:13102   */\n      add\n        /* \"#utility.yul\":13076:13102   */\n      swap1\n      pop\n        /* \"#utility.yul\":13148:13157   */\n      dup2\n        /* \"#utility.yul\":13142:13146   */\n      dup2\n        /* \"#utility.yul\":13138:13158   */\n      sub\n        /* \"#utility.yul\":13134:13135   */\n      0x00\n        /* \"#utility.yul\":13123:13132   */\n      dup4\n        /* \"#utility.yul\":13119:13136   */\n      add\n        /* \"#utility.yul\":13112:13159   */\n      mstore\n        /* \"#utility.yul\":13176:13307   */\n      tag_371\n        /* \"#utility.yul\":13302:13306   */\n      dup2\n        /* \"#utility.yul\":13176:13307   */\n      tag_213\n      jump\t// in\n    tag_371:\n        /* \"#utility.yul\":13168:13307   */\n      swap1\n      pop\n        /* \"#utility.yul\":12895:13314   */\n      swap2\n      swap1\n      pop\n      jump\t// out\n        /* \"#utility.yul\":13320:13486   */\n    tag_214:\n        /* \"#utility.yul\":13460:13478   */\n      0x7478206e6f7420636f6e6669726d656400000000000000000000000000000000\n        /* \"#utility.yul\":13456:13457   */\n      0x00\n        /* \"#utility.yul\":13448:13454   */\n      dup3\n        /* \"#utility.yul\":13444:13458   */\n      add\n        /* \"#utility.yul\":13437:13479   */\n      mstore\n        /* \"#utility.yul\":13320:13486   */\n      pop\n      jump\t// out\n        /* \"#utility.yul\":13492:13858   */\n    tag_215:\n        /* \"#utility.yul\":13634:13637   */\n      0x00\n        /* \"#utility.yul\":13655:13722   */\n      tag_374\n        /* \"#utility.yul\":13719:13721   */\n      0x10\n        /* \"#utility.yul\":13714:13717   */\n      dup4\n        /* \"#utility.yul\":13655:13722   */\n      tag_207\n      jump\t// in\n    tag_374:\n        /* \"#utility.yul\":13648:13722   */\n      swap2\n      pop\n        /* \"#utility.yul\":13731:13824   */\n      tag_375\n        /* \"#utility.yul\":13820:13823   */\n      dup3\n        /* \"#utility.yul\":13731:13824   */\n      tag_214\n      jump\t// in\n    tag_375:\n        /* \"#utility.yul\":13849:13851   */\n      0x20\n        /* \"#utility.yul\":13844:13847   */\n      dup3\n        /* \"#utility.yul\":13840:13852   */\n      add\n        /* \"#utility.yul\":13833:13852   */\n      swap1\n      pop\n        /* \"#utility.yul\":13492:13858   */\n      swap2\n      swap1\n      pop\n      jump\t// out\n        /* \"#utility.yul\":13864:14283   */\n    tag_90:\n        /* \"#utility.yul\":14030:14034   */\n      0x00\n        /* \"#utility.yul\":14068:14070   */\n      0x20\n        /* \"#utility.yul\":14057:14066   */\n      dup3\n        /* \"#utility.yul\":14053:14071   */\n      add\n        /* \"#utility.yul\":14045:14071   */\n      swap1\n      pop\n        /* \"#utility.yul\":14117:14126   */\n      dup2\n        /* \"#utility.yul\":14111:14115   */\n      dup2\n        /* \"#utility.yul\":14107:14127   */\n      sub\n        /* \"#utility.yul\":14103:14104   */\n      0x00\n        /* \"#utility.yul\":14092:14101   */\n      dup4\n        /* \"#utility.yul\":14088:14105   */\n      add\n        /* \"#utility.yul\":14081:14128   */\n      mstore\n        /* \"#utility.yul\":14145:14276   */\n      tag_377\n        /* \"#utility.yul\":14271:14275   */\n      dup2\n        /* \"#utility.yul\":14145:14276   */\n      tag_215\n      jump\t// in\n    tag_377:\n        /* \"#utility.yul\":14137:14276   */\n      swap1\n      pop\n        /* \"#utility.yul\":13864:14283   */\n      swap2\n      swap1\n      pop\n      jump\t// out\n        /* \"#utility.yul\":14289:14469   */\n    tag_216:\n        /* \"#utility.yul\":14337:14414   */\n      0x4e487b7100000000000000000000000000000000000000000000000000000000\n        /* \"#utility.yul\":14334:14335   */\n      0x00\n        /* \"#utility.yul\":14327:14415   */\n      mstore\n        /* \"#utility.yul\":14434:14438   */\n      0x11\n        /* \"#utility.yul\":14431:14432   */\n      0x04\n        /* \"#utility.yul\":14424:14439   */\n      mstore\n        /* \"#utility.yul\":14458:14462   */\n      0x24\n        /* \"#utility.yul\":14455:14456   */\n      0x00\n        /* \"#utility.yul\":14448:14463   */\n      revert\n        /* \"#utility.yul\":14475:14669   */\n    tag_92:\n        /* \"#utility.yul\":14515:14519   */\n      0x00\n        /* \"#utility.yul\":14535:14555   */\n      tag_380\n        /* \"#utility.yul\":14553:14554   */\n      dup3\n        /* \"#utility.yul\":14535:14555   */\n      tag_175\n      jump\t// in\n    tag_380:\n        /* \"#utility.yul\":14530:14555   */\n      swap2\n      pop\n        /* \"#utility.yul\":14569:14589   */\n      tag_381\n        /* \"#utility.yul\":14587:14588   */\n      dup4\n        /* \"#utility.yul\":14569:14589   */\n      tag_175\n      jump\t// in\n    tag_381:\n        /* \"#utility.yul\":14564:14589   */\n      swap3\n      pop\n        /* \"#utility.yul\":14613:14614   */\n      dup3\n        /* \"#utility.yul\":14610:14611   */\n      dup3\n        /* \"#utility.yul\":14606:14615   */\n      sub\n        /* \"#utility.yul\":14598:14615   */\n      swap1\n      pop\n        /* \"#utility.yul\":14637:14638   */\n      dup2\n        /* \"#utility.yul\":14631:14635   */\n      dup2\n        /* \"#utility.yul\":14628:14639   */\n      gt\n        /* \"#utility.yul\":14625:14662   */\n      iszero\n      tag_382\n      jumpi\n        /* \"#utility.yul\":14642:14660   */\n      tag_383\n      tag_216\n      jump\t// in\n    tag_383:\n        /* \"#utility.yul\":14625:14662   */\n    tag_382:\n        /* \"#utility.yul\":14475:14669   */\n      swap3\n      swap2\n      pop\n      pop\n      jump\t// out\n        /* \"#utility.yul\":14675:14855   */\n    tag_217:\n        /* \"#utility.yul\":14723:14800   */\n      0x4e487b7100000000000000000000000000000000000000000000000000000000\n        /* \"#utility.yul\":14720:14721   */\n      0x00\n        /* \"#utility.yul\":14713:14801   */\n      mstore\n        /* \"#utility.yul\":14820:14824   */\n      0x22\n        /* \"#utility.yul\":14817:14818   */\n      0x04\n        /* \"#utility.yul\":14810:14825   */\n      mstore\n        /* \"#utility.yul\":14844:14848   */\n      0x24\n        /* \"#utility.yul\":14841:14842   */\n      0x00\n        /* \"#utility.yul\":14834:14849   */\n      revert\n        /* \"#utility.yul\":14861:15181   */\n    tag_99:\n        /* \"#utility.yul\":14905:14911   */\n      0x00\n        /* \"#utility.yul\":14942:14943   */\n      0x02\n        /* \"#utility.yul\":14936:14940   */\n      dup3\n        /* \"#utility.yul\":14932:14944   */\n      div\n        /* \"#utility.yul\":14922:14944   */\n      swap1\n      pop\n        /* \"#utility.yul\":14989:14990   */\n      0x01\n        /* \"#utility.yul\":14983:14987   */\n      dup3\n        /* \"#utility.yul\":14979:14991   */\n      and\n        /* \"#utility.yul\":15010:15028   */\n      dup1\n        /* \"#utility.yul\":15000:15081   */\n      tag_386\n      jumpi\n        /* \"#utility.yul\":15066:15070   */\n      0x7f\n        /* \"#utility.yul\":15058:15064   */\n      dup3\n        /* \"#utility.yul\":15054:15071   */\n      and\n        /* \"#utility.yul\":15044:15071   */\n      swap2\n      pop\n        /* \"#utility.yul\":15000:15081   */\n    tag_386:\n        /* \"#utility.yul\":15128:15130   */\n      0x20\n        /* \"#utility.yul\":15120:15126   */\n      dup3\n        /* \"#utility.yul\":15117:15131   */\n      lt\n        /* \"#utility.yul\":15097:15115   */\n      dup2\n        /* \"#utility.yul\":15094:15132   */\n      sub\n        /* \"#utility.yul\":15091:15175   */\n      tag_387\n      jumpi\n        /* \"#utility.yul\":15147:15165   */\n      tag_388\n      tag_217\n      jump\t// in\n    tag_388:\n        /* \"#utility.yul\":15091:15175   */\n    tag_387:\n        /* \"#utility.yul\":14912:15181   */\n      pop\n        /* \"#utility.yul\":14861:15181   */\n      swap2\n      swap1\n      pop\n      jump\t// out\n        /* \"#utility.yul\":15187:15357   */\n    tag_218:\n        /* \"#utility.yul\":15327:15349   */\n      0x747820616c726561647920636f6e6669726d6564000000000000000000000000\n        /* \"#utility.yul\":15323:15324   */\n      0x00\n        /* \"#utility.yul\":15315:15321   */\n      dup3\n        /* \"#utility.yul\":15311:15325   */\n      add\n        /* \"#utility.yul\":15304:15350   */\n      mstore\n        /* \"#utility.yul\":15187:15357   */\n      pop\n      jump\t// out\n        /* \"#utility.yul\":15363:15729   */\n    tag_219:\n        /* \"#utility.yul\":15505:15508   */\n      0x00\n        /* \"#utility.yul\":15526:15593   */\n      tag_391\n        /* \"#utility.yul\":15590:15592   */\n      0x14\n        /* \"#utility.yul\":15585:15588   */\n      dup4\n        /* \"#utility.yul\":15526:15593   */\n      tag_207\n      jump\t// in\n    tag_391:\n        /* \"#utility.yul\":15519:15593   */\n      swap2\n      pop\n        /* \"#utility.yul\":15602:15695   */\n      tag_392\n        /* \"#utility.yul\":15691:15694   */\n      dup3\n        /* \"#utility.yul\":15602:15695   */\n      tag_218\n      jump\t// in\n    tag_392:\n        /* \"#utility.yul\":15720:15722   */\n      0x20\n        /* \"#utility.yul\":15715:15718   */\n      dup3\n        /* \"#utility.yul\":15711:15723   */\n      add\n        /* \"#utility.yul\":15704:15723   */\n      swap1\n      pop\n        /* \"#utility.yul\":15363:15729   */\n      swap2\n      swap1\n      pop\n      jump\t// out\n        /* \"#utility.yul\":15735:16154   */\n    tag_129:\n        /* \"#utility.yul\":15901:15905   */\n      0x00\n        /* \"#utility.yul\":15939:15941   */\n      0x20\n        /* \"#utility.yul\":15928:15937   */\n      dup3\n        /* \"#utility.yul\":15924:15942   */\n      add\n        /* \"#utility.yul\":15916:15942   */\n      swap1\n      pop\n        /* \"#utility.yul\":15988:15997   */\n      dup2\n        /* \"#utility.yul\":15982:15986   */\n      dup2\n        /* \"#utility.yul\":15978:15998   */\n      sub\n        /* \"#utility.yul\":15974:15975   */\n      0x00\n        /* \"#utility.yul\":15963:15972   */\n      dup4\n        /* \"#utility.yul\":15959:15976   */\n      add\n        /* \"#utility.yul\":15952:15999   */\n      mstore\n        /* \"#utility.yul\":16016:16147   */\n      tag_394\n        /* \"#utility.yul\":16142:16146   */\n      dup2\n        /* \"#utility.yul\":16016:16147   */\n      tag_219\n      jump\t// in\n    tag_394:\n        /* \"#utility.yul\":16008:16147   */\n      swap1\n      pop\n        /* \"#utility.yul\":15735:16154   */\n      swap2\n      swap1\n      pop\n      jump\t// out\n        /* \"#utility.yul\":16160:16351   */\n    tag_135:\n        /* \"#utility.yul\":16200:16203   */\n      0x00\n        /* \"#utility.yul\":16219:16239   */\n      tag_396\n        /* \"#utility.yul\":16237:16238   */\n      dup3\n        /* \"#utility.yul\":16219:16239   */\n      tag_175\n      jump\t// in\n    tag_396:\n        /* \"#utility.yul\":16214:16239   */\n      swap2\n      pop\n        /* \"#utility.yul\":16253:16273   */\n      tag_397\n        /* \"#utility.yul\":16271:16272   */\n      dup4\n        /* \"#utility.yul\":16253:16273   */\n      tag_175\n      jump\t// in\n    tag_397:\n        /* \"#utility.yul\":16248:16273   */\n      swap3\n      pop\n        /* \"#utility.yul\":16296:16297   */\n      dup3\n        /* \"#utility.yul\":16293:16294   */\n      dup3\n        /* \"#utility.yul\":16289:16298   */\n      add\n        /* \"#utility.yul\":16282:16298   */\n      swap1\n      pop\n        /* \"#utility.yul\":16317:16320   */\n      dup1\n        /* \"#utility.yul\":16314:16315   */\n      dup3\n        /* \"#utility.yul\":16311:16321   */\n      gt\n        /* \"#utility.yul\":16308:16344   */\n      iszero\n      tag_398\n      jumpi\n        /* \"#utility.yul\":16324:16342   */\n      tag_399\n      tag_216\n      jump\t// in\n    tag_399:\n        /* \"#utility.yul\":16308:16344   */\n    tag_398:\n        /* \"#utility.yul\":16160:16351   */\n      swap3\n      swap2\n      pop\n      pop\n      jump\t// out\n        /* \"#utility.yul\":16357:16497   */\n    tag_220:\n        /* \"#utility.yul\":16405:16409   */\n      0x00\n        /* \"#utility.yul\":16428:16431   */\n      dup2\n        /* \"#utility.yul\":16420:16431   */\n      swap1\n      pop\n        /* \"#utility.yul\":16451:16454   */\n      dup2\n        /* \"#utility.yul\":16448:16449   */\n      0x00\n        /* \"#utility.yul\":16441:16455   */\n      mstore\n        /* \"#utility.yul\":16485:16489   */\n      0x20\n        /* \"#utility.yul\":16482:16483   */\n      0x00\n        /* \"#utility.yul\":16472:16490   */\n      keccak256\n        /* \"#utility.yul\":16464:16490   */\n      swap1\n      pop\n        /* \"#utility.yul\":16357:16497   */\n      swap2\n      swap1\n      pop\n      jump\t// out\n        /* \"#utility.yul\":16503:16596   */\n    tag_221:\n        /* \"#utility.yul\":16540:16546   */\n      0x00\n        /* \"#utility.yul\":16587:16589   */\n      0x20\n        /* \"#utility.yul\":16582:16584   */\n      0x1f\n        /* \"#utility.yul\":16575:16580   */\n      dup4\n        /* \"#utility.yul\":16571:16585   */\n      add\n        /* \"#utility.yul\":16567:16590   */\n      div\n        /* \"#utility.yul\":16557:16590   */\n      swap1\n      pop\n        /* \"#utility.yul\":16503:16596   */\n      swap2\n      swap1\n      pop\n      jump\t// out\n        /* \"#utility.yul\":16602:16709   */\n    tag_222:\n        /* \"#utility.yul\":16646:16654   */\n      0x00\n        /* \"#utility.yul\":16696:16701   */\n      dup3\n        /* \"#utility.yul\":16690:16694   */\n      dup3\n        /* \"#utility.yul\":16686:16702   */\n      shl\n        /* \"#utility.yul\":16665:16702   */\n      swap1\n      pop\n        /* \"#utility.yul\":16602:16709   */\n      swap3\n      swap2\n      pop\n      pop\n      jump\t// out\n        /* \"#utility.yul\":16715:17108   */\n    tag_223:\n        /* \"#utility.yul\":16784:16790   */\n      0x00\n        /* \"#utility.yul\":16834:16835   */\n      0x08\n        /* \"#utility.yul\":16822:16832   */\n      dup4\n        /* \"#utility.yul\":16818:16836   */\n      mul\n        /* \"#utility.yul\":16857:16954   */\n      tag_404\n        /* \"#utility.yul\":16887:16953   */\n      0xffffffffffffffffffffffffffffffffffffffffffffffffffffffffffffffff\n        /* \"#utility.yul\":16876:16885   */\n      dup3\n        /* \"#utility.yul\":16857:16954   */\n      tag_222\n      jump\t// in\n    tag_404:\n        /* \"#utility.yul\":16975:17014   */\n      tag_405\n        /* \"#utility.yul\":17005:17013   */\n      dup7\n        /* \"#utility.yul\":16994:17003   */\n      dup4\n        /* \"#utility.yul\":16975:17014   */\n      tag_222\n      jump\t// in\n    tag_405:\n        /* \"#utility.yul\":16963:17014   */\n      swap6\n      pop\n        /* \"#utility.yul\":17047:17051   */\n      dup1\n        /* \"#utility.yul\":17043:17052   */\n      not\n        /* \"#utility.yul\":17036:17041   */\n      dup5\n        /* \"#utility.yul\":17032:17053   */\n      and\n        /* \"#utility.yul\":17023:17053   */\n      swap4\n      pop\n        /* \"#utility.yul\":17096:17100   */\n      dup1\n        /* \"#utility.yul\":17086:17094   */\n      dup7\n        /* \"#utility.yul\":17082:17101   */\n      and\n        /* \"#utility.yul\":17075:17080   */\n      dup5\n        /* \"#utility.yul\":17072:17102   */\n      or\n        /* \"#utility.yul\":17062:17102   */\n      swap3\n      pop\n        /* \"#utility.yul\":16791:17108   */\n      pop\n      pop\n        /* \"#utility.yul\":16715:17108   */\n      swap4\n      swap3\n      pop\n      pop\n      pop\n      jump\t// out\n        /* \"#utility.yul\":17114:17174   */\n    tag_224:\n        /* \"#utility.yul\":17142:17145   */\n      0x00\n        /* \"#utility.yul\":17163:17168   */\n      dup2\n        /* \"#utility.yul\":17156:17168   */\n      swap1\n      pop\n        /* \"#utility.yul\":17114:17174   */\n      swap2\n      swap1\n      pop\n      jump\t// out\n        /* \"#utility.yul\":17180:17322   */\n    tag_225:\n        /* \"#utility.yul\":17230:17239   */\n      0x00\n        /* \"#utility.yul\":17263:17316   */\n      tag_408\n        /* \"#utility.yul\":17281:17315   */\n      tag_409\n        /* \"#utility.yul\":17290:17314   */\n      tag_410\n        /* \"#utility.yul\":17308:17313   */\n      dup5\n        /* \"#utility.yul\":17290:17314   */\n      tag_175\n      jump\t// in\n    tag_410:\n        /* \"#utility.yul\":17281:17315   */\n      tag_224\n      jump\t// in\n    tag_409:\n        /* \"#utility.yul\":17263:17316   */\n      tag_175\n      jump\t// in\n    tag_408:\n        /* \"#utility.yul\":17250:17316   */\n      swap1\n      pop\n        /* \"#utility.yul\":17180:17322   */\n      swap2\n      swap1\n      pop\n      jump\t// out\n        /* \"#utility.yul\":17328:17403   */\n    tag_226:\n        /* \"#utility.yul\":17371:17374   */\n      0x00\n        /* \"#utility.yul\":17392:17397   */\n      dup2\n        /* \"#utility.yul\":17385:17397   */\n      swap1\n      pop\n        /* \"#utility.yul\":17328:17403   */\n      swap2\n      swap1\n      pop\n      jump\t// out\n        /* \"#utility.yul\":17409:17678   */\n    tag_227:\n        /* \"#utility.yul\":17519:17558   */\n      tag_413\n        /* \"#utility.yul\":17550:17557   */\n      dup4\n        /* \"#utility.yul\":17519:17558   */\n      tag_225\n      jump\t// in\n    tag_413:\n        /* \"#utility.yul\":17580:17671   */\n      tag_414\n        /* \"#utility.yul\":17629:17670   */\n      tag_415\n        /* \"#utility.yul\":17653:17669   */\n      dup3\n        /* \"#utility.yul\":17629:17670   */\n      tag_226\n      jump\t// in\n    tag_415:\n        /* \"#utility.yul\":17621:17627   */\n      dup5\n        /* \"#utility.yul\":17614:17618   */\n      dup5\n        /* \"#utility.yul\":17608:17619   */\n      sload\n        /* \"#utility.yul\":17580:17671   */\n      tag_223\n      jump\t// in\n    tag_414:\n        /* \"#utility.yul\":17574:17578   */\n      dup3\n        /* \"#utility.yul\":17567:17672   */\n      sstore\n        /* \"#utility.yul\":17485:17678   */\n      pop\n        /* \"#utility.yul\":17409:17678   */\n      pop\n      pop\n      pop\n      jump\t// out\n        /* \"#utility.yul\":17684:17757   */\n    tag_228:\n        /* \"#utility.yul\":17729:17732   */\n      0x00\n        /* \"#utility.yul\":17750:17751   */\n      0x00\n        /* \"#utility.yul\":17743:17751   */\n      swap1\n      pop\n        /* \"#utility.yul\":17684:17757   */\n      swap1\n      jump\t// out\n        /* \"#utility.yul\":17763:17952   */\n    tag_229:\n        /* \"#utility.yul\":17840:17872   */\n      tag_418\n      tag_228\n      jump\t// in\n    tag_418:\n        /* \"#utility.yul\":17881:17946   */\n      tag_419\n        /* \"#utility.yul\":17939:17945   */\n      dup2\n        /* \"#utility.yul\":17931:17937   */\n      dup5\n        /* \"#utility.yul\":17925:17929   */\n      dup5\n        /* \"#utility.yul\":17881:17946   */\n      tag_227\n      jump\t// in\n    tag_419:\n        /* \"#utility.yul\":17816:17952   */\n      pop\n        /* \"#utility.yul\":17763:17952   */\n      pop\n      pop\n      jump\t// out\n        /* \"#utility.yul\":17958:18144   */\n    tag_230:\n        /* \"#utility.yul\":18018:18138   */\n    tag_421:\n        /* \"#utility.yul\":18035:18038   */\n      dup2\n        /* \"#utility.yul\":18028:18033   */\n      dup2\n        /* \"#utility.yul\":18025:18039   */\n      lt\n        /* \"#utility.yul\":18018:18138   */\n      iszero\n      tag_423\n      jumpi\n        /* \"#utility.yul\":18089:18128   */\n      tag_424\n        /* \"#utility.yul\":18126:18127   */\n      0x00\n        /* \"#utility.yul\":18119:18124   */\n      dup3\n        /* \"#utility.yul\":18089:18128   */\n      tag_229\n      jump\t// in\n    tag_424:\n        /* \"#utility.yul\":18062:18063   */\n      0x01\n        /* \"#utility.yul\":18055:18060   */\n      dup2\n        /* \"#utility.yul\":18051:18064   */\n      add\n        /* \"#utility.yul\":18042:18064   */\n      swap1\n      pop\n        /* \"#utility.yul\":18018:18138   */\n      jump(tag_421)\n    tag_423:\n        /* \"#utility.yul\":17958:18144   */\n      pop\n      pop\n      jump\t// out\n        /* \"#utility.yul\":18150:18691   */\n    tag_231:\n        /* \"#utility.yul\":18250:18252   */\n      0x1f\n        /* \"#utility.yul\":18245:18248   */\n      dup3\n        /* \"#utility.yul\":18242:18253   */\n      gt\n        /* \"#utility.yul\":18239:18684   */\n      iszero\n      tag_426\n      jumpi\n        /* \"#utility.yul\":18284:18321   */\n      tag_427\n        /* \"#utility.yul\":18315:18320   */\n      dup2\n        /* \"#utility.yul\":18284:18321   */\n      tag_220\n      jump\t// in\n    tag_427:\n        /* \"#utility.yul\":18367:18396   */\n      tag_428\n        /* \"#utility.yul\":18385:18395   */\n      dup5\n        /* \"#utility.yul\":18367:18396   */\n      tag_221\n      jump\t// in\n    tag_428:\n        /* \"#utility.yul\":18357:18365   */\n      dup2\n        /* \"#utility.yul\":18353:18397   */\n      add\n        /* \"#utility.yul\":18550:18552   */\n      0x20\n        /* \"#utility.yul\":18538:18548   */\n      dup6\n        /* \"#utility.yul\":18535:18553   */\n      lt\n        /* \"#utility.yul\":18532:18581   */\n      iszero\n      tag_429\n      jumpi\n        /* \"#utility.yul\":18571:18579   */\n      dup2\n        /* \"#utility.yul\":18556:18579   */\n      swap1\n      pop\n        /* \"#utility.yul\":18532:18581   */\n    tag_429:\n        /* \"#utility.yul\":18594:18674   */\n      tag_430\n        /* \"#utility.yul\":18650:18672   */\n      tag_431\n        /* \"#utility.yul\":18668:18671   */\n      dup6\n        /* \"#utility.yul\":18650:18672   */\n      tag_221\n      jump\t// in\n    tag_431:\n        /* \"#utility.yul\":18640:18648   */\n      dup4\n        /* \"#utility.yul\":18636:18673   */\n      add\n        /* \"#utility.yul\":18623:18634   */\n      dup3\n        /* \"#utility.yul\":18594:18674   */\n      tag_230\n      jump\t// in\n    tag_430:\n        /* \"#utility.yul\":18254:18684   */\n      pop\n      pop\n        /* \"#utility.yul\":18239:18684   */\n    tag_426:\n        /* \"#utility.yul\":18150:18691   */\n      pop\n      pop\n      pop\n      jump\t// out\n        /* \"#utility.yul\":18697:18814   */\n    tag_232:\n        /* \"#utility.yul\":18751:18759   */\n      0x00\n        /* \"#utility.yul\":18801:18806   */\n      dup3\n        /* \"#utility.yul\":18795:18799   */\n      dup3\n        /* \"#utility.yul\":18791:18807   */\n      shr\n        /* \"#utility.yul\":18770:18807   */\n      swap1\n      pop\n        /* \"#utility.yul\":18697:18814   */\n      swap3\n      swap2\n      pop\n      pop\n      jump\t// out\n        /* \"#utility.yul\":18820:18989   */\n    tag_233:\n        /* \"#utility.yul\":18864:18870   */\n      0x00\n        /* \"#utility.yul\":18897:18948   */\n      tag_434\n        /* \"#utility.yul\":18945:18946   */\n      0x00\n        /* \"#utility.yul\":18941:18947   */\n      not\n        /* \"#utility.yul\":18933:18938   */\n      dup5\n        /* \"#utility.yul\":18930:18931   */\n      0x08\n        /* \"#utility.yul\":18926:18939   */\n      mul\n        /* \"#utility.yul\":18897:18948   */\n      tag_232\n      jump\t// in\n    tag_434:\n        /* \"#utility.yul\":18893:18949   */\n      not\n        /* \"#utility.yul\":18978:18982   */\n      dup1\n        /* \"#utility.yul\":18972:18976   */\n      dup4\n        /* \"#utility.yul\":18968:18983   */\n      and\n        /* \"#utility.yul\":18958:18983   */\n      swap2\n      pop\n        /* \"#utility.yul\":18871:18989   */\n      pop\n        /* \"#utility.yul\":18820:18989   */\n      swap3\n      swap2\n      pop\n      pop\n      jump\t// out\n        /* \"#utility.yul\":18994:19289   */\n    tag_234:\n        /* \"#utility.yul\":19070:19074   */\n      0x00\n        /* \"#utility.yul\":19216:19245   */\n      tag_436\n        /* \"#utility.yul\":19241:19244   */\n      dup4\n        /* \"#utility.yul\":19235:19239   */\n      dup4\n        /* \"#utility.yul\":19216:19245   */\n      tag_233\n      jump\t// in\n    tag_436:\n        /* \"#utility.yul\":19208:19245   */\n      swap2\n      pop\n        /* \"#utility.yul\":19278:19281   */\n      dup3\n        /* \"#utility.yul\":19275:19276   */\n      0x02\n        /* \"#utility.yul\":19271:19282   */\n      mul\n        /* \"#utility.yul\":19265:19269   */\n      dup3\n        /* \"#utility.yul\":19262:19283   */\n      or\n        /* \"#utility.yul\":19254:19283   */\n      swap1\n      pop\n        /* \"#utility.yul\":18994:19289   */\n      swap3\n      swap2\n      pop\n      pop\n      jump\t// out\n        /* \"#utility.yul\":19294:20684   */\n    tag_142:\n        /* \"#utility.yul\":19409:19445   */\n      tag_438\n        /* \"#utility.yul\":19441:19444   */\n      dup3\n        /* \"#utility.yul\":19409:19445   */\n      tag_186\n      jump\t// in\n    tag_438:\n        /* \"#utility.yul\":19510:19528   */\n      0xffffffffffffffff\n        /* \"#utility.yul\":19502:19508   */\n      dup2\n        /* \"#utility.yul\":19499:19529   */\n      gt\n        /* \"#utility.yul\":19496:19552   */\n      iszero\n      tag_439\n      jumpi\n        /* \"#utility.yul\":19532:19550   */\n      tag_440\n      tag_200\n      jump\t// in\n    tag_440:\n        /* \"#utility.yul\":19496:19552   */\n    tag_439:\n        /* \"#utility.yul\":19576:19614   */\n      tag_441\n        /* \"#utility.yul\":19608:19612   */\n      dup3\n        /* \"#utility.yul\":19602:19613   */\n      sload\n        /* \"#utility.yul\":19576:19614   */\n      tag_99\n      jump\t// in\n    tag_441:\n        /* \"#utility.yul\":19661:19727   */\n      tag_442\n        /* \"#utility.yul\":19720:19726   */\n      dup3\n        /* \"#utility.yul\":19712:19718   */\n      dup3\n        /* \"#utility.yul\":19706:19710   */\n      dup6\n        /* \"#utility.yul\":19661:19727   */\n      tag_231\n      jump\t// in\n    tag_442:\n        /* \"#utility.yul\":19754:19755   */\n      0x00\n        /* \"#utility.yul\":19778:19782   */\n      0x20\n        /* \"#utility.yul\":19765:19782   */\n      swap1\n      pop\n        /* \"#utility.yul\":19810:19812   */\n      0x1f\n        /* \"#utility.yul\":19802:19808   */\n      dup4\n        /* \"#utility.yul\":19799:19813   */\n      gt\n        /* \"#utility.yul\":19827:19828   */\n      0x01\n        /* \"#utility.yul\":19822:20439   */\n      dup2\n      eq\n      tag_444\n      jumpi\n        /* \"#utility.yul\":20483:20484   */\n      0x00\n        /* \"#utility.yul\":20500:20506   */\n      dup5\n        /* \"#utility.yul\":20497:20574   */\n      iszero\n      tag_445\n      jumpi\n        /* \"#utility.yul\":20549:20558   */\n      dup3\n        /* \"#utility.yul\":20544:20547   */\n      dup8\n        /* \"#utility.yul\":20540:20559   */\n      add\n        /* \"#utility.yul\":20534:20560   */\n      mload\n        /* \"#utility.yul\":20525:20560   */\n      swap1\n      pop\n        /* \"#utility.yul\":20497:20574   */\n    tag_445:\n        /* \"#utility.yul\":20600:20667   */\n      tag_446\n        /* \"#utility.yul\":20660:20666   */\n      dup6\n        /* \"#utility.yul\":20653:20658   */\n      dup3\n        /* \"#utility.yul\":20600:20667   */\n      tag_234\n      jump\t// in\n    tag_446:\n        /* \"#utility.yul\":20594:20598   */\n      dup7\n        /* \"#utility.yul\":20587:20668   */\n      sstore\n        /* \"#utility.yul\":20456:20678   */\n      pop\n        /* \"#utility.yul\":19792:20678   */\n      jump(tag_443)\n        /* \"#utility.yul\":19822:20439   */\n    tag_444:\n        /* \"#utility.yul\":19874:19878   */\n      0x1f\n        /* \"#utility.yul\":19870:19879   */\n      not\n        /* \"#utility.yul\":19862:19868   */\n      dup5\n        /* \"#utility.yul\":19858:19880   */\n      and\n        /* \"#utility.yul\":19908:19944   */\n      tag_447\n        /* \"#utility.yul\":19939:19943   */\n      dup7\n        /* \"#utility.yul\":19908:19944   */\n      tag_220\n      jump\t// in\n    tag_447:\n        /* \"#utility.yul\":19966:19967   */\n      0x00\n        /* \"#utility.yul\":19980:20188   */\n    tag_448:\n        /* \"#utility.yul\":19994:20001   */\n      dup3\n        /* \"#utility.yul\":19991:19992   */\n      dup2\n        /* \"#utility.yul\":19988:20002   */\n      lt\n        /* \"#utility.yul\":19980:20188   */\n      iszero\n      tag_450\n      jumpi\n        /* \"#utility.yul\":20073:20082   */\n      dup5\n        /* \"#utility.yul\":20068:20071   */\n      dup10\n        /* \"#utility.yul\":20064:20083   */\n      add\n        /* \"#utility.yul\":20058:20084   */\n      mload\n        /* \"#utility.yul\":20050:20056   */\n      dup3\n        /* \"#utility.yul\":20043:20085   */\n      sstore\n        /* \"#utility.yul\":20124:20125   */\n      0x01\n        /* \"#utility.yul\":20116:20122   */\n      dup3\n        /* \"#utility.yul\":20112:20126   */\n      add\n        /* \"#utility.yul\":20102:20126   */\n      swap2\n      pop\n        /* \"#utility.yul\":20171:20173   */\n      0x20\n        /* \"#utility.yul\":20160:20169   */\n      dup6\n        /* \"#utility.yul\":20156:20174   */\n      add\n        /* \"#utility.yul\":20143:20174   */\n      swap5\n      pop\n        /* \"#utility.yul\":20017:20021   */\n      0x20\n        /* \"#utility.yul\":20014:20015   */\n      dup2\n        /* \"#utility.yul\":20010:20022   */\n      add\n        /* \"#utility.yul\":20005:20022   */\n      swap1\n      pop\n        /* \"#utility.yul\":19980:20188   */\n      jump(tag_448)\n    tag_450:\n        /* \"#utility.yul\":20216:20222   */\n      dup7\n        /* \"#utility.yul\":20207:20214   */\n      dup4\n        /* \"#utility.yul\":20204:20223   */\n      lt\n        /* \"#utility.yul\":20201:20380   */\n      iszero\n      tag_451\n      jumpi\n        /* \"#utility.yul\":20274:20283   */\n      dup5\n        /* \"#utility.yul\":20269:20272   */\n      dup10\n        /* \"#utility.yul\":20265:20284   */\n      add\n        /* \"#utility.yul\":20259:20285   */\n      mload\n        /* \"#utility.yul\":20317:20365   */\n      tag_452\n        /* \"#utility.yul\":20359:20363   */\n      0x1f\n        /* \"#utility.yul\":20351:20357   */\n      dup10\n        /* \"#utility.yul\":20347:20364   */\n      and\n        /* \"#utility.yul\":20336:20345   */\n      dup3\n        /* \"#utility.yul\":20317:20365   */\n      tag_233\n      jump\t// in\n    tag_452:\n        /* \"#utility.yul\":20309:20315   */\n      dup4\n        /* \"#utility.yul\":20302:20366   */\n      sstore\n        /* \"#utility.yul\":20224:20380   */\n      pop\n        /* \"#utility.yul\":20201:20380   */\n    tag_451:\n        /* \"#utility.yul\":20426:20427   */\n      0x01\n        /* \"#utility.yul\":20422:20423   */\n      0x02\n        /* \"#utility.yul\":20414:20420   */\n      dup9\n        /* \"#utility.yul\":20410:20424   */\n      mul\n        /* \"#utility.yul\":20406:20428   */\n      add\n        /* \"#utility.yul\":20400:20404   */\n      dup9\n        /* \"#utility.yul\":20393:20429   */\n      sstore\n        /* \"#utility.yul\":19829:20439   */\n      pop\n      pop\n      pop\n        /* \"#utility.yul\":19792:20678   */\n    tag_443:\n      pop\n        /* \"#utility.yul\":19384:20684   */\n      pop\n      pop\n      pop\n        /* \"#utility.yul\":19294:20684   */\n      pop\n      pop\n      jump\t// out\n        /* \"#utility.yul\":20690:21109   */\n    tag_144:\n        /* \"#utility.yul\":20829:20833   */\n      0x00\n        /* \"#utility.yul\":20867:20869   */\n      0x40\n        /* \"#utility.yul\":20856:20865   */\n      dup3\n        /* \"#utility.yul\":20852:20870   */\n      add\n        /* \"#utility.yul\":20844:20870   */\n      swap1\n      pop\n        /* \"#utility.yul\":20880:20951   */\n      tag_454\n        /* \"#utility.yul\":20948:20949   */\n      0x00\n        /* \"#utility.yul\":20937:20946   */\n      dup4\n        /* \"#utility.yul\":20933:20950   */\n      add\n        /* \"#utility.yul\":20924:20930   */\n      dup6\n        /* \"#utility.yul\":20880:20951   */\n      tag_181\n      jump\t// in\n    tag_454:\n        /* \"#utility.yul\":20998:21007   */\n      dup2\n        /* \"#utility.yul\":20992:20996   */\n      dup2\n        /* \"#utility.yul\":20988:21008   */\n      sub\n        /* \"#utility.yul\":20983:20985   */\n      0x20\n        /* \"#utility.yul\":20972:20981   */\n      dup4\n        /* \"#utility.yul\":20968:20986   */\n      add\n        /* \"#utility.yul\":20961:21009   */\n      mstore\n        /* \"#utility.yul\":21026:21102   */\n      tag_455\n        /* \"#utility.yul\":21097:21101   */\n      dup2\n        /* \"#utility.yul\":21088:21094   */\n      dup5\n        /* \"#utility.yul\":21026:21102   */\n      tag_190\n      jump\t// in\n    tag_455:\n        /* \"#utility.yul\":21018:21102   */\n      swap1\n      pop\n        /* \"#utility.yul\":20690:21109   */\n      swap4\n      swap3\n      pop\n      pop\n      pop\n      jump\t// out\n        /* \"#utility.yul\":21115:21282   */\n    tag_235:\n        /* \"#utility.yul\":21255:21274   */\n      0x63616e6e6f742065786563757465207478000000000000000000000000000000\n        /* \"#utility.yul\":21251:21252   */\n      0x00\n        /* \"#utility.yul\":21243:21249   */\n      dup3\n        /* \"#utility.yul\":21239:21253   */\n      add\n        /* \"#utility.yul\":21232:21275   */\n      mstore\n        /* \"#utility.yul\":21115:21282   */\n      pop\n      jump\t// out\n        /* \"#utility.yul\":21288:21654   */\n    tag_236:\n        /* \"#utility.yul\":21430:21433   */\n      0x00\n        /* \"#utility.yul\":21451:21518   */\n      tag_458\n        /* \"#utility.yul\":21515:21517   */\n      0x11\n        /* \"#utility.yul\":21510:21513   */\n      dup4\n        /* \"#utility.yul\":21451:21518   */\n      tag_207\n      jump\t// in\n    tag_458:\n        /* \"#utility.yul\":21444:21518   */\n      swap2\n      pop\n        /* \"#utility.yul\":21527:21620   */\n      tag_459\n        /* \"#utility.yul\":21616:21619   */\n      dup3\n        /* \"#utility.yul\":21527:21620   */\n      tag_235\n      jump\t// in\n    tag_459:\n        /* \"#utility.yul\":21645:21647   */\n      0x20\n        /* \"#utility.yul\":21640:21643   */\n      dup3\n        /* \"#utility.yul\":21636:21648   */\n      add\n        /* \"#utility.yul\":21629:21648   */\n      swap1\n      pop\n        /* \"#utility.yul\":21288:21654   */\n      swap2\n      swap1\n      pop\n      jump\t// out\n        /* \"#utility.yul\":21660:22079   */\n    tag_163:\n        /* \"#utility.yul\":21826:21830   */\n      0x00\n        /* \"#utility.yul\":21864:21866   */\n      0x20\n        /* \"#utility.yul\":21853:21862   */\n      dup3\n        /* \"#utility.yul\":21849:21867   */\n      add\n        /* \"#utility.yul\":21841:21867   */\n      swap1\n      pop\n        /* \"#utility.yul\":21913:21922   */\n      dup2\n        /* \"#utility.yul\":21907:21911   */\n      dup2\n        /* \"#utility.yul\":21903:21923   */\n      sub\n        /* \"#utility.yul\":21899:21900   */\n      0x00\n        /* \"#utility.yul\":21888:21897   */\n      dup4\n        /* \"#utility.yul\":21884:21901   */\n      add\n        /* \"#utility.yul\":21877:21924   */\n      mstore\n        /* \"#utility.yul\":21941:22072   */\n      tag_461\n        /* \"#utility.yul\":22067:22071   */\n      dup2\n        /* \"#utility.yul\":21941:22072   */\n      tag_236\n      jump\t// in\n    tag_461:\n        /* \"#utility.yul\":21933:22072   */\n      swap1\n      pop\n        /* \"#utility.yul\":21660:22079   */\n      swap2\n      swap1\n      pop\n      jump\t// out\n        /* \"#utility.yul\":22085:22232   */\n    tag_237:\n        /* \"#utility.yul\":22186:22197   */\n      0x00\n        /* \"#utility.yul\":22223:22226   */\n      dup2\n        /* \"#utility.yul\":22208:22226   */\n      swap1\n      pop\n        /* \"#utility.yul\":22085:22232   */\n      swap3\n      swap2\n      pop\n      pop\n      jump\t// out\n        /* \"#utility.yul\":22260:23130   */\n    tag_238:\n        /* \"#utility.yul\":22361:22364   */\n      0x00\n        /* \"#utility.yul\":22398:22403   */\n      dup2\n        /* \"#utility.yul\":22392:22404   */\n      sload\n        /* \"#utility.yul\":22427:22463   */\n      tag_464\n        /* \"#utility.yul\":22453:22462   */\n      dup2\n        /* \"#utility.yul\":22427:22463   */\n      tag_99\n      jump\t// in\n    tag_464:\n        /* \"#utility.yul\":22479:22567   */\n      tag_465\n        /* \"#utility.yul\":22560:22566   */\n      dup2\n        /* \"#utility.yul\":22555:22558   */\n      dup7\n        /* \"#utility.yul\":22479:22567   */\n      tag_237\n      jump\t// in\n    tag_465:\n        /* \"#utility.yul\":22472:22567   */\n      swap5\n      pop\n        /* \"#utility.yul\":22598:22599   */\n      0x01\n        /* \"#utility.yul\":22587:22596   */\n      dup3\n        /* \"#utility.yul\":22583:22600   */\n      and\n        /* \"#utility.yul\":22614:22615   */\n      0x00\n        /* \"#utility.yul\":22609:22775   */\n      dup2\n      eq\n      tag_467\n      jumpi\n        /* \"#utility.yul\":22789:22790   */\n      0x01\n        /* \"#utility.yul\":22784:23124   */\n      dup2\n      eq\n      tag_468\n      jumpi\n        /* \"#utility.yul\":22576:23124   */\n      jump(tag_466)\n        /* \"#utility.yul\":22609:22775   */\n    tag_467:\n        /* \"#utility.yul\":22693:22697   */\n      0xff\n        /* \"#utility.yul\":22689:22698   */\n      not\n        /* \"#utility.yul\":22678:22687   */\n      dup4\n        /* \"#utility.yul\":22674:22699   */\n      and\n        /* \"#utility.yul\":22669:22672   */\n      dup7\n        /* \"#utility.yul\":22662:22700   */\n      mstore\n        /* \"#utility.yul\":22755:22761   */\n      dup2\n        /* \"#utility.yul\":22748:22762   */\n      iszero\n        /* \"#utility.yul\":22741:22763   */\n      iszero\n        /* \"#utility.yul\":22733:22739   */\n      dup3\n        /* \"#utility.yul\":22729:22764   */\n      mul\n        /* \"#utility.yul\":22724:22727   */\n      dup7\n        /* \"#utility.yul\":22720:22765   */\n      add\n        /* \"#utility.yul\":22713:22765   */\n      swap4\n      pop\n        /* \"#utility.yul\":22609:22775   */\n      jump(tag_466)\n        /* \"#utility.yul\":22784:23124   */\n    tag_468:\n        /* \"#utility.yul\":22851:22888   */\n      tag_469\n        /* \"#utility.yul\":22882:22887   */\n      dup6\n        /* \"#utility.yul\":22851:22888   */\n      tag_220\n      jump\t// in\n    tag_469:\n        /* \"#utility.yul\":22910:22911   */\n      0x00\n        /* \"#utility.yul\":22924:23078   */\n    tag_470:\n        /* \"#utility.yul\":22938:22944   */\n      dup4\n        /* \"#utility.yul\":22935:22936   */\n      dup2\n        /* \"#utility.yul\":22932:22945   */\n      lt\n        /* \"#utility.yul\":22924:23078   */\n      iszero\n      tag_472\n      jumpi\n        /* \"#utility.yul\":23012:23019   */\n      dup2\n        /* \"#utility.yul\":23006:23020   */\n      sload\n        /* \"#utility.yul\":23002:23003   */\n      dup2\n        /* \"#utility.yul\":22997:23000   */\n      dup10\n        /* \"#utility.yul\":22993:23004   */\n      add\n        /* \"#utility.yul\":22986:23021   */\n      mstore\n        /* \"#utility.yul\":23062:23063   */\n      0x01\n        /* \"#utility.yul\":23053:23060   */\n      dup3\n        /* \"#utility.yul\":23049:23064   */\n      add\n        /* \"#utility.yul\":23038:23064   */\n      swap2\n      pop\n        /* \"#utility.yul\":22960:22964   */\n      0x20\n        /* \"#utility.yul\":22957:22958   */\n      dup2\n        /* \"#utility.yul\":22953:22965   */\n      add\n        /* \"#utility.yul\":22948:22965   */\n      swap1\n      pop\n        /* \"#utility.yul\":22924:23078   */\n      jump(tag_470)\n    tag_472:\n        /* \"#utility.yul\":23107:23113   */\n      dup4\n        /* \"#utility.yul\":23102:23105   */\n      dup9\n        /* \"#utility.yul\":23098:23114   */\n      add\n        /* \"#utility.yul\":23091:23114   */\n      swap6\n      pop\n        /* \"#utility.yul\":22791:23124   */\n      pop\n      pop\n        /* \"#utility.yul\":22576:23124   */\n    tag_466:\n      pop\n        /* \"#utility.yul\":22365:23130   */\n      pop\n      pop\n        /* \"#utility.yul\":22260:23130   */\n      swap3\n      swap2\n      pop\n      pop\n      jump\t// out\n        /* \"#utility.yul\":23136:23401   */\n    tag_165:\n        /* \"#utility.yul\":23263:23266   */\n      0x00\n        /* \"#utility.yul\":23285:23375   */\n      tag_474\n        /* \"#utility.yul\":23371:23374   */\n      dup3\n        /* \"#utility.yul\":23362:23368   */\n      dup5\n        /* \"#utility.yul\":23285:23375   */\n      tag_238\n      jump\t// in\n    tag_474:\n        /* \"#utility.yul\":23278:23375   */\n      swap2\n      pop\n        /* \"#utility.yul\":23392:23395   */\n      dup2\n        /* \"#utility.yul\":23385:23395   */\n      swap1\n      pop\n        /* \"#utility.yul\":23136:23401   */\n      swap3\n      swap2\n      pop\n      pop\n      jump\t// out\n        /* \"#utility.yul\":23407:23566   */\n    tag_239:\n        /* \"#utility.yul\":23547:23558   */\n      0x7478206661696c65640000000000000000000000000000000000000000000000\n        /* \"#utility.yul\":23543:23544   */\n      0x00\n        /* \"#utility.yul\":23535:23541   */\n      dup3\n        /* \"#utility.yul\":23531:23545   */\n      add\n        /* \"#utility.yul\":23524:23559   */\n      mstore\n        /* \"#utility.yul\":23407:23566   */\n      pop\n      jump\t// out\n        /* \"#utility.yul\":23572:23937   */\n    tag_240:\n        /* \"#utility.yul\":23714:23717   */\n      0x00\n        /* \"#utility.yul\":23735:23801   */\n      tag_477\n        /* \"#utility.yul\":23799:23800   */\n      0x09\n        /* \"#utility.yul\":23794:23797   */\n      dup4\n        /* \"#utility.yul\":23735:23801   */\n      tag_207\n      jump\t// in\n    tag_477:\n        /* \"#utility.yul\":23728:23801   */\n      swap2\n      pop\n        /* \"#utility.yul\":23810:23903   */\n      tag_478\n        /* \"#utility.yul\":23899:23902   */\n      dup3\n        /* \"#utility.yul\":23810:23903   */\n      tag_239\n      jump\t// in\n    tag_478:\n        /* \"#utility.yul\":23928:23930   */\n      0x20\n        /* \"#utility.yul\":23923:23926   */\n      dup3\n        /* \"#utility.yul\":23919:23931   */\n      add\n        /* \"#utility.yul\":23912:23931   */\n      swap1\n      pop\n        /* \"#utility.yul\":23572:23937   */\n      swap2\n      swap1\n      pop\n      jump\t// out\n        /* \"#utility.yul\":23943:24362   */\n    tag_171:\n        /* \"#utility.yul\":24109:24113   */\n      0x00\n        /* \"#utility.yul\":24147:24149   */\n      0x20\n        /* \"#utility.yul\":24136:24145   */\n      dup3\n        /* \"#utility.yul\":24132:24150   */\n      add\n        /* \"#utility.yul\":24124:24150   */\n      swap1\n      pop\n        /* \"#utility.yul\":24196:24205   */\n      dup2\n        /* \"#utility.yul\":24190:24194   */\n      dup2\n        /* \"#utility.yul\":24186:24206   */\n      sub\n        /* \"#utility.yul\":24182:24183   */\n      0x00\n        /* \"#utility.yul\":24171:24180   */\n      dup4\n        /* \"#utility.yul\":24167:24184   */\n      add\n        /* \"#utility.yul\":24160:24207   */\n      mstore\n        /* \"#utility.yul\":24224:24355   */\n      tag_480\n        /* \"#utility.yul\":24350:24354   */\n      dup2\n        /* \"#utility.yul\":24224:24355   */\n      tag_240\n      jump\t// in\n    tag_480:\n        /* \"#utility.yul\":24216:24355   */\n      swap1\n      pop\n        /* \"#utility.yul\":23943:24362   */\n      swap2\n      swap1\n      pop\n      jump\t// out\n\n    auxdata: 0xa2646970667358221220c791090dbc14b7afde2bf494182420d61dfb1ba7c0064e43edc504a4a67f12b064736f6c634300081e0033\n}\n",
				"bytecode": {
					"linkReferences": {},
					"object": "608060405234801561000f575f5ffd5b50604051612374380380612374833981810160405281019061003191906104a5565b5f825111610074576040517f08c379a000000000000000000000000000000000000000000000000000000000815260040161006b90610559565b60405180910390fd5b5f81118015610084575081518111155b6100c3576040517f08c379a00000000000000000000000000000000000000000000000000000000081526004016100ba906105e7565b60405180910390fd5b5f5f90505b82518110156102a8575f8382815181106100e5576100e4610605565b5b602002602001015190505f73ffffffffffffffffffffffffffffffffffffffff168173ffffffffffffffffffffffffffffffffffffffff160361015d576040517f08c379a00000000000000000000000000000000000000000000000000000000081526004016101549061067c565b60405180910390fd5b60015f8273ffffffffffffffffffffffffffffffffffffffff1673ffffffffffffffffffffffffffffffffffffffff1681526020019081526020015f205f9054906101000a900460ff16156101e7576040517f08c379a00000000000000000000000000000000000000000000000000000000081526004016101de906106e4565b60405180910390fd5b6001805f8373ffffffffffffffffffffffffffffffffffffffff1673ffffffffffffffffffffffffffffffffffffffff1681526020019081526020015f205f6101000a81548160ff0219169083151502179055505f81908060018154018082558091505060019003905f5260205f20015f9091909190916101000a81548173ffffffffffffffffffffffffffffffffffffffff021916908373ffffffffffffffffffffffffffffffffffffffff1602179055505080806001019150506100c8565b50806002819055505050610702565b5f604051905090565b5f5ffd5b5f5ffd5b5f5ffd5b5f601f19601f8301169050919050565b7f4e487b71000000000000000000000000000000000000000000000000000000005f52604160045260245ffd5b610312826102cc565b810181811067ffffffffffffffff82111715610331576103306102dc565b5b80604052505050565b5f6103436102b7565b905061034f8282610309565b919050565b5f67ffffffffffffffff82111561036e5761036d6102dc565b5b602082029050602081019050919050565b5f5ffd5b5f73ffffffffffffffffffffffffffffffffffffffff82169050919050565b5f6103ac82610383565b9050919050565b6103bc816103a2565b81146103c6575f5ffd5b50565b5f815190506103d7816103b3565b92915050565b5f6103ef6103ea84610354565b61033a565b905080838252602082019050602084028301858111156104125761041161037f565b5b835b8181101561043b578061042788826103c9565b845260208401935050602081019050610414565b5050509392505050565b5f82601f830112610459576104586102c8565b5b81516104698482602086016103dd565b91505092915050565b5f819050919050565b61048481610472565b811461048e575f5ffd5b50565b5f8151905061049f8161047b565b92915050565b5f5f604083850312156104bb576104ba6102c0565b5b5f83015167ffffffffffffffff8111156104d8576104d76102c4565b5b6104e485828601610445565b92505060206104f585828601610491565b9150509250929050565b5f82825260208201905092915050565b7f6f776e65727320726571756972656400000000000000000000000000000000005f82015250565b5f610543600f836104ff565b915061054e8261050f565b602082019050919050565b5f6020820190508181035f83015261057081610537565b9050919050565b7f696e76616c6964206e756d626572206f6620726571756972656420636f6e66695f8201527f726d6174696f6e73000000000000000000000000000000000000000000000000602082015250565b5f6105d16028836104ff565b91506105dc82610577565b604082019050919050565b5f6020820190508181035f8301526105fe816105c5565b9050919050565b7f4e487b71000000000000000000000000000000000000000000000000000000005f52603260045260245ffd5b7f696e76616c6964206f776e6572000000000000000000000000000000000000005f82015250565b5f610666600d836104ff565b915061067182610632565b602082019050919050565b5f6020820190508181035f8301526106938161065a565b9050919050565b7f6f776e6572206e6f7420756e69717565000000000000000000000000000000005f82015250565b5f6106ce6010836104ff565b91506106d98261069a565b602082019050919050565b5f6020820190508181035f8301526106fb816106c2565b9050919050565b611c658061070f5f395ff3fe608060405234801561000f575f5ffd5b50600436106100b2575f3560e01c80639ace38c21161006f5780639ace38c2146101b4578063a0e67e2b146101e8578063c01a8c8414610206578063c642747414610222578063d0549b851461023e578063ee22610b1461025c576100b2565b8063025e7c27146100b657806320ea8d86146100e65780632e7700f0146101025780632f54bf6e1461012057806333ea3dc81461015057806380f59a6514610184575b5f5ffd5b6100d060048036038101906100cb9190611045565b610278565b6040516100dd91906110af565b60405180910390f35b61010060048036038101906100fb9190611045565b6102b2565b005b61010a610577565b60405161011791906110d7565b60405180910390f35b61013a6004803603810190610135919061111a565b610583565b604051610147919061115f565b60405180910390f35b61016a60048036038101906101659190611045565b6105a0565b60405161017b9594939291906111e8565b60405180910390f35b61019e60048036038101906101999190611240565b6106a9565b6040516101ab919061115f565b60405180910390f35b6101ce60048036038101906101c99190611045565b6106d3565b6040516101df9594939291906111e8565b60405180910390f35b6101f06107c5565b6040516101fd9190611335565b60405180910390f35b610220600480360381019061021b9190611045565b61084f565b005b61023c60048036038101906102379190611481565b610b18565b005b610246610d13565b60405161025391906110d7565b60405180910390f35b61027660048036038101906102719190611045565b610d19565b005b5f8181548110610286575f80fd5b905f5260205f20015f915054906101000a900473ffffffffffffffffffffffffffffffffffffffff1681565b60015f3373ffffffffffffffffffffffffffffffffffffffff1673ffffffffffffffffffffffffffffffffffffffff1681526020019081526020015f205f9054906101000a900460ff1661033b576040517f08c379a000000000000000000000000000000000000000000000000000000000815260040161033290611547565b60405180910390fd5b806004805490508110610383576040517f08c379a000000000000000000000000000000000000000000000000000000000815260040161037a906115af565b60405180910390fd5b8160048181548110610398576103976115cd565b5b905f5260205f2090600502016003015f9054906101000a900460ff16156103f4576040517f08c379a00000000000000000000000000000000000000000000000000000000081526004016103eb90611644565b60405180910390fd5b5f60048481548110610409576104086115cd565b5b905f5260205f209060050201905060035f8581526020019081526020015f205f3373ffffffffffffffffffffffffffffffffffffffff1673ffffffffffffffffffffffffffffffffffffffff1681526020019081526020015f205f9054906101000a900460ff166104af576040517f08c379a00000000000000000000000000000000000000000000000000000000081526004016104a6906116ac565b60405180910390fd5b6001816004015f8282546104c391906116f7565b925050819055505f60035f8681526020019081526020015f205f3373ffffffffffffffffffffffffffffffffffffffff1673ffffffffffffffffffffffffffffffffffffffff1681526020019081526020015f205f6101000a81548160ff021916908315150217905550833373ffffffffffffffffffffffffffffffffffffffff167ff0dca620e2e81f7841d07bcc105e1704fb01475b278a9d4c236e1c62945edd5560405160405180910390a350505050565b5f600480549050905090565b6001602052805f5260405f205f915054906101000a900460ff1681565b5f5f60605f5f5f600487815481106105bb576105ba6115cd565b5b905f5260205f2090600502019050805f015f9054906101000a900473ffffffffffffffffffffffffffffffffffffffff16816001015482600201836003015f9054906101000a900460ff16846004015482805461061790611757565b80601f016020809104026020016040519081016040528092919081815260200182805461064390611757565b801561068e5780601f106106655761010080835404028352916020019161068e565b820191905f5260205f20905b81548152906001019060200180831161067157829003601f168201915b50505050509250955095509550955095505091939590929450565b6003602052815f5260405f20602052805f5260405f205f915091509054906101000a900460ff1681565b600481815481106106e2575f80fd5b905f5260205f2090600502015f91509050805f015f9054906101000a900473ffffffffffffffffffffffffffffffffffffffff169080600101549080600201805461072c90611757565b80601f016020809104026020016040519081016040528092919081815260200182805461075890611757565b80156107a35780601f1061077a576101008083540402835291602001916107a3565b820191905f5260205f20905b81548152906001019060200180831161078657829003601f168201915b505050505090806003015f9054906101000a900460ff16908060040154905085565b60605f80548060200260200160405190810160405280929190818152602001828054801561084557602002820191905f5260205f20905b815f9054906101000a900473ffffffffffffffffffffffffffffffffffffffff1673ffffffffffffffffffffffffffffffffffffffff16815260200190600101908083116107fc575b5050505050905090565b60015f3373ffffffffffffffffffffffffffffffffffffffff1673ffffffffffffffffffffffffffffffffffffffff1681526020019081526020015f205f9054906101000a900460ff166108d8576040517f08c379a00000000000000000000000000000000000000000000000000000000081526004016108cf90611547565b60405180910390fd5b806004805490508110610920576040517f08c379a0000000000000000000000000000000000000000000000000000000008152600401610917906115af565b60405180910390fd5b8160048181548110610935576109346115cd565b5b905f5260205f2090600502016003015f9054906101000a900460ff1615610991576040517f08c379a000000000000000000000000000000000000000000000000000000000815260040161098890611644565b60405180910390fd5b8260035f8281526020019081526020015f205f3373ffffffffffffffffffffffffffffffffffffffff1673ffffffffffffffffffffffffffffffffffffffff1681526020019081526020015f205f9054906101000a900460ff1615610a2b576040517f08c379a0000000000000000000000000000000000000000000000000000000008152600401610a22906117d1565b60405180910390fd5b5f60048581548110610a4057610a3f6115cd565b5b905f5260205f20906005020190506001816004015f828254610a6291906117ef565b92505081905550600160035f8781526020019081526020015f205f3373ffffffffffffffffffffffffffffffffffffffff1673ffffffffffffffffffffffffffffffffffffffff1681526020019081526020015f205f6101000a81548160ff021916908315150217905550843373ffffffffffffffffffffffffffffffffffffffff167f5cbe105e36805f7820e291f799d5794ff948af2a5f664e580382defb6339004160405160405180910390a35050505050565b60015f3373ffffffffffffffffffffffffffffffffffffffff1673ffffffffffffffffffffffffffffffffffffffff1681526020019081526020015f205f9054906101000a900460ff16610ba1576040517f08c379a0000000000000000000000000000000000000000000000000000000008152600401610b9890611547565b60405180910390fd5b5f60048054905090505f6040518060a001604052808673ffffffffffffffffffffffffffffffffffffffff1681526020018581526020018481526020015f151581526020015f8152509050600481908060018154018082558091505060019003905f5260205f2090600502015f909190919091505f820151815f015f6101000a81548173ffffffffffffffffffffffffffffffffffffffff021916908373ffffffffffffffffffffffffffffffffffffffff160217905550602082015181600101556040820151816002019081610c7891906119c2565b506060820151816003015f6101000a81548160ff0219169083151502179055506080820151816004015550508473ffffffffffffffffffffffffffffffffffffffff16823373ffffffffffffffffffffffffffffffffffffffff167fd5a05bf70715ad82a09a756320284a1b54c9ff74cd0f8cce6219e79b563fe59d8787604051610d04929190611a91565b60405180910390a45050505050565b60025481565b60015f3373ffffffffffffffffffffffffffffffffffffffff1673ffffffffffffffffffffffffffffffffffffffff1681526020019081526020015f205f9054906101000a900460ff16610da2576040517f08c379a0000000000000000000000000000000000000000000000000000000008152600401610d9990611547565b60405180910390fd5b806004805490508110610dea576040517f08c379a0000000000000000000000000000000000000000000000000000000008152600401610de1906115af565b60405180910390fd5b8160048181548110610dff57610dfe6115cd565b5b905f5260205f2090600502016003015f9054906101000a900460ff1615610e5b576040517f08c379a0000000000000000000000000000000000000000000000000000000008152600401610e5290611644565b60405180910390fd5b5f60048481548110610e7057610e6f6115cd565b5b905f5260205f209060050201905060025481600401541015610ec7576040517f08c379a0000000000000000000000000000000000000000000000000000000008152600401610ebe90611b09565b60405180910390fd5b6001816003015f6101000a81548160ff0219169083151502179055505f815f015f9054906101000a900473ffffffffffffffffffffffffffffffffffffffff1673ffffffffffffffffffffffffffffffffffffffff16826001015483600201604051610f339190611bb1565b5f6040518083038185875af1925050503d805f8114610f6d576040519150601f19603f3d011682016040523d82523d5f602084013e610f72565b606091505b5050905080610fb6576040517f08c379a0000000000000000000000000000000000000000000000000000000008152600401610fad90611c11565b60405180910390fd5b843373ffffffffffffffffffffffffffffffffffffffff167f5445f318f4f5fcfb66592e68e0cc5822aa15664039bd5f0ffde24c5a8142b1ac60405160405180910390a35050505050565b5f604051905090565b5f5ffd5b5f5ffd5b5f819050919050565b61102481611012565b811461102e575f5ffd5b50565b5f8135905061103f8161101b565b92915050565b5f6020828403121561105a5761105961100a565b5b5f61106784828501611031565b91505092915050565b5f73ffffffffffffffffffffffffffffffffffffffff82169050919050565b5f61109982611070565b9050919050565b6110a98161108f565b82525050565b5f6020820190506110c25f8301846110a0565b92915050565b6110d181611012565b82525050565b5f6020820190506110ea5f8301846110c8565b92915050565b6110f98161108f565b8114611103575f5ffd5b50565b5f81359050611114816110f0565b92915050565b5f6020828403121561112f5761112e61100a565b5b5f61113c84828501611106565b91505092915050565b5f8115159050919050565b61115981611145565b82525050565b5f6020820190506111725f830184611150565b92915050565b5f81519050919050565b5f82825260208201905092915050565b8281835e5f83830152505050565b5f601f19601f8301169050919050565b5f6111ba82611178565b6111c48185611182565b93506111d4818560208601611192565b6111dd816111a0565b840191505092915050565b5f60a0820190506111fb5f8301886110a0565b61120860208301876110c8565b818103604083015261121a81866111b0565b90506112296060830185611150565b61123660808301846110c8565b9695505050505050565b5f5f604083850312156112565761125561100a565b5b5f61126385828601611031565b925050602061127485828601611106565b9150509250929050565b5f81519050919050565b5f82825260208201905092915050565b5f819050602082019050919050565b6112b08161108f565b82525050565b5f6112c183836112a7565b60208301905092915050565b5f602082019050919050565b5f6112e38261127e565b6112ed8185611288565b93506112f883611298565b805f5b8381101561132857815161130f88826112b6565b975061131a836112cd565b9250506001810190506112fb565b5085935050505092915050565b5f6020820190508181035f83015261134d81846112d9565b905092915050565b5f5ffd5b5f5ffd5b7f4e487b71000000000000000000000000000000000000000000000000000000005f52604160045260245ffd5b611393826111a0565b810181811067ffffffffffffffff821117156113b2576113b161135d565b5b80604052505050565b5f6113c4611001565b90506113d0828261138a565b919050565b5f67ffffffffffffffff8211156113ef576113ee61135d565b5b6113f8826111a0565b9050602081019050919050565b828183375f83830152505050565b5f611425611420846113d5565b6113bb565b90508281526020810184848401111561144157611440611359565b5b61144c848285611405565b509392505050565b5f82601f83011261146857611467611355565b5b8135611478848260208601611413565b91505092915050565b5f5f5f606084860312156114985761149761100a565b5b5f6114a586828701611106565b93505060206114b686828701611031565b925050604084013567ffffffffffffffff8111156114d7576114d661100e565b5b6114e386828701611454565b9150509250925092565b5f82825260208201905092915050565b7f6e6f74206f776e657200000000000000000000000000000000000000000000005f82015250565b5f6115316009836114ed565b915061153c826114fd565b602082019050919050565b5f6020820190508181035f83015261155e81611525565b9050919050565b7f747820646f6573206e6f742065786973740000000000000000000000000000005f82015250565b5f6115996011836114ed565b91506115a482611565565b602082019050919050565b5f6020820190508181035f8301526115c68161158d565b9050919050565b7f4e487b71000000000000000000000000000000000000000000000000000000005f52603260045260245ffd5b7f747820616c7265616479206578656375746564000000000000000000000000005f82015250565b5f61162e6013836114ed565b9150611639826115fa565b602082019050919050565b5f6020820190508181035f83015261165b81611622565b9050919050565b7f7478206e6f7420636f6e6669726d6564000000000000000000000000000000005f82015250565b5f6116966010836114ed565b91506116a182611662565b602082019050919050565b5f6020820190508181035f8301526116c38161168a565b9050919050565b7f4e487b71000000000000000000000000000000000000000000000000000000005f52601160045260245ffd5b5f61170182611012565b915061170c83611012565b9250828203905081811115611724576117236116ca565b5b92915050565b7f4e487b71000000000000000000000000000000000000000000000000000000005f52602260045260245ffd5b5f600282049050600182168061176e57607f821691505b6020821081036117815761178061172a565b5b50919050565b7f747820616c726561647920636f6e6669726d65640000000000000000000000005f82015250565b5f6117bb6014836114ed565b91506117c682611787565b602082019050919050565b5f6020820190508181035f8301526117e8816117af565b9050919050565b5f6117f982611012565b915061180483611012565b925082820190508082111561181c5761181b6116ca565b5b92915050565b5f819050815f5260205f209050919050565b5f6020601f8301049050919050565b5f82821b905092915050565b5f6008830261187e7fffffffffffffffffffffffffffffffffffffffffffffffffffffffffffffffff82611843565b6118888683611843565b95508019841693508086168417925050509392505050565b5f819050919050565b5f6118c36118be6118b984611012565b6118a0565b611012565b9050919050565b5f819050919050565b6118dc836118a9565b6118f06118e8826118ca565b84845461184f565b825550505050565b5f5f905090565b6119076118f8565b6119128184846118d3565b505050565b5b818110156119355761192a5f826118ff565b600181019050611918565b5050565b601f82111561197a5761194b81611822565b61195484611834565b81016020851015611963578190505b61197761196f85611834565b830182611917565b50505b505050565b5f82821c905092915050565b5f61199a5f198460080261197f565b1980831691505092915050565b5f6119b2838361198b565b9150826002028217905092915050565b6119cb82611178565b67ffffffffffffffff8111156119e4576119e361135d565b5b6119ee8254611757565b6119f9828285611939565b5f60209050601f831160018114611a2a575f8415611a18578287015190505b611a2285826119a7565b865550611a89565b601f198416611a3886611822565b5f5b82811015611a5f57848901518255600182019150602085019450602081019050611a3a565b86831015611a7c5784890151611a78601f89168261198b565b8355505b6001600288020188555050505b505050505050565b5f604082019050611aa45f8301856110c8565b8181036020830152611ab681846111b0565b90509392505050565b7f63616e6e6f7420657865637574652074780000000000000000000000000000005f82015250565b5f611af36011836114ed565b9150611afe82611abf565b602082019050919050565b5f6020820190508181035f830152611b2081611ae7565b9050919050565b5f81905092915050565b5f8154611b3d81611757565b611b478186611b27565b9450600182165f8114611b615760018114611b7657611ba8565b60ff1983168652811515820286019350611ba8565b611b7f85611822565b5f5b83811015611ba057815481890152600182019150602081019050611b81565b838801955050505b50505092915050565b5f611bbc8284611b31565b915081905092915050565b7f7478206661696c656400000000000000000000000000000000000000000000005f82015250565b5f611bfb6009836114ed565b9150611c0682611bc7565b602082019050919050565b5f6020820190508181035f830152611c2881611bef565b905091905056fea2646970667358221220c791090dbc14b7afde2bf494182420d61dfb1ba7c0064e43edc504a4a67f12b064736f6c634300081e0033",
					"opcodes": "PUSH1 0x80 PUSH1 0x40 MSTORE CALLVALUE DUP1 ISZERO PUSH2 0xF JUMPI PUSH0 PUSH0 REVERT JUMPDEST POP PUSH1 0x40 MLOAD PUSH2 0x2374 CODESIZE SUB DUP1 PUSH2 0x2374 DUP4 CODECOPY DUP2 DUP2 ADD PUSH1 0x40 MSTORE DUP2 ADD SWAP1 PUSH2 0x31 SWAP2 SWAP1 PUSH2 0x4A5 JUMP JUMPDEST PUSH0 DUP3 MLOAD GT PUSH2 0x74 JUMPI PUSH1 0x40 MLOAD PUSH32 0x8C379A000000000000000000000000000000000000000000000000000000000 DUP2 MSTORE PUSH1 0x4 ADD PUSH2 0x6B SWAP1 PUSH2 0x559 JUMP JUMPDEST PUSH1 0x40 MLOAD DUP1 SWAP2 SUB SWAP1 REVERT JUMPDEST PUSH0 DUP2 GT DUP1 ISZERO PUSH2 0x84 JUMPI POP DUP2 MLOAD DUP2 GT ISZERO JUMPDEST PUSH2 0xC3 JUMPI PUSH1 0x40 MLOAD PUSH32 0x8C379A000000000000000000000000000000000000000000000000000000000 DUP2 MSTORE PUSH1 0x4 ADD PUSH2 0xBA SWAP1 PUSH2 0x5E7 JUMP JUMPDEST PUSH1 0x40 MLOAD DUP1 SWAP2 SUB SWAP1 REVERT JUMPDEST PUSH0 PUSH0 SWAP1 POP JUMPDEST DUP3 MLOAD DUP2 LT ISZERO PUSH2 0x2A8 JUMPI PUSH0 DUP4 DUP3 DUP2 MLOAD DUP2 LT PUSH2 0xE5 JUMPI PUSH2 0xE4 PUSH2 0x605 JUMP JUMPDEST JUMPDEST PUSH1 0x20 MUL PUSH1 0x20 ADD ADD MLOAD SWAP1 POP PUSH0 PUSH20 0xFFFFFFFFFFFFFFFFFFFFFFFFFFFFFFFFFFFFFFFF AND DUP2 PUSH20 0xFFFFFFFFFFFFFFFFFFFFFFFFFFFFFFFFFFFFFFFF AND SUB PUSH2 0x15D JUMPI PUSH1 0x40 MLOAD PUSH32 0x8C379A000000000000000000000000000000000000000000000000000000000 DUP2 MSTORE PUSH1 0x4 ADD PUSH2 0x154 SWAP1 PUSH2 0x67C JUMP JUMPDEST PUSH1 0x40 MLOAD DUP1 SWAP2 SUB SWAP1 REVERT JUMPDEST PUSH1 0x1 PUSH0 DUP3 PUSH20 0xFFFFFFFFFFFFFFFFFFFFFFFFFFFFFFFFFFFFFFFF AND PUSH20 0xFFFFFFFFFFFFFFFFFFFFFFFFFFFFFFFFFFFFFFFF AND DUP2 MSTORE PUSH1 0x20 ADD SWAP1 DUP2 MSTORE PUSH1 0x20 ADD PUSH0 KECCAK256 PUSH0 SWAP1 SLOAD SWAP1 PUSH2 0x100 EXP SWAP1 DIV PUSH1 0xFF AND ISZERO PUSH2 0x1E7 JUMPI PUSH1 0x40 MLOAD PUSH32 0x8C379A000000000000000000000000000000000000000000000000000000000 DUP2 MSTORE PUSH1 0x4 ADD PUSH2 0x1DE SWAP1 PUSH2 0x6E4 JUMP JUMPDEST PUSH1 0x40 MLOAD DUP1 SWAP2 SUB SWAP1 REVERT JUMPDEST PUSH1 0x1 DUP1 PUSH0 DUP4 PUSH20 0xFFFFFFFFFFFFFFFFFFFFFFFFFFFFFFFFFFFFFFFF AND PUSH20 0xFFFFFFFFFFFFFFFFFFFFFFFFFFFFFFFFFFFFFFFF AND DUP2 MSTORE PUSH1 0x20 ADD SWAP1 DUP2 MSTORE PUSH1 0x20 ADD PUSH0 KECCAK256 PUSH0 PUSH2 0x100 EXP DUP2 SLOAD DUP2 PUSH1 0xFF MUL NOT AND SWAP1 DUP4 ISZERO ISZERO MUL OR SWAP1 SSTORE POP PUSH0 DUP2 SWAP1 DUP1 PUSH1 0x1 DUP2 SLOAD ADD DUP1 DUP3 SSTORE DUP1 SWAP2 POP POP PUSH1 0x1 SWAP1 SUB SWAP1 PUSH0 MSTORE PUSH1 0x20 PUSH0 KECCAK256 ADD PUSH0 SWAP1 SWAP2 SWAP1 SWAP2 SWAP1 SWAP2 PUSH2 0x100 EXP DUP2 SLOAD DUP2 PUSH20 0xFFFFFFFFFFFFFFFFFFFFFFFFFFFFFFFFFFFFFFFF MUL NOT AND SWAP1 DUP4 PUSH20 0xFFFFFFFFFFFFFFFFFFFFFFFFFFFFFFFFFFFFFFFF AND MUL OR SWAP1 SSTORE POP POP DUP1 DUP1 PUSH1 0x1 ADD SWAP2 POP POP PUSH2 0xC8 JUMP JUMPDEST POP DUP1 PUSH1 0x2 DUP2 SWAP1 SSTORE POP POP POP PUSH2 0x702 JUMP JUMPDEST PUSH0 PUSH1 0x40 MLOAD SWAP1 POP SWAP1 JUMP JUMPDEST PUSH0 PUSH0 REVERT JUMPDEST PUSH0 PUSH0 REVERT JUMPDEST PUSH0 PUSH0 REVERT JUMPDEST PUSH0 PUSH1 0x1F NOT PUSH1 0x1F DUP4 ADD AND SWAP1 POP SWAP2 SWAP1 POP JUMP JUMPDEST PUSH32 0x4E487B7100000000000000000000000000000000000000000000000000000000 PUSH0 MSTORE PUSH1 0x41 PUSH1 0x4 MSTORE PUSH1 0x24 PUSH0 REVERT JUMPDEST PUSH2 0x312 DUP3 PUSH2 0x2CC JUMP JUMPDEST DUP2 ADD DUP2 DUP2 LT PUSH8 0xFFFFFFFFFFFFFFFF DUP3 GT OR ISZERO PUSH2 0x331 JUMPI PUSH2 0x330 PUSH2 0x2DC JUMP JUMPDEST JUMPDEST DUP1 PUSH1 0x40 MSTORE POP POP POP JUMP JUMPDEST PUSH0 PUSH2 0x343 PUSH2 0x2B7 JUMP JUMPDEST SWAP1 POP PUSH2 0x34F DUP3 DUP3 PUSH2 0x309 JUMP JUMPDEST SWAP2 SWAP1 POP JUMP JUMPDEST PUSH0 PUSH8 0xFFFFFFFFFFFFFFFF DUP3 GT ISZERO PUSH2 0x36E JUMPI PUSH2 0x36D PUSH2 0x2DC JUMP JUMPDEST JUMPDEST PUSH1 0x20 DUP3 MUL SWAP1 POP PUSH1 0x20 DUP2 ADD SWAP1 POP SWAP2 SWAP1 POP JUMP JUMPDEST PUSH0 PUSH0 REVERT JUMPDEST PUSH0 PUSH20 0xFFFFFFFFFFFFFFFFFFFFFFFFFFFFFFFFFFFFFFFF DUP3 AND SWAP1 POP SWAP2 SWAP1 POP JUMP JUMPDEST PUSH0 PUSH2 0x3AC DUP3 PUSH2 0x383 JUMP JUMPDEST SWAP1 POP SWAP2 SWAP1 POP JUMP JUMPDEST PUSH2 0x3BC DUP2 PUSH2 0x3A2 JUMP JUMPDEST DUP2 EQ PUSH2 0x3C6 JUMPI PUSH0 PUSH0 REVERT JUMPDEST POP JUMP JUMPDEST PUSH0 DUP2 MLOAD SWAP1 POP PUSH2 0x3D7 DUP2 PUSH2 0x3B3 JUMP JUMPDEST SWAP3 SWAP2 POP POP JUMP JUMPDEST PUSH0 PUSH2 0x3EF PUSH2 0x3EA DUP5 PUSH2 0x354 JUMP JUMPDEST PUSH2 0x33A JUMP JUMPDEST SWAP1 POP DUP1 DUP4 DUP3 MSTORE PUSH1 0x20 DUP3 ADD SWAP1 POP PUSH1 0x20 DUP5 MUL DUP4 ADD DUP6 DUP2 GT ISZERO PUSH2 0x412 JUMPI PUSH2 0x411 PUSH2 0x37F JUMP JUMPDEST JUMPDEST DUP4 JUMPDEST DUP2 DUP2 LT ISZERO PUSH2 0x43B JUMPI DUP1 PUSH2 0x427 DUP9 DUP3 PUSH2 0x3C9 JUMP JUMPDEST DUP5 MSTORE PUSH1 0x20 DUP5 ADD SWAP4 POP POP PUSH1 0x20 DUP2 ADD SWAP1 POP PUSH2 0x414 JUMP JUMPDEST POP POP POP SWAP4 SWAP3 POP POP POP JUMP JUMPDEST PUSH0 DUP3 PUSH1 0x1F DUP4 ADD SLT PUSH2 0x459 JUMPI PUSH2 0x458 PUSH2 0x2C8 JUMP JUMPDEST JUMPDEST DUP2 MLOAD PUSH2 0x469 DUP5 DUP3 PUSH1 0x20 DUP7 ADD PUSH2 0x3DD JUMP JUMPDEST SWAP2 POP POP SWAP3 SWAP2 POP POP JUMP JUMPDEST PUSH0 DUP2 SWAP1 POP SWAP2 SWAP1 POP JUMP JUMPDEST PUSH2 0x484 DUP2 PUSH2 0x472 JUMP JUMPDEST DUP2 EQ PUSH2 0x48E JUMPI PUSH0 PUSH0 REVERT JUMPDEST POP JUMP JUMPDEST PUSH0 DUP2 MLOAD SWAP1 POP PUSH2 0x49F DUP2 PUSH2 0x47B JUMP JUMPDEST SWAP3 SWAP2 POP POP JUMP JUMPDEST PUSH0 PUSH0 PUSH1 0x40 DUP4 DUP6 SUB SLT ISZERO PUSH2 0x4BB JUMPI PUSH2 0x4BA PUSH2 0x2C0 JUMP JUMPDEST JUMPDEST PUSH0 DUP4 ADD MLOAD PUSH8 0xFFFFFFFFFFFFFFFF DUP2 GT ISZERO PUSH2 0x4D8 JUMPI PUSH2 0x4D7 PUSH2 0x2C4 JUMP JUMPDEST JUMPDEST PUSH2 0x4E4 DUP6 DUP3 DUP7 ADD PUSH2 0x445 JUMP JUMPDEST SWAP3 POP POP PUSH1 0x20 PUSH2 0x4F5 DUP6 DUP3 DUP7 ADD PUSH2 0x491 JUMP JUMPDEST SWAP2 POP POP SWAP3 POP SWAP3 SWAP1 POP JUMP JUMPDEST PUSH0 DUP3 DUP3 MSTORE PUSH1 0x20 DUP3 ADD SWAP1 POP SWAP3 SWAP2 POP POP JUMP JUMPDEST PUSH32 0x6F776E6572732072657175697265640000000000000000000000000000000000 PUSH0 DUP3 ADD MSTORE POP JUMP JUMPDEST PUSH0 PUSH2 0x543 PUSH1 0xF DUP4 PUSH2 0x4FF JUMP JUMPDEST SWAP2 POP PUSH2 0x54E DUP3 PUSH2 0x50F JUMP JUMPDEST PUSH1 0x20 DUP3 ADD SWAP1 POP SWAP2 SWAP1 POP JUMP JUMPDEST PUSH0 PUSH1 0x20 DUP3 ADD SWAP1 POP DUP2 DUP2 SUB PUSH0 DUP4 ADD MSTORE PUSH2 0x570 DUP2 PUSH2 0x537 JUMP JUMPDEST SWAP1 POP SWAP2 SWAP1 POP JUMP JUMPDEST PUSH32 0x696E76616C6964206E756D626572206F6620726571756972656420636F6E6669 PUSH0 DUP3 ADD MSTORE PUSH32 0x726D6174696F6E73000000000000000000000000000000000000000000000000 PUSH1 0x20 DUP3 ADD MSTORE POP JUMP JUMPDEST PUSH0 PUSH2 0x5D1 PUSH1 0x28 DUP4 PUSH2 0x4FF JUMP JUMPDEST SWAP2 POP PUSH2 0x5DC DUP3 PUSH2 0x577 JUMP JUMPDEST PUSH1 0x40 DUP3 ADD SWAP1 POP SWAP2 SWAP1 POP JUMP JUMPDEST PUSH0 PUSH1 0x20 DUP3 ADD SWAP1 POP DUP2 DUP2 SUB PUSH0 DUP4 ADD MSTORE PUSH2 0x5FE DUP2 PUSH2 0x5C5 JUMP JUMPDEST SWAP1 POP SWAP2 SWAP1 POP JUMP JUMPDEST PUSH32 0x4E487B7100000000000000000000000000000000000000000000000000000000 PUSH0 MSTORE PUSH1 0x32 PUSH1 0x4 MSTORE PUSH1 0x24 PUSH0 REVERT JUMPDEST PUSH32 0x696E76616C6964206F776E657200000000000000000000000000000000000000 PUSH0 DUP3 ADD MSTORE POP JUMP JUMPDEST PUSH0 PUSH2 0x666 PUSH1 0xD DUP4 PUSH2 0x4FF JUMP JUMPDEST SWAP2 POP PUSH2 0x671 DUP3 PUSH2 0x632 JUMP JUMPDEST PUSH1 0x20 DUP3 ADD SWAP1 POP SWAP2 SWAP1 POP JUMP JUMPDEST PUSH0 PUSH1 0x20 DUP3 ADD SWAP1 POP DUP2 DUP2 SUB PUSH0 DUP4 ADD MSTORE PUSH2 0x693 DUP2 PUSH2 0x65A JUMP JUMPDEST SWAP1 POP SWAP2 SWAP1 POP JUMP JUMPDEST PUSH32 0x6F776E6572206E6F7420756E6971756500000000000000000000000000000000 PUSH0 DUP3 ADD MSTORE POP JUMP JUMPDEST PUSH0 PUSH2 0x6CE PUSH1 0x10 DUP4 PUSH2 0x4FF JUMP JUMPDEST SWAP2 POP PUSH2 0x6D9 DUP3 PUSH2 0x69A JUMP JUMPDEST PUSH1 0x20 DUP3 ADD SWAP1 POP SWAP2 SWAP1 POP JUMP JUMPDEST PUSH0 PUSH1 0x20 DUP3 ADD SWAP1 POP DUP2 DUP2 SUB PUSH0 DUP4 ADD MSTORE PUSH2 0x6FB DUP2 PUSH2 0x6C2 JUMP JUMPDEST SWAP1 POP SWAP2 SWAP1 POP JUMP JUMPDEST PUSH2 0x1C65 DUP1 PUSH2 0x70F PUSH0 CODECOPY PUSH0 RETURN INVALID PUSH1 0x80 PUSH1 0x40 MSTORE CALLVALUE DUP1 ISZERO PUSH2 0xF JUMPI PUSH0 PUSH0 REVERT JUMPDEST POP PUSH1 0x4 CALLDATASIZE LT PUSH2 0xB2 JUMPI PUSH0 CALLDATALOAD PUSH1 0xE0 SHR DUP1 PUSH4 0x9ACE38C2 GT PUSH2 0x6F JUMPI DUP1 PUSH4 0x9ACE38C2 EQ PUSH2 0x1B4 JUMPI DUP1 PUSH4 0xA0E67E2B EQ PUSH2 0x1E8 JUMPI DUP1 PUSH4 0xC01A8C84 EQ PUSH2 0x206 JUMPI DUP1 PUSH4 0xC6427474 EQ PUSH2 0x222 JUMPI DUP1 PUSH4 0xD0549B85 EQ PUSH2 0x23E JUMPI DUP1 PUSH4 0xEE22610B EQ PUSH2 0x25C JUMPI PUSH2 0xB2 JUMP JUMPDEST DUP1 PUSH4 0x25E7C27 EQ PUSH2 0xB6 JUMPI DUP1 PUSH4 0x20EA8D86 EQ PUSH2 0xE6 JUMPI DUP1 PUSH4 0x2E7700F0 EQ PUSH2 0x102 JUMPI DUP1 PUSH4 0x2F54BF6E EQ PUSH2 0x120 JUMPI DUP1 PUSH4 0x33EA3DC8 EQ PUSH2 0x150 JUMPI DUP1 PUSH4 0x80F59A65 EQ PUSH2 0x184 JUMPI JUMPDEST PUSH0 PUSH0 REVERT JUMPDEST PUSH2 0xD0 PUSH1 0x4 DUP1 CALLDATASIZE SUB DUP2 ADD SWAP1 PUSH2 0xCB SWAP2 SWAP1 PUSH2 0x1045 JUMP JUMPDEST PUSH2 0x278 JUMP JUMPDEST PUSH1 0x40 MLOAD PUSH2 0xDD SWAP2 SWAP1 PUSH2 0x10AF JUMP JUMPDEST PUSH1 0x40 MLOAD DUP1 SWAP2 SUB SWAP1 RETURN JUMPDEST PUSH2 0x100 PUSH1 0x4 DUP1 CALLDATASIZE SUB DUP2 ADD SWAP1 PUSH2 0xFB SWAP2 SWAP1 PUSH2 0x1045 JUMP JUMPDEST PUSH2 0x2B2 JUMP JUMPDEST STOP JUMPDEST PUSH2 0x10A PUSH2 0x577 JUMP JUMPDEST PUSH1 0x40 MLOAD PUSH2 0x117 SWAP2 SWAP1 PUSH2 0x10D7 JUMP JUMPDEST PUSH1 0x40 MLOAD DUP1 SWAP2 SUB SWAP1 RETURN JUMPDEST PUSH2 0x13A PUSH1 0x4 DUP1 CALLDATASIZE SUB DUP2 ADD SWAP1 PUSH2 0x135 SWAP2 SWAP1 PUSH2 0x111A JUMP JUMPDEST PUSH2 0x583 JUMP JUMPDEST PUSH1 0x40 MLOAD PUSH2 0x147 SWAP2 SWAP1 PUSH2 0x115F JUMP JUMPDEST PUSH1 0x40 MLOAD DUP1 SWAP2 SUB SWAP1 RETURN JUMPDEST PUSH2 0x16A PUSH1 0x4 DUP1 CALLDATASIZE SUB DUP2 ADD SWAP1 PUSH2 0x165 SWAP2 SWAP1 PUSH2 0x1045 JUMP JUMPDEST PUSH2 0x5A0 JUMP JUMPDEST PUSH1 0x40 MLOAD PUSH2 0x17B SWAP6 SWAP5 SWAP4 SWAP3 SWAP2 SWAP1 PUSH2 0x11E8 JUMP JUMPDEST PUSH1 0x40 MLOAD DUP1 SWAP2 SUB SWAP1 RETURN JUMPDEST PUSH2 0x19E PUSH1 0x4 DUP1 CALLDATASIZE SUB DUP2 ADD SWAP1 PUSH2 0x199 SWAP2 SWAP1 PUSH2 0x1240 JUMP JUMPDEST PUSH2 0x6A9 JUMP JUMPDEST PUSH1 0x40 MLOAD PUSH2 0x1AB SWAP2 SWAP1 PUSH2 0x115F JUMP JUMPDEST PUSH1 0x40 MLOAD DUP1 SWAP2 SUB SWAP1 RETURN JUMPDEST PUSH2 0x1CE PUSH1 0x4 DUP1 CALLDATASIZE SUB DUP2 ADD SWAP1 PUSH2 0x1C9 SWAP2 SWAP1 PUSH2 0x1045 JUMP JUMPDEST PUSH2 0x6D3 JUMP JUMPDEST PUSH1 0x40 MLOAD PUSH2 0x1DF SWAP6 SWAP5 SWAP4 SWAP3 SWAP2 SWAP1 PUSH2 0x11E8 JUMP JUMPDEST PUSH1 0x40 MLOAD DUP1 SWAP2 SUB SWAP1 RETURN JUMPDEST PUSH2 0x1F0 PUSH2 0x7C5 JUMP JUMPDEST PUSH1 0x40 MLOAD PUSH2 0x1FD SWAP2 SWAP1 PUSH2 0x1335 JUMP JUMPDEST PUSH1 0x40 MLOAD DUP1 SWAP2 SUB SWAP1 RETURN JUMPDEST PUSH2 0x220 PUSH1 0x4 DUP1 CALLDATASIZE SUB DUP2 ADD SWAP1 PUSH2 0x21B SWAP2 SWAP1 PUSH2 0x1045 JUMP JUMPDEST PUSH2 0x84F JUMP JUMPDEST STOP JUMPDEST PUSH2 0x23C PUSH1 0x4 DUP1 CALLDATASIZE SUB DUP2 ADD SWAP1 PUSH2 0x237 SWAP2 SWAP1 PUSH2 0x1481 JUMP JUMPDEST PUSH2 0xB18 JUMP JUMPDEST STOP JUMPDEST PUSH2 0x246 PUSH2 0xD13 JUMP JUMPDEST PUSH1 0x40 MLOAD PUSH2 0x253 SWAP2 SWAP1 PUSH2 0x10D7 JUMP JUMPDEST PUSH1 0x40 MLOAD DUP1 SWAP2 SUB SWAP1 RETURN JUMPDEST PUSH2 0x276 PUSH1 0x4 DUP1 CALLDATASIZE SUB DUP2 ADD SWAP1 PUSH2 0x271 SWAP2 SWAP1 PUSH2 0x1045 JUMP JUMPDEST PUSH2 0xD19 JUMP JUMPDEST STOP JUMPDEST PUSH0 DUP2 DUP2 SLOAD DUP2 LT PUSH2 0x286 JUMPI PUSH0 DUP1 REVERT JUMPDEST SWAP1 PUSH0 MSTORE PUSH1 0x20 PUSH0 KECCAK256 ADD PUSH0 SWAP2 POP SLOAD SWAP1 PUSH2 0x100 EXP SWAP1 DIV PUSH20 0xFFFFFFFFFFFFFFFFFFFFFFFFFFFFFFFFFFFFFFFF AND DUP2 JUMP JUMPDEST PUSH1 0x1 PUSH0 CALLER PUSH20 0xFFFFFFFFFFFFFFFFFFFFFFFFFFFFFFFFFFFFFFFF AND PUSH20 0xFFFFFFFFFFFFFFFFFFFFFFFFFFFFFFFFFFFFFFFF AND DUP2 MSTORE PUSH1 0x20 ADD SWAP1 DUP2 MSTORE PUSH1 0x20 ADD PUSH0 KECCAK256 PUSH0 SWAP1 SLOAD SWAP1 PUSH2 0x100 EXP SWAP1 DIV PUSH1 0xFF AND PUSH2 0x33B JUMPI PUSH1 0x40 MLOAD PUSH32 0x8C379A000000000000000000000000000000000000000000000000000000000 DUP2 MSTORE PUSH1 0x4 ADD PUSH2 0x332 SWAP1 PUSH2 0x1547 JUMP JUMPDEST PUSH1 0x40 MLOAD DUP1 SWAP2 SUB SWAP1 REVERT JUMPDEST DUP1 PUSH1 0x4 DUP1 SLOAD SWAP1 POP DUP2 LT PUSH2 0x383 JUMPI PUSH1 0x40 MLOAD PUSH32 0x8C379A000000000000000000000000000000000000000000000000000000000 DUP2 MSTORE PUSH1 0x4 ADD PUSH2 0x37A SWAP1 PUSH2 0x15AF JUMP JUMPDEST PUSH1 0x40 MLOAD DUP1 SWAP2 SUB SWAP1 REVERT JUMPDEST DUP2 PUSH1 0x4 DUP2 DUP2 SLOAD DUP2 LT PUSH2 0x398 JUMPI PUSH2 0x397 PUSH2 0x15CD JUMP JUMPDEST JUMPDEST SWAP1 PUSH0 MSTORE PUSH1 0x20 PUSH0 KECCAK256 SWAP1 PUSH1 0x5 MUL ADD PUSH1 0x3 ADD PUSH0 SWAP1 SLOAD SWAP1 PUSH2 0x100 EXP SWAP1 DIV PUSH1 0xFF AND ISZERO PUSH2 0x3F4 JUMPI PUSH1 0x40 MLOAD PUSH32 0x8C379A000000000000000000000000000000000000000000000000000000000 DUP2 MSTORE PUSH1 0x4 ADD PUSH2 0x3EB SWAP1 PUSH2 0x1644 JUMP JUMPDEST PUSH1 0x40 MLOAD DUP1 SWAP2 SUB SWAP1 REVERT JUMPDEST PUSH0 PUSH1 0x4 DUP5 DUP2 SLOAD DUP2 LT PUSH2 0x409 JUMPI PUSH2 0x408 PUSH2 0x15CD JUMP JUMPDEST JUMPDEST SWAP1 PUSH0 MSTORE PUSH1 0x20 PUSH0 KECCAK256 SWAP1 PUSH1 0x5 MUL ADD SWAP1 POP PUSH1 0x3 PUSH0 DUP6 DUP2 MSTORE PUSH1 0x20 ADD SWAP1 DUP2 MSTORE PUSH1 0x20 ADD PUSH0 KECCAK256 PUSH0 CALLER PUSH20 0xFFFFFFFFFFFFFFFFFFFFFFFFFFFFFFFFFFFFFFFF AND PUSH20 0xFFFFFFFFFFFFFFFFFFFFFFFFFFFFFFFFFFFFFFFF AND DUP2 MSTORE PUSH1 0x20 ADD SWAP1 DUP2 MSTORE PUSH1 0x20 ADD PUSH0 KECCAK256 PUSH0 SWAP1 SLOAD SWAP1 PUSH2 0x100 EXP SWAP1 DIV PUSH1 0xFF AND PUSH2 0x4AF JUMPI PUSH1 0x40 MLOAD PUSH32 0x8C379A000000000000000000000000000000000000000000000000000000000 DUP2 MSTORE PUSH1 0x4 ADD PUSH2 0x4A6 SWAP1 PUSH2 0x16AC JUMP JUMPDEST PUSH1 0x40 MLOAD DUP1 SWAP2 SUB SWAP1 REVERT JUMPDEST PUSH1 0x1 DUP2 PUSH1 0x4 ADD PUSH0 DUP3 DUP3 SLOAD PUSH2 0x4C3 SWAP2 SWAP1 PUSH2 0x16F7 JUMP JUMPDEST SWAP3 POP POP DUP2 SWAP1 SSTORE POP PUSH0 PUSH1 0x3 PUSH0 DUP7 DUP2 MSTORE PUSH1 0x20 ADD SWAP1 DUP2 MSTORE PUSH1 0x20 ADD PUSH0 KECCAK256 PUSH0 CALLER PUSH20 0xFFFFFFFFFFFFFFFFFFFFFFFFFFFFFFFFFFFFFFFF AND PUSH20 0xFFFFFFFFFFFFFFFFFFFFFFFFFFFFFFFFFFFFFFFF AND DUP2 MSTORE PUSH1 0x20 ADD SWAP1 DUP2 MSTORE PUSH1 0x20 ADD PUSH0 KECCAK256 PUSH0 PUSH2 0x100 EXP DUP2 SLOAD DUP2 PUSH1 0xFF MUL NOT AND SWAP1 DUP4 ISZERO ISZERO MUL OR SWAP1 SSTORE POP DUP4 CALLER PUSH20 0xFFFFFFFFFFFFFFFFFFFFFFFFFFFFFFFFFFFFFFFF AND PUSH32 0xF0DCA620E2E81F7841D07BCC105E1704FB01475B278A9D4C236E1C62945EDD55 PUSH1 0x40 MLOAD PUSH1 0x40 MLOAD DUP1 SWAP2 SUB SWAP1 LOG3 POP POP POP POP JUMP JUMPDEST PUSH0 PUSH1 0x4 DUP1 SLOAD SWAP1 POP SWAP1 POP SWAP1 JUMP JUMPDEST PUSH1 0x1 PUSH1 0x20 MSTORE DUP1 PUSH0 MSTORE PUSH1 0x40 PUSH0 KECCAK256 PUSH0 SWAP2 POP SLOAD SWAP1 PUSH2 0x100 EXP SWAP1 DIV PUSH1 0xFF AND DUP2 JUMP JUMPDEST PUSH0 PUSH0 PUSH1 0x60 PUSH0 PUSH0 PUSH0 PUSH1 0x4 DUP8 DUP2 SLOAD DUP2 LT PUSH2 0x5BB JUMPI PUSH2 0x5BA PUSH2 0x15CD JUMP JUMPDEST JUMPDEST SWAP1 PUSH0 MSTORE PUSH1 0x20 PUSH0 KECCAK256 SWAP1 PUSH1 0x5 MUL ADD SWAP1 POP DUP1 PUSH0 ADD PUSH0 SWAP1 SLOAD SWAP1 PUSH2 0x100 EXP SWAP1 DIV PUSH20 0xFFFFFFFFFFFFFFFFFFFFFFFFFFFFFFFFFFFFFFFF AND DUP2 PUSH1 0x1 ADD SLOAD DUP3 PUSH1 0x2 ADD DUP4 PUSH1 0x3 ADD PUSH0 SWAP1 SLOAD SWAP1 PUSH2 0x100 EXP SWAP1 DIV PUSH1 0xFF AND DUP5 PUSH1 0x4 ADD SLOAD DUP3 DUP1 SLOAD PUSH2 0x617 SWAP1 PUSH2 0x1757 JUMP JUMPDEST DUP1 PUSH1 0x1F ADD PUSH1 0x20 DUP1 SWAP2 DIV MUL PUSH1 0x20 ADD PUSH1 0x40 MLOAD SWAP1 DUP2 ADD PUSH1 0x40 MSTORE DUP1 SWAP3 SWAP2 SWAP1 DUP2 DUP2 MSTORE PUSH1 0x20 ADD DUP3 DUP1 SLOAD PUSH2 0x643 SWAP1 PUSH2 0x1757 JUMP JUMPDEST DUP1 ISZERO PUSH2 0x68E JUMPI DUP1 PUSH1 0x1F LT PUSH2 0x665 JUMPI PUSH2 0x100 DUP1 DUP4 SLOAD DIV MUL DUP4 MSTORE SWAP2 PUSH1 0x20 ADD SWAP2 PUSH2 0x68E JUMP JUMPDEST DUP3 ADD SWAP2 SWAP1 PUSH0 MSTORE PUSH1 0x20 PUSH0 KECCAK256 SWAP1 JUMPDEST DUP2 SLOAD DUP2 MSTORE SWAP1 PUSH1 0x1 ADD SWAP1 PUSH1 0x20 ADD DUP1 DUP4 GT PUSH2 0x671 JUMPI DUP3 SWAP1 SUB PUSH1 0x1F AND DUP3 ADD SWAP2 JUMPDEST POP POP POP POP POP SWAP3 POP SWAP6 POP SWAP6 POP SWAP6 POP SWAP6 POP SWAP6 POP POP SWAP2 SWAP4 SWAP6 SWAP1 SWAP3 SWAP5 POP JUMP JUMPDEST PUSH1 0x3 PUSH1 0x20 MSTORE DUP2 PUSH0 MSTORE PUSH1 0x40 PUSH0 KECCAK256 PUSH1 0x20 MSTORE DUP1 PUSH0 MSTORE PUSH1 0x40 PUSH0 KECCAK256 PUSH0 SWAP2 POP SWAP2 POP SWAP1 SLOAD SWAP1 PUSH2 0x100 EXP SWAP1 DIV PUSH1 0xFF AND DUP2 JUMP JUMPDEST PUSH1 0x4 DUP2 DUP2 SLOAD DUP2 LT PUSH2 0x6E2 JUMPI PUSH0 DUP1 REVERT JUMPDEST SWAP1 PUSH0 MSTORE PUSH1 0x20 PUSH0 KECCAK256 SWAP1 PUSH1 0x5 MUL ADD PUSH0 SWAP2 POP SWAP1 POP DUP1 PUSH0 ADD PUSH0 SWAP1 SLOAD SWAP1 PUSH2 0x100 EXP SWAP1 DIV PUSH20 0xFFFFFFFFFFFFFFFFFFFFFFFFFFFFFFFFFFFFFFFF AND SWAP1 DUP1 PUSH1 0x1 ADD SLOAD SWAP1 DUP1 PUSH1 0x2 ADD DUP1 SLOAD PUSH2 0x72C SWAP1 PUSH2 0x1757 JUMP JUMPDEST DUP1 PUSH1 0x1F ADD PUSH1 0x20 DUP1 SWAP2 DIV MUL PUSH1 0x20 ADD PUSH1 0x40 MLOAD SWAP1 DUP2 ADD PUSH1 0x40 MSTORE DUP1 SWAP3 SWAP2 SWAP1 DUP2 DUP2 MSTORE PUSH1 0x20 ADD DUP3 DUP1 SLOAD PUSH2 0x758 SWAP1 PUSH2 0x1757 JUMP JUMPDEST DUP1 ISZERO PUSH2 0x7A3 JUMPI DUP1 PUSH1 0x1F LT PUSH2 0x77A JUMPI PUSH2 0x100 DUP1 DUP4 SLOAD DIV MUL DUP4 MSTORE SWAP2 PUSH1 0x20 ADD SWAP2 PUSH2 0x7A3 JUMP JUMPDEST DUP3 ADD SWAP2 SWAP1 PUSH0 MSTORE PUSH1 0x20 PUSH0 KECCAK256 SWAP1 JUMPDEST DUP2 SLOAD DUP2 MSTORE SWAP1 PUSH1 0x1 ADD SWAP1 PUSH1 0x20 ADD DUP1 DUP4 GT PUSH2 0x786 JUMPI DUP3 SWAP1 SUB PUSH1 0x1F AND DUP3 ADD SWAP2 JUMPDEST POP POP POP POP POP SWAP1 DUP1 PUSH1 0x3 ADD PUSH0 SWAP1 SLOAD SWAP1 PUSH2 0x100 EXP SWAP1 DIV PUSH1 0xFF AND SWAP1 DUP1 PUSH1 0x4 ADD SLOAD SWAP1 POP DUP6 JUMP JUMPDEST PUSH1 0x60 PUSH0 DUP1 SLOAD DUP1 PUSH1 0x20 MUL PUSH1 0x20 ADD PUSH1 0x40 MLOAD SWAP1 DUP2 ADD PUSH1 0x40 MSTORE DUP1 SWAP3 SWAP2 SWAP1 DUP2 DUP2 MSTORE PUSH1 0x20 ADD DUP3 DUP1 SLOAD DUP1 ISZERO PUSH2 0x845 JUMPI PUSH1 0x20 MUL DUP3 ADD SWAP2 SWAP1 PUSH0 MSTORE PUSH1 0x20 PUSH0 KECCAK256 SWAP1 JUMPDEST DUP2 PUSH0 SWAP1 SLOAD SWAP1 PUSH2 0x100 EXP SWAP1 DIV PUSH20 0xFFFFFFFFFFFFFFFFFFFFFFFFFFFFFFFFFFFFFFFF AND PUSH20 0xFFFFFFFFFFFFFFFFFFFFFFFFFFFFFFFFFFFFFFFF AND DUP2 MSTORE PUSH1 0x20 ADD SWAP1 PUSH1 0x1 ADD SWAP1 DUP1 DUP4 GT PUSH2 0x7FC JUMPI JUMPDEST POP POP POP POP POP SWAP1 POP SWAP1 JUMP JUMPDEST PUSH1 0x1 PUSH0 CALLER PUSH20 0xFFFFFFFFFFFFFFFFFFFFFFFFFFFFFFFFFFFFFFFF AND PUSH20 0xFFFFFFFFFFFFFFFFFFFFFFFFFFFFFFFFFFFFFFFF AND DUP2 MSTORE PUSH1 0x20 ADD SWAP1 DUP2 MSTORE PUSH1 0x20 ADD PUSH0 KECCAK256 PUSH0 SWAP1 SLOAD SWAP1 PUSH2 0x100 EXP SWAP1 DIV PUSH1 0xFF AND PUSH2 0x8D8 JUMPI PUSH1 0x40 MLOAD PUSH32 0x8C379A000000000000000000000000000000000000000000000000000000000 DUP2 MSTORE PUSH1 0x4 ADD PUSH2 0x8CF SWAP1 PUSH2 0x1547 JUMP JUMPDEST PUSH1 0x40 MLOAD DUP1 SWAP2 SUB SWAP1 REVERT JUMPDEST DUP1 PUSH1 0x4 DUP1 SLOAD SWAP1 POP DUP2 LT PUSH2 0x920 JUMPI PUSH1 0x40 MLOAD PUSH32 0x8C379A000000000000000000000000000000000000000000000000000000000 DUP2 MSTORE PUSH1 0x4 ADD PUSH2 0x917 SWAP1 PUSH2 0x15AF JUMP JUMPDEST PUSH1 0x40 MLOAD DUP1 SWAP2 SUB SWAP1 REVERT JUMPDEST DUP2 PUSH1 0x4 DUP2 DUP2 SLOAD DUP2 LT PUSH2 0x935 JUMPI PUSH2 0x934 PUSH2 0x15CD JUMP JUMPDEST JUMPDEST SWAP1 PUSH0 MSTORE PUSH1 0x20 PUSH0 KECCAK256 SWAP1 PUSH1 0x5 MUL ADD PUSH1 0x3 ADD PUSH0 SWAP1 SLOAD SWAP1 PUSH2 0x100 EXP SWAP1 DIV PUSH1 0xFF AND ISZERO PUSH2 0x991 JUMPI PUSH1 0x40 MLOAD PUSH32 0x8C379A000000000000000000000000000000000000000000000000000000000 DUP2 MSTORE PUSH1 0x4 ADD PUSH2 0x988 SWAP1 PUSH2 0x1644 JUMP JUMPDEST PUSH1 0x40 MLOAD DUP1 SWAP2 SUB SWAP1 REVERT JUMPDEST DUP3 PUSH1 0x3 PUSH0 DUP3 DUP2 MSTORE PUSH1 0x20 ADD SWAP1 DUP2 MSTORE PUSH1 0x20 ADD PUSH0 KECCAK256 PUSH0 CALLER PUSH20 0xFFFFFFFFFFFFFFFFFFFFFFFFFFFFFFFFFFFFFFFF AND PUSH20 0xFFFFFFFFFFFFFFFFFFFFFFFFFFFFFFFFFFFFFFFF AND DUP2 MSTORE PUSH1 0x20 ADD SWAP1 DUP2 MSTORE PUSH1 0x20 ADD PUSH0 KECCAK256 PUSH0 SWAP1 SLOAD SWAP1 PUSH2 0x100 EXP SWAP1 DIV PUSH1 0xFF AND ISZERO PUSH2 0xA2B JUMPI PUSH1 0x40 MLOAD PUSH32 0x8C379A000000000000000000000000000000000000000000000000000000000 DUP2 MSTORE PUSH1 0x4 ADD PUSH2 0xA22 SWAP1 PUSH2 0x17D1 JUMP JUMPDEST PUSH1 0x40 MLOAD DUP1 SWAP2 SUB SWAP1 REVERT JUMPDEST PUSH0 PUSH1 0x4 DUP6 DUP2 SLOAD DUP2 LT PUSH2 0xA40 JUMPI PUSH2 0xA3F PUSH2 0x15CD JUMP JUMPDEST JUMPDEST SWAP1 PUSH0 MSTORE PUSH1 0x20 PUSH0 KECCAK256 SWAP1 PUSH1 0x5 MUL ADD SWAP1 POP PUSH1 0x1 DUP2 PUSH1 0x4 ADD PUSH0 DUP3 DUP3 SLOAD PUSH2 0xA62 SWAP2 SWAP1 PUSH2 0x17EF JUMP JUMPDEST SWAP3 POP POP DUP2 SWAP1 SSTORE POP PUSH1 0x1 PUSH1 0x3 PUSH0 DUP8 DUP2 MSTORE PUSH1 0x20 ADD SWAP1 DUP2 MSTORE PUSH1 0x20 ADD PUSH0 KECCAK256 PUSH0 CALLER PUSH20 0xFFFFFFFFFFFFFFFFFFFFFFFFFFFFFFFFFFFFFFFF AND PUSH20 0xFFFFFFFFFFFFFFFFFFFFFFFFFFFFFFFFFFFFFFFF AND DUP2 MSTORE PUSH1 0x20 ADD SWAP1 DUP2 MSTORE PUSH1 0x20 ADD PUSH0 KECCAK256 PUSH0 PUSH2 0x100 EXP DUP2 SLOAD DUP2 PUSH1 0xFF MUL NOT AND SWAP1 DUP4 ISZERO ISZERO MUL OR SWAP1 SSTORE POP DUP5 CALLER PUSH20 0xFFFFFFFFFFFFFFFFFFFFFFFFFFFFFFFFFFFFFFFF AND PUSH32 0x5CBE105E36805F7820E291F799D5794FF948AF2A5F664E580382DEFB63390041 PUSH1 0x40 MLOAD PUSH1 0x40 MLOAD DUP1 SWAP2 SUB SWAP1 LOG3 POP POP POP POP POP JUMP JUMPDEST PUSH1 0x1 PUSH0 CALLER PUSH20 0xFFFFFFFFFFFFFFFFFFFFFFFFFFFFFFFFFFFFFFFF AND PUSH20 0xFFFFFFFFFFFFFFFFFFFFFFFFFFFFFFFFFFFFFFFF AND DUP2 MSTORE PUSH1 0x20 ADD SWAP1 DUP2 MSTORE PUSH1 0x20 ADD PUSH0 KECCAK256 PUSH0 SWAP1 SLOAD SWAP1 PUSH2 0x100 EXP SWAP1 DIV PUSH1 0xFF AND PUSH2 0xBA1 JUMPI PUSH1 0x40 MLOAD PUSH32 0x8C379A000000000000000000000000000000000000000000000000000000000 DUP2 MSTORE PUSH1 0x4 ADD PUSH2 0xB98 SWAP1 PUSH2 0x1547 JUMP JUMPDEST PUSH1 0x40 MLOAD DUP1 SWAP2 SUB SWAP1 REVERT JUMPDEST PUSH0 PUSH1 0x4 DUP1 SLOAD SWAP1 POP SWAP1 POP PUSH0 PUSH1 0x40 MLOAD DUP1 PUSH1 0xA0 ADD PUSH1 0x40 MSTORE DUP1 DUP7 PUSH20 0xFFFFFFFFFFFFFFFFFFFFFFFFFFFFFFFFFFFFFFFF AND DUP2 MSTORE PUSH1 0x20 ADD DUP6 DUP2 MSTORE PUSH1 0x20 ADD DUP5 DUP2 MSTORE PUSH1 0x20 ADD PUSH0 ISZERO ISZERO DUP2 MSTORE PUSH1 0x20 ADD PUSH0 DUP2 MSTORE POP SWAP1 POP PUSH1 0x4 DUP2 SWAP1 DUP1 PUSH1 0x1 DUP2 SLOAD ADD DUP1 DUP3 SSTORE DUP1 SWAP2 POP POP PUSH1 0x1 SWAP1 SUB SWAP1 PUSH0 MSTORE PUSH1 0x20 PUSH0 KECCAK256 SWAP1 PUSH1 0x5 MUL ADD PUSH0 SWAP1 SWAP2 SWAP1 SWAP2 SWAP1 SWAP2 POP PUSH0 DUP3 ADD MLOAD DUP2 PUSH0 ADD PUSH0 PUSH2 0x100 EXP DUP2 SLOAD DUP2 PUSH20 0xFFFFFFFFFFFFFFFFFFFFFFFFFFFFFFFFFFFFFFFF MUL NOT AND SWAP1 DUP4 PUSH20 0xFFFFFFFFFFFFFFFFFFFFFFFFFFFFFFFFFFFFFFFF AND MUL OR SWAP1 SSTORE POP PUSH1 0x20 DUP3 ADD MLOAD DUP2 PUSH1 0x1 ADD SSTORE PUSH1 0x40 DUP3 ADD MLOAD DUP2 PUSH1 0x2 ADD SWAP1 DUP2 PUSH2 0xC78 SWAP2 SWAP1 PUSH2 0x19C2 JUMP JUMPDEST POP PUSH1 0x60 DUP3 ADD MLOAD DUP2 PUSH1 0x3 ADD PUSH0 PUSH2 0x100 EXP DUP2 SLOAD DUP2 PUSH1 0xFF MUL NOT AND SWAP1 DUP4 ISZERO ISZERO MUL OR SWAP1 SSTORE POP PUSH1 0x80 DUP3 ADD MLOAD DUP2 PUSH1 0x4 ADD SSTORE POP POP DUP5 PUSH20 0xFFFFFFFFFFFFFFFFFFFFFFFFFFFFFFFFFFFFFFFF AND DUP3 CALLER PUSH20 0xFFFFFFFFFFFFFFFFFFFFFFFFFFFFFFFFFFFFFFFF AND PUSH32 0xD5A05BF70715AD82A09A756320284A1B54C9FF74CD0F8CCE6219E79B563FE59D DUP8 DUP8 PUSH1 0x40 MLOAD PUSH2 0xD04 SWAP3 SWAP2 SWAP1 PUSH2 0x1A91 JUMP JUMPDEST PUSH1 0x40 MLOAD DUP1 SWAP2 SUB SWAP1 LOG4 POP POP POP POP POP JUMP JUMPDEST PUSH1 0x2 SLOAD DUP2 JUMP JUMPDEST PUSH1 0x1 PUSH0 CALLER PUSH20 0xFFFFFFFFFFFFFFFFFFFFFFFFFFFFFFFFFFFFFFFF AND PUSH20 0xFFFFFFFFFFFFFFFFFFFFFFFFFFFFFFFFFFFFFFFF AND DUP2 MSTORE PUSH1 0x20 ADD SWAP1 DUP2 MSTORE PUSH1 0x20 ADD PUSH0 KECCAK256 PUSH0 SWAP1 SLOAD SWAP1 PUSH2 0x100 EXP SWAP1 DIV PUSH1 0xFF AND PUSH2 0xDA2 JUMPI PUSH1 0x40 MLOAD PUSH32 0x8C379A000000000000000000000000000000000000000000000000000000000 DUP2 MSTORE PUSH1 0x4 ADD PUSH2 0xD99 SWAP1 PUSH2 0x1547 JUMP JUMPDEST PUSH1 0x40 MLOAD DUP1 SWAP2 SUB SWAP1 REVERT JUMPDEST DUP1 PUSH1 0x4 DUP1 SLOAD SWAP1 POP DUP2 LT PUSH2 0xDEA JUMPI PUSH1 0x40 MLOAD PUSH32 0x8C379A000000000000000000000000000000000000000000000000000000000 DUP2 MSTORE PUSH1 0x4 ADD PUSH2 0xDE1 SWAP1 PUSH2 0x15AF JUMP JUMPDEST PUSH1 0x40 MLOAD DUP1 SWAP2 SUB SWAP1 REVERT JUMPDEST DUP2 PUSH1 0x4 DUP2 DUP2 SLOAD DUP2 LT PUSH2 0xDFF JUMPI PUSH2 0xDFE PUSH2 0x15CD JUMP JUMPDEST JUMPDEST SWAP1 PUSH0 MSTORE PUSH1 0x20 PUSH0 KECCAK256 SWAP1 PUSH1 0x5 MUL ADD PUSH1 0x3 ADD PUSH0 SWAP1 SLOAD SWAP1 PUSH2 0x100 EXP SWAP1 DIV PUSH1 0xFF AND ISZERO PUSH2 0xE5B JUMPI PUSH1 0x40 MLOAD PUSH32 0x8C379A000000000000000000000000000000000000000000000000000000000 DUP2 MSTORE PUSH1 0x4 ADD PUSH2 0xE52 SWAP1 PUSH2 0x1644 JUMP JUMPDEST PUSH1 0x40 MLOAD DUP1 SWAP2 SUB SWAP1 REVERT JUMPDEST PUSH0 PUSH1 0x4 DUP5 DUP2 SLOAD DUP2 LT PUSH2 0xE70 JUMPI PUSH2 0xE6F PUSH2 0x15CD JUMP JUMPDEST JUMPDEST SWAP1 PUSH0 MSTORE PUSH1 0x20 PUSH0 KECCAK256 SWAP1 PUSH1 0x5 MUL ADD SWAP1 POP PUSH1 0x2 SLOAD DUP2 PUSH1 0x4 ADD SLOAD LT ISZERO PUSH2 0xEC7 JUMPI PUSH1 0x40 MLOAD PUSH32 0x8C379A000000000000000000000000000000000000000000000000000000000 DUP2 MSTORE PUSH1 0x4 ADD PUSH2 0xEBE SWAP1 PUSH2 0x1B09 JUMP JUMPDEST PUSH1 0x40 MLOAD DUP1 SWAP2 SUB SWAP1 REVERT JUMPDEST PUSH1 0x1 DUP2 PUSH1 0x3 ADD PUSH0 PUSH2 0x100 EXP DUP2 SLOAD DUP2 PUSH1 0xFF MUL NOT AND SWAP1 DUP4 ISZERO ISZERO MUL OR SWAP1 SSTORE POP PUSH0 DUP2 PUSH0 ADD PUSH0 SWAP1 SLOAD SWAP1 PUSH2 0x100 EXP SWAP1 DIV PUSH20 0xFFFFFFFFFFFFFFFFFFFFFFFFFFFFFFFFFFFFFFFF AND PUSH20 0xFFFFFFFFFFFFFFFFFFFFFFFFFFFFFFFFFFFFFFFF AND DUP3 PUSH1 0x1 ADD SLOAD DUP4 PUSH1 0x2 ADD PUSH1 0x40 MLOAD PUSH2 0xF33 SWAP2 SWAP1 PUSH2 0x1BB1 JUMP JUMPDEST PUSH0 PUSH1 0x40 MLOAD DUP1 DUP4 SUB DUP2 DUP6 DUP8 GAS CALL SWAP3 POP POP POP RETURNDATASIZE DUP1 PUSH0 DUP2 EQ PUSH2 0xF6D JUMPI PUSH1 0x40 MLOAD SWAP2 POP PUSH1 0x1F NOT PUSH1 0x3F RETURNDATASIZE ADD AND DUP3 ADD PUSH1 0x40 MSTORE RETURNDATASIZE DUP3 MSTORE RETURNDATASIZE PUSH0 PUSH1 0x20 DUP5 ADD RETURNDATACOPY PUSH2 0xF72 JUMP JUMPDEST PUSH1 0x60 SWAP2 POP JUMPDEST POP POP SWAP1 POP DUP1 PUSH2 0xFB6 JUMPI PUSH1 0x40 MLOAD PUSH32 0x8C379A000000000000000000000000000000000000000000000000000000000 DUP2 MSTORE PUSH1 0x4 ADD PUSH2 0xFAD SWAP1 PUSH2 0x1C11 JUMP JUMPDEST PUSH1 0x40 MLOAD DUP1 SWAP2 SUB SWAP1 REVERT JUMPDEST DUP5 CALLER PUSH20 0xFFFFFFFFFFFFFFFFFFFFFFFFFFFFFFFFFFFFFFFF AND PUSH32 0x5445F318F4F5FCFB66592E68E0CC5822AA15664039BD5F0FFDE24C5A8142B1AC PUSH1 0x40 MLOAD PUSH1 0x40 MLOAD DUP1 SWAP2 SUB SWAP1 LOG3 POP POP POP POP POP JUMP JUMPDEST PUSH0 PUSH1 0x40 MLOAD SWAP1 POP SWAP1 JUMP JUMPDEST PUSH0 PUSH0 REVERT JUMPDEST PUSH0 PUSH0 REVERT JUMPDEST PUSH0 DUP2 SWAP1 POP SWAP2 SWAP1 POP JUMP JUMPDEST PUSH2 0x1024 DUP2 PUSH2 0x1012 JUMP JUMPDEST DUP2 EQ PUSH2 0x102E JUMPI PUSH0 PUSH0 REVERT JUMPDEST POP JUMP JUMPDEST PUSH0 DUP2 CALLDATALOAD SWAP1 POP PUSH2 0x103F DUP2 PUSH2 0x101B JUMP JUMPDEST SWAP3 SWAP2 POP POP JUMP JUMPDEST PUSH0 PUSH1 0x20 DUP3 DUP5 SUB SLT ISZERO PUSH2 0x105A JUMPI PUSH2 0x1059 PUSH2 0x100A JUMP JUMPDEST JUMPDEST PUSH0 PUSH2 0x1067 DUP5 DUP3 DUP6 ADD PUSH2 0x1031 JUMP JUMPDEST SWAP2 POP POP SWAP3 SWAP2 POP POP JUMP JUMPDEST PUSH0 PUSH20 0xFFFFFFFFFFFFFFFFFFFFFFFFFFFFFFFFFFFFFFFF DUP3 AND SWAP1 POP SWAP2 SWAP1 POP JUMP JUMPDEST PUSH0 PUSH2 0x1099 DUP3 PUSH2 0x1070 JUMP JUMPDEST SWAP1 POP SWAP2 SWAP1 POP JUMP JUMPDEST PUSH2 0x10A9 DUP2 PUSH2 0x108F JUMP JUMPDEST DUP3 MSTORE POP POP JUMP JUMPDEST PUSH0 PUSH1 0x20 DUP3 ADD SWAP1 POP PUSH2 0x10C2 PUSH0 DUP4 ADD DUP5 PUSH2 0x10A0 JUMP JUMPDEST SWAP3 SWAP2 POP POP JUMP JUMPDEST PUSH2 0x10D1 DUP2 PUSH2 0x1012 JUMP JUMPDEST DUP3 MSTORE POP POP JUMP JUMPDEST PUSH0 PUSH1 0x20 DUP3 ADD SWAP1 POP PUSH2 0x10EA PUSH0 DUP4 ADD DUP5 PUSH2 0x10C8 JUMP JUMPDEST SWAP3 SWAP2 POP POP JUMP JUMPDEST PUSH2 0x10F9 DUP2 PUSH2 0x108F JUMP JUMPDEST DUP2 EQ PUSH2 0x1103 JUMPI PUSH0 PUSH0 REVERT JUMPDEST POP JUMP JUMPDEST PUSH0 DUP2 CALLDATALOAD SWAP1 POP PUSH2 0x1114 DUP2 PUSH2 0x10F0 JUMP JUMPDEST SWAP3 SWAP2 POP POP JUMP JUMPDEST PUSH0 PUSH1 0x20 DUP3 DUP5 SUB SLT ISZERO PUSH2 0x112F JUMPI PUSH2 0x112E PUSH2 0x100A JUMP JUMPDEST JUMPDEST PUSH0 PUSH2 0x113C DUP5 DUP3 DUP6 ADD PUSH2 0x1106 JUMP JUMPDEST SWAP2 POP POP SWAP3 SWAP2 POP POP JUMP JUMPDEST PUSH0 DUP2 ISZERO ISZERO SWAP1 POP SWAP2 SWAP1 POP JUMP JUMPDEST PUSH2 0x1159 DUP2 PUSH2 0x1145 JUMP JUMPDEST DUP3 MSTORE POP POP JUMP JUMPDEST PUSH0 PUSH1 0x20 DUP3 ADD SWAP1 POP PUSH2 0x1172 PUSH0 DUP4 ADD DUP5 PUSH2 0x1150 JUMP JUMPDEST SWAP3 SWAP2 POP POP JUMP JUMPDEST PUSH0 DUP2 MLOAD SWAP1 POP SWAP2 SWAP1 POP JUMP JUMPDEST PUSH0 DUP3 DUP3 MSTORE PUSH1 0x20 DUP3 ADD SWAP1 POP SWAP3 SWAP2 POP POP JUMP JUMPDEST DUP3 DUP2 DUP4 MCOPY PUSH0 DUP4 DUP4 ADD MSTORE POP POP POP JUMP JUMPDEST PUSH0 PUSH1 0x1F NOT PUSH1 0x1F DUP4 ADD AND SWAP1 POP SWAP2 SWAP1 POP JUMP JUMPDEST PUSH0 PUSH2 0x11BA DUP3 PUSH2 0x1178 JUMP JUMPDEST PUSH2 0x11C4 DUP2 DUP6 PUSH2 0x1182 JUMP JUMPDEST SWAP4 POP PUSH2 0x11D4 DUP2 DUP6 PUSH1 0x20 DUP7 ADD PUSH2 0x1192 JUMP JUMPDEST PUSH2 0x11DD DUP2 PUSH2 0x11A0 JUMP JUMPDEST DUP5 ADD SWAP2 POP POP SWAP3 SWAP2 POP POP JUMP JUMPDEST PUSH0 PUSH1 0xA0 DUP3 ADD SWAP1 POP PUSH2 0x11FB PUSH0 DUP4 ADD DUP9 PUSH2 0x10A0 JUMP JUMPDEST PUSH2 0x1208 PUSH1 0x20 DUP4 ADD DUP8 PUSH2 0x10C8 JUMP JUMPDEST DUP2 DUP2 SUB PUSH1 0x40 DUP4 ADD MSTORE PUSH2 0x121A DUP2 DUP7 PUSH2 0x11B0 JUMP JUMPDEST SWAP1 POP PUSH2 0x1229 PUSH1 0x60 DUP4 ADD DUP6 PUSH2 0x1150 JUMP JUMPDEST PUSH2 0x1236 PUSH1 0x80 DUP4 ADD DUP5 PUSH2 0x10C8 JUMP JUMPDEST SWAP7 SWAP6 POP POP POP POP POP POP JUMP JUMPDEST PUSH0 PUSH0 PUSH1 0x40 DUP4 DUP6 SUB SLT ISZERO PUSH2 0x1256 JUMPI PUSH2 0x1255 PUSH2 0x100A JUMP JUMPDEST JUMPDEST PUSH0 PUSH2 0x1263 DUP6 DUP3 DUP7 ADD PUSH2 0x1031 JUMP JUMPDEST SWAP3 POP POP PUSH1 0x20 PUSH2 0x1274 DUP6 DUP3 DUP7 ADD PUSH2 0x1106 JUMP JUMPDEST SWAP2 POP POP SWAP3 POP SWAP3 SWAP1 POP JUMP JUMPDEST PUSH0 DUP2 MLOAD SWAP1 POP SWAP2 SWAP1 POP JUMP JUMPDEST PUSH0 DUP3 DUP3 MSTORE PUSH1 0x20 DUP3 ADD SWAP1 POP SWAP3 SWAP2 POP POP JUMP JUMPDEST PUSH0 DUP2 SWAP1 POP PUSH1 0x20 DUP3 ADD SWAP1 POP SWAP2 SWAP1 POP JUMP JUMPDEST PUSH2 0x12B0 DUP2 PUSH2 0x108F JUMP JUMPDEST DUP3 MSTORE POP POP JUMP JUMPDEST PUSH0 PUSH2 0x12C1 DUP4 DUP4 PUSH2 0x12A7 JUMP JUMPDEST PUSH1 0x20 DUP4 ADD SWAP1 POP SWAP3 SWAP2 POP POP JUMP JUMPDEST PUSH0 PUSH1 0x20 DUP3 ADD SWAP1 POP SWAP2 SWAP1 POP JUMP JUMPDEST PUSH0 PUSH2 0x12E3 DUP3 PUSH2 0x127E JUMP JUMPDEST PUSH2 0x12ED DUP2 DUP6 PUSH2 0x1288 JUMP JUMPDEST SWAP4 POP PUSH2 0x12F8 DUP4 PUSH2 0x1298 JUMP JUMPDEST DUP1 PUSH0 JUMPDEST DUP4 DUP2 LT ISZERO PUSH2 0x1328 JUMPI DUP2 MLOAD PUSH2 0x130F DUP9 DUP3 PUSH2 0x12B6 JUMP JUMPDEST SWAP8 POP PUSH2 0x131A DUP4 PUSH2 0x12CD JUMP JUMPDEST SWAP3 POP POP PUSH1 0x1 DUP2 ADD SWAP1 POP PUSH2 0x12FB JUMP JUMPDEST POP DUP6 SWAP4 POP POP POP POP SWAP3 SWAP2 POP POP JUMP JUMPDEST PUSH0 PUSH1 0x20 DUP3 ADD SWAP1 POP DUP2 DUP2 SUB PUSH0 DUP4 ADD MSTORE PUSH2 0x134D DUP2 DUP5 PUSH2 0x12D9 JUMP JUMPDEST SWAP1 POP SWAP3 SWAP2 POP POP JUMP JUMPDEST PUSH0 PUSH0 REVERT JUMPDEST PUSH0 PUSH0 REVERT JUMPDEST PUSH32 0x4E487B7100000000000000000000000000000000000000000000000000000000 PUSH0 MSTORE PUSH1 0x41 PUSH1 0x4 MSTORE PUSH1 0x24 PUSH0 REVERT JUMPDEST PUSH2 0x1393 DUP3 PUSH2 0x11A0 JUMP JUMPDEST DUP2 ADD DUP2 DUP2 LT PUSH8 0xFFFFFFFFFFFFFFFF DUP3 GT OR ISZERO PUSH2 0x13B2 JUMPI PUSH2 0x13B1 PUSH2 0x135D JUMP JUMPDEST JUMPDEST DUP1 PUSH1 0x40 MSTORE POP POP POP JUMP JUMPDEST PUSH0 PUSH2 0x13C4 PUSH2 0x1001 JUMP JUMPDEST SWAP1 POP PUSH2 0x13D0 DUP3 DUP3 PUSH2 0x138A JUMP JUMPDEST SWAP2 SWAP1 POP JUMP JUMPDEST PUSH0 PUSH8 0xFFFFFFFFFFFFFFFF DUP3 GT ISZERO PUSH2 0x13EF JUMPI PUSH2 0x13EE PUSH2 0x135D JUMP JUMPDEST JUMPDEST PUSH2 0x13F8 DUP3 PUSH2 0x11A0 JUMP JUMPDEST SWAP1 POP PUSH1 0x20 DUP2 ADD SWAP1 POP SWAP2 SWAP1 POP JUMP JUMPDEST DUP3 DUP2 DUP4 CALLDATACOPY PUSH0 DUP4 DUP4 ADD MSTORE POP POP POP JUMP JUMPDEST PUSH0 PUSH2 0x1425 PUSH2 0x1420 DUP5 PUSH2 0x13D5 JUMP JUMPDEST PUSH2 0x13BB JUMP JUMPDEST SWAP1 POP DUP3 DUP2 MSTORE PUSH1 0x20 DUP2 ADD DUP5 DUP5 DUP5 ADD GT ISZERO PUSH2 0x1441 JUMPI PUSH2 0x1440 PUSH2 0x1359 JUMP JUMPDEST JUMPDEST PUSH2 0x144C DUP5 DUP3 DUP6 PUSH2 0x1405 JUMP JUMPDEST POP SWAP4 SWAP3 POP POP POP JUMP JUMPDEST PUSH0 DUP3 PUSH1 0x1F DUP4 ADD SLT PUSH2 0x1468 JUMPI PUSH2 0x1467 PUSH2 0x1355 JUMP JUMPDEST JUMPDEST DUP2 CALLDATALOAD PUSH2 0x1478 DUP5 DUP3 PUSH1 0x20 DUP7 ADD PUSH2 0x1413 JUMP JUMPDEST SWAP2 POP POP SWAP3 SWAP2 POP POP JUMP JUMPDEST PUSH0 PUSH0 PUSH0 PUSH1 0x60 DUP5 DUP7 SUB SLT ISZERO PUSH2 0x1498 JUMPI PUSH2 0x1497 PUSH2 0x100A JUMP JUMPDEST JUMPDEST PUSH0 PUSH2 0x14A5 DUP7 DUP3 DUP8 ADD PUSH2 0x1106 JUMP JUMPDEST SWAP4 POP POP PUSH1 0x20 PUSH2 0x14B6 DUP7 DUP3 DUP8 ADD PUSH2 0x1031 JUMP JUMPDEST SWAP3 POP POP PUSH1 0x40 DUP5 ADD CALLDATALOAD PUSH8 0xFFFFFFFFFFFFFFFF DUP2 GT ISZERO PUSH2 0x14D7 JUMPI PUSH2 0x14D6 PUSH2 0x100E JUMP JUMPDEST JUMPDEST PUSH2 0x14E3 DUP7 DUP3 DUP8 ADD PUSH2 0x1454 JUMP JUMPDEST SWAP2 POP POP SWAP3 POP SWAP3 POP SWAP3 JUMP JUMPDEST PUSH0 DUP3 DUP3 MSTORE PUSH1 0x20 DUP3 ADD SWAP1 POP SWAP3 SWAP2 POP POP JUMP JUMPDEST PUSH32 0x6E6F74206F776E65720000000000000000000000000000000000000000000000 PUSH0 DUP3 ADD MSTORE POP JUMP JUMPDEST PUSH0 PUSH2 0x1531 PUSH1 0x9 DUP4 PUSH2 0x14ED JUMP JUMPDEST SWAP2 POP PUSH2 0x153C DUP3 PUSH2 0x14FD JUMP JUMPDEST PUSH1 0x20 DUP3 ADD SWAP1 POP SWAP2 SWAP1 POP JUMP JUMPDEST PUSH0 PUSH1 0x20 DUP3 ADD SWAP1 POP DUP2 DUP2 SUB PUSH0 DUP4 ADD MSTORE PUSH2 0x155E DUP2 PUSH2 0x1525 JUMP JUMPDEST SWAP1 POP SWAP2 SWAP1 POP JUMP JUMPDEST PUSH32 0x747820646F6573206E6F74206578697374000000000000000000000000000000 PUSH0 DUP3 ADD MSTORE POP JUMP JUMPDEST PUSH0 PUSH2 0x1599 PUSH1 0x11 DUP4 PUSH2 0x14ED JUMP JUMPDEST SWAP2 POP PUSH2 0x15A4 DUP3 PUSH2 0x1565 JUMP JUMPDEST PUSH1 0x20 DUP3 ADD SWAP1 POP SWAP2 SWAP1 POP JUMP JUMPDEST PUSH0 PUSH1 0x20 DUP3 ADD SWAP1 POP DUP2 DUP2 SUB PUSH0 DUP4 ADD MSTORE PUSH2 0x15C6 DUP2 PUSH2 0x158D JUMP JUMPDEST SWAP1 POP SWAP2 SWAP1 POP JUMP JUMPDEST PUSH32 0x4E487B7100000000000000000000000000000000000000000000000000000000 PUSH0 MSTORE PUSH1 0x32 PUSH1 0x4 MSTORE PUSH1 0x24 PUSH0 REVERT JUMPDEST PUSH32 0x747820616C726561647920657865637574656400000000000000000000000000 PUSH0 DUP3 ADD MSTORE POP JUMP JUMPDEST PUSH0 PUSH2 0x162E PUSH1 0x13 DUP4 PUSH2 0x14ED JUMP JUMPDEST SWAP2 POP PUSH2 0x1639 DUP3 PUSH2 0x15FA JUMP JUMPDEST PUSH1 0x20 DUP3 ADD SWAP1 POP SWAP2 SWAP1 POP JUMP JUMPDEST PUSH0 PUSH1 0x20 DUP3 ADD SWAP1 POP DUP2 DUP2 SUB PUSH0 DUP4 ADD MSTORE PUSH2 0x165B DUP2 PUSH2 0x1622 JUMP JUMPDEST SWAP1 POP SWAP2 SWAP1 POP JUMP JUMPDEST PUSH32 0x7478206E6F7420636F6E6669726D656400000000000000000000000000000000 PUSH0 DUP3 ADD MSTORE POP JUMP JUMPDEST PUSH0 PUSH2 0x1696 PUSH1 0x10 DUP4 PUSH2 0x14ED JUMP JUMPDEST SWAP2 POP PUSH2 0x16A1 DUP3 PUSH2 0x1662 JUMP JUMPDEST PUSH1 0x20 DUP3 ADD SWAP1 POP SWAP2 SWAP1 POP JUMP JUMPDEST PUSH0 PUSH1 0x20 DUP3 ADD SWAP1 POP DUP2 DUP2 SUB PUSH0 DUP4 ADD MSTORE PUSH2 0x16C3 DUP2 PUSH2 0x168A JUMP JUMPDEST SWAP1 POP SWAP2 SWAP1 POP JUMP JUMPDEST PUSH32 0x4E487B7100000000000000000000000000000000000000000000000000000000 PUSH0 MSTORE PUSH1 0x11 PUSH1 0x4 MSTORE PUSH1 0x24 PUSH0 REVERT JUMPDEST PUSH0 PUSH2 0x1701 DUP3 PUSH2 0x1012 JUMP JUMPDEST SWAP2 POP PUSH2 0x170C DUP4 PUSH2 0x1012 JUMP JUMPDEST SWAP3 POP DUP3 DUP3 SUB SWAP1 POP DUP2 DUP2 GT ISZERO PUSH2 0x1724 JUMPI PUSH2 0x1723 PUSH2 0x16CA JUMP JUMPDEST JUMPDEST SWAP3 SWAP2 POP POP JUMP JUMPDEST PUSH32 0x4E487B7100000000000000000000000000000000000000000000000000000000 PUSH0 MSTORE PUSH1 0x22 PUSH1 0x4 MSTORE PUSH1 0x24 PUSH0 REVERT JUMPDEST PUSH0 PUSH1 0x2 DUP3 DIV SWAP1 POP PUSH1 0x1 DUP3 AND DUP1 PUSH2 0x176E JUMPI PUSH1 0x7F DUP3 AND SWAP2 POP JUMPDEST PUSH1 0x20 DUP3 LT DUP2 SUB PUSH2 0x1781 JUMPI PUSH2 0x1780 PUSH2 0x172A JUMP JUMPDEST JUMPDEST POP SWAP2 SWAP1 POP JUMP JUMPDEST PUSH32 0x747820616C726561647920636F6E6669726D6564000000000000000000000000 PUSH0 DUP3 ADD MSTORE POP JUMP JUMPDEST PUSH0 PUSH2 0x17BB PUSH1 0x14 DUP4 PUSH2 0x14ED JUMP JUMPDEST SWAP2 POP PUSH2 0x17C6 DUP3 PUSH2 0x1787 JUMP JUMPDEST PUSH1 0x20 DUP3 ADD SWAP1 POP SWAP2 SWAP1 POP JUMP JUMPDEST PUSH0 PUSH1 0x20 DUP3 ADD SWAP1 POP DUP2 DUP2 SUB PUSH0 DUP4 ADD MSTORE PUSH2 0x17E8 DUP2 PUSH2 0x17AF JUMP JUMPDEST SWAP1 POP SWAP2 SWAP1 POP JUMP JUMPDEST PUSH0 PUSH2 0x17F9 DUP3 PUSH2 0x1012 JUMP JUMPDEST SWAP2 POP PUSH2 0x1804 DUP4 PUSH2 0x1012 JUMP JUMPDEST SWAP3 POP DUP3 DUP3 ADD SWAP1 POP DUP1 DUP3 GT ISZERO PUSH2 0x181C JUMPI PUSH2 0x181B PUSH2 0x16CA JUMP JUMPDEST JUMPDEST SWAP3 SWAP2 POP POP JUMP JUMPDEST PUSH0 DUP2 SWAP1 POP DUP2 PUSH0 MSTORE PUSH1 0x20 PUSH0 KECCAK256 SWAP1 POP SWAP2 SWAP1 POP JUMP JUMPDEST PUSH0 PUSH1 0x20 PUSH1 0x1F DUP4 ADD DIV SWAP1 POP SWAP2 SWAP1 POP JUMP JUMPDEST PUSH0 DUP3 DUP3 SHL SWAP1 POP SWAP3 SWAP2 POP POP JUMP JUMPDEST PUSH0 PUSH1 0x8 DUP4 MUL PUSH2 0x187E PUSH32 0xFFFFFFFFFFFFFFFFFFFFFFFFFFFFFFFFFFFFFFFFFFFFFFFFFFFFFFFFFFFFFFFF DUP3 PUSH2 0x1843 JUMP JUMPDEST PUSH2 0x1888 DUP7 DUP4 PUSH2 0x1843 JUMP JUMPDEST SWAP6 POP DUP1 NOT DUP5 AND SWAP4 POP DUP1 DUP7 AND DUP5 OR SWAP3 POP POP POP SWAP4 SWAP3 POP POP POP JUMP JUMPDEST PUSH0 DUP2 SWAP1 POP SWAP2 SWAP1 POP JUMP JUMPDEST PUSH0 PUSH2 0x18C3 PUSH2 0x18BE PUSH2 0x18B9 DUP5 PUSH2 0x1012 JUMP JUMPDEST PUSH2 0x18A0 JUMP JUMPDEST PUSH2 0x1012 JUMP JUMPDEST SWAP1 POP SWAP2 SWAP1 POP JUMP JUMPDEST PUSH0 DUP2 SWAP1 POP SWAP2 SWAP1 POP JUMP JUMPDEST PUSH2 0x18DC DUP4 PUSH2 0x18A9 JUMP JUMPDEST PUSH2 0x18F0 PUSH2 0x18E8 DUP3 PUSH2 0x18CA JUMP JUMPDEST DUP5 DUP5 SLOAD PUSH2 0x184F JUMP JUMPDEST DUP3 SSTORE POP POP POP POP JUMP JUMPDEST PUSH0 PUSH0 SWAP1 POP SWAP1 JUMP JUMPDEST PUSH2 0x1907 PUSH2 0x18F8 JUMP JUMPDEST PUSH2 0x1912 DUP2 DUP5 DUP5 PUSH2 0x18D3 JUMP JUMPDEST POP POP POP JUMP JUMPDEST JUMPDEST DUP2 DUP2 LT ISZERO PUSH2 0x1935 JUMPI PUSH2 0x192A PUSH0 DUP3 PUSH2 0x18FF JUMP JUMPDEST PUSH1 0x1 DUP2 ADD SWAP1 POP PUSH2 0x1918 JUMP JUMPDEST POP POP JUMP JUMPDEST PUSH1 0x1F DUP3 GT ISZERO PUSH2 0x197A JUMPI PUSH2 0x194B DUP2 PUSH2 0x1822 JUMP JUMPDEST PUSH2 0x1954 DUP5 PUSH2 0x1834 JUMP JUMPDEST DUP2 ADD PUSH1 0x20 DUP6 LT ISZERO PUSH2 0x1963 JUMPI DUP2 SWAP1 POP JUMPDEST PUSH2 0x1977 PUSH2 0x196F DUP6 PUSH2 0x1834 JUMP JUMPDEST DUP4 ADD DUP3 PUSH2 0x1917 JUMP JUMPDEST POP POP JUMPDEST POP POP POP JUMP JUMPDEST PUSH0 DUP3 DUP3 SHR SWAP1 POP SWAP3 SWAP2 POP POP JUMP JUMPDEST PUSH0 PUSH2 0x199A PUSH0 NOT DUP5 PUSH1 0x8 MUL PUSH2 0x197F JUMP JUMPDEST NOT DUP1 DUP4 AND SWAP2 POP POP SWAP3 SWAP2 POP POP JUMP JUMPDEST PUSH0 PUSH2 0x19B2 DUP4 DUP4 PUSH2 0x198B JUMP JUMPDEST SWAP2 POP DUP3 PUSH1 0x2 MUL DUP3 OR SWAP1 POP SWAP3 SWAP2 POP POP JUMP JUMPDEST PUSH2 0x19CB DUP3 PUSH2 0x1178 JUMP JUMPDEST PUSH8 0xFFFFFFFFFFFFFFFF DUP2 GT ISZERO PUSH2 0x19E4 JUMPI PUSH2 0x19E3 PUSH2 0x135D JUMP JUMPDEST JUMPDEST PUSH2 0x19EE DUP3 SLOAD PUSH2 0x1757 JUMP JUMPDEST PUSH2 0x19F9 DUP3 DUP3 DUP6 PUSH2 0x1939 JUMP JUMPDEST PUSH0 PUSH1 0x20 SWAP1 POP PUSH1 0x1F DUP4 GT PUSH1 0x1 DUP2 EQ PUSH2 0x1A2A JUMPI PUSH0 DUP5 ISZERO PUSH2 0x1A18 JUMPI DUP3 DUP8 ADD MLOAD SWAP1 POP JUMPDEST PUSH2 0x1A22 DUP6 DUP3 PUSH2 0x19A7 JUMP JUMPDEST DUP7 SSTORE POP PUSH2 0x1A89 JUMP JUMPDEST PUSH1 0x1F NOT DUP5 AND PUSH2 0x1A38 DUP7 PUSH2 0x1822 JUMP JUMPDEST PUSH0 JUMPDEST DUP3 DUP2 LT ISZERO PUSH2 0x1A5F JUMPI DUP5 DUP10 ADD MLOAD DUP3 SSTORE PUSH1 0x1 DUP3 ADD SWAP2 POP PUSH1 0x20 DUP6 ADD SWAP5 POP PUSH1 0x20 DUP2 ADD SWAP1 POP PUSH2 0x1A3A JUMP JUMPDEST DUP7 DUP4 LT ISZERO PUSH2 0x1A7C JUMPI DUP5 DUP10 ADD MLOAD PUSH2 0x1A78 PUSH1 0x1F DUP10 AND DUP3 PUSH2 0x198B JUMP JUMPDEST DUP4 SSTORE POP JUMPDEST PUSH1 0x1 PUSH1 0x2 DUP9 MUL ADD DUP9 SSTORE POP POP POP JUMPDEST POP POP POP POP POP POP JUMP JUMPDEST PUSH0 PUSH1 0x40 DUP3 ADD SWAP1 POP PUSH2 0x1AA4 PUSH0 DUP4 ADD DUP6 PUSH2 0x10C8 JUMP JUMPDEST DUP2 DUP2 SUB PUSH1 0x20 DUP4 ADD MSTORE PUSH2 0x1AB6 DUP2 DUP5 PUSH2 0x11B0 JUMP JUMPDEST SWAP1 POP SWAP4 SWAP3 POP POP POP JUMP JUMPDEST PUSH32 0x63616E6E6F742065786563757465207478000000000000000000000000000000 PUSH0 DUP3 ADD MSTORE POP JUMP JUMPDEST PUSH0 PUSH2 0x1AF3 PUSH1 0x11 DUP4 PUSH2 0x14ED JUMP JUMPDEST SWAP2 POP PUSH2 0x1AFE DUP3 PUSH2 0x1ABF JUMP JUMPDEST PUSH1 0x20 DUP3 ADD SWAP1 POP SWAP2 SWAP1 POP JUMP JUMPDEST PUSH0 PUSH1 0x20 DUP3 ADD SWAP1 POP DUP2 DUP2 SUB PUSH0 DUP4 ADD MSTORE PUSH2 0x1B20 DUP2 PUSH2 0x1AE7 JUMP JUMPDEST SWAP1 POP SWAP2 SWAP1 POP JUMP JUMPDEST PUSH0 DUP2 SWAP1 POP SWAP3 SWAP2 POP POP JUMP JUMPDEST PUSH0 DUP2 SLOAD PUSH2 0x1B3D DUP2 PUSH2 0x1757 JUMP JUMPDEST PUSH2 0x1B47 DUP2 DUP7 PUSH2 0x1B27 JUMP JUMPDEST SWAP5 POP PUSH1 0x1 DUP3 AND PUSH0 DUP2 EQ PUSH2 0x1B61 JUMPI PUSH1 0x1 DUP2 EQ PUSH2 0x1B76 JUMPI PUSH2 0x1BA8 JUMP JUMPDEST PUSH1 0xFF NOT DUP4 AND DUP7 MSTORE DUP2 ISZERO ISZERO DUP3 MUL DUP7 ADD SWAP4 POP PUSH2 0x1BA8 JUMP JUMPDEST PUSH2 0x1B7F DUP6 PUSH2 0x1822 JUMP JUMPDEST PUSH0 JUMPDEST DUP4 DUP2 LT ISZERO PUSH2 0x1BA0 JUMPI DUP2 SLOAD DUP2 DUP10 ADD MSTORE PUSH1 0x1 DUP3 ADD SWAP2 POP PUSH1 0x20 DUP2 ADD SWAP1 POP PUSH2 0x1B81 JUMP JUMPDEST DUP4 DUP9 ADD SWAP6 POP POP POP JUMPDEST POP POP POP SWAP3 SWAP2 POP POP JUMP JUMPDEST PUSH0 PUSH2 0x1BBC DUP3 DUP5 PUSH2 0x1B31 JUMP JUMPDEST SWAP2 POP DUP2 SWAP1 POP SWAP3 SWAP2 POP POP JUMP JUMPDEST PUSH32 0x7478206661696C65640000000000000000000000000000000000000000000000 PUSH0 DUP3 ADD MSTORE POP JUMP JUMPDEST PUSH0 PUSH2 0x1BFB PUSH1 0x9 DUP4 PUSH2 0x14ED JUMP JUMPDEST SWAP2 POP PUSH2 0x1C06 DUP3 PUSH2 0x1BC7 JUMP JUMPDEST PUSH1 0x20 DUP3 ADD SWAP1 POP SWAP2 SWAP1 POP JUMP JUMPDEST PUSH0 PUSH1 0x20 DUP3 ADD SWAP1 POP DUP2 DUP2 SUB PUSH0 DUP4 ADD MSTORE PUSH2 0x1C28 DUP2 PUSH2 0x1BEF JUMP JUMPDEST SWAP1 POP SWAP2 SWAP1 POP JUMP INVALID LOG2 PUSH5 0x6970667358 0x22 SLT KECCAK256 0xC7 SWAP2 MULMOD 0xD 0xBC EQ 0xB7 0xAF 0xDE 0x2B DELEGATECALL SWAP5 XOR 0x24 KECCAK256 0xD6 SAR EXTSTATICCALL SHL 0xA7 0xC0 MOD 0x4E NUMBER 0xED 0xC5 DIV LOG4 0xA6 PUSH32 0x12B064736F6C634300081E003300000000000000000000000000000000000000 "
				},
				"gasEstimates": {
					"creation": {
						"codeDepositCost": "1453800",
						"executionCost": "infinite",
						"totalCost": "infinite"
					},
					"external": {
						"confirmTransaction(uint256)": "infinite",
						"executeTransaction(uint256)": "infinite",
						"getOwners()": "infinite",
						"getTransaction(uint256)": "infinite",
						"getTransactionCount()": "2485",
						"isConfirmed(uint256,address)": "3181",
						"isOwner(address)": "2900",
						"numConfirmationsRequired()": "2513",
						"owners(uint256)": "4944",
						"revokeConfirmation(uint256)": "infinite",
						"submitTransaction(address,uint256,bytes)": "infinite",
						"transactions(uint256)": "infinite"
					}
				},
				"methodIdentifiers": {
					"confirmTransaction(uint256)": "c01a8c84",
					"executeTransaction(uint256)": "ee22610b",
					"getOwners()": "a0e67e2b",
					"getTransaction(uint256)": "33ea3dc8",
					"getTransactionCount()": "2e7700f0",
					"isConfirmed(uint256,address)": "80f59a65",
					"isOwner(address)": "2f54bf6e",
					"numConfirmationsRequired()": "d0549b85",
					"owners(uint256)": "025e7c27",
					"revokeConfirmation(uint256)": "20ea8d86",
					"submitTransaction(address,uint256,bytes)": "c6427474",
					"transactions(uint256)": "9ace38c2"
				}
			},
			"storageLayout": {
				"storage": [
					{
						"astId": 42,
						"contract": "application_contracts/Multi-Sig Wallet.sol:MultiSigWallet",
						"label": "owners",
						"offset": 0,
						"slot": "0",
						"type": "t_array(t_address)dyn_storage"
					},
					{
						"astId": 46,
						"contract": "application_contracts/Multi-Sig Wallet.sol:MultiSigWallet",
						"label": "isOwner",
						"offset": 0,
						"slot": "1",
						"type": "t_mapping(t_address,t_bool)"
					},
					{
						"astId": 48,
						"contract": "application_contracts/Multi-Sig Wallet.sol:MultiSigWallet",
						"label": "numConfirmationsRequired",
						"offset": 0,
						"slot": "2",
						"type": "t_uint256"
					},
					{
						"astId": 65,
						"contract": "application_contracts/Multi-Sig Wallet.sol:MultiSigWallet",
						"label": "isConfirmed",
						"offset": 0,
						"slot": "3",
						"type": "t_mapping(t_uint256,t_mapping(t_address,t_bool))"
					},
					{
						"astId": 69,
						"contract": "application_contracts/Multi-Sig Wallet.sol:MultiSigWallet",
						"label": "transactions",
						"offset": 0,
						"slot": "4",
						"type": "t_array(t_struct(Transaction)59_storage)dyn_storage"
					}
				],
				"types": {
					"t_address": {
						"encoding": "inplace",
						"label": "address",
						"numberOfBytes": "20"
					},
					"t_array(t_address)dyn_storage": {
						"base": "t_address",
						"encoding": "dynamic_array",
						"label": "address[]",
						"numberOfBytes": "32"
					},
					"t_array(t_struct(Transaction)59_storage)dyn_storage": {
						"base": "t_struct(Transaction)59_storage",
						"encoding": "dynamic_array",
						"label": "struct MultiSigWallet.Transaction[]",
						"numberOfBytes": "32"
					},
					"t_bool": {
						"encoding": "inplace",
						"label": "bool",
						"numberOfBytes": "1"
					},
					"t_bytes_storage": {
						"encoding": "bytes",
						"label": "bytes",
						"numberOfBytes": "32"
					},
					"t_mapping(t_address,t_bool)": {
						"encoding": "mapping",
						"key": "t_address",
						"label": "mapping(address => bool)",
						"numberOfBytes": "32",
						"value": "t_bool"
					},
					"t_mapping(t_uint256,t_mapping(t_address,t_bool))": {
						"encoding": "mapping",
						"key": "t_uint256",
						"label": "mapping(uint256 => mapping(address => bool))",
						"numberOfBytes": "32",
						"value": "t_mapping(t_address,t_bool)"
					},
					"t_struct(Transaction)59_storage": {
						"encoding": "inplace",
						"label": "struct MultiSigWallet.Transaction",
						"members": [
							{
								"astId": 50,
								"contract": "application_contracts/Multi-Sig Wallet.sol:MultiSigWallet",
								"label": "to",
								"offset": 0,
								"slot": "0",
								"type": "t_address"
							},
							{
								"astId": 52,
								"contract": "application_contracts/Multi-Sig Wallet.sol:MultiSigWallet",
								"label": "value",
								"offset": 0,
								"slot": "1",
								"type": "t_uint256"
							},
							{
								"astId": 54,
								"contract": "application_contracts/Multi-Sig Wallet.sol:MultiSigWallet",
								"label": "data",
								"offset": 0,
								"slot": "2",
								"type": "t_bytes_storage"
							},
							{
								"astId": 56,
								"contract": "application_contracts/Multi-Sig Wallet.sol:MultiSigWallet",
								"label": "executed",
								"offset": 0,
								"slot": "3",
								"type": "t_bool"
							},
							{
								"astId": 58,
								"contract": "application_contracts/Multi-Sig Wallet.sol:MultiSigWallet",
								"label": "numConfirmations",
								"offset": 0,
								"slot": "4",
								"type": "t_uint256"
							}
						],
						"numberOfBytes": "160"
					},
					"t_uint256": {
						"encoding": "inplace",
						"label": "uint256",
						"numberOfBytes": "32"
					}
				}
			},
			"userdoc": {
				"kind": "user",
				"methods": {},
				"version": 1
			}
		}
	}
}