{
	"application_contracts/Gas.sol": {
		"Gas2": {
			"abi": [
				{
					"inputs": [
						{
							"internalType": "uint256[]",
							"name": "nums",
							"type": "uint256[]"
						}
					],
					"name": "sumIfEvenAndLessThan99",
					"outputs": [],
					"stateMutability": "nonpayable",
					"type": "function"
				},
				{
					"inputs": [],
					"name": "total",
					"outputs": [
						{
							"internalType": "uint256",
							"name": "",
							"type": "uint256"
						}
					],
					"stateMutability": "view",
					"type": "function"
				}
			],
			"devdoc": {
				"kind": "dev",
				"methods": {},
				"version": 1
			},
			"evm": {
				"assembly": "    /* \"application_contracts/Gas.sol\":443:829  contract Gas2 {... */\n  mstore(0x40, 0x80)\n  callvalue\n  dup1\n  iszero\n  tag_1\n  jumpi\n  revert(0x00, 0x00)\ntag_1:\n  pop\n  dataSize(sub_0)\n  dup1\n  dataOffset(sub_0)\n  0x00\n  codecopy\n  0x00\n  return\nstop\n\nsub_0: assembly {\n        /* \"application_contracts/Gas.sol\":443:829  contract Gas2 {... */\n      mstore(0x40, 0x80)\n      callvalue\n      dup1\n      iszero\n      tag_1\n      jumpi\n      revert(0x00, 0x00)\n    tag_1:\n      pop\n      jumpi(tag_2, lt(calldatasize, 0x04))\n      shr(0xe0, calldataload(0x00))\n      dup1\n      0x2ddbd13a\n      eq\n      tag_3\n      jumpi\n      dup1\n      0xc9762ec2\n      eq\n      tag_4\n      jumpi\n    tag_2:\n      revert(0x00, 0x00)\n        /* \"application_contracts/Gas.sol\":463:480  uint public total */\n    tag_3:\n      tag_5\n      tag_6\n      jump\t// in\n    tag_5:\n      mload(0x40)\n      tag_7\n      swap2\n      swap1\n      tag_8\n      jump\t// in\n    tag_7:\n      mload(0x40)\n      dup1\n      swap2\n      sub\n      swap1\n      return\n        /* \"application_contracts/Gas.sol\":526:827  function sumIfEvenAndLessThan99(uint[] calldata nums) external {... */\n    tag_4:\n      tag_9\n      0x04\n      dup1\n      calldatasize\n      sub\n      dup2\n      add\n      swap1\n      tag_10\n      swap2\n      swap1\n      tag_11\n      jump\t// in\n    tag_10:\n      tag_12\n      jump\t// in\n    tag_9:\n      stop\n        /* \"application_contracts/Gas.sol\":463:480  uint public total */\n    tag_6:\n      sload(0x00)\n      dup2\n      jump\t// out\n        /* \"application_contracts/Gas.sol\":526:827  function sumIfEvenAndLessThan99(uint[] calldata nums) external {... */\n    tag_12:\n        /* \"application_contracts/Gas.sol\":604:610  uint i */\n      0x00\n        /* \"application_contracts/Gas.sol\":599:821  for (uint i; i < nums.length; i++) {... */\n    tag_14:\n        /* \"application_contracts/Gas.sol\":616:620  nums */\n      dup3\n      dup3\n        /* \"application_contracts/Gas.sol\":616:627  nums.length */\n      swap1\n      pop\n        /* \"application_contracts/Gas.sol\":612:613  i */\n      dup2\n        /* \"application_contracts/Gas.sol\":612:627  i < nums.length */\n      lt\n        /* \"application_contracts/Gas.sol\":599:821  for (uint i; i < nums.length; i++) {... */\n      iszero\n      tag_15\n      jumpi\n        /* \"application_contracts/Gas.sol\":648:659  bool isEven */\n      0x00\n        /* \"application_contracts/Gas.sol\":677:678  0 */\n      0x00\n        /* \"application_contracts/Gas.sol\":672:673  2 */\n      0x02\n        /* \"application_contracts/Gas.sol\":662:666  nums */\n      dup6\n      dup6\n        /* \"application_contracts/Gas.sol\":667:668  i */\n      dup6\n        /* \"application_contracts/Gas.sol\":662:669  nums[i] */\n      dup2\n      dup2\n      lt\n      tag_17\n      jumpi\n      tag_18\n      tag_19\n      jump\t// in\n    tag_18:\n    tag_17:\n      swap1\n      pop\n      0x20\n      mul\n      add\n      calldataload\n        /* \"application_contracts/Gas.sol\":662:673  nums[i] % 2 */\n      tag_20\n      swap2\n      swap1\n      tag_21\n      jump\t// in\n    tag_20:\n        /* \"application_contracts/Gas.sol\":662:678  nums[i] % 2 == 0 */\n      eq\n        /* \"application_contracts/Gas.sol\":648:678  bool isEven = nums[i] % 2 == 0 */\n      swap1\n      pop\n        /* \"application_contracts/Gas.sol\":692:707  bool lessThan99 */\n      0x00\n        /* \"application_contracts/Gas.sol\":720:722  99 */\n      0x63\n        /* \"application_contracts/Gas.sol\":710:714  nums */\n      dup6\n      dup6\n        /* \"application_contracts/Gas.sol\":715:716  i */\n      dup6\n        /* \"application_contracts/Gas.sol\":710:717  nums[i] */\n      dup2\n      dup2\n      lt\n      tag_22\n      jumpi\n      tag_23\n      tag_19\n      jump\t// in\n    tag_23:\n    tag_22:\n      swap1\n      pop\n      0x20\n      mul\n      add\n      calldataload\n        /* \"application_contracts/Gas.sol\":710:722  nums[i] < 99 */\n      lt\n        /* \"application_contracts/Gas.sol\":692:722  bool lessThan99 = nums[i] < 99 */\n      swap1\n      pop\n        /* \"application_contracts/Gas.sol\":740:746  isEven */\n      dup2\n        /* \"application_contracts/Gas.sol\":740:760  isEven && lessThan99 */\n      dup1\n      iszero\n      tag_24\n      jumpi\n      pop\n        /* \"application_contracts/Gas.sol\":750:760  lessThan99 */\n      dup1\n        /* \"application_contracts/Gas.sol\":740:760  isEven && lessThan99 */\n    tag_24:\n        /* \"application_contracts/Gas.sol\":736:811  if (isEven && lessThan99) {... */\n      iszero\n      tag_25\n      jumpi\n        /* \"application_contracts/Gas.sol\":789:793  nums */\n      dup5\n      dup5\n        /* \"application_contracts/Gas.sol\":794:795  i */\n      dup5\n        /* \"application_contracts/Gas.sol\":789:796  nums[i] */\n      dup2\n      dup2\n      lt\n      tag_26\n      jumpi\n      tag_27\n      tag_19\n      jump\t// in\n    tag_27:\n    tag_26:\n      swap1\n      pop\n      0x20\n      mul\n      add\n      calldataload\n        /* \"application_contracts/Gas.sol\":780:785  total */\n      0x00\n      0x00\n        /* \"application_contracts/Gas.sol\":780:796  total += nums[i] */\n      dup3\n      dup3\n      sload\n      tag_28\n      swap2\n      swap1\n      tag_29\n      jump\t// in\n    tag_28:\n      swap3\n      pop\n      pop\n      dup2\n      swap1\n      sstore\n      pop\n        /* \"application_contracts/Gas.sol\":736:811  if (isEven && lessThan99) {... */\n    tag_25:\n        /* \"application_contracts/Gas.sol\":634:821  {... */\n      pop\n      pop\n        /* \"application_contracts/Gas.sol\":629:632  i++ */\n      dup1\n      dup1\n      0x01\n      add\n      swap2\n      pop\n      pop\n        /* \"application_contracts/Gas.sol\":599:821  for (uint i; i < nums.length; i++) {... */\n      jump(tag_14)\n    tag_15:\n      pop\n        /* \"application_contracts/Gas.sol\":526:827  function sumIfEvenAndLessThan99(uint[] calldata nums) external {... */\n      pop\n      pop\n      jump\t// out\n        /* \"#utility.yul\":7:84   */\n    tag_30:\n        /* \"#utility.yul\":44:51   */\n      0x00\n        /* \"#utility.yul\":73:78   */\n      dup2\n        /* \"#utility.yul\":62:78   */\n      swap1\n      pop\n        /* \"#utility.yul\":7:84   */\n      swap2\n      swap1\n      pop\n      jump\t// out\n        /* \"#utility.yul\":90:208   */\n    tag_31:\n        /* \"#utility.yul\":177:201   */\n      tag_44\n        /* \"#utility.yul\":195:200   */\n      dup2\n        /* \"#utility.yul\":177:201   */\n      tag_30\n      jump\t// in\n    tag_44:\n        /* \"#utility.yul\":172:175   */\n      dup3\n        /* \"#utility.yul\":165:202   */\n      mstore\n        /* \"#utility.yul\":90:208   */\n      pop\n      pop\n      jump\t// out\n        /* \"#utility.yul\":214:436   */\n    tag_8:\n        /* \"#utility.yul\":307:311   */\n      0x00\n        /* \"#utility.yul\":345:347   */\n      0x20\n        /* \"#utility.yul\":334:343   */\n      dup3\n        /* \"#utility.yul\":330:348   */\n      add\n        /* \"#utility.yul\":322:348   */\n      swap1\n      pop\n        /* \"#utility.yul\":358:429   */\n      tag_46\n        /* \"#utility.yul\":426:427   */\n      0x00\n        /* \"#utility.yul\":415:424   */\n      dup4\n        /* \"#utility.yul\":411:428   */\n      add\n        /* \"#utility.yul\":402:408   */\n      dup5\n        /* \"#utility.yul\":358:429   */\n      tag_31\n      jump\t// in\n    tag_46:\n        /* \"#utility.yul\":214:436   */\n      swap3\n      swap2\n      pop\n      pop\n      jump\t// out\n        /* \"#utility.yul\":523:640   */\n    tag_33:\n        /* \"#utility.yul\":632:633   */\n      0x00\n        /* \"#utility.yul\":629:630   */\n      0x00\n        /* \"#utility.yul\":622:634   */\n      revert\n        /* \"#utility.yul\":646:763   */\n    tag_34:\n        /* \"#utility.yul\":755:756   */\n      0x00\n        /* \"#utility.yul\":752:753   */\n      0x00\n        /* \"#utility.yul\":745:757   */\n      revert\n        /* \"#utility.yul\":769:886   */\n    tag_35:\n        /* \"#utility.yul\":878:879   */\n      0x00\n        /* \"#utility.yul\":875:876   */\n      0x00\n        /* \"#utility.yul\":868:880   */\n      revert\n        /* \"#utility.yul\":892:1009   */\n    tag_36:\n        /* \"#utility.yul\":1001:1002   */\n      0x00\n        /* \"#utility.yul\":998:999   */\n      0x00\n        /* \"#utility.yul\":991:1003   */\n      revert\n        /* \"#utility.yul\":1015:1132   */\n    tag_37:\n        /* \"#utility.yul\":1124:1125   */\n      0x00\n        /* \"#utility.yul\":1121:1122   */\n      0x00\n        /* \"#utility.yul\":1114:1126   */\n      revert\n        /* \"#utility.yul\":1155:1723   */\n    tag_38:\n        /* \"#utility.yul\":1228:1236   */\n      0x00\n        /* \"#utility.yul\":1238:1244   */\n      0x00\n        /* \"#utility.yul\":1288:1291   */\n      dup4\n        /* \"#utility.yul\":1281:1285   */\n      0x1f\n        /* \"#utility.yul\":1273:1279   */\n      dup5\n        /* \"#utility.yul\":1269:1286   */\n      add\n        /* \"#utility.yul\":1265:1292   */\n      slt\n        /* \"#utility.yul\":1255:1377   */\n      tag_54\n      jumpi\n        /* \"#utility.yul\":1296:1375   */\n      tag_55\n      tag_35\n      jump\t// in\n    tag_55:\n        /* \"#utility.yul\":1255:1377   */\n    tag_54:\n        /* \"#utility.yul\":1409:1415   */\n      dup3\n        /* \"#utility.yul\":1396:1416   */\n      calldataload\n        /* \"#utility.yul\":1386:1416   */\n      swap1\n      pop\n        /* \"#utility.yul\":1439:1457   */\n      0xffffffffffffffff\n        /* \"#utility.yul\":1431:1437   */\n      dup2\n        /* \"#utility.yul\":1428:1458   */\n      gt\n        /* \"#utility.yul\":1425:1542   */\n      iszero\n      tag_56\n      jumpi\n        /* \"#utility.yul\":1461:1540   */\n      tag_57\n      tag_36\n      jump\t// in\n    tag_57:\n        /* \"#utility.yul\":1425:1542   */\n    tag_56:\n        /* \"#utility.yul\":1575:1579   */\n      0x20\n        /* \"#utility.yul\":1567:1573   */\n      dup4\n        /* \"#utility.yul\":1563:1580   */\n      add\n        /* \"#utility.yul\":1551:1580   */\n      swap2\n      pop\n        /* \"#utility.yul\":1629:1632   */\n      dup4\n        /* \"#utility.yul\":1621:1625   */\n      0x20\n        /* \"#utility.yul\":1613:1619   */\n      dup3\n        /* \"#utility.yul\":1609:1626   */\n      mul\n        /* \"#utility.yul\":1599:1607   */\n      dup4\n        /* \"#utility.yul\":1595:1627   */\n      add\n        /* \"#utility.yul\":1592:1633   */\n      gt\n        /* \"#utility.yul\":1589:1717   */\n      iszero\n      tag_58\n      jumpi\n        /* \"#utility.yul\":1636:1715   */\n      tag_59\n      tag_37\n      jump\t// in\n    tag_59:\n        /* \"#utility.yul\":1589:1717   */\n    tag_58:\n        /* \"#utility.yul\":1155:1723   */\n      swap3\n      pop\n      swap3\n      swap1\n      pop\n      jump\t// out\n        /* \"#utility.yul\":1729:2288   */\n    tag_11:\n        /* \"#utility.yul\":1815:1821   */\n      0x00\n        /* \"#utility.yul\":1823:1829   */\n      0x00\n        /* \"#utility.yul\":1872:1874   */\n      0x20\n        /* \"#utility.yul\":1860:1869   */\n      dup4\n        /* \"#utility.yul\":1851:1858   */\n      dup6\n        /* \"#utility.yul\":1847:1870   */\n      sub\n        /* \"#utility.yul\":1843:1875   */\n      slt\n        /* \"#utility.yul\":1840:1959   */\n      iszero\n      tag_61\n      jumpi\n        /* \"#utility.yul\":1878:1957   */\n      tag_62\n      tag_33\n      jump\t// in\n    tag_62:\n        /* \"#utility.yul\":1840:1959   */\n    tag_61:\n        /* \"#utility.yul\":2026:2027   */\n      0x00\n        /* \"#utility.yul\":2015:2024   */\n      dup4\n        /* \"#utility.yul\":2011:2028   */\n      add\n        /* \"#utility.yul\":1998:2029   */\n      calldataload\n        /* \"#utility.yul\":2056:2074   */\n      0xffffffffffffffff\n        /* \"#utility.yul\":2048:2054   */\n      dup2\n        /* \"#utility.yul\":2045:2075   */\n      gt\n        /* \"#utility.yul\":2042:2159   */\n      iszero\n      tag_63\n      jumpi\n        /* \"#utility.yul\":2078:2157   */\n      tag_64\n      tag_34\n      jump\t// in\n    tag_64:\n        /* \"#utility.yul\":2042:2159   */\n    tag_63:\n        /* \"#utility.yul\":2191:2271   */\n      tag_65\n        /* \"#utility.yul\":2263:2270   */\n      dup6\n        /* \"#utility.yul\":2254:2260   */\n      dup3\n        /* \"#utility.yul\":2243:2252   */\n      dup7\n        /* \"#utility.yul\":2239:2261   */\n      add\n        /* \"#utility.yul\":2191:2271   */\n      tag_38\n      jump\t// in\n    tag_65:\n        /* \"#utility.yul\":2173:2271   */\n      swap3\n      pop\n      swap3\n      pop\n        /* \"#utility.yul\":1969:2281   */\n      pop\n        /* \"#utility.yul\":1729:2288   */\n      swap3\n      pop\n      swap3\n      swap1\n      pop\n      jump\t// out\n        /* \"#utility.yul\":2294:2474   */\n    tag_19:\n        /* \"#utility.yul\":2342:2419   */\n      0x4e487b7100000000000000000000000000000000000000000000000000000000\n        /* \"#utility.yul\":2339:2340   */\n      0x00\n        /* \"#utility.yul\":2332:2420   */\n      mstore\n        /* \"#utility.yul\":2439:2443   */\n      0x32\n        /* \"#utility.yul\":2436:2437   */\n      0x04\n        /* \"#utility.yul\":2429:2444   */\n      mstore\n        /* \"#utility.yul\":2463:2467   */\n      0x24\n        /* \"#utility.yul\":2460:2461   */\n      0x00\n        /* \"#utility.yul\":2453:2468   */\n      revert\n        /* \"#utility.yul\":2480:2660   */\n    tag_39:\n        /* \"#utility.yul\":2528:2605   */\n      0x4e487b7100000000000000000000000000000000000000000000000000000000\n        /* \"#utility.yul\":2525:2526   */\n      0x00\n        /* \"#utility.yul\":2518:2606   */\n      mstore\n        /* \"#utility.yul\":2625:2629   */\n      0x12\n        /* \"#utility.yul\":2622:2623   */\n      0x04\n        /* \"#utility.yul\":2615:2630   */\n      mstore\n        /* \"#utility.yul\":2649:2653   */\n      0x24\n        /* \"#utility.yul\":2646:2647   */\n      0x00\n        /* \"#utility.yul\":2639:2654   */\n      revert\n        /* \"#utility.yul\":2666:2842   */\n    tag_21:\n        /* \"#utility.yul\":2698:2699   */\n      0x00\n        /* \"#utility.yul\":2715:2735   */\n      tag_69\n        /* \"#utility.yul\":2733:2734   */\n      dup3\n        /* \"#utility.yul\":2715:2735   */\n      tag_30\n      jump\t// in\n    tag_69:\n        /* \"#utility.yul\":2710:2735   */\n      swap2\n      pop\n        /* \"#utility.yul\":2749:2769   */\n      tag_70\n        /* \"#utility.yul\":2767:2768   */\n      dup4\n        /* \"#utility.yul\":2749:2769   */\n      tag_30\n      jump\t// in\n    tag_70:\n        /* \"#utility.yul\":2744:2769   */\n      swap3\n      pop\n        /* \"#utility.yul\":2788:2789   */\n      dup3\n        /* \"#utility.yul\":2778:2813   */\n      tag_71\n      jumpi\n        /* \"#utility.yul\":2793:2811   */\n      tag_72\n      tag_39\n      jump\t// in\n    tag_72:\n        /* \"#utility.yul\":2778:2813   */\n    tag_71:\n        /* \"#utility.yul\":2834:2835   */\n      dup3\n        /* \"#utility.yul\":2831:2832   */\n      dup3\n        /* \"#utility.yul\":2827:2836   */\n      mod\n        /* \"#utility.yul\":2822:2836   */\n      swap1\n      pop\n        /* \"#utility.yul\":2666:2842   */\n      swap3\n      swap2\n      pop\n      pop\n      jump\t// out\n        /* \"#utility.yul\":2848:3028   */\n    tag_40:\n        /* \"#utility.yul\":2896:2973   */\n      0x4e487b7100000000000000000000000000000000000000000000000000000000\n        /* \"#utility.yul\":2893:2894   */\n      0x00\n        /* \"#utility.yul\":2886:2974   */\n      mstore\n        /* \"#utility.yul\":2993:2997   */\n      0x11\n        /* \"#utility.yul\":2990:2991   */\n      0x04\n        /* \"#utility.yul\":2983:2998   */\n      mstore\n        /* \"#utility.yul\":3017:3021   */\n      0x24\n        /* \"#utility.yul\":3014:3015   */\n      0x00\n        /* \"#utility.yul\":3007:3022   */\n      revert\n        /* \"#utility.yul\":3034:3225   */\n    tag_29:\n        /* \"#utility.yul\":3074:3077   */\n      0x00\n        /* \"#utility.yul\":3093:3113   */\n      tag_75\n        /* \"#utility.yul\":3111:3112   */\n      dup3\n        /* \"#utility.yul\":3093:3113   */\n      tag_30\n      jump\t// in\n    tag_75:\n        /* \"#utility.yul\":3088:3113   */\n      swap2\n      pop\n        /* \"#utility.yul\":3127:3147   */\n      tag_76\n        /* \"#utility.yul\":3145:3146   */\n      dup4\n        /* \"#utility.yul\":3127:3147   */\n      tag_30\n      jump\t// in\n    tag_76:\n        /* \"#utility.yul\":3122:3147   */\n      swap3\n      pop\n        /* \"#utility.yul\":3170:3171   */\n      dup3\n        /* \"#utility.yul\":3167:3168   */\n      dup3\n        /* \"#utility.yul\":3163:3172   */\n      add\n        /* \"#utility.yul\":3156:3172   */\n      swap1\n      pop\n        /* \"#utility.yul\":3191:3194   */\n      dup1\n        /* \"#utility.yul\":3188:3189   */\n      dup3\n        /* \"#utility.yul\":3185:3195   */\n      gt\n        /* \"#utility.yul\":3182:3218   */\n      iszero\n      tag_77\n      jumpi\n        /* \"#utility.yul\":3198:3216   */\n      tag_78\n      tag_40\n      jump\t// in\n    tag_78:\n        /* \"#utility.yul\":3182:3218   */\n    tag_77:\n        /* \"#utility.yul\":3034:3225   */\n      swap3\n      swap2\n      pop\n      pop\n      jump\t// out\n\n    auxdata: 0xa26469706673582212201a505e854041460566909514d4808cae6aa1782907f8c4cc36edfbe9969e8c4d64736f6c634300081e0033\n}\n",
				"bytecode": {
					"linkReferences": {},
					"object": "6080604052348015600e575f5ffd5b506103288061001c5f395ff3fe608060405234801561000f575f5ffd5b5060043610610034575f3560e01c80632ddbd13a14610038578063c9762ec214610056575b5f5ffd5b610040610072565b60405161004d919061013b565b60405180910390f35b610070600480360381019061006b91906101bd565b610077565b005b5f5481565b5f5b8282905081101561011e575f5f600285858581811061009b5761009a610208565b5b905060200201356100ac9190610262565b1490505f60638585858181106100c5576100c4610208565b5b905060200201351090508180156100d95750805b1561010f578484848181106100f1576100f0610208565b5b905060200201355f5f82825461010791906102bf565b925050819055505b50508080600101915050610079565b505050565b5f819050919050565b61013581610123565b82525050565b5f60208201905061014e5f83018461012c565b92915050565b5f5ffd5b5f5ffd5b5f5ffd5b5f5ffd5b5f5ffd5b5f5f83601f84011261017d5761017c61015c565b5b8235905067ffffffffffffffff81111561019a57610199610160565b5b6020830191508360208202830111156101b6576101b5610164565b5b9250929050565b5f5f602083850312156101d3576101d2610154565b5b5f83013567ffffffffffffffff8111156101f0576101ef610158565b5b6101fc85828601610168565b92509250509250929050565b7f4e487b71000000000000000000000000000000000000000000000000000000005f52603260045260245ffd5b7f4e487b71000000000000000000000000000000000000000000000000000000005f52601260045260245ffd5b5f61026c82610123565b915061027783610123565b92508261028757610286610235565b5b828206905092915050565b7f4e487b71000000000000000000000000000000000000000000000000000000005f52601160045260245ffd5b5f6102c982610123565b91506102d483610123565b92508282019050808211156102ec576102eb610292565b5b9291505056fea26469706673582212201a505e854041460566909514d4808cae6aa1782907f8c4cc36edfbe9969e8c4d64736f6c634300081e0033",
					"opcodes": "PUSH1 0x80 PUSH1 0x40 MSTORE CALLVALUE DUP1 ISZERO PUSH1 0xE JUMPI PUSH0 PUSH0 REVERT JUMPDEST POP PUSH2 0x328 DUP1 PUSH2 0x1C PUSH0 CODECOPY PUSH0 RETURN INVALID PUSH1 0x80 PUSH1 0x40 MSTORE CALLVALUE DUP1 ISZERO PUSH2 0xF JUMPI PUSH0 PUSH0 REVERT JUMPDEST POP PUSH1 0x4 CALLDATASIZE LT PUSH2 0x34 JUMPI PUSH0 CALLDATALOAD PUSH1 0xE0 SHR DUP1 PUSH4 0x2DDBD13A EQ PUSH2 0x38 JUMPI DUP1 PUSH4 0xC9762EC2 EQ PUSH2 0x56 JUMPI JUMPDEST PUSH0 PUSH0 REVERT JUMPDEST PUSH2 0x40 PUSH2 0x72 JUMP JUMPDEST PUSH1 0x40 MLOAD PUSH2 0x4D SWAP2 SWAP1 PUSH2 0x13B JUMP JUMPDEST PUSH1 0x40 MLOAD DUP1 SWAP2 SUB SWAP1 RETURN JUMPDEST PUSH2 0x70 PUSH1 0x4 DUP1 CALLDATASIZE SUB DUP2 ADD SWAP1 PUSH2 0x6B SWAP2 SWAP1 PUSH2 0x1BD JUMP JUMPDEST PUSH2 0x77 JUMP JUMPDEST STOP JUMPDEST PUSH0 SLOAD DUP2 JUMP JUMPDEST PUSH0 JUMPDEST DUP3 DUP3 SWAP1 POP DUP2 LT ISZERO PUSH2 0x11E JUMPI PUSH0 PUSH0 PUSH1 0x2 DUP6 DUP6 DUP6 DUP2 DUP2 LT PUSH2 0x9B JUMPI PUSH2 0x9A PUSH2 0x208 JUMP JUMPDEST JUMPDEST SWAP1 POP PUSH1 0x20 MUL ADD CALLDATALOAD PUSH2 0xAC SWAP2 SWAP1 PUSH2 0x262 JUMP JUMPDEST EQ SWAP1 POP PUSH0 PUSH1 0x63 DUP6 DUP6 DUP6 DUP2 DUP2 LT PUSH2 0xC5 JUMPI PUSH2 0xC4 PUSH2 0x208 JUMP JUMPDEST JUMPDEST SWAP1 POP PUSH1 0x20 MUL ADD CALLDATALOAD LT SWAP1 POP DUP2 DUP1 ISZERO PUSH2 0xD9 JUMPI POP DUP1 JUMPDEST ISZERO PUSH2 0x10F JUMPI DUP5 DUP5 DUP5 DUP2 DUP2 LT PUSH2 0xF1 JUMPI PUSH2 0xF0 PUSH2 0x208 JUMP JUMPDEST JUMPDEST SWAP1 POP PUSH1 0x20 MUL ADD CALLDATALOAD PUSH0 PUSH0 DUP3 DUP3 SLOAD PUSH2 0x107 SWAP2 SWAP1 PUSH2 0x2BF JUMP JUMPDEST SWAP3 POP POP DUP2 SWAP1 SSTORE POP JUMPDEST POP POP DUP1 DUP1 PUSH1 0x1 ADD SWAP2 POP POP PUSH2 0x79 JUMP JUMPDEST POP POP POP JUMP JUMPDEST PUSH0 DUP2 SWAP1 POP SWAP2 SWAP1 POP JUMP JUMPDEST PUSH2 0x135 DUP2 PUSH2 0x123 JUMP JUMPDEST DUP3 MSTORE POP POP JUMP JUMPDEST PUSH0 PUSH1 0x20 DUP3 ADD SWAP1 POP PUSH2 0x14E PUSH0 DUP4 ADD DUP5 PUSH2 0x12C JUMP JUMPDEST SWAP3 SWAP2 POP POP JUMP JUMPDEST PUSH0 PUSH0 REVERT JUMPDEST PUSH0 PUSH0 REVERT JUMPDEST PUSH0 PUSH0 REVERT JUMPDEST PUSH0 PUSH0 REVERT JUMPDEST PUSH0 PUSH0 REVERT JUMPDEST PUSH0 PUSH0 DUP4 PUSH1 0x1F DUP5 ADD SLT PUSH2 0x17D JUMPI PUSH2 0x17C PUSH2 0x15C JUMP JUMPDEST JUMPDEST DUP3 CALLDATALOAD SWAP1 POP PUSH8 0xFFFFFFFFFFFFFFFF DUP2 GT ISZERO PUSH2 0x19A JUMPI PUSH2 0x199 PUSH2 0x160 JUMP JUMPDEST JUMPDEST PUSH1 0x20 DUP4 ADD SWAP2 POP DUP4 PUSH1 0x20 DUP3 MUL DUP4 ADD GT ISZERO PUSH2 0x1B6 JUMPI PUSH2 0x1B5 PUSH2 0x164 JUMP JUMPDEST JUMPDEST SWAP3 POP SWAP3 SWAP1 POP JUMP JUMPDEST PUSH0 PUSH0 PUSH1 0x20 DUP4 DUP6 SUB SLT ISZERO PUSH2 0x1D3 JUMPI PUSH2 0x1D2 PUSH2 0x154 JUMP JUMPDEST JUMPDEST PUSH0 DUP4 ADD CALLDATALOAD PUSH8 0xFFFFFFFFFFFFFFFF DUP2 GT ISZERO PUSH2 0x1F0 JUMPI PUSH2 0x1EF PUSH2 0x158 JUMP JUMPDEST JUMPDEST PUSH2 0x1FC DUP6 DUP3 DUP7 ADD PUSH2 0x168 JUMP JUMPDEST SWAP3 POP SWAP3 POP POP SWAP3 POP SWAP3 SWAP1 POP JUMP JUMPDEST PUSH32 0x4E487B7100000000000000000000000000000000000000000000000000000000 PUSH0 MSTORE PUSH1 0x32 PUSH1 0x4 MSTORE PUSH1 0x24 PUSH0 REVERT JUMPDEST PUSH32 0x4E487B7100000000000000000000000000000000000000000000000000000000 PUSH0 MSTORE PUSH1 0x12 PUSH1 0x4 MSTORE PUSH1 0x24 PUSH0 REVERT JUMPDEST PUSH0 PUSH2 0x26C DUP3 PUSH2 0x123 JUMP JUMPDEST SWAP2 POP PUSH2 0x277 DUP4 PUSH2 0x123 JUMP JUMPDEST SWAP3 POP DUP3 PUSH2 0x287 JUMPI PUSH2 0x286 PUSH2 0x235 JUMP JUMPDEST JUMPDEST DUP3 DUP3 MOD SWAP1 POP SWAP3 SWAP2 POP POP JUMP JUMPDEST PUSH32 0x4E487B7100000000000000000000000000000000000000000000000000000000 PUSH0 MSTORE PUSH1 0x11 PUSH1 0x4 MSTORE PUSH1 0x24 PUSH0 REVERT JUMPDEST PUSH0 PUSH2 0x2C9 DUP3 PUSH2 0x123 JUMP JUMPDEST SWAP2 POP PUSH2 0x2D4 DUP4 PUSH2 0x123 JUMP JUMPDEST SWAP3 POP DUP3 DUP3 ADD SWAP1 POP DUP1 DUP3 GT ISZERO PUSH2 0x2EC JUMPI PUSH2 0x2EB PUSH2 0x292 JUMP JUMPDEST JUMPDEST SWAP3 SWAP2 POP POP JUMP INVALID LOG2 PUSH5 0x6970667358 0x22 SLT KECCAK256 BYTE POP MCOPY DUP6 BLOCKHASH COINBASE CHAINID SDIV PUSH7 0x909514D4808CAE PUSH11 0xA1782907F8C4CC36EDFBE9 SWAP7 SWAP15 DUP13 0x4D PUSH5 0x736F6C6343 STOP ADDMOD 0x1E STOP CALLER "
				},
				"gasEstimates": {
					"creation": {
						"codeDepositCost": "161600",
						"executionCost": "206",
						"totalCost": "161806"
					},
					"external": {
						"sumIfEvenAndLessThan99(uint256[])": "infinite",
						"total()": "2402"
					}
				},
				"methodIdentifiers": {
					"sumIfEvenAndLessThan99(uint256[])": "c9762ec2",
					"total()": "2ddbd13a"
				}
			},
			"storageLayout": {
				"storage": [
					{
						"astId": 54,
						"contract": "application_contracts/Gas.sol:Gas2",
						"label": "total",
						"offset": 0,
						"slot": "0",
						"type": "t_uint256"
					}
				],
				"types": {
					"t_uint256": {
						"encoding": "inplace",
						"label": "uint256",
						"numberOfBytes": "32"
					}
				}
			},
			"userdoc": {
				"kind": "user",
				"methods": {},
				"version": 1
			}
		}
	}
}