{
	"AllInOne.sol": {
		"CallerContract": {
			"abi": [
				{
					"inputs": [
						{
							"internalType": "address",
							"name": "tokenAddress",
							"type": "address"
						},
						{
							"internalType": "bytes4",
							"name": "transferSelector",
							"type": "bytes4"
						},
						{
							"internalType": "address",
							"name": "_to",
							"type": "address"
						},
						{
							"internalType": "uint256",
							"name": "amount",
							"type": "uint256"
						}
					],
					"name": "callTransfer",
					"outputs": [
						{
							"internalType": "bool",
							"name": "",
							"type": "bool"
						}
					],
					"stateMutability": "nonpayable",
					"type": "function"
				},
				{
					"inputs": [
						{
							"internalType": "address",
							"name": "tokenAddress",
							"type": "address"
						},
						{
							"internalType": "bytes4",
							"name": "transferSelector",
							"type": "bytes4"
						},
						{
							"internalType": "address",
							"name": "_to",
							"type": "address"
						},
						{
							"internalType": "uint256",
							"name": "amount",
							"type": "uint256"
						}
					],
					"name": "standardCallTransfer",
					"outputs": [
						{
							"internalType": "bool",
							"name": "",
							"type": "bool"
						}
					],
					"stateMutability": "nonpayable",
					"type": "function"
				}
			],
			"devdoc": {
				"details": "一个演示合约，用于通过底层调用（call/delegatecall）与 MyToken 合约交互。",
				"kind": "dev",
				"methods": {
					"callTransfer(address,bytes4,address,uint256)": {
						"details": "使用 delegatecall 调用 MyToken 的 transfer 函数。  WARNING: 这会执行 MyToken 的 transfer 函数代码，但会操作 CallerContract 自己的存储。 因为 CallerContract 没有名为 balanceOf 的 mapping，所以调用几乎肯定会因为 \"Insufficient balance\" 而失败。 这是一个教学示例，展示了 delegatecall 的特性，而不是一个实用的功能。",
						"params": {
							"_to": "接收代币的目标地址。",
							"amount": "要转账的代币数量。",
							"tokenAddress": "MyToken 合约的地址。",
							"transferSelector": "transfer 函数的函数选择器 (例如 0xa9059cbb)。"
						},
						"returns": {
							"_0": "调用成功且转账成功则返回 true。"
						}
					},
					"standardCallTransfer(address,bytes4,address,uint256)": {
						"details": "使用 call 调用 MyToken 的 transfer 函数。  这是与其他合约交互的标准方式。它会切换到 MyToken 的上下文。 MyToken 合约中看到的 msg.sender 会是 CallerContract 的地址。 因此，要使此调用成功，CallerContract 地址必须在 MyToken 合约中有足够的余额。",
						"params": {
							"_to": "接收代币的目标地址。",
							"amount": "要转账的代币数量。",
							"tokenAddress": "MyToken 合约的地址。",
							"transferSelector": "transfer 函数的函数选择器 (例如 0xa9059cbb)。"
						},
						"returns": {
							"_0": "调用成功且转账成功则返回 true。"
						}
					}
				},
				"title": "CallerContract",
				"version": 1
			},
			"evm": {
				"assembly": "    /* \"AllInOne.sol\":1941:4812  contract CallerContract {... */\n  mstore(0x40, 0x80)\n  callvalue\n  dup1\n  iszero\n  tag_1\n  jumpi\n  revert(0x00, 0x00)\ntag_1:\n  pop\n  dataSize(sub_0)\n  dup1\n  dataOffset(sub_0)\n  0x00\n  codecopy\n  0x00\n  return\nstop\n\nsub_0: assembly {\n        /* \"AllInOne.sol\":1941:4812  contract CallerContract {... */\n      mstore(0x40, 0x80)\n      callvalue\n      dup1\n      iszero\n      tag_1\n      jumpi\n      revert(0x00, 0x00)\n    tag_1:\n      pop\n      jumpi(tag_2, lt(calldatasize, 0x04))\n      shr(0xe0, calldataload(0x00))\n      dup1\n      0x3f79766e\n      eq\n      tag_3\n      jumpi\n      dup1\n      0xe3729a88\n      eq\n      tag_4\n      jumpi\n    tag_2:\n      revert(0x00, 0x00)\n        /* \"AllInOne.sol\":4216:4809  function standardCallTransfer(... */\n    tag_3:\n      tag_5\n      0x04\n      dup1\n      calldatasize\n      sub\n      dup2\n      add\n      swap1\n      tag_6\n      swap2\n      swap1\n      tag_7\n      jump\t// in\n    tag_6:\n      tag_8\n      jump\t// in\n    tag_5:\n      mload(0x40)\n      tag_9\n      swap2\n      swap1\n      tag_10\n      jump\t// in\n    tag_9:\n      mload(0x40)\n      dup1\n      swap2\n      sub\n      swap1\n      return\n        /* \"AllInOne.sol\":2739:3520  function callTransfer(... */\n    tag_4:\n      tag_11\n      0x04\n      dup1\n      calldatasize\n      sub\n      dup2\n      add\n      swap1\n      tag_12\n      swap2\n      swap1\n      tag_7\n      jump\t// in\n    tag_12:\n      tag_13\n      jump\t// in\n    tag_11:\n      mload(0x40)\n      tag_14\n      swap2\n      swap1\n      tag_10\n      jump\t// in\n    tag_14:\n      mload(0x40)\n      dup1\n      swap2\n      sub\n      swap1\n      return\n        /* \"AllInOne.sol\":4216:4809  function standardCallTransfer(... */\n    tag_8:\n        /* \"AllInOne.sol\":4384:4388  bool */\n      0x00\n        /* \"AllInOne.sol\":4533:4545  bool success */\n      0x00\n        /* \"AllInOne.sol\":4547:4570  bytes memory returnData */\n      0x00\n        /* \"AllInOne.sol\":4574:4586  tokenAddress */\n      dup7\n        /* \"AllInOne.sol\":4574:4591  tokenAddress.call */\n      0xffffffffffffffffffffffffffffffffffffffff\n      and\n        /* \"AllInOne.sol\":4629:4645  transferSelector */\n      dup7\n        /* \"AllInOne.sol\":4647:4650  _to */\n      dup7\n        /* \"AllInOne.sol\":4652:4658  amount */\n      dup7\n        /* \"AllInOne.sol\":4606:4659  abi.encodeWithSelector(transferSelector, _to, amount) */\n      add(0x24, mload(0x40))\n      tag_16\n      swap3\n      swap2\n      swap1\n      tag_17\n      jump\t// in\n    tag_16:\n      mload(0x40)\n      0x20\n      dup2\n      dup4\n      sub\n      sub\n      dup2\n      mstore\n      swap1\n      0x40\n      mstore\n      swap1\n      not(0xffffffffffffffffffffffffffffffffffffffffffffffffffffffff)\n      and\n      0x20\n      dup3\n      add\n      dup1\n      mload\n      0xffffffffffffffffffffffffffffffffffffffffffffffffffffffff\n      dup4\n      dup2\n      dup4\n      and\n      or\n      dup4\n      mstore\n      pop\n      pop\n      pop\n      pop\n        /* \"AllInOne.sol\":4574:4670  tokenAddress.call(... */\n      mload(0x40)\n      tag_18\n      swap2\n      swap1\n      tag_19\n      jump\t// in\n    tag_18:\n      0x00\n      mload(0x40)\n      dup1\n      dup4\n      sub\n      dup2\n      0x00\n      dup7\n      gas\n      call\n      swap2\n      pop\n      pop\n      returndatasize\n      dup1\n      0x00\n      dup2\n      eq\n      tag_22\n      jumpi\n      mload(0x40)\n      swap2\n      pop\n      and(add(returndatasize, 0x3f), not(0x1f))\n      dup3\n      add\n      0x40\n      mstore\n      returndatasize\n      dup3\n      mstore\n      returndatasize\n      0x00\n      0x20\n      dup5\n      add\n      returndatacopy\n      jump(tag_21)\n    tag_22:\n      0x60\n      swap2\n      pop\n    tag_21:\n      pop\n        /* \"AllInOne.sol\":4532:4670  (bool success, bytes memory returnData) = tokenAddress.call(... */\n      swap2\n      pop\n      swap2\n      pop\n        /* \"AllInOne.sol\":4691:4698  success */\n      dup2\n        /* \"AllInOne.sol\":4683:4751  require(success, \"CallerContract: Standard call to transfer failed\") */\n      tag_23\n      jumpi\n      mload(0x40)\n      0x08c379a000000000000000000000000000000000000000000000000000000000\n      dup2\n      mstore\n      0x04\n      add\n      tag_24\n      swap1\n      tag_25\n      jump\t// in\n    tag_24:\n      mload(0x40)\n      dup1\n      swap2\n      sub\n      swap1\n      revert\n    tag_23:\n        /* \"AllInOne.sol\":4782:4792  returnData */\n      dup1\n        /* \"AllInOne.sol\":4771:4801  abi.decode(returnData, (bool)) */\n      dup1\n      0x20\n      add\n      swap1\n      mload\n      dup2\n      add\n      swap1\n      tag_26\n      swap2\n      swap1\n      tag_27\n      jump\t// in\n    tag_26:\n        /* \"AllInOne.sol\":4764:4801  return abi.decode(returnData, (bool)) */\n      swap3\n      pop\n      pop\n      pop\n        /* \"AllInOne.sol\":4216:4809  function standardCallTransfer(... */\n      swap5\n      swap4\n      pop\n      pop\n      pop\n      pop\n      jump\t// out\n        /* \"AllInOne.sol\":2739:3520  function callTransfer(... */\n    tag_13:\n        /* \"AllInOne.sol\":2899:2903  bool */\n      0x00\n        /* \"AllInOne.sol\":3109:3121  bool success */\n      0x00\n        /* \"AllInOne.sol\":3123:3146  bytes memory returnData */\n      0x00\n        /* \"AllInOne.sol\":3150:3162  tokenAddress */\n      dup7\n        /* \"AllInOne.sol\":3150:3175  tokenAddress.delegatecall */\n      0xffffffffffffffffffffffffffffffffffffffff\n      and\n        /* \"AllInOne.sol\":3213:3229  transferSelector */\n      dup7\n        /* \"AllInOne.sol\":3231:3234  _to */\n      dup7\n        /* \"AllInOne.sol\":3236:3242  amount */\n      dup7\n        /* \"AllInOne.sol\":3190:3243  abi.encodeWithSelector(transferSelector, _to, amount) */\n      add(0x24, mload(0x40))\n      tag_29\n      swap3\n      swap2\n      swap1\n      tag_17\n      jump\t// in\n    tag_29:\n      mload(0x40)\n      0x20\n      dup2\n      dup4\n      sub\n      sub\n      dup2\n      mstore\n      swap1\n      0x40\n      mstore\n      swap1\n      not(0xffffffffffffffffffffffffffffffffffffffffffffffffffffffff)\n      and\n      0x20\n      dup3\n      add\n      dup1\n      mload\n      0xffffffffffffffffffffffffffffffffffffffffffffffffffffffff\n      dup4\n      dup2\n      dup4\n      and\n      or\n      dup4\n      mstore\n      pop\n      pop\n      pop\n      pop\n        /* \"AllInOne.sol\":3150:3254  tokenAddress.delegatecall(... */\n      mload(0x40)\n      tag_30\n      swap2\n      swap1\n      tag_19\n      jump\t// in\n    tag_30:\n      0x00\n      mload(0x40)\n      dup1\n      dup4\n      sub\n      dup2\n      dup6\n      gas\n      delegatecall\n      swap2\n      pop\n      pop\n      returndatasize\n      dup1\n      0x00\n      dup2\n      eq\n      tag_33\n      jumpi\n      mload(0x40)\n      swap2\n      pop\n      and(add(returndatasize, 0x3f), not(0x1f))\n      dup3\n      add\n      0x40\n      mstore\n      returndatasize\n      dup3\n      mstore\n      returndatasize\n      0x00\n      0x20\n      dup5\n      add\n      returndatacopy\n      jump(tag_32)\n    tag_33:\n      0x60\n      swap2\n      pop\n    tag_32:\n      pop\n        /* \"AllInOne.sol\":3108:3254  (bool success, bytes memory returnData) = tokenAddress.delegatecall(... */\n      swap2\n      pop\n      swap2\n      pop\n        /* \"AllInOne.sol\":3353:3360  success */\n      dup2\n        /* \"AllInOne.sol\":3345:3404  require(success, \"CallerContract: Call to transfer failed\") */\n      tag_34\n      jumpi\n      mload(0x40)\n      0x08c379a000000000000000000000000000000000000000000000000000000000\n      dup2\n      mstore\n      0x04\n      add\n      tag_35\n      swap1\n      tag_36\n      jump\t// in\n    tag_35:\n      mload(0x40)\n      dup1\n      swap2\n      sub\n      swap1\n      revert\n    tag_34:\n        /* \"AllInOne.sol\":3493:3503  returnData */\n      dup1\n        /* \"AllInOne.sol\":3482:3512  abi.decode(returnData, (bool)) */\n      dup1\n      0x20\n      add\n      swap1\n      mload\n      dup2\n      add\n      swap1\n      tag_37\n      swap2\n      swap1\n      tag_27\n      jump\t// in\n    tag_37:\n        /* \"AllInOne.sol\":3475:3512  return abi.decode(returnData, (bool)) */\n      swap3\n      pop\n      pop\n      pop\n        /* \"AllInOne.sol\":2739:3520  function callTransfer(... */\n      swap5\n      swap4\n      pop\n      pop\n      pop\n      pop\n      jump\t// out\n        /* \"#utility.yul\":88:205   */\n    tag_39:\n        /* \"#utility.yul\":197:198   */\n      0x00\n        /* \"#utility.yul\":194:195   */\n      0x00\n        /* \"#utility.yul\":187:199   */\n      revert\n        /* \"#utility.yul\":334:460   */\n    tag_41:\n        /* \"#utility.yul\":371:378   */\n      0x00\n        /* \"#utility.yul\":411:453   */\n      0xffffffffffffffffffffffffffffffffffffffff\n        /* \"#utility.yul\":404:409   */\n      dup3\n        /* \"#utility.yul\":400:454   */\n      and\n        /* \"#utility.yul\":389:454   */\n      swap1\n      pop\n        /* \"#utility.yul\":334:460   */\n      swap2\n      swap1\n      pop\n      jump\t// out\n        /* \"#utility.yul\":466:562   */\n    tag_42:\n        /* \"#utility.yul\":503:510   */\n      0x00\n        /* \"#utility.yul\":532:556   */\n      tag_72\n        /* \"#utility.yul\":550:555   */\n      dup3\n        /* \"#utility.yul\":532:556   */\n      tag_41\n      jump\t// in\n    tag_72:\n        /* \"#utility.yul\":521:556   */\n      swap1\n      pop\n        /* \"#utility.yul\":466:562   */\n      swap2\n      swap1\n      pop\n      jump\t// out\n        /* \"#utility.yul\":568:690   */\n    tag_43:\n        /* \"#utility.yul\":641:665   */\n      tag_74\n        /* \"#utility.yul\":659:664   */\n      dup2\n        /* \"#utility.yul\":641:665   */\n      tag_42\n      jump\t// in\n    tag_74:\n        /* \"#utility.yul\":634:639   */\n      dup2\n        /* \"#utility.yul\":631:666   */\n      eq\n        /* \"#utility.yul\":621:684   */\n      tag_75\n      jumpi\n        /* \"#utility.yul\":680:681   */\n      0x00\n        /* \"#utility.yul\":677:678   */\n      0x00\n        /* \"#utility.yul\":670:682   */\n      revert\n        /* \"#utility.yul\":621:684   */\n    tag_75:\n        /* \"#utility.yul\":568:690   */\n      pop\n      jump\t// out\n        /* \"#utility.yul\":696:835   */\n    tag_44:\n        /* \"#utility.yul\":742:747   */\n      0x00\n        /* \"#utility.yul\":780:786   */\n      dup2\n        /* \"#utility.yul\":767:787   */\n      calldataload\n        /* \"#utility.yul\":758:787   */\n      swap1\n      pop\n        /* \"#utility.yul\":796:829   */\n      tag_77\n        /* \"#utility.yul\":823:828   */\n      dup2\n        /* \"#utility.yul\":796:829   */\n      tag_43\n      jump\t// in\n    tag_77:\n        /* \"#utility.yul\":696:835   */\n      swap3\n      swap2\n      pop\n      pop\n      jump\t// out\n        /* \"#utility.yul\":841:990   */\n    tag_45:\n        /* \"#utility.yul\":877:884   */\n      0x00\n        /* \"#utility.yul\":917:983   */\n      0xffffffff00000000000000000000000000000000000000000000000000000000\n        /* \"#utility.yul\":910:915   */\n      dup3\n        /* \"#utility.yul\":906:984   */\n      and\n        /* \"#utility.yul\":895:984   */\n      swap1\n      pop\n        /* \"#utility.yul\":841:990   */\n      swap2\n      swap1\n      pop\n      jump\t// out\n        /* \"#utility.yul\":996:1116   */\n    tag_46:\n        /* \"#utility.yul\":1068:1091   */\n      tag_80\n        /* \"#utility.yul\":1085:1090   */\n      dup2\n        /* \"#utility.yul\":1068:1091   */\n      tag_45\n      jump\t// in\n    tag_80:\n        /* \"#utility.yul\":1061:1066   */\n      dup2\n        /* \"#utility.yul\":1058:1092   */\n      eq\n        /* \"#utility.yul\":1048:1110   */\n      tag_81\n      jumpi\n        /* \"#utility.yul\":1106:1107   */\n      0x00\n        /* \"#utility.yul\":1103:1104   */\n      0x00\n        /* \"#utility.yul\":1096:1108   */\n      revert\n        /* \"#utility.yul\":1048:1110   */\n    tag_81:\n        /* \"#utility.yul\":996:1116   */\n      pop\n      jump\t// out\n        /* \"#utility.yul\":1122:1259   */\n    tag_47:\n        /* \"#utility.yul\":1167:1172   */\n      0x00\n        /* \"#utility.yul\":1205:1211   */\n      dup2\n        /* \"#utility.yul\":1192:1212   */\n      calldataload\n        /* \"#utility.yul\":1183:1212   */\n      swap1\n      pop\n        /* \"#utility.yul\":1221:1253   */\n      tag_83\n        /* \"#utility.yul\":1247:1252   */\n      dup2\n        /* \"#utility.yul\":1221:1253   */\n      tag_46\n      jump\t// in\n    tag_83:\n        /* \"#utility.yul\":1122:1259   */\n      swap3\n      swap2\n      pop\n      pop\n      jump\t// out\n        /* \"#utility.yul\":1265:1342   */\n    tag_48:\n        /* \"#utility.yul\":1302:1309   */\n      0x00\n        /* \"#utility.yul\":1331:1336   */\n      dup2\n        /* \"#utility.yul\":1320:1336   */\n      swap1\n      pop\n        /* \"#utility.yul\":1265:1342   */\n      swap2\n      swap1\n      pop\n      jump\t// out\n        /* \"#utility.yul\":1348:1470   */\n    tag_49:\n        /* \"#utility.yul\":1421:1445   */\n      tag_86\n        /* \"#utility.yul\":1439:1444   */\n      dup2\n        /* \"#utility.yul\":1421:1445   */\n      tag_48\n      jump\t// in\n    tag_86:\n        /* \"#utility.yul\":1414:1419   */\n      dup2\n        /* \"#utility.yul\":1411:1446   */\n      eq\n        /* \"#utility.yul\":1401:1464   */\n      tag_87\n      jumpi\n        /* \"#utility.yul\":1460:1461   */\n      0x00\n        /* \"#utility.yul\":1457:1458   */\n      0x00\n        /* \"#utility.yul\":1450:1462   */\n      revert\n        /* \"#utility.yul\":1401:1464   */\n    tag_87:\n        /* \"#utility.yul\":1348:1470   */\n      pop\n      jump\t// out\n        /* \"#utility.yul\":1476:1615   */\n    tag_50:\n        /* \"#utility.yul\":1522:1527   */\n      0x00\n        /* \"#utility.yul\":1560:1566   */\n      dup2\n        /* \"#utility.yul\":1547:1567   */\n      calldataload\n        /* \"#utility.yul\":1538:1567   */\n      swap1\n      pop\n        /* \"#utility.yul\":1576:1609   */\n      tag_89\n        /* \"#utility.yul\":1603:1608   */\n      dup2\n        /* \"#utility.yul\":1576:1609   */\n      tag_49\n      jump\t// in\n    tag_89:\n        /* \"#utility.yul\":1476:1615   */\n      swap3\n      swap2\n      pop\n      pop\n      jump\t// out\n        /* \"#utility.yul\":1621:2384   */\n    tag_7:\n        /* \"#utility.yul\":1706:1712   */\n      0x00\n        /* \"#utility.yul\":1714:1720   */\n      0x00\n        /* \"#utility.yul\":1722:1728   */\n      0x00\n        /* \"#utility.yul\":1730:1736   */\n      0x00\n        /* \"#utility.yul\":1779:1782   */\n      0x80\n        /* \"#utility.yul\":1767:1776   */\n      dup6\n        /* \"#utility.yul\":1758:1765   */\n      dup8\n        /* \"#utility.yul\":1754:1777   */\n      sub\n        /* \"#utility.yul\":1750:1783   */\n      slt\n        /* \"#utility.yul\":1747:1867   */\n      iszero\n      tag_91\n      jumpi\n        /* \"#utility.yul\":1786:1865   */\n      tag_92\n      tag_39\n      jump\t// in\n    tag_92:\n        /* \"#utility.yul\":1747:1867   */\n    tag_91:\n        /* \"#utility.yul\":1906:1907   */\n      0x00\n        /* \"#utility.yul\":1931:1984   */\n      tag_93\n        /* \"#utility.yul\":1976:1983   */\n      dup8\n        /* \"#utility.yul\":1967:1973   */\n      dup3\n        /* \"#utility.yul\":1956:1965   */\n      dup9\n        /* \"#utility.yul\":1952:1974   */\n      add\n        /* \"#utility.yul\":1931:1984   */\n      tag_44\n      jump\t// in\n    tag_93:\n        /* \"#utility.yul\":1921:1984   */\n      swap5\n      pop\n        /* \"#utility.yul\":1877:1994   */\n      pop\n        /* \"#utility.yul\":2033:2035   */\n      0x20\n        /* \"#utility.yul\":2059:2111   */\n      tag_94\n        /* \"#utility.yul\":2103:2110   */\n      dup8\n        /* \"#utility.yul\":2094:2100   */\n      dup3\n        /* \"#utility.yul\":2083:2092   */\n      dup9\n        /* \"#utility.yul\":2079:2101   */\n      add\n        /* \"#utility.yul\":2059:2111   */\n      tag_47\n      jump\t// in\n    tag_94:\n        /* \"#utility.yul\":2049:2111   */\n      swap4\n      pop\n        /* \"#utility.yul\":2004:2121   */\n      pop\n        /* \"#utility.yul\":2160:2162   */\n      0x40\n        /* \"#utility.yul\":2186:2239   */\n      tag_95\n        /* \"#utility.yul\":2231:2238   */\n      dup8\n        /* \"#utility.yul\":2222:2228   */\n      dup3\n        /* \"#utility.yul\":2211:2220   */\n      dup9\n        /* \"#utility.yul\":2207:2229   */\n      add\n        /* \"#utility.yul\":2186:2239   */\n      tag_44\n      jump\t// in\n    tag_95:\n        /* \"#utility.yul\":2176:2239   */\n      swap3\n      pop\n        /* \"#utility.yul\":2131:2249   */\n      pop\n        /* \"#utility.yul\":2288:2290   */\n      0x60\n        /* \"#utility.yul\":2314:2367   */\n      tag_96\n        /* \"#utility.yul\":2359:2366   */\n      dup8\n        /* \"#utility.yul\":2350:2356   */\n      dup3\n        /* \"#utility.yul\":2339:2348   */\n      dup9\n        /* \"#utility.yul\":2335:2357   */\n      add\n        /* \"#utility.yul\":2314:2367   */\n      tag_50\n      jump\t// in\n    tag_96:\n        /* \"#utility.yul\":2304:2367   */\n      swap2\n      pop\n        /* \"#utility.yul\":2259:2377   */\n      pop\n        /* \"#utility.yul\":1621:2384   */\n      swap3\n      swap6\n      swap2\n      swap5\n      pop\n      swap3\n      pop\n      jump\t// out\n        /* \"#utility.yul\":2390:2480   */\n    tag_51:\n        /* \"#utility.yul\":2424:2431   */\n      0x00\n        /* \"#utility.yul\":2467:2472   */\n      dup2\n        /* \"#utility.yul\":2460:2473   */\n      iszero\n        /* \"#utility.yul\":2453:2474   */\n      iszero\n        /* \"#utility.yul\":2442:2474   */\n      swap1\n      pop\n        /* \"#utility.yul\":2390:2480   */\n      swap2\n      swap1\n      pop\n      jump\t// out\n        /* \"#utility.yul\":2486:2595   */\n    tag_52:\n        /* \"#utility.yul\":2567:2588   */\n      tag_99\n        /* \"#utility.yul\":2582:2587   */\n      dup2\n        /* \"#utility.yul\":2567:2588   */\n      tag_51\n      jump\t// in\n    tag_99:\n        /* \"#utility.yul\":2562:2565   */\n      dup3\n        /* \"#utility.yul\":2555:2589   */\n      mstore\n        /* \"#utility.yul\":2486:2595   */\n      pop\n      pop\n      jump\t// out\n        /* \"#utility.yul\":2601:2811   */\n    tag_10:\n        /* \"#utility.yul\":2688:2692   */\n      0x00\n        /* \"#utility.yul\":2726:2728   */\n      0x20\n        /* \"#utility.yul\":2715:2724   */\n      dup3\n        /* \"#utility.yul\":2711:2729   */\n      add\n        /* \"#utility.yul\":2703:2729   */\n      swap1\n      pop\n        /* \"#utility.yul\":2739:2804   */\n      tag_101\n        /* \"#utility.yul\":2801:2802   */\n      0x00\n        /* \"#utility.yul\":2790:2799   */\n      dup4\n        /* \"#utility.yul\":2786:2803   */\n      add\n        /* \"#utility.yul\":2777:2783   */\n      dup5\n        /* \"#utility.yul\":2739:2804   */\n      tag_52\n      jump\t// in\n    tag_101:\n        /* \"#utility.yul\":2601:2811   */\n      swap3\n      swap2\n      pop\n      pop\n      jump\t// out\n        /* \"#utility.yul\":2817:2935   */\n    tag_53:\n        /* \"#utility.yul\":2904:2928   */\n      tag_103\n        /* \"#utility.yul\":2922:2927   */\n      dup2\n        /* \"#utility.yul\":2904:2928   */\n      tag_42\n      jump\t// in\n    tag_103:\n        /* \"#utility.yul\":2899:2902   */\n      dup3\n        /* \"#utility.yul\":2892:2929   */\n      mstore\n        /* \"#utility.yul\":2817:2935   */\n      pop\n      pop\n      jump\t// out\n        /* \"#utility.yul\":2941:3059   */\n    tag_54:\n        /* \"#utility.yul\":3028:3052   */\n      tag_105\n        /* \"#utility.yul\":3046:3051   */\n      dup2\n        /* \"#utility.yul\":3028:3052   */\n      tag_48\n      jump\t// in\n    tag_105:\n        /* \"#utility.yul\":3023:3026   */\n      dup3\n        /* \"#utility.yul\":3016:3053   */\n      mstore\n        /* \"#utility.yul\":2941:3059   */\n      pop\n      pop\n      jump\t// out\n        /* \"#utility.yul\":3065:3397   */\n    tag_17:\n        /* \"#utility.yul\":3186:3190   */\n      0x00\n        /* \"#utility.yul\":3224:3226   */\n      0x40\n        /* \"#utility.yul\":3213:3222   */\n      dup3\n        /* \"#utility.yul\":3209:3227   */\n      add\n        /* \"#utility.yul\":3201:3227   */\n      swap1\n      pop\n        /* \"#utility.yul\":3237:3308   */\n      tag_107\n        /* \"#utility.yul\":3305:3306   */\n      0x00\n        /* \"#utility.yul\":3294:3303   */\n      dup4\n        /* \"#utility.yul\":3290:3307   */\n      add\n        /* \"#utility.yul\":3281:3287   */\n      dup6\n        /* \"#utility.yul\":3237:3308   */\n      tag_53\n      jump\t// in\n    tag_107:\n        /* \"#utility.yul\":3318:3390   */\n      tag_108\n        /* \"#utility.yul\":3386:3388   */\n      0x20\n        /* \"#utility.yul\":3375:3384   */\n      dup4\n        /* \"#utility.yul\":3371:3389   */\n      add\n        /* \"#utility.yul\":3362:3368   */\n      dup5\n        /* \"#utility.yul\":3318:3390   */\n      tag_54\n      jump\t// in\n    tag_108:\n        /* \"#utility.yul\":3065:3397   */\n      swap4\n      swap3\n      pop\n      pop\n      pop\n      jump\t// out\n        /* \"#utility.yul\":3403:3501   */\n    tag_55:\n        /* \"#utility.yul\":3454:3460   */\n      0x00\n        /* \"#utility.yul\":3488:3493   */\n      dup2\n        /* \"#utility.yul\":3482:3494   */\n      mload\n        /* \"#utility.yul\":3472:3494   */\n      swap1\n      pop\n        /* \"#utility.yul\":3403:3501   */\n      swap2\n      swap1\n      pop\n      jump\t// out\n        /* \"#utility.yul\":3507:3654   */\n    tag_56:\n        /* \"#utility.yul\":3608:3619   */\n      0x00\n        /* \"#utility.yul\":3645:3648   */\n      dup2\n        /* \"#utility.yul\":3630:3648   */\n      swap1\n      pop\n        /* \"#utility.yul\":3507:3654   */\n      swap3\n      swap2\n      pop\n      pop\n      jump\t// out\n        /* \"#utility.yul\":3660:3799   */\n    tag_57:\n        /* \"#utility.yul\":3749:3755   */\n      dup3\n        /* \"#utility.yul\":3744:3747   */\n      dup2\n        /* \"#utility.yul\":3739:3742   */\n      dup4\n        /* \"#utility.yul\":3733:3756   */\n      mcopy\n        /* \"#utility.yul\":3790:3791   */\n      0x00\n        /* \"#utility.yul\":3781:3787   */\n      dup4\n        /* \"#utility.yul\":3776:3779   */\n      dup4\n        /* \"#utility.yul\":3772:3788   */\n      add\n        /* \"#utility.yul\":3765:3792   */\n      mstore\n        /* \"#utility.yul\":3660:3799   */\n      pop\n      pop\n      pop\n      jump\t// out\n        /* \"#utility.yul\":3805:4191   */\n    tag_58:\n        /* \"#utility.yul\":3909:3912   */\n      0x00\n        /* \"#utility.yul\":3937:3975   */\n      tag_113\n        /* \"#utility.yul\":3969:3974   */\n      dup3\n        /* \"#utility.yul\":3937:3975   */\n      tag_55\n      jump\t// in\n    tag_113:\n        /* \"#utility.yul\":3991:4079   */\n      tag_114\n        /* \"#utility.yul\":4072:4078   */\n      dup2\n        /* \"#utility.yul\":4067:4070   */\n      dup6\n        /* \"#utility.yul\":3991:4079   */\n      tag_56\n      jump\t// in\n    tag_114:\n        /* \"#utility.yul\":3984:4079   */\n      swap4\n      pop\n        /* \"#utility.yul\":4088:4153   */\n      tag_115\n        /* \"#utility.yul\":4146:4152   */\n      dup2\n        /* \"#utility.yul\":4141:4144   */\n      dup6\n        /* \"#utility.yul\":4134:4138   */\n      0x20\n        /* \"#utility.yul\":4127:4132   */\n      dup7\n        /* \"#utility.yul\":4123:4139   */\n      add\n        /* \"#utility.yul\":4088:4153   */\n      tag_57\n      jump\t// in\n    tag_115:\n        /* \"#utility.yul\":4178:4184   */\n      dup1\n        /* \"#utility.yul\":4173:4176   */\n      dup5\n        /* \"#utility.yul\":4169:4185   */\n      add\n        /* \"#utility.yul\":4162:4185   */\n      swap2\n      pop\n        /* \"#utility.yul\":3913:4191   */\n      pop\n        /* \"#utility.yul\":3805:4191   */\n      swap3\n      swap2\n      pop\n      pop\n      jump\t// out\n        /* \"#utility.yul\":4197:4468   */\n    tag_19:\n        /* \"#utility.yul\":4327:4330   */\n      0x00\n        /* \"#utility.yul\":4349:4442   */\n      tag_117\n        /* \"#utility.yul\":4438:4441   */\n      dup3\n        /* \"#utility.yul\":4429:4435   */\n      dup5\n        /* \"#utility.yul\":4349:4442   */\n      tag_58\n      jump\t// in\n    tag_117:\n        /* \"#utility.yul\":4342:4442   */\n      swap2\n      pop\n        /* \"#utility.yul\":4459:4462   */\n      dup2\n        /* \"#utility.yul\":4452:4462   */\n      swap1\n      pop\n        /* \"#utility.yul\":4197:4468   */\n      swap3\n      swap2\n      pop\n      pop\n      jump\t// out\n        /* \"#utility.yul\":4474:4643   */\n    tag_59:\n        /* \"#utility.yul\":4558:4569   */\n      0x00\n        /* \"#utility.yul\":4592:4598   */\n      dup3\n        /* \"#utility.yul\":4587:4590   */\n      dup3\n        /* \"#utility.yul\":4580:4599   */\n      mstore\n        /* \"#utility.yul\":4632:4636   */\n      0x20\n        /* \"#utility.yul\":4627:4630   */\n      dup3\n        /* \"#utility.yul\":4623:4637   */\n      add\n        /* \"#utility.yul\":4608:4637   */\n      swap1\n      pop\n        /* \"#utility.yul\":4474:4643   */\n      swap3\n      swap2\n      pop\n      pop\n      jump\t// out\n        /* \"#utility.yul\":4649:4884   */\n    tag_60:\n        /* \"#utility.yul\":4789:4823   */\n      0x43616c6c6572436f6e74726163743a205374616e646172642063616c6c20746f\n        /* \"#utility.yul\":4785:4786   */\n      0x00\n        /* \"#utility.yul\":4777:4783   */\n      dup3\n        /* \"#utility.yul\":4773:4787   */\n      add\n        /* \"#utility.yul\":4766:4824   */\n      mstore\n        /* \"#utility.yul\":4858:4876   */\n      0x207472616e73666572206661696c656400000000000000000000000000000000\n        /* \"#utility.yul\":4853:4855   */\n      0x20\n        /* \"#utility.yul\":4845:4851   */\n      dup3\n        /* \"#utility.yul\":4841:4856   */\n      add\n        /* \"#utility.yul\":4834:4877   */\n      mstore\n        /* \"#utility.yul\":4649:4884   */\n      pop\n      jump\t// out\n        /* \"#utility.yul\":4890:5256   */\n    tag_61:\n        /* \"#utility.yul\":5032:5035   */\n      0x00\n        /* \"#utility.yul\":5053:5120   */\n      tag_121\n        /* \"#utility.yul\":5117:5119   */\n      0x30\n        /* \"#utility.yul\":5112:5115   */\n      dup4\n        /* \"#utility.yul\":5053:5120   */\n      tag_59\n      jump\t// in\n    tag_121:\n        /* \"#utility.yul\":5046:5120   */\n      swap2\n      pop\n        /* \"#utility.yul\":5129:5222   */\n      tag_122\n        /* \"#utility.yul\":5218:5221   */\n      dup3\n        /* \"#utility.yul\":5129:5222   */\n      tag_60\n      jump\t// in\n    tag_122:\n        /* \"#utility.yul\":5247:5249   */\n      0x40\n        /* \"#utility.yul\":5242:5245   */\n      dup3\n        /* \"#utility.yul\":5238:5250   */\n      add\n        /* \"#utility.yul\":5231:5250   */\n      swap1\n      pop\n        /* \"#utility.yul\":4890:5256   */\n      swap2\n      swap1\n      pop\n      jump\t// out\n        /* \"#utility.yul\":5262:5681   */\n    tag_25:\n        /* \"#utility.yul\":5428:5432   */\n      0x00\n        /* \"#utility.yul\":5466:5468   */\n      0x20\n        /* \"#utility.yul\":5455:5464   */\n      dup3\n        /* \"#utility.yul\":5451:5469   */\n      add\n        /* \"#utility.yul\":5443:5469   */\n      swap1\n      pop\n        /* \"#utility.yul\":5515:5524   */\n      dup2\n        /* \"#utility.yul\":5509:5513   */\n      dup2\n        /* \"#utility.yul\":5505:5525   */\n      sub\n        /* \"#utility.yul\":5501:5502   */\n      0x00\n        /* \"#utility.yul\":5490:5499   */\n      dup4\n        /* \"#utility.yul\":5486:5503   */\n      add\n        /* \"#utility.yul\":5479:5526   */\n      mstore\n        /* \"#utility.yul\":5543:5674   */\n      tag_124\n        /* \"#utility.yul\":5669:5673   */\n      dup2\n        /* \"#utility.yul\":5543:5674   */\n      tag_61\n      jump\t// in\n    tag_124:\n        /* \"#utility.yul\":5535:5674   */\n      swap1\n      pop\n        /* \"#utility.yul\":5262:5681   */\n      swap2\n      swap1\n      pop\n      jump\t// out\n        /* \"#utility.yul\":5687:5803   */\n    tag_62:\n        /* \"#utility.yul\":5757:5778   */\n      tag_126\n        /* \"#utility.yul\":5772:5777   */\n      dup2\n        /* \"#utility.yul\":5757:5778   */\n      tag_51\n      jump\t// in\n    tag_126:\n        /* \"#utility.yul\":5750:5755   */\n      dup2\n        /* \"#utility.yul\":5747:5779   */\n      eq\n        /* \"#utility.yul\":5737:5797   */\n      tag_127\n      jumpi\n        /* \"#utility.yul\":5793:5794   */\n      0x00\n        /* \"#utility.yul\":5790:5791   */\n      0x00\n        /* \"#utility.yul\":5783:5795   */\n      revert\n        /* \"#utility.yul\":5737:5797   */\n    tag_127:\n        /* \"#utility.yul\":5687:5803   */\n      pop\n      jump\t// out\n        /* \"#utility.yul\":5809:5946   */\n    tag_63:\n        /* \"#utility.yul\":5863:5868   */\n      0x00\n        /* \"#utility.yul\":5894:5900   */\n      dup2\n        /* \"#utility.yul\":5888:5901   */\n      mload\n        /* \"#utility.yul\":5879:5901   */\n      swap1\n      pop\n        /* \"#utility.yul\":5910:5940   */\n      tag_129\n        /* \"#utility.yul\":5934:5939   */\n      dup2\n        /* \"#utility.yul\":5910:5940   */\n      tag_62\n      jump\t// in\n    tag_129:\n        /* \"#utility.yul\":5809:5946   */\n      swap3\n      swap2\n      pop\n      pop\n      jump\t// out\n        /* \"#utility.yul\":5952:6297   */\n    tag_27:\n        /* \"#utility.yul\":6019:6025   */\n      0x00\n        /* \"#utility.yul\":6068:6070   */\n      0x20\n        /* \"#utility.yul\":6056:6065   */\n      dup3\n        /* \"#utility.yul\":6047:6054   */\n      dup5\n        /* \"#utility.yul\":6043:6066   */\n      sub\n        /* \"#utility.yul\":6039:6071   */\n      slt\n        /* \"#utility.yul\":6036:6155   */\n      iszero\n      tag_131\n      jumpi\n        /* \"#utility.yul\":6074:6153   */\n      tag_132\n      tag_39\n      jump\t// in\n    tag_132:\n        /* \"#utility.yul\":6036:6155   */\n    tag_131:\n        /* \"#utility.yul\":6194:6195   */\n      0x00\n        /* \"#utility.yul\":6219:6280   */\n      tag_133\n        /* \"#utility.yul\":6272:6279   */\n      dup5\n        /* \"#utility.yul\":6263:6269   */\n      dup3\n        /* \"#utility.yul\":6252:6261   */\n      dup6\n        /* \"#utility.yul\":6248:6270   */\n      add\n        /* \"#utility.yul\":6219:6280   */\n      tag_63\n      jump\t// in\n    tag_133:\n        /* \"#utility.yul\":6209:6280   */\n      swap2\n      pop\n        /* \"#utility.yul\":6165:6290   */\n      pop\n        /* \"#utility.yul\":5952:6297   */\n      swap3\n      swap2\n      pop\n      pop\n      jump\t// out\n        /* \"#utility.yul\":6303:6529   */\n    tag_64:\n        /* \"#utility.yul\":6443:6477   */\n      0x43616c6c6572436f6e74726163743a2043616c6c20746f207472616e73666572\n        /* \"#utility.yul\":6439:6440   */\n      0x00\n        /* \"#utility.yul\":6431:6437   */\n      dup3\n        /* \"#utility.yul\":6427:6441   */\n      add\n        /* \"#utility.yul\":6420:6478   */\n      mstore\n        /* \"#utility.yul\":6512:6521   */\n      0x206661696c656400000000000000000000000000000000000000000000000000\n        /* \"#utility.yul\":6507:6509   */\n      0x20\n        /* \"#utility.yul\":6499:6505   */\n      dup3\n        /* \"#utility.yul\":6495:6510   */\n      add\n        /* \"#utility.yul\":6488:6522   */\n      mstore\n        /* \"#utility.yul\":6303:6529   */\n      pop\n      jump\t// out\n        /* \"#utility.yul\":6535:6901   */\n    tag_65:\n        /* \"#utility.yul\":6677:6680   */\n      0x00\n        /* \"#utility.yul\":6698:6765   */\n      tag_136\n        /* \"#utility.yul\":6762:6764   */\n      0x27\n        /* \"#utility.yul\":6757:6760   */\n      dup4\n        /* \"#utility.yul\":6698:6765   */\n      tag_59\n      jump\t// in\n    tag_136:\n        /* \"#utility.yul\":6691:6765   */\n      swap2\n      pop\n        /* \"#utility.yul\":6774:6867   */\n      tag_137\n        /* \"#utility.yul\":6863:6866   */\n      dup3\n        /* \"#utility.yul\":6774:6867   */\n      tag_64\n      jump\t// in\n    tag_137:\n        /* \"#utility.yul\":6892:6894   */\n      0x40\n        /* \"#utility.yul\":6887:6890   */\n      dup3\n        /* \"#utility.yul\":6883:6895   */\n      add\n        /* \"#utility.yul\":6876:6895   */\n      swap1\n      pop\n        /* \"#utility.yul\":6535:6901   */\n      swap2\n      swap1\n      pop\n      jump\t// out\n        /* \"#utility.yul\":6907:7326   */\n    tag_36:\n        /* \"#utility.yul\":7073:7077   */\n      0x00\n        /* \"#utility.yul\":7111:7113   */\n      0x20\n        /* \"#utility.yul\":7100:7109   */\n      dup3\n        /* \"#utility.yul\":7096:7114   */\n      add\n        /* \"#utility.yul\":7088:7114   */\n      swap1\n      pop\n        /* \"#utility.yul\":7160:7169   */\n      dup2\n        /* \"#utility.yul\":7154:7158   */\n      dup2\n        /* \"#utility.yul\":7150:7170   */\n      sub\n        /* \"#utility.yul\":7146:7147   */\n      0x00\n        /* \"#utility.yul\":7135:7144   */\n      dup4\n        /* \"#utility.yul\":7131:7148   */\n      add\n        /* \"#utility.yul\":7124:7171   */\n      mstore\n        /* \"#utility.yul\":7188:7319   */\n      tag_139\n        /* \"#utility.yul\":7314:7318   */\n      dup2\n        /* \"#utility.yul\":7188:7319   */\n      tag_65\n      jump\t// in\n    tag_139:\n        /* \"#utility.yul\":7180:7319   */\n      swap1\n      pop\n        /* \"#utility.yul\":6907:7326   */\n      swap2\n      swap1\n      pop\n      jump\t// out\n\n    auxdata: 0xa26469706673582212201edbfb3610fbdf994916e70740a2da93008e1257daf8215b7210fceb78f1957a64736f6c634300081e0033\n}\n",
				"bytecode": {
					"linkReferences": {},
					"object": "6080604052348015600e575f5ffd5b506106ee8061001c5f395ff3fe608060405234801561000f575f5ffd5b5060043610610034575f3560e01c80633f79766e14610038578063e3729a8814610068575b5f5ffd5b610052600480360381019061004d91906103f3565b610098565b60405161005f9190610471565b60405180910390f35b610082600480360381019061007d91906103f3565b6101d3565b60405161008f9190610471565b60405180910390f35b5f5f5f8673ffffffffffffffffffffffffffffffffffffffff168686866040516024016100c69291906104a8565b604051602081830303815290604052907bffffffffffffffffffffffffffffffffffffffffffffffffffffffff19166020820180517bffffffffffffffffffffffffffffffffffffffffffffffffffffffff83818316178352505050506040516101309190610521565b5f604051808303815f865af19150503d805f8114610169576040519150601f19603f3d011682016040523d82523d5f602084013e61016e565b606091505b5091509150816101b3576040517f08c379a00000000000000000000000000000000000000000000000000000000081526004016101aa906105b7565b60405180910390fd5b808060200190518101906101c791906105ff565b92505050949350505050565b5f5f5f8673ffffffffffffffffffffffffffffffffffffffff168686866040516024016102019291906104a8565b604051602081830303815290604052907bffffffffffffffffffffffffffffffffffffffffffffffffffffffff19166020820180517bffffffffffffffffffffffffffffffffffffffffffffffffffffffff838183161783525050505060405161026b9190610521565b5f60405180830381855af49150503d805f81146102a3576040519150601f19603f3d011682016040523d82523d5f602084013e6102a8565b606091505b5091509150816102ed576040517f08c379a00000000000000000000000000000000000000000000000000000000081526004016102e49061069a565b60405180910390fd5b8080602001905181019061030191906105ff565b92505050949350505050565b5f5ffd5b5f73ffffffffffffffffffffffffffffffffffffffff82169050919050565b5f61033a82610311565b9050919050565b61034a81610330565b8114610354575f5ffd5b50565b5f8135905061036581610341565b92915050565b5f7fffffffff0000000000000000000000000000000000000000000000000000000082169050919050565b61039f8161036b565b81146103a9575f5ffd5b50565b5f813590506103ba81610396565b92915050565b5f819050919050565b6103d2816103c0565b81146103dc575f5ffd5b50565b5f813590506103ed816103c9565b92915050565b5f5f5f5f6080858703121561040b5761040a61030d565b5b5f61041887828801610357565b9450506020610429878288016103ac565b935050604061043a87828801610357565b925050606061044b878288016103df565b91505092959194509250565b5f8115159050919050565b61046b81610457565b82525050565b5f6020820190506104845f830184610462565b92915050565b61049381610330565b82525050565b6104a2816103c0565b82525050565b5f6040820190506104bb5f83018561048a565b6104c86020830184610499565b9392505050565b5f81519050919050565b5f81905092915050565b8281835e5f83830152505050565b5f6104fb826104cf565b61050581856104d9565b93506105158185602086016104e3565b80840191505092915050565b5f61052c82846104f1565b915081905092915050565b5f82825260208201905092915050565b7f43616c6c6572436f6e74726163743a205374616e646172642063616c6c20746f5f8201527f207472616e73666572206661696c656400000000000000000000000000000000602082015250565b5f6105a1603083610537565b91506105ac82610547565b604082019050919050565b5f6020820190508181035f8301526105ce81610595565b9050919050565b6105de81610457565b81146105e8575f5ffd5b50565b5f815190506105f9816105d5565b92915050565b5f602082840312156106145761061361030d565b5b5f610621848285016105eb565b91505092915050565b7f43616c6c6572436f6e74726163743a2043616c6c20746f207472616e736665725f8201527f206661696c656400000000000000000000000000000000000000000000000000602082015250565b5f610684602783610537565b915061068f8261062a565b604082019050919050565b5f6020820190508181035f8301526106b181610678565b905091905056fea26469706673582212201edbfb3610fbdf994916e70740a2da93008e1257daf8215b7210fceb78f1957a64736f6c634300081e0033",
					"opcodes": "PUSH1 0x80 PUSH1 0x40 MSTORE CALLVALUE DUP1 ISZERO PUSH1 0xE JUMPI PUSH0 PUSH0 REVERT JUMPDEST POP PUSH2 0x6EE DUP1 PUSH2 0x1C PUSH0 CODECOPY PUSH0 RETURN INVALID PUSH1 0x80 PUSH1 0x40 MSTORE CALLVALUE DUP1 ISZERO PUSH2 0xF JUMPI PUSH0 PUSH0 REVERT JUMPDEST POP PUSH1 0x4 CALLDATASIZE LT PUSH2 0x34 JUMPI PUSH0 CALLDATALOAD PUSH1 0xE0 SHR DUP1 PUSH4 0x3F79766E EQ PUSH2 0x38 JUMPI DUP1 PUSH4 0xE3729A88 EQ PUSH2 0x68 JUMPI JUMPDEST PUSH0 PUSH0 REVERT JUMPDEST PUSH2 0x52 PUSH1 0x4 DUP1 CALLDATASIZE SUB DUP2 ADD SWAP1 PUSH2 0x4D SWAP2 SWAP1 PUSH2 0x3F3 JUMP JUMPDEST PUSH2 0x98 JUMP JUMPDEST PUSH1 0x40 MLOAD PUSH2 0x5F SWAP2 SWAP1 PUSH2 0x471 JUMP JUMPDEST PUSH1 0x40 MLOAD DUP1 SWAP2 SUB SWAP1 RETURN JUMPDEST PUSH2 0x82 PUSH1 0x4 DUP1 CALLDATASIZE SUB DUP2 ADD SWAP1 PUSH2 0x7D SWAP2 SWAP1 PUSH2 0x3F3 JUMP JUMPDEST PUSH2 0x1D3 JUMP JUMPDEST PUSH1 0x40 MLOAD PUSH2 0x8F SWAP2 SWAP1 PUSH2 0x471 JUMP JUMPDEST PUSH1 0x40 MLOAD DUP1 SWAP2 SUB SWAP1 RETURN JUMPDEST PUSH0 PUSH0 PUSH0 DUP7 PUSH20 0xFFFFFFFFFFFFFFFFFFFFFFFFFFFFFFFFFFFFFFFF AND DUP7 DUP7 DUP7 PUSH1 0x40 MLOAD PUSH1 0x24 ADD PUSH2 0xC6 SWAP3 SWAP2 SWAP1 PUSH2 0x4A8 JUMP JUMPDEST PUSH1 0x40 MLOAD PUSH1 0x20 DUP2 DUP4 SUB SUB DUP2 MSTORE SWAP1 PUSH1 0x40 MSTORE SWAP1 PUSH28 0xFFFFFFFFFFFFFFFFFFFFFFFFFFFFFFFFFFFFFFFFFFFFFFFFFFFFFFFF NOT AND PUSH1 0x20 DUP3 ADD DUP1 MLOAD PUSH28 0xFFFFFFFFFFFFFFFFFFFFFFFFFFFFFFFFFFFFFFFFFFFFFFFFFFFFFFFF DUP4 DUP2 DUP4 AND OR DUP4 MSTORE POP POP POP POP PUSH1 0x40 MLOAD PUSH2 0x130 SWAP2 SWAP1 PUSH2 0x521 JUMP JUMPDEST PUSH0 PUSH1 0x40 MLOAD DUP1 DUP4 SUB DUP2 PUSH0 DUP7 GAS CALL SWAP2 POP POP RETURNDATASIZE DUP1 PUSH0 DUP2 EQ PUSH2 0x169 JUMPI PUSH1 0x40 MLOAD SWAP2 POP PUSH1 0x1F NOT PUSH1 0x3F RETURNDATASIZE ADD AND DUP3 ADD PUSH1 0x40 MSTORE RETURNDATASIZE DUP3 MSTORE RETURNDATASIZE PUSH0 PUSH1 0x20 DUP5 ADD RETURNDATACOPY PUSH2 0x16E JUMP JUMPDEST PUSH1 0x60 SWAP2 POP JUMPDEST POP SWAP2 POP SWAP2 POP DUP2 PUSH2 0x1B3 JUMPI PUSH1 0x40 MLOAD PUSH32 0x8C379A000000000000000000000000000000000000000000000000000000000 DUP2 MSTORE PUSH1 0x4 ADD PUSH2 0x1AA SWAP1 PUSH2 0x5B7 JUMP JUMPDEST PUSH1 0x40 MLOAD DUP1 SWAP2 SUB SWAP1 REVERT JUMPDEST DUP1 DUP1 PUSH1 0x20 ADD SWAP1 MLOAD DUP2 ADD SWAP1 PUSH2 0x1C7 SWAP2 SWAP1 PUSH2 0x5FF JUMP JUMPDEST SWAP3 POP POP POP SWAP5 SWAP4 POP POP POP POP JUMP JUMPDEST PUSH0 PUSH0 PUSH0 DUP7 PUSH20 0xFFFFFFFFFFFFFFFFFFFFFFFFFFFFFFFFFFFFFFFF AND DUP7 DUP7 DUP7 PUSH1 0x40 MLOAD PUSH1 0x24 ADD PUSH2 0x201 SWAP3 SWAP2 SWAP1 PUSH2 0x4A8 JUMP JUMPDEST PUSH1 0x40 MLOAD PUSH1 0x20 DUP2 DUP4 SUB SUB DUP2 MSTORE SWAP1 PUSH1 0x40 MSTORE SWAP1 PUSH28 0xFFFFFFFFFFFFFFFFFFFFFFFFFFFFFFFFFFFFFFFFFFFFFFFFFFFFFFFF NOT AND PUSH1 0x20 DUP3 ADD DUP1 MLOAD PUSH28 0xFFFFFFFFFFFFFFFFFFFFFFFFFFFFFFFFFFFFFFFFFFFFFFFFFFFFFFFF DUP4 DUP2 DUP4 AND OR DUP4 MSTORE POP POP POP POP PUSH1 0x40 MLOAD PUSH2 0x26B SWAP2 SWAP1 PUSH2 0x521 JUMP JUMPDEST PUSH0 PUSH1 0x40 MLOAD DUP1 DUP4 SUB DUP2 DUP6 GAS DELEGATECALL SWAP2 POP POP RETURNDATASIZE DUP1 PUSH0 DUP2 EQ PUSH2 0x2A3 JUMPI PUSH1 0x40 MLOAD SWAP2 POP PUSH1 0x1F NOT PUSH1 0x3F RETURNDATASIZE ADD AND DUP3 ADD PUSH1 0x40 MSTORE RETURNDATASIZE DUP3 MSTORE RETURNDATASIZE PUSH0 PUSH1 0x20 DUP5 ADD RETURNDATACOPY PUSH2 0x2A8 JUMP JUMPDEST PUSH1 0x60 SWAP2 POP JUMPDEST POP SWAP2 POP SWAP2 POP DUP2 PUSH2 0x2ED JUMPI PUSH1 0x40 MLOAD PUSH32 0x8C379A000000000000000000000000000000000000000000000000000000000 DUP2 MSTORE PUSH1 0x4 ADD PUSH2 0x2E4 SWAP1 PUSH2 0x69A JUMP JUMPDEST PUSH1 0x40 MLOAD DUP1 SWAP2 SUB SWAP1 REVERT JUMPDEST DUP1 DUP1 PUSH1 0x20 ADD SWAP1 MLOAD DUP2 ADD SWAP1 PUSH2 0x301 SWAP2 SWAP1 PUSH2 0x5FF JUMP JUMPDEST SWAP3 POP POP POP SWAP5 SWAP4 POP POP POP POP JUMP JUMPDEST PUSH0 PUSH0 REVERT JUMPDEST PUSH0 PUSH20 0xFFFFFFFFFFFFFFFFFFFFFFFFFFFFFFFFFFFFFFFF DUP3 AND SWAP1 POP SWAP2 SWAP1 POP JUMP JUMPDEST PUSH0 PUSH2 0x33A DUP3 PUSH2 0x311 JUMP JUMPDEST SWAP1 POP SWAP2 SWAP1 POP JUMP JUMPDEST PUSH2 0x34A DUP2 PUSH2 0x330 JUMP JUMPDEST DUP2 EQ PUSH2 0x354 JUMPI PUSH0 PUSH0 REVERT JUMPDEST POP JUMP JUMPDEST PUSH0 DUP2 CALLDATALOAD SWAP1 POP PUSH2 0x365 DUP2 PUSH2 0x341 JUMP JUMPDEST SWAP3 SWAP2 POP POP JUMP JUMPDEST PUSH0 PUSH32 0xFFFFFFFF00000000000000000000000000000000000000000000000000000000 DUP3 AND SWAP1 POP SWAP2 SWAP1 POP JUMP JUMPDEST PUSH2 0x39F DUP2 PUSH2 0x36B JUMP JUMPDEST DUP2 EQ PUSH2 0x3A9 JUMPI PUSH0 PUSH0 REVERT JUMPDEST POP JUMP JUMPDEST PUSH0 DUP2 CALLDATALOAD SWAP1 POP PUSH2 0x3BA DUP2 PUSH2 0x396 JUMP JUMPDEST SWAP3 SWAP2 POP POP JUMP JUMPDEST PUSH0 DUP2 SWAP1 POP SWAP2 SWAP1 POP JUMP JUMPDEST PUSH2 0x3D2 DUP2 PUSH2 0x3C0 JUMP JUMPDEST DUP2 EQ PUSH2 0x3DC JUMPI PUSH0 PUSH0 REVERT JUMPDEST POP JUMP JUMPDEST PUSH0 DUP2 CALLDATALOAD SWAP1 POP PUSH2 0x3ED DUP2 PUSH2 0x3C9 JUMP JUMPDEST SWAP3 SWAP2 POP POP JUMP JUMPDEST PUSH0 PUSH0 PUSH0 PUSH0 PUSH1 0x80 DUP6 DUP8 SUB SLT ISZERO PUSH2 0x40B JUMPI PUSH2 0x40A PUSH2 0x30D JUMP JUMPDEST JUMPDEST PUSH0 PUSH2 0x418 DUP8 DUP3 DUP9 ADD PUSH2 0x357 JUMP JUMPDEST SWAP5 POP POP PUSH1 0x20 PUSH2 0x429 DUP8 DUP3 DUP9 ADD PUSH2 0x3AC JUMP JUMPDEST SWAP4 POP POP PUSH1 0x40 PUSH2 0x43A DUP8 DUP3 DUP9 ADD PUSH2 0x357 JUMP JUMPDEST SWAP3 POP POP PUSH1 0x60 PUSH2 0x44B DUP8 DUP3 DUP9 ADD PUSH2 0x3DF JUMP JUMPDEST SWAP2 POP POP SWAP3 SWAP6 SWAP2 SWAP5 POP SWAP3 POP JUMP JUMPDEST PUSH0 DUP2 ISZERO ISZERO SWAP1 POP SWAP2 SWAP1 POP JUMP JUMPDEST PUSH2 0x46B DUP2 PUSH2 0x457 JUMP JUMPDEST DUP3 MSTORE POP POP JUMP JUMPDEST PUSH0 PUSH1 0x20 DUP3 ADD SWAP1 POP PUSH2 0x484 PUSH0 DUP4 ADD DUP5 PUSH2 0x462 JUMP JUMPDEST SWAP3 SWAP2 POP POP JUMP JUMPDEST PUSH2 0x493 DUP2 PUSH2 0x330 JUMP JUMPDEST DUP3 MSTORE POP POP JUMP JUMPDEST PUSH2 0x4A2 DUP2 PUSH2 0x3C0 JUMP JUMPDEST DUP3 MSTORE POP POP JUMP JUMPDEST PUSH0 PUSH1 0x40 DUP3 ADD SWAP1 POP PUSH2 0x4BB PUSH0 DUP4 ADD DUP6 PUSH2 0x48A JUMP JUMPDEST PUSH2 0x4C8 PUSH1 0x20 DUP4 ADD DUP5 PUSH2 0x499 JUMP JUMPDEST SWAP4 SWAP3 POP POP POP JUMP JUMPDEST PUSH0 DUP2 MLOAD SWAP1 POP SWAP2 SWAP1 POP JUMP JUMPDEST PUSH0 DUP2 SWAP1 POP SWAP3 SWAP2 POP POP JUMP JUMPDEST DUP3 DUP2 DUP4 MCOPY PUSH0 DUP4 DUP4 ADD MSTORE POP POP POP JUMP JUMPDEST PUSH0 PUSH2 0x4FB DUP3 PUSH2 0x4CF JUMP JUMPDEST PUSH2 0x505 DUP2 DUP6 PUSH2 0x4D9 JUMP JUMPDEST SWAP4 POP PUSH2 0x515 DUP2 DUP6 PUSH1 0x20 DUP7 ADD PUSH2 0x4E3 JUMP JUMPDEST DUP1 DUP5 ADD SWAP2 POP POP SWAP3 SWAP2 POP POP JUMP JUMPDEST PUSH0 PUSH2 0x52C DUP3 DUP5 PUSH2 0x4F1 JUMP JUMPDEST SWAP2 POP DUP2 SWAP1 POP SWAP3 SWAP2 POP POP JUMP JUMPDEST PUSH0 DUP3 DUP3 MSTORE PUSH1 0x20 DUP3 ADD SWAP1 POP SWAP3 SWAP2 POP POP JUMP JUMPDEST PUSH32 0x43616C6C6572436F6E74726163743A205374616E646172642063616C6C20746F PUSH0 DUP3 ADD MSTORE PUSH32 0x207472616E73666572206661696C656400000000000000000000000000000000 PUSH1 0x20 DUP3 ADD MSTORE POP JUMP JUMPDEST PUSH0 PUSH2 0x5A1 PUSH1 0x30 DUP4 PUSH2 0x537 JUMP JUMPDEST SWAP2 POP PUSH2 0x5AC DUP3 PUSH2 0x547 JUMP JUMPDEST PUSH1 0x40 DUP3 ADD SWAP1 POP SWAP2 SWAP1 POP JUMP JUMPDEST PUSH0 PUSH1 0x20 DUP3 ADD SWAP1 POP DUP2 DUP2 SUB PUSH0 DUP4 ADD MSTORE PUSH2 0x5CE DUP2 PUSH2 0x595 JUMP JUMPDEST SWAP1 POP SWAP2 SWAP1 POP JUMP JUMPDEST PUSH2 0x5DE DUP2 PUSH2 0x457 JUMP JUMPDEST DUP2 EQ PUSH2 0x5E8 JUMPI PUSH0 PUSH0 REVERT JUMPDEST POP JUMP JUMPDEST PUSH0 DUP2 MLOAD SWAP1 POP PUSH2 0x5F9 DUP2 PUSH2 0x5D5 JUMP JUMPDEST SWAP3 SWAP2 POP POP JUMP JUMPDEST PUSH0 PUSH1 0x20 DUP3 DUP5 SUB SLT ISZERO PUSH2 0x614 JUMPI PUSH2 0x613 PUSH2 0x30D JUMP JUMPDEST JUMPDEST PUSH0 PUSH2 0x621 DUP5 DUP3 DUP6 ADD PUSH2 0x5EB JUMP JUMPDEST SWAP2 POP POP SWAP3 SWAP2 POP POP JUMP JUMPDEST PUSH32 0x43616C6C6572436F6E74726163743A2043616C6C20746F207472616E73666572 PUSH0 DUP3 ADD MSTORE PUSH32 0x206661696C656400000000000000000000000000000000000000000000000000 PUSH1 0x20 DUP3 ADD MSTORE POP JUMP JUMPDEST PUSH0 PUSH2 0x684 PUSH1 0x27 DUP4 PUSH2 0x537 JUMP JUMPDEST SWAP2 POP PUSH2 0x68F DUP3 PUSH2 0x62A JUMP JUMPDEST PUSH1 0x40 DUP3 ADD SWAP1 POP SWAP2 SWAP1 POP JUMP JUMPDEST PUSH0 PUSH1 0x20 DUP3 ADD SWAP1 POP DUP2 DUP2 SUB PUSH0 DUP4 ADD MSTORE PUSH2 0x6B1 DUP2 PUSH2 0x678 JUMP JUMPDEST SWAP1 POP SWAP2 SWAP1 POP JUMP INVALID LOG2 PUSH5 0x6970667358 0x22 SLT KECCAK256 0x1E 0xDB EXTSTATICCALL CALLDATASIZE LT EXTSTATICCALL 0xDF SWAP10 BLOBHASH AND SWAPN 0x7 BLOCKHASH LOG2 0xDA SWAP4 STOP DUP15 SLT JUMPI 0xDA EXTCALL 0x21 JUMPDEST PUSH19 0x10FCEB78F1957A64736F6C634300081E003300 "
				},
				"gasEstimates": {
					"creation": {
						"codeDepositCost": "354800",
						"executionCost": "391",
						"totalCost": "355191"
					},
					"external": {
						"callTransfer(address,bytes4,address,uint256)": "infinite",
						"standardCallTransfer(address,bytes4,address,uint256)": "infinite"
					}
				},
				"methodIdentifiers": {
					"callTransfer(address,bytes4,address,uint256)": "e3729a88",
					"standardCallTransfer(address,bytes4,address,uint256)": "3f79766e"
				}
			},
			"storageLayout": {
				"storage": [],
				"types": null
			},
			"userdoc": {
				"kind": "user",
				"methods": {},
				"version": 1
			}
		}
	}
}