{
	"Call.sol": {
		"Receiver": {
			"abi": [
				{
					"anonymous": false,
					"inputs": [
						{
							"indexed": false,
							"internalType": "address",
							"name": "caller",
							"type": "address"
						},
						{
							"indexed": false,
							"internalType": "uint256",
							"name": "amount",
							"type": "uint256"
						},
						{
							"indexed": false,
							"internalType": "string",
							"name": "message",
							"type": "string"
						}
					],
					"name": "Received",
					"type": "event"
				},
				{
					"stateMutability": "payable",
					"type": "fallback"
				},
				{
					"inputs": [
						{
							"internalType": "string",
							"name": "_message",
							"type": "string"
						},
						{
							"internalType": "uint256",
							"name": "_x",
							"type": "uint256"
						}
					],
					"name": "foo",
					"outputs": [
						{
							"internalType": "uint256",
							"name": "",
							"type": "uint256"
						}
					],
					"stateMutability": "payable",
					"type": "function"
				}
			],
			"devdoc": {
				"kind": "dev",
				"methods": {},
				"version": 1
			},
			"evm": {
				"assembly": "    /* \"Call.sol\":58:420  contract Receiver {... */\n  mstore(0x40, 0x80)\n  callvalue\n  dup1\n  iszero\n  tag_1\n  jumpi\n  revert(0x00, 0x00)\ntag_1:\n  pop\n  dataSize(sub_0)\n  dup1\n  dataOffset(sub_0)\n  0x00\n  codecopy\n  0x00\n  return\nstop\n\nsub_0: assembly {\n        /* \"Call.sol\":58:420  contract Receiver {... */\n      mstore(0x40, 0x80)\n      jumpi(tag_1, lt(calldatasize, 0x04))\n      shr(0xe0, calldataload(0x00))\n      dup1\n      0x24ccab8f\n      eq\n      tag_3\n      jumpi\n      jump(tag_2)\n    tag_1:\n    tag_2:\n        /* \"Call.sol\":190:244  Received(msg.sender, msg.value, \"Fallback was called\") */\n      0x59e04c3f0d44b7caf6e8ef854b61d9a51cf1960d7a88ff6356cc5e946b4b5832\n        /* \"Call.sol\":199:209  msg.sender */\n      caller\n        /* \"Call.sol\":211:220  msg.value */\n      callvalue\n        /* \"Call.sol\":190:244  Received(msg.sender, msg.value, \"Fallback was called\") */\n      mload(0x40)\n      tag_6\n      swap3\n      swap2\n      swap1\n      tag_7\n      jump\t// in\n    tag_6:\n      mload(0x40)\n      dup1\n      swap2\n      sub\n      swap1\n      log1\n        /* \"Call.sol\":58:420  contract Receiver {... */\n      stop\n        /* \"Call.sol\":256:418  function foo(string memory _message, uint _x) public payable returns (uint) {... */\n    tag_3:\n      tag_8\n      0x04\n      dup1\n      calldatasize\n      sub\n      dup2\n      add\n      swap1\n      tag_9\n      swap2\n      swap1\n      tag_10\n      jump\t// in\n    tag_9:\n      tag_11\n      jump\t// in\n    tag_8:\n      mload(0x40)\n      tag_12\n      swap2\n      swap1\n      tag_13\n      jump\t// in\n    tag_12:\n      mload(0x40)\n      dup1\n      swap2\n      sub\n      swap1\n      return\n    tag_11:\n        /* \"Call.sol\":326:330  uint */\n      0x00\n        /* \"Call.sol\":347:388  Received(msg.sender, msg.value, _message) */\n      0x59e04c3f0d44b7caf6e8ef854b61d9a51cf1960d7a88ff6356cc5e946b4b5832\n        /* \"Call.sol\":356:366  msg.sender */\n      caller\n        /* \"Call.sol\":368:377  msg.value */\n      callvalue\n        /* \"Call.sol\":379:387  _message */\n      dup6\n        /* \"Call.sol\":347:388  Received(msg.sender, msg.value, _message) */\n      mload(0x40)\n      tag_15\n      swap4\n      swap3\n      swap2\n      swap1\n      tag_16\n      jump\t// in\n    tag_15:\n      mload(0x40)\n      dup1\n      swap2\n      sub\n      swap1\n      log1\n        /* \"Call.sol\":410:411  1 */\n      0x01\n        /* \"Call.sol\":405:407  _x */\n      dup3\n        /* \"Call.sol\":405:411  _x + 1 */\n      tag_17\n      swap2\n      swap1\n      tag_18\n      jump\t// in\n    tag_17:\n        /* \"Call.sol\":398:411  return _x + 1 */\n      swap1\n      pop\n        /* \"Call.sol\":256:418  function foo(string memory _message, uint _x) public payable returns (uint) {... */\n      swap3\n      swap2\n      pop\n      pop\n      jump\t// out\n        /* \"#utility.yul\":7:133   */\n    tag_19:\n        /* \"#utility.yul\":44:51   */\n      0x00\n        /* \"#utility.yul\":84:126   */\n      0xffffffffffffffffffffffffffffffffffffffff\n        /* \"#utility.yul\":77:82   */\n      dup3\n        /* \"#utility.yul\":73:127   */\n      and\n        /* \"#utility.yul\":62:127   */\n      swap1\n      pop\n        /* \"#utility.yul\":7:133   */\n      swap2\n      swap1\n      pop\n      jump\t// out\n        /* \"#utility.yul\":139:235   */\n    tag_20:\n        /* \"#utility.yul\":176:183   */\n      0x00\n        /* \"#utility.yul\":205:229   */\n      tag_49\n        /* \"#utility.yul\":223:228   */\n      dup3\n        /* \"#utility.yul\":205:229   */\n      tag_19\n      jump\t// in\n    tag_49:\n        /* \"#utility.yul\":194:229   */\n      swap1\n      pop\n        /* \"#utility.yul\":139:235   */\n      swap2\n      swap1\n      pop\n      jump\t// out\n        /* \"#utility.yul\":241:359   */\n    tag_21:\n        /* \"#utility.yul\":328:352   */\n      tag_51\n        /* \"#utility.yul\":346:351   */\n      dup2\n        /* \"#utility.yul\":328:352   */\n      tag_20\n      jump\t// in\n    tag_51:\n        /* \"#utility.yul\":323:326   */\n      dup3\n        /* \"#utility.yul\":316:353   */\n      mstore\n        /* \"#utility.yul\":241:359   */\n      pop\n      pop\n      jump\t// out\n        /* \"#utility.yul\":365:442   */\n    tag_22:\n        /* \"#utility.yul\":402:409   */\n      0x00\n        /* \"#utility.yul\":431:436   */\n      dup2\n        /* \"#utility.yul\":420:436   */\n      swap1\n      pop\n        /* \"#utility.yul\":365:442   */\n      swap2\n      swap1\n      pop\n      jump\t// out\n        /* \"#utility.yul\":448:566   */\n    tag_23:\n        /* \"#utility.yul\":535:559   */\n      tag_54\n        /* \"#utility.yul\":553:558   */\n      dup2\n        /* \"#utility.yul\":535:559   */\n      tag_22\n      jump\t// in\n    tag_54:\n        /* \"#utility.yul\":530:533   */\n      dup3\n        /* \"#utility.yul\":523:560   */\n      mstore\n        /* \"#utility.yul\":448:566   */\n      pop\n      pop\n      jump\t// out\n        /* \"#utility.yul\":572:741   */\n    tag_24:\n        /* \"#utility.yul\":656:667   */\n      0x00\n        /* \"#utility.yul\":690:696   */\n      dup3\n        /* \"#utility.yul\":685:688   */\n      dup3\n        /* \"#utility.yul\":678:697   */\n      mstore\n        /* \"#utility.yul\":730:734   */\n      0x20\n        /* \"#utility.yul\":725:728   */\n      dup3\n        /* \"#utility.yul\":721:735   */\n      add\n        /* \"#utility.yul\":706:735   */\n      swap1\n      pop\n        /* \"#utility.yul\":572:741   */\n      swap3\n      swap2\n      pop\n      pop\n      jump\t// out\n        /* \"#utility.yul\":747:916   */\n    tag_25:\n        /* \"#utility.yul\":887:908   */\n      0x46616c6c6261636b207761732063616c6c656400000000000000000000000000\n        /* \"#utility.yul\":883:884   */\n      0x00\n        /* \"#utility.yul\":875:881   */\n      dup3\n        /* \"#utility.yul\":871:885   */\n      add\n        /* \"#utility.yul\":864:909   */\n      mstore\n        /* \"#utility.yul\":747:916   */\n      pop\n      jump\t// out\n        /* \"#utility.yul\":922:1288   */\n    tag_26:\n        /* \"#utility.yul\":1064:1067   */\n      0x00\n        /* \"#utility.yul\":1085:1152   */\n      tag_58\n        /* \"#utility.yul\":1149:1151   */\n      0x13\n        /* \"#utility.yul\":1144:1147   */\n      dup4\n        /* \"#utility.yul\":1085:1152   */\n      tag_24\n      jump\t// in\n    tag_58:\n        /* \"#utility.yul\":1078:1152   */\n      swap2\n      pop\n        /* \"#utility.yul\":1161:1254   */\n      tag_59\n        /* \"#utility.yul\":1250:1253   */\n      dup3\n        /* \"#utility.yul\":1161:1254   */\n      tag_25\n      jump\t// in\n    tag_59:\n        /* \"#utility.yul\":1279:1281   */\n      0x20\n        /* \"#utility.yul\":1274:1277   */\n      dup3\n        /* \"#utility.yul\":1270:1282   */\n      add\n        /* \"#utility.yul\":1263:1282   */\n      swap1\n      pop\n        /* \"#utility.yul\":922:1288   */\n      swap2\n      swap1\n      pop\n      jump\t// out\n        /* \"#utility.yul\":1294:1933   */\n    tag_7:\n        /* \"#utility.yul\":1516:1520   */\n      0x00\n        /* \"#utility.yul\":1554:1556   */\n      0x60\n        /* \"#utility.yul\":1543:1552   */\n      dup3\n        /* \"#utility.yul\":1539:1557   */\n      add\n        /* \"#utility.yul\":1531:1557   */\n      swap1\n      pop\n        /* \"#utility.yul\":1567:1638   */\n      tag_61\n        /* \"#utility.yul\":1635:1636   */\n      0x00\n        /* \"#utility.yul\":1624:1633   */\n      dup4\n        /* \"#utility.yul\":1620:1637   */\n      add\n        /* \"#utility.yul\":1611:1617   */\n      dup6\n        /* \"#utility.yul\":1567:1638   */\n      tag_21\n      jump\t// in\n    tag_61:\n        /* \"#utility.yul\":1648:1720   */\n      tag_62\n        /* \"#utility.yul\":1716:1718   */\n      0x20\n        /* \"#utility.yul\":1705:1714   */\n      dup4\n        /* \"#utility.yul\":1701:1719   */\n      add\n        /* \"#utility.yul\":1692:1698   */\n      dup5\n        /* \"#utility.yul\":1648:1720   */\n      tag_23\n      jump\t// in\n    tag_62:\n        /* \"#utility.yul\":1767:1776   */\n      dup2\n        /* \"#utility.yul\":1761:1765   */\n      dup2\n        /* \"#utility.yul\":1757:1777   */\n      sub\n        /* \"#utility.yul\":1752:1754   */\n      0x40\n        /* \"#utility.yul\":1741:1750   */\n      dup4\n        /* \"#utility.yul\":1737:1755   */\n      add\n        /* \"#utility.yul\":1730:1778   */\n      mstore\n        /* \"#utility.yul\":1795:1926   */\n      tag_63\n        /* \"#utility.yul\":1921:1925   */\n      dup2\n        /* \"#utility.yul\":1795:1926   */\n      tag_26\n      jump\t// in\n    tag_63:\n        /* \"#utility.yul\":1787:1926   */\n      swap1\n      pop\n        /* \"#utility.yul\":1294:1933   */\n      swap4\n      swap3\n      pop\n      pop\n      pop\n      jump\t// out\n        /* \"#utility.yul\":1939:2014   */\n    tag_27:\n        /* \"#utility.yul\":1972:1978   */\n      0x00\n        /* \"#utility.yul\":2005:2007   */\n      0x40\n        /* \"#utility.yul\":1999:2008   */\n      mload\n        /* \"#utility.yul\":1989:2008   */\n      swap1\n      pop\n        /* \"#utility.yul\":1939:2014   */\n      swap1\n      jump\t// out\n        /* \"#utility.yul\":2020:2137   */\n    tag_28:\n        /* \"#utility.yul\":2129:2130   */\n      0x00\n        /* \"#utility.yul\":2126:2127   */\n      0x00\n        /* \"#utility.yul\":2119:2131   */\n      revert\n        /* \"#utility.yul\":2143:2260   */\n    tag_29:\n        /* \"#utility.yul\":2252:2253   */\n      0x00\n        /* \"#utility.yul\":2249:2250   */\n      0x00\n        /* \"#utility.yul\":2242:2254   */\n      revert\n        /* \"#utility.yul\":2266:2383   */\n    tag_30:\n        /* \"#utility.yul\":2375:2376   */\n      0x00\n        /* \"#utility.yul\":2372:2373   */\n      0x00\n        /* \"#utility.yul\":2365:2377   */\n      revert\n        /* \"#utility.yul\":2389:2506   */\n    tag_31:\n        /* \"#utility.yul\":2498:2499   */\n      0x00\n        /* \"#utility.yul\":2495:2496   */\n      0x00\n        /* \"#utility.yul\":2488:2500   */\n      revert\n        /* \"#utility.yul\":2512:2614   */\n    tag_32:\n        /* \"#utility.yul\":2553:2559   */\n      0x00\n        /* \"#utility.yul\":2604:2606   */\n      0x1f\n        /* \"#utility.yul\":2600:2607   */\n      not\n        /* \"#utility.yul\":2595:2597   */\n      0x1f\n        /* \"#utility.yul\":2588:2593   */\n      dup4\n        /* \"#utility.yul\":2584:2598   */\n      add\n        /* \"#utility.yul\":2580:2608   */\n      and\n        /* \"#utility.yul\":2570:2608   */\n      swap1\n      pop\n        /* \"#utility.yul\":2512:2614   */\n      swap2\n      swap1\n      pop\n      jump\t// out\n        /* \"#utility.yul\":2620:2800   */\n    tag_33:\n        /* \"#utility.yul\":2668:2745   */\n      0x4e487b7100000000000000000000000000000000000000000000000000000000\n        /* \"#utility.yul\":2665:2666   */\n      0x00\n        /* \"#utility.yul\":2658:2746   */\n      mstore\n        /* \"#utility.yul\":2765:2769   */\n      0x41\n        /* \"#utility.yul\":2762:2763   */\n      0x04\n        /* \"#utility.yul\":2755:2770   */\n      mstore\n        /* \"#utility.yul\":2789:2793   */\n      0x24\n        /* \"#utility.yul\":2786:2787   */\n      0x00\n        /* \"#utility.yul\":2779:2794   */\n      revert\n        /* \"#utility.yul\":2806:3087   */\n    tag_34:\n        /* \"#utility.yul\":2889:2916   */\n      tag_72\n        /* \"#utility.yul\":2911:2915   */\n      dup3\n        /* \"#utility.yul\":2889:2916   */\n      tag_32\n      jump\t// in\n    tag_72:\n        /* \"#utility.yul\":2881:2887   */\n      dup2\n        /* \"#utility.yul\":2877:2917   */\n      add\n        /* \"#utility.yul\":3019:3025   */\n      dup2\n        /* \"#utility.yul\":3007:3017   */\n      dup2\n        /* \"#utility.yul\":3004:3026   */\n      lt\n        /* \"#utility.yul\":2983:3001   */\n      0xffffffffffffffff\n        /* \"#utility.yul\":2971:2981   */\n      dup3\n        /* \"#utility.yul\":2968:3002   */\n      gt\n        /* \"#utility.yul\":2965:3027   */\n      or\n        /* \"#utility.yul\":2962:3050   */\n      iszero\n      tag_73\n      jumpi\n        /* \"#utility.yul\":3030:3048   */\n      tag_74\n      tag_33\n      jump\t// in\n    tag_74:\n        /* \"#utility.yul\":2962:3050   */\n    tag_73:\n        /* \"#utility.yul\":3070:3080   */\n      dup1\n        /* \"#utility.yul\":3066:3068   */\n      0x40\n        /* \"#utility.yul\":3059:3081   */\n      mstore\n        /* \"#utility.yul\":2849:3087   */\n      pop\n        /* \"#utility.yul\":2806:3087   */\n      pop\n      pop\n      jump\t// out\n        /* \"#utility.yul\":3093:3222   */\n    tag_35:\n        /* \"#utility.yul\":3127:3133   */\n      0x00\n        /* \"#utility.yul\":3154:3174   */\n      tag_76\n      tag_27\n      jump\t// in\n    tag_76:\n        /* \"#utility.yul\":3144:3174   */\n      swap1\n      pop\n        /* \"#utility.yul\":3183:3216   */\n      tag_77\n        /* \"#utility.yul\":3211:3215   */\n      dup3\n        /* \"#utility.yul\":3203:3209   */\n      dup3\n        /* \"#utility.yul\":3183:3216   */\n      tag_34\n      jump\t// in\n    tag_77:\n        /* \"#utility.yul\":3093:3222   */\n      swap2\n      swap1\n      pop\n      jump\t// out\n        /* \"#utility.yul\":3228:3536   */\n    tag_36:\n        /* \"#utility.yul\":3290:3294   */\n      0x00\n        /* \"#utility.yul\":3380:3398   */\n      0xffffffffffffffff\n        /* \"#utility.yul\":3372:3378   */\n      dup3\n        /* \"#utility.yul\":3369:3399   */\n      gt\n        /* \"#utility.yul\":3366:3422   */\n      iszero\n      tag_79\n      jumpi\n        /* \"#utility.yul\":3402:3420   */\n      tag_80\n      tag_33\n      jump\t// in\n    tag_80:\n        /* \"#utility.yul\":3366:3422   */\n    tag_79:\n        /* \"#utility.yul\":3440:3469   */\n      tag_81\n        /* \"#utility.yul\":3462:3468   */\n      dup3\n        /* \"#utility.yul\":3440:3469   */\n      tag_32\n      jump\t// in\n    tag_81:\n        /* \"#utility.yul\":3432:3469   */\n      swap1\n      pop\n        /* \"#utility.yul\":3524:3528   */\n      0x20\n        /* \"#utility.yul\":3518:3522   */\n      dup2\n        /* \"#utility.yul\":3514:3529   */\n      add\n        /* \"#utility.yul\":3506:3529   */\n      swap1\n      pop\n        /* \"#utility.yul\":3228:3536   */\n      swap2\n      swap1\n      pop\n      jump\t// out\n        /* \"#utility.yul\":3542:3690   */\n    tag_37:\n        /* \"#utility.yul\":3640:3646   */\n      dup3\n        /* \"#utility.yul\":3635:3638   */\n      dup2\n        /* \"#utility.yul\":3630:3633   */\n      dup4\n        /* \"#utility.yul\":3617:3647   */\n      calldatacopy\n        /* \"#utility.yul\":3681:3682   */\n      0x00\n        /* \"#utility.yul\":3672:3678   */\n      dup4\n        /* \"#utility.yul\":3667:3670   */\n      dup4\n        /* \"#utility.yul\":3663:3679   */\n      add\n        /* \"#utility.yul\":3656:3683   */\n      mstore\n        /* \"#utility.yul\":3542:3690   */\n      pop\n      pop\n      pop\n      jump\t// out\n        /* \"#utility.yul\":3696:4121   */\n    tag_38:\n        /* \"#utility.yul\":3774:3779   */\n      0x00\n        /* \"#utility.yul\":3799:3865   */\n      tag_84\n        /* \"#utility.yul\":3815:3864   */\n      tag_85\n        /* \"#utility.yul\":3857:3863   */\n      dup5\n        /* \"#utility.yul\":3815:3864   */\n      tag_36\n      jump\t// in\n    tag_85:\n        /* \"#utility.yul\":3799:3865   */\n      tag_35\n      jump\t// in\n    tag_84:\n        /* \"#utility.yul\":3790:3865   */\n      swap1\n      pop\n        /* \"#utility.yul\":3888:3894   */\n      dup3\n        /* \"#utility.yul\":3881:3886   */\n      dup2\n        /* \"#utility.yul\":3874:3895   */\n      mstore\n        /* \"#utility.yul\":3926:3930   */\n      0x20\n        /* \"#utility.yul\":3919:3924   */\n      dup2\n        /* \"#utility.yul\":3915:3931   */\n      add\n        /* \"#utility.yul\":3964:3967   */\n      dup5\n        /* \"#utility.yul\":3955:3961   */\n      dup5\n        /* \"#utility.yul\":3950:3953   */\n      dup5\n        /* \"#utility.yul\":3946:3962   */\n      add\n        /* \"#utility.yul\":3943:3968   */\n      gt\n        /* \"#utility.yul\":3940:4052   */\n      iszero\n      tag_86\n      jumpi\n        /* \"#utility.yul\":3971:4050   */\n      tag_87\n      tag_31\n      jump\t// in\n    tag_87:\n        /* \"#utility.yul\":3940:4052   */\n    tag_86:\n        /* \"#utility.yul\":4061:4115   */\n      tag_88\n        /* \"#utility.yul\":4108:4114   */\n      dup5\n        /* \"#utility.yul\":4103:4106   */\n      dup3\n        /* \"#utility.yul\":4098:4101   */\n      dup6\n        /* \"#utility.yul\":4061:4115   */\n      tag_37\n      jump\t// in\n    tag_88:\n        /* \"#utility.yul\":3780:4121   */\n      pop\n        /* \"#utility.yul\":3696:4121   */\n      swap4\n      swap3\n      pop\n      pop\n      pop\n      jump\t// out\n        /* \"#utility.yul\":4141:4481   */\n    tag_39:\n        /* \"#utility.yul\":4197:4202   */\n      0x00\n        /* \"#utility.yul\":4246:4249   */\n      dup3\n        /* \"#utility.yul\":4239:4243   */\n      0x1f\n        /* \"#utility.yul\":4231:4237   */\n      dup4\n        /* \"#utility.yul\":4227:4244   */\n      add\n        /* \"#utility.yul\":4223:4250   */\n      slt\n        /* \"#utility.yul\":4213:4335   */\n      tag_90\n      jumpi\n        /* \"#utility.yul\":4254:4333   */\n      tag_91\n      tag_30\n      jump\t// in\n    tag_91:\n        /* \"#utility.yul\":4213:4335   */\n    tag_90:\n        /* \"#utility.yul\":4371:4377   */\n      dup2\n        /* \"#utility.yul\":4358:4378   */\n      calldataload\n        /* \"#utility.yul\":4396:4475   */\n      tag_92\n        /* \"#utility.yul\":4471:4474   */\n      dup5\n        /* \"#utility.yul\":4463:4469   */\n      dup3\n        /* \"#utility.yul\":4456:4460   */\n      0x20\n        /* \"#utility.yul\":4448:4454   */\n      dup7\n        /* \"#utility.yul\":4444:4461   */\n      add\n        /* \"#utility.yul\":4396:4475   */\n      tag_38\n      jump\t// in\n    tag_92:\n        /* \"#utility.yul\":4387:4475   */\n      swap2\n      pop\n        /* \"#utility.yul\":4203:4481   */\n      pop\n        /* \"#utility.yul\":4141:4481   */\n      swap3\n      swap2\n      pop\n      pop\n      jump\t// out\n        /* \"#utility.yul\":4487:4609   */\n    tag_40:\n        /* \"#utility.yul\":4560:4584   */\n      tag_94\n        /* \"#utility.yul\":4578:4583   */\n      dup2\n        /* \"#utility.yul\":4560:4584   */\n      tag_22\n      jump\t// in\n    tag_94:\n        /* \"#utility.yul\":4553:4558   */\n      dup2\n        /* \"#utility.yul\":4550:4585   */\n      eq\n        /* \"#utility.yul\":4540:4603   */\n      tag_95\n      jumpi\n        /* \"#utility.yul\":4599:4600   */\n      0x00\n        /* \"#utility.yul\":4596:4597   */\n      0x00\n        /* \"#utility.yul\":4589:4601   */\n      revert\n        /* \"#utility.yul\":4540:4603   */\n    tag_95:\n        /* \"#utility.yul\":4487:4609   */\n      pop\n      jump\t// out\n        /* \"#utility.yul\":4615:4754   */\n    tag_41:\n        /* \"#utility.yul\":4661:4666   */\n      0x00\n        /* \"#utility.yul\":4699:4705   */\n      dup2\n        /* \"#utility.yul\":4686:4706   */\n      calldataload\n        /* \"#utility.yul\":4677:4706   */\n      swap1\n      pop\n        /* \"#utility.yul\":4715:4748   */\n      tag_97\n        /* \"#utility.yul\":4742:4747   */\n      dup2\n        /* \"#utility.yul\":4715:4748   */\n      tag_40\n      jump\t// in\n    tag_97:\n        /* \"#utility.yul\":4615:4754   */\n      swap3\n      swap2\n      pop\n      pop\n      jump\t// out\n        /* \"#utility.yul\":4760:5414   */\n    tag_10:\n        /* \"#utility.yul\":4838:4844   */\n      0x00\n        /* \"#utility.yul\":4846:4852   */\n      0x00\n        /* \"#utility.yul\":4895:4897   */\n      0x40\n        /* \"#utility.yul\":4883:4892   */\n      dup4\n        /* \"#utility.yul\":4874:4881   */\n      dup6\n        /* \"#utility.yul\":4870:4893   */\n      sub\n        /* \"#utility.yul\":4866:4898   */\n      slt\n        /* \"#utility.yul\":4863:4982   */\n      iszero\n      tag_99\n      jumpi\n        /* \"#utility.yul\":4901:4980   */\n      tag_100\n      tag_28\n      jump\t// in\n    tag_100:\n        /* \"#utility.yul\":4863:4982   */\n    tag_99:\n        /* \"#utility.yul\":5049:5050   */\n      0x00\n        /* \"#utility.yul\":5038:5047   */\n      dup4\n        /* \"#utility.yul\":5034:5051   */\n      add\n        /* \"#utility.yul\":5021:5052   */\n      calldataload\n        /* \"#utility.yul\":5079:5097   */\n      0xffffffffffffffff\n        /* \"#utility.yul\":5071:5077   */\n      dup2\n        /* \"#utility.yul\":5068:5098   */\n      gt\n        /* \"#utility.yul\":5065:5182   */\n      iszero\n      tag_101\n      jumpi\n        /* \"#utility.yul\":5101:5180   */\n      tag_102\n      tag_29\n      jump\t// in\n    tag_102:\n        /* \"#utility.yul\":5065:5182   */\n    tag_101:\n        /* \"#utility.yul\":5206:5269   */\n      tag_103\n        /* \"#utility.yul\":5261:5268   */\n      dup6\n        /* \"#utility.yul\":5252:5258   */\n      dup3\n        /* \"#utility.yul\":5241:5250   */\n      dup7\n        /* \"#utility.yul\":5237:5259   */\n      add\n        /* \"#utility.yul\":5206:5269   */\n      tag_39\n      jump\t// in\n    tag_103:\n        /* \"#utility.yul\":5196:5269   */\n      swap3\n      pop\n        /* \"#utility.yul\":4992:5279   */\n      pop\n        /* \"#utility.yul\":5318:5320   */\n      0x20\n        /* \"#utility.yul\":5344:5397   */\n      tag_104\n        /* \"#utility.yul\":5389:5396   */\n      dup6\n        /* \"#utility.yul\":5380:5386   */\n      dup3\n        /* \"#utility.yul\":5369:5378   */\n      dup7\n        /* \"#utility.yul\":5365:5387   */\n      add\n        /* \"#utility.yul\":5344:5397   */\n      tag_41\n      jump\t// in\n    tag_104:\n        /* \"#utility.yul\":5334:5397   */\n      swap2\n      pop\n        /* \"#utility.yul\":5289:5407   */\n      pop\n        /* \"#utility.yul\":4760:5414   */\n      swap3\n      pop\n      swap3\n      swap1\n      pop\n      jump\t// out\n        /* \"#utility.yul\":5420:5642   */\n    tag_13:\n        /* \"#utility.yul\":5513:5517   */\n      0x00\n        /* \"#utility.yul\":5551:5553   */\n      0x20\n        /* \"#utility.yul\":5540:5549   */\n      dup3\n        /* \"#utility.yul\":5536:5554   */\n      add\n        /* \"#utility.yul\":5528:5554   */\n      swap1\n      pop\n        /* \"#utility.yul\":5564:5635   */\n      tag_106\n        /* \"#utility.yul\":5632:5633   */\n      0x00\n        /* \"#utility.yul\":5621:5630   */\n      dup4\n        /* \"#utility.yul\":5617:5634   */\n      add\n        /* \"#utility.yul\":5608:5614   */\n      dup5\n        /* \"#utility.yul\":5564:5635   */\n      tag_23\n      jump\t// in\n    tag_106:\n        /* \"#utility.yul\":5420:5642   */\n      swap3\n      swap2\n      pop\n      pop\n      jump\t// out\n        /* \"#utility.yul\":5648:5747   */\n    tag_42:\n        /* \"#utility.yul\":5700:5706   */\n      0x00\n        /* \"#utility.yul\":5734:5739   */\n      dup2\n        /* \"#utility.yul\":5728:5740   */\n      mload\n        /* \"#utility.yul\":5718:5740   */\n      swap1\n      pop\n        /* \"#utility.yul\":5648:5747   */\n      swap2\n      swap1\n      pop\n      jump\t// out\n        /* \"#utility.yul\":5753:5892   */\n    tag_43:\n        /* \"#utility.yul\":5842:5848   */\n      dup3\n        /* \"#utility.yul\":5837:5840   */\n      dup2\n        /* \"#utility.yul\":5832:5835   */\n      dup4\n        /* \"#utility.yul\":5826:5849   */\n      mcopy\n        /* \"#utility.yul\":5883:5884   */\n      0x00\n        /* \"#utility.yul\":5874:5880   */\n      dup4\n        /* \"#utility.yul\":5869:5872   */\n      dup4\n        /* \"#utility.yul\":5865:5881   */\n      add\n        /* \"#utility.yul\":5858:5885   */\n      mstore\n        /* \"#utility.yul\":5753:5892   */\n      pop\n      pop\n      pop\n      jump\t// out\n        /* \"#utility.yul\":5898:6275   */\n    tag_44:\n        /* \"#utility.yul\":5986:5989   */\n      0x00\n        /* \"#utility.yul\":6014:6053   */\n      tag_110\n        /* \"#utility.yul\":6047:6052   */\n      dup3\n        /* \"#utility.yul\":6014:6053   */\n      tag_42\n      jump\t// in\n    tag_110:\n        /* \"#utility.yul\":6069:6140   */\n      tag_111\n        /* \"#utility.yul\":6133:6139   */\n      dup2\n        /* \"#utility.yul\":6128:6131   */\n      dup6\n        /* \"#utility.yul\":6069:6140   */\n      tag_24\n      jump\t// in\n    tag_111:\n        /* \"#utility.yul\":6062:6140   */\n      swap4\n      pop\n        /* \"#utility.yul\":6149:6214   */\n      tag_112\n        /* \"#utility.yul\":6207:6213   */\n      dup2\n        /* \"#utility.yul\":6202:6205   */\n      dup6\n        /* \"#utility.yul\":6195:6199   */\n      0x20\n        /* \"#utility.yul\":6188:6193   */\n      dup7\n        /* \"#utility.yul\":6184:6200   */\n      add\n        /* \"#utility.yul\":6149:6214   */\n      tag_43\n      jump\t// in\n    tag_112:\n        /* \"#utility.yul\":6239:6268   */\n      tag_113\n        /* \"#utility.yul\":6261:6267   */\n      dup2\n        /* \"#utility.yul\":6239:6268   */\n      tag_32\n      jump\t// in\n    tag_113:\n        /* \"#utility.yul\":6234:6237   */\n      dup5\n        /* \"#utility.yul\":6230:6269   */\n      add\n        /* \"#utility.yul\":6223:6269   */\n      swap2\n      pop\n        /* \"#utility.yul\":5990:6275   */\n      pop\n        /* \"#utility.yul\":5898:6275   */\n      swap3\n      swap2\n      pop\n      pop\n      jump\t// out\n        /* \"#utility.yul\":6281:6814   */\n    tag_16:\n        /* \"#utility.yul\":6450:6454   */\n      0x00\n        /* \"#utility.yul\":6488:6490   */\n      0x60\n        /* \"#utility.yul\":6477:6486   */\n      dup3\n        /* \"#utility.yul\":6473:6491   */\n      add\n        /* \"#utility.yul\":6465:6491   */\n      swap1\n      pop\n        /* \"#utility.yul\":6501:6572   */\n      tag_115\n        /* \"#utility.yul\":6569:6570   */\n      0x00\n        /* \"#utility.yul\":6558:6567   */\n      dup4\n        /* \"#utility.yul\":6554:6571   */\n      add\n        /* \"#utility.yul\":6545:6551   */\n      dup7\n        /* \"#utility.yul\":6501:6572   */\n      tag_21\n      jump\t// in\n    tag_115:\n        /* \"#utility.yul\":6582:6654   */\n      tag_116\n        /* \"#utility.yul\":6650:6652   */\n      0x20\n        /* \"#utility.yul\":6639:6648   */\n      dup4\n        /* \"#utility.yul\":6635:6653   */\n      add\n        /* \"#utility.yul\":6626:6632   */\n      dup6\n        /* \"#utility.yul\":6582:6654   */\n      tag_23\n      jump\t// in\n    tag_116:\n        /* \"#utility.yul\":6701:6710   */\n      dup2\n        /* \"#utility.yul\":6695:6699   */\n      dup2\n        /* \"#utility.yul\":6691:6711   */\n      sub\n        /* \"#utility.yul\":6686:6688   */\n      0x40\n        /* \"#utility.yul\":6675:6684   */\n      dup4\n        /* \"#utility.yul\":6671:6689   */\n      add\n        /* \"#utility.yul\":6664:6712   */\n      mstore\n        /* \"#utility.yul\":6729:6807   */\n      tag_117\n        /* \"#utility.yul\":6802:6806   */\n      dup2\n        /* \"#utility.yul\":6793:6799   */\n      dup5\n        /* \"#utility.yul\":6729:6807   */\n      tag_44\n      jump\t// in\n    tag_117:\n        /* \"#utility.yul\":6721:6807   */\n      swap1\n      pop\n        /* \"#utility.yul\":6281:6814   */\n      swap5\n      swap4\n      pop\n      pop\n      pop\n      pop\n      jump\t// out\n        /* \"#utility.yul\":6820:7000   */\n    tag_45:\n        /* \"#utility.yul\":6868:6945   */\n      0x4e487b7100000000000000000000000000000000000000000000000000000000\n        /* \"#utility.yul\":6865:6866   */\n      0x00\n        /* \"#utility.yul\":6858:6946   */\n      mstore\n        /* \"#utility.yul\":6965:6969   */\n      0x11\n        /* \"#utility.yul\":6962:6963   */\n      0x04\n        /* \"#utility.yul\":6955:6970   */\n      mstore\n        /* \"#utility.yul\":6989:6993   */\n      0x24\n        /* \"#utility.yul\":6986:6987   */\n      0x00\n        /* \"#utility.yul\":6979:6994   */\n      revert\n        /* \"#utility.yul\":7006:7197   */\n    tag_18:\n        /* \"#utility.yul\":7046:7049   */\n      0x00\n        /* \"#utility.yul\":7065:7085   */\n      tag_120\n        /* \"#utility.yul\":7083:7084   */\n      dup3\n        /* \"#utility.yul\":7065:7085   */\n      tag_22\n      jump\t// in\n    tag_120:\n        /* \"#utility.yul\":7060:7085   */\n      swap2\n      pop\n        /* \"#utility.yul\":7099:7119   */\n      tag_121\n        /* \"#utility.yul\":7117:7118   */\n      dup4\n        /* \"#utility.yul\":7099:7119   */\n      tag_22\n      jump\t// in\n    tag_121:\n        /* \"#utility.yul\":7094:7119   */\n      swap3\n      pop\n        /* \"#utility.yul\":7142:7143   */\n      dup3\n        /* \"#utility.yul\":7139:7140   */\n      dup3\n        /* \"#utility.yul\":7135:7144   */\n      add\n        /* \"#utility.yul\":7128:7144   */\n      swap1\n      pop\n        /* \"#utility.yul\":7163:7166   */\n      dup1\n        /* \"#utility.yul\":7160:7161   */\n      dup3\n        /* \"#utility.yul\":7157:7167   */\n      gt\n        /* \"#utility.yul\":7154:7190   */\n      iszero\n      tag_122\n      jumpi\n        /* \"#utility.yul\":7170:7188   */\n      tag_123\n      tag_45\n      jump\t// in\n    tag_123:\n        /* \"#utility.yul\":7154:7190   */\n    tag_122:\n        /* \"#utility.yul\":7006:7197   */\n      swap3\n      swap2\n      pop\n      pop\n      jump\t// out\n\n    auxdata: 0xa2646970667358221220d17ad15ae2807b98815e7fcbca4ae970385507646969e257ac28a052a7932ef464736f6c634300081e0033\n}\n",
				"bytecode": {
					"linkReferences": {},
					"object": "6080604052348015600e575f5ffd5b506104d58061001c5f395ff3fe608060405260043610610021575f3560e01c806324ccab8f1461005d57610022565b5b7f59e04c3f0d44b7caf6e8ef854b61d9a51cf1960d7a88ff6356cc5e946b4b5832333460405161005392919061018f565b60405180910390a1005b61007760048036038101906100729190610340565b61008d565b604051610084919061039a565b60405180910390f35b5f7f59e04c3f0d44b7caf6e8ef854b61d9a51cf1960d7a88ff6356cc5e946b4b58323334856040516100c193929190610403565b60405180910390a16001826100d6919061046c565b905092915050565b5f73ffffffffffffffffffffffffffffffffffffffff82169050919050565b5f610107826100de565b9050919050565b610117816100fd565b82525050565b5f819050919050565b61012f8161011d565b82525050565b5f82825260208201905092915050565b7f46616c6c6261636b207761732063616c6c6564000000000000000000000000005f82015250565b5f610179601383610135565b915061018482610145565b602082019050919050565b5f6060820190506101a25f83018561010e565b6101af6020830184610126565b81810360408301526101c08161016d565b90509392505050565b5f604051905090565b5f5ffd5b5f5ffd5b5f5ffd5b5f5ffd5b5f601f19601f8301169050919050565b7f4e487b71000000000000000000000000000000000000000000000000000000005f52604160045260245ffd5b610228826101e2565b810181811067ffffffffffffffff82111715610247576102466101f2565b5b80604052505050565b5f6102596101c9565b9050610265828261021f565b919050565b5f67ffffffffffffffff821115610284576102836101f2565b5b61028d826101e2565b9050602081019050919050565b828183375f83830152505050565b5f6102ba6102b58461026a565b610250565b9050828152602081018484840111156102d6576102d56101de565b5b6102e184828561029a565b509392505050565b5f82601f8301126102fd576102fc6101da565b5b813561030d8482602086016102a8565b91505092915050565b61031f8161011d565b8114610329575f5ffd5b50565b5f8135905061033a81610316565b92915050565b5f5f60408385031215610356576103556101d2565b5b5f83013567ffffffffffffffff811115610373576103726101d6565b5b61037f858286016102e9565b92505060206103908582860161032c565b9150509250929050565b5f6020820190506103ad5f830184610126565b92915050565b5f81519050919050565b8281835e5f83830152505050565b5f6103d5826103b3565b6103df8185610135565b93506103ef8185602086016103bd565b6103f8816101e2565b840191505092915050565b5f6060820190506104165f83018661010e565b6104236020830185610126565b818103604083015261043581846103cb565b9050949350505050565b7f4e487b71000000000000000000000000000000000000000000000000000000005f52601160045260245ffd5b5f6104768261011d565b91506104818361011d565b92508282019050808211156104995761049861043f565b5b9291505056fea2646970667358221220d17ad15ae2807b98815e7fcbca4ae970385507646969e257ac28a052a7932ef464736f6c634300081e0033",
					"opcodes": "PUSH1 0x80 PUSH1 0x40 MSTORE CALLVALUE DUP1 ISZERO PUSH1 0xE JUMPI PUSH0 PUSH0 REVERT JUMPDEST POP PUSH2 0x4D5 DUP1 PUSH2 0x1C PUSH0 CODECOPY PUSH0 RETURN INVALID PUSH1 0x80 PUSH1 0x40 MSTORE PUSH1 0x4 CALLDATASIZE LT PUSH2 0x21 JUMPI PUSH0 CALLDATALOAD PUSH1 0xE0 SHR DUP1 PUSH4 0x24CCAB8F EQ PUSH2 0x5D JUMPI PUSH2 0x22 JUMP JUMPDEST JUMPDEST PUSH32 0x59E04C3F0D44B7CAF6E8EF854B61D9A51CF1960D7A88FF6356CC5E946B4B5832 CALLER CALLVALUE PUSH1 0x40 MLOAD PUSH2 0x53 SWAP3 SWAP2 SWAP1 PUSH2 0x18F JUMP JUMPDEST PUSH1 0x40 MLOAD DUP1 SWAP2 SUB SWAP1 LOG1 STOP JUMPDEST PUSH2 0x77 PUSH1 0x4 DUP1 CALLDATASIZE SUB DUP2 ADD SWAP1 PUSH2 0x72 SWAP2 SWAP1 PUSH2 0x340 JUMP JUMPDEST PUSH2 0x8D JUMP JUMPDEST PUSH1 0x40 MLOAD PUSH2 0x84 SWAP2 SWAP1 PUSH2 0x39A JUMP JUMPDEST PUSH1 0x40 MLOAD DUP1 SWAP2 SUB SWAP1 RETURN JUMPDEST PUSH0 PUSH32 0x59E04C3F0D44B7CAF6E8EF854B61D9A51CF1960D7A88FF6356CC5E946B4B5832 CALLER CALLVALUE DUP6 PUSH1 0x40 MLOAD PUSH2 0xC1 SWAP4 SWAP3 SWAP2 SWAP1 PUSH2 0x403 JUMP JUMPDEST PUSH1 0x40 MLOAD DUP1 SWAP2 SUB SWAP1 LOG1 PUSH1 0x1 DUP3 PUSH2 0xD6 SWAP2 SWAP1 PUSH2 0x46C JUMP JUMPDEST SWAP1 POP SWAP3 SWAP2 POP POP JUMP JUMPDEST PUSH0 PUSH20 0xFFFFFFFFFFFFFFFFFFFFFFFFFFFFFFFFFFFFFFFF DUP3 AND SWAP1 POP SWAP2 SWAP1 POP JUMP JUMPDEST PUSH0 PUSH2 0x107 DUP3 PUSH2 0xDE JUMP JUMPDEST SWAP1 POP SWAP2 SWAP1 POP JUMP JUMPDEST PUSH2 0x117 DUP2 PUSH2 0xFD JUMP JUMPDEST DUP3 MSTORE POP POP JUMP JUMPDEST PUSH0 DUP2 SWAP1 POP SWAP2 SWAP1 POP JUMP JUMPDEST PUSH2 0x12F DUP2 PUSH2 0x11D JUMP JUMPDEST DUP3 MSTORE POP POP JUMP JUMPDEST PUSH0 DUP3 DUP3 MSTORE PUSH1 0x20 DUP3 ADD SWAP1 POP SWAP3 SWAP2 POP POP JUMP JUMPDEST PUSH32 0x46616C6C6261636B207761732063616C6C656400000000000000000000000000 PUSH0 DUP3 ADD MSTORE POP JUMP JUMPDEST PUSH0 PUSH2 0x179 PUSH1 0x13 DUP4 PUSH2 0x135 JUMP JUMPDEST SWAP2 POP PUSH2 0x184 DUP3 PUSH2 0x145 JUMP JUMPDEST PUSH1 0x20 DUP3 ADD SWAP1 POP SWAP2 SWAP1 POP JUMP JUMPDEST PUSH0 PUSH1 0x60 DUP3 ADD SWAP1 POP PUSH2 0x1A2 PUSH0 DUP4 ADD DUP6 PUSH2 0x10E JUMP JUMPDEST PUSH2 0x1AF PUSH1 0x20 DUP4 ADD DUP5 PUSH2 0x126 JUMP JUMPDEST DUP2 DUP2 SUB PUSH1 0x40 DUP4 ADD MSTORE PUSH2 0x1C0 DUP2 PUSH2 0x16D JUMP JUMPDEST SWAP1 POP SWAP4 SWAP3 POP POP POP JUMP JUMPDEST PUSH0 PUSH1 0x40 MLOAD SWAP1 POP SWAP1 JUMP JUMPDEST PUSH0 PUSH0 REVERT JUMPDEST PUSH0 PUSH0 REVERT JUMPDEST PUSH0 PUSH0 REVERT JUMPDEST PUSH0 PUSH0 REVERT JUMPDEST PUSH0 PUSH1 0x1F NOT PUSH1 0x1F DUP4 ADD AND SWAP1 POP SWAP2 SWAP1 POP JUMP JUMPDEST PUSH32 0x4E487B7100000000000000000000000000000000000000000000000000000000 PUSH0 MSTORE PUSH1 0x41 PUSH1 0x4 MSTORE PUSH1 0x24 PUSH0 REVERT JUMPDEST PUSH2 0x228 DUP3 PUSH2 0x1E2 JUMP JUMPDEST DUP2 ADD DUP2 DUP2 LT PUSH8 0xFFFFFFFFFFFFFFFF DUP3 GT OR ISZERO PUSH2 0x247 JUMPI PUSH2 0x246 PUSH2 0x1F2 JUMP JUMPDEST JUMPDEST DUP1 PUSH1 0x40 MSTORE POP POP POP JUMP JUMPDEST PUSH0 PUSH2 0x259 PUSH2 0x1C9 JUMP JUMPDEST SWAP1 POP PUSH2 0x265 DUP3 DUP3 PUSH2 0x21F JUMP JUMPDEST SWAP2 SWAP1 POP JUMP JUMPDEST PUSH0 PUSH8 0xFFFFFFFFFFFFFFFF DUP3 GT ISZERO PUSH2 0x284 JUMPI PUSH2 0x283 PUSH2 0x1F2 JUMP JUMPDEST JUMPDEST PUSH2 0x28D DUP3 PUSH2 0x1E2 JUMP JUMPDEST SWAP1 POP PUSH1 0x20 DUP2 ADD SWAP1 POP SWAP2 SWAP1 POP JUMP JUMPDEST DUP3 DUP2 DUP4 CALLDATACOPY PUSH0 DUP4 DUP4 ADD MSTORE POP POP POP JUMP JUMPDEST PUSH0 PUSH2 0x2BA PUSH2 0x2B5 DUP5 PUSH2 0x26A JUMP JUMPDEST PUSH2 0x250 JUMP JUMPDEST SWAP1 POP DUP3 DUP2 MSTORE PUSH1 0x20 DUP2 ADD DUP5 DUP5 DUP5 ADD GT ISZERO PUSH2 0x2D6 JUMPI PUSH2 0x2D5 PUSH2 0x1DE JUMP JUMPDEST JUMPDEST PUSH2 0x2E1 DUP5 DUP3 DUP6 PUSH2 0x29A JUMP JUMPDEST POP SWAP4 SWAP3 POP POP POP JUMP JUMPDEST PUSH0 DUP3 PUSH1 0x1F DUP4 ADD SLT PUSH2 0x2FD JUMPI PUSH2 0x2FC PUSH2 0x1DA JUMP JUMPDEST JUMPDEST DUP2 CALLDATALOAD PUSH2 0x30D DUP5 DUP3 PUSH1 0x20 DUP7 ADD PUSH2 0x2A8 JUMP JUMPDEST SWAP2 POP POP SWAP3 SWAP2 POP POP JUMP JUMPDEST PUSH2 0x31F DUP2 PUSH2 0x11D JUMP JUMPDEST DUP2 EQ PUSH2 0x329 JUMPI PUSH0 PUSH0 REVERT JUMPDEST POP JUMP JUMPDEST PUSH0 DUP2 CALLDATALOAD SWAP1 POP PUSH2 0x33A DUP2 PUSH2 0x316 JUMP JUMPDEST SWAP3 SWAP2 POP POP JUMP JUMPDEST PUSH0 PUSH0 PUSH1 0x40 DUP4 DUP6 SUB SLT ISZERO PUSH2 0x356 JUMPI PUSH2 0x355 PUSH2 0x1D2 JUMP JUMPDEST JUMPDEST PUSH0 DUP4 ADD CALLDATALOAD PUSH8 0xFFFFFFFFFFFFFFFF DUP2 GT ISZERO PUSH2 0x373 JUMPI PUSH2 0x372 PUSH2 0x1D6 JUMP JUMPDEST JUMPDEST PUSH2 0x37F DUP6 DUP3 DUP7 ADD PUSH2 0x2E9 JUMP JUMPDEST SWAP3 POP POP PUSH1 0x20 PUSH2 0x390 DUP6 DUP3 DUP7 ADD PUSH2 0x32C JUMP JUMPDEST SWAP2 POP POP SWAP3 POP SWAP3 SWAP1 POP JUMP JUMPDEST PUSH0 PUSH1 0x20 DUP3 ADD SWAP1 POP PUSH2 0x3AD PUSH0 DUP4 ADD DUP5 PUSH2 0x126 JUMP JUMPDEST SWAP3 SWAP2 POP POP JUMP JUMPDEST PUSH0 DUP2 MLOAD SWAP1 POP SWAP2 SWAP1 POP JUMP JUMPDEST DUP3 DUP2 DUP4 MCOPY PUSH0 DUP4 DUP4 ADD MSTORE POP POP POP JUMP JUMPDEST PUSH0 PUSH2 0x3D5 DUP3 PUSH2 0x3B3 JUMP JUMPDEST PUSH2 0x3DF DUP2 DUP6 PUSH2 0x135 JUMP JUMPDEST SWAP4 POP PUSH2 0x3EF DUP2 DUP6 PUSH1 0x20 DUP7 ADD PUSH2 0x3BD JUMP JUMPDEST PUSH2 0x3F8 DUP2 PUSH2 0x1E2 JUMP JUMPDEST DUP5 ADD SWAP2 POP POP SWAP3 SWAP2 POP POP JUMP JUMPDEST PUSH0 PUSH1 0x60 DUP3 ADD SWAP1 POP PUSH2 0x416 PUSH0 DUP4 ADD DUP7 PUSH2 0x10E JUMP JUMPDEST PUSH2 0x423 PUSH1 0x20 DUP4 ADD DUP6 PUSH2 0x126 JUMP JUMPDEST DUP2 DUP2 SUB PUSH1 0x40 DUP4 ADD MSTORE PUSH2 0x435 DUP2 DUP5 PUSH2 0x3CB JUMP JUMPDEST SWAP1 POP SWAP5 SWAP4 POP POP POP POP JUMP JUMPDEST PUSH32 0x4E487B7100000000000000000000000000000000000000000000000000000000 PUSH0 MSTORE PUSH1 0x11 PUSH1 0x4 MSTORE PUSH1 0x24 PUSH0 REVERT JUMPDEST PUSH0 PUSH2 0x476 DUP3 PUSH2 0x11D JUMP JUMPDEST SWAP2 POP PUSH2 0x481 DUP4 PUSH2 0x11D JUMP JUMPDEST SWAP3 POP DUP3 DUP3 ADD SWAP1 POP DUP1 DUP3 GT ISZERO PUSH2 0x499 JUMPI PUSH2 0x498 PUSH2 0x43F JUMP JUMPDEST JUMPDEST SWAP3 SWAP2 POP POP JUMP INVALID LOG2 PUSH5 0x6970667358 0x22 SLT KECCAK256 DATALOADN 0x7AD1 GAS 0xE2 DUP1 PUSH28 0x98815E7FCBCA4AE970385507646969E257AC28A052A7932EF464736F PUSH13 0x634300081E0033000000000000 "
				},
				"gasEstimates": {
					"creation": {
						"codeDepositCost": "247400",
						"executionCost": "285",
						"totalCost": "247685"
					},
					"external": {
						"": "2643",
						"foo(string,uint256)": "infinite"
					}
				},
				"methodIdentifiers": {
					"foo(string,uint256)": "24ccab8f"
				}
			},
			"storageLayout": {
				"storage": [],
				"types": null
			},
			"userdoc": {
				"kind": "user",
				"methods": {},
				"version": 1
			}
		}
	}
}