{
	"application_contracts/Crowd Fund.sol": {
		"CrowdFund": {
			"abi": [
				{
					"inputs": [
						{
							"internalType": "address",
							"name": "_token",
							"type": "address"
						}
					],
					"stateMutability": "nonpayable",
					"type": "constructor"
				},
				{
					"anonymous": false,
					"inputs": [
						{
							"indexed": false,
							"internalType": "uint256",
							"name": "id",
							"type": "uint256"
						}
					],
					"name": "Cancel",
					"type": "event"
				},
				{
					"anonymous": false,
					"inputs": [
						{
							"indexed": false,
							"internalType": "uint256",
							"name": "id",
							"type": "uint256"
						}
					],
					"name": "Claim",
					"type": "event"
				},
				{
					"anonymous": false,
					"inputs": [
						{
							"indexed": false,
							"internalType": "uint256",
							"name": "id",
							"type": "uint256"
						},
						{
							"indexed": true,
							"internalType": "address",
							"name": "creator",
							"type": "address"
						},
						{
							"indexed": false,
							"internalType": "uint256",
							"name": "goal",
							"type": "uint256"
						},
						{
							"indexed": false,
							"internalType": "uint32",
							"name": "startAt",
							"type": "uint32"
						},
						{
							"indexed": false,
							"internalType": "uint32",
							"name": "endAt",
							"type": "uint32"
						}
					],
					"name": "Launch",
					"type": "event"
				},
				{
					"anonymous": false,
					"inputs": [
						{
							"indexed": true,
							"internalType": "uint256",
							"name": "id",
							"type": "uint256"
						},
						{
							"indexed": true,
							"internalType": "address",
							"name": "caller",
							"type": "address"
						},
						{
							"indexed": false,
							"internalType": "uint256",
							"name": "amount",
							"type": "uint256"
						}
					],
					"name": "Pledge",
					"type": "event"
				},
				{
					"anonymous": false,
					"inputs": [
						{
							"indexed": false,
							"internalType": "uint256",
							"name": "id",
							"type": "uint256"
						},
						{
							"indexed": true,
							"internalType": "address",
							"name": "caller",
							"type": "address"
						},
						{
							"indexed": false,
							"internalType": "uint256",
							"name": "amount",
							"type": "uint256"
						}
					],
					"name": "Refund",
					"type": "event"
				},
				{
					"anonymous": false,
					"inputs": [
						{
							"indexed": true,
							"internalType": "uint256",
							"name": "id",
							"type": "uint256"
						},
						{
							"indexed": true,
							"internalType": "address",
							"name": "caller",
							"type": "address"
						},
						{
							"indexed": false,
							"internalType": "uint256",
							"name": "amount",
							"type": "uint256"
						}
					],
					"name": "Unpledge",
					"type": "event"
				},
				{
					"inputs": [
						{
							"internalType": "uint256",
							"name": "",
							"type": "uint256"
						}
					],
					"name": "campaigns",
					"outputs": [
						{
							"internalType": "address",
							"name": "creator",
							"type": "address"
						},
						{
							"internalType": "uint256",
							"name": "goal",
							"type": "uint256"
						},
						{
							"internalType": "uint256",
							"name": "pledged",
							"type": "uint256"
						},
						{
							"internalType": "uint32",
							"name": "startAt",
							"type": "uint32"
						},
						{
							"internalType": "uint32",
							"name": "endAt",
							"type": "uint32"
						},
						{
							"internalType": "bool",
							"name": "claimed",
							"type": "bool"
						}
					],
					"stateMutability": "view",
					"type": "function"
				},
				{
					"inputs": [
						{
							"internalType": "uint256",
							"name": "_id",
							"type": "uint256"
						}
					],
					"name": "cancel",
					"outputs": [],
					"stateMutability": "nonpayable",
					"type": "function"
				},
				{
					"inputs": [
						{
							"internalType": "uint256",
							"name": "_id",
							"type": "uint256"
						}
					],
					"name": "claim",
					"outputs": [],
					"stateMutability": "nonpayable",
					"type": "function"
				},
				{
					"inputs": [],
					"name": "count",
					"outputs": [
						{
							"internalType": "uint256",
							"name": "",
							"type": "uint256"
						}
					],
					"stateMutability": "view",
					"type": "function"
				},
				{
					"inputs": [
						{
							"internalType": "uint256",
							"name": "_goal",
							"type": "uint256"
						},
						{
							"internalType": "uint32",
							"name": "_startAt",
							"type": "uint32"
						},
						{
							"internalType": "uint32",
							"name": "_endAt",
							"type": "uint32"
						}
					],
					"name": "launch",
					"outputs": [],
					"stateMutability": "nonpayable",
					"type": "function"
				},
				{
					"inputs": [
						{
							"internalType": "uint256",
							"name": "_id",
							"type": "uint256"
						},
						{
							"internalType": "uint256",
							"name": "_amount",
							"type": "uint256"
						}
					],
					"name": "pledge",
					"outputs": [],
					"stateMutability": "nonpayable",
					"type": "function"
				},
				{
					"inputs": [
						{
							"internalType": "uint256",
							"name": "",
							"type": "uint256"
						},
						{
							"internalType": "address",
							"name": "",
							"type": "address"
						}
					],
					"name": "pledgedAmount",
					"outputs": [
						{
							"internalType": "uint256",
							"name": "",
							"type": "uint256"
						}
					],
					"stateMutability": "view",
					"type": "function"
				},
				{
					"inputs": [
						{
							"internalType": "uint256",
							"name": "_id",
							"type": "uint256"
						}
					],
					"name": "refund",
					"outputs": [],
					"stateMutability": "nonpayable",
					"type": "function"
				},
				{
					"inputs": [],
					"name": "token",
					"outputs": [
						{
							"internalType": "contract IERC20",
							"name": "",
							"type": "address"
						}
					],
					"stateMutability": "view",
					"type": "function"
				},
				{
					"inputs": [
						{
							"internalType": "uint256",
							"name": "_id",
							"type": "uint256"
						},
						{
							"internalType": "uint256",
							"name": "_amount",
							"type": "uint256"
						}
					],
					"name": "unpledge",
					"outputs": [],
					"stateMutability": "nonpayable",
					"type": "function"
				}
			],
			"devdoc": {
				"kind": "dev",
				"methods": {},
				"version": 1
			},
			"evm": {
				"assembly": "    /* \"application_contracts/Crowd Fund.sol\":343:4813  contract CrowdFund {... */\n  mstore(0x40, 0xa0)\n    /* \"application_contracts/Crowd Fund.sol\":1504:1639  constructor(address _token) {... */\n  callvalue\n  dup1\n  iszero\n  tag_1\n  jumpi\n  revert(0x00, 0x00)\ntag_1:\n  pop\n  mload(0x40)\n  sub(codesize, bytecodeSize)\n  dup1\n  bytecodeSize\n  dup4\n  codecopy\n  dup2\n  dup2\n  add\n  0x40\n  mstore\n  dup2\n  add\n  swap1\n  tag_2\n  swap2\n  swap1\n  tag_3\n  jump\t// in\ntag_2:\n    /* \"application_contracts/Crowd Fund.sol\":1625:1631  _token */\n  dup1\n    /* \"application_contracts/Crowd Fund.sol\":1610:1632  token = IERC20(_token) */\n  0xffffffffffffffffffffffffffffffffffffffff\n  and\n  0x80\n  dup2\n  0xffffffffffffffffffffffffffffffffffffffff\n  and\n  dup2\n  mstore\n  pop\n  pop\n    /* \"application_contracts/Crowd Fund.sol\":1504:1639  constructor(address _token) {... */\n  pop\n    /* \"application_contracts/Crowd Fund.sol\":343:4813  contract CrowdFund {... */\n  jump(tag_6)\n    /* \"#utility.yul\":88:205   */\ntag_8:\n    /* \"#utility.yul\":197:198   */\n  0x00\n    /* \"#utility.yul\":194:195   */\n  0x00\n    /* \"#utility.yul\":187:199   */\n  revert\n    /* \"#utility.yul\":334:460   */\ntag_10:\n    /* \"#utility.yul\":371:378   */\n  0x00\n    /* \"#utility.yul\":411:453   */\n  0xffffffffffffffffffffffffffffffffffffffff\n    /* \"#utility.yul\":404:409   */\n  dup3\n    /* \"#utility.yul\":400:454   */\n  and\n    /* \"#utility.yul\":389:454   */\n  swap1\n  pop\n    /* \"#utility.yul\":334:460   */\n  swap2\n  swap1\n  pop\n  jump\t// out\n    /* \"#utility.yul\":466:562   */\ntag_11:\n    /* \"#utility.yul\":503:510   */\n  0x00\n    /* \"#utility.yul\":532:556   */\n  tag_20\n    /* \"#utility.yul\":550:555   */\n  dup3\n    /* \"#utility.yul\":532:556   */\n  tag_10\n  jump\t// in\ntag_20:\n    /* \"#utility.yul\":521:556   */\n  swap1\n  pop\n    /* \"#utility.yul\":466:562   */\n  swap2\n  swap1\n  pop\n  jump\t// out\n    /* \"#utility.yul\":568:690   */\ntag_12:\n    /* \"#utility.yul\":641:665   */\n  tag_22\n    /* \"#utility.yul\":659:664   */\n  dup2\n    /* \"#utility.yul\":641:665   */\n  tag_11\n  jump\t// in\ntag_22:\n    /* \"#utility.yul\":634:639   */\n  dup2\n    /* \"#utility.yul\":631:666   */\n  eq\n    /* \"#utility.yul\":621:684   */\n  tag_23\n  jumpi\n    /* \"#utility.yul\":680:681   */\n  0x00\n    /* \"#utility.yul\":677:678   */\n  0x00\n    /* \"#utility.yul\":670:682   */\n  revert\n    /* \"#utility.yul\":621:684   */\ntag_23:\n    /* \"#utility.yul\":568:690   */\n  pop\n  jump\t// out\n    /* \"#utility.yul\":696:839   */\ntag_13:\n    /* \"#utility.yul\":753:758   */\n  0x00\n    /* \"#utility.yul\":784:790   */\n  dup2\n    /* \"#utility.yul\":778:791   */\n  mload\n    /* \"#utility.yul\":769:791   */\n  swap1\n  pop\n    /* \"#utility.yul\":800:833   */\n  tag_25\n    /* \"#utility.yul\":827:832   */\n  dup2\n    /* \"#utility.yul\":800:833   */\n  tag_12\n  jump\t// in\ntag_25:\n    /* \"#utility.yul\":696:839   */\n  swap3\n  swap2\n  pop\n  pop\n  jump\t// out\n    /* \"#utility.yul\":845:1196   */\ntag_3:\n    /* \"#utility.yul\":915:921   */\n  0x00\n    /* \"#utility.yul\":964:966   */\n  0x20\n    /* \"#utility.yul\":952:961   */\n  dup3\n    /* \"#utility.yul\":943:950   */\n  dup5\n    /* \"#utility.yul\":939:962   */\n  sub\n    /* \"#utility.yul\":935:967   */\n  slt\n    /* \"#utility.yul\":932:1051   */\n  iszero\n  tag_27\n  jumpi\n    /* \"#utility.yul\":970:1049   */\n  tag_28\n  tag_8\n  jump\t// in\ntag_28:\n    /* \"#utility.yul\":932:1051   */\ntag_27:\n    /* \"#utility.yul\":1090:1091   */\n  0x00\n    /* \"#utility.yul\":1115:1179   */\n  tag_29\n    /* \"#utility.yul\":1171:1178   */\n  dup5\n    /* \"#utility.yul\":1162:1168   */\n  dup3\n    /* \"#utility.yul\":1151:1160   */\n  dup6\n    /* \"#utility.yul\":1147:1169   */\n  add\n    /* \"#utility.yul\":1115:1179   */\n  tag_13\n  jump\t// in\ntag_29:\n    /* \"#utility.yul\":1105:1179   */\n  swap2\n  pop\n    /* \"#utility.yul\":1061:1189   */\n  pop\n    /* \"#utility.yul\":845:1196   */\n  swap3\n  swap2\n  pop\n  pop\n  jump\t// out\n    /* \"application_contracts/Crowd Fund.sol\":343:4813  contract CrowdFund {... */\ntag_6:\n  mload(0x80)\n  codecopy(0x00, dataOffset(sub_0), dataSize(sub_0))\n  0x00\n  assignImmutable(\"0xd9670a00d025e59e1bd58d53874bea4ab34fea782716e2c168e89a3c8452d3bb\")\n  return(0x00, dataSize(sub_0))\nstop\n\nsub_0: assembly {\n        /* \"application_contracts/Crowd Fund.sol\":343:4813  contract CrowdFund {... */\n      mstore(0x40, 0x80)\n      callvalue\n      dup1\n      iszero\n      tag_1\n      jumpi\n      revert(0x00, 0x00)\n    tag_1:\n      pop\n      jumpi(tag_2, lt(calldatasize, 0x04))\n      shr(0xe0, calldataload(0x00))\n      dup1\n      0x40e58ee5\n      gt\n      tag_13\n      jumpi\n      dup1\n      0x40e58ee5\n      eq\n      tag_8\n      jumpi\n      dup1\n      0x711853ab\n      eq\n      tag_9\n      jumpi\n      dup1\n      0xaa4fb63a\n      eq\n      tag_10\n      jumpi\n      dup1\n      0xfc0c546a\n      eq\n      tag_11\n      jumpi\n      dup1\n      0xfde327be\n      eq\n      tag_12\n      jumpi\n      jump(tag_2)\n    tag_13:\n      dup1\n      0x06661abd\n      eq\n      tag_3\n      jumpi\n      dup1\n      0x141961bc\n      eq\n      tag_4\n      jumpi\n      dup1\n      0x278ecde1\n      eq\n      tag_5\n      jumpi\n      dup1\n      0x2c63f146\n      eq\n      tag_6\n      jumpi\n      dup1\n      0x379607f5\n      eq\n      tag_7\n      jumpi\n    tag_2:\n      revert(0x00, 0x00)\n        /* \"application_contracts/Crowd Fund.sol\":1266:1283  uint public count */\n    tag_3:\n      tag_14\n      tag_15\n      jump\t// in\n    tag_14:\n      mload(0x40)\n      tag_16\n      swap2\n      swap1\n      tag_17\n      jump\t// in\n    tag_16:\n      mload(0x40)\n      dup1\n      swap2\n      sub\n      swap1\n      return\n        /* \"application_contracts/Crowd Fund.sol\":1289:1331  mapping(uint => Campaign) public campaigns */\n    tag_4:\n      tag_18\n      0x04\n      dup1\n      calldatasize\n      sub\n      dup2\n      add\n      swap1\n      tag_19\n      swap2\n      swap1\n      tag_20\n      jump\t// in\n    tag_19:\n      tag_21\n      jump\t// in\n    tag_18:\n      mload(0x40)\n      tag_22\n      swap7\n      swap6\n      swap5\n      swap4\n      swap3\n      swap2\n      swap1\n      tag_23\n      jump\t// in\n    tag_22:\n      mload(0x40)\n      dup1\n      swap2\n      sub\n      swap1\n      return\n        /* \"application_contracts/Crowd Fund.sol\":4339:4811  function refund(uint _id) external {... */\n    tag_5:\n      tag_24\n      0x04\n      dup1\n      calldatasize\n      sub\n      dup2\n      add\n      swap1\n      tag_25\n      swap2\n      swap1\n      tag_20\n      jump\t// in\n    tag_25:\n      tag_26\n      jump\t// in\n    tag_24:\n      stop\n        /* \"application_contracts/Crowd Fund.sol\":1671:2185  function launch(uint _goal, uint32 _startAt, uint32 _endAt) external {... */\n    tag_6:\n      tag_27\n      0x04\n      dup1\n      calldatasize\n      sub\n      dup2\n      add\n      swap1\n      tag_28\n      swap2\n      swap1\n      tag_29\n      jump\t// in\n    tag_28:\n      tag_30\n      jump\t// in\n    tag_27:\n      stop\n        /* \"application_contracts/Crowd Fund.sol\":3708:4229  function claim(uint _id) external {... */\n    tag_7:\n      tag_31\n      0x04\n      dup1\n      calldatasize\n      sub\n      dup2\n      add\n      swap1\n      tag_32\n      swap2\n      swap1\n      tag_20\n      jump\t// in\n    tag_32:\n      tag_33\n      jump\t// in\n    tag_31:\n      stop\n        /* \"application_contracts/Crowd Fund.sol\":2280:2558  function cancel(uint _id) external {... */\n    tag_8:\n      tag_34\n      0x04\n      dup1\n      calldatasize\n      sub\n      dup2\n      add\n      swap1\n      tag_35\n      swap2\n      swap1\n      tag_20\n      jump\t// in\n    tag_35:\n      tag_36\n      jump\t// in\n    tag_34:\n      stop\n        /* \"application_contracts/Crowd Fund.sol\":3137:3558  function unpledge(uint _id, uint _amount) external {... */\n    tag_9:\n      tag_37\n      0x04\n      dup1\n      calldatasize\n      sub\n      dup2\n      add\n      swap1\n      tag_38\n      swap2\n      swap1\n      tag_39\n      jump\t// in\n    tag_38:\n      tag_40\n      jump\t// in\n    tag_37:\n      stop\n        /* \"application_contracts/Crowd Fund.sol\":1435:1497  mapping(uint => mapping(address => uint)) public pledgedAmount */\n    tag_10:\n      tag_41\n      0x04\n      dup1\n      calldatasize\n      sub\n      dup2\n      add\n      swap1\n      tag_42\n      swap2\n      swap1\n      tag_43\n      jump\t// in\n    tag_42:\n      tag_44\n      jump\t// in\n    tag_41:\n      mload(0x40)\n      tag_45\n      swap2\n      swap1\n      tag_17\n      jump\t// in\n    tag_45:\n      mload(0x40)\n      dup1\n      swap2\n      sub\n      swap1\n      return\n        /* \"application_contracts/Crowd Fund.sol\":1202:1231  IERC20 public immutable token */\n    tag_11:\n      tag_46\n      tag_47\n      jump\t// in\n    tag_46:\n      mload(0x40)\n      tag_48\n      swap2\n      swap1\n      tag_49\n      jump\t// in\n    tag_48:\n      mload(0x40)\n      dup1\n      swap2\n      sub\n      swap1\n      return\n        /* \"application_contracts/Crowd Fund.sol\":2634:3070  function pledge(uint _id, uint _amount) external {... */\n    tag_12:\n      tag_50\n      0x04\n      dup1\n      calldatasize\n      sub\n      dup2\n      add\n      swap1\n      tag_51\n      swap2\n      swap1\n      tag_39\n      jump\t// in\n    tag_51:\n      tag_52\n      jump\t// in\n    tag_50:\n      stop\n        /* \"application_contracts/Crowd Fund.sol\":1266:1283  uint public count */\n    tag_15:\n      sload(0x00)\n      dup2\n      jump\t// out\n        /* \"application_contracts/Crowd Fund.sol\":1289:1331  mapping(uint => Campaign) public campaigns */\n    tag_21:\n      mstore(0x20, 0x01)\n      dup1\n      0x00\n      mstore\n      keccak256(0x00, 0x40)\n      0x00\n      swap2\n      pop\n      swap1\n      pop\n      dup1\n      0x00\n      add\n      0x00\n      swap1\n      sload\n      swap1\n      0x0100\n      exp\n      swap1\n      div\n      0xffffffffffffffffffffffffffffffffffffffff\n      and\n      swap1\n      dup1\n      0x01\n      add\n      sload\n      swap1\n      dup1\n      0x02\n      add\n      sload\n      swap1\n      dup1\n      0x03\n      add\n      0x00\n      swap1\n      sload\n      swap1\n      0x0100\n      exp\n      swap1\n      div\n      0xffffffff\n      and\n      swap1\n      dup1\n      0x03\n      add\n      0x04\n      swap1\n      sload\n      swap1\n      0x0100\n      exp\n      swap1\n      div\n      0xffffffff\n      and\n      swap1\n      dup1\n      0x03\n      add\n      0x08\n      swap1\n      sload\n      swap1\n      0x0100\n      exp\n      swap1\n      div\n      0xff\n      and\n      swap1\n      pop\n      dup7\n      jump\t// out\n        /* \"application_contracts/Crowd Fund.sol\":4339:4811  function refund(uint _id) external {... */\n    tag_26:\n        /* \"application_contracts/Crowd Fund.sol\":4384:4408  Campaign memory campaign */\n      0x00\n        /* \"application_contracts/Crowd Fund.sol\":4411:4420  campaigns */\n      0x01\n        /* \"application_contracts/Crowd Fund.sol\":4411:4425  campaigns[_id] */\n      0x00\n        /* \"application_contracts/Crowd Fund.sol\":4421:4424  _id */\n      dup4\n        /* \"application_contracts/Crowd Fund.sol\":4411:4425  campaigns[_id] */\n      dup2\n      mstore\n      0x20\n      add\n      swap1\n      dup2\n      mstore\n      0x20\n      add\n      0x00\n      keccak256\n        /* \"application_contracts/Crowd Fund.sol\":4384:4425  Campaign memory campaign = campaigns[_id] */\n      mload(0x40)\n      dup1\n      0xc0\n      add\n      0x40\n      mstore\n      swap1\n      dup2\n      0x00\n      dup3\n      add\n      0x00\n      swap1\n      sload\n      swap1\n      0x0100\n      exp\n      swap1\n      div\n      0xffffffffffffffffffffffffffffffffffffffff\n      and\n      0xffffffffffffffffffffffffffffffffffffffff\n      and\n      0xffffffffffffffffffffffffffffffffffffffff\n      and\n      dup2\n      mstore\n      0x20\n      add\n      0x01\n      dup3\n      add\n      sload\n      dup2\n      mstore\n      0x20\n      add\n      0x02\n      dup3\n      add\n      sload\n      dup2\n      mstore\n      0x20\n      add\n      0x03\n      dup3\n      add\n      0x00\n      swap1\n      sload\n      swap1\n      0x0100\n      exp\n      swap1\n      div\n      0xffffffff\n      and\n      0xffffffff\n      and\n      0xffffffff\n      and\n      dup2\n      mstore\n      0x20\n      add\n      0x03\n      dup3\n      add\n      0x04\n      swap1\n      sload\n      swap1\n      0x0100\n      exp\n      swap1\n      div\n      0xffffffff\n      and\n      0xffffffff\n      and\n      0xffffffff\n      and\n      dup2\n      mstore\n      0x20\n      add\n      0x03\n      dup3\n      add\n      0x08\n      swap1\n      sload\n      swap1\n      0x0100\n      exp\n      swap1\n      div\n      0xff\n      and\n      iszero\n      iszero\n      iszero\n      iszero\n      dup2\n      mstore\n      pop\n      pop\n      swap1\n      pop\n        /* \"application_contracts/Crowd Fund.sol\":4462:4470  campaign */\n      dup1\n        /* \"application_contracts/Crowd Fund.sol\":4462:4478  campaign.startAt */\n      0x60\n      add\n      mload\n        /* \"application_contracts/Crowd Fund.sol\":4443:4478  block.timestamp >= campaign.startAt */\n      0xffffffff\n      and\n        /* \"application_contracts/Crowd Fund.sol\":4443:4458  block.timestamp */\n      timestamp\n        /* \"application_contracts/Crowd Fund.sol\":4443:4478  block.timestamp >= campaign.startAt */\n      lt\n      iszero\n        /* \"application_contracts/Crowd Fund.sol\":4435:4494  require(block.timestamp >= campaign.startAt, \"not started\") */\n      tag_54\n      jumpi\n      mload(0x40)\n      0x08c379a000000000000000000000000000000000000000000000000000000000\n      dup2\n      mstore\n      0x04\n      add\n      tag_55\n      swap1\n      tag_56\n      jump\t// in\n    tag_55:\n      mload(0x40)\n      dup1\n      swap2\n      sub\n      swap1\n      revert\n    tag_54:\n        /* \"application_contracts/Crowd Fund.sol\":4531:4539  campaign */\n      dup1\n        /* \"application_contracts/Crowd Fund.sol\":4531:4545  campaign.endAt */\n      0x80\n      add\n      mload\n        /* \"application_contracts/Crowd Fund.sol\":4512:4545  block.timestamp <= campaign.endAt */\n      0xffffffff\n      and\n        /* \"application_contracts/Crowd Fund.sol\":4512:4527  block.timestamp */\n      timestamp\n        /* \"application_contracts/Crowd Fund.sol\":4512:4545  block.timestamp <= campaign.endAt */\n      gt\n      iszero\n        /* \"application_contracts/Crowd Fund.sol\":4504:4555  require(block.timestamp <= campaign.endAt, \"ended\") */\n      tag_57\n      jumpi\n      mload(0x40)\n      0x08c379a000000000000000000000000000000000000000000000000000000000\n      dup2\n      mstore\n      0x04\n      add\n      tag_58\n      swap1\n      tag_59\n      jump\t// in\n    tag_58:\n      mload(0x40)\n      dup1\n      swap2\n      sub\n      swap1\n      revert\n    tag_57:\n        /* \"application_contracts/Crowd Fund.sol\":4593:4601  campaign */\n      dup1\n        /* \"application_contracts/Crowd Fund.sol\":4593:4606  campaign.goal */\n      0x20\n      add\n      mload\n        /* \"application_contracts/Crowd Fund.sol\":4573:4581  campaign */\n      dup2\n        /* \"application_contracts/Crowd Fund.sol\":4573:4589  campaign.pledged */\n      0x40\n      add\n      mload\n        /* \"application_contracts/Crowd Fund.sol\":4573:4606  campaign.pledged >= campaign.goal */\n      lt\n      iszero\n        /* \"application_contracts/Crowd Fund.sol\":4565:4625  require(campaign.pledged >= campaign.goal, \"pledged < goal\") */\n      tag_60\n      jumpi\n      mload(0x40)\n      0x08c379a000000000000000000000000000000000000000000000000000000000\n      dup2\n      mstore\n      0x04\n      add\n      tag_61\n      swap1\n      tag_62\n      jump\t// in\n    tag_61:\n      mload(0x40)\n      dup1\n      swap2\n      sub\n      swap1\n      revert\n    tag_60:\n        /* \"application_contracts/Crowd Fund.sol\":4635:4643  uint bal */\n      0x00\n        /* \"application_contracts/Crowd Fund.sol\":4646:4659  pledgedAmount */\n      0x02\n        /* \"application_contracts/Crowd Fund.sol\":4646:4664  pledgedAmount[_id] */\n      0x00\n        /* \"application_contracts/Crowd Fund.sol\":4660:4663  _id */\n      dup5\n        /* \"application_contracts/Crowd Fund.sol\":4646:4664  pledgedAmount[_id] */\n      dup2\n      mstore\n      0x20\n      add\n      swap1\n      dup2\n      mstore\n      0x20\n      add\n      0x00\n      keccak256\n        /* \"application_contracts/Crowd Fund.sol\":4646:4676  pledgedAmount[_id][msg.sender] */\n      0x00\n        /* \"application_contracts/Crowd Fund.sol\":4665:4675  msg.sender */\n      caller\n        /* \"application_contracts/Crowd Fund.sol\":4646:4676  pledgedAmount[_id][msg.sender] */\n      0xffffffffffffffffffffffffffffffffffffffff\n      and\n      0xffffffffffffffffffffffffffffffffffffffff\n      and\n      dup2\n      mstore\n      0x20\n      add\n      swap1\n      dup2\n      mstore\n      0x20\n      add\n      0x00\n      keccak256\n      sload\n        /* \"application_contracts/Crowd Fund.sol\":4635:4676  uint bal = pledgedAmount[_id][msg.sender] */\n      swap1\n      pop\n        /* \"application_contracts/Crowd Fund.sol\":4719:4720  0 */\n      0x00\n        /* \"application_contracts/Crowd Fund.sol\":4686:4699  pledgedAmount */\n      0x02\n        /* \"application_contracts/Crowd Fund.sol\":4686:4704  pledgedAmount[_id] */\n      0x00\n        /* \"application_contracts/Crowd Fund.sol\":4700:4703  _id */\n      dup6\n        /* \"application_contracts/Crowd Fund.sol\":4686:4704  pledgedAmount[_id] */\n      dup2\n      mstore\n      0x20\n      add\n      swap1\n      dup2\n      mstore\n      0x20\n      add\n      0x00\n      keccak256\n        /* \"application_contracts/Crowd Fund.sol\":4686:4716  pledgedAmount[_id][msg.sender] */\n      0x00\n        /* \"application_contracts/Crowd Fund.sol\":4705:4715  msg.sender */\n      caller\n        /* \"application_contracts/Crowd Fund.sol\":4686:4716  pledgedAmount[_id][msg.sender] */\n      0xffffffffffffffffffffffffffffffffffffffff\n      and\n      0xffffffffffffffffffffffffffffffffffffffff\n      and\n      dup2\n      mstore\n      0x20\n      add\n      swap1\n      dup2\n      mstore\n      0x20\n      add\n      0x00\n      keccak256\n        /* \"application_contracts/Crowd Fund.sol\":4686:4720  pledgedAmount[_id][msg.sender] = 0 */\n      dup2\n      swap1\n      sstore\n      pop\n        /* \"application_contracts/Crowd Fund.sol\":4730:4735  token */\n      immutable(\"0xd9670a00d025e59e1bd58d53874bea4ab34fea782716e2c168e89a3c8452d3bb\")\n        /* \"application_contracts/Crowd Fund.sol\":4730:4744  token.transfer */\n      0xffffffffffffffffffffffffffffffffffffffff\n      and\n      0xa9059cbb\n        /* \"application_contracts/Crowd Fund.sol\":4745:4755  msg.sender */\n      caller\n        /* \"application_contracts/Crowd Fund.sol\":4757:4760  bal */\n      dup4\n        /* \"application_contracts/Crowd Fund.sol\":4730:4761  token.transfer(msg.sender, bal) */\n      mload(0x40)\n      dup4\n      0xffffffff\n      and\n      0xe0\n      shl\n      dup2\n      mstore\n      0x04\n      add\n      tag_63\n      swap3\n      swap2\n      swap1\n      tag_64\n      jump\t// in\n    tag_63:\n      0x20\n      mload(0x40)\n      dup1\n      dup4\n      sub\n      dup2\n      0x00\n      dup8\n      gas\n      call\n      iszero\n      dup1\n      iszero\n      tag_66\n      jumpi\n      returndatacopy(0x00, 0x00, returndatasize)\n      revert(0x00, returndatasize)\n    tag_66:\n      pop\n      pop\n      pop\n      pop\n      mload(0x40)\n      returndatasize\n      not(0x1f)\n      0x1f\n      dup3\n      add\n      and\n      dup3\n      add\n      dup1\n      0x40\n      mstore\n      pop\n      dup2\n      add\n      swap1\n      tag_67\n      swap2\n      swap1\n      tag_68\n      jump\t// in\n    tag_67:\n      pop\n        /* \"application_contracts/Crowd Fund.sol\":4788:4798  msg.sender */\n      caller\n        /* \"application_contracts/Crowd Fund.sol\":4776:4804  Refund(_id, msg.sender, bal) */\n      0xffffffffffffffffffffffffffffffffffffffff\n      and\n      0x21e12a7cad0da5928167e1084ea4d5fdf8d9af66657a2543a9ac76a0ca081477\n        /* \"application_contracts/Crowd Fund.sol\":4783:4786  _id */\n      dup5\n        /* \"application_contracts/Crowd Fund.sol\":4800:4803  bal */\n      dup4\n        /* \"application_contracts/Crowd Fund.sol\":4776:4804  Refund(_id, msg.sender, bal) */\n      mload(0x40)\n      tag_69\n      swap3\n      swap2\n      swap1\n      tag_70\n      jump\t// in\n    tag_69:\n      mload(0x40)\n      dup1\n      swap2\n      sub\n      swap1\n      log2\n        /* \"application_contracts/Crowd Fund.sol\":4374:4811  {... */\n      pop\n      pop\n        /* \"application_contracts/Crowd Fund.sol\":4339:4811  function refund(uint _id) external {... */\n      pop\n      jump\t// out\n        /* \"application_contracts/Crowd Fund.sol\":1671:2185  function launch(uint _goal, uint32 _startAt, uint32 _endAt) external {... */\n    tag_30:\n        /* \"application_contracts/Crowd Fund.sol\":1770:1785  block.timestamp */\n      timestamp\n        /* \"application_contracts/Crowd Fund.sol\":1758:1766  _startAt */\n      dup3\n        /* \"application_contracts/Crowd Fund.sol\":1758:1785  _startAt >= block.timestamp */\n      0xffffffff\n      and\n      lt\n      iszero\n        /* \"application_contracts/Crowd Fund.sol\":1750:1804  require(_startAt >= block.timestamp, \"start at < now\") */\n      tag_72\n      jumpi\n      mload(0x40)\n      0x08c379a000000000000000000000000000000000000000000000000000000000\n      dup2\n      mstore\n      0x04\n      add\n      tag_73\n      swap1\n      tag_74\n      jump\t// in\n    tag_73:\n      mload(0x40)\n      dup1\n      swap2\n      sub\n      swap1\n      revert\n    tag_72:\n        /* \"application_contracts/Crowd Fund.sol\":1832:1840  _startAt */\n      dup2\n        /* \"application_contracts/Crowd Fund.sol\":1822:1840  _endAt >= _startAt */\n      0xffffffff\n      and\n        /* \"application_contracts/Crowd Fund.sol\":1822:1828  _endAt */\n      dup2\n        /* \"application_contracts/Crowd Fund.sol\":1822:1840  _endAt >= _startAt */\n      0xffffffff\n      and\n      lt\n      iszero\n        /* \"application_contracts/Crowd Fund.sol\":1814:1862  require(_endAt >= _startAt, \"end at < start at\") */\n      tag_75\n      jumpi\n      mload(0x40)\n      0x08c379a000000000000000000000000000000000000000000000000000000000\n      dup2\n      mstore\n      0x04\n      add\n      tag_76\n      swap1\n      tag_77\n      jump\t// in\n    tag_76:\n      mload(0x40)\n      dup1\n      swap2\n      sub\n      swap1\n      revert\n    tag_75:\n        /* \"application_contracts/Crowd Fund.sol\":1908:1915  90 days */\n      0x76a700\n        /* \"application_contracts/Crowd Fund.sol\":1890:1905  block.timestamp */\n      timestamp\n        /* \"application_contracts/Crowd Fund.sol\":1890:1915  block.timestamp + 90 days */\n      tag_78\n      swap2\n      swap1\n      tag_79\n      jump\t// in\n    tag_78:\n        /* \"application_contracts/Crowd Fund.sol\":1880:1886  _endAt */\n      dup2\n        /* \"application_contracts/Crowd Fund.sol\":1880:1915  _endAt <= block.timestamp + 90 days */\n      0xffffffff\n      and\n      gt\n      iszero\n        /* \"application_contracts/Crowd Fund.sol\":1872:1941  require(_endAt <= block.timestamp + 90 days, \"end at > max duration\") */\n      tag_80\n      jumpi\n      mload(0x40)\n      0x08c379a000000000000000000000000000000000000000000000000000000000\n      dup2\n      mstore\n      0x04\n      add\n      tag_81\n      swap1\n      tag_82\n      jump\t// in\n    tag_81:\n      mload(0x40)\n      dup1\n      swap2\n      sub\n      swap1\n      revert\n    tag_80:\n        /* \"application_contracts/Crowd Fund.sol\":1960:1961  1 */\n      0x01\n        /* \"application_contracts/Crowd Fund.sol\":1951:1956  count */\n      0x00\n      0x00\n        /* \"application_contracts/Crowd Fund.sol\":1951:1961  count += 1 */\n      dup3\n      dup3\n      sload\n      tag_83\n      swap2\n      swap1\n      tag_79\n      jump\t// in\n    tag_83:\n      swap3\n      pop\n      pop\n      dup2\n      swap1\n      sstore\n      pop\n        /* \"application_contracts/Crowd Fund.sol\":1990:2178  Campaign({... */\n      mload(0x40)\n      dup1\n      0xc0\n      add\n      0x40\n      mstore\n      dup1\n        /* \"application_contracts/Crowd Fund.sol\":2022:2032  msg.sender */\n      caller\n        /* \"application_contracts/Crowd Fund.sol\":1990:2178  Campaign({... */\n      0xffffffffffffffffffffffffffffffffffffffff\n      and\n      dup2\n      mstore\n      0x20\n      add\n        /* \"application_contracts/Crowd Fund.sol\":2052:2057  _goal */\n      dup5\n        /* \"application_contracts/Crowd Fund.sol\":1990:2178  Campaign({... */\n      dup2\n      mstore\n      0x20\n      add\n        /* \"application_contracts/Crowd Fund.sol\":2080:2081  0 */\n      0x00\n        /* \"application_contracts/Crowd Fund.sol\":1990:2178  Campaign({... */\n      dup2\n      mstore\n      0x20\n      add\n        /* \"application_contracts/Crowd Fund.sol\":2104:2112  _startAt */\n      dup4\n        /* \"application_contracts/Crowd Fund.sol\":1990:2178  Campaign({... */\n      0xffffffff\n      and\n      dup2\n      mstore\n      0x20\n      add\n        /* \"application_contracts/Crowd Fund.sol\":2133:2139  _endAt */\n      dup3\n        /* \"application_contracts/Crowd Fund.sol\":1990:2178  Campaign({... */\n      0xffffffff\n      and\n      dup2\n      mstore\n      0x20\n      add\n        /* \"application_contracts/Crowd Fund.sol\":2162:2167  false */\n      0x00\n        /* \"application_contracts/Crowd Fund.sol\":1990:2178  Campaign({... */\n      iszero\n      iszero\n      dup2\n      mstore\n      pop\n        /* \"application_contracts/Crowd Fund.sol\":1971:1980  campaigns */\n      0x01\n        /* \"application_contracts/Crowd Fund.sol\":1971:1987  campaigns[count] */\n      0x00\n        /* \"application_contracts/Crowd Fund.sol\":1981:1986  count */\n      sload(0x00)\n        /* \"application_contracts/Crowd Fund.sol\":1971:1987  campaigns[count] */\n      dup2\n      mstore\n      0x20\n      add\n      swap1\n      dup2\n      mstore\n      0x20\n      add\n      0x00\n      keccak256\n        /* \"application_contracts/Crowd Fund.sol\":1971:2178  campaigns[count] = Campaign({... */\n      0x00\n      dup3\n      add\n      mload\n      dup2\n      0x00\n      add\n      exp(0x0100, 0x00)\n      dup2\n      sload\n      dup2\n      0xffffffffffffffffffffffffffffffffffffffff\n      mul\n      not\n      and\n      swap1\n      dup4\n      0xffffffffffffffffffffffffffffffffffffffff\n      and\n      mul\n      or\n      swap1\n      sstore\n      pop\n      0x20\n      dup3\n      add\n      mload\n      dup2\n      0x01\n      add\n      sstore\n      0x40\n      dup3\n      add\n      mload\n      dup2\n      0x02\n      add\n      sstore\n      0x60\n      dup3\n      add\n      mload\n      dup2\n      0x03\n      add\n      exp(0x0100, 0x00)\n      dup2\n      sload\n      dup2\n      0xffffffff\n      mul\n      not\n      and\n      swap1\n      dup4\n      0xffffffff\n      and\n      mul\n      or\n      swap1\n      sstore\n      pop\n      0x80\n      dup3\n      add\n      mload\n      dup2\n      0x03\n      add\n      exp(0x0100, 0x04)\n      dup2\n      sload\n      dup2\n      0xffffffff\n      mul\n      not\n      and\n      swap1\n      dup4\n      0xffffffff\n      and\n      mul\n      or\n      swap1\n      sstore\n      pop\n      0xa0\n      dup3\n      add\n      mload\n      dup2\n      0x03\n      add\n      exp(0x0100, 0x08)\n      dup2\n      sload\n      dup2\n      0xff\n      mul\n      not\n      and\n      swap1\n      dup4\n      iszero\n      iszero\n      mul\n      or\n      swap1\n      sstore\n      pop\n      swap1\n      pop\n      pop\n        /* \"application_contracts/Crowd Fund.sol\":1671:2185  function launch(uint _goal, uint32 _startAt, uint32 _endAt) external {... */\n      pop\n      pop\n      pop\n      jump\t// out\n        /* \"application_contracts/Crowd Fund.sol\":3708:4229  function claim(uint _id) external {... */\n    tag_33:\n        /* \"application_contracts/Crowd Fund.sol\":3752:3776  Campaign memory campaign */\n      0x00\n        /* \"application_contracts/Crowd Fund.sol\":3779:3788  campaigns */\n      0x01\n        /* \"application_contracts/Crowd Fund.sol\":3779:3793  campaigns[_id] */\n      0x00\n        /* \"application_contracts/Crowd Fund.sol\":3789:3792  _id */\n      dup4\n        /* \"application_contracts/Crowd Fund.sol\":3779:3793  campaigns[_id] */\n      dup2\n      mstore\n      0x20\n      add\n      swap1\n      dup2\n      mstore\n      0x20\n      add\n      0x00\n      keccak256\n        /* \"application_contracts/Crowd Fund.sol\":3752:3793  Campaign memory campaign = campaigns[_id] */\n      mload(0x40)\n      dup1\n      0xc0\n      add\n      0x40\n      mstore\n      swap1\n      dup2\n      0x00\n      dup3\n      add\n      0x00\n      swap1\n      sload\n      swap1\n      0x0100\n      exp\n      swap1\n      div\n      0xffffffffffffffffffffffffffffffffffffffff\n      and\n      0xffffffffffffffffffffffffffffffffffffffff\n      and\n      0xffffffffffffffffffffffffffffffffffffffff\n      and\n      dup2\n      mstore\n      0x20\n      add\n      0x01\n      dup3\n      add\n      sload\n      dup2\n      mstore\n      0x20\n      add\n      0x02\n      dup3\n      add\n      sload\n      dup2\n      mstore\n      0x20\n      add\n      0x03\n      dup3\n      add\n      0x00\n      swap1\n      sload\n      swap1\n      0x0100\n      exp\n      swap1\n      div\n      0xffffffff\n      and\n      0xffffffff\n      and\n      0xffffffff\n      and\n      dup2\n      mstore\n      0x20\n      add\n      0x03\n      dup3\n      add\n      0x04\n      swap1\n      sload\n      swap1\n      0x0100\n      exp\n      swap1\n      div\n      0xffffffff\n      and\n      0xffffffff\n      and\n      0xffffffff\n      and\n      dup2\n      mstore\n      0x20\n      add\n      0x03\n      dup3\n      add\n      0x08\n      swap1\n      sload\n      swap1\n      0x0100\n      exp\n      swap1\n      div\n      0xff\n      and\n      iszero\n      iszero\n      iszero\n      iszero\n      dup2\n      mstore\n      pop\n      pop\n      swap1\n      pop\n        /* \"application_contracts/Crowd Fund.sol\":3830:3838  campaign */\n      dup1\n        /* \"application_contracts/Crowd Fund.sol\":3830:3846  campaign.startAt */\n      0x60\n      add\n      mload\n        /* \"application_contracts/Crowd Fund.sol\":3811:3846  block.timestamp >= campaign.startAt */\n      0xffffffff\n      and\n        /* \"application_contracts/Crowd Fund.sol\":3811:3826  block.timestamp */\n      timestamp\n        /* \"application_contracts/Crowd Fund.sol\":3811:3846  block.timestamp >= campaign.startAt */\n      lt\n      iszero\n        /* \"application_contracts/Crowd Fund.sol\":3803:3862  require(block.timestamp >= campaign.startAt, \"not started\") */\n      tag_85\n      jumpi\n      mload(0x40)\n      0x08c379a000000000000000000000000000000000000000000000000000000000\n      dup2\n      mstore\n      0x04\n      add\n      tag_86\n      swap1\n      tag_56\n      jump\t// in\n    tag_86:\n      mload(0x40)\n      dup1\n      swap2\n      sub\n      swap1\n      revert\n    tag_85:\n        /* \"application_contracts/Crowd Fund.sol\":3899:3907  campaign */\n      dup1\n        /* \"application_contracts/Crowd Fund.sol\":3899:3913  campaign.endAt */\n      0x80\n      add\n      mload\n        /* \"application_contracts/Crowd Fund.sol\":3880:3913  block.timestamp <= campaign.endAt */\n      0xffffffff\n      and\n        /* \"application_contracts/Crowd Fund.sol\":3880:3895  block.timestamp */\n      timestamp\n        /* \"application_contracts/Crowd Fund.sol\":3880:3913  block.timestamp <= campaign.endAt */\n      gt\n      iszero\n        /* \"application_contracts/Crowd Fund.sol\":3872:3923  require(block.timestamp <= campaign.endAt, \"ended\") */\n      tag_87\n      jumpi\n      mload(0x40)\n      0x08c379a000000000000000000000000000000000000000000000000000000000\n      dup2\n      mstore\n      0x04\n      add\n      tag_88\n      swap1\n      tag_59\n      jump\t// in\n    tag_88:\n      mload(0x40)\n      dup1\n      swap2\n      sub\n      swap1\n      revert\n    tag_87:\n        /* \"application_contracts/Crowd Fund.sol\":3961:3971  msg.sender */\n      caller\n        /* \"application_contracts/Crowd Fund.sol\":3941:3971  campaign.creator == msg.sender */\n      0xffffffffffffffffffffffffffffffffffffffff\n      and\n        /* \"application_contracts/Crowd Fund.sol\":3941:3949  campaign */\n      dup2\n        /* \"application_contracts/Crowd Fund.sol\":3941:3957  campaign.creator */\n      0x00\n      add\n      mload\n        /* \"application_contracts/Crowd Fund.sol\":3941:3971  campaign.creator == msg.sender */\n      0xffffffffffffffffffffffffffffffffffffffff\n      and\n      eq\n        /* \"application_contracts/Crowd Fund.sol\":3933:3987  require(campaign.creator == msg.sender, \"not creator\") */\n      tag_89\n      jumpi\n      mload(0x40)\n      0x08c379a000000000000000000000000000000000000000000000000000000000\n      dup2\n      mstore\n      0x04\n      add\n      tag_90\n      swap1\n      tag_91\n      jump\t// in\n    tag_90:\n      mload(0x40)\n      dup1\n      swap2\n      sub\n      swap1\n      revert\n    tag_89:\n        /* \"application_contracts/Crowd Fund.sol\":4025:4033  campaign */\n      dup1\n        /* \"application_contracts/Crowd Fund.sol\":4025:4038  campaign.goal */\n      0x20\n      add\n      mload\n        /* \"application_contracts/Crowd Fund.sol\":4005:4013  campaign */\n      dup2\n        /* \"application_contracts/Crowd Fund.sol\":4005:4021  campaign.pledged */\n      0x40\n      add\n      mload\n        /* \"application_contracts/Crowd Fund.sol\":4005:4038  campaign.pledged >= campaign.goal */\n      lt\n      iszero\n        /* \"application_contracts/Crowd Fund.sol\":3997:4057  require(campaign.pledged >= campaign.goal, \"pledged < goal\") */\n      tag_92\n      jumpi\n      mload(0x40)\n      0x08c379a000000000000000000000000000000000000000000000000000000000\n      dup2\n      mstore\n      0x04\n      add\n      tag_93\n      swap1\n      tag_62\n      jump\t// in\n    tag_93:\n      mload(0x40)\n      dup1\n      swap2\n      sub\n      swap1\n      revert\n    tag_92:\n        /* \"application_contracts/Crowd Fund.sol\":4076:4084  campaign */\n      dup1\n        /* \"application_contracts/Crowd Fund.sol\":4076:4092  campaign.claimed */\n      0xa0\n      add\n      mload\n        /* \"application_contracts/Crowd Fund.sol\":4075:4092  !campaign.claimed */\n      iszero\n        /* \"application_contracts/Crowd Fund.sol\":4067:4104  require(!campaign.claimed, \"claimed\") */\n      tag_94\n      jumpi\n      mload(0x40)\n      0x08c379a000000000000000000000000000000000000000000000000000000000\n      dup2\n      mstore\n      0x04\n      add\n      tag_95\n      swap1\n      tag_96\n      jump\t// in\n    tag_95:\n      mload(0x40)\n      dup1\n      swap2\n      sub\n      swap1\n      revert\n    tag_94:\n        /* \"application_contracts/Crowd Fund.sol\":4133:4137  true */\n      0x01\n        /* \"application_contracts/Crowd Fund.sol\":4114:4122  campaign */\n      dup2\n        /* \"application_contracts/Crowd Fund.sol\":4114:4130  campaign.claimed */\n      0xa0\n      add\n        /* \"application_contracts/Crowd Fund.sol\":4114:4137  campaign.claimed = true */\n      swap1\n      iszero\n      iszero\n      swap1\n      dup2\n      iszero\n      iszero\n      dup2\n      mstore\n      pop\n      pop\n        /* \"application_contracts/Crowd Fund.sol\":4147:4152  token */\n      immutable(\"0xd9670a00d025e59e1bd58d53874bea4ab34fea782716e2c168e89a3c8452d3bb\")\n        /* \"application_contracts/Crowd Fund.sol\":4147:4161  token.transfer */\n      0xffffffffffffffffffffffffffffffffffffffff\n      and\n      0xa9059cbb\n        /* \"application_contracts/Crowd Fund.sol\":4162:4170  campaign */\n      dup3\n        /* \"application_contracts/Crowd Fund.sol\":4162:4178  campaign.creator */\n      0x00\n      add\n      mload\n        /* \"application_contracts/Crowd Fund.sol\":4180:4188  campaign */\n      dup4\n        /* \"application_contracts/Crowd Fund.sol\":4180:4196  campaign.pledged */\n      0x40\n      add\n      mload\n        /* \"application_contracts/Crowd Fund.sol\":4147:4197  token.transfer(campaign.creator, campaign.pledged) */\n      mload(0x40)\n      dup4\n      0xffffffff\n      and\n      0xe0\n      shl\n      dup2\n      mstore\n      0x04\n      add\n      tag_97\n      swap3\n      swap2\n      swap1\n      tag_64\n      jump\t// in\n    tag_97:\n      0x20\n      mload(0x40)\n      dup1\n      dup4\n      sub\n      dup2\n      0x00\n      dup8\n      gas\n      call\n      iszero\n      dup1\n      iszero\n      tag_99\n      jumpi\n      returndatacopy(0x00, 0x00, returndatasize)\n      revert(0x00, returndatasize)\n    tag_99:\n      pop\n      pop\n      pop\n      pop\n      mload(0x40)\n      returndatasize\n      not(0x1f)\n      0x1f\n      dup3\n      add\n      and\n      dup3\n      add\n      dup1\n      0x40\n      mstore\n      pop\n      dup2\n      add\n      swap1\n      tag_100\n      swap2\n      swap1\n      tag_68\n      jump\t// in\n    tag_100:\n      pop\n        /* \"application_contracts/Crowd Fund.sol\":4212:4222  Claim(_id) */\n      0x7bb2b3c10797baccb6f8c4791f1edd6ca2f0d028ee0eda64b01a9a57e3a653f7\n        /* \"application_contracts/Crowd Fund.sol\":4218:4221  _id */\n      dup3\n        /* \"application_contracts/Crowd Fund.sol\":4212:4222  Claim(_id) */\n      mload(0x40)\n      tag_101\n      swap2\n      swap1\n      tag_17\n      jump\t// in\n    tag_101:\n      mload(0x40)\n      dup1\n      swap2\n      sub\n      swap1\n      log1\n        /* \"application_contracts/Crowd Fund.sol\":3742:4229  {... */\n      pop\n        /* \"application_contracts/Crowd Fund.sol\":3708:4229  function claim(uint _id) external {... */\n      pop\n      jump\t// out\n        /* \"application_contracts/Crowd Fund.sol\":2280:2558  function cancel(uint _id) external {... */\n    tag_36:\n        /* \"application_contracts/Crowd Fund.sol\":2325:2349  Campaign memory campaign */\n      0x00\n        /* \"application_contracts/Crowd Fund.sol\":2352:2361  campaigns */\n      0x01\n        /* \"application_contracts/Crowd Fund.sol\":2352:2366  campaigns[_id] */\n      0x00\n        /* \"application_contracts/Crowd Fund.sol\":2362:2365  _id */\n      dup4\n        /* \"application_contracts/Crowd Fund.sol\":2352:2366  campaigns[_id] */\n      dup2\n      mstore\n      0x20\n      add\n      swap1\n      dup2\n      mstore\n      0x20\n      add\n      0x00\n      keccak256\n        /* \"application_contracts/Crowd Fund.sol\":2325:2366  Campaign memory campaign = campaigns[_id] */\n      mload(0x40)\n      dup1\n      0xc0\n      add\n      0x40\n      mstore\n      swap1\n      dup2\n      0x00\n      dup3\n      add\n      0x00\n      swap1\n      sload\n      swap1\n      0x0100\n      exp\n      swap1\n      div\n      0xffffffffffffffffffffffffffffffffffffffff\n      and\n      0xffffffffffffffffffffffffffffffffffffffff\n      and\n      0xffffffffffffffffffffffffffffffffffffffff\n      and\n      dup2\n      mstore\n      0x20\n      add\n      0x01\n      dup3\n      add\n      sload\n      dup2\n      mstore\n      0x20\n      add\n      0x02\n      dup3\n      add\n      sload\n      dup2\n      mstore\n      0x20\n      add\n      0x03\n      dup3\n      add\n      0x00\n      swap1\n      sload\n      swap1\n      0x0100\n      exp\n      swap1\n      div\n      0xffffffff\n      and\n      0xffffffff\n      and\n      0xffffffff\n      and\n      dup2\n      mstore\n      0x20\n      add\n      0x03\n      dup3\n      add\n      0x04\n      swap1\n      sload\n      swap1\n      0x0100\n      exp\n      swap1\n      div\n      0xffffffff\n      and\n      0xffffffff\n      and\n      0xffffffff\n      and\n      dup2\n      mstore\n      0x20\n      add\n      0x03\n      dup3\n      add\n      0x08\n      swap1\n      sload\n      swap1\n      0x0100\n      exp\n      swap1\n      div\n      0xff\n      and\n      iszero\n      iszero\n      iszero\n      iszero\n      dup2\n      mstore\n      pop\n      pop\n      swap1\n      pop\n        /* \"application_contracts/Crowd Fund.sol\":2404:2414  msg.sender */\n      caller\n        /* \"application_contracts/Crowd Fund.sol\":2384:2414  campaign.creator == msg.sender */\n      0xffffffffffffffffffffffffffffffffffffffff\n      and\n        /* \"application_contracts/Crowd Fund.sol\":2384:2392  campaign */\n      dup2\n        /* \"application_contracts/Crowd Fund.sol\":2384:2400  campaign.creator */\n      0x00\n      add\n      mload\n        /* \"application_contracts/Crowd Fund.sol\":2384:2414  campaign.creator == msg.sender */\n      0xffffffffffffffffffffffffffffffffffffffff\n      and\n      eq\n        /* \"application_contracts/Crowd Fund.sol\":2376:2430  require(campaign.creator == msg.sender, \"not creator\") */\n      tag_103\n      jumpi\n      mload(0x40)\n      0x08c379a000000000000000000000000000000000000000000000000000000000\n      dup2\n      mstore\n      0x04\n      add\n      tag_104\n      swap1\n      tag_91\n      jump\t// in\n    tag_104:\n      mload(0x40)\n      dup1\n      swap2\n      sub\n      swap1\n      revert\n    tag_103:\n        /* \"application_contracts/Crowd Fund.sol\":2466:2474  campaign */\n      dup1\n        /* \"application_contracts/Crowd Fund.sol\":2466:2482  campaign.startAt */\n      0x60\n      add\n      mload\n        /* \"application_contracts/Crowd Fund.sol\":2448:2482  block.timestamp < campaign.startAt */\n      0xffffffff\n      and\n        /* \"application_contracts/Crowd Fund.sol\":2448:2463  block.timestamp */\n      timestamp\n        /* \"application_contracts/Crowd Fund.sol\":2448:2482  block.timestamp < campaign.startAt */\n      lt\n        /* \"application_contracts/Crowd Fund.sol\":2440:2494  require(block.timestamp < campaign.startAt, \"started\") */\n      tag_105\n      jumpi\n      mload(0x40)\n      0x08c379a000000000000000000000000000000000000000000000000000000000\n      dup2\n      mstore\n      0x04\n      add\n      tag_106\n      swap1\n      tag_107\n      jump\t// in\n    tag_106:\n      mload(0x40)\n      dup1\n      swap2\n      sub\n      swap1\n      revert\n    tag_105:\n        /* \"application_contracts/Crowd Fund.sol\":2511:2520  campaigns */\n      0x01\n        /* \"application_contracts/Crowd Fund.sol\":2511:2525  campaigns[_id] */\n      0x00\n        /* \"application_contracts/Crowd Fund.sol\":2521:2524  _id */\n      dup4\n        /* \"application_contracts/Crowd Fund.sol\":2511:2525  campaigns[_id] */\n      dup2\n      mstore\n      0x20\n      add\n      swap1\n      dup2\n      mstore\n      0x20\n      add\n      0x00\n      keccak256\n      0x00\n        /* \"application_contracts/Crowd Fund.sol\":2504:2525  delete campaigns[_id] */\n      0x00\n      dup3\n      add\n      exp(0x0100, 0x00)\n      dup2\n      sload\n      swap1\n      0xffffffffffffffffffffffffffffffffffffffff\n      mul\n      not\n      and\n      swap1\n      sstore\n      0x01\n      dup3\n      add\n      0x00\n      swap1\n      sstore\n      0x02\n      dup3\n      add\n      0x00\n      swap1\n      sstore\n      0x03\n      dup3\n      add\n      exp(0x0100, 0x00)\n      dup2\n      sload\n      swap1\n      0xffffffff\n      mul\n      not\n      and\n      swap1\n      sstore\n      0x03\n      dup3\n      add\n      exp(0x0100, 0x04)\n      dup2\n      sload\n      swap1\n      0xffffffff\n      mul\n      not\n      and\n      swap1\n      sstore\n      0x03\n      dup3\n      add\n      exp(0x0100, 0x08)\n      dup2\n      sload\n      swap1\n      0xff\n      mul\n      not\n      and\n      swap1\n      sstore\n      pop\n      pop\n        /* \"application_contracts/Crowd Fund.sol\":2540:2551  Cancel(_id) */\n      0x8bf30e7ff26833413be5f69e1d373744864d600b664204b4a2f9844a8eedb9ed\n        /* \"application_contracts/Crowd Fund.sol\":2547:2550  _id */\n      dup3\n        /* \"application_contracts/Crowd Fund.sol\":2540:2551  Cancel(_id) */\n      mload(0x40)\n      tag_108\n      swap2\n      swap1\n      tag_17\n      jump\t// in\n    tag_108:\n      mload(0x40)\n      dup1\n      swap2\n      sub\n      swap1\n      log1\n        /* \"application_contracts/Crowd Fund.sol\":2315:2558  {... */\n      pop\n        /* \"application_contracts/Crowd Fund.sol\":2280:2558  function cancel(uint _id) external {... */\n      pop\n      jump\t// out\n        /* \"application_contracts/Crowd Fund.sol\":3137:3558  function unpledge(uint _id, uint _amount) external {... */\n    tag_40:\n        /* \"application_contracts/Crowd Fund.sol\":3198:3222  Campaign memory campaign */\n      0x00\n        /* \"application_contracts/Crowd Fund.sol\":3225:3234  campaigns */\n      0x01\n        /* \"application_contracts/Crowd Fund.sol\":3225:3239  campaigns[_id] */\n      0x00\n        /* \"application_contracts/Crowd Fund.sol\":3235:3238  _id */\n      dup5\n        /* \"application_contracts/Crowd Fund.sol\":3225:3239  campaigns[_id] */\n      dup2\n      mstore\n      0x20\n      add\n      swap1\n      dup2\n      mstore\n      0x20\n      add\n      0x00\n      keccak256\n        /* \"application_contracts/Crowd Fund.sol\":3198:3239  Campaign memory campaign = campaigns[_id] */\n      mload(0x40)\n      dup1\n      0xc0\n      add\n      0x40\n      mstore\n      swap1\n      dup2\n      0x00\n      dup3\n      add\n      0x00\n      swap1\n      sload\n      swap1\n      0x0100\n      exp\n      swap1\n      div\n      0xffffffffffffffffffffffffffffffffffffffff\n      and\n      0xffffffffffffffffffffffffffffffffffffffff\n      and\n      0xffffffffffffffffffffffffffffffffffffffff\n      and\n      dup2\n      mstore\n      0x20\n      add\n      0x01\n      dup3\n      add\n      sload\n      dup2\n      mstore\n      0x20\n      add\n      0x02\n      dup3\n      add\n      sload\n      dup2\n      mstore\n      0x20\n      add\n      0x03\n      dup3\n      add\n      0x00\n      swap1\n      sload\n      swap1\n      0x0100\n      exp\n      swap1\n      div\n      0xffffffff\n      and\n      0xffffffff\n      and\n      0xffffffff\n      and\n      dup2\n      mstore\n      0x20\n      add\n      0x03\n      dup3\n      add\n      0x04\n      swap1\n      sload\n      swap1\n      0x0100\n      exp\n      swap1\n      div\n      0xffffffff\n      and\n      0xffffffff\n      and\n      0xffffffff\n      and\n      dup2\n      mstore\n      0x20\n      add\n      0x03\n      dup3\n      add\n      0x08\n      swap1\n      sload\n      swap1\n      0x0100\n      exp\n      swap1\n      div\n      0xff\n      and\n      iszero\n      iszero\n      iszero\n      iszero\n      dup2\n      mstore\n      pop\n      pop\n      swap1\n      pop\n        /* \"application_contracts/Crowd Fund.sol\":3276:3284  campaign */\n      dup1\n        /* \"application_contracts/Crowd Fund.sol\":3276:3292  campaign.startAt */\n      0x60\n      add\n      mload\n        /* \"application_contracts/Crowd Fund.sol\":3257:3292  block.timestamp >= campaign.startAt */\n      0xffffffff\n      and\n        /* \"application_contracts/Crowd Fund.sol\":3257:3272  block.timestamp */\n      timestamp\n        /* \"application_contracts/Crowd Fund.sol\":3257:3292  block.timestamp >= campaign.startAt */\n      lt\n      iszero\n        /* \"application_contracts/Crowd Fund.sol\":3249:3308  require(block.timestamp >= campaign.startAt, \"not started\") */\n      tag_110\n      jumpi\n      mload(0x40)\n      0x08c379a000000000000000000000000000000000000000000000000000000000\n      dup2\n      mstore\n      0x04\n      add\n      tag_111\n      swap1\n      tag_56\n      jump\t// in\n    tag_111:\n      mload(0x40)\n      dup1\n      swap2\n      sub\n      swap1\n      revert\n    tag_110:\n        /* \"application_contracts/Crowd Fund.sol\":3345:3353  campaign */\n      dup1\n        /* \"application_contracts/Crowd Fund.sol\":3345:3359  campaign.endAt */\n      0x80\n      add\n      mload\n        /* \"application_contracts/Crowd Fund.sol\":3326:3359  block.timestamp <= campaign.endAt */\n      0xffffffff\n      and\n        /* \"application_contracts/Crowd Fund.sol\":3326:3341  block.timestamp */\n      timestamp\n        /* \"application_contracts/Crowd Fund.sol\":3326:3359  block.timestamp <= campaign.endAt */\n      gt\n      iszero\n        /* \"application_contracts/Crowd Fund.sol\":3318:3369  require(block.timestamp <= campaign.endAt, \"ended\") */\n      tag_112\n      jumpi\n      mload(0x40)\n      0x08c379a000000000000000000000000000000000000000000000000000000000\n      dup2\n      mstore\n      0x04\n      add\n      tag_113\n      swap1\n      tag_59\n      jump\t// in\n    tag_113:\n      mload(0x40)\n      dup1\n      swap2\n      sub\n      swap1\n      revert\n    tag_112:\n        /* \"application_contracts/Crowd Fund.sol\":3399:3406  _amount */\n      dup2\n        /* \"application_contracts/Crowd Fund.sol\":3379:3387  campaign */\n      dup2\n        /* \"application_contracts/Crowd Fund.sol\":3379:3395  campaign.pledged */\n      0x40\n      add\n        /* \"application_contracts/Crowd Fund.sol\":3379:3406  campaign.pledged -= _amount */\n      dup2\n      dup2\n      mload\n      tag_114\n      swap2\n      swap1\n      tag_115\n      jump\t// in\n    tag_114:\n      swap2\n      pop\n      dup2\n      dup2\n      mstore\n      pop\n      pop\n        /* \"application_contracts/Crowd Fund.sol\":3450:3457  _amount */\n      dup2\n        /* \"application_contracts/Crowd Fund.sol\":3416:3429  pledgedAmount */\n      0x02\n        /* \"application_contracts/Crowd Fund.sol\":3416:3434  pledgedAmount[_id] */\n      0x00\n        /* \"application_contracts/Crowd Fund.sol\":3430:3433  _id */\n      dup6\n        /* \"application_contracts/Crowd Fund.sol\":3416:3434  pledgedAmount[_id] */\n      dup2\n      mstore\n      0x20\n      add\n      swap1\n      dup2\n      mstore\n      0x20\n      add\n      0x00\n      keccak256\n        /* \"application_contracts/Crowd Fund.sol\":3416:3446  pledgedAmount[_id][msg.sender] */\n      0x00\n        /* \"application_contracts/Crowd Fund.sol\":3435:3445  msg.sender */\n      caller\n        /* \"application_contracts/Crowd Fund.sol\":3416:3446  pledgedAmount[_id][msg.sender] */\n      0xffffffffffffffffffffffffffffffffffffffff\n      and\n      0xffffffffffffffffffffffffffffffffffffffff\n      and\n      dup2\n      mstore\n      0x20\n      add\n      swap1\n      dup2\n      mstore\n      0x20\n      add\n      0x00\n      keccak256\n      0x00\n        /* \"application_contracts/Crowd Fund.sol\":3416:3457  pledgedAmount[_id][msg.sender] -= _amount */\n      dup3\n      dup3\n      sload\n      tag_116\n      swap2\n      swap1\n      tag_115\n      jump\t// in\n    tag_116:\n      swap3\n      pop\n      pop\n      dup2\n      swap1\n      sstore\n      pop\n        /* \"application_contracts/Crowd Fund.sol\":3467:3472  token */\n      immutable(\"0xd9670a00d025e59e1bd58d53874bea4ab34fea782716e2c168e89a3c8452d3bb\")\n        /* \"application_contracts/Crowd Fund.sol\":3467:3481  token.transfer */\n      0xffffffffffffffffffffffffffffffffffffffff\n      and\n      0xa9059cbb\n        /* \"application_contracts/Crowd Fund.sol\":3482:3492  msg.sender */\n      caller\n        /* \"application_contracts/Crowd Fund.sol\":3494:3501  _amount */\n      dup5\n        /* \"application_contracts/Crowd Fund.sol\":3467:3502  token.transfer(msg.sender, _amount) */\n      mload(0x40)\n      dup4\n      0xffffffff\n      and\n      0xe0\n      shl\n      dup2\n      mstore\n      0x04\n      add\n      tag_117\n      swap3\n      swap2\n      swap1\n      tag_64\n      jump\t// in\n    tag_117:\n      0x20\n      mload(0x40)\n      dup1\n      dup4\n      sub\n      dup2\n      0x00\n      dup8\n      gas\n      call\n      iszero\n      dup1\n      iszero\n      tag_119\n      jumpi\n      returndatacopy(0x00, 0x00, returndatasize)\n      revert(0x00, returndatasize)\n    tag_119:\n      pop\n      pop\n      pop\n      pop\n      mload(0x40)\n      returndatasize\n      not(0x1f)\n      0x1f\n      dup3\n      add\n      and\n      dup3\n      add\n      dup1\n      0x40\n      mstore\n      pop\n      dup2\n      add\n      swap1\n      tag_120\n      swap2\n      swap1\n      tag_68\n      jump\t// in\n    tag_120:\n      pop\n        /* \"application_contracts/Crowd Fund.sol\":3531:3541  msg.sender */\n      caller\n        /* \"application_contracts/Crowd Fund.sol\":3517:3551  Unpledge(_id, msg.sender, _amount) */\n      0xffffffffffffffffffffffffffffffffffffffff\n      and\n        /* \"application_contracts/Crowd Fund.sol\":3526:3529  _id */\n      dup4\n        /* \"application_contracts/Crowd Fund.sol\":3517:3551  Unpledge(_id, msg.sender, _amount) */\n      0x2eeeab891b26a214d1b25749f88a406bdea852bd8c9bfda977e0ef8114c180ba\n        /* \"application_contracts/Crowd Fund.sol\":3543:3550  _amount */\n      dup5\n        /* \"application_contracts/Crowd Fund.sol\":3517:3551  Unpledge(_id, msg.sender, _amount) */\n      mload(0x40)\n      tag_121\n      swap2\n      swap1\n      tag_17\n      jump\t// in\n    tag_121:\n      mload(0x40)\n      dup1\n      swap2\n      sub\n      swap1\n      log3\n        /* \"application_contracts/Crowd Fund.sol\":3188:3558  {... */\n      pop\n        /* \"application_contracts/Crowd Fund.sol\":3137:3558  function unpledge(uint _id, uint _amount) external {... */\n      pop\n      pop\n      jump\t// out\n        /* \"application_contracts/Crowd Fund.sol\":1435:1497  mapping(uint => mapping(address => uint)) public pledgedAmount */\n    tag_44:\n      mstore(0x20, 0x02)\n      dup2\n      0x00\n      mstore\n      mstore(0x20, keccak256(0x00, 0x40))\n      dup1\n      0x00\n      mstore\n      keccak256(0x00, 0x40)\n      0x00\n      swap2\n      pop\n      swap2\n      pop\n      pop\n      sload\n      dup2\n      jump\t// out\n        /* \"application_contracts/Crowd Fund.sol\":1202:1231  IERC20 public immutable token */\n    tag_47:\n      immutable(\"0xd9670a00d025e59e1bd58d53874bea4ab34fea782716e2c168e89a3c8452d3bb\")\n      dup2\n      jump\t// out\n        /* \"application_contracts/Crowd Fund.sol\":2634:3070  function pledge(uint _id, uint _amount) external {... */\n    tag_52:\n        /* \"application_contracts/Crowd Fund.sol\":2693:2717  Campaign memory campaign */\n      0x00\n        /* \"application_contracts/Crowd Fund.sol\":2720:2729  campaigns */\n      0x01\n        /* \"application_contracts/Crowd Fund.sol\":2720:2734  campaigns[_id] */\n      0x00\n        /* \"application_contracts/Crowd Fund.sol\":2730:2733  _id */\n      dup5\n        /* \"application_contracts/Crowd Fund.sol\":2720:2734  campaigns[_id] */\n      dup2\n      mstore\n      0x20\n      add\n      swap1\n      dup2\n      mstore\n      0x20\n      add\n      0x00\n      keccak256\n        /* \"application_contracts/Crowd Fund.sol\":2693:2734  Campaign memory campaign = campaigns[_id] */\n      mload(0x40)\n      dup1\n      0xc0\n      add\n      0x40\n      mstore\n      swap1\n      dup2\n      0x00\n      dup3\n      add\n      0x00\n      swap1\n      sload\n      swap1\n      0x0100\n      exp\n      swap1\n      div\n      0xffffffffffffffffffffffffffffffffffffffff\n      and\n      0xffffffffffffffffffffffffffffffffffffffff\n      and\n      0xffffffffffffffffffffffffffffffffffffffff\n      and\n      dup2\n      mstore\n      0x20\n      add\n      0x01\n      dup3\n      add\n      sload\n      dup2\n      mstore\n      0x20\n      add\n      0x02\n      dup3\n      add\n      sload\n      dup2\n      mstore\n      0x20\n      add\n      0x03\n      dup3\n      add\n      0x00\n      swap1\n      sload\n      swap1\n      0x0100\n      exp\n      swap1\n      div\n      0xffffffff\n      and\n      0xffffffff\n      and\n      0xffffffff\n      and\n      dup2\n      mstore\n      0x20\n      add\n      0x03\n      dup3\n      add\n      0x04\n      swap1\n      sload\n      swap1\n      0x0100\n      exp\n      swap1\n      div\n      0xffffffff\n      and\n      0xffffffff\n      and\n      0xffffffff\n      and\n      dup2\n      mstore\n      0x20\n      add\n      0x03\n      dup3\n      add\n      0x08\n      swap1\n      sload\n      swap1\n      0x0100\n      exp\n      swap1\n      div\n      0xff\n      and\n      iszero\n      iszero\n      iszero\n      iszero\n      dup2\n      mstore\n      pop\n      pop\n      swap1\n      pop\n        /* \"application_contracts/Crowd Fund.sol\":2771:2779  campaign */\n      dup1\n        /* \"application_contracts/Crowd Fund.sol\":2771:2787  campaign.startAt */\n      0x60\n      add\n      mload\n        /* \"application_contracts/Crowd Fund.sol\":2752:2787  block.timestamp >= campaign.startAt */\n      0xffffffff\n      and\n        /* \"application_contracts/Crowd Fund.sol\":2752:2767  block.timestamp */\n      timestamp\n        /* \"application_contracts/Crowd Fund.sol\":2752:2787  block.timestamp >= campaign.startAt */\n      lt\n      iszero\n        /* \"application_contracts/Crowd Fund.sol\":2744:2803  require(block.timestamp >= campaign.startAt, \"not started\") */\n      tag_123\n      jumpi\n      mload(0x40)\n      0x08c379a000000000000000000000000000000000000000000000000000000000\n      dup2\n      mstore\n      0x04\n      add\n      tag_124\n      swap1\n      tag_56\n      jump\t// in\n    tag_124:\n      mload(0x40)\n      dup1\n      swap2\n      sub\n      swap1\n      revert\n    tag_123:\n        /* \"application_contracts/Crowd Fund.sol\":2840:2848  campaign */\n      dup1\n        /* \"application_contracts/Crowd Fund.sol\":2840:2854  campaign.endAt */\n      0x80\n      add\n      mload\n        /* \"application_contracts/Crowd Fund.sol\":2821:2854  block.timestamp <= campaign.endAt */\n      0xffffffff\n      and\n        /* \"application_contracts/Crowd Fund.sol\":2821:2836  block.timestamp */\n      timestamp\n        /* \"application_contracts/Crowd Fund.sol\":2821:2854  block.timestamp <= campaign.endAt */\n      gt\n      iszero\n        /* \"application_contracts/Crowd Fund.sol\":2813:2864  require(block.timestamp <= campaign.endAt, \"ended\") */\n      tag_125\n      jumpi\n      mload(0x40)\n      0x08c379a000000000000000000000000000000000000000000000000000000000\n      dup2\n      mstore\n      0x04\n      add\n      tag_126\n      swap1\n      tag_59\n      jump\t// in\n    tag_126:\n      mload(0x40)\n      dup1\n      swap2\n      sub\n      swap1\n      revert\n    tag_125:\n        /* \"application_contracts/Crowd Fund.sol\":2894:2901  _amount */\n      dup2\n        /* \"application_contracts/Crowd Fund.sol\":2874:2882  campaign */\n      dup2\n        /* \"application_contracts/Crowd Fund.sol\":2874:2890  campaign.pledged */\n      0x40\n      add\n        /* \"application_contracts/Crowd Fund.sol\":2874:2901  campaign.pledged += _amount */\n      dup2\n      dup2\n      mload\n      tag_127\n      swap2\n      swap1\n      tag_79\n      jump\t// in\n    tag_127:\n      swap2\n      pop\n      dup2\n      dup2\n      mstore\n      pop\n      pop\n        /* \"application_contracts/Crowd Fund.sol\":2945:2952  _amount */\n      dup2\n        /* \"application_contracts/Crowd Fund.sol\":2911:2924  pledgedAmount */\n      0x02\n        /* \"application_contracts/Crowd Fund.sol\":2911:2929  pledgedAmount[_id] */\n      0x00\n        /* \"application_contracts/Crowd Fund.sol\":2925:2928  _id */\n      dup6\n        /* \"application_contracts/Crowd Fund.sol\":2911:2929  pledgedAmount[_id] */\n      dup2\n      mstore\n      0x20\n      add\n      swap1\n      dup2\n      mstore\n      0x20\n      add\n      0x00\n      keccak256\n        /* \"application_contracts/Crowd Fund.sol\":2911:2941  pledgedAmount[_id][msg.sender] */\n      0x00\n        /* \"application_contracts/Crowd Fund.sol\":2930:2940  msg.sender */\n      caller\n        /* \"application_contracts/Crowd Fund.sol\":2911:2941  pledgedAmount[_id][msg.sender] */\n      0xffffffffffffffffffffffffffffffffffffffff\n      and\n      0xffffffffffffffffffffffffffffffffffffffff\n      and\n      dup2\n      mstore\n      0x20\n      add\n      swap1\n      dup2\n      mstore\n      0x20\n      add\n      0x00\n      keccak256\n      0x00\n        /* \"application_contracts/Crowd Fund.sol\":2911:2952  pledgedAmount[_id][msg.sender] += _amount */\n      dup3\n      dup3\n      sload\n      tag_128\n      swap2\n      swap1\n      tag_79\n      jump\t// in\n    tag_128:\n      swap3\n      pop\n      pop\n      dup2\n      swap1\n      sstore\n      pop\n        /* \"application_contracts/Crowd Fund.sol\":2962:2967  token */\n      immutable(\"0xd9670a00d025e59e1bd58d53874bea4ab34fea782716e2c168e89a3c8452d3bb\")\n        /* \"application_contracts/Crowd Fund.sol\":2962:2980  token.transferFrom */\n      0xffffffffffffffffffffffffffffffffffffffff\n      and\n      0x23b872dd\n        /* \"application_contracts/Crowd Fund.sol\":2981:2991  msg.sender */\n      caller\n        /* \"application_contracts/Crowd Fund.sol\":3001:3005  this */\n      address\n        /* \"application_contracts/Crowd Fund.sol\":3008:3015  _amount */\n      dup6\n        /* \"application_contracts/Crowd Fund.sol\":2962:3016  token.transferFrom(msg.sender, address(this), _amount) */\n      mload(0x40)\n      dup5\n      0xffffffff\n      and\n      0xe0\n      shl\n      dup2\n      mstore\n      0x04\n      add\n      tag_129\n      swap4\n      swap3\n      swap2\n      swap1\n      tag_130\n      jump\t// in\n    tag_129:\n      0x20\n      mload(0x40)\n      dup1\n      dup4\n      sub\n      dup2\n      0x00\n      dup8\n      gas\n      call\n      iszero\n      dup1\n      iszero\n      tag_132\n      jumpi\n      returndatacopy(0x00, 0x00, returndatasize)\n      revert(0x00, returndatasize)\n    tag_132:\n      pop\n      pop\n      pop\n      pop\n      mload(0x40)\n      returndatasize\n      not(0x1f)\n      0x1f\n      dup3\n      add\n      and\n      dup3\n      add\n      dup1\n      0x40\n      mstore\n      pop\n      dup2\n      add\n      swap1\n      tag_133\n      swap2\n      swap1\n      tag_68\n      jump\t// in\n    tag_133:\n      pop\n        /* \"application_contracts/Crowd Fund.sol\":3043:3053  msg.sender */\n      caller\n        /* \"application_contracts/Crowd Fund.sol\":3031:3063  Pledge(_id, msg.sender, _amount) */\n      0xffffffffffffffffffffffffffffffffffffffff\n      and\n        /* \"application_contracts/Crowd Fund.sol\":3038:3041  _id */\n      dup4\n        /* \"application_contracts/Crowd Fund.sol\":3031:3063  Pledge(_id, msg.sender, _amount) */\n      0x06bdb975df800a73232998e71ed585d536222f1dfeaa622d7f62a23ada686c82\n        /* \"application_contracts/Crowd Fund.sol\":3055:3062  _amount */\n      dup5\n        /* \"application_contracts/Crowd Fund.sol\":3031:3063  Pledge(_id, msg.sender, _amount) */\n      mload(0x40)\n      tag_134\n      swap2\n      swap1\n      tag_17\n      jump\t// in\n    tag_134:\n      mload(0x40)\n      dup1\n      swap2\n      sub\n      swap1\n      log3\n        /* \"application_contracts/Crowd Fund.sol\":2683:3070  {... */\n      pop\n        /* \"application_contracts/Crowd Fund.sol\":2634:3070  function pledge(uint _id, uint _amount) external {... */\n      pop\n      pop\n      jump\t// out\n        /* \"#utility.yul\":7:84   */\n    tag_135:\n        /* \"#utility.yul\":44:51   */\n      0x00\n        /* \"#utility.yul\":73:78   */\n      dup2\n        /* \"#utility.yul\":62:78   */\n      swap1\n      pop\n        /* \"#utility.yul\":7:84   */\n      swap2\n      swap1\n      pop\n      jump\t// out\n        /* \"#utility.yul\":90:208   */\n    tag_136:\n        /* \"#utility.yul\":177:201   */\n      tag_183\n        /* \"#utility.yul\":195:200   */\n      dup2\n        /* \"#utility.yul\":177:201   */\n      tag_135\n      jump\t// in\n    tag_183:\n        /* \"#utility.yul\":172:175   */\n      dup3\n        /* \"#utility.yul\":165:202   */\n      mstore\n        /* \"#utility.yul\":90:208   */\n      pop\n      pop\n      jump\t// out\n        /* \"#utility.yul\":214:436   */\n    tag_17:\n        /* \"#utility.yul\":307:311   */\n      0x00\n        /* \"#utility.yul\":345:347   */\n      0x20\n        /* \"#utility.yul\":334:343   */\n      dup3\n        /* \"#utility.yul\":330:348   */\n      add\n        /* \"#utility.yul\":322:348   */\n      swap1\n      pop\n        /* \"#utility.yul\":358:429   */\n      tag_185\n        /* \"#utility.yul\":426:427   */\n      0x00\n        /* \"#utility.yul\":415:424   */\n      dup4\n        /* \"#utility.yul\":411:428   */\n      add\n        /* \"#utility.yul\":402:408   */\n      dup5\n        /* \"#utility.yul\":358:429   */\n      tag_136\n      jump\t// in\n    tag_185:\n        /* \"#utility.yul\":214:436   */\n      swap3\n      swap2\n      pop\n      pop\n      jump\t// out\n        /* \"#utility.yul\":523:640   */\n    tag_138:\n        /* \"#utility.yul\":632:633   */\n      0x00\n        /* \"#utility.yul\":629:630   */\n      0x00\n        /* \"#utility.yul\":622:634   */\n      revert\n        /* \"#utility.yul\":769:891   */\n    tag_140:\n        /* \"#utility.yul\":842:866   */\n      tag_190\n        /* \"#utility.yul\":860:865   */\n      dup2\n        /* \"#utility.yul\":842:866   */\n      tag_135\n      jump\t// in\n    tag_190:\n        /* \"#utility.yul\":835:840   */\n      dup2\n        /* \"#utility.yul\":832:867   */\n      eq\n        /* \"#utility.yul\":822:885   */\n      tag_191\n      jumpi\n        /* \"#utility.yul\":881:882   */\n      0x00\n        /* \"#utility.yul\":878:879   */\n      0x00\n        /* \"#utility.yul\":871:883   */\n      revert\n        /* \"#utility.yul\":822:885   */\n    tag_191:\n        /* \"#utility.yul\":769:891   */\n      pop\n      jump\t// out\n        /* \"#utility.yul\":897:1036   */\n    tag_141:\n        /* \"#utility.yul\":943:948   */\n      0x00\n        /* \"#utility.yul\":981:987   */\n      dup2\n        /* \"#utility.yul\":968:988   */\n      calldataload\n        /* \"#utility.yul\":959:988   */\n      swap1\n      pop\n        /* \"#utility.yul\":997:1030   */\n      tag_193\n        /* \"#utility.yul\":1024:1029   */\n      dup2\n        /* \"#utility.yul\":997:1030   */\n      tag_140\n      jump\t// in\n    tag_193:\n        /* \"#utility.yul\":897:1036   */\n      swap3\n      swap2\n      pop\n      pop\n      jump\t// out\n        /* \"#utility.yul\":1042:1371   */\n    tag_20:\n        /* \"#utility.yul\":1101:1107   */\n      0x00\n        /* \"#utility.yul\":1150:1152   */\n      0x20\n        /* \"#utility.yul\":1138:1147   */\n      dup3\n        /* \"#utility.yul\":1129:1136   */\n      dup5\n        /* \"#utility.yul\":1125:1148   */\n      sub\n        /* \"#utility.yul\":1121:1153   */\n      slt\n        /* \"#utility.yul\":1118:1237   */\n      iszero\n      tag_195\n      jumpi\n        /* \"#utility.yul\":1156:1235   */\n      tag_196\n      tag_138\n      jump\t// in\n    tag_196:\n        /* \"#utility.yul\":1118:1237   */\n    tag_195:\n        /* \"#utility.yul\":1276:1277   */\n      0x00\n        /* \"#utility.yul\":1301:1354   */\n      tag_197\n        /* \"#utility.yul\":1346:1353   */\n      dup5\n        /* \"#utility.yul\":1337:1343   */\n      dup3\n        /* \"#utility.yul\":1326:1335   */\n      dup6\n        /* \"#utility.yul\":1322:1344   */\n      add\n        /* \"#utility.yul\":1301:1354   */\n      tag_141\n      jump\t// in\n    tag_197:\n        /* \"#utility.yul\":1291:1354   */\n      swap2\n      pop\n        /* \"#utility.yul\":1247:1364   */\n      pop\n        /* \"#utility.yul\":1042:1371   */\n      swap3\n      swap2\n      pop\n      pop\n      jump\t// out\n        /* \"#utility.yul\":1377:1503   */\n    tag_142:\n        /* \"#utility.yul\":1414:1421   */\n      0x00\n        /* \"#utility.yul\":1454:1496   */\n      0xffffffffffffffffffffffffffffffffffffffff\n        /* \"#utility.yul\":1447:1452   */\n      dup3\n        /* \"#utility.yul\":1443:1497   */\n      and\n        /* \"#utility.yul\":1432:1497   */\n      swap1\n      pop\n        /* \"#utility.yul\":1377:1503   */\n      swap2\n      swap1\n      pop\n      jump\t// out\n        /* \"#utility.yul\":1509:1605   */\n    tag_143:\n        /* \"#utility.yul\":1546:1553   */\n      0x00\n        /* \"#utility.yul\":1575:1599   */\n      tag_200\n        /* \"#utility.yul\":1593:1598   */\n      dup3\n        /* \"#utility.yul\":1575:1599   */\n      tag_142\n      jump\t// in\n    tag_200:\n        /* \"#utility.yul\":1564:1599   */\n      swap1\n      pop\n        /* \"#utility.yul\":1509:1605   */\n      swap2\n      swap1\n      pop\n      jump\t// out\n        /* \"#utility.yul\":1611:1729   */\n    tag_144:\n        /* \"#utility.yul\":1698:1722   */\n      tag_202\n        /* \"#utility.yul\":1716:1721   */\n      dup2\n        /* \"#utility.yul\":1698:1722   */\n      tag_143\n      jump\t// in\n    tag_202:\n        /* \"#utility.yul\":1693:1696   */\n      dup3\n        /* \"#utility.yul\":1686:1723   */\n      mstore\n        /* \"#utility.yul\":1611:1729   */\n      pop\n      pop\n      jump\t// out\n        /* \"#utility.yul\":1735:1828   */\n    tag_145:\n        /* \"#utility.yul\":1771:1778   */\n      0x00\n        /* \"#utility.yul\":1811:1821   */\n      0xffffffff\n        /* \"#utility.yul\":1804:1809   */\n      dup3\n        /* \"#utility.yul\":1800:1822   */\n      and\n        /* \"#utility.yul\":1789:1822   */\n      swap1\n      pop\n        /* \"#utility.yul\":1735:1828   */\n      swap2\n      swap1\n      pop\n      jump\t// out\n        /* \"#utility.yul\":1834:1949   */\n    tag_146:\n        /* \"#utility.yul\":1919:1942   */\n      tag_205\n        /* \"#utility.yul\":1936:1941   */\n      dup2\n        /* \"#utility.yul\":1919:1942   */\n      tag_145\n      jump\t// in\n    tag_205:\n        /* \"#utility.yul\":1914:1917   */\n      dup3\n        /* \"#utility.yul\":1907:1943   */\n      mstore\n        /* \"#utility.yul\":1834:1949   */\n      pop\n      pop\n      jump\t// out\n        /* \"#utility.yul\":1955:2045   */\n    tag_147:\n        /* \"#utility.yul\":1989:1996   */\n      0x00\n        /* \"#utility.yul\":2032:2037   */\n      dup2\n        /* \"#utility.yul\":2025:2038   */\n      iszero\n        /* \"#utility.yul\":2018:2039   */\n      iszero\n        /* \"#utility.yul\":2007:2039   */\n      swap1\n      pop\n        /* \"#utility.yul\":1955:2045   */\n      swap2\n      swap1\n      pop\n      jump\t// out\n        /* \"#utility.yul\":2051:2160   */\n    tag_148:\n        /* \"#utility.yul\":2132:2153   */\n      tag_208\n        /* \"#utility.yul\":2147:2152   */\n      dup2\n        /* \"#utility.yul\":2132:2153   */\n      tag_147\n      jump\t// in\n    tag_208:\n        /* \"#utility.yul\":2127:2130   */\n      dup3\n        /* \"#utility.yul\":2120:2154   */\n      mstore\n        /* \"#utility.yul\":2051:2160   */\n      pop\n      pop\n      jump\t// out\n        /* \"#utility.yul\":2166:2921   */\n    tag_23:\n        /* \"#utility.yul\":2389:2393   */\n      0x00\n        /* \"#utility.yul\":2427:2430   */\n      0xc0\n        /* \"#utility.yul\":2416:2425   */\n      dup3\n        /* \"#utility.yul\":2412:2431   */\n      add\n        /* \"#utility.yul\":2404:2431   */\n      swap1\n      pop\n        /* \"#utility.yul\":2441:2512   */\n      tag_210\n        /* \"#utility.yul\":2509:2510   */\n      0x00\n        /* \"#utility.yul\":2498:2507   */\n      dup4\n        /* \"#utility.yul\":2494:2511   */\n      add\n        /* \"#utility.yul\":2485:2491   */\n      dup10\n        /* \"#utility.yul\":2441:2512   */\n      tag_144\n      jump\t// in\n    tag_210:\n        /* \"#utility.yul\":2522:2594   */\n      tag_211\n        /* \"#utility.yul\":2590:2592   */\n      0x20\n        /* \"#utility.yul\":2579:2588   */\n      dup4\n        /* \"#utility.yul\":2575:2593   */\n      add\n        /* \"#utility.yul\":2566:2572   */\n      dup9\n        /* \"#utility.yul\":2522:2594   */\n      tag_136\n      jump\t// in\n    tag_211:\n        /* \"#utility.yul\":2604:2676   */\n      tag_212\n        /* \"#utility.yul\":2672:2674   */\n      0x40\n        /* \"#utility.yul\":2661:2670   */\n      dup4\n        /* \"#utility.yul\":2657:2675   */\n      add\n        /* \"#utility.yul\":2648:2654   */\n      dup8\n        /* \"#utility.yul\":2604:2676   */\n      tag_136\n      jump\t// in\n    tag_212:\n        /* \"#utility.yul\":2686:2756   */\n      tag_213\n        /* \"#utility.yul\":2752:2754   */\n      0x60\n        /* \"#utility.yul\":2741:2750   */\n      dup4\n        /* \"#utility.yul\":2737:2755   */\n      add\n        /* \"#utility.yul\":2728:2734   */\n      dup7\n        /* \"#utility.yul\":2686:2756   */\n      tag_146\n      jump\t// in\n    tag_213:\n        /* \"#utility.yul\":2766:2837   */\n      tag_214\n        /* \"#utility.yul\":2832:2835   */\n      0x80\n        /* \"#utility.yul\":2821:2830   */\n      dup4\n        /* \"#utility.yul\":2817:2836   */\n      add\n        /* \"#utility.yul\":2808:2814   */\n      dup6\n        /* \"#utility.yul\":2766:2837   */\n      tag_146\n      jump\t// in\n    tag_214:\n        /* \"#utility.yul\":2847:2914   */\n      tag_215\n        /* \"#utility.yul\":2909:2912   */\n      0xa0\n        /* \"#utility.yul\":2898:2907   */\n      dup4\n        /* \"#utility.yul\":2894:2913   */\n      add\n        /* \"#utility.yul\":2885:2891   */\n      dup5\n        /* \"#utility.yul\":2847:2914   */\n      tag_148\n      jump\t// in\n    tag_215:\n        /* \"#utility.yul\":2166:2921   */\n      swap8\n      swap7\n      pop\n      pop\n      pop\n      pop\n      pop\n      pop\n      pop\n      jump\t// out\n        /* \"#utility.yul\":2927:3047   */\n    tag_149:\n        /* \"#utility.yul\":2999:3022   */\n      tag_217\n        /* \"#utility.yul\":3016:3021   */\n      dup2\n        /* \"#utility.yul\":2999:3022   */\n      tag_145\n      jump\t// in\n    tag_217:\n        /* \"#utility.yul\":2992:2997   */\n      dup2\n        /* \"#utility.yul\":2989:3023   */\n      eq\n        /* \"#utility.yul\":2979:3041   */\n      tag_218\n      jumpi\n        /* \"#utility.yul\":3037:3038   */\n      0x00\n        /* \"#utility.yul\":3034:3035   */\n      0x00\n        /* \"#utility.yul\":3027:3039   */\n      revert\n        /* \"#utility.yul\":2979:3041   */\n    tag_218:\n        /* \"#utility.yul\":2927:3047   */\n      pop\n      jump\t// out\n        /* \"#utility.yul\":3053:3190   */\n    tag_150:\n        /* \"#utility.yul\":3098:3103   */\n      0x00\n        /* \"#utility.yul\":3136:3142   */\n      dup2\n        /* \"#utility.yul\":3123:3143   */\n      calldataload\n        /* \"#utility.yul\":3114:3143   */\n      swap1\n      pop\n        /* \"#utility.yul\":3152:3184   */\n      tag_220\n        /* \"#utility.yul\":3178:3183   */\n      dup2\n        /* \"#utility.yul\":3152:3184   */\n      tag_149\n      jump\t// in\n    tag_220:\n        /* \"#utility.yul\":3053:3190   */\n      swap3\n      swap2\n      pop\n      pop\n      jump\t// out\n        /* \"#utility.yul\":3196:3811   */\n    tag_29:\n        /* \"#utility.yul\":3271:3277   */\n      0x00\n        /* \"#utility.yul\":3279:3285   */\n      0x00\n        /* \"#utility.yul\":3287:3293   */\n      0x00\n        /* \"#utility.yul\":3336:3338   */\n      0x60\n        /* \"#utility.yul\":3324:3333   */\n      dup5\n        /* \"#utility.yul\":3315:3322   */\n      dup7\n        /* \"#utility.yul\":3311:3334   */\n      sub\n        /* \"#utility.yul\":3307:3339   */\n      slt\n        /* \"#utility.yul\":3304:3423   */\n      iszero\n      tag_222\n      jumpi\n        /* \"#utility.yul\":3342:3421   */\n      tag_223\n      tag_138\n      jump\t// in\n    tag_223:\n        /* \"#utility.yul\":3304:3423   */\n    tag_222:\n        /* \"#utility.yul\":3462:3463   */\n      0x00\n        /* \"#utility.yul\":3487:3540   */\n      tag_224\n        /* \"#utility.yul\":3532:3539   */\n      dup7\n        /* \"#utility.yul\":3523:3529   */\n      dup3\n        /* \"#utility.yul\":3512:3521   */\n      dup8\n        /* \"#utility.yul\":3508:3530   */\n      add\n        /* \"#utility.yul\":3487:3540   */\n      tag_141\n      jump\t// in\n    tag_224:\n        /* \"#utility.yul\":3477:3540   */\n      swap4\n      pop\n        /* \"#utility.yul\":3433:3550   */\n      pop\n        /* \"#utility.yul\":3589:3591   */\n      0x20\n        /* \"#utility.yul\":3615:3667   */\n      tag_225\n        /* \"#utility.yul\":3659:3666   */\n      dup7\n        /* \"#utility.yul\":3650:3656   */\n      dup3\n        /* \"#utility.yul\":3639:3648   */\n      dup8\n        /* \"#utility.yul\":3635:3657   */\n      add\n        /* \"#utility.yul\":3615:3667   */\n      tag_150\n      jump\t// in\n    tag_225:\n        /* \"#utility.yul\":3605:3667   */\n      swap3\n      pop\n        /* \"#utility.yul\":3560:3677   */\n      pop\n        /* \"#utility.yul\":3716:3718   */\n      0x40\n        /* \"#utility.yul\":3742:3794   */\n      tag_226\n        /* \"#utility.yul\":3786:3793   */\n      dup7\n        /* \"#utility.yul\":3777:3783   */\n      dup3\n        /* \"#utility.yul\":3766:3775   */\n      dup8\n        /* \"#utility.yul\":3762:3784   */\n      add\n        /* \"#utility.yul\":3742:3794   */\n      tag_150\n      jump\t// in\n    tag_226:\n        /* \"#utility.yul\":3732:3794   */\n      swap2\n      pop\n        /* \"#utility.yul\":3687:3804   */\n      pop\n        /* \"#utility.yul\":3196:3811   */\n      swap3\n      pop\n      swap3\n      pop\n      swap3\n      jump\t// out\n        /* \"#utility.yul\":3817:4291   */\n    tag_39:\n        /* \"#utility.yul\":3885:3891   */\n      0x00\n        /* \"#utility.yul\":3893:3899   */\n      0x00\n        /* \"#utility.yul\":3942:3944   */\n      0x40\n        /* \"#utility.yul\":3930:3939   */\n      dup4\n        /* \"#utility.yul\":3921:3928   */\n      dup6\n        /* \"#utility.yul\":3917:3940   */\n      sub\n        /* \"#utility.yul\":3913:3945   */\n      slt\n        /* \"#utility.yul\":3910:4029   */\n      iszero\n      tag_228\n      jumpi\n        /* \"#utility.yul\":3948:4027   */\n      tag_229\n      tag_138\n      jump\t// in\n    tag_229:\n        /* \"#utility.yul\":3910:4029   */\n    tag_228:\n        /* \"#utility.yul\":4068:4069   */\n      0x00\n        /* \"#utility.yul\":4093:4146   */\n      tag_230\n        /* \"#utility.yul\":4138:4145   */\n      dup6\n        /* \"#utility.yul\":4129:4135   */\n      dup3\n        /* \"#utility.yul\":4118:4127   */\n      dup7\n        /* \"#utility.yul\":4114:4136   */\n      add\n        /* \"#utility.yul\":4093:4146   */\n      tag_141\n      jump\t// in\n    tag_230:\n        /* \"#utility.yul\":4083:4146   */\n      swap3\n      pop\n        /* \"#utility.yul\":4039:4156   */\n      pop\n        /* \"#utility.yul\":4195:4197   */\n      0x20\n        /* \"#utility.yul\":4221:4274   */\n      tag_231\n        /* \"#utility.yul\":4266:4273   */\n      dup6\n        /* \"#utility.yul\":4257:4263   */\n      dup3\n        /* \"#utility.yul\":4246:4255   */\n      dup7\n        /* \"#utility.yul\":4242:4264   */\n      add\n        /* \"#utility.yul\":4221:4274   */\n      tag_141\n      jump\t// in\n    tag_231:\n        /* \"#utility.yul\":4211:4274   */\n      swap2\n      pop\n        /* \"#utility.yul\":4166:4284   */\n      pop\n        /* \"#utility.yul\":3817:4291   */\n      swap3\n      pop\n      swap3\n      swap1\n      pop\n      jump\t// out\n        /* \"#utility.yul\":4297:4419   */\n    tag_151:\n        /* \"#utility.yul\":4370:4394   */\n      tag_233\n        /* \"#utility.yul\":4388:4393   */\n      dup2\n        /* \"#utility.yul\":4370:4394   */\n      tag_143\n      jump\t// in\n    tag_233:\n        /* \"#utility.yul\":4363:4368   */\n      dup2\n        /* \"#utility.yul\":4360:4395   */\n      eq\n        /* \"#utility.yul\":4350:4413   */\n      tag_234\n      jumpi\n        /* \"#utility.yul\":4409:4410   */\n      0x00\n        /* \"#utility.yul\":4406:4407   */\n      0x00\n        /* \"#utility.yul\":4399:4411   */\n      revert\n        /* \"#utility.yul\":4350:4413   */\n    tag_234:\n        /* \"#utility.yul\":4297:4419   */\n      pop\n      jump\t// out\n        /* \"#utility.yul\":4425:4564   */\n    tag_152:\n        /* \"#utility.yul\":4471:4476   */\n      0x00\n        /* \"#utility.yul\":4509:4515   */\n      dup2\n        /* \"#utility.yul\":4496:4516   */\n      calldataload\n        /* \"#utility.yul\":4487:4516   */\n      swap1\n      pop\n        /* \"#utility.yul\":4525:4558   */\n      tag_236\n        /* \"#utility.yul\":4552:4557   */\n      dup2\n        /* \"#utility.yul\":4525:4558   */\n      tag_151\n      jump\t// in\n    tag_236:\n        /* \"#utility.yul\":4425:4564   */\n      swap3\n      swap2\n      pop\n      pop\n      jump\t// out\n        /* \"#utility.yul\":4570:5044   */\n    tag_43:\n        /* \"#utility.yul\":4638:4644   */\n      0x00\n        /* \"#utility.yul\":4646:4652   */\n      0x00\n        /* \"#utility.yul\":4695:4697   */\n      0x40\n        /* \"#utility.yul\":4683:4692   */\n      dup4\n        /* \"#utility.yul\":4674:4681   */\n      dup6\n        /* \"#utility.yul\":4670:4693   */\n      sub\n        /* \"#utility.yul\":4666:4698   */\n      slt\n        /* \"#utility.yul\":4663:4782   */\n      iszero\n      tag_238\n      jumpi\n        /* \"#utility.yul\":4701:4780   */\n      tag_239\n      tag_138\n      jump\t// in\n    tag_239:\n        /* \"#utility.yul\":4663:4782   */\n    tag_238:\n        /* \"#utility.yul\":4821:4822   */\n      0x00\n        /* \"#utility.yul\":4846:4899   */\n      tag_240\n        /* \"#utility.yul\":4891:4898   */\n      dup6\n        /* \"#utility.yul\":4882:4888   */\n      dup3\n        /* \"#utility.yul\":4871:4880   */\n      dup7\n        /* \"#utility.yul\":4867:4889   */\n      add\n        /* \"#utility.yul\":4846:4899   */\n      tag_141\n      jump\t// in\n    tag_240:\n        /* \"#utility.yul\":4836:4899   */\n      swap3\n      pop\n        /* \"#utility.yul\":4792:4909   */\n      pop\n        /* \"#utility.yul\":4948:4950   */\n      0x20\n        /* \"#utility.yul\":4974:5027   */\n      tag_241\n        /* \"#utility.yul\":5019:5026   */\n      dup6\n        /* \"#utility.yul\":5010:5016   */\n      dup3\n        /* \"#utility.yul\":4999:5008   */\n      dup7\n        /* \"#utility.yul\":4995:5017   */\n      add\n        /* \"#utility.yul\":4974:5027   */\n      tag_152\n      jump\t// in\n    tag_241:\n        /* \"#utility.yul\":4964:5027   */\n      swap2\n      pop\n        /* \"#utility.yul\":4919:5037   */\n      pop\n        /* \"#utility.yul\":4570:5044   */\n      swap3\n      pop\n      swap3\n      swap1\n      pop\n      jump\t// out\n        /* \"#utility.yul\":5050:5110   */\n    tag_153:\n        /* \"#utility.yul\":5078:5081   */\n      0x00\n        /* \"#utility.yul\":5099:5104   */\n      dup2\n        /* \"#utility.yul\":5092:5104   */\n      swap1\n      pop\n        /* \"#utility.yul\":5050:5110   */\n      swap2\n      swap1\n      pop\n      jump\t// out\n        /* \"#utility.yul\":5116:5258   */\n    tag_154:\n        /* \"#utility.yul\":5166:5175   */\n      0x00\n        /* \"#utility.yul\":5199:5252   */\n      tag_244\n        /* \"#utility.yul\":5217:5251   */\n      tag_245\n        /* \"#utility.yul\":5226:5250   */\n      tag_246\n        /* \"#utility.yul\":5244:5249   */\n      dup5\n        /* \"#utility.yul\":5226:5250   */\n      tag_142\n      jump\t// in\n    tag_246:\n        /* \"#utility.yul\":5217:5251   */\n      tag_153\n      jump\t// in\n    tag_245:\n        /* \"#utility.yul\":5199:5252   */\n      tag_142\n      jump\t// in\n    tag_244:\n        /* \"#utility.yul\":5186:5252   */\n      swap1\n      pop\n        /* \"#utility.yul\":5116:5258   */\n      swap2\n      swap1\n      pop\n      jump\t// out\n        /* \"#utility.yul\":5264:5390   */\n    tag_155:\n        /* \"#utility.yul\":5314:5323   */\n      0x00\n        /* \"#utility.yul\":5347:5384   */\n      tag_248\n        /* \"#utility.yul\":5378:5383   */\n      dup3\n        /* \"#utility.yul\":5347:5384   */\n      tag_154\n      jump\t// in\n    tag_248:\n        /* \"#utility.yul\":5334:5384   */\n      swap1\n      pop\n        /* \"#utility.yul\":5264:5390   */\n      swap2\n      swap1\n      pop\n      jump\t// out\n        /* \"#utility.yul\":5396:5536   */\n    tag_156:\n        /* \"#utility.yul\":5460:5469   */\n      0x00\n        /* \"#utility.yul\":5493:5530   */\n      tag_250\n        /* \"#utility.yul\":5524:5529   */\n      dup3\n        /* \"#utility.yul\":5493:5530   */\n      tag_155\n      jump\t// in\n    tag_250:\n        /* \"#utility.yul\":5480:5530   */\n      swap1\n      pop\n        /* \"#utility.yul\":5396:5536   */\n      swap2\n      swap1\n      pop\n      jump\t// out\n        /* \"#utility.yul\":5542:5701   */\n    tag_157:\n        /* \"#utility.yul\":5643:5694   */\n      tag_252\n        /* \"#utility.yul\":5688:5693   */\n      dup2\n        /* \"#utility.yul\":5643:5694   */\n      tag_156\n      jump\t// in\n    tag_252:\n        /* \"#utility.yul\":5638:5641   */\n      dup3\n        /* \"#utility.yul\":5631:5695   */\n      mstore\n        /* \"#utility.yul\":5542:5701   */\n      pop\n      pop\n      jump\t// out\n        /* \"#utility.yul\":5707:5957   */\n    tag_49:\n        /* \"#utility.yul\":5814:5818   */\n      0x00\n        /* \"#utility.yul\":5852:5854   */\n      0x20\n        /* \"#utility.yul\":5841:5850   */\n      dup3\n        /* \"#utility.yul\":5837:5855   */\n      add\n        /* \"#utility.yul\":5829:5855   */\n      swap1\n      pop\n        /* \"#utility.yul\":5865:5950   */\n      tag_254\n        /* \"#utility.yul\":5947:5948   */\n      0x00\n        /* \"#utility.yul\":5936:5945   */\n      dup4\n        /* \"#utility.yul\":5932:5949   */\n      add\n        /* \"#utility.yul\":5923:5929   */\n      dup5\n        /* \"#utility.yul\":5865:5950   */\n      tag_157\n      jump\t// in\n    tag_254:\n        /* \"#utility.yul\":5707:5957   */\n      swap3\n      swap2\n      pop\n      pop\n      jump\t// out\n        /* \"#utility.yul\":5963:6132   */\n    tag_158:\n        /* \"#utility.yul\":6047:6058   */\n      0x00\n        /* \"#utility.yul\":6081:6087   */\n      dup3\n        /* \"#utility.yul\":6076:6079   */\n      dup3\n        /* \"#utility.yul\":6069:6088   */\n      mstore\n        /* \"#utility.yul\":6121:6125   */\n      0x20\n        /* \"#utility.yul\":6116:6119   */\n      dup3\n        /* \"#utility.yul\":6112:6126   */\n      add\n        /* \"#utility.yul\":6097:6126   */\n      swap1\n      pop\n        /* \"#utility.yul\":5963:6132   */\n      swap3\n      swap2\n      pop\n      pop\n      jump\t// out\n        /* \"#utility.yul\":6138:6299   */\n    tag_159:\n        /* \"#utility.yul\":6278:6291   */\n      0x6e6f742073746172746564000000000000000000000000000000000000000000\n        /* \"#utility.yul\":6274:6275   */\n      0x00\n        /* \"#utility.yul\":6266:6272   */\n      dup3\n        /* \"#utility.yul\":6262:6276   */\n      add\n        /* \"#utility.yul\":6255:6292   */\n      mstore\n        /* \"#utility.yul\":6138:6299   */\n      pop\n      jump\t// out\n        /* \"#utility.yul\":6305:6671   */\n    tag_160:\n        /* \"#utility.yul\":6447:6450   */\n      0x00\n        /* \"#utility.yul\":6468:6535   */\n      tag_258\n        /* \"#utility.yul\":6532:6534   */\n      0x0b\n        /* \"#utility.yul\":6527:6530   */\n      dup4\n        /* \"#utility.yul\":6468:6535   */\n      tag_158\n      jump\t// in\n    tag_258:\n        /* \"#utility.yul\":6461:6535   */\n      swap2\n      pop\n        /* \"#utility.yul\":6544:6637   */\n      tag_259\n        /* \"#utility.yul\":6633:6636   */\n      dup3\n        /* \"#utility.yul\":6544:6637   */\n      tag_159\n      jump\t// in\n    tag_259:\n        /* \"#utility.yul\":6662:6664   */\n      0x20\n        /* \"#utility.yul\":6657:6660   */\n      dup3\n        /* \"#utility.yul\":6653:6665   */\n      add\n        /* \"#utility.yul\":6646:6665   */\n      swap1\n      pop\n        /* \"#utility.yul\":6305:6671   */\n      swap2\n      swap1\n      pop\n      jump\t// out\n        /* \"#utility.yul\":6677:7096   */\n    tag_56:\n        /* \"#utility.yul\":6843:6847   */\n      0x00\n        /* \"#utility.yul\":6881:6883   */\n      0x20\n        /* \"#utility.yul\":6870:6879   */\n      dup3\n        /* \"#utility.yul\":6866:6884   */\n      add\n        /* \"#utility.yul\":6858:6884   */\n      swap1\n      pop\n        /* \"#utility.yul\":6930:6939   */\n      dup2\n        /* \"#utility.yul\":6924:6928   */\n      dup2\n        /* \"#utility.yul\":6920:6940   */\n      sub\n        /* \"#utility.yul\":6916:6917   */\n      0x00\n        /* \"#utility.yul\":6905:6914   */\n      dup4\n        /* \"#utility.yul\":6901:6918   */\n      add\n        /* \"#utility.yul\":6894:6941   */\n      mstore\n        /* \"#utility.yul\":6958:7089   */\n      tag_261\n        /* \"#utility.yul\":7084:7088   */\n      dup2\n        /* \"#utility.yul\":6958:7089   */\n      tag_160\n      jump\t// in\n    tag_261:\n        /* \"#utility.yul\":6950:7089   */\n      swap1\n      pop\n        /* \"#utility.yul\":6677:7096   */\n      swap2\n      swap1\n      pop\n      jump\t// out\n        /* \"#utility.yul\":7102:7257   */\n    tag_161:\n        /* \"#utility.yul\":7242:7249   */\n      0x656e646564000000000000000000000000000000000000000000000000000000\n        /* \"#utility.yul\":7238:7239   */\n      0x00\n        /* \"#utility.yul\":7230:7236   */\n      dup3\n        /* \"#utility.yul\":7226:7240   */\n      add\n        /* \"#utility.yul\":7219:7250   */\n      mstore\n        /* \"#utility.yul\":7102:7257   */\n      pop\n      jump\t// out\n        /* \"#utility.yul\":7263:7628   */\n    tag_162:\n        /* \"#utility.yul\":7405:7408   */\n      0x00\n        /* \"#utility.yul\":7426:7492   */\n      tag_264\n        /* \"#utility.yul\":7490:7491   */\n      0x05\n        /* \"#utility.yul\":7485:7488   */\n      dup4\n        /* \"#utility.yul\":7426:7492   */\n      tag_158\n      jump\t// in\n    tag_264:\n        /* \"#utility.yul\":7419:7492   */\n      swap2\n      pop\n        /* \"#utility.yul\":7501:7594   */\n      tag_265\n        /* \"#utility.yul\":7590:7593   */\n      dup3\n        /* \"#utility.yul\":7501:7594   */\n      tag_161\n      jump\t// in\n    tag_265:\n        /* \"#utility.yul\":7619:7621   */\n      0x20\n        /* \"#utility.yul\":7614:7617   */\n      dup3\n        /* \"#utility.yul\":7610:7622   */\n      add\n        /* \"#utility.yul\":7603:7622   */\n      swap1\n      pop\n        /* \"#utility.yul\":7263:7628   */\n      swap2\n      swap1\n      pop\n      jump\t// out\n        /* \"#utility.yul\":7634:8053   */\n    tag_59:\n        /* \"#utility.yul\":7800:7804   */\n      0x00\n        /* \"#utility.yul\":7838:7840   */\n      0x20\n        /* \"#utility.yul\":7827:7836   */\n      dup3\n        /* \"#utility.yul\":7823:7841   */\n      add\n        /* \"#utility.yul\":7815:7841   */\n      swap1\n      pop\n        /* \"#utility.yul\":7887:7896   */\n      dup2\n        /* \"#utility.yul\":7881:7885   */\n      dup2\n        /* \"#utility.yul\":7877:7897   */\n      sub\n        /* \"#utility.yul\":7873:7874   */\n      0x00\n        /* \"#utility.yul\":7862:7871   */\n      dup4\n        /* \"#utility.yul\":7858:7875   */\n      add\n        /* \"#utility.yul\":7851:7898   */\n      mstore\n        /* \"#utility.yul\":7915:8046   */\n      tag_267\n        /* \"#utility.yul\":8041:8045   */\n      dup2\n        /* \"#utility.yul\":7915:8046   */\n      tag_162\n      jump\t// in\n    tag_267:\n        /* \"#utility.yul\":7907:8046   */\n      swap1\n      pop\n        /* \"#utility.yul\":7634:8053   */\n      swap2\n      swap1\n      pop\n      jump\t// out\n        /* \"#utility.yul\":8059:8223   */\n    tag_163:\n        /* \"#utility.yul\":8199:8215   */\n      0x706c6564676564203c20676f616c000000000000000000000000000000000000\n        /* \"#utility.yul\":8195:8196   */\n      0x00\n        /* \"#utility.yul\":8187:8193   */\n      dup3\n        /* \"#utility.yul\":8183:8197   */\n      add\n        /* \"#utility.yul\":8176:8216   */\n      mstore\n        /* \"#utility.yul\":8059:8223   */\n      pop\n      jump\t// out\n        /* \"#utility.yul\":8229:8595   */\n    tag_164:\n        /* \"#utility.yul\":8371:8374   */\n      0x00\n        /* \"#utility.yul\":8392:8459   */\n      tag_270\n        /* \"#utility.yul\":8456:8458   */\n      0x0e\n        /* \"#utility.yul\":8451:8454   */\n      dup4\n        /* \"#utility.yul\":8392:8459   */\n      tag_158\n      jump\t// in\n    tag_270:\n        /* \"#utility.yul\":8385:8459   */\n      swap2\n      pop\n        /* \"#utility.yul\":8468:8561   */\n      tag_271\n        /* \"#utility.yul\":8557:8560   */\n      dup3\n        /* \"#utility.yul\":8468:8561   */\n      tag_163\n      jump\t// in\n    tag_271:\n        /* \"#utility.yul\":8586:8588   */\n      0x20\n        /* \"#utility.yul\":8581:8584   */\n      dup3\n        /* \"#utility.yul\":8577:8589   */\n      add\n        /* \"#utility.yul\":8570:8589   */\n      swap1\n      pop\n        /* \"#utility.yul\":8229:8595   */\n      swap2\n      swap1\n      pop\n      jump\t// out\n        /* \"#utility.yul\":8601:9020   */\n    tag_62:\n        /* \"#utility.yul\":8767:8771   */\n      0x00\n        /* \"#utility.yul\":8805:8807   */\n      0x20\n        /* \"#utility.yul\":8794:8803   */\n      dup3\n        /* \"#utility.yul\":8790:8808   */\n      add\n        /* \"#utility.yul\":8782:8808   */\n      swap1\n      pop\n        /* \"#utility.yul\":8854:8863   */\n      dup2\n        /* \"#utility.yul\":8848:8852   */\n      dup2\n        /* \"#utility.yul\":8844:8864   */\n      sub\n        /* \"#utility.yul\":8840:8841   */\n      0x00\n        /* \"#utility.yul\":8829:8838   */\n      dup4\n        /* \"#utility.yul\":8825:8842   */\n      add\n        /* \"#utility.yul\":8818:8865   */\n      mstore\n        /* \"#utility.yul\":8882:9013   */\n      tag_273\n        /* \"#utility.yul\":9008:9012   */\n      dup2\n        /* \"#utility.yul\":8882:9013   */\n      tag_164\n      jump\t// in\n    tag_273:\n        /* \"#utility.yul\":8874:9013   */\n      swap1\n      pop\n        /* \"#utility.yul\":8601:9020   */\n      swap2\n      swap1\n      pop\n      jump\t// out\n        /* \"#utility.yul\":9026:9358   */\n    tag_64:\n        /* \"#utility.yul\":9147:9151   */\n      0x00\n        /* \"#utility.yul\":9185:9187   */\n      0x40\n        /* \"#utility.yul\":9174:9183   */\n      dup3\n        /* \"#utility.yul\":9170:9188   */\n      add\n        /* \"#utility.yul\":9162:9188   */\n      swap1\n      pop\n        /* \"#utility.yul\":9198:9269   */\n      tag_275\n        /* \"#utility.yul\":9266:9267   */\n      0x00\n        /* \"#utility.yul\":9255:9264   */\n      dup4\n        /* \"#utility.yul\":9251:9268   */\n      add\n        /* \"#utility.yul\":9242:9248   */\n      dup6\n        /* \"#utility.yul\":9198:9269   */\n      tag_144\n      jump\t// in\n    tag_275:\n        /* \"#utility.yul\":9279:9351   */\n      tag_276\n        /* \"#utility.yul\":9347:9349   */\n      0x20\n        /* \"#utility.yul\":9336:9345   */\n      dup4\n        /* \"#utility.yul\":9332:9350   */\n      add\n        /* \"#utility.yul\":9323:9329   */\n      dup5\n        /* \"#utility.yul\":9279:9351   */\n      tag_136\n      jump\t// in\n    tag_276:\n        /* \"#utility.yul\":9026:9358   */\n      swap4\n      swap3\n      pop\n      pop\n      pop\n      jump\t// out\n        /* \"#utility.yul\":9364:9480   */\n    tag_165:\n        /* \"#utility.yul\":9434:9455   */\n      tag_278\n        /* \"#utility.yul\":9449:9454   */\n      dup2\n        /* \"#utility.yul\":9434:9455   */\n      tag_147\n      jump\t// in\n    tag_278:\n        /* \"#utility.yul\":9427:9432   */\n      dup2\n        /* \"#utility.yul\":9424:9456   */\n      eq\n        /* \"#utility.yul\":9414:9474   */\n      tag_279\n      jumpi\n        /* \"#utility.yul\":9470:9471   */\n      0x00\n        /* \"#utility.yul\":9467:9468   */\n      0x00\n        /* \"#utility.yul\":9460:9472   */\n      revert\n        /* \"#utility.yul\":9414:9474   */\n    tag_279:\n        /* \"#utility.yul\":9364:9480   */\n      pop\n      jump\t// out\n        /* \"#utility.yul\":9486:9623   */\n    tag_166:\n        /* \"#utility.yul\":9540:9545   */\n      0x00\n        /* \"#utility.yul\":9571:9577   */\n      dup2\n        /* \"#utility.yul\":9565:9578   */\n      mload\n        /* \"#utility.yul\":9556:9578   */\n      swap1\n      pop\n        /* \"#utility.yul\":9587:9617   */\n      tag_281\n        /* \"#utility.yul\":9611:9616   */\n      dup2\n        /* \"#utility.yul\":9587:9617   */\n      tag_165\n      jump\t// in\n    tag_281:\n        /* \"#utility.yul\":9486:9623   */\n      swap3\n      swap2\n      pop\n      pop\n      jump\t// out\n        /* \"#utility.yul\":9629:9974   */\n    tag_68:\n        /* \"#utility.yul\":9696:9702   */\n      0x00\n        /* \"#utility.yul\":9745:9747   */\n      0x20\n        /* \"#utility.yul\":9733:9742   */\n      dup3\n        /* \"#utility.yul\":9724:9731   */\n      dup5\n        /* \"#utility.yul\":9720:9743   */\n      sub\n        /* \"#utility.yul\":9716:9748   */\n      slt\n        /* \"#utility.yul\":9713:9832   */\n      iszero\n      tag_283\n      jumpi\n        /* \"#utility.yul\":9751:9830   */\n      tag_284\n      tag_138\n      jump\t// in\n    tag_284:\n        /* \"#utility.yul\":9713:9832   */\n    tag_283:\n        /* \"#utility.yul\":9871:9872   */\n      0x00\n        /* \"#utility.yul\":9896:9957   */\n      tag_285\n        /* \"#utility.yul\":9949:9956   */\n      dup5\n        /* \"#utility.yul\":9940:9946   */\n      dup3\n        /* \"#utility.yul\":9929:9938   */\n      dup6\n        /* \"#utility.yul\":9925:9947   */\n      add\n        /* \"#utility.yul\":9896:9957   */\n      tag_166\n      jump\t// in\n    tag_285:\n        /* \"#utility.yul\":9886:9957   */\n      swap2\n      pop\n        /* \"#utility.yul\":9842:9967   */\n      pop\n        /* \"#utility.yul\":9629:9974   */\n      swap3\n      swap2\n      pop\n      pop\n      jump\t// out\n        /* \"#utility.yul\":9980:10312   */\n    tag_70:\n        /* \"#utility.yul\":10101:10105   */\n      0x00\n        /* \"#utility.yul\":10139:10141   */\n      0x40\n        /* \"#utility.yul\":10128:10137   */\n      dup3\n        /* \"#utility.yul\":10124:10142   */\n      add\n        /* \"#utility.yul\":10116:10142   */\n      swap1\n      pop\n        /* \"#utility.yul\":10152:10223   */\n      tag_287\n        /* \"#utility.yul\":10220:10221   */\n      0x00\n        /* \"#utility.yul\":10209:10218   */\n      dup4\n        /* \"#utility.yul\":10205:10222   */\n      add\n        /* \"#utility.yul\":10196:10202   */\n      dup6\n        /* \"#utility.yul\":10152:10223   */\n      tag_136\n      jump\t// in\n    tag_287:\n        /* \"#utility.yul\":10233:10305   */\n      tag_288\n        /* \"#utility.yul\":10301:10303   */\n      0x20\n        /* \"#utility.yul\":10290:10299   */\n      dup4\n        /* \"#utility.yul\":10286:10304   */\n      add\n        /* \"#utility.yul\":10277:10283   */\n      dup5\n        /* \"#utility.yul\":10233:10305   */\n      tag_136\n      jump\t// in\n    tag_288:\n        /* \"#utility.yul\":9980:10312   */\n      swap4\n      swap3\n      pop\n      pop\n      pop\n      jump\t// out\n        /* \"#utility.yul\":10318:10482   */\n    tag_167:\n        /* \"#utility.yul\":10458:10474   */\n      0x7374617274206174203c206e6f77000000000000000000000000000000000000\n        /* \"#utility.yul\":10454:10455   */\n      0x00\n        /* \"#utility.yul\":10446:10452   */\n      dup3\n        /* \"#utility.yul\":10442:10456   */\n      add\n        /* \"#utility.yul\":10435:10475   */\n      mstore\n        /* \"#utility.yul\":10318:10482   */\n      pop\n      jump\t// out\n        /* \"#utility.yul\":10488:10854   */\n    tag_168:\n        /* \"#utility.yul\":10630:10633   */\n      0x00\n        /* \"#utility.yul\":10651:10718   */\n      tag_291\n        /* \"#utility.yul\":10715:10717   */\n      0x0e\n        /* \"#utility.yul\":10710:10713   */\n      dup4\n        /* \"#utility.yul\":10651:10718   */\n      tag_158\n      jump\t// in\n    tag_291:\n        /* \"#utility.yul\":10644:10718   */\n      swap2\n      pop\n        /* \"#utility.yul\":10727:10820   */\n      tag_292\n        /* \"#utility.yul\":10816:10819   */\n      dup3\n        /* \"#utility.yul\":10727:10820   */\n      tag_167\n      jump\t// in\n    tag_292:\n        /* \"#utility.yul\":10845:10847   */\n      0x20\n        /* \"#utility.yul\":10840:10843   */\n      dup3\n        /* \"#utility.yul\":10836:10848   */\n      add\n        /* \"#utility.yul\":10829:10848   */\n      swap1\n      pop\n        /* \"#utility.yul\":10488:10854   */\n      swap2\n      swap1\n      pop\n      jump\t// out\n        /* \"#utility.yul\":10860:11279   */\n    tag_74:\n        /* \"#utility.yul\":11026:11030   */\n      0x00\n        /* \"#utility.yul\":11064:11066   */\n      0x20\n        /* \"#utility.yul\":11053:11062   */\n      dup3\n        /* \"#utility.yul\":11049:11067   */\n      add\n        /* \"#utility.yul\":11041:11067   */\n      swap1\n      pop\n        /* \"#utility.yul\":11113:11122   */\n      dup2\n        /* \"#utility.yul\":11107:11111   */\n      dup2\n        /* \"#utility.yul\":11103:11123   */\n      sub\n        /* \"#utility.yul\":11099:11100   */\n      0x00\n        /* \"#utility.yul\":11088:11097   */\n      dup4\n        /* \"#utility.yul\":11084:11101   */\n      add\n        /* \"#utility.yul\":11077:11124   */\n      mstore\n        /* \"#utility.yul\":11141:11272   */\n      tag_294\n        /* \"#utility.yul\":11267:11271   */\n      dup2\n        /* \"#utility.yul\":11141:11272   */\n      tag_168\n      jump\t// in\n    tag_294:\n        /* \"#utility.yul\":11133:11272   */\n      swap1\n      pop\n        /* \"#utility.yul\":10860:11279   */\n      swap2\n      swap1\n      pop\n      jump\t// out\n        /* \"#utility.yul\":11285:11452   */\n    tag_169:\n        /* \"#utility.yul\":11425:11444   */\n      0x656e64206174203c207374617274206174000000000000000000000000000000\n        /* \"#utility.yul\":11421:11422   */\n      0x00\n        /* \"#utility.yul\":11413:11419   */\n      dup3\n        /* \"#utility.yul\":11409:11423   */\n      add\n        /* \"#utility.yul\":11402:11445   */\n      mstore\n        /* \"#utility.yul\":11285:11452   */\n      pop\n      jump\t// out\n        /* \"#utility.yul\":11458:11824   */\n    tag_170:\n        /* \"#utility.yul\":11600:11603   */\n      0x00\n        /* \"#utility.yul\":11621:11688   */\n      tag_297\n        /* \"#utility.yul\":11685:11687   */\n      0x11\n        /* \"#utility.yul\":11680:11683   */\n      dup4\n        /* \"#utility.yul\":11621:11688   */\n      tag_158\n      jump\t// in\n    tag_297:\n        /* \"#utility.yul\":11614:11688   */\n      swap2\n      pop\n        /* \"#utility.yul\":11697:11790   */\n      tag_298\n        /* \"#utility.yul\":11786:11789   */\n      dup3\n        /* \"#utility.yul\":11697:11790   */\n      tag_169\n      jump\t// in\n    tag_298:\n        /* \"#utility.yul\":11815:11817   */\n      0x20\n        /* \"#utility.yul\":11810:11813   */\n      dup3\n        /* \"#utility.yul\":11806:11818   */\n      add\n        /* \"#utility.yul\":11799:11818   */\n      swap1\n      pop\n        /* \"#utility.yul\":11458:11824   */\n      swap2\n      swap1\n      pop\n      jump\t// out\n        /* \"#utility.yul\":11830:12249   */\n    tag_77:\n        /* \"#utility.yul\":11996:12000   */\n      0x00\n        /* \"#utility.yul\":12034:12036   */\n      0x20\n        /* \"#utility.yul\":12023:12032   */\n      dup3\n        /* \"#utility.yul\":12019:12037   */\n      add\n        /* \"#utility.yul\":12011:12037   */\n      swap1\n      pop\n        /* \"#utility.yul\":12083:12092   */\n      dup2\n        /* \"#utility.yul\":12077:12081   */\n      dup2\n        /* \"#utility.yul\":12073:12093   */\n      sub\n        /* \"#utility.yul\":12069:12070   */\n      0x00\n        /* \"#utility.yul\":12058:12067   */\n      dup4\n        /* \"#utility.yul\":12054:12071   */\n      add\n        /* \"#utility.yul\":12047:12094   */\n      mstore\n        /* \"#utility.yul\":12111:12242   */\n      tag_300\n        /* \"#utility.yul\":12237:12241   */\n      dup2\n        /* \"#utility.yul\":12111:12242   */\n      tag_170\n      jump\t// in\n    tag_300:\n        /* \"#utility.yul\":12103:12242   */\n      swap1\n      pop\n        /* \"#utility.yul\":11830:12249   */\n      swap2\n      swap1\n      pop\n      jump\t// out\n        /* \"#utility.yul\":12255:12435   */\n    tag_171:\n        /* \"#utility.yul\":12303:12380   */\n      0x4e487b7100000000000000000000000000000000000000000000000000000000\n        /* \"#utility.yul\":12300:12301   */\n      0x00\n        /* \"#utility.yul\":12293:12381   */\n      mstore\n        /* \"#utility.yul\":12400:12404   */\n      0x11\n        /* \"#utility.yul\":12397:12398   */\n      0x04\n        /* \"#utility.yul\":12390:12405   */\n      mstore\n        /* \"#utility.yul\":12424:12428   */\n      0x24\n        /* \"#utility.yul\":12421:12422   */\n      0x00\n        /* \"#utility.yul\":12414:12429   */\n      revert\n        /* \"#utility.yul\":12441:12632   */\n    tag_79:\n        /* \"#utility.yul\":12481:12484   */\n      0x00\n        /* \"#utility.yul\":12500:12520   */\n      tag_303\n        /* \"#utility.yul\":12518:12519   */\n      dup3\n        /* \"#utility.yul\":12500:12520   */\n      tag_135\n      jump\t// in\n    tag_303:\n        /* \"#utility.yul\":12495:12520   */\n      swap2\n      pop\n        /* \"#utility.yul\":12534:12554   */\n      tag_304\n        /* \"#utility.yul\":12552:12553   */\n      dup4\n        /* \"#utility.yul\":12534:12554   */\n      tag_135\n      jump\t// in\n    tag_304:\n        /* \"#utility.yul\":12529:12554   */\n      swap3\n      pop\n        /* \"#utility.yul\":12577:12578   */\n      dup3\n        /* \"#utility.yul\":12574:12575   */\n      dup3\n        /* \"#utility.yul\":12570:12579   */\n      add\n        /* \"#utility.yul\":12563:12579   */\n      swap1\n      pop\n        /* \"#utility.yul\":12598:12601   */\n      dup1\n        /* \"#utility.yul\":12595:12596   */\n      dup3\n        /* \"#utility.yul\":12592:12602   */\n      gt\n        /* \"#utility.yul\":12589:12625   */\n      iszero\n      tag_305\n      jumpi\n        /* \"#utility.yul\":12605:12623   */\n      tag_306\n      tag_171\n      jump\t// in\n    tag_306:\n        /* \"#utility.yul\":12589:12625   */\n    tag_305:\n        /* \"#utility.yul\":12441:12632   */\n      swap3\n      swap2\n      pop\n      pop\n      jump\t// out\n        /* \"#utility.yul\":12638:12809   */\n    tag_172:\n        /* \"#utility.yul\":12778:12801   */\n      0x656e64206174203e206d6178206475726174696f6e0000000000000000000000\n        /* \"#utility.yul\":12774:12775   */\n      0x00\n        /* \"#utility.yul\":12766:12772   */\n      dup3\n        /* \"#utility.yul\":12762:12776   */\n      add\n        /* \"#utility.yul\":12755:12802   */\n      mstore\n        /* \"#utility.yul\":12638:12809   */\n      pop\n      jump\t// out\n        /* \"#utility.yul\":12815:13181   */\n    tag_173:\n        /* \"#utility.yul\":12957:12960   */\n      0x00\n        /* \"#utility.yul\":12978:13045   */\n      tag_309\n        /* \"#utility.yul\":13042:13044   */\n      0x15\n        /* \"#utility.yul\":13037:13040   */\n      dup4\n        /* \"#utility.yul\":12978:13045   */\n      tag_158\n      jump\t// in\n    tag_309:\n        /* \"#utility.yul\":12971:13045   */\n      swap2\n      pop\n        /* \"#utility.yul\":13054:13147   */\n      tag_310\n        /* \"#utility.yul\":13143:13146   */\n      dup3\n        /* \"#utility.yul\":13054:13147   */\n      tag_172\n      jump\t// in\n    tag_310:\n        /* \"#utility.yul\":13172:13174   */\n      0x20\n        /* \"#utility.yul\":13167:13170   */\n      dup3\n        /* \"#utility.yul\":13163:13175   */\n      add\n        /* \"#utility.yul\":13156:13175   */\n      swap1\n      pop\n        /* \"#utility.yul\":12815:13181   */\n      swap2\n      swap1\n      pop\n      jump\t// out\n        /* \"#utility.yul\":13187:13606   */\n    tag_82:\n        /* \"#utility.yul\":13353:13357   */\n      0x00\n        /* \"#utility.yul\":13391:13393   */\n      0x20\n        /* \"#utility.yul\":13380:13389   */\n      dup3\n        /* \"#utility.yul\":13376:13394   */\n      add\n        /* \"#utility.yul\":13368:13394   */\n      swap1\n      pop\n        /* \"#utility.yul\":13440:13449   */\n      dup2\n        /* \"#utility.yul\":13434:13438   */\n      dup2\n        /* \"#utility.yul\":13430:13450   */\n      sub\n        /* \"#utility.yul\":13426:13427   */\n      0x00\n        /* \"#utility.yul\":13415:13424   */\n      dup4\n        /* \"#utility.yul\":13411:13428   */\n      add\n        /* \"#utility.yul\":13404:13451   */\n      mstore\n        /* \"#utility.yul\":13468:13599   */\n      tag_312\n        /* \"#utility.yul\":13594:13598   */\n      dup2\n        /* \"#utility.yul\":13468:13599   */\n      tag_173\n      jump\t// in\n    tag_312:\n        /* \"#utility.yul\":13460:13599   */\n      swap1\n      pop\n        /* \"#utility.yul\":13187:13606   */\n      swap2\n      swap1\n      pop\n      jump\t// out\n        /* \"#utility.yul\":13612:13773   */\n    tag_174:\n        /* \"#utility.yul\":13752:13765   */\n      0x6e6f742063726561746f72000000000000000000000000000000000000000000\n        /* \"#utility.yul\":13748:13749   */\n      0x00\n        /* \"#utility.yul\":13740:13746   */\n      dup3\n        /* \"#utility.yul\":13736:13750   */\n      add\n        /* \"#utility.yul\":13729:13766   */\n      mstore\n        /* \"#utility.yul\":13612:13773   */\n      pop\n      jump\t// out\n        /* \"#utility.yul\":13779:14145   */\n    tag_175:\n        /* \"#utility.yul\":13921:13924   */\n      0x00\n        /* \"#utility.yul\":13942:14009   */\n      tag_315\n        /* \"#utility.yul\":14006:14008   */\n      0x0b\n        /* \"#utility.yul\":14001:14004   */\n      dup4\n        /* \"#utility.yul\":13942:14009   */\n      tag_158\n      jump\t// in\n    tag_315:\n        /* \"#utility.yul\":13935:14009   */\n      swap2\n      pop\n        /* \"#utility.yul\":14018:14111   */\n      tag_316\n        /* \"#utility.yul\":14107:14110   */\n      dup3\n        /* \"#utility.yul\":14018:14111   */\n      tag_174\n      jump\t// in\n    tag_316:\n        /* \"#utility.yul\":14136:14138   */\n      0x20\n        /* \"#utility.yul\":14131:14134   */\n      dup3\n        /* \"#utility.yul\":14127:14139   */\n      add\n        /* \"#utility.yul\":14120:14139   */\n      swap1\n      pop\n        /* \"#utility.yul\":13779:14145   */\n      swap2\n      swap1\n      pop\n      jump\t// out\n        /* \"#utility.yul\":14151:14570   */\n    tag_91:\n        /* \"#utility.yul\":14317:14321   */\n      0x00\n        /* \"#utility.yul\":14355:14357   */\n      0x20\n        /* \"#utility.yul\":14344:14353   */\n      dup3\n        /* \"#utility.yul\":14340:14358   */\n      add\n        /* \"#utility.yul\":14332:14358   */\n      swap1\n      pop\n        /* \"#utility.yul\":14404:14413   */\n      dup2\n        /* \"#utility.yul\":14398:14402   */\n      dup2\n        /* \"#utility.yul\":14394:14414   */\n      sub\n        /* \"#utility.yul\":14390:14391   */\n      0x00\n        /* \"#utility.yul\":14379:14388   */\n      dup4\n        /* \"#utility.yul\":14375:14392   */\n      add\n        /* \"#utility.yul\":14368:14415   */\n      mstore\n        /* \"#utility.yul\":14432:14563   */\n      tag_318\n        /* \"#utility.yul\":14558:14562   */\n      dup2\n        /* \"#utility.yul\":14432:14563   */\n      tag_175\n      jump\t// in\n    tag_318:\n        /* \"#utility.yul\":14424:14563   */\n      swap1\n      pop\n        /* \"#utility.yul\":14151:14570   */\n      swap2\n      swap1\n      pop\n      jump\t// out\n        /* \"#utility.yul\":14576:14733   */\n    tag_176:\n        /* \"#utility.yul\":14716:14725   */\n      0x636c61696d656400000000000000000000000000000000000000000000000000\n        /* \"#utility.yul\":14712:14713   */\n      0x00\n        /* \"#utility.yul\":14704:14710   */\n      dup3\n        /* \"#utility.yul\":14700:14714   */\n      add\n        /* \"#utility.yul\":14693:14726   */\n      mstore\n        /* \"#utility.yul\":14576:14733   */\n      pop\n      jump\t// out\n        /* \"#utility.yul\":14739:15104   */\n    tag_177:\n        /* \"#utility.yul\":14881:14884   */\n      0x00\n        /* \"#utility.yul\":14902:14968   */\n      tag_321\n        /* \"#utility.yul\":14966:14967   */\n      0x07\n        /* \"#utility.yul\":14961:14964   */\n      dup4\n        /* \"#utility.yul\":14902:14968   */\n      tag_158\n      jump\t// in\n    tag_321:\n        /* \"#utility.yul\":14895:14968   */\n      swap2\n      pop\n        /* \"#utility.yul\":14977:15070   */\n      tag_322\n        /* \"#utility.yul\":15066:15069   */\n      dup3\n        /* \"#utility.yul\":14977:15070   */\n      tag_176\n      jump\t// in\n    tag_322:\n        /* \"#utility.yul\":15095:15097   */\n      0x20\n        /* \"#utility.yul\":15090:15093   */\n      dup3\n        /* \"#utility.yul\":15086:15098   */\n      add\n        /* \"#utility.yul\":15079:15098   */\n      swap1\n      pop\n        /* \"#utility.yul\":14739:15104   */\n      swap2\n      swap1\n      pop\n      jump\t// out\n        /* \"#utility.yul\":15110:15529   */\n    tag_96:\n        /* \"#utility.yul\":15276:15280   */\n      0x00\n        /* \"#utility.yul\":15314:15316   */\n      0x20\n        /* \"#utility.yul\":15303:15312   */\n      dup3\n        /* \"#utility.yul\":15299:15317   */\n      add\n        /* \"#utility.yul\":15291:15317   */\n      swap1\n      pop\n        /* \"#utility.yul\":15363:15372   */\n      dup2\n        /* \"#utility.yul\":15357:15361   */\n      dup2\n        /* \"#utility.yul\":15353:15373   */\n      sub\n        /* \"#utility.yul\":15349:15350   */\n      0x00\n        /* \"#utility.yul\":15338:15347   */\n      dup4\n        /* \"#utility.yul\":15334:15351   */\n      add\n        /* \"#utility.yul\":15327:15374   */\n      mstore\n        /* \"#utility.yul\":15391:15522   */\n      tag_324\n        /* \"#utility.yul\":15517:15521   */\n      dup2\n        /* \"#utility.yul\":15391:15522   */\n      tag_177\n      jump\t// in\n    tag_324:\n        /* \"#utility.yul\":15383:15522   */\n      swap1\n      pop\n        /* \"#utility.yul\":15110:15529   */\n      swap2\n      swap1\n      pop\n      jump\t// out\n        /* \"#utility.yul\":15535:15692   */\n    tag_178:\n        /* \"#utility.yul\":15675:15684   */\n      0x7374617274656400000000000000000000000000000000000000000000000000\n        /* \"#utility.yul\":15671:15672   */\n      0x00\n        /* \"#utility.yul\":15663:15669   */\n      dup3\n        /* \"#utility.yul\":15659:15673   */\n      add\n        /* \"#utility.yul\":15652:15685   */\n      mstore\n        /* \"#utility.yul\":15535:15692   */\n      pop\n      jump\t// out\n        /* \"#utility.yul\":15698:16063   */\n    tag_179:\n        /* \"#utility.yul\":15840:15843   */\n      0x00\n        /* \"#utility.yul\":15861:15927   */\n      tag_327\n        /* \"#utility.yul\":15925:15926   */\n      0x07\n        /* \"#utility.yul\":15920:15923   */\n      dup4\n        /* \"#utility.yul\":15861:15927   */\n      tag_158\n      jump\t// in\n    tag_327:\n        /* \"#utility.yul\":15854:15927   */\n      swap2\n      pop\n        /* \"#utility.yul\":15936:16029   */\n      tag_328\n        /* \"#utility.yul\":16025:16028   */\n      dup3\n        /* \"#utility.yul\":15936:16029   */\n      tag_178\n      jump\t// in\n    tag_328:\n        /* \"#utility.yul\":16054:16056   */\n      0x20\n        /* \"#utility.yul\":16049:16052   */\n      dup3\n        /* \"#utility.yul\":16045:16057   */\n      add\n        /* \"#utility.yul\":16038:16057   */\n      swap1\n      pop\n        /* \"#utility.yul\":15698:16063   */\n      swap2\n      swap1\n      pop\n      jump\t// out\n        /* \"#utility.yul\":16069:16488   */\n    tag_107:\n        /* \"#utility.yul\":16235:16239   */\n      0x00\n        /* \"#utility.yul\":16273:16275   */\n      0x20\n        /* \"#utility.yul\":16262:16271   */\n      dup3\n        /* \"#utility.yul\":16258:16276   */\n      add\n        /* \"#utility.yul\":16250:16276   */\n      swap1\n      pop\n        /* \"#utility.yul\":16322:16331   */\n      dup2\n        /* \"#utility.yul\":16316:16320   */\n      dup2\n        /* \"#utility.yul\":16312:16332   */\n      sub\n        /* \"#utility.yul\":16308:16309   */\n      0x00\n        /* \"#utility.yul\":16297:16306   */\n      dup4\n        /* \"#utility.yul\":16293:16310   */\n      add\n        /* \"#utility.yul\":16286:16333   */\n      mstore\n        /* \"#utility.yul\":16350:16481   */\n      tag_330\n        /* \"#utility.yul\":16476:16480   */\n      dup2\n        /* \"#utility.yul\":16350:16481   */\n      tag_179\n      jump\t// in\n    tag_330:\n        /* \"#utility.yul\":16342:16481   */\n      swap1\n      pop\n        /* \"#utility.yul\":16069:16488   */\n      swap2\n      swap1\n      pop\n      jump\t// out\n        /* \"#utility.yul\":16494:16688   */\n    tag_115:\n        /* \"#utility.yul\":16534:16538   */\n      0x00\n        /* \"#utility.yul\":16554:16574   */\n      tag_332\n        /* \"#utility.yul\":16572:16573   */\n      dup3\n        /* \"#utility.yul\":16554:16574   */\n      tag_135\n      jump\t// in\n    tag_332:\n        /* \"#utility.yul\":16549:16574   */\n      swap2\n      pop\n        /* \"#utility.yul\":16588:16608   */\n      tag_333\n        /* \"#utility.yul\":16606:16607   */\n      dup4\n        /* \"#utility.yul\":16588:16608   */\n      tag_135\n      jump\t// in\n    tag_333:\n        /* \"#utility.yul\":16583:16608   */\n      swap3\n      pop\n        /* \"#utility.yul\":16632:16633   */\n      dup3\n        /* \"#utility.yul\":16629:16630   */\n      dup3\n        /* \"#utility.yul\":16625:16634   */\n      sub\n        /* \"#utility.yul\":16617:16634   */\n      swap1\n      pop\n        /* \"#utility.yul\":16656:16657   */\n      dup2\n        /* \"#utility.yul\":16650:16654   */\n      dup2\n        /* \"#utility.yul\":16647:16658   */\n      gt\n        /* \"#utility.yul\":16644:16681   */\n      iszero\n      tag_334\n      jumpi\n        /* \"#utility.yul\":16661:16679   */\n      tag_335\n      tag_171\n      jump\t// in\n    tag_335:\n        /* \"#utility.yul\":16644:16681   */\n    tag_334:\n        /* \"#utility.yul\":16494:16688   */\n      swap3\n      swap2\n      pop\n      pop\n      jump\t// out\n        /* \"#utility.yul\":16694:17136   */\n    tag_130:\n        /* \"#utility.yul\":16843:16847   */\n      0x00\n        /* \"#utility.yul\":16881:16883   */\n      0x60\n        /* \"#utility.yul\":16870:16879   */\n      dup3\n        /* \"#utility.yul\":16866:16884   */\n      add\n        /* \"#utility.yul\":16858:16884   */\n      swap1\n      pop\n        /* \"#utility.yul\":16894:16965   */\n      tag_337\n        /* \"#utility.yul\":16962:16963   */\n      0x00\n        /* \"#utility.yul\":16951:16960   */\n      dup4\n        /* \"#utility.yul\":16947:16964   */\n      add\n        /* \"#utility.yul\":16938:16944   */\n      dup7\n        /* \"#utility.yul\":16894:16965   */\n      tag_144\n      jump\t// in\n    tag_337:\n        /* \"#utility.yul\":16975:17047   */\n      tag_338\n        /* \"#utility.yul\":17043:17045   */\n      0x20\n        /* \"#utility.yul\":17032:17041   */\n      dup4\n        /* \"#utility.yul\":17028:17046   */\n      add\n        /* \"#utility.yul\":17019:17025   */\n      dup6\n        /* \"#utility.yul\":16975:17047   */\n      tag_144\n      jump\t// in\n    tag_338:\n        /* \"#utility.yul\":17057:17129   */\n      tag_339\n        /* \"#utility.yul\":17125:17127   */\n      0x40\n        /* \"#utility.yul\":17114:17123   */\n      dup4\n        /* \"#utility.yul\":17110:17128   */\n      add\n        /* \"#utility.yul\":17101:17107   */\n      dup5\n        /* \"#utility.yul\":17057:17129   */\n      tag_136\n      jump\t// in\n    tag_339:\n        /* \"#utility.yul\":16694:17136   */\n      swap5\n      swap4\n      pop\n      pop\n      pop\n      pop\n      jump\t// out\n\n    auxdata: 0xa2646970667358221220a16251d878dc1a63ccb9645d3d351aebf6a8507f57fe3e7c4b09071d8ef0a71f64736f6c634300081e0033\n}\n",
				"bytecode": {
					"linkReferences": {},
					"object": "60a060405234801561000f575f5ffd5b50604051611d8f380380611d8f833981810160405281019061003191906100c9565b8073ffffffffffffffffffffffffffffffffffffffff1660808173ffffffffffffffffffffffffffffffffffffffff1681525050506100f4565b5f5ffd5b5f73ffffffffffffffffffffffffffffffffffffffff82169050919050565b5f6100988261006f565b9050919050565b6100a88161008e565b81146100b2575f5ffd5b50565b5f815190506100c38161009f565b92915050565b5f602082840312156100de576100dd61006b565b5b5f6100eb848285016100b5565b91505092915050565b608051611c676101285f395f81816104e601528181610aa701528181610ff401528181611104015261132a0152611c675ff3fe608060405234801561000f575f5ffd5b506004361061009c575f3560e01c806340e58ee51161006457806340e58ee514610147578063711853ab14610163578063aa4fb63a1461017f578063fc0c546a146101af578063fde327be146101cd5761009c565b806306661abd146100a0578063141961bc146100be578063278ecde1146100f35780632c63f1461461010f578063379607f51461012b575b5f5ffd5b6100a86101e9565b6040516100b59190611432565b60405180910390f35b6100d860048036038101906100d39190611479565b6101ee565b6040516100ea9695949392919061151b565b60405180910390f35b61010d60048036038101906101089190611479565b610271565b005b610129600480360381019061012491906115a4565b6105d5565b005b61014560048036038101906101409190611479565b61080c565b005b610161600480360381019061015c9190611479565b610b83565b005b61017d600480360381019061017891906115f4565b610df0565b005b6101996004803603810190610194919061165c565b6110e2565b6040516101a69190611432565b60405180910390f35b6101b7611102565b6040516101c491906116f5565b60405180910390f35b6101e760048036038101906101e291906115f4565b611126565b005b5f5481565b6001602052805f5260405f205f91509050805f015f9054906101000a900473ffffffffffffffffffffffffffffffffffffffff1690806001015490806002015490806003015f9054906101000a900463ffffffff16908060030160049054906101000a900463ffffffff16908060030160089054906101000a900460ff16905086565b5f60015f8381526020019081526020015f206040518060c00160405290815f82015f9054906101000a900473ffffffffffffffffffffffffffffffffffffffff1673ffffffffffffffffffffffffffffffffffffffff1673ffffffffffffffffffffffffffffffffffffffff1681526020016001820154815260200160028201548152602001600382015f9054906101000a900463ffffffff1663ffffffff1663ffffffff1681526020016003820160049054906101000a900463ffffffff1663ffffffff1663ffffffff1681526020016003820160089054906101000a900460ff1615151515815250509050806060015163ffffffff164210156103ab576040517f08c379a00000000000000000000000000000000000000000000000000000000081526004016103a290611768565b60405180910390fd5b806080015163ffffffff164211156103f8576040517f08c379a00000000000000000000000000000000000000000000000000000000081526004016103ef906117d0565b60405180910390fd5b806020015181604001511015610443576040517f08c379a000000000000000000000000000000000000000000000000000000000815260040161043a90611838565b60405180910390fd5b5f60025f8481526020019081526020015f205f3373ffffffffffffffffffffffffffffffffffffffff1673ffffffffffffffffffffffffffffffffffffffff1681526020019081526020015f205490505f60025f8581526020019081526020015f205f3373ffffffffffffffffffffffffffffffffffffffff1673ffffffffffffffffffffffffffffffffffffffff1681526020019081526020015f20819055507f000000000000000000000000000000000000000000000000000000000000000073ffffffffffffffffffffffffffffffffffffffff1663a9059cbb33836040518363ffffffff1660e01b815260040161053f929190611856565b6020604051808303815f875af115801561055b573d5f5f3e3d5ffd5b505050506040513d601f19601f8201168201806040525081019061057f91906118a7565b503373ffffffffffffffffffffffffffffffffffffffff167f21e12a7cad0da5928167e1084ea4d5fdf8d9af66657a2543a9ac76a0ca08147784836040516105c89291906118d2565b60405180910390a2505050565b428263ffffffff16101561061e576040517f08c379a000000000000000000000000000000000000000000000000000000000815260040161061590611943565b60405180910390fd5b8163ffffffff168163ffffffff16101561066d576040517f08c379a0000000000000000000000000000000000000000000000000000000008152600401610664906119ab565b60405180910390fd5b6276a7004261067c91906119f6565b8163ffffffff1611156106c4576040517f08c379a00000000000000000000000000000000000000000000000000000000081526004016106bb90611a73565b60405180910390fd5b60015f5f8282546106d591906119f6565b925050819055506040518060c001604052803373ffffffffffffffffffffffffffffffffffffffff1681526020018481526020015f81526020018363ffffffff1681526020018263ffffffff1681526020015f151581525060015f5f5481526020019081526020015f205f820151815f015f6101000a81548173ffffffffffffffffffffffffffffffffffffffff021916908373ffffffffffffffffffffffffffffffffffffffff16021790555060208201518160010155604082015181600201556060820151816003015f6101000a81548163ffffffff021916908363ffffffff16021790555060808201518160030160046101000a81548163ffffffff021916908363ffffffff16021790555060a08201518160030160086101000a81548160ff021916908315150217905550905050505050565b5f60015f8381526020019081526020015f206040518060c00160405290815f82015f9054906101000a900473ffffffffffffffffffffffffffffffffffffffff1673ffffffffffffffffffffffffffffffffffffffff1673ffffffffffffffffffffffffffffffffffffffff1681526020016001820154815260200160028201548152602001600382015f9054906101000a900463ffffffff1663ffffffff1663ffffffff1681526020016003820160049054906101000a900463ffffffff1663ffffffff1663ffffffff1681526020016003820160089054906101000a900460ff1615151515815250509050806060015163ffffffff16421015610946576040517f08c379a000000000000000000000000000000000000000000000000000000000815260040161093d90611768565b60405180910390fd5b806080015163ffffffff16421115610993576040517f08c379a000000000000000000000000000000000000000000000000000000000815260040161098a906117d0565b60405180910390fd5b3373ffffffffffffffffffffffffffffffffffffffff16815f015173ffffffffffffffffffffffffffffffffffffffff1614610a04576040517f08c379a00000000000000000000000000000000000000000000000000000000081526004016109fb90611adb565b60405180910390fd5b806020015181604001511015610a4f576040517f08c379a0000000000000000000000000000000000000000000000000000000008152600401610a4690611838565b60405180910390fd5b8060a0015115610a94576040517f08c379a0000000000000000000000000000000000000000000000000000000008152600401610a8b90611b43565b60405180910390fd5b60018160a00190151590811515815250507f000000000000000000000000000000000000000000000000000000000000000073ffffffffffffffffffffffffffffffffffffffff1663a9059cbb825f015183604001516040518363ffffffff1660e01b8152600401610b07929190611856565b6020604051808303815f875af1158015610b23573d5f5f3e3d5ffd5b505050506040513d601f19601f82011682018060405250810190610b4791906118a7565b507f7bb2b3c10797baccb6f8c4791f1edd6ca2f0d028ee0eda64b01a9a57e3a653f782604051610b779190611432565b60405180910390a15050565b5f60015f8381526020019081526020015f206040518060c00160405290815f82015f9054906101000a900473ffffffffffffffffffffffffffffffffffffffff1673ffffffffffffffffffffffffffffffffffffffff1673ffffffffffffffffffffffffffffffffffffffff1681526020016001820154815260200160028201548152602001600382015f9054906101000a900463ffffffff1663ffffffff1663ffffffff1681526020016003820160049054906101000a900463ffffffff1663ffffffff1663ffffffff1681526020016003820160089054906101000a900460ff16151515158152505090503373ffffffffffffffffffffffffffffffffffffffff16815f015173ffffffffffffffffffffffffffffffffffffffff1614610ce1576040517f08c379a0000000000000000000000000000000000000000000000000000000008152600401610cd890611adb565b60405180910390fd5b806060015163ffffffff164210610d2d576040517f08c379a0000000000000000000000000000000000000000000000000000000008152600401610d2490611bab565b60405180910390fd5b60015f8381526020019081526020015f205f5f82015f6101000a81549073ffffffffffffffffffffffffffffffffffffffff0219169055600182015f9055600282015f9055600382015f6101000a81549063ffffffff02191690556003820160046101000a81549063ffffffff02191690556003820160086101000a81549060ff021916905550507f8bf30e7ff26833413be5f69e1d373744864d600b664204b4a2f9844a8eedb9ed82604051610de49190611432565b60405180910390a15050565b5f60015f8481526020019081526020015f206040518060c00160405290815f82015f9054906101000a900473ffffffffffffffffffffffffffffffffffffffff1673ffffffffffffffffffffffffffffffffffffffff1673ffffffffffffffffffffffffffffffffffffffff1681526020016001820154815260200160028201548152602001600382015f9054906101000a900463ffffffff1663ffffffff1663ffffffff1681526020016003820160049054906101000a900463ffffffff1663ffffffff1663ffffffff1681526020016003820160089054906101000a900460ff1615151515815250509050806060015163ffffffff16421015610f2a576040517f08c379a0000000000000000000000000000000000000000000000000000000008152600401610f2190611768565b60405180910390fd5b806080015163ffffffff16421115610f77576040517f08c379a0000000000000000000000000000000000000000000000000000000008152600401610f6e906117d0565b60405180910390fd5b8181604001818151610f899190611bc9565b915081815250508160025f8581526020019081526020015f205f3373ffffffffffffffffffffffffffffffffffffffff1673ffffffffffffffffffffffffffffffffffffffff1681526020019081526020015f205f828254610feb9190611bc9565b925050819055507f000000000000000000000000000000000000000000000000000000000000000073ffffffffffffffffffffffffffffffffffffffff1663a9059cbb33846040518363ffffffff1660e01b815260040161104d929190611856565b6020604051808303815f875af1158015611069573d5f5f3e3d5ffd5b505050506040513d601f19601f8201168201806040525081019061108d91906118a7565b503373ffffffffffffffffffffffffffffffffffffffff16837f2eeeab891b26a214d1b25749f88a406bdea852bd8c9bfda977e0ef8114c180ba846040516110d59190611432565b60405180910390a3505050565b6002602052815f5260405f20602052805f5260405f205f91509150505481565b7f000000000000000000000000000000000000000000000000000000000000000081565b5f60015f8481526020019081526020015f206040518060c00160405290815f82015f9054906101000a900473ffffffffffffffffffffffffffffffffffffffff1673ffffffffffffffffffffffffffffffffffffffff1673ffffffffffffffffffffffffffffffffffffffff1681526020016001820154815260200160028201548152602001600382015f9054906101000a900463ffffffff1663ffffffff1663ffffffff1681526020016003820160049054906101000a900463ffffffff1663ffffffff1663ffffffff1681526020016003820160089054906101000a900460ff1615151515815250509050806060015163ffffffff16421015611260576040517f08c379a000000000000000000000000000000000000000000000000000000000815260040161125790611768565b60405180910390fd5b806080015163ffffffff164211156112ad576040517f08c379a00000000000000000000000000000000000000000000000000000000081526004016112a4906117d0565b60405180910390fd5b81816040018181516112bf91906119f6565b915081815250508160025f8581526020019081526020015f205f3373ffffffffffffffffffffffffffffffffffffffff1673ffffffffffffffffffffffffffffffffffffffff1681526020019081526020015f205f82825461132191906119f6565b925050819055507f000000000000000000000000000000000000000000000000000000000000000073ffffffffffffffffffffffffffffffffffffffff166323b872dd3330856040518463ffffffff1660e01b815260040161138593929190611bfc565b6020604051808303815f875af11580156113a1573d5f5f3e3d5ffd5b505050506040513d601f19601f820116820180604052508101906113c591906118a7565b503373ffffffffffffffffffffffffffffffffffffffff16837f06bdb975df800a73232998e71ed585d536222f1dfeaa622d7f62a23ada686c828460405161140d9190611432565b60405180910390a3505050565b5f819050919050565b61142c8161141a565b82525050565b5f6020820190506114455f830184611423565b92915050565b5f5ffd5b6114588161141a565b8114611462575f5ffd5b50565b5f813590506114738161144f565b92915050565b5f6020828403121561148e5761148d61144b565b5b5f61149b84828501611465565b91505092915050565b5f73ffffffffffffffffffffffffffffffffffffffff82169050919050565b5f6114cd826114a4565b9050919050565b6114dd816114c3565b82525050565b5f63ffffffff82169050919050565b6114fb816114e3565b82525050565b5f8115159050919050565b61151581611501565b82525050565b5f60c08201905061152e5f8301896114d4565b61153b6020830188611423565b6115486040830187611423565b61155560608301866114f2565b61156260808301856114f2565b61156f60a083018461150c565b979650505050505050565b611583816114e3565b811461158d575f5ffd5b50565b5f8135905061159e8161157a565b92915050565b5f5f5f606084860312156115bb576115ba61144b565b5b5f6115c886828701611465565b93505060206115d986828701611590565b92505060406115ea86828701611590565b9150509250925092565b5f5f6040838503121561160a5761160961144b565b5b5f61161785828601611465565b925050602061162885828601611465565b9150509250929050565b61163b816114c3565b8114611645575f5ffd5b50565b5f8135905061165681611632565b92915050565b5f5f604083850312156116725761167161144b565b5b5f61167f85828601611465565b925050602061169085828601611648565b9150509250929050565b5f819050919050565b5f6116bd6116b86116b3846114a4565b61169a565b6114a4565b9050919050565b5f6116ce826116a3565b9050919050565b5f6116df826116c4565b9050919050565b6116ef816116d5565b82525050565b5f6020820190506117085f8301846116e6565b92915050565b5f82825260208201905092915050565b7f6e6f7420737461727465640000000000000000000000000000000000000000005f82015250565b5f611752600b8361170e565b915061175d8261171e565b602082019050919050565b5f6020820190508181035f83015261177f81611746565b9050919050565b7f656e6465640000000000000000000000000000000000000000000000000000005f82015250565b5f6117ba60058361170e565b91506117c582611786565b602082019050919050565b5f6020820190508181035f8301526117e7816117ae565b9050919050565b7f706c6564676564203c20676f616c0000000000000000000000000000000000005f82015250565b5f611822600e8361170e565b915061182d826117ee565b602082019050919050565b5f6020820190508181035f83015261184f81611816565b9050919050565b5f6040820190506118695f8301856114d4565b6118766020830184611423565b9392505050565b61188681611501565b8114611890575f5ffd5b50565b5f815190506118a18161187d565b92915050565b5f602082840312156118bc576118bb61144b565b5b5f6118c984828501611893565b91505092915050565b5f6040820190506118e55f830185611423565b6118f26020830184611423565b9392505050565b7f7374617274206174203c206e6f770000000000000000000000000000000000005f82015250565b5f61192d600e8361170e565b9150611938826118f9565b602082019050919050565b5f6020820190508181035f83015261195a81611921565b9050919050565b7f656e64206174203c2073746172742061740000000000000000000000000000005f82015250565b5f61199560118361170e565b91506119a082611961565b602082019050919050565b5f6020820190508181035f8301526119c281611989565b9050919050565b7f4e487b71000000000000000000000000000000000000000000000000000000005f52601160045260245ffd5b5f611a008261141a565b9150611a0b8361141a565b9250828201905080821115611a2357611a226119c9565b5b92915050565b7f656e64206174203e206d6178206475726174696f6e00000000000000000000005f82015250565b5f611a5d60158361170e565b9150611a6882611a29565b602082019050919050565b5f6020820190508181035f830152611a8a81611a51565b9050919050565b7f6e6f742063726561746f720000000000000000000000000000000000000000005f82015250565b5f611ac5600b8361170e565b9150611ad082611a91565b602082019050919050565b5f6020820190508181035f830152611af281611ab9565b9050919050565b7f636c61696d6564000000000000000000000000000000000000000000000000005f82015250565b5f611b2d60078361170e565b9150611b3882611af9565b602082019050919050565b5f6020820190508181035f830152611b5a81611b21565b9050919050565b7f73746172746564000000000000000000000000000000000000000000000000005f82015250565b5f611b9560078361170e565b9150611ba082611b61565b602082019050919050565b5f6020820190508181035f830152611bc281611b89565b9050919050565b5f611bd38261141a565b9150611bde8361141a565b9250828203905081811115611bf657611bf56119c9565b5b92915050565b5f606082019050611c0f5f8301866114d4565b611c1c60208301856114d4565b611c296040830184611423565b94935050505056fea2646970667358221220a16251d878dc1a63ccb9645d3d351aebf6a8507f57fe3e7c4b09071d8ef0a71f64736f6c634300081e0033",
					"opcodes": "PUSH1 0xA0 PUSH1 0x40 MSTORE CALLVALUE DUP1 ISZERO PUSH2 0xF JUMPI PUSH0 PUSH0 REVERT JUMPDEST POP PUSH1 0x40 MLOAD PUSH2 0x1D8F CODESIZE SUB DUP1 PUSH2 0x1D8F DUP4 CODECOPY DUP2 DUP2 ADD PUSH1 0x40 MSTORE DUP2 ADD SWAP1 PUSH2 0x31 SWAP2 SWAP1 PUSH2 0xC9 JUMP JUMPDEST DUP1 PUSH20 0xFFFFFFFFFFFFFFFFFFFFFFFFFFFFFFFFFFFFFFFF AND PUSH1 0x80 DUP2 PUSH20 0xFFFFFFFFFFFFFFFFFFFFFFFFFFFFFFFFFFFFFFFF AND DUP2 MSTORE POP POP POP PUSH2 0xF4 JUMP JUMPDEST PUSH0 PUSH0 REVERT JUMPDEST PUSH0 PUSH20 0xFFFFFFFFFFFFFFFFFFFFFFFFFFFFFFFFFFFFFFFF DUP3 AND SWAP1 POP SWAP2 SWAP1 POP JUMP JUMPDEST PUSH0 PUSH2 0x98 DUP3 PUSH2 0x6F JUMP JUMPDEST SWAP1 POP SWAP2 SWAP1 POP JUMP JUMPDEST PUSH2 0xA8 DUP2 PUSH2 0x8E JUMP JUMPDEST DUP2 EQ PUSH2 0xB2 JUMPI PUSH0 PUSH0 REVERT JUMPDEST POP JUMP JUMPDEST PUSH0 DUP2 MLOAD SWAP1 POP PUSH2 0xC3 DUP2 PUSH2 0x9F JUMP JUMPDEST SWAP3 SWAP2 POP POP JUMP JUMPDEST PUSH0 PUSH1 0x20 DUP3 DUP5 SUB SLT ISZERO PUSH2 0xDE JUMPI PUSH2 0xDD PUSH2 0x6B JUMP JUMPDEST JUMPDEST PUSH0 PUSH2 0xEB DUP5 DUP3 DUP6 ADD PUSH2 0xB5 JUMP JUMPDEST SWAP2 POP POP SWAP3 SWAP2 POP POP JUMP JUMPDEST PUSH1 0x80 MLOAD PUSH2 0x1C67 PUSH2 0x128 PUSH0 CODECOPY PUSH0 DUP2 DUP2 PUSH2 0x4E6 ADD MSTORE DUP2 DUP2 PUSH2 0xAA7 ADD MSTORE DUP2 DUP2 PUSH2 0xFF4 ADD MSTORE DUP2 DUP2 PUSH2 0x1104 ADD MSTORE PUSH2 0x132A ADD MSTORE PUSH2 0x1C67 PUSH0 RETURN INVALID PUSH1 0x80 PUSH1 0x40 MSTORE CALLVALUE DUP1 ISZERO PUSH2 0xF JUMPI PUSH0 PUSH0 REVERT JUMPDEST POP PUSH1 0x4 CALLDATASIZE LT PUSH2 0x9C JUMPI PUSH0 CALLDATALOAD PUSH1 0xE0 SHR DUP1 PUSH4 0x40E58EE5 GT PUSH2 0x64 JUMPI DUP1 PUSH4 0x40E58EE5 EQ PUSH2 0x147 JUMPI DUP1 PUSH4 0x711853AB EQ PUSH2 0x163 JUMPI DUP1 PUSH4 0xAA4FB63A EQ PUSH2 0x17F JUMPI DUP1 PUSH4 0xFC0C546A EQ PUSH2 0x1AF JUMPI DUP1 PUSH4 0xFDE327BE EQ PUSH2 0x1CD JUMPI PUSH2 0x9C JUMP JUMPDEST DUP1 PUSH4 0x6661ABD EQ PUSH2 0xA0 JUMPI DUP1 PUSH4 0x141961BC EQ PUSH2 0xBE JUMPI DUP1 PUSH4 0x278ECDE1 EQ PUSH2 0xF3 JUMPI DUP1 PUSH4 0x2C63F146 EQ PUSH2 0x10F JUMPI DUP1 PUSH4 0x379607F5 EQ PUSH2 0x12B JUMPI JUMPDEST PUSH0 PUSH0 REVERT JUMPDEST PUSH2 0xA8 PUSH2 0x1E9 JUMP JUMPDEST PUSH1 0x40 MLOAD PUSH2 0xB5 SWAP2 SWAP1 PUSH2 0x1432 JUMP JUMPDEST PUSH1 0x40 MLOAD DUP1 SWAP2 SUB SWAP1 RETURN JUMPDEST PUSH2 0xD8 PUSH1 0x4 DUP1 CALLDATASIZE SUB DUP2 ADD SWAP1 PUSH2 0xD3 SWAP2 SWAP1 PUSH2 0x1479 JUMP JUMPDEST PUSH2 0x1EE JUMP JUMPDEST PUSH1 0x40 MLOAD PUSH2 0xEA SWAP7 SWAP6 SWAP5 SWAP4 SWAP3 SWAP2 SWAP1 PUSH2 0x151B JUMP JUMPDEST PUSH1 0x40 MLOAD DUP1 SWAP2 SUB SWAP1 RETURN JUMPDEST PUSH2 0x10D PUSH1 0x4 DUP1 CALLDATASIZE SUB DUP2 ADD SWAP1 PUSH2 0x108 SWAP2 SWAP1 PUSH2 0x1479 JUMP JUMPDEST PUSH2 0x271 JUMP JUMPDEST STOP JUMPDEST PUSH2 0x129 PUSH1 0x4 DUP1 CALLDATASIZE SUB DUP2 ADD SWAP1 PUSH2 0x124 SWAP2 SWAP1 PUSH2 0x15A4 JUMP JUMPDEST PUSH2 0x5D5 JUMP JUMPDEST STOP JUMPDEST PUSH2 0x145 PUSH1 0x4 DUP1 CALLDATASIZE SUB DUP2 ADD SWAP1 PUSH2 0x140 SWAP2 SWAP1 PUSH2 0x1479 JUMP JUMPDEST PUSH2 0x80C JUMP JUMPDEST STOP JUMPDEST PUSH2 0x161 PUSH1 0x4 DUP1 CALLDATASIZE SUB DUP2 ADD SWAP1 PUSH2 0x15C SWAP2 SWAP1 PUSH2 0x1479 JUMP JUMPDEST PUSH2 0xB83 JUMP JUMPDEST STOP JUMPDEST PUSH2 0x17D PUSH1 0x4 DUP1 CALLDATASIZE SUB DUP2 ADD SWAP1 PUSH2 0x178 SWAP2 SWAP1 PUSH2 0x15F4 JUMP JUMPDEST PUSH2 0xDF0 JUMP JUMPDEST STOP JUMPDEST PUSH2 0x199 PUSH1 0x4 DUP1 CALLDATASIZE SUB DUP2 ADD SWAP1 PUSH2 0x194 SWAP2 SWAP1 PUSH2 0x165C JUMP JUMPDEST PUSH2 0x10E2 JUMP JUMPDEST PUSH1 0x40 MLOAD PUSH2 0x1A6 SWAP2 SWAP1 PUSH2 0x1432 JUMP JUMPDEST PUSH1 0x40 MLOAD DUP1 SWAP2 SUB SWAP1 RETURN JUMPDEST PUSH2 0x1B7 PUSH2 0x1102 JUMP JUMPDEST PUSH1 0x40 MLOAD PUSH2 0x1C4 SWAP2 SWAP1 PUSH2 0x16F5 JUMP JUMPDEST PUSH1 0x40 MLOAD DUP1 SWAP2 SUB SWAP1 RETURN JUMPDEST PUSH2 0x1E7 PUSH1 0x4 DUP1 CALLDATASIZE SUB DUP2 ADD SWAP1 PUSH2 0x1E2 SWAP2 SWAP1 PUSH2 0x15F4 JUMP JUMPDEST PUSH2 0x1126 JUMP JUMPDEST STOP JUMPDEST PUSH0 SLOAD DUP2 JUMP JUMPDEST PUSH1 0x1 PUSH1 0x20 MSTORE DUP1 PUSH0 MSTORE PUSH1 0x40 PUSH0 KECCAK256 PUSH0 SWAP2 POP SWAP1 POP DUP1 PUSH0 ADD PUSH0 SWAP1 SLOAD SWAP1 PUSH2 0x100 EXP SWAP1 DIV PUSH20 0xFFFFFFFFFFFFFFFFFFFFFFFFFFFFFFFFFFFFFFFF AND SWAP1 DUP1 PUSH1 0x1 ADD SLOAD SWAP1 DUP1 PUSH1 0x2 ADD SLOAD SWAP1 DUP1 PUSH1 0x3 ADD PUSH0 SWAP1 SLOAD SWAP1 PUSH2 0x100 EXP SWAP1 DIV PUSH4 0xFFFFFFFF AND SWAP1 DUP1 PUSH1 0x3 ADD PUSH1 0x4 SWAP1 SLOAD SWAP1 PUSH2 0x100 EXP SWAP1 DIV PUSH4 0xFFFFFFFF AND SWAP1 DUP1 PUSH1 0x3 ADD PUSH1 0x8 SWAP1 SLOAD SWAP1 PUSH2 0x100 EXP SWAP1 DIV PUSH1 0xFF AND SWAP1 POP DUP7 JUMP JUMPDEST PUSH0 PUSH1 0x1 PUSH0 DUP4 DUP2 MSTORE PUSH1 0x20 ADD SWAP1 DUP2 MSTORE PUSH1 0x20 ADD PUSH0 KECCAK256 PUSH1 0x40 MLOAD DUP1 PUSH1 0xC0 ADD PUSH1 0x40 MSTORE SWAP1 DUP2 PUSH0 DUP3 ADD PUSH0 SWAP1 SLOAD SWAP1 PUSH2 0x100 EXP SWAP1 DIV PUSH20 0xFFFFFFFFFFFFFFFFFFFFFFFFFFFFFFFFFFFFFFFF AND PUSH20 0xFFFFFFFFFFFFFFFFFFFFFFFFFFFFFFFFFFFFFFFF AND PUSH20 0xFFFFFFFFFFFFFFFFFFFFFFFFFFFFFFFFFFFFFFFF AND DUP2 MSTORE PUSH1 0x20 ADD PUSH1 0x1 DUP3 ADD SLOAD DUP2 MSTORE PUSH1 0x20 ADD PUSH1 0x2 DUP3 ADD SLOAD DUP2 MSTORE PUSH1 0x20 ADD PUSH1 0x3 DUP3 ADD PUSH0 SWAP1 SLOAD SWAP1 PUSH2 0x100 EXP SWAP1 DIV PUSH4 0xFFFFFFFF AND PUSH4 0xFFFFFFFF AND PUSH4 0xFFFFFFFF AND DUP2 MSTORE PUSH1 0x20 ADD PUSH1 0x3 DUP3 ADD PUSH1 0x4 SWAP1 SLOAD SWAP1 PUSH2 0x100 EXP SWAP1 DIV PUSH4 0xFFFFFFFF AND PUSH4 0xFFFFFFFF AND PUSH4 0xFFFFFFFF AND DUP2 MSTORE PUSH1 0x20 ADD PUSH1 0x3 DUP3 ADD PUSH1 0x8 SWAP1 SLOAD SWAP1 PUSH2 0x100 EXP SWAP1 DIV PUSH1 0xFF AND ISZERO ISZERO ISZERO ISZERO DUP2 MSTORE POP POP SWAP1 POP DUP1 PUSH1 0x60 ADD MLOAD PUSH4 0xFFFFFFFF AND TIMESTAMP LT ISZERO PUSH2 0x3AB JUMPI PUSH1 0x40 MLOAD PUSH32 0x8C379A000000000000000000000000000000000000000000000000000000000 DUP2 MSTORE PUSH1 0x4 ADD PUSH2 0x3A2 SWAP1 PUSH2 0x1768 JUMP JUMPDEST PUSH1 0x40 MLOAD DUP1 SWAP2 SUB SWAP1 REVERT JUMPDEST DUP1 PUSH1 0x80 ADD MLOAD PUSH4 0xFFFFFFFF AND TIMESTAMP GT ISZERO PUSH2 0x3F8 JUMPI PUSH1 0x40 MLOAD PUSH32 0x8C379A000000000000000000000000000000000000000000000000000000000 DUP2 MSTORE PUSH1 0x4 ADD PUSH2 0x3EF SWAP1 PUSH2 0x17D0 JUMP JUMPDEST PUSH1 0x40 MLOAD DUP1 SWAP2 SUB SWAP1 REVERT JUMPDEST DUP1 PUSH1 0x20 ADD MLOAD DUP2 PUSH1 0x40 ADD MLOAD LT ISZERO PUSH2 0x443 JUMPI PUSH1 0x40 MLOAD PUSH32 0x8C379A000000000000000000000000000000000000000000000000000000000 DUP2 MSTORE PUSH1 0x4 ADD PUSH2 0x43A SWAP1 PUSH2 0x1838 JUMP JUMPDEST PUSH1 0x40 MLOAD DUP1 SWAP2 SUB SWAP1 REVERT JUMPDEST PUSH0 PUSH1 0x2 PUSH0 DUP5 DUP2 MSTORE PUSH1 0x20 ADD SWAP1 DUP2 MSTORE PUSH1 0x20 ADD PUSH0 KECCAK256 PUSH0 CALLER PUSH20 0xFFFFFFFFFFFFFFFFFFFFFFFFFFFFFFFFFFFFFFFF AND PUSH20 0xFFFFFFFFFFFFFFFFFFFFFFFFFFFFFFFFFFFFFFFF AND DUP2 MSTORE PUSH1 0x20 ADD SWAP1 DUP2 MSTORE PUSH1 0x20 ADD PUSH0 KECCAK256 SLOAD SWAP1 POP PUSH0 PUSH1 0x2 PUSH0 DUP6 DUP2 MSTORE PUSH1 0x20 ADD SWAP1 DUP2 MSTORE PUSH1 0x20 ADD PUSH0 KECCAK256 PUSH0 CALLER PUSH20 0xFFFFFFFFFFFFFFFFFFFFFFFFFFFFFFFFFFFFFFFF AND PUSH20 0xFFFFFFFFFFFFFFFFFFFFFFFFFFFFFFFFFFFFFFFF AND DUP2 MSTORE PUSH1 0x20 ADD SWAP1 DUP2 MSTORE PUSH1 0x20 ADD PUSH0 KECCAK256 DUP2 SWAP1 SSTORE POP PUSH32 0x0 PUSH20 0xFFFFFFFFFFFFFFFFFFFFFFFFFFFFFFFFFFFFFFFF AND PUSH4 0xA9059CBB CALLER DUP4 PUSH1 0x40 MLOAD DUP4 PUSH4 0xFFFFFFFF AND PUSH1 0xE0 SHL DUP2 MSTORE PUSH1 0x4 ADD PUSH2 0x53F SWAP3 SWAP2 SWAP1 PUSH2 0x1856 JUMP JUMPDEST PUSH1 0x20 PUSH1 0x40 MLOAD DUP1 DUP4 SUB DUP2 PUSH0 DUP8 GAS CALL ISZERO DUP1 ISZERO PUSH2 0x55B JUMPI RETURNDATASIZE PUSH0 PUSH0 RETURNDATACOPY RETURNDATASIZE PUSH0 REVERT JUMPDEST POP POP POP POP PUSH1 0x40 MLOAD RETURNDATASIZE PUSH1 0x1F NOT PUSH1 0x1F DUP3 ADD AND DUP3 ADD DUP1 PUSH1 0x40 MSTORE POP DUP2 ADD SWAP1 PUSH2 0x57F SWAP2 SWAP1 PUSH2 0x18A7 JUMP JUMPDEST POP CALLER PUSH20 0xFFFFFFFFFFFFFFFFFFFFFFFFFFFFFFFFFFFFFFFF AND PUSH32 0x21E12A7CAD0DA5928167E1084EA4D5FDF8D9AF66657A2543A9AC76A0CA081477 DUP5 DUP4 PUSH1 0x40 MLOAD PUSH2 0x5C8 SWAP3 SWAP2 SWAP1 PUSH2 0x18D2 JUMP JUMPDEST PUSH1 0x40 MLOAD DUP1 SWAP2 SUB SWAP1 LOG2 POP POP POP JUMP JUMPDEST TIMESTAMP DUP3 PUSH4 0xFFFFFFFF AND LT ISZERO PUSH2 0x61E JUMPI PUSH1 0x40 MLOAD PUSH32 0x8C379A000000000000000000000000000000000000000000000000000000000 DUP2 MSTORE PUSH1 0x4 ADD PUSH2 0x615 SWAP1 PUSH2 0x1943 JUMP JUMPDEST PUSH1 0x40 MLOAD DUP1 SWAP2 SUB SWAP1 REVERT JUMPDEST DUP2 PUSH4 0xFFFFFFFF AND DUP2 PUSH4 0xFFFFFFFF AND LT ISZERO PUSH2 0x66D JUMPI PUSH1 0x40 MLOAD PUSH32 0x8C379A000000000000000000000000000000000000000000000000000000000 DUP2 MSTORE PUSH1 0x4 ADD PUSH2 0x664 SWAP1 PUSH2 0x19AB JUMP JUMPDEST PUSH1 0x40 MLOAD DUP1 SWAP2 SUB SWAP1 REVERT JUMPDEST PUSH3 0x76A700 TIMESTAMP PUSH2 0x67C SWAP2 SWAP1 PUSH2 0x19F6 JUMP JUMPDEST DUP2 PUSH4 0xFFFFFFFF AND GT ISZERO PUSH2 0x6C4 JUMPI PUSH1 0x40 MLOAD PUSH32 0x8C379A000000000000000000000000000000000000000000000000000000000 DUP2 MSTORE PUSH1 0x4 ADD PUSH2 0x6BB SWAP1 PUSH2 0x1A73 JUMP JUMPDEST PUSH1 0x40 MLOAD DUP1 SWAP2 SUB SWAP1 REVERT JUMPDEST PUSH1 0x1 PUSH0 PUSH0 DUP3 DUP3 SLOAD PUSH2 0x6D5 SWAP2 SWAP1 PUSH2 0x19F6 JUMP JUMPDEST SWAP3 POP POP DUP2 SWAP1 SSTORE POP PUSH1 0x40 MLOAD DUP1 PUSH1 0xC0 ADD PUSH1 0x40 MSTORE DUP1 CALLER PUSH20 0xFFFFFFFFFFFFFFFFFFFFFFFFFFFFFFFFFFFFFFFF AND DUP2 MSTORE PUSH1 0x20 ADD DUP5 DUP2 MSTORE PUSH1 0x20 ADD PUSH0 DUP2 MSTORE PUSH1 0x20 ADD DUP4 PUSH4 0xFFFFFFFF AND DUP2 MSTORE PUSH1 0x20 ADD DUP3 PUSH4 0xFFFFFFFF AND DUP2 MSTORE PUSH1 0x20 ADD PUSH0 ISZERO ISZERO DUP2 MSTORE POP PUSH1 0x1 PUSH0 PUSH0 SLOAD DUP2 MSTORE PUSH1 0x20 ADD SWAP1 DUP2 MSTORE PUSH1 0x20 ADD PUSH0 KECCAK256 PUSH0 DUP3 ADD MLOAD DUP2 PUSH0 ADD PUSH0 PUSH2 0x100 EXP DUP2 SLOAD DUP2 PUSH20 0xFFFFFFFFFFFFFFFFFFFFFFFFFFFFFFFFFFFFFFFF MUL NOT AND SWAP1 DUP4 PUSH20 0xFFFFFFFFFFFFFFFFFFFFFFFFFFFFFFFFFFFFFFFF AND MUL OR SWAP1 SSTORE POP PUSH1 0x20 DUP3 ADD MLOAD DUP2 PUSH1 0x1 ADD SSTORE PUSH1 0x40 DUP3 ADD MLOAD DUP2 PUSH1 0x2 ADD SSTORE PUSH1 0x60 DUP3 ADD MLOAD DUP2 PUSH1 0x3 ADD PUSH0 PUSH2 0x100 EXP DUP2 SLOAD DUP2 PUSH4 0xFFFFFFFF MUL NOT AND SWAP1 DUP4 PUSH4 0xFFFFFFFF AND MUL OR SWAP1 SSTORE POP PUSH1 0x80 DUP3 ADD MLOAD DUP2 PUSH1 0x3 ADD PUSH1 0x4 PUSH2 0x100 EXP DUP2 SLOAD DUP2 PUSH4 0xFFFFFFFF MUL NOT AND SWAP1 DUP4 PUSH4 0xFFFFFFFF AND MUL OR SWAP1 SSTORE POP PUSH1 0xA0 DUP3 ADD MLOAD DUP2 PUSH1 0x3 ADD PUSH1 0x8 PUSH2 0x100 EXP DUP2 SLOAD DUP2 PUSH1 0xFF MUL NOT AND SWAP1 DUP4 ISZERO ISZERO MUL OR SWAP1 SSTORE POP SWAP1 POP POP POP POP POP JUMP JUMPDEST PUSH0 PUSH1 0x1 PUSH0 DUP4 DUP2 MSTORE PUSH1 0x20 ADD SWAP1 DUP2 MSTORE PUSH1 0x20 ADD PUSH0 KECCAK256 PUSH1 0x40 MLOAD DUP1 PUSH1 0xC0 ADD PUSH1 0x40 MSTORE SWAP1 DUP2 PUSH0 DUP3 ADD PUSH0 SWAP1 SLOAD SWAP1 PUSH2 0x100 EXP SWAP1 DIV PUSH20 0xFFFFFFFFFFFFFFFFFFFFFFFFFFFFFFFFFFFFFFFF AND PUSH20 0xFFFFFFFFFFFFFFFFFFFFFFFFFFFFFFFFFFFFFFFF AND PUSH20 0xFFFFFFFFFFFFFFFFFFFFFFFFFFFFFFFFFFFFFFFF AND DUP2 MSTORE PUSH1 0x20 ADD PUSH1 0x1 DUP3 ADD SLOAD DUP2 MSTORE PUSH1 0x20 ADD PUSH1 0x2 DUP3 ADD SLOAD DUP2 MSTORE PUSH1 0x20 ADD PUSH1 0x3 DUP3 ADD PUSH0 SWAP1 SLOAD SWAP1 PUSH2 0x100 EXP SWAP1 DIV PUSH4 0xFFFFFFFF AND PUSH4 0xFFFFFFFF AND PUSH4 0xFFFFFFFF AND DUP2 MSTORE PUSH1 0x20 ADD PUSH1 0x3 DUP3 ADD PUSH1 0x4 SWAP1 SLOAD SWAP1 PUSH2 0x100 EXP SWAP1 DIV PUSH4 0xFFFFFFFF AND PUSH4 0xFFFFFFFF AND PUSH4 0xFFFFFFFF AND DUP2 MSTORE PUSH1 0x20 ADD PUSH1 0x3 DUP3 ADD PUSH1 0x8 SWAP1 SLOAD SWAP1 PUSH2 0x100 EXP SWAP1 DIV PUSH1 0xFF AND ISZERO ISZERO ISZERO ISZERO DUP2 MSTORE POP POP SWAP1 POP DUP1 PUSH1 0x60 ADD MLOAD PUSH4 0xFFFFFFFF AND TIMESTAMP LT ISZERO PUSH2 0x946 JUMPI PUSH1 0x40 MLOAD PUSH32 0x8C379A000000000000000000000000000000000000000000000000000000000 DUP2 MSTORE PUSH1 0x4 ADD PUSH2 0x93D SWAP1 PUSH2 0x1768 JUMP JUMPDEST PUSH1 0x40 MLOAD DUP1 SWAP2 SUB SWAP1 REVERT JUMPDEST DUP1 PUSH1 0x80 ADD MLOAD PUSH4 0xFFFFFFFF AND TIMESTAMP GT ISZERO PUSH2 0x993 JUMPI PUSH1 0x40 MLOAD PUSH32 0x8C379A000000000000000000000000000000000000000000000000000000000 DUP2 MSTORE PUSH1 0x4 ADD PUSH2 0x98A SWAP1 PUSH2 0x17D0 JUMP JUMPDEST PUSH1 0x40 MLOAD DUP1 SWAP2 SUB SWAP1 REVERT JUMPDEST CALLER PUSH20 0xFFFFFFFFFFFFFFFFFFFFFFFFFFFFFFFFFFFFFFFF AND DUP2 PUSH0 ADD MLOAD PUSH20 0xFFFFFFFFFFFFFFFFFFFFFFFFFFFFFFFFFFFFFFFF AND EQ PUSH2 0xA04 JUMPI PUSH1 0x40 MLOAD PUSH32 0x8C379A000000000000000000000000000000000000000000000000000000000 DUP2 MSTORE PUSH1 0x4 ADD PUSH2 0x9FB SWAP1 PUSH2 0x1ADB JUMP JUMPDEST PUSH1 0x40 MLOAD DUP1 SWAP2 SUB SWAP1 REVERT JUMPDEST DUP1 PUSH1 0x20 ADD MLOAD DUP2 PUSH1 0x40 ADD MLOAD LT ISZERO PUSH2 0xA4F JUMPI PUSH1 0x40 MLOAD PUSH32 0x8C379A000000000000000000000000000000000000000000000000000000000 DUP2 MSTORE PUSH1 0x4 ADD PUSH2 0xA46 SWAP1 PUSH2 0x1838 JUMP JUMPDEST PUSH1 0x40 MLOAD DUP1 SWAP2 SUB SWAP1 REVERT JUMPDEST DUP1 PUSH1 0xA0 ADD MLOAD ISZERO PUSH2 0xA94 JUMPI PUSH1 0x40 MLOAD PUSH32 0x8C379A000000000000000000000000000000000000000000000000000000000 DUP2 MSTORE PUSH1 0x4 ADD PUSH2 0xA8B SWAP1 PUSH2 0x1B43 JUMP JUMPDEST PUSH1 0x40 MLOAD DUP1 SWAP2 SUB SWAP1 REVERT JUMPDEST PUSH1 0x1 DUP2 PUSH1 0xA0 ADD SWAP1 ISZERO ISZERO SWAP1 DUP2 ISZERO ISZERO DUP2 MSTORE POP POP PUSH32 0x0 PUSH20 0xFFFFFFFFFFFFFFFFFFFFFFFFFFFFFFFFFFFFFFFF AND PUSH4 0xA9059CBB DUP3 PUSH0 ADD MLOAD DUP4 PUSH1 0x40 ADD MLOAD PUSH1 0x40 MLOAD DUP4 PUSH4 0xFFFFFFFF AND PUSH1 0xE0 SHL DUP2 MSTORE PUSH1 0x4 ADD PUSH2 0xB07 SWAP3 SWAP2 SWAP1 PUSH2 0x1856 JUMP JUMPDEST PUSH1 0x20 PUSH1 0x40 MLOAD DUP1 DUP4 SUB DUP2 PUSH0 DUP8 GAS CALL ISZERO DUP1 ISZERO PUSH2 0xB23 JUMPI RETURNDATASIZE PUSH0 PUSH0 RETURNDATACOPY RETURNDATASIZE PUSH0 REVERT JUMPDEST POP POP POP POP PUSH1 0x40 MLOAD RETURNDATASIZE PUSH1 0x1F NOT PUSH1 0x1F DUP3 ADD AND DUP3 ADD DUP1 PUSH1 0x40 MSTORE POP DUP2 ADD SWAP1 PUSH2 0xB47 SWAP2 SWAP1 PUSH2 0x18A7 JUMP JUMPDEST POP PUSH32 0x7BB2B3C10797BACCB6F8C4791F1EDD6CA2F0D028EE0EDA64B01A9A57E3A653F7 DUP3 PUSH1 0x40 MLOAD PUSH2 0xB77 SWAP2 SWAP1 PUSH2 0x1432 JUMP JUMPDEST PUSH1 0x40 MLOAD DUP1 SWAP2 SUB SWAP1 LOG1 POP POP JUMP JUMPDEST PUSH0 PUSH1 0x1 PUSH0 DUP4 DUP2 MSTORE PUSH1 0x20 ADD SWAP1 DUP2 MSTORE PUSH1 0x20 ADD PUSH0 KECCAK256 PUSH1 0x40 MLOAD DUP1 PUSH1 0xC0 ADD PUSH1 0x40 MSTORE SWAP1 DUP2 PUSH0 DUP3 ADD PUSH0 SWAP1 SLOAD SWAP1 PUSH2 0x100 EXP SWAP1 DIV PUSH20 0xFFFFFFFFFFFFFFFFFFFFFFFFFFFFFFFFFFFFFFFF AND PUSH20 0xFFFFFFFFFFFFFFFFFFFFFFFFFFFFFFFFFFFFFFFF AND PUSH20 0xFFFFFFFFFFFFFFFFFFFFFFFFFFFFFFFFFFFFFFFF AND DUP2 MSTORE PUSH1 0x20 ADD PUSH1 0x1 DUP3 ADD SLOAD DUP2 MSTORE PUSH1 0x20 ADD PUSH1 0x2 DUP3 ADD SLOAD DUP2 MSTORE PUSH1 0x20 ADD PUSH1 0x3 DUP3 ADD PUSH0 SWAP1 SLOAD SWAP1 PUSH2 0x100 EXP SWAP1 DIV PUSH4 0xFFFFFFFF AND PUSH4 0xFFFFFFFF AND PUSH4 0xFFFFFFFF AND DUP2 MSTORE PUSH1 0x20 ADD PUSH1 0x3 DUP3 ADD PUSH1 0x4 SWAP1 SLOAD SWAP1 PUSH2 0x100 EXP SWAP1 DIV PUSH4 0xFFFFFFFF AND PUSH4 0xFFFFFFFF AND PUSH4 0xFFFFFFFF AND DUP2 MSTORE PUSH1 0x20 ADD PUSH1 0x3 DUP3 ADD PUSH1 0x8 SWAP1 SLOAD SWAP1 PUSH2 0x100 EXP SWAP1 DIV PUSH1 0xFF AND ISZERO ISZERO ISZERO ISZERO DUP2 MSTORE POP POP SWAP1 POP CALLER PUSH20 0xFFFFFFFFFFFFFFFFFFFFFFFFFFFFFFFFFFFFFFFF AND DUP2 PUSH0 ADD MLOAD PUSH20 0xFFFFFFFFFFFFFFFFFFFFFFFFFFFFFFFFFFFFFFFF AND EQ PUSH2 0xCE1 JUMPI PUSH1 0x40 MLOAD PUSH32 0x8C379A000000000000000000000000000000000000000000000000000000000 DUP2 MSTORE PUSH1 0x4 ADD PUSH2 0xCD8 SWAP1 PUSH2 0x1ADB JUMP JUMPDEST PUSH1 0x40 MLOAD DUP1 SWAP2 SUB SWAP1 REVERT JUMPDEST DUP1 PUSH1 0x60 ADD MLOAD PUSH4 0xFFFFFFFF AND TIMESTAMP LT PUSH2 0xD2D JUMPI PUSH1 0x40 MLOAD PUSH32 0x8C379A000000000000000000000000000000000000000000000000000000000 DUP2 MSTORE PUSH1 0x4 ADD PUSH2 0xD24 SWAP1 PUSH2 0x1BAB JUMP JUMPDEST PUSH1 0x40 MLOAD DUP1 SWAP2 SUB SWAP1 REVERT JUMPDEST PUSH1 0x1 PUSH0 DUP4 DUP2 MSTORE PUSH1 0x20 ADD SWAP1 DUP2 MSTORE PUSH1 0x20 ADD PUSH0 KECCAK256 PUSH0 PUSH0 DUP3 ADD PUSH0 PUSH2 0x100 EXP DUP2 SLOAD SWAP1 PUSH20 0xFFFFFFFFFFFFFFFFFFFFFFFFFFFFFFFFFFFFFFFF MUL NOT AND SWAP1 SSTORE PUSH1 0x1 DUP3 ADD PUSH0 SWAP1 SSTORE PUSH1 0x2 DUP3 ADD PUSH0 SWAP1 SSTORE PUSH1 0x3 DUP3 ADD PUSH0 PUSH2 0x100 EXP DUP2 SLOAD SWAP1 PUSH4 0xFFFFFFFF MUL NOT AND SWAP1 SSTORE PUSH1 0x3 DUP3 ADD PUSH1 0x4 PUSH2 0x100 EXP DUP2 SLOAD SWAP1 PUSH4 0xFFFFFFFF MUL NOT AND SWAP1 SSTORE PUSH1 0x3 DUP3 ADD PUSH1 0x8 PUSH2 0x100 EXP DUP2 SLOAD SWAP1 PUSH1 0xFF MUL NOT AND SWAP1 SSTORE POP POP PUSH32 0x8BF30E7FF26833413BE5F69E1D373744864D600B664204B4A2F9844A8EEDB9ED DUP3 PUSH1 0x40 MLOAD PUSH2 0xDE4 SWAP2 SWAP1 PUSH2 0x1432 JUMP JUMPDEST PUSH1 0x40 MLOAD DUP1 SWAP2 SUB SWAP1 LOG1 POP POP JUMP JUMPDEST PUSH0 PUSH1 0x1 PUSH0 DUP5 DUP2 MSTORE PUSH1 0x20 ADD SWAP1 DUP2 MSTORE PUSH1 0x20 ADD PUSH0 KECCAK256 PUSH1 0x40 MLOAD DUP1 PUSH1 0xC0 ADD PUSH1 0x40 MSTORE SWAP1 DUP2 PUSH0 DUP3 ADD PUSH0 SWAP1 SLOAD SWAP1 PUSH2 0x100 EXP SWAP1 DIV PUSH20 0xFFFFFFFFFFFFFFFFFFFFFFFFFFFFFFFFFFFFFFFF AND PUSH20 0xFFFFFFFFFFFFFFFFFFFFFFFFFFFFFFFFFFFFFFFF AND PUSH20 0xFFFFFFFFFFFFFFFFFFFFFFFFFFFFFFFFFFFFFFFF AND DUP2 MSTORE PUSH1 0x20 ADD PUSH1 0x1 DUP3 ADD SLOAD DUP2 MSTORE PUSH1 0x20 ADD PUSH1 0x2 DUP3 ADD SLOAD DUP2 MSTORE PUSH1 0x20 ADD PUSH1 0x3 DUP3 ADD PUSH0 SWAP1 SLOAD SWAP1 PUSH2 0x100 EXP SWAP1 DIV PUSH4 0xFFFFFFFF AND PUSH4 0xFFFFFFFF AND PUSH4 0xFFFFFFFF AND DUP2 MSTORE PUSH1 0x20 ADD PUSH1 0x3 DUP3 ADD PUSH1 0x4 SWAP1 SLOAD SWAP1 PUSH2 0x100 EXP SWAP1 DIV PUSH4 0xFFFFFFFF AND PUSH4 0xFFFFFFFF AND PUSH4 0xFFFFFFFF AND DUP2 MSTORE PUSH1 0x20 ADD PUSH1 0x3 DUP3 ADD PUSH1 0x8 SWAP1 SLOAD SWAP1 PUSH2 0x100 EXP SWAP1 DIV PUSH1 0xFF AND ISZERO ISZERO ISZERO ISZERO DUP2 MSTORE POP POP SWAP1 POP DUP1 PUSH1 0x60 ADD MLOAD PUSH4 0xFFFFFFFF AND TIMESTAMP LT ISZERO PUSH2 0xF2A JUMPI PUSH1 0x40 MLOAD PUSH32 0x8C379A000000000000000000000000000000000000000000000000000000000 DUP2 MSTORE PUSH1 0x4 ADD PUSH2 0xF21 SWAP1 PUSH2 0x1768 JUMP JUMPDEST PUSH1 0x40 MLOAD DUP1 SWAP2 SUB SWAP1 REVERT JUMPDEST DUP1 PUSH1 0x80 ADD MLOAD PUSH4 0xFFFFFFFF AND TIMESTAMP GT ISZERO PUSH2 0xF77 JUMPI PUSH1 0x40 MLOAD PUSH32 0x8C379A000000000000000000000000000000000000000000000000000000000 DUP2 MSTORE PUSH1 0x4 ADD PUSH2 0xF6E SWAP1 PUSH2 0x17D0 JUMP JUMPDEST PUSH1 0x40 MLOAD DUP1 SWAP2 SUB SWAP1 REVERT JUMPDEST DUP2 DUP2 PUSH1 0x40 ADD DUP2 DUP2 MLOAD PUSH2 0xF89 SWAP2 SWAP1 PUSH2 0x1BC9 JUMP JUMPDEST SWAP2 POP DUP2 DUP2 MSTORE POP POP DUP2 PUSH1 0x2 PUSH0 DUP6 DUP2 MSTORE PUSH1 0x20 ADD SWAP1 DUP2 MSTORE PUSH1 0x20 ADD PUSH0 KECCAK256 PUSH0 CALLER PUSH20 0xFFFFFFFFFFFFFFFFFFFFFFFFFFFFFFFFFFFFFFFF AND PUSH20 0xFFFFFFFFFFFFFFFFFFFFFFFFFFFFFFFFFFFFFFFF AND DUP2 MSTORE PUSH1 0x20 ADD SWAP1 DUP2 MSTORE PUSH1 0x20 ADD PUSH0 KECCAK256 PUSH0 DUP3 DUP3 SLOAD PUSH2 0xFEB SWAP2 SWAP1 PUSH2 0x1BC9 JUMP JUMPDEST SWAP3 POP POP DUP2 SWAP1 SSTORE POP PUSH32 0x0 PUSH20 0xFFFFFFFFFFFFFFFFFFFFFFFFFFFFFFFFFFFFFFFF AND PUSH4 0xA9059CBB CALLER DUP5 PUSH1 0x40 MLOAD DUP4 PUSH4 0xFFFFFFFF AND PUSH1 0xE0 SHL DUP2 MSTORE PUSH1 0x4 ADD PUSH2 0x104D SWAP3 SWAP2 SWAP1 PUSH2 0x1856 JUMP JUMPDEST PUSH1 0x20 PUSH1 0x40 MLOAD DUP1 DUP4 SUB DUP2 PUSH0 DUP8 GAS CALL ISZERO DUP1 ISZERO PUSH2 0x1069 JUMPI RETURNDATASIZE PUSH0 PUSH0 RETURNDATACOPY RETURNDATASIZE PUSH0 REVERT JUMPDEST POP POP POP POP PUSH1 0x40 MLOAD RETURNDATASIZE PUSH1 0x1F NOT PUSH1 0x1F DUP3 ADD AND DUP3 ADD DUP1 PUSH1 0x40 MSTORE POP DUP2 ADD SWAP1 PUSH2 0x108D SWAP2 SWAP1 PUSH2 0x18A7 JUMP JUMPDEST POP CALLER PUSH20 0xFFFFFFFFFFFFFFFFFFFFFFFFFFFFFFFFFFFFFFFF AND DUP4 PUSH32 0x2EEEAB891B26A214D1B25749F88A406BDEA852BD8C9BFDA977E0EF8114C180BA DUP5 PUSH1 0x40 MLOAD PUSH2 0x10D5 SWAP2 SWAP1 PUSH2 0x1432 JUMP JUMPDEST PUSH1 0x40 MLOAD DUP1 SWAP2 SUB SWAP1 LOG3 POP POP POP JUMP JUMPDEST PUSH1 0x2 PUSH1 0x20 MSTORE DUP2 PUSH0 MSTORE PUSH1 0x40 PUSH0 KECCAK256 PUSH1 0x20 MSTORE DUP1 PUSH0 MSTORE PUSH1 0x40 PUSH0 KECCAK256 PUSH0 SWAP2 POP SWAP2 POP POP SLOAD DUP2 JUMP JUMPDEST PUSH32 0x0 DUP2 JUMP JUMPDEST PUSH0 PUSH1 0x1 PUSH0 DUP5 DUP2 MSTORE PUSH1 0x20 ADD SWAP1 DUP2 MSTORE PUSH1 0x20 ADD PUSH0 KECCAK256 PUSH1 0x40 MLOAD DUP1 PUSH1 0xC0 ADD PUSH1 0x40 MSTORE SWAP1 DUP2 PUSH0 DUP3 ADD PUSH0 SWAP1 SLOAD SWAP1 PUSH2 0x100 EXP SWAP1 DIV PUSH20 0xFFFFFFFFFFFFFFFFFFFFFFFFFFFFFFFFFFFFFFFF AND PUSH20 0xFFFFFFFFFFFFFFFFFFFFFFFFFFFFFFFFFFFFFFFF AND PUSH20 0xFFFFFFFFFFFFFFFFFFFFFFFFFFFFFFFFFFFFFFFF AND DUP2 MSTORE PUSH1 0x20 ADD PUSH1 0x1 DUP3 ADD SLOAD DUP2 MSTORE PUSH1 0x20 ADD PUSH1 0x2 DUP3 ADD SLOAD DUP2 MSTORE PUSH1 0x20 ADD PUSH1 0x3 DUP3 ADD PUSH0 SWAP1 SLOAD SWAP1 PUSH2 0x100 EXP SWAP1 DIV PUSH4 0xFFFFFFFF AND PUSH4 0xFFFFFFFF AND PUSH4 0xFFFFFFFF AND DUP2 MSTORE PUSH1 0x20 ADD PUSH1 0x3 DUP3 ADD PUSH1 0x4 SWAP1 SLOAD SWAP1 PUSH2 0x100 EXP SWAP1 DIV PUSH4 0xFFFFFFFF AND PUSH4 0xFFFFFFFF AND PUSH4 0xFFFFFFFF AND DUP2 MSTORE PUSH1 0x20 ADD PUSH1 0x3 DUP3 ADD PUSH1 0x8 SWAP1 SLOAD SWAP1 PUSH2 0x100 EXP SWAP1 DIV PUSH1 0xFF AND ISZERO ISZERO ISZERO ISZERO DUP2 MSTORE POP POP SWAP1 POP DUP1 PUSH1 0x60 ADD MLOAD PUSH4 0xFFFFFFFF AND TIMESTAMP LT ISZERO PUSH2 0x1260 JUMPI PUSH1 0x40 MLOAD PUSH32 0x8C379A000000000000000000000000000000000000000000000000000000000 DUP2 MSTORE PUSH1 0x4 ADD PUSH2 0x1257 SWAP1 PUSH2 0x1768 JUMP JUMPDEST PUSH1 0x40 MLOAD DUP1 SWAP2 SUB SWAP1 REVERT JUMPDEST DUP1 PUSH1 0x80 ADD MLOAD PUSH4 0xFFFFFFFF AND TIMESTAMP GT ISZERO PUSH2 0x12AD JUMPI PUSH1 0x40 MLOAD PUSH32 0x8C379A000000000000000000000000000000000000000000000000000000000 DUP2 MSTORE PUSH1 0x4 ADD PUSH2 0x12A4 SWAP1 PUSH2 0x17D0 JUMP JUMPDEST PUSH1 0x40 MLOAD DUP1 SWAP2 SUB SWAP1 REVERT JUMPDEST DUP2 DUP2 PUSH1 0x40 ADD DUP2 DUP2 MLOAD PUSH2 0x12BF SWAP2 SWAP1 PUSH2 0x19F6 JUMP JUMPDEST SWAP2 POP DUP2 DUP2 MSTORE POP POP DUP2 PUSH1 0x2 PUSH0 DUP6 DUP2 MSTORE PUSH1 0x20 ADD SWAP1 DUP2 MSTORE PUSH1 0x20 ADD PUSH0 KECCAK256 PUSH0 CALLER PUSH20 0xFFFFFFFFFFFFFFFFFFFFFFFFFFFFFFFFFFFFFFFF AND PUSH20 0xFFFFFFFFFFFFFFFFFFFFFFFFFFFFFFFFFFFFFFFF AND DUP2 MSTORE PUSH1 0x20 ADD SWAP1 DUP2 MSTORE PUSH1 0x20 ADD PUSH0 KECCAK256 PUSH0 DUP3 DUP3 SLOAD PUSH2 0x1321 SWAP2 SWAP1 PUSH2 0x19F6 JUMP JUMPDEST SWAP3 POP POP DUP2 SWAP1 SSTORE POP PUSH32 0x0 PUSH20 0xFFFFFFFFFFFFFFFFFFFFFFFFFFFFFFFFFFFFFFFF AND PUSH4 0x23B872DD CALLER ADDRESS DUP6 PUSH1 0x40 MLOAD DUP5 PUSH4 0xFFFFFFFF AND PUSH1 0xE0 SHL DUP2 MSTORE PUSH1 0x4 ADD PUSH2 0x1385 SWAP4 SWAP3 SWAP2 SWAP1 PUSH2 0x1BFC JUMP JUMPDEST PUSH1 0x20 PUSH1 0x40 MLOAD DUP1 DUP4 SUB DUP2 PUSH0 DUP8 GAS CALL ISZERO DUP1 ISZERO PUSH2 0x13A1 JUMPI RETURNDATASIZE PUSH0 PUSH0 RETURNDATACOPY RETURNDATASIZE PUSH0 REVERT JUMPDEST POP POP POP POP PUSH1 0x40 MLOAD RETURNDATASIZE PUSH1 0x1F NOT PUSH1 0x1F DUP3 ADD AND DUP3 ADD DUP1 PUSH1 0x40 MSTORE POP DUP2 ADD SWAP1 PUSH2 0x13C5 SWAP2 SWAP1 PUSH2 0x18A7 JUMP JUMPDEST POP CALLER PUSH20 0xFFFFFFFFFFFFFFFFFFFFFFFFFFFFFFFFFFFFFFFF AND DUP4 PUSH32 0x6BDB975DF800A73232998E71ED585D536222F1DFEAA622D7F62A23ADA686C82 DUP5 PUSH1 0x40 MLOAD PUSH2 0x140D SWAP2 SWAP1 PUSH2 0x1432 JUMP JUMPDEST PUSH1 0x40 MLOAD DUP1 SWAP2 SUB SWAP1 LOG3 POP POP POP JUMP JUMPDEST PUSH0 DUP2 SWAP1 POP SWAP2 SWAP1 POP JUMP JUMPDEST PUSH2 0x142C DUP2 PUSH2 0x141A JUMP JUMPDEST DUP3 MSTORE POP POP JUMP JUMPDEST PUSH0 PUSH1 0x20 DUP3 ADD SWAP1 POP PUSH2 0x1445 PUSH0 DUP4 ADD DUP5 PUSH2 0x1423 JUMP JUMPDEST SWAP3 SWAP2 POP POP JUMP JUMPDEST PUSH0 PUSH0 REVERT JUMPDEST PUSH2 0x1458 DUP2 PUSH2 0x141A JUMP JUMPDEST DUP2 EQ PUSH2 0x1462 JUMPI PUSH0 PUSH0 REVERT JUMPDEST POP JUMP JUMPDEST PUSH0 DUP2 CALLDATALOAD SWAP1 POP PUSH2 0x1473 DUP2 PUSH2 0x144F JUMP JUMPDEST SWAP3 SWAP2 POP POP JUMP JUMPDEST PUSH0 PUSH1 0x20 DUP3 DUP5 SUB SLT ISZERO PUSH2 0x148E JUMPI PUSH2 0x148D PUSH2 0x144B JUMP JUMPDEST JUMPDEST PUSH0 PUSH2 0x149B DUP5 DUP3 DUP6 ADD PUSH2 0x1465 JUMP JUMPDEST SWAP2 POP POP SWAP3 SWAP2 POP POP JUMP JUMPDEST PUSH0 PUSH20 0xFFFFFFFFFFFFFFFFFFFFFFFFFFFFFFFFFFFFFFFF DUP3 AND SWAP1 POP SWAP2 SWAP1 POP JUMP JUMPDEST PUSH0 PUSH2 0x14CD DUP3 PUSH2 0x14A4 JUMP JUMPDEST SWAP1 POP SWAP2 SWAP1 POP JUMP JUMPDEST PUSH2 0x14DD DUP2 PUSH2 0x14C3 JUMP JUMPDEST DUP3 MSTORE POP POP JUMP JUMPDEST PUSH0 PUSH4 0xFFFFFFFF DUP3 AND SWAP1 POP SWAP2 SWAP1 POP JUMP JUMPDEST PUSH2 0x14FB DUP2 PUSH2 0x14E3 JUMP JUMPDEST DUP3 MSTORE POP POP JUMP JUMPDEST PUSH0 DUP2 ISZERO ISZERO SWAP1 POP SWAP2 SWAP1 POP JUMP JUMPDEST PUSH2 0x1515 DUP2 PUSH2 0x1501 JUMP JUMPDEST DUP3 MSTORE POP POP JUMP JUMPDEST PUSH0 PUSH1 0xC0 DUP3 ADD SWAP1 POP PUSH2 0x152E PUSH0 DUP4 ADD DUP10 PUSH2 0x14D4 JUMP JUMPDEST PUSH2 0x153B PUSH1 0x20 DUP4 ADD DUP9 PUSH2 0x1423 JUMP JUMPDEST PUSH2 0x1548 PUSH1 0x40 DUP4 ADD DUP8 PUSH2 0x1423 JUMP JUMPDEST PUSH2 0x1555 PUSH1 0x60 DUP4 ADD DUP7 PUSH2 0x14F2 JUMP JUMPDEST PUSH2 0x1562 PUSH1 0x80 DUP4 ADD DUP6 PUSH2 0x14F2 JUMP JUMPDEST PUSH2 0x156F PUSH1 0xA0 DUP4 ADD DUP5 PUSH2 0x150C JUMP JUMPDEST SWAP8 SWAP7 POP POP POP POP POP POP POP JUMP JUMPDEST PUSH2 0x1583 DUP2 PUSH2 0x14E3 JUMP JUMPDEST DUP2 EQ PUSH2 0x158D JUMPI PUSH0 PUSH0 REVERT JUMPDEST POP JUMP JUMPDEST PUSH0 DUP2 CALLDATALOAD SWAP1 POP PUSH2 0x159E DUP2 PUSH2 0x157A JUMP JUMPDEST SWAP3 SWAP2 POP POP JUMP JUMPDEST PUSH0 PUSH0 PUSH0 PUSH1 0x60 DUP5 DUP7 SUB SLT ISZERO PUSH2 0x15BB JUMPI PUSH2 0x15BA PUSH2 0x144B JUMP JUMPDEST JUMPDEST PUSH0 PUSH2 0x15C8 DUP7 DUP3 DUP8 ADD PUSH2 0x1465 JUMP JUMPDEST SWAP4 POP POP PUSH1 0x20 PUSH2 0x15D9 DUP7 DUP3 DUP8 ADD PUSH2 0x1590 JUMP JUMPDEST SWAP3 POP POP PUSH1 0x40 PUSH2 0x15EA DUP7 DUP3 DUP8 ADD PUSH2 0x1590 JUMP JUMPDEST SWAP2 POP POP SWAP3 POP SWAP3 POP SWAP3 JUMP JUMPDEST PUSH0 PUSH0 PUSH1 0x40 DUP4 DUP6 SUB SLT ISZERO PUSH2 0x160A JUMPI PUSH2 0x1609 PUSH2 0x144B JUMP JUMPDEST JUMPDEST PUSH0 PUSH2 0x1617 DUP6 DUP3 DUP7 ADD PUSH2 0x1465 JUMP JUMPDEST SWAP3 POP POP PUSH1 0x20 PUSH2 0x1628 DUP6 DUP3 DUP7 ADD PUSH2 0x1465 JUMP JUMPDEST SWAP2 POP POP SWAP3 POP SWAP3 SWAP1 POP JUMP JUMPDEST PUSH2 0x163B DUP2 PUSH2 0x14C3 JUMP JUMPDEST DUP2 EQ PUSH2 0x1645 JUMPI PUSH0 PUSH0 REVERT JUMPDEST POP JUMP JUMPDEST PUSH0 DUP2 CALLDATALOAD SWAP1 POP PUSH2 0x1656 DUP2 PUSH2 0x1632 JUMP JUMPDEST SWAP3 SWAP2 POP POP JUMP JUMPDEST PUSH0 PUSH0 PUSH1 0x40 DUP4 DUP6 SUB SLT ISZERO PUSH2 0x1672 JUMPI PUSH2 0x1671 PUSH2 0x144B JUMP JUMPDEST JUMPDEST PUSH0 PUSH2 0x167F DUP6 DUP3 DUP7 ADD PUSH2 0x1465 JUMP JUMPDEST SWAP3 POP POP PUSH1 0x20 PUSH2 0x1690 DUP6 DUP3 DUP7 ADD PUSH2 0x1648 JUMP JUMPDEST SWAP2 POP POP SWAP3 POP SWAP3 SWAP1 POP JUMP JUMPDEST PUSH0 DUP2 SWAP1 POP SWAP2 SWAP1 POP JUMP JUMPDEST PUSH0 PUSH2 0x16BD PUSH2 0x16B8 PUSH2 0x16B3 DUP5 PUSH2 0x14A4 JUMP JUMPDEST PUSH2 0x169A JUMP JUMPDEST PUSH2 0x14A4 JUMP JUMPDEST SWAP1 POP SWAP2 SWAP1 POP JUMP JUMPDEST PUSH0 PUSH2 0x16CE DUP3 PUSH2 0x16A3 JUMP JUMPDEST SWAP1 POP SWAP2 SWAP1 POP JUMP JUMPDEST PUSH0 PUSH2 0x16DF DUP3 PUSH2 0x16C4 JUMP JUMPDEST SWAP1 POP SWAP2 SWAP1 POP JUMP JUMPDEST PUSH2 0x16EF DUP2 PUSH2 0x16D5 JUMP JUMPDEST DUP3 MSTORE POP POP JUMP JUMPDEST PUSH0 PUSH1 0x20 DUP3 ADD SWAP1 POP PUSH2 0x1708 PUSH0 DUP4 ADD DUP5 PUSH2 0x16E6 JUMP JUMPDEST SWAP3 SWAP2 POP POP JUMP JUMPDEST PUSH0 DUP3 DUP3 MSTORE PUSH1 0x20 DUP3 ADD SWAP1 POP SWAP3 SWAP2 POP POP JUMP JUMPDEST PUSH32 0x6E6F742073746172746564000000000000000000000000000000000000000000 PUSH0 DUP3 ADD MSTORE POP JUMP JUMPDEST PUSH0 PUSH2 0x1752 PUSH1 0xB DUP4 PUSH2 0x170E JUMP JUMPDEST SWAP2 POP PUSH2 0x175D DUP3 PUSH2 0x171E JUMP JUMPDEST PUSH1 0x20 DUP3 ADD SWAP1 POP SWAP2 SWAP1 POP JUMP JUMPDEST PUSH0 PUSH1 0x20 DUP3 ADD SWAP1 POP DUP2 DUP2 SUB PUSH0 DUP4 ADD MSTORE PUSH2 0x177F DUP2 PUSH2 0x1746 JUMP JUMPDEST SWAP1 POP SWAP2 SWAP1 POP JUMP JUMPDEST PUSH32 0x656E646564000000000000000000000000000000000000000000000000000000 PUSH0 DUP3 ADD MSTORE POP JUMP JUMPDEST PUSH0 PUSH2 0x17BA PUSH1 0x5 DUP4 PUSH2 0x170E JUMP JUMPDEST SWAP2 POP PUSH2 0x17C5 DUP3 PUSH2 0x1786 JUMP JUMPDEST PUSH1 0x20 DUP3 ADD SWAP1 POP SWAP2 SWAP1 POP JUMP JUMPDEST PUSH0 PUSH1 0x20 DUP3 ADD SWAP1 POP DUP2 DUP2 SUB PUSH0 DUP4 ADD MSTORE PUSH2 0x17E7 DUP2 PUSH2 0x17AE JUMP JUMPDEST SWAP1 POP SWAP2 SWAP1 POP JUMP JUMPDEST PUSH32 0x706C6564676564203C20676F616C000000000000000000000000000000000000 PUSH0 DUP3 ADD MSTORE POP JUMP JUMPDEST PUSH0 PUSH2 0x1822 PUSH1 0xE DUP4 PUSH2 0x170E JUMP JUMPDEST SWAP2 POP PUSH2 0x182D DUP3 PUSH2 0x17EE JUMP JUMPDEST PUSH1 0x20 DUP3 ADD SWAP1 POP SWAP2 SWAP1 POP JUMP JUMPDEST PUSH0 PUSH1 0x20 DUP3 ADD SWAP1 POP DUP2 DUP2 SUB PUSH0 DUP4 ADD MSTORE PUSH2 0x184F DUP2 PUSH2 0x1816 JUMP JUMPDEST SWAP1 POP SWAP2 SWAP1 POP JUMP JUMPDEST PUSH0 PUSH1 0x40 DUP3 ADD SWAP1 POP PUSH2 0x1869 PUSH0 DUP4 ADD DUP6 PUSH2 0x14D4 JUMP JUMPDEST PUSH2 0x1876 PUSH1 0x20 DUP4 ADD DUP5 PUSH2 0x1423 JUMP JUMPDEST SWAP4 SWAP3 POP POP POP JUMP JUMPDEST PUSH2 0x1886 DUP2 PUSH2 0x1501 JUMP JUMPDEST DUP2 EQ PUSH2 0x1890 JUMPI PUSH0 PUSH0 REVERT JUMPDEST POP JUMP JUMPDEST PUSH0 DUP2 MLOAD SWAP1 POP PUSH2 0x18A1 DUP2 PUSH2 0x187D JUMP JUMPDEST SWAP3 SWAP2 POP POP JUMP JUMPDEST PUSH0 PUSH1 0x20 DUP3 DUP5 SUB SLT ISZERO PUSH2 0x18BC JUMPI PUSH2 0x18BB PUSH2 0x144B JUMP JUMPDEST JUMPDEST PUSH0 PUSH2 0x18C9 DUP5 DUP3 DUP6 ADD PUSH2 0x1893 JUMP JUMPDEST SWAP2 POP POP SWAP3 SWAP2 POP POP JUMP JUMPDEST PUSH0 PUSH1 0x40 DUP3 ADD SWAP1 POP PUSH2 0x18E5 PUSH0 DUP4 ADD DUP6 PUSH2 0x1423 JUMP JUMPDEST PUSH2 0x18F2 PUSH1 0x20 DUP4 ADD DUP5 PUSH2 0x1423 JUMP JUMPDEST SWAP4 SWAP3 POP POP POP JUMP JUMPDEST PUSH32 0x7374617274206174203C206E6F77000000000000000000000000000000000000 PUSH0 DUP3 ADD MSTORE POP JUMP JUMPDEST PUSH0 PUSH2 0x192D PUSH1 0xE DUP4 PUSH2 0x170E JUMP JUMPDEST SWAP2 POP PUSH2 0x1938 DUP3 PUSH2 0x18F9 JUMP JUMPDEST PUSH1 0x20 DUP3 ADD SWAP1 POP SWAP2 SWAP1 POP JUMP JUMPDEST PUSH0 PUSH1 0x20 DUP3 ADD SWAP1 POP DUP2 DUP2 SUB PUSH0 DUP4 ADD MSTORE PUSH2 0x195A DUP2 PUSH2 0x1921 JUMP JUMPDEST SWAP1 POP SWAP2 SWAP1 POP JUMP JUMPDEST PUSH32 0x656E64206174203C207374617274206174000000000000000000000000000000 PUSH0 DUP3 ADD MSTORE POP JUMP JUMPDEST PUSH0 PUSH2 0x1995 PUSH1 0x11 DUP4 PUSH2 0x170E JUMP JUMPDEST SWAP2 POP PUSH2 0x19A0 DUP3 PUSH2 0x1961 JUMP JUMPDEST PUSH1 0x20 DUP3 ADD SWAP1 POP SWAP2 SWAP1 POP JUMP JUMPDEST PUSH0 PUSH1 0x20 DUP3 ADD SWAP1 POP DUP2 DUP2 SUB PUSH0 DUP4 ADD MSTORE PUSH2 0x19C2 DUP2 PUSH2 0x1989 JUMP JUMPDEST SWAP1 POP SWAP2 SWAP1 POP JUMP JUMPDEST PUSH32 0x4E487B7100000000000000000000000000000000000000000000000000000000 PUSH0 MSTORE PUSH1 0x11 PUSH1 0x4 MSTORE PUSH1 0x24 PUSH0 REVERT JUMPDEST PUSH0 PUSH2 0x1A00 DUP3 PUSH2 0x141A JUMP JUMPDEST SWAP2 POP PUSH2 0x1A0B DUP4 PUSH2 0x141A JUMP JUMPDEST SWAP3 POP DUP3 DUP3 ADD SWAP1 POP DUP1 DUP3 GT ISZERO PUSH2 0x1A23 JUMPI PUSH2 0x1A22 PUSH2 0x19C9 JUMP JUMPDEST JUMPDEST SWAP3 SWAP2 POP POP JUMP JUMPDEST PUSH32 0x656E64206174203E206D6178206475726174696F6E0000000000000000000000 PUSH0 DUP3 ADD MSTORE POP JUMP JUMPDEST PUSH0 PUSH2 0x1A5D PUSH1 0x15 DUP4 PUSH2 0x170E JUMP JUMPDEST SWAP2 POP PUSH2 0x1A68 DUP3 PUSH2 0x1A29 JUMP JUMPDEST PUSH1 0x20 DUP3 ADD SWAP1 POP SWAP2 SWAP1 POP JUMP JUMPDEST PUSH0 PUSH1 0x20 DUP3 ADD SWAP1 POP DUP2 DUP2 SUB PUSH0 DUP4 ADD MSTORE PUSH2 0x1A8A DUP2 PUSH2 0x1A51 JUMP JUMPDEST SWAP1 POP SWAP2 SWAP1 POP JUMP JUMPDEST PUSH32 0x6E6F742063726561746F72000000000000000000000000000000000000000000 PUSH0 DUP3 ADD MSTORE POP JUMP JUMPDEST PUSH0 PUSH2 0x1AC5 PUSH1 0xB DUP4 PUSH2 0x170E JUMP JUMPDEST SWAP2 POP PUSH2 0x1AD0 DUP3 PUSH2 0x1A91 JUMP JUMPDEST PUSH1 0x20 DUP3 ADD SWAP1 POP SWAP2 SWAP1 POP JUMP JUMPDEST PUSH0 PUSH1 0x20 DUP3 ADD SWAP1 POP DUP2 DUP2 SUB PUSH0 DUP4 ADD MSTORE PUSH2 0x1AF2 DUP2 PUSH2 0x1AB9 JUMP JUMPDEST SWAP1 POP SWAP2 SWAP1 POP JUMP JUMPDEST PUSH32 0x636C61696D656400000000000000000000000000000000000000000000000000 PUSH0 DUP3 ADD MSTORE POP JUMP JUMPDEST PUSH0 PUSH2 0x1B2D PUSH1 0x7 DUP4 PUSH2 0x170E JUMP JUMPDEST SWAP2 POP PUSH2 0x1B38 DUP3 PUSH2 0x1AF9 JUMP JUMPDEST PUSH1 0x20 DUP3 ADD SWAP1 POP SWAP2 SWAP1 POP JUMP JUMPDEST PUSH0 PUSH1 0x20 DUP3 ADD SWAP1 POP DUP2 DUP2 SUB PUSH0 DUP4 ADD MSTORE PUSH2 0x1B5A DUP2 PUSH2 0x1B21 JUMP JUMPDEST SWAP1 POP SWAP2 SWAP1 POP JUMP JUMPDEST PUSH32 0x7374617274656400000000000000000000000000000000000000000000000000 PUSH0 DUP3 ADD MSTORE POP JUMP JUMPDEST PUSH0 PUSH2 0x1B95 PUSH1 0x7 DUP4 PUSH2 0x170E JUMP JUMPDEST SWAP2 POP PUSH2 0x1BA0 DUP3 PUSH2 0x1B61 JUMP JUMPDEST PUSH1 0x20 DUP3 ADD SWAP1 POP SWAP2 SWAP1 POP JUMP JUMPDEST PUSH0 PUSH1 0x20 DUP3 ADD SWAP1 POP DUP2 DUP2 SUB PUSH0 DUP4 ADD MSTORE PUSH2 0x1BC2 DUP2 PUSH2 0x1B89 JUMP JUMPDEST SWAP1 POP SWAP2 SWAP1 POP JUMP JUMPDEST PUSH0 PUSH2 0x1BD3 DUP3 PUSH2 0x141A JUMP JUMPDEST SWAP2 POP PUSH2 0x1BDE DUP4 PUSH2 0x141A JUMP JUMPDEST SWAP3 POP DUP3 DUP3 SUB SWAP1 POP DUP2 DUP2 GT ISZERO PUSH2 0x1BF6 JUMPI PUSH2 0x1BF5 PUSH2 0x19C9 JUMP JUMPDEST JUMPDEST SWAP3 SWAP2 POP POP JUMP JUMPDEST PUSH0 PUSH1 0x60 DUP3 ADD SWAP1 POP PUSH2 0x1C0F PUSH0 DUP4 ADD DUP7 PUSH2 0x14D4 JUMP JUMPDEST PUSH2 0x1C1C PUSH1 0x20 DUP4 ADD DUP6 PUSH2 0x14D4 JUMP JUMPDEST PUSH2 0x1C29 PUSH1 0x40 DUP4 ADD DUP5 PUSH2 0x1423 JUMP JUMPDEST SWAP5 SWAP4 POP POP POP POP JUMP INVALID LOG2 PUSH5 0x6970667358 0x22 SLT KECCAK256 LOG1 PUSH3 0x51D878 0xDC BYTE PUSH4 0xCCB9645D RETURNDATASIZE CALLDATALOAD BYTE 0xEB 0xF6 0xA8 POP PUSH32 0x57FE3E7C4B09071D8EF0A71F64736F6C634300081E0033000000000000000000 "
				},
				"gasEstimates": {
					"creation": {
						"codeDepositCost": "1454200",
						"executionCost": "infinite",
						"totalCost": "infinite"
					},
					"external": {
						"campaigns(uint256)": "infinite",
						"cancel(uint256)": "infinite",
						"claim(uint256)": "infinite",
						"count()": "2425",
						"launch(uint256,uint32,uint32)": "infinite",
						"pledge(uint256,uint256)": "infinite",
						"pledgedAmount(uint256,address)": "infinite",
						"refund(uint256)": "infinite",
						"token()": "infinite",
						"unpledge(uint256,uint256)": "infinite"
					}
				},
				"methodIdentifiers": {
					"campaigns(uint256)": "141961bc",
					"cancel(uint256)": "40e58ee5",
					"claim(uint256)": "379607f5",
					"count()": "06661abd",
					"launch(uint256,uint32,uint32)": "2c63f146",
					"pledge(uint256,uint256)": "fde327be",
					"pledgedAmount(uint256,address)": "aa4fb63a",
					"refund(uint256)": "278ecde1",
					"token()": "fc0c546a",
					"unpledge(uint256,uint256)": "711853ab"
				}
			},
			"storageLayout": {
				"storage": [
					{
						"astId": 64,
						"contract": "application_contracts/Crowd Fund.sol:CrowdFund",
						"label": "count",
						"offset": 0,
						"slot": "0",
						"type": "t_uint256"
					},
					{
						"astId": 69,
						"contract": "application_contracts/Crowd Fund.sol:CrowdFund",
						"label": "campaigns",
						"offset": 0,
						"slot": "1",
						"type": "t_mapping(t_uint256,t_struct(Campaign)59_storage)"
					},
					{
						"astId": 75,
						"contract": "application_contracts/Crowd Fund.sol:CrowdFund",
						"label": "pledgedAmount",
						"offset": 0,
						"slot": "2",
						"type": "t_mapping(t_uint256,t_mapping(t_address,t_uint256))"
					}
				],
				"types": {
					"t_address": {
						"encoding": "inplace",
						"label": "address",
						"numberOfBytes": "20"
					},
					"t_bool": {
						"encoding": "inplace",
						"label": "bool",
						"numberOfBytes": "1"
					},
					"t_mapping(t_address,t_uint256)": {
						"encoding": "mapping",
						"key": "t_address",
						"label": "mapping(address => uint256)",
						"numberOfBytes": "32",
						"value": "t_uint256"
					},
					"t_mapping(t_uint256,t_mapping(t_address,t_uint256))": {
						"encoding": "mapping",
						"key": "t_uint256",
						"label": "mapping(uint256 => mapping(address => uint256))",
						"numberOfBytes": "32",
						"value": "t_mapping(t_address,t_uint256)"
					},
					"t_mapping(t_uint256,t_struct(Campaign)59_storage)": {
						"encoding": "mapping",
						"key": "t_uint256",
						"label": "mapping(uint256 => struct CrowdFund.Campaign)",
						"numberOfBytes": "32",
						"value": "t_struct(Campaign)59_storage"
					},
					"t_struct(Campaign)59_storage": {
						"encoding": "inplace",
						"label": "struct CrowdFund.Campaign",
						"members": [
							{
								"astId": 48,
								"contract": "application_contracts/Crowd Fund.sol:CrowdFund",
								"label": "creator",
								"offset": 0,
								"slot": "0",
								"type": "t_address"
							},
							{
								"astId": 50,
								"contract": "application_contracts/Crowd Fund.sol:CrowdFund",
								"label": "goal",
								"offset": 0,
								"slot": "1",
								"type": "t_uint256"
							},
							{
								"astId": 52,
								"contract": "application_contracts/Crowd Fund.sol:CrowdFund",
								"label": "pledged",
								"offset": 0,
								"slot": "2",
								"type": "t_uint256"
							},
							{
								"astId": 54,
								"contract": "application_contracts/Crowd Fund.sol:CrowdFund",
								"label": "startAt",
								"offset": 0,
								"slot": "3",
								"type": "t_uint32"
							},
							{
								"astId": 56,
								"contract": "application_contracts/Crowd Fund.sol:CrowdFund",
								"label": "endAt",
								"offset": 4,
								"slot": "3",
								"type": "t_uint32"
							},
							{
								"astId": 58,
								"contract": "application_contracts/Crowd Fund.sol:CrowdFund",
								"label": "claimed",
								"offset": 8,
								"slot": "3",
								"type": "t_bool"
							}
						],
						"numberOfBytes": "128"
					},
					"t_uint256": {
						"encoding": "inplace",
						"label": "uint256",
						"numberOfBytes": "32"
					},
					"t_uint32": {
						"encoding": "inplace",
						"label": "uint32",
						"numberOfBytes": "4"
					}
				}
			},
			"userdoc": {
				"kind": "user",
				"methods": {},
				"version": 1
			}
		}
	}
}