{
	"application_contracts/Upgradeable Proxy.sol": {
		"Proxy": {
			"abi": [
				{
					"stateMutability": "payable",
					"type": "fallback"
				},
				{
					"inputs": [],
					"name": "implementation",
					"outputs": [
						{
							"internalType": "address",
							"name": "",
							"type": "address"
						}
					],
					"stateMutability": "view",
					"type": "function"
				},
				{
					"inputs": [
						{
							"internalType": "address",
							"name": "_imp",
							"type": "address"
						}
					],
					"name": "setImplementation",
					"outputs": [],
					"stateMutability": "nonpayable",
					"type": "function"
				},
				{
					"stateMutability": "payable",
					"type": "receive"
				}
			],
			"devdoc": {
				"details": "这是一个透明代理合约，用于实现可升级合约模式。      所有函数调用都会通过 fallback 或 receive 函数委托给实现合约（implementation）。      通过 setImplementation 可以升级合约逻辑而不改变合约地址。",
				"kind": "dev",
				"methods": {
					"setImplementation(address)": {
						"details": "设置新的实现合约地址",
						"params": {
							"_imp": "新的实现合约地址"
						}
					}
				},
				"title": "透明代理合约（Transparent Proxy）",
				"version": 1
			},
			"evm": {
				"assembly": "    /* \"application_contracts/Upgradeable Proxy.sol\":392:3515  contract Proxy {... */\n  mstore(0x40, 0x80)\n  callvalue\n  dup1\n  iszero\n  tag_1\n  jumpi\n  revert(0x00, 0x00)\ntag_1:\n  pop\n  dataSize(sub_0)\n  dup1\n  dataOffset(sub_0)\n  0x00\n  codecopy\n  0x00\n  return\nstop\n\nsub_0: assembly {\n        /* \"application_contracts/Upgradeable Proxy.sol\":392:3515  contract Proxy {... */\n      mstore(0x40, 0x80)\n      jumpi(tag_1, lt(calldatasize, 0x04))\n      shr(0xe0, calldataload(0x00))\n      dup1\n      0x5c60da1b\n      eq\n      tag_3\n      jumpi\n      dup1\n      0xd784d426\n      eq\n      tag_4\n      jumpi\n      jump(tag_2)\n    tag_1:\n      jumpi(tag_2, calldatasize)\n        /* \"application_contracts/Upgradeable Proxy.sol\":3481:3506  _delegate(implementation) */\n      tag_7\n        /* \"application_contracts/Upgradeable Proxy.sol\":3491:3505  implementation */\n      0x00\n      0x00\n      swap1\n      sload\n      swap1\n      0x0100\n      exp\n      swap1\n      div\n      0xffffffffffffffffffffffffffffffffffffffff\n      and\n        /* \"application_contracts/Upgradeable Proxy.sol\":3481:3490  _delegate */\n      tag_8\n        /* \"application_contracts/Upgradeable Proxy.sol\":3481:3506  _delegate(implementation) */\n      jump\t// in\n    tag_7:\n        /* \"application_contracts/Upgradeable Proxy.sol\":392:3515  contract Proxy {... */\n      stop\n    tag_2:\n        /* \"application_contracts/Upgradeable Proxy.sol\":3180:3205  _delegate(implementation) */\n      tag_11\n        /* \"application_contracts/Upgradeable Proxy.sol\":3190:3204  implementation */\n      0x00\n      0x00\n      swap1\n      sload\n      swap1\n      0x0100\n      exp\n      swap1\n      div\n      0xffffffffffffffffffffffffffffffffffffffff\n      and\n        /* \"application_contracts/Upgradeable Proxy.sol\":3180:3189  _delegate */\n      tag_8\n        /* \"application_contracts/Upgradeable Proxy.sol\":3180:3205  _delegate(implementation) */\n      jump\t// in\n    tag_11:\n        /* \"application_contracts/Upgradeable Proxy.sol\":392:3515  contract Proxy {... */\n      stop\n        /* \"application_contracts/Upgradeable Proxy.sol\":475:504  address public implementation */\n    tag_3:\n      callvalue\n      dup1\n      iszero\n      tag_12\n      jumpi\n      revert(0x00, 0x00)\n    tag_12:\n      pop\n      tag_13\n      tag_14\n      jump\t// in\n    tag_13:\n      mload(0x40)\n      tag_15\n      swap2\n      swap1\n      tag_16\n      jump\t// in\n    tag_15:\n      mload(0x40)\n      dup1\n      swap2\n      sub\n      swap1\n      return\n        /* \"application_contracts/Upgradeable Proxy.sol\":704:792  function setImplementation(address _imp) external {... */\n    tag_4:\n      callvalue\n      dup1\n      iszero\n      tag_17\n      jumpi\n      revert(0x00, 0x00)\n    tag_17:\n      pop\n      tag_18\n      0x04\n      dup1\n      calldatasize\n      sub\n      dup2\n      add\n      swap1\n      tag_19\n      swap2\n      swap1\n      tag_20\n      jump\t// in\n    tag_19:\n      tag_21\n      jump\t// in\n    tag_18:\n      stop\n        /* \"application_contracts/Upgradeable Proxy.sol\":976:2896  function _delegate(address _imp) internal virtual {... */\n    tag_8:\n        /* \"application_contracts/Upgradeable Proxy.sol\":1354:1368  calldatasize() */\n      calldatasize\n        /* \"application_contracts/Upgradeable Proxy.sol\":1351:1352  0 */\n      0x00\n        /* \"application_contracts/Upgradeable Proxy.sol\":1348:1349  0 */\n      0x00\n        /* \"application_contracts/Upgradeable Proxy.sol\":1335:1369  calldatacopy(0, 0, calldatasize()) */\n      calldatacopy\n        /* \"application_contracts/Upgradeable Proxy.sol\":1886:1887  0 */\n      0x00\n        /* \"application_contracts/Upgradeable Proxy.sol\":1883:1884  0 */\n      0x00\n        /* \"application_contracts/Upgradeable Proxy.sol\":1867:1881  calldatasize() */\n      calldatasize\n        /* \"application_contracts/Upgradeable Proxy.sol\":1864:1865  0 */\n      0x00\n        /* \"application_contracts/Upgradeable Proxy.sol\":1858:1862  _imp */\n      dup5\n        /* \"application_contracts/Upgradeable Proxy.sol\":1851:1856  gas() */\n      gas\n        /* \"application_contracts/Upgradeable Proxy.sol\":1838:1888  delegatecall(gas(), _imp, 0, calldatasize(), 0, 0) */\n      delegatecall\n        /* \"application_contracts/Upgradeable Proxy.sol\":2195:2211  returndatasize() */\n      returndatasize\n        /* \"application_contracts/Upgradeable Proxy.sol\":2192:2193  0 */\n      0x00\n        /* \"application_contracts/Upgradeable Proxy.sol\":2189:2190  0 */\n      0x00\n        /* \"application_contracts/Upgradeable Proxy.sol\":2174:2212  returndatacopy(0, 0, returndatasize()) */\n      returndatacopy\n        /* \"application_contracts/Upgradeable Proxy.sol\":2299:2305  result */\n      dup1\n        /* \"application_contracts/Upgradeable Proxy.sol\":2323:2324  0 */\n      0x00\n        /* \"application_contracts/Upgradeable Proxy.sol\":2318:2604  case 0 {... */\n      dup2\n      eq\n      tag_24\n      jumpi\n        /* \"application_contracts/Upgradeable Proxy.sol\":2849:2865  returndatasize() */\n      returndatasize\n        /* \"application_contracts/Upgradeable Proxy.sol\":2846:2847  0 */\n      0x00\n        /* \"application_contracts/Upgradeable Proxy.sol\":2839:2866  return(0, returndatasize()) */\n      return\n        /* \"application_contracts/Upgradeable Proxy.sol\":2318:2604  case 0 {... */\n    tag_24:\n        /* \"application_contracts/Upgradeable Proxy.sol\":2573:2589  returndatasize() */\n      returndatasize\n        /* \"application_contracts/Upgradeable Proxy.sol\":2570:2571  0 */\n      0x00\n        /* \"application_contracts/Upgradeable Proxy.sol\":2563:2590  revert(0, returndatasize()) */\n      revert\n        /* \"application_contracts/Upgradeable Proxy.sol\":475:504  address public implementation */\n    tag_14:\n      0x00\n      0x00\n      swap1\n      sload\n      swap1\n      0x0100\n      exp\n      swap1\n      div\n      0xffffffffffffffffffffffffffffffffffffffff\n      and\n      dup2\n      jump\t// out\n        /* \"application_contracts/Upgradeable Proxy.sol\":704:792  function setImplementation(address _imp) external {... */\n    tag_21:\n        /* \"application_contracts/Upgradeable Proxy.sol\":781:785  _imp */\n      dup1\n        /* \"application_contracts/Upgradeable Proxy.sol\":764:778  implementation */\n      0x00\n      0x00\n        /* \"application_contracts/Upgradeable Proxy.sol\":764:785  implementation = _imp */\n      0x0100\n      exp\n      dup2\n      sload\n      dup2\n      0xffffffffffffffffffffffffffffffffffffffff\n      mul\n      not\n      and\n      swap1\n      dup4\n      0xffffffffffffffffffffffffffffffffffffffff\n      and\n      mul\n      or\n      swap1\n      sstore\n      pop\n        /* \"application_contracts/Upgradeable Proxy.sol\":704:792  function setImplementation(address _imp) external {... */\n      pop\n      jump\t// out\n        /* \"#utility.yul\":7:133   */\n    tag_26:\n        /* \"#utility.yul\":44:51   */\n      0x00\n        /* \"#utility.yul\":84:126   */\n      0xffffffffffffffffffffffffffffffffffffffff\n        /* \"#utility.yul\":77:82   */\n      dup3\n        /* \"#utility.yul\":73:127   */\n      and\n        /* \"#utility.yul\":62:127   */\n      swap1\n      pop\n        /* \"#utility.yul\":7:133   */\n      swap2\n      swap1\n      pop\n      jump\t// out\n        /* \"#utility.yul\":139:235   */\n    tag_27:\n        /* \"#utility.yul\":176:183   */\n      0x00\n        /* \"#utility.yul\":205:229   */\n      tag_37\n        /* \"#utility.yul\":223:228   */\n      dup3\n        /* \"#utility.yul\":205:229   */\n      tag_26\n      jump\t// in\n    tag_37:\n        /* \"#utility.yul\":194:229   */\n      swap1\n      pop\n        /* \"#utility.yul\":139:235   */\n      swap2\n      swap1\n      pop\n      jump\t// out\n        /* \"#utility.yul\":241:359   */\n    tag_28:\n        /* \"#utility.yul\":328:352   */\n      tag_39\n        /* \"#utility.yul\":346:351   */\n      dup2\n        /* \"#utility.yul\":328:352   */\n      tag_27\n      jump\t// in\n    tag_39:\n        /* \"#utility.yul\":323:326   */\n      dup3\n        /* \"#utility.yul\":316:353   */\n      mstore\n        /* \"#utility.yul\":241:359   */\n      pop\n      pop\n      jump\t// out\n        /* \"#utility.yul\":365:587   */\n    tag_16:\n        /* \"#utility.yul\":458:462   */\n      0x00\n        /* \"#utility.yul\":496:498   */\n      0x20\n        /* \"#utility.yul\":485:494   */\n      dup3\n        /* \"#utility.yul\":481:499   */\n      add\n        /* \"#utility.yul\":473:499   */\n      swap1\n      pop\n        /* \"#utility.yul\":509:580   */\n      tag_41\n        /* \"#utility.yul\":577:578   */\n      0x00\n        /* \"#utility.yul\":566:575   */\n      dup4\n        /* \"#utility.yul\":562:579   */\n      add\n        /* \"#utility.yul\":553:559   */\n      dup5\n        /* \"#utility.yul\":509:580   */\n      tag_28\n      jump\t// in\n    tag_41:\n        /* \"#utility.yul\":365:587   */\n      swap3\n      swap2\n      pop\n      pop\n      jump\t// out\n        /* \"#utility.yul\":674:791   */\n    tag_30:\n        /* \"#utility.yul\":783:784   */\n      0x00\n        /* \"#utility.yul\":780:781   */\n      0x00\n        /* \"#utility.yul\":773:785   */\n      revert\n        /* \"#utility.yul\":920:1042   */\n    tag_32:\n        /* \"#utility.yul\":993:1017   */\n      tag_46\n        /* \"#utility.yul\":1011:1016   */\n      dup2\n        /* \"#utility.yul\":993:1017   */\n      tag_27\n      jump\t// in\n    tag_46:\n        /* \"#utility.yul\":986:991   */\n      dup2\n        /* \"#utility.yul\":983:1018   */\n      eq\n        /* \"#utility.yul\":973:1036   */\n      tag_47\n      jumpi\n        /* \"#utility.yul\":1032:1033   */\n      0x00\n        /* \"#utility.yul\":1029:1030   */\n      0x00\n        /* \"#utility.yul\":1022:1034   */\n      revert\n        /* \"#utility.yul\":973:1036   */\n    tag_47:\n        /* \"#utility.yul\":920:1042   */\n      pop\n      jump\t// out\n        /* \"#utility.yul\":1048:1187   */\n    tag_33:\n        /* \"#utility.yul\":1094:1099   */\n      0x00\n        /* \"#utility.yul\":1132:1138   */\n      dup2\n        /* \"#utility.yul\":1119:1139   */\n      calldataload\n        /* \"#utility.yul\":1110:1139   */\n      swap1\n      pop\n        /* \"#utility.yul\":1148:1181   */\n      tag_49\n        /* \"#utility.yul\":1175:1180   */\n      dup2\n        /* \"#utility.yul\":1148:1181   */\n      tag_32\n      jump\t// in\n    tag_49:\n        /* \"#utility.yul\":1048:1187   */\n      swap3\n      swap2\n      pop\n      pop\n      jump\t// out\n        /* \"#utility.yul\":1193:1522   */\n    tag_20:\n        /* \"#utility.yul\":1252:1258   */\n      0x00\n        /* \"#utility.yul\":1301:1303   */\n      0x20\n        /* \"#utility.yul\":1289:1298   */\n      dup3\n        /* \"#utility.yul\":1280:1287   */\n      dup5\n        /* \"#utility.yul\":1276:1299   */\n      sub\n        /* \"#utility.yul\":1272:1304   */\n      slt\n        /* \"#utility.yul\":1269:1388   */\n      iszero\n      tag_51\n      jumpi\n        /* \"#utility.yul\":1307:1386   */\n      tag_52\n      tag_30\n      jump\t// in\n    tag_52:\n        /* \"#utility.yul\":1269:1388   */\n    tag_51:\n        /* \"#utility.yul\":1427:1428   */\n      0x00\n        /* \"#utility.yul\":1452:1505   */\n      tag_53\n        /* \"#utility.yul\":1497:1504   */\n      dup5\n        /* \"#utility.yul\":1488:1494   */\n      dup3\n        /* \"#utility.yul\":1477:1486   */\n      dup6\n        /* \"#utility.yul\":1473:1495   */\n      add\n        /* \"#utility.yul\":1452:1505   */\n      tag_33\n      jump\t// in\n    tag_53:\n        /* \"#utility.yul\":1442:1505   */\n      swap2\n      pop\n        /* \"#utility.yul\":1398:1515   */\n      pop\n        /* \"#utility.yul\":1193:1522   */\n      swap3\n      swap2\n      pop\n      pop\n      jump\t// out\n\n    auxdata: 0xa2646970667358221220795dc73af48c0ee8344d416dbd5e8d9c877109c3ca9051030e44c017b6ab04bd64736f6c634300081e0033\n}\n",
				"bytecode": {
					"linkReferences": {},
					"object": "6080604052348015600e575f5ffd5b506102458061001c5f395ff3fe60806040526004361061002c575f3560e01c80635c60da1b14610087578063d784d426146100b15761005c565b3661005c5761005a5f5f9054906101000a900473ffffffffffffffffffffffffffffffffffffffff166100d9565b005b6100855f5f9054906101000a900473ffffffffffffffffffffffffffffffffffffffff166100d9565b005b348015610092575f5ffd5b5061009b6100f8565b6040516100a8919061019d565b60405180910390f35b3480156100bc575f5ffd5b506100d760048036038101906100d291906101e4565b61011c565b005b365f5f375f5f365f845af43d5f5f3e805f81146100f4573d5ff35b3d5ffd5b5f5f9054906101000a900473ffffffffffffffffffffffffffffffffffffffff1681565b805f5f6101000a81548173ffffffffffffffffffffffffffffffffffffffff021916908373ffffffffffffffffffffffffffffffffffffffff16021790555050565b5f73ffffffffffffffffffffffffffffffffffffffff82169050919050565b5f6101878261015e565b9050919050565b6101978161017d565b82525050565b5f6020820190506101b05f83018461018e565b92915050565b5f5ffd5b6101c38161017d565b81146101cd575f5ffd5b50565b5f813590506101de816101ba565b92915050565b5f602082840312156101f9576101f86101b6565b5b5f610206848285016101d0565b9150509291505056fea2646970667358221220795dc73af48c0ee8344d416dbd5e8d9c877109c3ca9051030e44c017b6ab04bd64736f6c634300081e0033",
					"opcodes": "PUSH1 0x80 PUSH1 0x40 MSTORE CALLVALUE DUP1 ISZERO PUSH1 0xE JUMPI PUSH0 PUSH0 REVERT JUMPDEST POP PUSH2 0x245 DUP1 PUSH2 0x1C PUSH0 CODECOPY PUSH0 RETURN INVALID PUSH1 0x80 PUSH1 0x40 MSTORE PUSH1 0x4 CALLDATASIZE LT PUSH2 0x2C JUMPI PUSH0 CALLDATALOAD PUSH1 0xE0 SHR DUP1 PUSH4 0x5C60DA1B EQ PUSH2 0x87 JUMPI DUP1 PUSH4 0xD784D426 EQ PUSH2 0xB1 JUMPI PUSH2 0x5C JUMP JUMPDEST CALLDATASIZE PUSH2 0x5C JUMPI PUSH2 0x5A PUSH0 PUSH0 SWAP1 SLOAD SWAP1 PUSH2 0x100 EXP SWAP1 DIV PUSH20 0xFFFFFFFFFFFFFFFFFFFFFFFFFFFFFFFFFFFFFFFF AND PUSH2 0xD9 JUMP JUMPDEST STOP JUMPDEST PUSH2 0x85 PUSH0 PUSH0 SWAP1 SLOAD SWAP1 PUSH2 0x100 EXP SWAP1 DIV PUSH20 0xFFFFFFFFFFFFFFFFFFFFFFFFFFFFFFFFFFFFFFFF AND PUSH2 0xD9 JUMP JUMPDEST STOP JUMPDEST CALLVALUE DUP1 ISZERO PUSH2 0x92 JUMPI PUSH0 PUSH0 REVERT JUMPDEST POP PUSH2 0x9B PUSH2 0xF8 JUMP JUMPDEST PUSH1 0x40 MLOAD PUSH2 0xA8 SWAP2 SWAP1 PUSH2 0x19D JUMP JUMPDEST PUSH1 0x40 MLOAD DUP1 SWAP2 SUB SWAP1 RETURN JUMPDEST CALLVALUE DUP1 ISZERO PUSH2 0xBC JUMPI PUSH0 PUSH0 REVERT JUMPDEST POP PUSH2 0xD7 PUSH1 0x4 DUP1 CALLDATASIZE SUB DUP2 ADD SWAP1 PUSH2 0xD2 SWAP2 SWAP1 PUSH2 0x1E4 JUMP JUMPDEST PUSH2 0x11C JUMP JUMPDEST STOP JUMPDEST CALLDATASIZE PUSH0 PUSH0 CALLDATACOPY PUSH0 PUSH0 CALLDATASIZE PUSH0 DUP5 GAS DELEGATECALL RETURNDATASIZE PUSH0 PUSH0 RETURNDATACOPY DUP1 PUSH0 DUP2 EQ PUSH2 0xF4 JUMPI RETURNDATASIZE PUSH0 RETURN JUMPDEST RETURNDATASIZE PUSH0 REVERT JUMPDEST PUSH0 PUSH0 SWAP1 SLOAD SWAP1 PUSH2 0x100 EXP SWAP1 DIV PUSH20 0xFFFFFFFFFFFFFFFFFFFFFFFFFFFFFFFFFFFFFFFF AND DUP2 JUMP JUMPDEST DUP1 PUSH0 PUSH0 PUSH2 0x100 EXP DUP2 SLOAD DUP2 PUSH20 0xFFFFFFFFFFFFFFFFFFFFFFFFFFFFFFFFFFFFFFFF MUL NOT AND SWAP1 DUP4 PUSH20 0xFFFFFFFFFFFFFFFFFFFFFFFFFFFFFFFFFFFFFFFF AND MUL OR SWAP1 SSTORE POP POP JUMP JUMPDEST PUSH0 PUSH20 0xFFFFFFFFFFFFFFFFFFFFFFFFFFFFFFFFFFFFFFFF DUP3 AND SWAP1 POP SWAP2 SWAP1 POP JUMP JUMPDEST PUSH0 PUSH2 0x187 DUP3 PUSH2 0x15E JUMP JUMPDEST SWAP1 POP SWAP2 SWAP1 POP JUMP JUMPDEST PUSH2 0x197 DUP2 PUSH2 0x17D JUMP JUMPDEST DUP3 MSTORE POP POP JUMP JUMPDEST PUSH0 PUSH1 0x20 DUP3 ADD SWAP1 POP PUSH2 0x1B0 PUSH0 DUP4 ADD DUP5 PUSH2 0x18E JUMP JUMPDEST SWAP3 SWAP2 POP POP JUMP JUMPDEST PUSH0 PUSH0 REVERT JUMPDEST PUSH2 0x1C3 DUP2 PUSH2 0x17D JUMP JUMPDEST DUP2 EQ PUSH2 0x1CD JUMPI PUSH0 PUSH0 REVERT JUMPDEST POP JUMP JUMPDEST PUSH0 DUP2 CALLDATALOAD SWAP1 POP PUSH2 0x1DE DUP2 PUSH2 0x1BA JUMP JUMPDEST SWAP3 SWAP2 POP POP JUMP JUMPDEST PUSH0 PUSH1 0x20 DUP3 DUP5 SUB SLT ISZERO PUSH2 0x1F9 JUMPI PUSH2 0x1F8 PUSH2 0x1B6 JUMP JUMPDEST JUMPDEST PUSH0 PUSH2 0x206 DUP5 DUP3 DUP6 ADD PUSH2 0x1D0 JUMP JUMPDEST SWAP2 POP POP SWAP3 SWAP2 POP POP JUMP INVALID LOG2 PUSH5 0x6970667358 0x22 SLT KECCAK256 PUSH26 0x5DC73AF48C0EE8344D416DBD5E8D9C877109C3CA9051030E44C0 OR 0xB6 0xAB DIV 0xBD PUSH5 0x736F6C6343 STOP ADDMOD 0x1E STOP CALLER "
				},
				"gasEstimates": {
					"creation": {
						"codeDepositCost": "116200",
						"executionCost": "163",
						"totalCost": "116363"
					},
					"external": {
						"": "infinite",
						"implementation()": "2485",
						"setImplementation(address)": "24714"
					},
					"internal": {
						"_delegate(address)": "infinite"
					}
				},
				"methodIdentifiers": {
					"implementation()": "5c60da1b",
					"setImplementation(address)": "d784d426"
				}
			},
			"storageLayout": {
				"storage": [
					{
						"astId": 4,
						"contract": "application_contracts/Upgradeable Proxy.sol:Proxy",
						"label": "implementation",
						"offset": 0,
						"slot": "0",
						"type": "t_address"
					}
				],
				"types": {
					"t_address": {
						"encoding": "inplace",
						"label": "address",
						"numberOfBytes": "20"
					}
				}
			},
			"userdoc": {
				"kind": "user",
				"methods": {
					"setImplementation(address)": {
						"notice": "此函数没有访问控制，生产环境中应添加 onlyOwner 修饰符"
					}
				},
				"version": 1
			}
		}
	}
}